{"abi":[{"inputs":[{"internalType":"address","name":"_linkToken","type":"address"},{"internalType":"address","name":"_oracle","type":"address"},{"internalType":"string","name":"_jobId","type":"string"},{"internalType":"uint256","name":"_maxLockPeriod","type":"uint256"}],"stateMutability":"nonpayable","type":"constructor","name":"constructor"},{"anonymous":false,"inputs":[{"indexed":true,"internalType":"address","name":"previousOwner","type":"address"},{"indexed":true,"internalType":"address","name":"newOwner","type":"address"}],"name":"OwnershipTransferred","type":"event"},{"anonymous":false,"inputs":[{"indexed":true,"internalType":"address","name":"seller","type":"address"},{"indexed":false,"internalType":"address","name":"product","type":"address"}],"name":"ProductCreated","type":"event"},{"inputs":[{"internalType":"string","name":"_name","type":"string"},{"internalType":"uint256","name":"_price","type":"uint256"},{"internalType":"uint256","name":"_lockPeriod","type":"uint256"}],"name":"createProduct","outputs":[],"stateMutability":"nonpayable","type":"function"},{"inputs":[],"name":"maxLockPeriod","outputs":[{"internalType":"uint256","name":"","type":"uint256"}],"stateMutability":"view","type":"function"},{"inputs":[],"name":"owner","outputs":[{"internalType":"address","name":"","type":"address"}],"stateMutability":"view","type":"function"},{"inputs":[],"name":"productCount","outputs":[{"internalType":"uint256","name":"","type":"uint256"}],"stateMutability":"view","type":"function"},{"inputs":[{"internalType":"uint256","name":"","type":"uint256"}],"name":"products","outputs":[{"internalType":"address","name":"","type":"address"}],"stateMutability":"view","type":"function"},{"inputs":[],"name":"renounceOwnership","outputs":[],"stateMutability":"nonpayable","type":"function"},{"inputs":[{"internalType":"uint256","name":"_maxLockPeriod","type":"uint256"}],"name":"setMaxLockPeriod","outputs":[],"stateMutability":"nonpayable","type":"function"},{"inputs":[{"internalType":"address","name":"newOwner","type":"address"}],"name":"transferOwnership","outputs":[],"stateMutability":"nonpayable","type":"function"}],"bytecode":"60806040523480156200001157600080fd5b5060405162002a4238038062002a428339810160408190526200003491620001c0565b6200003f3362000097565b600180546001600160a01b038087166001600160a01b0319928316179092556002805492861692909116919091179055815162000084906003906020850190620000e7565b5060006005556004555062000307915050565b600080546001600160a01b038381166001600160a01b0319831681178455604051919092169283917f8be0079c531659141344cd1fd0a4f28419497f9722a3daafe3b4186f6b6457e09190a35050565b828054620000f590620002ca565b90600052602060002090601f01602090048101928262000119576000855562000164565b82601f106200013457805160ff191683800117855562000164565b8280016001018555821562000164579182015b828111156200016457825182559160200191906001019062000147565b506200017292915062000176565b5090565b5b8082111562000172576000815560010162000177565b80516001600160a01b0381168114620001a557600080fd5b919050565b634e487b7160e01b600052604160045260246000fd5b60008060008060808587031215620001d757600080fd5b620001e2856200018d565b93506020620001f38187016200018d565b60408701519094506001600160401b03808211156200021157600080fd5b818801915088601f8301126200022657600080fd5b8151818111156200023b576200023b620001aa565b604051601f8201601f19908116603f01168101908382118183101715620002665762000266620001aa565b816040528281528b868487010111156200027f57600080fd5b600093505b82841015620002a3578484018601518185018701529285019262000284565b82841115620002b55760008684830101525b60609a909a0151989b979a5050505050505050565b600181811c90821680620002df57607f821691505b602082108114156200030157634e487b7160e01b600052602260045260246000fd5b50919050565b61272b80620003176000396000f3fe608060405234801561001057600080fd5b50600436106100885760003560e01c80637bf12b1c1161005b5780637bf12b1c146101075780638da5cb5b1461011a578063e0f6ef871461012b578063f2fde38b1461013457600080fd5b80634b1d29b41461008d57806355889d01146100a9578063715018a6146100be5780637acc0b20146100c6575b600080fd5b61009660045481565b6040519081526020015b60405180910390f35b6100bc6100b7366004610434565b610147565b005b6100bc61017f565b6100ef6100d4366004610434565b6006602052600090815260409020546001600160a01b031681565b6040516001600160a01b0390911681526020016100a0565b6100bc610115366004610463565b6101b5565b6000546001600160a01b03166100ef565b61009660055481565b6100bc610142366004610527565b61033c565b6000546001600160a01b0316331461017a5760405162461bcd60e51b815260040161017190610557565b60405180910390fd5b600455565b6000546001600160a01b031633146101a95760405162461bcd60e51b815260040161017190610557565b6101b360006103d7565b565b60045481908111156101c657506004545b6001546002546005546040516000936101fc936001600160a01b03918216939116916003918a9133918b918a9190602001610613565b60405160208183030381529060405280519060200120905060008160405161022390610427565b8190604051809103906000f5905080158015610243573d6000803e3d6000fd5b50600154600254604051636220fbc560e11b81529293506001600160a01b038085169363c441f78a93610289939083169216906003908c9033908d908c90600401610721565b600060405180830381600087803b1580156102a357600080fd5b505af11580156102b7573d6000803e3d6000fd5b5050600580549250905060006102cc836107fb565b909155505060055460009081526006602090815260409182902080546001600160a01b0319166001600160a01b038516908117909155915191825233917fa66df2ac9413442073c2e47b33e555f5891823df7841196bd1f197175a12f8ae910160405180910390a2505050505050565b6000546001600160a01b031633146103665760405162461bcd60e51b815260040161017190610557565b6001600160a01b0381166103cb5760405162461bcd60e51b815260206004820152602660248201527f4f776e61626c653a206e6577206f776e657220697320746865207a65726f206160448201526564647265737360d01b6064820152608401610171565b6103d4816103d7565b50565b600080546001600160a01b038381166001600160a01b0319831681178455604051919092169283917f8be0079c531659141344cd1fd0a4f28419497f9722a3daafe3b4186f6b6457e09190a35050565b611ed18061082583390190565b60006020828403121561044657600080fd5b5035919050565b634e487b7160e01b600052604160045260246000fd5b60008060006060848603121561047857600080fd5b833567ffffffffffffffff8082111561049057600080fd5b818601915086601f8301126104a457600080fd5b8135818111156104b6576104b661044d565b604051601f8201601f19908116603f011681019083821181831017156104de576104de61044d565b816040528281528960208487010111156104f757600080fd5b82602086016020830137600060208483010152809750505050505060208401359150604084013590509250925092565b60006020828403121561053957600080fd5b81356001600160a01b038116811461055057600080fd5b9392505050565b6020808252818101527f4f776e61626c653a2063616c6c6572206973206e6f7420746865206f776e6572604082015260600190565b600181811c908216806105a057607f821691505b602082108114156105c157634e487b7160e01b600052602260045260246000fd5b50919050565b60005b838110156105e25781810151838201526020016105ca565b838111156105f1576000848401525b50505050565b600081516106098185602086016105c7565b9290920192915050565b60006bffffffffffffffffffffffff19808b60601b168352808a60601b166014840152506028600089546106468161058c565b6001828116801561065e5760018114610673576106a6565b60ff19841688870152828801860194506106a6565b8d60005260208060002060005b8581101561069b5781548b82018a0152908401908201610680565b505050858389010194505b505050506106b4818a6105f7565b9150506106d2818860601b6bffffffffffffffffffffffff19169052565b601481019590955250506034830191909152605482015260740195945050505050565b6000815180845261070d8160208601602086016105c7565b601f01601f19169290920160200192915050565b6001600160a01b038881168252871660208083019190915260e06040830152865460009182916107508161058c565b8060e08701526101006001808416600081146107735760018114610788576107b6565b60ff19851689840152610120890196506107b6565b8d6000528560002060005b858110156107ae5781548b8201860152908301908701610793565b8a0184019750505b50505050505082810360608401526107ce81886106f5565b9150506107e660808301866001600160a01b03169052565b60a082019390935260c0015295945050505050565b600060001982141561081d57634e487b7160e01b600052601160045260246000fd5b506001019056fe6080604052600160045534801561001557600080fd5b5061001f33610036565b600980546001600160a01b03191633179055610088565b600680546001600160a01b038381166001600160a01b0319831681179093556040519116919082907f8be0079c531659141344cd1fd0a4f28419497f9722a3daafe3b4186f6b6457e090600090a35050565b611e3a806100976000396000f3fe6080604052600436106100c25760003560e01c8063715018a61161007f578063bf9ce95211610059578063bf9ce952146101b6578063c441f78a146101e0578063e12ed13c14610200578063f2fde38b1461021657600080fd5b8063715018a6146101715780638da5cb5b14610186578063bf15071d146101ae57600080fd5b806309d99f67146100c7578063366e8e52146100e95780633fd8b02f146100fe57806350737055146101275780636a816548146101475780636b827cd41461015c575b600080fd5b3480156100d357600080fd5b506100e76100e23660046116eb565b610236565b005b3480156100f557600080fd5b506100e7610524565b34801561010a57600080fd5b50610114600a5481565b6040519081526020015b60405180910390f35b34801561013357600080fd5b506100e76101423660046117d2565b6105e9565b34801561015357600080fd5b506100e76106c5565b34801561016857600080fd5b506100e7610848565b34801561017d57600080fd5b506100e76109e4565b34801561019257600080fd5b506006546040516001600160a01b03909116815260200161011e565b6100e7610a1a565b3480156101c257600080fd5b506101cb610b74565b60405161011e99989796959493929190611875565b3480156101ec57600080fd5b506100e76101fb36600461192f565b610d5e565b34801561020c57600080fd5b50610114600b5481565b34801561022257600080fd5b506100e76102313660046119d8565b610ebb565b60008281526005602052604090205482906001600160a01b031633146102b45760405162461bcd60e51b815260206004820152602860248201527f536f75726365206d75737420626520746865206f7261636c65206f6620746865604482015267081c995c5d595cdd60c21b60648201526084015b60405180910390fd5b60008181526005602052604080822080546001600160a01b03191690555182917f7cc135e0cebb02c3480ae5d74d377283180a2601f8f644edf7987b009316c63a91a2604051639201de5560e01b81526004810183905273__strings_______________________________90639201de559060240160006040518083038186803b15801561034257600080fd5b505af4158015610356573d6000803e3d6000fd5b505050506040513d6000823e601f3d908101601f1916820160405261037e91908101906119f3565b805161039291601291602090910190611617565b50601280546103a090611a61565b80601f01602080910402602001604051908101604052809291908181526020018280546103cc90611a61565b80156104195780601f106103ee57610100808354040283529160200191610419565b820191906000526020600020905b8154815290600101906020018083116103fc57829003601f168201915b5050604051635f69a5dd60e11b815273__strings_______________________________9463bed34bba945061045493509150600401611a96565b60206040518083038186803b15801561046c57600080fd5b505af4158015610480573d6000803e3d6000fd5b505050506040513d601f19601f820116820180604052508101906104a49190611ad4565b156104ef576013805460ff191660031790556040518281527fad84bc03ffc88d269c045288b6bd3d77f12f9ef79581b860c1538f4bd662f9ea906020015b60405180910390a1505050565b6040518281527f65fb20badd0fcfd3bf3ba0ca9bfe4ec522640041a07decd17f1be1fb0ead4f4a906020016104e2565b505050565b6006546001600160a01b0316331461054e5760405162461bcd60e51b81526004016102ab90611af6565b60408051808201909152600d81526c496e76616c696420537461676560981b60208201526003908160135460ff16600481111561058d5761058d61185f565b1481906105ad5760405162461bcd60e51b81526004016102ab9190611b2b565b5060138054600460ff1990911617905560405133904780156108fc02916000818181858888f1935050505015801561051f573d6000803e3d6000fd5b6006546001600160a01b031633146106135760405162461bcd60e51b81526004016102ab90611af6565b60408051808201909152600d81526c496e76616c696420537461676560981b60208201526001908160135460ff1660048111156106525761065261185f565b1481906106725760405162461bcd60e51b81526004016102ab9190611b2b565b506013805460ff191660021790558251610693906011906020860190611617565b506040517f1862cf7a0e12bac162f518f43c2f50df187e89045899a7c015c1d61d9880a11b906104e290601190611b3e565b6010546001600160a01b0316331461070c5760405162461bcd60e51b815260206004820152600a60248201526927b7363c90213abcb2b960b11b60448201526064016102ab565b6040805180820190915260148152737368697070696e6720696e2070726f677265737360601b60208201526001908160135460ff1660048111156107525761075261185f565b1481906107725760405162461bcd60e51b81526004016102ab9190611b2b565b50600a54600b546107839190611bfc565b4310156107d25760405162461bcd60e51b815260206004820152601b60248201527f4e6f7420616c6c6f77656420746f2063616e63656c206f72646572000000000060448201526064016102ab565b601080546001600160a01b03191690556013805460ff1916905560405133904780156108fc02916000818181858888f19350505050158015610818573d6000803e3d6000fd5b5060405133907f393629f15e859a19530bab9675f9d39f0f57889f19f883bc5be3533c4a2c9ea890600090a25050565b60408051808201909152600d81526c13995959081cda1a5c1b595b9d609a1b60208201526002908160135460ff1660048111156108875761088761185f565b1481906108a75760405162461bcd60e51b81526004016102ab9190611b2b565b5060006108be600854306309d99f6760e01b610f56565b90506109846040518060400160405280600a815260200169747261636b696e674e6f60b01b815250600c60050180546108f690611a61565b80601f016020809104026020016040519081016040528092919081815260200182805461092290611a61565b801561096f5780601f106109445761010080835404028352916020019161096f565b820191906000526020600020905b81548152906001019060200180831161095257829003601f168201915b505050505083610f7b9092919063ffffffff16565b6007546000906109b0906001600160a01b0316836109ab670de0b6b3a76400006001611c14565b610f99565b60405190915081907fb5e6e01e79f91267dc17b4e6314d5d4d03593d2ceee0fbb452b750bd70ea5af990600090a250505050565b6006546001600160a01b03163314610a0e5760405162461bcd60e51b81526004016102ab90611af6565b610a186000610fb8565b565b60408051808201909152601481527320b63932b0b23c903430bb32903090313abcb2b960611b60208201526000908160135460ff166004811115610a6057610a6061185f565b148190610a805760405162461bcd60e51b81526004016102ab9190611b2b565b506006546001600160a01b0316331415610adc5760405162461bcd60e51b815260206004820152601d60248201527f596f752063616e206e6f74206275792066726f6d20796f757273656c6600000060448201526064016102ab565b600e54341015610b205760405162461bcd60e51b815260206004820152600f60248201526e139bdd08195b9bdd59da08199d5b99608a1b60448201526064016102ab565b6013805460ff1916600117905560108054336001600160a01b0319909116811790915543600b556040517fe4caeaef8e4f0c4880839ca47219351b38cf4116c082fd0baefc3008e4ba11a390600090a25050565b600c8054600d8054919291610b8890611a61565b80601f0160208091040260200160405190810160405280929190818152602001828054610bb490611a61565b8015610c015780601f10610bd657610100808354040283529160200191610c01565b820191906000526020600020905b815481529060010190602001808311610be457829003601f168201915b50505050600283015460038401546004850154600586018054959693956001600160a01b03938416955092821693600160a01b90920460ff1692610c4490611a61565b80601f0160208091040260200160405190810160405280929190818152602001828054610c7090611a61565b8015610cbd5780601f10610c9257610100808354040283529160200191610cbd565b820191906000526020600020905b815481529060010190602001808311610ca057829003601f168201915b505050505090806006018054610cd290611a61565b80601f0160208091040260200160405190810160405280929190818152602001828054610cfe90611a61565b8015610d4b5780601f10610d2057610100808354040283529160200191610d4b565b820191906000526020600020905b815481529060010190602001808311610d2e57829003601f168201915b5050506007909301549192505060ff1689565b6009546001600160a01b03163314610da45760405162461bcd60e51b81526020600482015260096024820152682327a92124a22222a760b91b60448201526064016102ab565b600280546001600160a01b0319166001600160a01b038916179055610dc883610ebb565b600780546001600160a01b0319166001600160a01b0388161790556040516319f6a32560e31b815273__strings_______________________________9063cfb5192890610e1a908890600401611b2b565b60206040518083038186803b158015610e3257600080fd5b505af4158015610e46573d6000803e3d6000fd5b505050506040513d601f19601f82011682018060405250810190610e6a9190611c33565b600855600a8190558351610e8590600d906020870190611617565b50506013805460ff19169055600f80546001600160a01b0319166001600160a01b039390931692909217909155600e5550505050565b6006546001600160a01b03163314610ee55760405162461bcd60e51b81526004016102ab90611af6565b6001600160a01b038116610f4a5760405162461bcd60e51b815260206004820152602660248201527f4f776e61626c653a206e6577206f776e657220697320746865207a65726f206160448201526564647265737360d01b60648201526084016102ab565b610f5381610fb8565b50565b610f5e61169b565b610f6661169b565b610f728186868661100a565b95945050505050565b6080830151610f8a9083611047565b608083015161051f9082611047565b6000610fb084848460016320214ca360e11b61105e565b949350505050565b600680546001600160a01b038381166001600160a01b0319831681179093556040519116919082907f8be0079c531659141344cd1fd0a4f28419497f9722a3daafe3b4186f6b6457e090600090a35050565b61101261169b565b611022856080015161010061126a565b50509183526001600160a01b031660208301526001600160e01b031916604082015290565b61105482600383516112d5565b61051f82826113a9565b6004546040516bffffffffffffffffffffffff193060601b166020820152603481019190915260009060540160408051808303601f19018152918152815160209283012060045460608901526000818152600590935281832080546001600160a01b0319166001600160a01b038b16179055905190925082917fb5e6e01e79f91267dc17b4e6314d5d4d03593d2ceee0fbb452b750bd70ea5af991a2600082600080886000015189602001518a604001518b606001518a8d6080015160000151604051602401611135989796959493929190611c4c565b60408051601f198184030181529181526020820180516001600160e01b03166001600160e01b0319909416939093179092526002549151630200057560e51b81529092506001600160a01b0390911690634000aea09061119d908a9089908690600401611cb4565b602060405180830381600087803b1580156111b757600080fd5b505af11580156111cb573d6000803e3d6000fd5b505050506040513d601f19601f820116820180604052508101906111ef9190611ad4565b6112475760405162461bcd60e51b815260206004820152602360248201527f756e61626c6520746f207472616e73666572416e6443616c6c20746f206f7261604482015262636c6560e81b60648201526084016102ab565b60016004600082825461125a9190611bfc565b9091555091979650505050505050565b60408051808201909152606081526000602082015261128a602083611cdb565b156112b25761129a602083611cdb565b6112a5906020611cfd565b6112af9083611bfc565b91505b506020808301829052604080518085526000815283019091019052815b92915050565b601781116112f6576112f08360e0600585901b1683176113d7565b50505050565b60ff811161132057611313836018611fe0600586901b16176113d7565b506112f0838260016113fc565b61ffff811161134b5761133e836019611fe0600586901b16176113d7565b506112f0838260026113fc565b63ffffffff81116113785761136b83601a611fe0600586901b16176113d7565b506112f0838260046113fc565b67ffffffffffffffff811161051f5761139c83601b611fe0600586901b16176113d7565b506112f0838260086113fc565b6040805180820190915260608152600060208201526113d083846000015151848551611422565b9392505050565b6040805180820190915260608152600060208201526113d0838460000151518461150c565b604080518082019091526060815260006020820152610fb0848560000151518585611568565b604080518082019091526060815260006020820152825182111561144557600080fd5b60208501516114548386611bfc565b11156114875761148785611477876020015187866114729190611bfc565b6115e9565b611482906002611c14565b611600565b6000808651805187602083010193508088870111156114a65787860182525b505050602084015b602084106114e657805182526114c5602083611bfc565b91506114d2602082611bfc565b90506114df602085611cfd565b93506114ae565b51815160001960208690036101000a019081169019919091161790525083949350505050565b604080518082019091526060815260006020820152836020015183106115415761154184856020015160026114829190611c14565b83518051602085830101848153508085141561155e576001810182525b5093949350505050565b604080518082019091526060815260006020820152602085015161158c8584611bfc565b11156115a0576115a0856114778685611bfc565b600060016115b084610100611df8565b6115ba9190611cfd565b90508551838682010185831982511617815250805184870111156115de5783860181525b509495945050505050565b6000818311156115fa5750816112cf565b50919050565b815161160c838361126a565b506112f083826113a9565b82805461162390611a61565b90600052602060002090601f016020900481019282611645576000855561168b565b82601f1061165e57805160ff191683800117855561168b565b8280016001018555821561168b579182015b8281111561168b578251825591602001919060010190611670565b506116979291506116d6565b5090565b6040805160a0810182526000808252602080830182905282840182905260608084018390528451808601909552845283015290608082015290565b5b8082111561169757600081556001016116d7565b600080604083850312156116fe57600080fd5b50508035926020909101359150565b634e487b7160e01b600052604160045260246000fd5b604051601f8201601f1916810167ffffffffffffffff8111828210171561174c5761174c61170d565b604052919050565b600067ffffffffffffffff82111561176e5761176e61170d565b50601f01601f191660200190565b600082601f83011261178d57600080fd5b81356117a061179b82611754565b611723565b8181528460208386010111156117b557600080fd5b816020850160208301376000918101602001919091529392505050565b6000602082840312156117e457600080fd5b813567ffffffffffffffff8111156117fb57600080fd5b610fb08482850161177c565b60005b8381101561182257818101518382015260200161180a565b838111156112f05750506000910152565b6000815180845261184b816020860160208601611807565b601f01601f19169290920160200192915050565b634e487b7160e01b600052602160045260246000fd5b60006101208b835280602084015261188f8184018c611833565b604084018b90526001600160a01b038a811660608601528916608085015287151560a085015283810360c085015290506118c98187611833565b905082810360e08401526118dd8186611833565b915050600583106118fe57634e487b7160e01b600052602160045260246000fd5b826101008301529a9950505050505050505050565b80356001600160a01b038116811461192a57600080fd5b919050565b600080600080600080600060e0888a03121561194a57600080fd5b61195388611913565b965061196160208901611913565b9550604088013567ffffffffffffffff8082111561197e57600080fd5b61198a8b838c0161177c565b965060608a01359150808211156119a057600080fd5b506119ad8a828b0161177c565b9450506119bc60808901611913565b925060a0880135915060c0880135905092959891949750929550565b6000602082840312156119ea57600080fd5b6113d082611913565b600060208284031215611a0557600080fd5b815167ffffffffffffffff811115611a1c57600080fd5b8201601f81018413611a2d57600080fd5b8051611a3b61179b82611754565b818152856020838501011115611a5057600080fd5b610f72826020830160208601611807565b600181811c90821680611a7557607f821691505b602082108114156115fa57634e487b7160e01b600052602260045260246000fd5b604081526000611aa96040830184611833565b8281036020840152600981526811195b1a5d995c995960ba1b60208201526040810191505092915050565b600060208284031215611ae657600080fd5b815180151581146113d057600080fd5b6020808252818101527f4f776e61626c653a2063616c6c6572206973206e6f7420746865206f776e6572604082015260600190565b6020815260006113d06020830184611833565b600060208083526000845481600182811c915080831680611b6057607f831692505b858310811415611b7e57634e487b7160e01b85526022600452602485fd5b878601838152602001818015611b9b5760018114611bac57611bd7565b60ff19861682528782019650611bd7565b60008b81526020902060005b86811015611bd157815484820152908501908901611bb8565b83019750505b50949998505050505050505050565b634e487b7160e01b600052601160045260246000fd5b60008219821115611c0f57611c0f611be6565b500190565b6000816000190483118215151615611c2e57611c2e611be6565b500290565b600060208284031215611c4557600080fd5b5051919050565b6001600160a01b0389811682526020820189905260408201889052861660608201526001600160e01b03198516608082015260a0810184905260c0810183905261010060e08201819052600090611ca583820185611833565b9b9a5050505050505050505050565b60018060a01b0384168152826020820152606060408201526000610f726060830184611833565b600082611cf857634e487b7160e01b600052601260045260246000fd5b500690565b600082821015611d0f57611d0f611be6565b500390565b600181815b80851115611d4f578160001904821115611d3557611d35611be6565b80851615611d4257918102915b93841c9390800290611d19565b509250929050565b600082611d66575060016112cf565b81611d73575060006112cf565b8160018114611d895760028114611d9357611daf565b60019150506112cf565b60ff841115611da457611da4611be6565b50506001821b6112cf565b5060208310610133831016604e8410600b8410161715611dd2575081810a6112cf565b611ddc8383611d14565b8060001904821115611df057611df0611be6565b029392505050565b60006113d08383611d5756fea2646970667358221220805cddf3b20f2cabe3c5a5eaf7fbab4f7f9d480f12d11fe47d7dcb0c985c51e264736f6c63430008090033a26469706673582212207282ffb1db8c390f6baa88a21b928a2100e6d5bbcdedd6237bc91a7cbd30cec764736f6c63430008090033","bytecodeSha1":"94c54d5abd13f45c5545cf7989285786abf93c44","compiler":{"evm_version":"istanbul","optimizer":{"enabled":true,"runs":200},"version":"0.8.9+commit.e5eed63a"},"contractName":"EscrowFactory","deployedBytecode":"608060405234801561001057600080fd5b50600436106100885760003560e01c80637bf12b1c1161005b5780637bf12b1c146101075780638da5cb5b1461011a578063e0f6ef871461012b578063f2fde38b1461013457600080fd5b80634b1d29b41461008d57806355889d01146100a9578063715018a6146100be5780637acc0b20146100c6575b600080fd5b61009660045481565b6040519081526020015b60405180910390f35b6100bc6100b7366004610434565b610147565b005b6100bc61017f565b6100ef6100d4366004610434565b6006602052600090815260409020546001600160a01b031681565b6040516001600160a01b0390911681526020016100a0565b6100bc610115366004610463565b6101b5565b6000546001600160a01b03166100ef565b61009660055481565b6100bc610142366004610527565b61033c565b6000546001600160a01b0316331461017a5760405162461bcd60e51b815260040161017190610557565b60405180910390fd5b600455565b6000546001600160a01b031633146101a95760405162461bcd60e51b815260040161017190610557565b6101b360006103d7565b565b60045481908111156101c657506004545b6001546002546005546040516000936101fc936001600160a01b03918216939116916003918a9133918b918a9190602001610613565b60405160208183030381529060405280519060200120905060008160405161022390610427565b8190604051809103906000f5905080158015610243573d6000803e3d6000fd5b50600154600254604051636220fbc560e11b81529293506001600160a01b038085169363c441f78a93610289939083169216906003908c9033908d908c90600401610721565b600060405180830381600087803b1580156102a357600080fd5b505af11580156102b7573d6000803e3d6000fd5b5050600580549250905060006102cc836107fb565b909155505060055460009081526006602090815260409182902080546001600160a01b0319166001600160a01b038516908117909155915191825233917fa66df2ac9413442073c2e47b33e555f5891823df7841196bd1f197175a12f8ae910160405180910390a2505050505050565b6000546001600160a01b031633146103665760405162461bcd60e51b815260040161017190610557565b6001600160a01b0381166103cb5760405162461bcd60e51b815260206004820152602660248201527f4f776e61626c653a206e6577206f776e657220697320746865207a65726f206160448201526564647265737360d01b6064820152608401610171565b6103d4816103d7565b50565b600080546001600160a01b038381166001600160a01b0319831681178455604051919092169283917f8be0079c531659141344cd1fd0a4f28419497f9722a3daafe3b4186f6b6457e09190a35050565b611ed18061082583390190565b60006020828403121561044657600080fd5b5035919050565b634e487b7160e01b600052604160045260246000fd5b60008060006060848603121561047857600080fd5b833567ffffffffffffffff8082111561049057600080fd5b818601915086601f8301126104a457600080fd5b8135818111156104b6576104b661044d565b604051601f8201601f19908116603f011681019083821181831017156104de576104de61044d565b816040528281528960208487010111156104f757600080fd5b82602086016020830137600060208483010152809750505050505060208401359150604084013590509250925092565b60006020828403121561053957600080fd5b81356001600160a01b038116811461055057600080fd5b9392505050565b6020808252818101527f4f776e61626c653a2063616c6c6572206973206e6f7420746865206f776e6572604082015260600190565b600181811c908216806105a057607f821691505b602082108114156105c157634e487b7160e01b600052602260045260246000fd5b50919050565b60005b838110156105e25781810151838201526020016105ca565b838111156105f1576000848401525b50505050565b600081516106098185602086016105c7565b9290920192915050565b60006bffffffffffffffffffffffff19808b60601b168352808a60601b166014840152506028600089546106468161058c565b6001828116801561065e5760018114610673576106a6565b60ff19841688870152828801860194506106a6565b8d60005260208060002060005b8581101561069b5781548b82018a0152908401908201610680565b505050858389010194505b505050506106b4818a6105f7565b9150506106d2818860601b6bffffffffffffffffffffffff19169052565b601481019590955250506034830191909152605482015260740195945050505050565b6000815180845261070d8160208601602086016105c7565b601f01601f19169290920160200192915050565b6001600160a01b038881168252871660208083019190915260e06040830152865460009182916107508161058c565b8060e08701526101006001808416600081146107735760018114610788576107b6565b60ff19851689840152610120890196506107b6565b8d6000528560002060005b858110156107ae5781548b8201860152908301908701610793565b8a0184019750505b50505050505082810360608401526107ce81886106f5565b9150506107e660808301866001600160a01b03169052565b60a082019390935260c0015295945050505050565b600060001982141561081d57634e487b7160e01b600052601160045260246000fd5b506001019056fe6080604052600160045534801561001557600080fd5b5061001f33610036565b600980546001600160a01b03191633179055610088565b600680546001600160a01b038381166001600160a01b0319831681179093556040519116919082907f8be0079c531659141344cd1fd0a4f28419497f9722a3daafe3b4186f6b6457e090600090a35050565b611e3a806100976000396000f3fe6080604052600436106100c25760003560e01c8063715018a61161007f578063bf9ce95211610059578063bf9ce952146101b6578063c441f78a146101e0578063e12ed13c14610200578063f2fde38b1461021657600080fd5b8063715018a6146101715780638da5cb5b14610186578063bf15071d146101ae57600080fd5b806309d99f67146100c7578063366e8e52146100e95780633fd8b02f146100fe57806350737055146101275780636a816548146101475780636b827cd41461015c575b600080fd5b3480156100d357600080fd5b506100e76100e23660046116eb565b610236565b005b3480156100f557600080fd5b506100e7610524565b34801561010a57600080fd5b50610114600a5481565b6040519081526020015b60405180910390f35b34801561013357600080fd5b506100e76101423660046117d2565b6105e9565b34801561015357600080fd5b506100e76106c5565b34801561016857600080fd5b506100e7610848565b34801561017d57600080fd5b506100e76109e4565b34801561019257600080fd5b506006546040516001600160a01b03909116815260200161011e565b6100e7610a1a565b3480156101c257600080fd5b506101cb610b74565b60405161011e99989796959493929190611875565b3480156101ec57600080fd5b506100e76101fb36600461192f565b610d5e565b34801561020c57600080fd5b50610114600b5481565b34801561022257600080fd5b506100e76102313660046119d8565b610ebb565b60008281526005602052604090205482906001600160a01b031633146102b45760405162461bcd60e51b815260206004820152602860248201527f536f75726365206d75737420626520746865206f7261636c65206f6620746865604482015267081c995c5d595cdd60c21b60648201526084015b60405180910390fd5b60008181526005602052604080822080546001600160a01b03191690555182917f7cc135e0cebb02c3480ae5d74d377283180a2601f8f644edf7987b009316c63a91a2604051639201de5560e01b81526004810183905273__$aadc688bcea560502e0213413fe0dcbaa2$__90639201de559060240160006040518083038186803b15801561034257600080fd5b505af4158015610356573d6000803e3d6000fd5b505050506040513d6000823e601f3d908101601f1916820160405261037e91908101906119f3565b805161039291601291602090910190611617565b50601280546103a090611a61565b80601f01602080910402602001604051908101604052809291908181526020018280546103cc90611a61565b80156104195780601f106103ee57610100808354040283529160200191610419565b820191906000526020600020905b8154815290600101906020018083116103fc57829003601f168201915b5050604051635f69a5dd60e11b815273__$aadc688bcea560502e0213413fe0dcbaa2$__9463bed34bba945061045493509150600401611a96565b60206040518083038186803b15801561046c57600080fd5b505af4158015610480573d6000803e3d6000fd5b505050506040513d601f19601f820116820180604052508101906104a49190611ad4565b156104ef576013805460ff191660031790556040518281527fad84bc03ffc88d269c045288b6bd3d77f12f9ef79581b860c1538f4bd662f9ea906020015b60405180910390a1505050565b6040518281527f65fb20badd0fcfd3bf3ba0ca9bfe4ec522640041a07decd17f1be1fb0ead4f4a906020016104e2565b505050565b6006546001600160a01b0316331461054e5760405162461bcd60e51b81526004016102ab90611af6565b60408051808201909152600d81526c496e76616c696420537461676560981b60208201526003908160135460ff16600481111561058d5761058d61185f565b1481906105ad5760405162461bcd60e51b81526004016102ab9190611b2b565b5060138054600460ff1990911617905560405133904780156108fc02916000818181858888f1935050505015801561051f573d6000803e3d6000fd5b6006546001600160a01b031633146106135760405162461bcd60e51b81526004016102ab90611af6565b60408051808201909152600d81526c496e76616c696420537461676560981b60208201526001908160135460ff1660048111156106525761065261185f565b1481906106725760405162461bcd60e51b81526004016102ab9190611b2b565b506013805460ff191660021790558251610693906011906020860190611617565b506040517f1862cf7a0e12bac162f518f43c2f50df187e89045899a7c015c1d61d9880a11b906104e290601190611b3e565b6010546001600160a01b0316331461070c5760405162461bcd60e51b815260206004820152600a60248201526927b7363c90213abcb2b960b11b60448201526064016102ab565b6040805180820190915260148152737368697070696e6720696e2070726f677265737360601b60208201526001908160135460ff1660048111156107525761075261185f565b1481906107725760405162461bcd60e51b81526004016102ab9190611b2b565b50600a54600b546107839190611bfc565b4310156107d25760405162461bcd60e51b815260206004820152601b60248201527f4e6f7420616c6c6f77656420746f2063616e63656c206f72646572000000000060448201526064016102ab565b601080546001600160a01b03191690556013805460ff1916905560405133904780156108fc02916000818181858888f19350505050158015610818573d6000803e3d6000fd5b5060405133907f393629f15e859a19530bab9675f9d39f0f57889f19f883bc5be3533c4a2c9ea890600090a25050565b60408051808201909152600d81526c13995959081cda1a5c1b595b9d609a1b60208201526002908160135460ff1660048111156108875761088761185f565b1481906108a75760405162461bcd60e51b81526004016102ab9190611b2b565b5060006108be600854306309d99f6760e01b610f56565b90506109846040518060400160405280600a815260200169747261636b696e674e6f60b01b815250600c60050180546108f690611a61565b80601f016020809104026020016040519081016040528092919081815260200182805461092290611a61565b801561096f5780601f106109445761010080835404028352916020019161096f565b820191906000526020600020905b81548152906001019060200180831161095257829003601f168201915b505050505083610f7b9092919063ffffffff16565b6007546000906109b0906001600160a01b0316836109ab670de0b6b3a76400006001611c14565b610f99565b60405190915081907fb5e6e01e79f91267dc17b4e6314d5d4d03593d2ceee0fbb452b750bd70ea5af990600090a250505050565b6006546001600160a01b03163314610a0e5760405162461bcd60e51b81526004016102ab90611af6565b610a186000610fb8565b565b60408051808201909152601481527320b63932b0b23c903430bb32903090313abcb2b960611b60208201526000908160135460ff166004811115610a6057610a6061185f565b148190610a805760405162461bcd60e51b81526004016102ab9190611b2b565b506006546001600160a01b0316331415610adc5760405162461bcd60e51b815260206004820152601d60248201527f596f752063616e206e6f74206275792066726f6d20796f757273656c6600000060448201526064016102ab565b600e54341015610b205760405162461bcd60e51b815260206004820152600f60248201526e139bdd08195b9bdd59da08199d5b99608a1b60448201526064016102ab565b6013805460ff1916600117905560108054336001600160a01b0319909116811790915543600b556040517fe4caeaef8e4f0c4880839ca47219351b38cf4116c082fd0baefc3008e4ba11a390600090a25050565b600c8054600d8054919291610b8890611a61565b80601f0160208091040260200160405190810160405280929190818152602001828054610bb490611a61565b8015610c015780601f10610bd657610100808354040283529160200191610c01565b820191906000526020600020905b815481529060010190602001808311610be457829003601f168201915b50505050600283015460038401546004850154600586018054959693956001600160a01b03938416955092821693600160a01b90920460ff1692610c4490611a61565b80601f0160208091040260200160405190810160405280929190818152602001828054610c7090611a61565b8015610cbd5780601f10610c9257610100808354040283529160200191610cbd565b820191906000526020600020905b815481529060010190602001808311610ca057829003601f168201915b505050505090806006018054610cd290611a61565b80601f0160208091040260200160405190810160405280929190818152602001828054610cfe90611a61565b8015610d4b5780601f10610d2057610100808354040283529160200191610d4b565b820191906000526020600020905b815481529060010190602001808311610d2e57829003601f168201915b5050506007909301549192505060ff1689565b6009546001600160a01b03163314610da45760405162461bcd60e51b81526020600482015260096024820152682327a92124a22222a760b91b60448201526064016102ab565b600280546001600160a01b0319166001600160a01b038916179055610dc883610ebb565b600780546001600160a01b0319166001600160a01b0388161790556040516319f6a32560e31b815273__$aadc688bcea560502e0213413fe0dcbaa2$__9063cfb5192890610e1a908890600401611b2b565b60206040518083038186803b158015610e3257600080fd5b505af4158015610e46573d6000803e3d6000fd5b505050506040513d601f19601f82011682018060405250810190610e6a9190611c33565b600855600a8190558351610e8590600d906020870190611617565b50506013805460ff19169055600f80546001600160a01b0319166001600160a01b039390931692909217909155600e5550505050565b6006546001600160a01b03163314610ee55760405162461bcd60e51b81526004016102ab90611af6565b6001600160a01b038116610f4a5760405162461bcd60e51b815260206004820152602660248201527f4f776e61626c653a206e6577206f776e657220697320746865207a65726f206160448201526564647265737360d01b60648201526084016102ab565b610f5381610fb8565b50565b610f5e61169b565b610f6661169b565b610f728186868661100a565b95945050505050565b6080830151610f8a9083611047565b608083015161051f9082611047565b6000610fb084848460016320214ca360e11b61105e565b949350505050565b600680546001600160a01b038381166001600160a01b0319831681179093556040519116919082907f8be0079c531659141344cd1fd0a4f28419497f9722a3daafe3b4186f6b6457e090600090a35050565b61101261169b565b611022856080015161010061126a565b50509183526001600160a01b031660208301526001600160e01b031916604082015290565b61105482600383516112d5565b61051f82826113a9565b6004546040516bffffffffffffffffffffffff193060601b166020820152603481019190915260009060540160408051808303601f19018152918152815160209283012060045460608901526000818152600590935281832080546001600160a01b0319166001600160a01b038b16179055905190925082917fb5e6e01e79f91267dc17b4e6314d5d4d03593d2ceee0fbb452b750bd70ea5af991a2600082600080886000015189602001518a604001518b606001518a8d6080015160000151604051602401611135989796959493929190611c4c565b60408051601f198184030181529181526020820180516001600160e01b03166001600160e01b0319909416939093179092526002549151630200057560e51b81529092506001600160a01b0390911690634000aea09061119d908a9089908690600401611cb4565b602060405180830381600087803b1580156111b757600080fd5b505af11580156111cb573d6000803e3d6000fd5b505050506040513d601f19601f820116820180604052508101906111ef9190611ad4565b6112475760405162461bcd60e51b815260206004820152602360248201527f756e61626c6520746f207472616e73666572416e6443616c6c20746f206f7261604482015262636c6560e81b60648201526084016102ab565b60016004600082825461125a9190611bfc565b9091555091979650505050505050565b60408051808201909152606081526000602082015261128a602083611cdb565b156112b25761129a602083611cdb565b6112a5906020611cfd565b6112af9083611bfc565b91505b506020808301829052604080518085526000815283019091019052815b92915050565b601781116112f6576112f08360e0600585901b1683176113d7565b50505050565b60ff811161132057611313836018611fe0600586901b16176113d7565b506112f0838260016113fc565b61ffff811161134b5761133e836019611fe0600586901b16176113d7565b506112f0838260026113fc565b63ffffffff81116113785761136b83601a611fe0600586901b16176113d7565b506112f0838260046113fc565b67ffffffffffffffff811161051f5761139c83601b611fe0600586901b16176113d7565b506112f0838260086113fc565b6040805180820190915260608152600060208201526113d083846000015151848551611422565b9392505050565b6040805180820190915260608152600060208201526113d0838460000151518461150c565b604080518082019091526060815260006020820152610fb0848560000151518585611568565b604080518082019091526060815260006020820152825182111561144557600080fd5b60208501516114548386611bfc565b11156114875761148785611477876020015187866114729190611bfc565b6115e9565b611482906002611c14565b611600565b6000808651805187602083010193508088870111156114a65787860182525b505050602084015b602084106114e657805182526114c5602083611bfc565b91506114d2602082611bfc565b90506114df602085611cfd565b93506114ae565b51815160001960208690036101000a019081169019919091161790525083949350505050565b604080518082019091526060815260006020820152836020015183106115415761154184856020015160026114829190611c14565b83518051602085830101848153508085141561155e576001810182525b5093949350505050565b604080518082019091526060815260006020820152602085015161158c8584611bfc565b11156115a0576115a0856114778685611bfc565b600060016115b084610100611df8565b6115ba9190611cfd565b90508551838682010185831982511617815250805184870111156115de5783860181525b509495945050505050565b6000818311156115fa5750816112cf565b50919050565b815161160c838361126a565b506112f083826113a9565b82805461162390611a61565b90600052602060002090601f016020900481019282611645576000855561168b565b82601f1061165e57805160ff191683800117855561168b565b8280016001018555821561168b579182015b8281111561168b578251825591602001919060010190611670565b506116979291506116d6565b5090565b6040805160a0810182526000808252602080830182905282840182905260608084018390528451808601909552845283015290608082015290565b5b8082111561169757600081556001016116d7565b600080604083850312156116fe57600080fd5b50508035926020909101359150565b634e487b7160e01b600052604160045260246000fd5b604051601f8201601f1916810167ffffffffffffffff8111828210171561174c5761174c61170d565b604052919050565b600067ffffffffffffffff82111561176e5761176e61170d565b50601f01601f191660200190565b600082601f83011261178d57600080fd5b81356117a061179b82611754565b611723565b8181528460208386010111156117b557600080fd5b816020850160208301376000918101602001919091529392505050565b6000602082840312156117e457600080fd5b813567ffffffffffffffff8111156117fb57600080fd5b610fb08482850161177c565b60005b8381101561182257818101518382015260200161180a565b838111156112f05750506000910152565b6000815180845261184b816020860160208601611807565b601f01601f19169290920160200192915050565b634e487b7160e01b600052602160045260246000fd5b60006101208b835280602084015261188f8184018c611833565b604084018b90526001600160a01b038a811660608601528916608085015287151560a085015283810360c085015290506118c98187611833565b905082810360e08401526118dd8186611833565b915050600583106118fe57634e487b7160e01b600052602160045260246000fd5b826101008301529a9950505050505050505050565b80356001600160a01b038116811461192a57600080fd5b919050565b600080600080600080600060e0888a03121561194a57600080fd5b61195388611913565b965061196160208901611913565b9550604088013567ffffffffffffffff8082111561197e57600080fd5b61198a8b838c0161177c565b965060608a01359150808211156119a057600080fd5b506119ad8a828b0161177c565b9450506119bc60808901611913565b925060a0880135915060c0880135905092959891949750929550565b6000602082840312156119ea57600080fd5b6113d082611913565b600060208284031215611a0557600080fd5b815167ffffffffffffffff811115611a1c57600080fd5b8201601f81018413611a2d57600080fd5b8051611a3b61179b82611754565b818152856020838501011115611a5057600080fd5b610f72826020830160208601611807565b600181811c90821680611a7557607f821691505b602082108114156115fa57634e487b7160e01b600052602260045260246000fd5b604081526000611aa96040830184611833565b8281036020840152600981526811195b1a5d995c995960ba1b60208201526040810191505092915050565b600060208284031215611ae657600080fd5b815180151581146113d057600080fd5b6020808252818101527f4f776e61626c653a2063616c6c6572206973206e6f7420746865206f776e6572604082015260600190565b6020815260006113d06020830184611833565b600060208083526000845481600182811c915080831680611b6057607f831692505b858310811415611b7e57634e487b7160e01b85526022600452602485fd5b878601838152602001818015611b9b5760018114611bac57611bd7565b60ff19861682528782019650611bd7565b60008b81526020902060005b86811015611bd157815484820152908501908901611bb8565b83019750505b50949998505050505050505050565b634e487b7160e01b600052601160045260246000fd5b60008219821115611c0f57611c0f611be6565b500190565b6000816000190483118215151615611c2e57611c2e611be6565b500290565b600060208284031215611c4557600080fd5b5051919050565b6001600160a01b0389811682526020820189905260408201889052861660608201526001600160e01b03198516608082015260a0810184905260c0810183905261010060e08201819052600090611ca583820185611833565b9b9a5050505050505050505050565b60018060a01b0384168152826020820152606060408201526000610f726060830184611833565b600082611cf857634e487b7160e01b600052601260045260246000fd5b500690565b600082821015611d0f57611d0f611be6565b500390565b600181815b80851115611d4f578160001904821115611d3557611d35611be6565b80851615611d4257918102915b93841c9390800290611d19565b509250929050565b600082611d66575060016112cf565b81611d73575060006112cf565b8160018114611d895760028114611d9357611daf565b60019150506112cf565b60ff841115611da457611da4611be6565b50506001821b6112cf565b5060208310610133831016604e8410600b8410161715611dd2575081810a6112cf565b611ddc8383611d14565b8060001904821115611df057611df0611be6565b029392505050565b60006113d08383611d5756fea2646970667358221220805cddf3b20f2cabe3c5a5eaf7fbab4f7f9d480f12d11fe47d7dcb0c985c51e264736f6c63430008090033a26469706673582212207282ffb1db8c390f6baa88a21b928a2100e6d5bbcdedd6237bc91a7cbd30cec764736f6c63430008090033","language":"Solidity","natspec":{"kind":"dev","methods":{"owner()":{"details":"Returns the address of the current owner."},"renounceOwnership()":{"details":"Leaves the contract without owner. It will not be possible to call `onlyOwner` functions anymore. Can only be called by the current owner. NOTE: Renouncing ownership will leave the contract without an owner, thereby removing any functionality that is only available to the owner."},"transferOwnership(address)":{"details":"Transfers ownership of the contract to a new account (`newOwner`). Can only be called by the current owner."}},"version":1},"opcodes":"PUSH1 0x80 PUSH1 0x40 MSTORE CALLVALUE DUP1 ISZERO PUSH2 0x10 JUMPI PUSH1 0x0 DUP1 REVERT JUMPDEST POP PUSH1 0x4 CALLDATASIZE LT PUSH2 0x88 JUMPI PUSH1 0x0 CALLDATALOAD PUSH1 0xE0 SHR DUP1 PUSH4 0x7BF12B1C GT PUSH2 0x5B JUMPI DUP1 PUSH4 0x7BF12B1C EQ PUSH2 0x107 JUMPI DUP1 PUSH4 0x8DA5CB5B EQ PUSH2 0x11A JUMPI DUP1 PUSH4 0xE0F6EF87 EQ PUSH2 0x12B JUMPI DUP1 PUSH4 0xF2FDE38B EQ PUSH2 0x134 JUMPI PUSH1 0x0 DUP1 REVERT JUMPDEST DUP1 PUSH4 0x4B1D29B4 EQ PUSH2 0x8D JUMPI DUP1 PUSH4 0x55889D01 EQ PUSH2 0xA9 JUMPI DUP1 PUSH4 0x715018A6 EQ PUSH2 0xBE JUMPI DUP1 PUSH4 0x7ACC0B20 EQ PUSH2 0xC6 JUMPI JUMPDEST PUSH1 0x0 DUP1 REVERT JUMPDEST PUSH2 0x96 PUSH1 0x4 SLOAD DUP2 JUMP JUMPDEST PUSH1 0x40 MLOAD SWAP1 DUP2 MSTORE PUSH1 0x20 ADD JUMPDEST PUSH1 0x40 MLOAD DUP1 SWAP2 SUB SWAP1 RETURN JUMPDEST PUSH2 0xBC PUSH2 0xB7 CALLDATASIZE PUSH1 0x4 PUSH2 0x434 JUMP JUMPDEST PUSH2 0x147 JUMP JUMPDEST STOP JUMPDEST PUSH2 0xBC PUSH2 0x17F JUMP JUMPDEST PUSH2 0xEF PUSH2 0xD4 CALLDATASIZE PUSH1 0x4 PUSH2 0x434 JUMP JUMPDEST PUSH1 0x6 PUSH1 0x20 MSTORE PUSH1 0x0 SWAP1 DUP2 MSTORE PUSH1 0x40 SWAP1 KECCAK256 SLOAD PUSH1 0x1 PUSH1 0x1 PUSH1 0xA0 SHL SUB AND DUP2 JUMP JUMPDEST PUSH1 0x40 MLOAD PUSH1 0x1 PUSH1 0x1 PUSH1 0xA0 SHL SUB SWAP1 SWAP2 AND DUP2 MSTORE PUSH1 0x20 ADD PUSH2 0xA0 JUMP JUMPDEST PUSH2 0xBC PUSH2 0x115 CALLDATASIZE PUSH1 0x4 PUSH2 0x463 JUMP JUMPDEST PUSH2 0x1B5 JUMP JUMPDEST PUSH1 0x0 SLOAD PUSH1 0x1 PUSH1 0x1 PUSH1 0xA0 SHL SUB AND PUSH2 0xEF JUMP JUMPDEST PUSH2 0x96 PUSH1 0x5 SLOAD DUP2 JUMP JUMPDEST PUSH2 0xBC PUSH2 0x142 CALLDATASIZE PUSH1 0x4 PUSH2 0x527 JUMP JUMPDEST PUSH2 0x33C JUMP JUMPDEST PUSH1 0x0 SLOAD PUSH1 0x1 PUSH1 0x1 PUSH1 0xA0 SHL SUB AND CALLER EQ PUSH2 0x17A JUMPI PUSH1 0x40 MLOAD PUSH3 0x461BCD PUSH1 0xE5 SHL DUP2 MSTORE PUSH1 0x4 ADD PUSH2 0x171 SWAP1 PUSH2 0x557 JUMP JUMPDEST PUSH1 0x40 MLOAD DUP1 SWAP2 SUB SWAP1 REVERT JUMPDEST PUSH1 0x4 SSTORE JUMP JUMPDEST PUSH1 0x0 SLOAD PUSH1 0x1 PUSH1 0x1 PUSH1 0xA0 SHL SUB AND CALLER EQ PUSH2 0x1A9 JUMPI PUSH1 0x40 MLOAD PUSH3 0x461BCD PUSH1 0xE5 SHL DUP2 MSTORE PUSH1 0x4 ADD PUSH2 0x171 SWAP1 PUSH2 0x557 JUMP JUMPDEST PUSH2 0x1B3 PUSH1 0x0 PUSH2 0x3D7 JUMP JUMPDEST JUMP JUMPDEST PUSH1 0x4 SLOAD DUP2 SWAP1 DUP2 GT ISZERO PUSH2 0x1C6 JUMPI POP PUSH1 0x4 SLOAD JUMPDEST PUSH1 0x1 SLOAD PUSH1 0x2 SLOAD PUSH1 0x5 SLOAD PUSH1 0x40 MLOAD PUSH1 0x0 SWAP4 PUSH2 0x1FC SWAP4 PUSH1 0x1 PUSH1 0x1 PUSH1 0xA0 SHL SUB SWAP2 DUP3 AND SWAP4 SWAP2 AND SWAP2 PUSH1 0x3 SWAP2 DUP11 SWAP2 CALLER SWAP2 DUP12 SWAP2 DUP11 SWAP2 SWAP1 PUSH1 0x20 ADD PUSH2 0x613 JUMP JUMPDEST PUSH1 0x40 MLOAD PUSH1 0x20 DUP2 DUP4 SUB SUB DUP2 MSTORE SWAP1 PUSH1 0x40 MSTORE DUP1 MLOAD SWAP1 PUSH1 0x20 ADD KECCAK256 SWAP1 POP PUSH1 0x0 DUP2 PUSH1 0x40 MLOAD PUSH2 0x223 SWAP1 PUSH2 0x427 JUMP JUMPDEST DUP2 SWAP1 PUSH1 0x40 MLOAD DUP1 SWAP2 SUB SWAP1 PUSH1 0x0 CREATE2 SWAP1 POP DUP1 ISZERO DUP1 ISZERO PUSH2 0x243 JUMPI RETURNDATASIZE PUSH1 0x0 DUP1 RETURNDATACOPY RETURNDATASIZE PUSH1 0x0 REVERT JUMPDEST POP PUSH1 0x1 SLOAD PUSH1 0x2 SLOAD PUSH1 0x40 MLOAD PUSH4 0x6220FBC5 PUSH1 0xE1 SHL DUP2 MSTORE SWAP3 SWAP4 POP PUSH1 0x1 PUSH1 0x1 PUSH1 0xA0 SHL SUB DUP1 DUP6 AND SWAP4 PUSH4 0xC441F78A SWAP4 PUSH2 0x289 SWAP4 SWAP1 DUP4 AND SWAP3 AND SWAP1 PUSH1 0x3 SWAP1 DUP13 SWAP1 CALLER SWAP1 DUP14 SWAP1 DUP13 SWAP1 PUSH1 0x4 ADD PUSH2 0x721 JUMP JUMPDEST PUSH1 0x0 PUSH1 0x40 MLOAD DUP1 DUP4 SUB DUP2 PUSH1 0x0 DUP8 DUP1 EXTCODESIZE ISZERO DUP1 ISZERO PUSH2 0x2A3 JUMPI PUSH1 0x0 DUP1 REVERT JUMPDEST POP GAS CALL ISZERO DUP1 ISZERO PUSH2 0x2B7 JUMPI RETURNDATASIZE PUSH1 0x0 DUP1 RETURNDATACOPY RETURNDATASIZE PUSH1 0x0 REVERT JUMPDEST POP POP PUSH1 0x5 DUP1 SLOAD SWAP3 POP SWAP1 POP PUSH1 0x0 PUSH2 0x2CC DUP4 PUSH2 0x7FB JUMP JUMPDEST SWAP1 SWAP2 SSTORE POP POP PUSH1 0x5 SLOAD PUSH1 0x0 SWAP1 DUP2 MSTORE PUSH1 0x6 PUSH1 0x20 SWAP1 DUP2 MSTORE PUSH1 0x40 SWAP2 DUP3 SWAP1 KECCAK256 DUP1 SLOAD PUSH1 0x1 PUSH1 0x1 PUSH1 0xA0 SHL SUB NOT AND PUSH1 0x1 PUSH1 0x1 PUSH1 0xA0 SHL SUB DUP6 AND SWAP1 DUP2 OR SWAP1 SWAP2 SSTORE SWAP2 MLOAD SWAP2 DUP3 MSTORE CALLER SWAP2 PUSH32 0xA66DF2AC9413442073C2E47B33E555F5891823DF7841196BD1F197175A12F8AE SWAP2 ADD PUSH1 0x40 MLOAD DUP1 SWAP2 SUB SWAP1 LOG2 POP POP POP POP POP POP JUMP JUMPDEST PUSH1 0x0 SLOAD PUSH1 0x1 PUSH1 0x1 PUSH1 0xA0 SHL SUB AND CALLER EQ PUSH2 0x366 JUMPI PUSH1 0x40 MLOAD PUSH3 0x461BCD PUSH1 0xE5 SHL DUP2 MSTORE PUSH1 0x4 ADD PUSH2 0x171 SWAP1 PUSH2 0x557 JUMP JUMPDEST PUSH1 0x1 PUSH1 0x1 PUSH1 0xA0 SHL SUB DUP2 AND PUSH2 0x3CB JUMPI PUSH1 0x40 MLOAD PUSH3 0x461BCD PUSH1 0xE5 SHL DUP2 MSTORE PUSH1 0x20 PUSH1 0x4 DUP3 ADD MSTORE PUSH1 0x26 PUSH1 0x24 DUP3 ADD MSTORE PUSH32 0x4F776E61626C653A206E6577206F776E657220697320746865207A65726F2061 PUSH1 0x44 DUP3 ADD MSTORE PUSH6 0x646472657373 PUSH1 0xD0 SHL PUSH1 0x64 DUP3 ADD MSTORE PUSH1 0x84 ADD PUSH2 0x171 JUMP JUMPDEST PUSH2 0x3D4 DUP2 PUSH2 0x3D7 JUMP JUMPDEST POP JUMP JUMPDEST PUSH1 0x0 DUP1 SLOAD PUSH1 0x1 PUSH1 0x1 PUSH1 0xA0 SHL SUB DUP4 DUP2 AND PUSH1 0x1 PUSH1 0x1 PUSH1 0xA0 SHL SUB NOT DUP4 AND DUP2 OR DUP5 SSTORE PUSH1 0x40 MLOAD SWAP2 SWAP1 SWAP3 AND SWAP3 DUP4 SWAP2 PUSH32 0x8BE0079C531659141344CD1FD0A4F28419497F9722A3DAAFE3B4186F6B6457E0 SWAP2 SWAP1 LOG3 POP POP JUMP JUMPDEST PUSH2 0x1ED1 DUP1 PUSH2 0x825 DUP4 CODECOPY ADD SWAP1 JUMP JUMPDEST PUSH1 0x0 PUSH1 0x20 DUP3 DUP5 SUB SLT ISZERO PUSH2 0x446 JUMPI PUSH1 0x0 DUP1 REVERT JUMPDEST POP CALLDATALOAD SWAP2 SWAP1 POP JUMP JUMPDEST PUSH4 0x4E487B71 PUSH1 0xE0 SHL PUSH1 0x0 MSTORE PUSH1 0x41 PUSH1 0x4 MSTORE PUSH1 0x24 PUSH1 0x0 REVERT JUMPDEST PUSH1 0x0 DUP1 PUSH1 0x0 PUSH1 0x60 DUP5 DUP7 SUB SLT ISZERO PUSH2 0x478 JUMPI PUSH1 0x0 DUP1 REVERT JUMPDEST DUP4 CALLDATALOAD PUSH8 0xFFFFFFFFFFFFFFFF DUP1 DUP3 GT ISZERO PUSH2 0x490 JUMPI PUSH1 0x0 DUP1 REVERT JUMPDEST DUP2 DUP7 ADD SWAP2 POP DUP7 PUSH1 0x1F DUP4 ADD SLT PUSH2 0x4A4 JUMPI PUSH1 0x0 DUP1 REVERT JUMPDEST DUP2 CALLDATALOAD DUP2 DUP2 GT ISZERO PUSH2 0x4B6 JUMPI PUSH2 0x4B6 PUSH2 0x44D JUMP JUMPDEST PUSH1 0x40 MLOAD PUSH1 0x1F DUP3 ADD PUSH1 0x1F NOT SWAP1 DUP2 AND PUSH1 0x3F ADD AND DUP2 ADD SWAP1 DUP4 DUP3 GT DUP2 DUP4 LT OR ISZERO PUSH2 0x4DE JUMPI PUSH2 0x4DE PUSH2 0x44D JUMP JUMPDEST DUP2 PUSH1 0x40 MSTORE DUP3 DUP2 MSTORE DUP10 PUSH1 0x20 DUP5 DUP8 ADD ADD GT ISZERO PUSH2 0x4F7 JUMPI PUSH1 0x0 DUP1 REVERT JUMPDEST DUP3 PUSH1 0x20 DUP7 ADD PUSH1 0x20 DUP4 ADD CALLDATACOPY PUSH1 0x0 PUSH1 0x20 DUP5 DUP4 ADD ADD MSTORE DUP1 SWAP8 POP POP POP POP POP POP PUSH1 0x20 DUP5 ADD CALLDATALOAD SWAP2 POP PUSH1 0x40 DUP5 ADD CALLDATALOAD SWAP1 POP SWAP3 POP SWAP3 POP SWAP3 JUMP JUMPDEST PUSH1 0x0 PUSH1 0x20 DUP3 DUP5 SUB SLT ISZERO PUSH2 0x539 JUMPI PUSH1 0x0 DUP1 REVERT JUMPDEST DUP2 CALLDATALOAD PUSH1 0x1 PUSH1 0x1 PUSH1 0xA0 SHL SUB DUP2 AND DUP2 EQ PUSH2 0x550 JUMPI PUSH1 0x0 DUP1 REVERT JUMPDEST SWAP4 SWAP3 POP POP POP JUMP JUMPDEST PUSH1 0x20 DUP1 DUP3 MSTORE DUP2 DUP2 ADD MSTORE PUSH32 0x4F776E61626C653A2063616C6C6572206973206E6F7420746865206F776E6572 PUSH1 0x40 DUP3 ADD MSTORE PUSH1 0x60 ADD SWAP1 JUMP JUMPDEST PUSH1 0x1 DUP2 DUP2 SHR SWAP1 DUP3 AND DUP1 PUSH2 0x5A0 JUMPI PUSH1 0x7F DUP3 AND SWAP2 POP JUMPDEST PUSH1 0x20 DUP3 LT DUP2 EQ ISZERO PUSH2 0x5C1 JUMPI PUSH4 0x4E487B71 PUSH1 0xE0 SHL PUSH1 0x0 MSTORE PUSH1 0x22 PUSH1 0x4 MSTORE PUSH1 0x24 PUSH1 0x0 REVERT JUMPDEST POP SWAP2 SWAP1 POP JUMP JUMPDEST PUSH1 0x0 JUMPDEST DUP4 DUP2 LT ISZERO PUSH2 0x5E2 JUMPI DUP2 DUP2 ADD MLOAD DUP4 DUP3 ADD MSTORE PUSH1 0x20 ADD PUSH2 0x5CA JUMP JUMPDEST DUP4 DUP2 GT ISZERO PUSH2 0x5F1 JUMPI PUSH1 0x0 DUP5 DUP5 ADD MSTORE JUMPDEST POP POP POP POP JUMP JUMPDEST PUSH1 0x0 DUP2 MLOAD PUSH2 0x609 DUP2 DUP6 PUSH1 0x20 DUP7 ADD PUSH2 0x5C7 JUMP JUMPDEST SWAP3 SWAP1 SWAP3 ADD SWAP3 SWAP2 POP POP JUMP JUMPDEST PUSH1 0x0 PUSH12 0xFFFFFFFFFFFFFFFFFFFFFFFF NOT DUP1 DUP12 PUSH1 0x60 SHL AND DUP4 MSTORE DUP1 DUP11 PUSH1 0x60 SHL AND PUSH1 0x14 DUP5 ADD MSTORE POP PUSH1 0x28 PUSH1 0x0 DUP10 SLOAD PUSH2 0x646 DUP2 PUSH2 0x58C JUMP JUMPDEST PUSH1 0x1 DUP3 DUP2 AND DUP1 ISZERO PUSH2 0x65E JUMPI PUSH1 0x1 DUP2 EQ PUSH2 0x673 JUMPI PUSH2 0x6A6 JUMP JUMPDEST PUSH1 0xFF NOT DUP5 AND DUP9 DUP8 ADD MSTORE DUP3 DUP9 ADD DUP7 ADD SWAP5 POP PUSH2 0x6A6 JUMP JUMPDEST DUP14 PUSH1 0x0 MSTORE PUSH1 0x20 DUP1 PUSH1 0x0 KECCAK256 PUSH1 0x0 JUMPDEST DUP6 DUP2 LT ISZERO PUSH2 0x69B JUMPI DUP2 SLOAD DUP12 DUP3 ADD DUP11 ADD MSTORE SWAP1 DUP5 ADD SWAP1 DUP3 ADD PUSH2 0x680 JUMP JUMPDEST POP POP POP DUP6 DUP4 DUP10 ADD ADD SWAP5 POP JUMPDEST POP POP POP POP PUSH2 0x6B4 DUP2 DUP11 PUSH2 0x5F7 JUMP JUMPDEST SWAP2 POP POP PUSH2 0x6D2 DUP2 DUP9 PUSH1 0x60 SHL PUSH12 0xFFFFFFFFFFFFFFFFFFFFFFFF NOT AND SWAP1 MSTORE JUMP JUMPDEST PUSH1 0x14 DUP2 ADD SWAP6 SWAP1 SWAP6 MSTORE POP POP PUSH1 0x34 DUP4 ADD SWAP2 SWAP1 SWAP2 MSTORE PUSH1 0x54 DUP3 ADD MSTORE PUSH1 0x74 ADD SWAP6 SWAP5 POP POP POP POP POP JUMP JUMPDEST PUSH1 0x0 DUP2 MLOAD DUP1 DUP5 MSTORE PUSH2 0x70D DUP2 PUSH1 0x20 DUP7 ADD PUSH1 0x20 DUP7 ADD PUSH2 0x5C7 JUMP JUMPDEST PUSH1 0x1F ADD PUSH1 0x1F NOT AND SWAP3 SWAP1 SWAP3 ADD PUSH1 0x20 ADD SWAP3 SWAP2 POP POP JUMP JUMPDEST PUSH1 0x1 PUSH1 0x1 PUSH1 0xA0 SHL SUB DUP9 DUP2 AND DUP3 MSTORE DUP8 AND PUSH1 0x20 DUP1 DUP4 ADD SWAP2 SWAP1 SWAP2 MSTORE PUSH1 0xE0 PUSH1 0x40 DUP4 ADD MSTORE DUP7 SLOAD PUSH1 0x0 SWAP2 DUP3 SWAP2 PUSH2 0x750 DUP2 PUSH2 0x58C JUMP JUMPDEST DUP1 PUSH1 0xE0 DUP8 ADD MSTORE PUSH2 0x100 PUSH1 0x1 DUP1 DUP5 AND PUSH1 0x0 DUP2 EQ PUSH2 0x773 JUMPI PUSH1 0x1 DUP2 EQ PUSH2 0x788 JUMPI PUSH2 0x7B6 JUMP JUMPDEST PUSH1 0xFF NOT DUP6 AND DUP10 DUP5 ADD MSTORE PUSH2 0x120 DUP10 ADD SWAP7 POP PUSH2 0x7B6 JUMP JUMPDEST DUP14 PUSH1 0x0 MSTORE DUP6 PUSH1 0x0 KECCAK256 PUSH1 0x0 JUMPDEST DUP6 DUP2 LT ISZERO PUSH2 0x7AE JUMPI DUP2 SLOAD DUP12 DUP3 ADD DUP7 ADD MSTORE SWAP1 DUP4 ADD SWAP1 DUP8 ADD PUSH2 0x793 JUMP JUMPDEST DUP11 ADD DUP5 ADD SWAP8 POP POP JUMPDEST POP POP POP POP POP POP DUP3 DUP2 SUB PUSH1 0x60 DUP5 ADD MSTORE PUSH2 0x7CE DUP2 DUP9 PUSH2 0x6F5 JUMP JUMPDEST SWAP2 POP POP PUSH2 0x7E6 PUSH1 0x80 DUP4 ADD DUP7 PUSH1 0x1 PUSH1 0x1 PUSH1 0xA0 SHL SUB AND SWAP1 MSTORE JUMP JUMPDEST PUSH1 0xA0 DUP3 ADD SWAP4 SWAP1 SWAP4 MSTORE PUSH1 0xC0 ADD MSTORE SWAP6 SWAP5 POP POP POP POP POP JUMP JUMPDEST PUSH1 0x0 PUSH1 0x0 NOT DUP3 EQ ISZERO PUSH2 0x81D JUMPI PUSH4 0x4E487B71 PUSH1 0xE0 SHL PUSH1 0x0 MSTORE PUSH1 0x11 PUSH1 0x4 MSTORE PUSH1 0x24 PUSH1 0x0 REVERT JUMPDEST POP PUSH1 0x1 ADD SWAP1 JUMP INVALID PUSH1 0x80 PUSH1 0x40 MSTORE PUSH1 0x1 PUSH1 0x4 SSTORE CALLVALUE DUP1 ISZERO PUSH2 0x15 JUMPI PUSH1 0x0 DUP1 REVERT JUMPDEST POP PUSH2 0x1F CALLER PUSH2 0x36 JUMP JUMPDEST PUSH1 0x9 DUP1 SLOAD PUSH1 0x1 PUSH1 0x1 PUSH1 0xA0 SHL SUB NOT AND CALLER OR SWAP1 SSTORE PUSH2 0x88 JUMP JUMPDEST PUSH1 0x6 DUP1 SLOAD PUSH1 0x1 PUSH1 0x1 PUSH1 0xA0 SHL SUB DUP4 DUP2 AND PUSH1 0x1 PUSH1 0x1 PUSH1 0xA0 SHL SUB NOT DUP4 AND DUP2 OR SWAP1 SWAP4 SSTORE PUSH1 0x40 MLOAD SWAP2 AND SWAP2 SWAP1 DUP3 SWAP1 PUSH32 0x8BE0079C531659141344CD1FD0A4F28419497F9722A3DAAFE3B4186F6B6457E0 SWAP1 PUSH1 0x0 SWAP1 LOG3 POP POP JUMP JUMPDEST PUSH2 0x1E3A DUP1 PUSH2 0x97 PUSH1 0x0 CODECOPY PUSH1 0x0 RETURN INVALID PUSH1 0x80 PUSH1 0x40 MSTORE PUSH1 0x4 CALLDATASIZE LT PUSH2 0xC2 JUMPI PUSH1 0x0 CALLDATALOAD PUSH1 0xE0 SHR DUP1 PUSH4 0x715018A6 GT PUSH2 0x7F JUMPI DUP1 PUSH4 0xBF9CE952 GT PUSH2 0x59 JUMPI DUP1 PUSH4 0xBF9CE952 EQ PUSH2 0x1B6 JUMPI DUP1 PUSH4 0xC441F78A EQ PUSH2 0x1E0 JUMPI DUP1 PUSH4 0xE12ED13C EQ PUSH2 0x200 JUMPI DUP1 PUSH4 0xF2FDE38B EQ PUSH2 0x216 JUMPI PUSH1 0x0 DUP1 REVERT JUMPDEST DUP1 PUSH4 0x715018A6 EQ PUSH2 0x171 JUMPI DUP1 PUSH4 0x8DA5CB5B EQ PUSH2 0x186 JUMPI DUP1 PUSH4 0xBF15071D EQ PUSH2 0x1AE JUMPI PUSH1 0x0 DUP1 REVERT JUMPDEST DUP1 PUSH4 0x9D99F67 EQ PUSH2 0xC7 JUMPI DUP1 PUSH4 0x366E8E52 EQ PUSH2 0xE9 JUMPI DUP1 PUSH4 0x3FD8B02F EQ PUSH2 0xFE JUMPI DUP1 PUSH4 0x50737055 EQ PUSH2 0x127 JUMPI DUP1 PUSH4 0x6A816548 EQ PUSH2 0x147 JUMPI DUP1 PUSH4 0x6B827CD4 EQ PUSH2 0x15C JUMPI JUMPDEST PUSH1 0x0 DUP1 REVERT JUMPDEST CALLVALUE DUP1 ISZERO PUSH2 0xD3 JUMPI PUSH1 0x0 DUP1 REVERT JUMPDEST POP PUSH2 0xE7 PUSH2 0xE2 CALLDATASIZE PUSH1 0x4 PUSH2 0x16EB JUMP JUMPDEST PUSH2 0x236 JUMP JUMPDEST STOP JUMPDEST CALLVALUE DUP1 ISZERO PUSH2 0xF5 JUMPI PUSH1 0x0 DUP1 REVERT JUMPDEST POP PUSH2 0xE7 PUSH2 0x524 JUMP JUMPDEST CALLVALUE DUP1 ISZERO PUSH2 0x10A JUMPI PUSH1 0x0 DUP1 REVERT JUMPDEST POP PUSH2 0x114 PUSH1 0xA SLOAD DUP2 JUMP JUMPDEST PUSH1 0x40 MLOAD SWAP1 DUP2 MSTORE PUSH1 0x20 ADD JUMPDEST PUSH1 0x40 MLOAD DUP1 SWAP2 SUB SWAP1 RETURN JUMPDEST CALLVALUE DUP1 ISZERO PUSH2 0x133 JUMPI PUSH1 0x0 DUP1 REVERT JUMPDEST POP PUSH2 0xE7 PUSH2 0x142 CALLDATASIZE PUSH1 0x4 PUSH2 0x17D2 JUMP JUMPDEST PUSH2 0x5E9 JUMP JUMPDEST CALLVALUE DUP1 ISZERO PUSH2 0x153 JUMPI PUSH1 0x0 DUP1 REVERT JUMPDEST POP PUSH2 0xE7 PUSH2 0x6C5 JUMP JUMPDEST CALLVALUE DUP1 ISZERO PUSH2 0x168 JUMPI PUSH1 0x0 DUP1 REVERT JUMPDEST POP PUSH2 0xE7 PUSH2 0x848 JUMP JUMPDEST CALLVALUE DUP1 ISZERO PUSH2 0x17D JUMPI PUSH1 0x0 DUP1 REVERT JUMPDEST POP PUSH2 0xE7 PUSH2 0x9E4 JUMP JUMPDEST CALLVALUE DUP1 ISZERO PUSH2 0x192 JUMPI PUSH1 0x0 DUP1 REVERT JUMPDEST POP PUSH1 0x6 SLOAD PUSH1 0x40 MLOAD PUSH1 0x1 PUSH1 0x1 PUSH1 0xA0 SHL SUB SWAP1 SWAP2 AND DUP2 MSTORE PUSH1 0x20 ADD PUSH2 0x11E JUMP JUMPDEST PUSH2 0xE7 PUSH2 0xA1A JUMP JUMPDEST CALLVALUE DUP1 ISZERO PUSH2 0x1C2 JUMPI PUSH1 0x0 DUP1 REVERT JUMPDEST POP PUSH2 0x1CB PUSH2 0xB74 JUMP JUMPDEST PUSH1 0x40 MLOAD PUSH2 0x11E SWAP10 SWAP9 SWAP8 SWAP7 SWAP6 SWAP5 SWAP4 SWAP3 SWAP2 SWAP1 PUSH2 0x1875 JUMP JUMPDEST CALLVALUE DUP1 ISZERO PUSH2 0x1EC JUMPI PUSH1 0x0 DUP1 REVERT JUMPDEST POP PUSH2 0xE7 PUSH2 0x1FB CALLDATASIZE PUSH1 0x4 PUSH2 0x192F JUMP JUMPDEST PUSH2 0xD5E JUMP JUMPDEST CALLVALUE DUP1 ISZERO PUSH2 0x20C JUMPI PUSH1 0x0 DUP1 REVERT JUMPDEST POP PUSH2 0x114 PUSH1 0xB SLOAD DUP2 JUMP JUMPDEST CALLVALUE DUP1 ISZERO PUSH2 0x222 JUMPI PUSH1 0x0 DUP1 REVERT JUMPDEST POP PUSH2 0xE7 PUSH2 0x231 CALLDATASIZE PUSH1 0x4 PUSH2 0x19D8 JUMP JUMPDEST PUSH2 0xEBB JUMP JUMPDEST PUSH1 0x0 DUP3 DUP2 MSTORE PUSH1 0x5 PUSH1 0x20 MSTORE PUSH1 0x40 SWAP1 KECCAK256 SLOAD DUP3 SWAP1 PUSH1 0x1 PUSH1 0x1 PUSH1 0xA0 SHL SUB AND CALLER EQ PUSH2 0x2B4 JUMPI PUSH1 0x40 MLOAD PUSH3 0x461BCD PUSH1 0xE5 SHL DUP2 MSTORE PUSH1 0x20 PUSH1 0x4 DUP3 ADD MSTORE PUSH1 0x28 PUSH1 0x24 DUP3 ADD MSTORE PUSH32 0x536F75726365206D75737420626520746865206F7261636C65206F6620746865 PUSH1 0x44 DUP3 ADD MSTORE PUSH8 0x81C995C5D595CDD PUSH1 0xC2 SHL PUSH1 0x64 DUP3 ADD MSTORE PUSH1 0x84 ADD JUMPDEST PUSH1 0x40 MLOAD DUP1 SWAP2 SUB SWAP1 REVERT JUMPDEST PUSH1 0x0 DUP2 DUP2 MSTORE PUSH1 0x5 PUSH1 0x20 MSTORE PUSH1 0x40 DUP1 DUP3 KECCAK256 DUP1 SLOAD PUSH1 0x1 PUSH1 0x1 PUSH1 0xA0 SHL SUB NOT AND SWAP1 SSTORE MLOAD DUP3 SWAP2 PUSH32 0x7CC135E0CEBB02C3480AE5D74D377283180A2601F8F644EDF7987B009316C63A SWAP2 LOG2 PUSH1 0x40 MLOAD PUSH4 0x9201DE55 PUSH1 0xE0 SHL DUP2 MSTORE PUSH1 0x4 DUP2 ADD DUP4 SWAP1 MSTORE PUSH20 0x0 SWAP1 PUSH4 0x9201DE55 SWAP1 PUSH1 0x24 ADD PUSH1 0x0 PUSH1 0x40 MLOAD DUP1 DUP4 SUB DUP2 DUP7 DUP1 EXTCODESIZE ISZERO DUP1 ISZERO PUSH2 0x342 JUMPI PUSH1 0x0 DUP1 REVERT JUMPDEST POP GAS DELEGATECALL ISZERO DUP1 ISZERO PUSH2 0x356 JUMPI RETURNDATASIZE PUSH1 0x0 DUP1 RETURNDATACOPY RETURNDATASIZE PUSH1 0x0 REVERT JUMPDEST POP POP POP POP PUSH1 0x40 MLOAD RETURNDATASIZE PUSH1 0x0 DUP3 RETURNDATACOPY PUSH1 0x1F RETURNDATASIZE SWAP1 DUP2 ADD PUSH1 0x1F NOT AND DUP3 ADD PUSH1 0x40 MSTORE PUSH2 0x37E SWAP2 SWAP1 DUP2 ADD SWAP1 PUSH2 0x19F3 JUMP JUMPDEST DUP1 MLOAD PUSH2 0x392 SWAP2 PUSH1 0x12 SWAP2 PUSH1 0x20 SWAP1 SWAP2 ADD SWAP1 PUSH2 0x1617 JUMP JUMPDEST POP PUSH1 0x12 DUP1 SLOAD PUSH2 0x3A0 SWAP1 PUSH2 0x1A61 JUMP JUMPDEST DUP1 PUSH1 0x1F ADD PUSH1 0x20 DUP1 SWAP2 DIV MUL PUSH1 0x20 ADD PUSH1 0x40 MLOAD SWAP1 DUP2 ADD PUSH1 0x40 MSTORE DUP1 SWAP3 SWAP2 SWAP1 DUP2 DUP2 MSTORE PUSH1 0x20 ADD DUP3 DUP1 SLOAD PUSH2 0x3CC SWAP1 PUSH2 0x1A61 JUMP JUMPDEST DUP1 ISZERO PUSH2 0x419 JUMPI DUP1 PUSH1 0x1F LT PUSH2 0x3EE JUMPI PUSH2 0x100 DUP1 DUP4 SLOAD DIV MUL DUP4 MSTORE SWAP2 PUSH1 0x20 ADD SWAP2 PUSH2 0x419 JUMP JUMPDEST DUP3 ADD SWAP2 SWAP1 PUSH1 0x0 MSTORE PUSH1 0x20 PUSH1 0x0 KECCAK256 SWAP1 JUMPDEST DUP2 SLOAD DUP2 MSTORE SWAP1 PUSH1 0x1 ADD SWAP1 PUSH1 0x20 ADD DUP1 DUP4 GT PUSH2 0x3FC JUMPI DUP3 SWAP1 SUB PUSH1 0x1F AND DUP3 ADD SWAP2 JUMPDEST POP POP PUSH1 0x40 MLOAD PUSH4 0x5F69A5DD PUSH1 0xE1 SHL DUP2 MSTORE PUSH20 0x0 SWAP5 PUSH4 0xBED34BBA SWAP5 POP PUSH2 0x454 SWAP4 POP SWAP2 POP PUSH1 0x4 ADD PUSH2 0x1A96 JUMP JUMPDEST PUSH1 0x20 PUSH1 0x40 MLOAD DUP1 DUP4 SUB DUP2 DUP7 DUP1 EXTCODESIZE ISZERO DUP1 ISZERO PUSH2 0x46C JUMPI PUSH1 0x0 DUP1 REVERT JUMPDEST POP GAS DELEGATECALL ISZERO DUP1 ISZERO PUSH2 0x480 JUMPI RETURNDATASIZE PUSH1 0x0 DUP1 RETURNDATACOPY RETURNDATASIZE PUSH1 0x0 REVERT JUMPDEST POP POP POP POP PUSH1 0x40 MLOAD RETURNDATASIZE PUSH1 0x1F NOT PUSH1 0x1F DUP3 ADD AND DUP3 ADD DUP1 PUSH1 0x40 MSTORE POP DUP2 ADD SWAP1 PUSH2 0x4A4 SWAP2 SWAP1 PUSH2 0x1AD4 JUMP JUMPDEST ISZERO PUSH2 0x4EF JUMPI PUSH1 0x13 DUP1 SLOAD PUSH1 0xFF NOT AND PUSH1 0x3 OR SWAP1 SSTORE PUSH1 0x40 MLOAD DUP3 DUP2 MSTORE PUSH32 0xAD84BC03FFC88D269C045288B6BD3D77F12F9EF79581B860C1538F4BD662F9EA SWAP1 PUSH1 0x20 ADD JUMPDEST PUSH1 0x40 MLOAD DUP1 SWAP2 SUB SWAP1 LOG1 POP POP POP JUMP JUMPDEST PUSH1 0x40 MLOAD DUP3 DUP2 MSTORE PUSH32 0x65FB20BADD0FCFD3BF3BA0CA9BFE4EC522640041A07DECD17F1BE1FB0EAD4F4A SWAP1 PUSH1 0x20 ADD PUSH2 0x4E2 JUMP JUMPDEST POP POP POP JUMP JUMPDEST PUSH1 0x6 SLOAD PUSH1 0x1 PUSH1 0x1 PUSH1 0xA0 SHL SUB AND CALLER EQ PUSH2 0x54E JUMPI PUSH1 0x40 MLOAD PUSH3 0x461BCD PUSH1 0xE5 SHL DUP2 MSTORE PUSH1 0x4 ADD PUSH2 0x2AB SWAP1 PUSH2 0x1AF6 JUMP JUMPDEST PUSH1 0x40 DUP1 MLOAD DUP1 DUP3 ADD SWAP1 SWAP2 MSTORE PUSH1 0xD DUP2 MSTORE PUSH13 0x496E76616C6964205374616765 PUSH1 0x98 SHL PUSH1 0x20 DUP3 ADD MSTORE PUSH1 0x3 SWAP1 DUP2 PUSH1 0x13 SLOAD PUSH1 0xFF AND PUSH1 0x4 DUP2 GT ISZERO PUSH2 0x58D JUMPI PUSH2 0x58D PUSH2 0x185F JUMP JUMPDEST EQ DUP2 SWAP1 PUSH2 0x5AD JUMPI PUSH1 0x40 MLOAD PUSH3 0x461BCD PUSH1 0xE5 SHL DUP2 MSTORE PUSH1 0x4 ADD PUSH2 0x2AB SWAP2 SWAP1 PUSH2 0x1B2B JUMP JUMPDEST POP PUSH1 0x13 DUP1 SLOAD PUSH1 0x4 PUSH1 0xFF NOT SWAP1 SWAP2 AND OR SWAP1 SSTORE PUSH1 0x40 MLOAD CALLER SWAP1 SELFBALANCE DUP1 ISZERO PUSH2 0x8FC MUL SWAP2 PUSH1 0x0 DUP2 DUP2 DUP2 DUP6 DUP9 DUP9 CALL SWAP4 POP POP POP POP ISZERO DUP1 ISZERO PUSH2 0x51F JUMPI RETURNDATASIZE PUSH1 0x0 DUP1 RETURNDATACOPY RETURNDATASIZE PUSH1 0x0 REVERT JUMPDEST PUSH1 0x6 SLOAD PUSH1 0x1 PUSH1 0x1 PUSH1 0xA0 SHL SUB AND CALLER EQ PUSH2 0x613 JUMPI PUSH1 0x40 MLOAD PUSH3 0x461BCD PUSH1 0xE5 SHL DUP2 MSTORE PUSH1 0x4 ADD PUSH2 0x2AB SWAP1 PUSH2 0x1AF6 JUMP JUMPDEST PUSH1 0x40 DUP1 MLOAD DUP1 DUP3 ADD SWAP1 SWAP2 MSTORE PUSH1 0xD DUP2 MSTORE PUSH13 0x496E76616C6964205374616765 PUSH1 0x98 SHL PUSH1 0x20 DUP3 ADD MSTORE PUSH1 0x1 SWAP1 DUP2 PUSH1 0x13 SLOAD PUSH1 0xFF AND PUSH1 0x4 DUP2 GT ISZERO PUSH2 0x652 JUMPI PUSH2 0x652 PUSH2 0x185F JUMP JUMPDEST EQ DUP2 SWAP1 PUSH2 0x672 JUMPI PUSH1 0x40 MLOAD PUSH3 0x461BCD PUSH1 0xE5 SHL DUP2 MSTORE PUSH1 0x4 ADD PUSH2 0x2AB SWAP2 SWAP1 PUSH2 0x1B2B JUMP JUMPDEST POP PUSH1 0x13 DUP1 SLOAD PUSH1 0xFF NOT AND PUSH1 0x2 OR SWAP1 SSTORE DUP3 MLOAD PUSH2 0x693 SWAP1 PUSH1 0x11 SWAP1 PUSH1 0x20 DUP7 ADD SWAP1 PUSH2 0x1617 JUMP JUMPDEST POP PUSH1 0x40 MLOAD PUSH32 0x1862CF7A0E12BAC162F518F43C2F50DF187E89045899A7C015C1D61D9880A11B SWAP1 PUSH2 0x4E2 SWAP1 PUSH1 0x11 SWAP1 PUSH2 0x1B3E JUMP JUMPDEST PUSH1 0x10 SLOAD PUSH1 0x1 PUSH1 0x1 PUSH1 0xA0 SHL SUB AND CALLER EQ PUSH2 0x70C JUMPI PUSH1 0x40 MLOAD PUSH3 0x461BCD PUSH1 0xE5 SHL DUP2 MSTORE PUSH1 0x20 PUSH1 0x4 DUP3 ADD MSTORE PUSH1 0xA PUSH1 0x24 DUP3 ADD MSTORE PUSH10 0x27B7363C90213ABCB2B9 PUSH1 0xB1 SHL PUSH1 0x44 DUP3 ADD MSTORE PUSH1 0x64 ADD PUSH2 0x2AB JUMP JUMPDEST PUSH1 0x40 DUP1 MLOAD DUP1 DUP3 ADD SWAP1 SWAP2 MSTORE PUSH1 0x14 DUP2 MSTORE PUSH20 0x7368697070696E6720696E2070726F6772657373 PUSH1 0x60 SHL PUSH1 0x20 DUP3 ADD MSTORE PUSH1 0x1 SWAP1 DUP2 PUSH1 0x13 SLOAD PUSH1 0xFF AND PUSH1 0x4 DUP2 GT ISZERO PUSH2 0x752 JUMPI PUSH2 0x752 PUSH2 0x185F JUMP JUMPDEST EQ DUP2 SWAP1 PUSH2 0x772 JUMPI PUSH1 0x40 MLOAD PUSH3 0x461BCD PUSH1 0xE5 SHL DUP2 MSTORE PUSH1 0x4 ADD PUSH2 0x2AB SWAP2 SWAP1 PUSH2 0x1B2B JUMP JUMPDEST POP PUSH1 0xA SLOAD PUSH1 0xB SLOAD PUSH2 0x783 SWAP2 SWAP1 PUSH2 0x1BFC JUMP JUMPDEST NUMBER LT ISZERO PUSH2 0x7D2 JUMPI PUSH1 0x40 MLOAD PUSH3 0x461BCD PUSH1 0xE5 SHL DUP2 MSTORE PUSH1 0x20 PUSH1 0x4 DUP3 ADD MSTORE PUSH1 0x1B PUSH1 0x24 DUP3 ADD MSTORE PUSH32 0x4E6F7420616C6C6F77656420746F2063616E63656C206F726465720000000000 PUSH1 0x44 DUP3 ADD MSTORE PUSH1 0x64 ADD PUSH2 0x2AB JUMP JUMPDEST PUSH1 0x10 DUP1 SLOAD PUSH1 0x1 PUSH1 0x1 PUSH1 0xA0 SHL SUB NOT AND SWAP1 SSTORE PUSH1 0x13 DUP1 SLOAD PUSH1 0xFF NOT AND SWAP1 SSTORE PUSH1 0x40 MLOAD CALLER SWAP1 SELFBALANCE DUP1 ISZERO PUSH2 0x8FC MUL SWAP2 PUSH1 0x0 DUP2 DUP2 DUP2 DUP6 DUP9 DUP9 CALL SWAP4 POP POP POP POP ISZERO DUP1 ISZERO PUSH2 0x818 JUMPI RETURNDATASIZE PUSH1 0x0 DUP1 RETURNDATACOPY RETURNDATASIZE PUSH1 0x0 REVERT JUMPDEST POP PUSH1 0x40 MLOAD CALLER SWAP1 PUSH32 0x393629F15E859A19530BAB9675F9D39F0F57889F19F883BC5BE3533C4A2C9EA8 SWAP1 PUSH1 0x0 SWAP1 LOG2 POP POP JUMP JUMPDEST PUSH1 0x40 DUP1 MLOAD DUP1 DUP3 ADD SWAP1 SWAP2 MSTORE PUSH1 0xD DUP2 MSTORE PUSH13 0x13995959081CDA1A5C1B595B9D PUSH1 0x9A SHL PUSH1 0x20 DUP3 ADD MSTORE PUSH1 0x2 SWAP1 DUP2 PUSH1 0x13 SLOAD PUSH1 0xFF AND PUSH1 0x4 DUP2 GT ISZERO PUSH2 0x887 JUMPI PUSH2 0x887 PUSH2 0x185F JUMP JUMPDEST EQ DUP2 SWAP1 PUSH2 0x8A7 JUMPI PUSH1 0x40 MLOAD PUSH3 0x461BCD PUSH1 0xE5 SHL DUP2 MSTORE PUSH1 0x4 ADD PUSH2 0x2AB SWAP2 SWAP1 PUSH2 0x1B2B JUMP JUMPDEST POP PUSH1 0x0 PUSH2 0x8BE PUSH1 0x8 SLOAD ADDRESS PUSH4 0x9D99F67 PUSH1 0xE0 SHL PUSH2 0xF56 JUMP JUMPDEST SWAP1 POP PUSH2 0x984 PUSH1 0x40 MLOAD DUP1 PUSH1 0x40 ADD PUSH1 0x40 MSTORE DUP1 PUSH1 0xA DUP2 MSTORE PUSH1 0x20 ADD PUSH10 0x747261636B696E674E6F PUSH1 0xB0 SHL DUP2 MSTORE POP PUSH1 0xC PUSH1 0x5 ADD DUP1 SLOAD PUSH2 0x8F6 SWAP1 PUSH2 0x1A61 JUMP JUMPDEST DUP1 PUSH1 0x1F ADD PUSH1 0x20 DUP1 SWAP2 DIV MUL PUSH1 0x20 ADD PUSH1 0x40 MLOAD SWAP1 DUP2 ADD PUSH1 0x40 MSTORE DUP1 SWAP3 SWAP2 SWAP1 DUP2 DUP2 MSTORE PUSH1 0x20 ADD DUP3 DUP1 SLOAD PUSH2 0x922 SWAP1 PUSH2 0x1A61 JUMP JUMPDEST DUP1 ISZERO PUSH2 0x96F JUMPI DUP1 PUSH1 0x1F LT PUSH2 0x944 JUMPI PUSH2 0x100 DUP1 DUP4 SLOAD DIV MUL DUP4 MSTORE SWAP2 PUSH1 0x20 ADD SWAP2 PUSH2 0x96F JUMP JUMPDEST DUP3 ADD SWAP2 SWAP1 PUSH1 0x0 MSTORE PUSH1 0x20 PUSH1 0x0 KECCAK256 SWAP1 JUMPDEST DUP2 SLOAD DUP2 MSTORE SWAP1 PUSH1 0x1 ADD SWAP1 PUSH1 0x20 ADD DUP1 DUP4 GT PUSH2 0x952 JUMPI DUP3 SWAP1 SUB PUSH1 0x1F AND DUP3 ADD SWAP2 JUMPDEST POP POP POP POP POP DUP4 PUSH2 0xF7B SWAP1 SWAP3 SWAP2 SWAP1 PUSH4 0xFFFFFFFF AND JUMP JUMPDEST PUSH1 0x7 SLOAD PUSH1 0x0 SWAP1 PUSH2 0x9B0 SWAP1 PUSH1 0x1 PUSH1 0x1 PUSH1 0xA0 SHL SUB AND DUP4 PUSH2 0x9AB PUSH8 0xDE0B6B3A7640000 PUSH1 0x1 PUSH2 0x1C14 JUMP JUMPDEST PUSH2 0xF99 JUMP JUMPDEST PUSH1 0x40 MLOAD SWAP1 SWAP2 POP DUP2 SWAP1 PUSH32 0xB5E6E01E79F91267DC17B4E6314D5D4D03593D2CEEE0FBB452B750BD70EA5AF9 SWAP1 PUSH1 0x0 SWAP1 LOG2 POP POP POP POP JUMP JUMPDEST PUSH1 0x6 SLOAD PUSH1 0x1 PUSH1 0x1 PUSH1 0xA0 SHL SUB AND CALLER EQ PUSH2 0xA0E JUMPI PUSH1 0x40 MLOAD PUSH3 0x461BCD PUSH1 0xE5 SHL DUP2 MSTORE PUSH1 0x4 ADD PUSH2 0x2AB SWAP1 PUSH2 0x1AF6 JUMP JUMPDEST PUSH2 0xA18 PUSH1 0x0 PUSH2 0xFB8 JUMP JUMPDEST JUMP JUMPDEST PUSH1 0x40 DUP1 MLOAD DUP1 DUP3 ADD SWAP1 SWAP2 MSTORE PUSH1 0x14 DUP2 MSTORE PUSH20 0x20B63932B0B23C903430BB32903090313ABCB2B9 PUSH1 0x61 SHL PUSH1 0x20 DUP3 ADD MSTORE PUSH1 0x0 SWAP1 DUP2 PUSH1 0x13 SLOAD PUSH1 0xFF AND PUSH1 0x4 DUP2 GT ISZERO PUSH2 0xA60 JUMPI PUSH2 0xA60 PUSH2 0x185F JUMP JUMPDEST EQ DUP2 SWAP1 PUSH2 0xA80 JUMPI PUSH1 0x40 MLOAD PUSH3 0x461BCD PUSH1 0xE5 SHL DUP2 MSTORE PUSH1 0x4 ADD PUSH2 0x2AB SWAP2 SWAP1 PUSH2 0x1B2B JUMP JUMPDEST POP PUSH1 0x6 SLOAD PUSH1 0x1 PUSH1 0x1 PUSH1 0xA0 SHL SUB AND CALLER EQ ISZERO PUSH2 0xADC JUMPI PUSH1 0x40 MLOAD PUSH3 0x461BCD PUSH1 0xE5 SHL DUP2 MSTORE PUSH1 0x20 PUSH1 0x4 DUP3 ADD MSTORE PUSH1 0x1D PUSH1 0x24 DUP3 ADD MSTORE PUSH32 0x596F752063616E206E6F74206275792066726F6D20796F757273656C66000000 PUSH1 0x44 DUP3 ADD MSTORE PUSH1 0x64 ADD PUSH2 0x2AB JUMP JUMPDEST PUSH1 0xE SLOAD CALLVALUE LT ISZERO PUSH2 0xB20 JUMPI PUSH1 0x40 MLOAD PUSH3 0x461BCD PUSH1 0xE5 SHL DUP2 MSTORE PUSH1 0x20 PUSH1 0x4 DUP3 ADD MSTORE PUSH1 0xF PUSH1 0x24 DUP3 ADD MSTORE PUSH15 0x139BDD08195B9BDD59DA08199D5B99 PUSH1 0x8A SHL PUSH1 0x44 DUP3 ADD MSTORE PUSH1 0x64 ADD PUSH2 0x2AB JUMP JUMPDEST PUSH1 0x13 DUP1 SLOAD PUSH1 0xFF NOT AND PUSH1 0x1 OR SWAP1 SSTORE PUSH1 0x10 DUP1 SLOAD CALLER PUSH1 0x1 PUSH1 0x1 PUSH1 0xA0 SHL SUB NOT SWAP1 SWAP2 AND DUP2 OR SWAP1 SWAP2 SSTORE NUMBER PUSH1 0xB SSTORE PUSH1 0x40 MLOAD PUSH32 0xE4CAEAEF8E4F0C4880839CA47219351B38CF4116C082FD0BAEFC3008E4BA11A3 SWAP1 PUSH1 0x0 SWAP1 LOG2 POP POP JUMP JUMPDEST PUSH1 0xC DUP1 SLOAD PUSH1 0xD DUP1 SLOAD SWAP2 SWAP3 SWAP2 PUSH2 0xB88 SWAP1 PUSH2 0x1A61 JUMP JUMPDEST DUP1 PUSH1 0x1F ADD PUSH1 0x20 DUP1 SWAP2 DIV MUL PUSH1 0x20 ADD PUSH1 0x40 MLOAD SWAP1 DUP2 ADD PUSH1 0x40 MSTORE DUP1 SWAP3 SWAP2 SWAP1 DUP2 DUP2 MSTORE PUSH1 0x20 ADD DUP3 DUP1 SLOAD PUSH2 0xBB4 SWAP1 PUSH2 0x1A61 JUMP JUMPDEST DUP1 ISZERO PUSH2 0xC01 JUMPI DUP1 PUSH1 0x1F LT PUSH2 0xBD6 JUMPI PUSH2 0x100 DUP1 DUP4 SLOAD DIV MUL DUP4 MSTORE SWAP2 PUSH1 0x20 ADD SWAP2 PUSH2 0xC01 JUMP JUMPDEST DUP3 ADD SWAP2 SWAP1 PUSH1 0x0 MSTORE PUSH1 0x20 PUSH1 0x0 KECCAK256 SWAP1 JUMPDEST DUP2 SLOAD DUP2 MSTORE SWAP1 PUSH1 0x1 ADD SWAP1 PUSH1 0x20 ADD DUP1 DUP4 GT PUSH2 0xBE4 JUMPI DUP3 SWAP1 SUB PUSH1 0x1F AND DUP3 ADD SWAP2 JUMPDEST POP POP POP POP PUSH1 0x2 DUP4 ADD SLOAD PUSH1 0x3 DUP5 ADD SLOAD PUSH1 0x4 DUP6 ADD SLOAD PUSH1 0x5 DUP7 ADD DUP1 SLOAD SWAP6 SWAP7 SWAP4 SWAP6 PUSH1 0x1 PUSH1 0x1 PUSH1 0xA0 SHL SUB SWAP4 DUP5 AND SWAP6 POP SWAP3 DUP3 AND SWAP4 PUSH1 0x1 PUSH1 0xA0 SHL SWAP1 SWAP3 DIV PUSH1 0xFF AND SWAP3 PUSH2 0xC44 SWAP1 PUSH2 0x1A61 JUMP JUMPDEST DUP1 PUSH1 0x1F ADD PUSH1 0x20 DUP1 SWAP2 DIV MUL PUSH1 0x20 ADD PUSH1 0x40 MLOAD SWAP1 DUP2 ADD PUSH1 0x40 MSTORE DUP1 SWAP3 SWAP2 SWAP1 DUP2 DUP2 MSTORE PUSH1 0x20 ADD DUP3 DUP1 SLOAD PUSH2 0xC70 SWAP1 PUSH2 0x1A61 JUMP JUMPDEST DUP1 ISZERO PUSH2 0xCBD JUMPI DUP1 PUSH1 0x1F LT PUSH2 0xC92 JUMPI PUSH2 0x100 DUP1 DUP4 SLOAD DIV MUL DUP4 MSTORE SWAP2 PUSH1 0x20 ADD SWAP2 PUSH2 0xCBD JUMP JUMPDEST DUP3 ADD SWAP2 SWAP1 PUSH1 0x0 MSTORE PUSH1 0x20 PUSH1 0x0 KECCAK256 SWAP1 JUMPDEST DUP2 SLOAD DUP2 MSTORE SWAP1 PUSH1 0x1 ADD SWAP1 PUSH1 0x20 ADD DUP1 DUP4 GT PUSH2 0xCA0 JUMPI DUP3 SWAP1 SUB PUSH1 0x1F AND DUP3 ADD SWAP2 JUMPDEST POP POP POP POP POP SWAP1 DUP1 PUSH1 0x6 ADD DUP1 SLOAD PUSH2 0xCD2 SWAP1 PUSH2 0x1A61 JUMP JUMPDEST DUP1 PUSH1 0x1F ADD PUSH1 0x20 DUP1 SWAP2 DIV MUL PUSH1 0x20 ADD PUSH1 0x40 MLOAD SWAP1 DUP2 ADD PUSH1 0x40 MSTORE DUP1 SWAP3 SWAP2 SWAP1 DUP2 DUP2 MSTORE PUSH1 0x20 ADD DUP3 DUP1 SLOAD PUSH2 0xCFE SWAP1 PUSH2 0x1A61 JUMP JUMPDEST DUP1 ISZERO PUSH2 0xD4B JUMPI DUP1 PUSH1 0x1F LT PUSH2 0xD20 JUMPI PUSH2 0x100 DUP1 DUP4 SLOAD DIV MUL DUP4 MSTORE SWAP2 PUSH1 0x20 ADD SWAP2 PUSH2 0xD4B JUMP JUMPDEST DUP3 ADD SWAP2 SWAP1 PUSH1 0x0 MSTORE PUSH1 0x20 PUSH1 0x0 KECCAK256 SWAP1 JUMPDEST DUP2 SLOAD DUP2 MSTORE SWAP1 PUSH1 0x1 ADD SWAP1 PUSH1 0x20 ADD DUP1 DUP4 GT PUSH2 0xD2E JUMPI DUP3 SWAP1 SUB PUSH1 0x1F AND DUP3 ADD SWAP2 JUMPDEST POP POP POP PUSH1 0x7 SWAP1 SWAP4 ADD SLOAD SWAP2 SWAP3 POP POP PUSH1 0xFF AND DUP10 JUMP JUMPDEST PUSH1 0x9 SLOAD PUSH1 0x1 PUSH1 0x1 PUSH1 0xA0 SHL SUB AND CALLER EQ PUSH2 0xDA4 JUMPI PUSH1 0x40 MLOAD PUSH3 0x461BCD PUSH1 0xE5 SHL DUP2 MSTORE PUSH1 0x20 PUSH1 0x4 DUP3 ADD MSTORE PUSH1 0x9 PUSH1 0x24 DUP3 ADD MSTORE PUSH9 0x2327A92124A22222A7 PUSH1 0xB9 SHL PUSH1 0x44 DUP3 ADD MSTORE PUSH1 0x64 ADD PUSH2 0x2AB JUMP JUMPDEST PUSH1 0x2 DUP1 SLOAD PUSH1 0x1 PUSH1 0x1 PUSH1 0xA0 SHL SUB NOT AND PUSH1 0x1 PUSH1 0x1 PUSH1 0xA0 SHL SUB DUP10 AND OR SWAP1 SSTORE PUSH2 0xDC8 DUP4 PUSH2 0xEBB JUMP JUMPDEST PUSH1 0x7 DUP1 SLOAD PUSH1 0x1 PUSH1 0x1 PUSH1 0xA0 SHL SUB NOT AND PUSH1 0x1 PUSH1 0x1 PUSH1 0xA0 SHL SUB DUP9 AND OR SWAP1 SSTORE PUSH1 0x40 MLOAD PUSH4 0x19F6A325 PUSH1 0xE3 SHL DUP2 MSTORE PUSH20 0x0 SWAP1 PUSH4 0xCFB51928 SWAP1 PUSH2 0xE1A SWAP1 DUP9 SWAP1 PUSH1 0x4 ADD PUSH2 0x1B2B JUMP JUMPDEST PUSH1 0x20 PUSH1 0x40 MLOAD DUP1 DUP4 SUB DUP2 DUP7 DUP1 EXTCODESIZE ISZERO DUP1 ISZERO PUSH2 0xE32 JUMPI PUSH1 0x0 DUP1 REVERT JUMPDEST POP GAS DELEGATECALL ISZERO DUP1 ISZERO PUSH2 0xE46 JUMPI RETURNDATASIZE PUSH1 0x0 DUP1 RETURNDATACOPY RETURNDATASIZE PUSH1 0x0 REVERT JUMPDEST POP POP POP POP PUSH1 0x40 MLOAD RETURNDATASIZE PUSH1 0x1F NOT PUSH1 0x1F DUP3 ADD AND DUP3 ADD DUP1 PUSH1 0x40 MSTORE POP DUP2 ADD SWAP1 PUSH2 0xE6A SWAP2 SWAP1 PUSH2 0x1C33 JUMP JUMPDEST PUSH1 0x8 SSTORE PUSH1 0xA DUP2 SWAP1 SSTORE DUP4 MLOAD PUSH2 0xE85 SWAP1 PUSH1 0xD SWAP1 PUSH1 0x20 DUP8 ADD SWAP1 PUSH2 0x1617 JUMP JUMPDEST POP POP PUSH1 0x13 DUP1 SLOAD PUSH1 0xFF NOT AND SWAP1 SSTORE PUSH1 0xF DUP1 SLOAD PUSH1 0x1 PUSH1 0x1 PUSH1 0xA0 SHL SUB NOT AND PUSH1 0x1 PUSH1 0x1 PUSH1 0xA0 SHL SUB SWAP4 SWAP1 SWAP4 AND SWAP3 SWAP1 SWAP3 OR SWAP1 SWAP2 SSTORE PUSH1 0xE SSTORE POP POP POP POP JUMP JUMPDEST PUSH1 0x6 SLOAD PUSH1 0x1 PUSH1 0x1 PUSH1 0xA0 SHL SUB AND CALLER EQ PUSH2 0xEE5 JUMPI PUSH1 0x40 MLOAD PUSH3 0x461BCD PUSH1 0xE5 SHL DUP2 MSTORE PUSH1 0x4 ADD PUSH2 0x2AB SWAP1 PUSH2 0x1AF6 JUMP JUMPDEST PUSH1 0x1 PUSH1 0x1 PUSH1 0xA0 SHL SUB DUP2 AND PUSH2 0xF4A JUMPI PUSH1 0x40 MLOAD PUSH3 0x461BCD PUSH1 0xE5 SHL DUP2 MSTORE PUSH1 0x20 PUSH1 0x4 DUP3 ADD MSTORE PUSH1 0x26 PUSH1 0x24 DUP3 ADD MSTORE PUSH32 0x4F776E61626C653A206E6577206F776E657220697320746865207A65726F2061 PUSH1 0x44 DUP3 ADD MSTORE PUSH6 0x646472657373 PUSH1 0xD0 SHL PUSH1 0x64 DUP3 ADD MSTORE PUSH1 0x84 ADD PUSH2 0x2AB JUMP JUMPDEST PUSH2 0xF53 DUP2 PUSH2 0xFB8 JUMP JUMPDEST POP JUMP JUMPDEST PUSH2 0xF5E PUSH2 0x169B JUMP JUMPDEST PUSH2 0xF66 PUSH2 0x169B JUMP JUMPDEST PUSH2 0xF72 DUP2 DUP7 DUP7 DUP7 PUSH2 0x100A JUMP JUMPDEST SWAP6 SWAP5 POP POP POP POP POP JUMP JUMPDEST PUSH1 0x80 DUP4 ADD MLOAD PUSH2 0xF8A SWAP1 DUP4 PUSH2 0x1047 JUMP JUMPDEST PUSH1 0x80 DUP4 ADD MLOAD PUSH2 0x51F SWAP1 DUP3 PUSH2 0x1047 JUMP JUMPDEST PUSH1 0x0 PUSH2 0xFB0 DUP5 DUP5 DUP5 PUSH1 0x1 PUSH4 0x20214CA3 PUSH1 0xE1 SHL PUSH2 0x105E JUMP JUMPDEST SWAP5 SWAP4 POP POP POP POP JUMP JUMPDEST PUSH1 0x6 DUP1 SLOAD PUSH1 0x1 PUSH1 0x1 PUSH1 0xA0 SHL SUB DUP4 DUP2 AND PUSH1 0x1 PUSH1 0x1 PUSH1 0xA0 SHL SUB NOT DUP4 AND DUP2 OR SWAP1 SWAP4 SSTORE PUSH1 0x40 MLOAD SWAP2 AND SWAP2 SWAP1 DUP3 SWAP1 PUSH32 0x8BE0079C531659141344CD1FD0A4F28419497F9722A3DAAFE3B4186F6B6457E0 SWAP1 PUSH1 0x0 SWAP1 LOG3 POP POP JUMP JUMPDEST PUSH2 0x1012 PUSH2 0x169B JUMP JUMPDEST PUSH2 0x1022 DUP6 PUSH1 0x80 ADD MLOAD PUSH2 0x100 PUSH2 0x126A JUMP JUMPDEST POP POP SWAP2 DUP4 MSTORE PUSH1 0x1 PUSH1 0x1 PUSH1 0xA0 SHL SUB AND PUSH1 0x20 DUP4 ADD MSTORE PUSH1 0x1 PUSH1 0x1 PUSH1 0xE0 SHL SUB NOT AND PUSH1 0x40 DUP3 ADD MSTORE SWAP1 JUMP JUMPDEST PUSH2 0x1054 DUP3 PUSH1 0x3 DUP4 MLOAD PUSH2 0x12D5 JUMP JUMPDEST PUSH2 0x51F DUP3 DUP3 PUSH2 0x13A9 JUMP JUMPDEST PUSH1 0x4 SLOAD PUSH1 0x40 MLOAD PUSH12 0xFFFFFFFFFFFFFFFFFFFFFFFF NOT ADDRESS PUSH1 0x60 SHL AND PUSH1 0x20 DUP3 ADD MSTORE PUSH1 0x34 DUP2 ADD SWAP2 SWAP1 SWAP2 MSTORE PUSH1 0x0 SWAP1 PUSH1 0x54 ADD PUSH1 0x40 DUP1 MLOAD DUP1 DUP4 SUB PUSH1 0x1F NOT ADD DUP2 MSTORE SWAP2 DUP2 MSTORE DUP2 MLOAD PUSH1 0x20 SWAP3 DUP4 ADD KECCAK256 PUSH1 0x4 SLOAD PUSH1 0x60 DUP10 ADD MSTORE PUSH1 0x0 DUP2 DUP2 MSTORE PUSH1 0x5 SWAP1 SWAP4 MSTORE DUP2 DUP4 KECCAK256 DUP1 SLOAD PUSH1 0x1 PUSH1 0x1 PUSH1 0xA0 SHL SUB NOT AND PUSH1 0x1 PUSH1 0x1 PUSH1 0xA0 SHL SUB DUP12 AND OR SWAP1 SSTORE SWAP1 MLOAD SWAP1 SWAP3 POP DUP3 SWAP2 PUSH32 0xB5E6E01E79F91267DC17B4E6314D5D4D03593D2CEEE0FBB452B750BD70EA5AF9 SWAP2 LOG2 PUSH1 0x0 DUP3 PUSH1 0x0 DUP1 DUP9 PUSH1 0x0 ADD MLOAD DUP10 PUSH1 0x20 ADD MLOAD DUP11 PUSH1 0x40 ADD MLOAD DUP12 PUSH1 0x60 ADD MLOAD DUP11 DUP14 PUSH1 0x80 ADD MLOAD PUSH1 0x0 ADD MLOAD PUSH1 0x40 MLOAD PUSH1 0x24 ADD PUSH2 0x1135 SWAP9 SWAP8 SWAP7 SWAP6 SWAP5 SWAP4 SWAP3 SWAP2 SWAP1 PUSH2 0x1C4C JUMP JUMPDEST PUSH1 0x40 DUP1 MLOAD PUSH1 0x1F NOT DUP2 DUP5 SUB ADD DUP2 MSTORE SWAP2 DUP2 MSTORE PUSH1 0x20 DUP3 ADD DUP1 MLOAD PUSH1 0x1 PUSH1 0x1 PUSH1 0xE0 SHL SUB AND PUSH1 0x1 PUSH1 0x1 PUSH1 0xE0 SHL SUB NOT SWAP1 SWAP5 AND SWAP4 SWAP1 SWAP4 OR SWAP1 SWAP3 MSTORE PUSH1 0x2 SLOAD SWAP2 MLOAD PUSH4 0x2000575 PUSH1 0xE5 SHL DUP2 MSTORE SWAP1 SWAP3 POP PUSH1 0x1 PUSH1 0x1 PUSH1 0xA0 SHL SUB SWAP1 SWAP2 AND SWAP1 PUSH4 0x4000AEA0 SWAP1 PUSH2 0x119D SWAP1 DUP11 SWAP1 DUP10 SWAP1 DUP7 SWAP1 PUSH1 0x4 ADD PUSH2 0x1CB4 JUMP JUMPDEST PUSH1 0x20 PUSH1 0x40 MLOAD DUP1 DUP4 SUB DUP2 PUSH1 0x0 DUP8 DUP1 EXTCODESIZE ISZERO DUP1 ISZERO PUSH2 0x11B7 JUMPI PUSH1 0x0 DUP1 REVERT JUMPDEST POP GAS CALL ISZERO DUP1 ISZERO PUSH2 0x11CB JUMPI RETURNDATASIZE PUSH1 0x0 DUP1 RETURNDATACOPY RETURNDATASIZE PUSH1 0x0 REVERT JUMPDEST POP POP POP POP PUSH1 0x40 MLOAD RETURNDATASIZE PUSH1 0x1F NOT PUSH1 0x1F DUP3 ADD AND DUP3 ADD DUP1 PUSH1 0x40 MSTORE POP DUP2 ADD SWAP1 PUSH2 0x11EF SWAP2 SWAP1 PUSH2 0x1AD4 JUMP JUMPDEST PUSH2 0x1247 JUMPI PUSH1 0x40 MLOAD PUSH3 0x461BCD PUSH1 0xE5 SHL DUP2 MSTORE PUSH1 0x20 PUSH1 0x4 DUP3 ADD MSTORE PUSH1 0x23 PUSH1 0x24 DUP3 ADD MSTORE PUSH32 0x756E61626C6520746F207472616E73666572416E6443616C6C20746F206F7261 PUSH1 0x44 DUP3 ADD MSTORE PUSH3 0x636C65 PUSH1 0xE8 SHL PUSH1 0x64 DUP3 ADD MSTORE PUSH1 0x84 ADD PUSH2 0x2AB JUMP JUMPDEST PUSH1 0x1 PUSH1 0x4 PUSH1 0x0 DUP3 DUP3 SLOAD PUSH2 0x125A SWAP2 SWAP1 PUSH2 0x1BFC JUMP JUMPDEST SWAP1 SWAP2 SSTORE POP SWAP2 SWAP8 SWAP7 POP POP POP POP POP POP POP JUMP JUMPDEST PUSH1 0x40 DUP1 MLOAD DUP1 DUP3 ADD SWAP1 SWAP2 MSTORE PUSH1 0x60 DUP2 MSTORE PUSH1 0x0 PUSH1 0x20 DUP3 ADD MSTORE PUSH2 0x128A PUSH1 0x20 DUP4 PUSH2 0x1CDB JUMP JUMPDEST ISZERO PUSH2 0x12B2 JUMPI PUSH2 0x129A PUSH1 0x20 DUP4 PUSH2 0x1CDB JUMP JUMPDEST PUSH2 0x12A5 SWAP1 PUSH1 0x20 PUSH2 0x1CFD JUMP JUMPDEST PUSH2 0x12AF SWAP1 DUP4 PUSH2 0x1BFC JUMP JUMPDEST SWAP2 POP JUMPDEST POP PUSH1 0x20 DUP1 DUP4 ADD DUP3 SWAP1 MSTORE PUSH1 0x40 DUP1 MLOAD DUP1 DUP6 MSTORE PUSH1 0x0 DUP2 MSTORE DUP4 ADD SWAP1 SWAP2 ADD SWAP1 MSTORE DUP2 JUMPDEST SWAP3 SWAP2 POP POP JUMP JUMPDEST PUSH1 0x17 DUP2 GT PUSH2 0x12F6 JUMPI PUSH2 0x12F0 DUP4 PUSH1 0xE0 PUSH1 0x5 DUP6 SWAP1 SHL AND DUP4 OR PUSH2 0x13D7 JUMP JUMPDEST POP POP POP POP JUMP JUMPDEST PUSH1 0xFF DUP2 GT PUSH2 0x1320 JUMPI PUSH2 0x1313 DUP4 PUSH1 0x18 PUSH2 0x1FE0 PUSH1 0x5 DUP7 SWAP1 SHL AND OR PUSH2 0x13D7 JUMP JUMPDEST POP PUSH2 0x12F0 DUP4 DUP3 PUSH1 0x1 PUSH2 0x13FC JUMP JUMPDEST PUSH2 0xFFFF DUP2 GT PUSH2 0x134B JUMPI PUSH2 0x133E DUP4 PUSH1 0x19 PUSH2 0x1FE0 PUSH1 0x5 DUP7 SWAP1 SHL AND OR PUSH2 0x13D7 JUMP JUMPDEST POP PUSH2 0x12F0 DUP4 DUP3 PUSH1 0x2 PUSH2 0x13FC JUMP JUMPDEST PUSH4 0xFFFFFFFF DUP2 GT PUSH2 0x1378 JUMPI PUSH2 0x136B DUP4 PUSH1 0x1A PUSH2 0x1FE0 PUSH1 0x5 DUP7 SWAP1 SHL AND OR PUSH2 0x13D7 JUMP JUMPDEST POP PUSH2 0x12F0 DUP4 DUP3 PUSH1 0x4 PUSH2 0x13FC JUMP JUMPDEST PUSH8 0xFFFFFFFFFFFFFFFF DUP2 GT PUSH2 0x51F JUMPI PUSH2 0x139C DUP4 PUSH1 0x1B PUSH2 0x1FE0 PUSH1 0x5 DUP7 SWAP1 SHL AND OR PUSH2 0x13D7 JUMP JUMPDEST POP PUSH2 0x12F0 DUP4 DUP3 PUSH1 0x8 PUSH2 0x13FC JUMP JUMPDEST PUSH1 0x40 DUP1 MLOAD DUP1 DUP3 ADD SWAP1 SWAP2 MSTORE PUSH1 0x60 DUP2 MSTORE PUSH1 0x0 PUSH1 0x20 DUP3 ADD MSTORE PUSH2 0x13D0 DUP4 DUP5 PUSH1 0x0 ADD MLOAD MLOAD DUP5 DUP6 MLOAD PUSH2 0x1422 JUMP JUMPDEST SWAP4 SWAP3 POP POP POP JUMP JUMPDEST PUSH1 0x40 DUP1 MLOAD DUP1 DUP3 ADD SWAP1 SWAP2 MSTORE PUSH1 0x60 DUP2 MSTORE PUSH1 0x0 PUSH1 0x20 DUP3 ADD MSTORE PUSH2 0x13D0 DUP4 DUP5 PUSH1 0x0 ADD MLOAD MLOAD DUP5 PUSH2 0x150C JUMP JUMPDEST PUSH1 0x40 DUP1 MLOAD DUP1 DUP3 ADD SWAP1 SWAP2 MSTORE PUSH1 0x60 DUP2 MSTORE PUSH1 0x0 PUSH1 0x20 DUP3 ADD MSTORE PUSH2 0xFB0 DUP5 DUP6 PUSH1 0x0 ADD MLOAD MLOAD DUP6 DUP6 PUSH2 0x1568 JUMP JUMPDEST PUSH1 0x40 DUP1 MLOAD DUP1 DUP3 ADD SWAP1 SWAP2 MSTORE PUSH1 0x60 DUP2 MSTORE PUSH1 0x0 PUSH1 0x20 DUP3 ADD MSTORE DUP3 MLOAD DUP3 GT ISZERO PUSH2 0x1445 JUMPI PUSH1 0x0 DUP1 REVERT JUMPDEST PUSH1 0x20 DUP6 ADD MLOAD PUSH2 0x1454 DUP4 DUP7 PUSH2 0x1BFC JUMP JUMPDEST GT ISZERO PUSH2 0x1487 JUMPI PUSH2 0x1487 DUP6 PUSH2 0x1477 DUP8 PUSH1 0x20 ADD MLOAD DUP8 DUP7 PUSH2 0x1472 SWAP2 SWAP1 PUSH2 0x1BFC JUMP JUMPDEST PUSH2 0x15E9 JUMP JUMPDEST PUSH2 0x1482 SWAP1 PUSH1 0x2 PUSH2 0x1C14 JUMP JUMPDEST PUSH2 0x1600 JUMP JUMPDEST PUSH1 0x0 DUP1 DUP7 MLOAD DUP1 MLOAD DUP8 PUSH1 0x20 DUP4 ADD ADD SWAP4 POP DUP1 DUP9 DUP8 ADD GT ISZERO PUSH2 0x14A6 JUMPI DUP8 DUP7 ADD DUP3 MSTORE JUMPDEST POP POP POP PUSH1 0x20 DUP5 ADD JUMPDEST PUSH1 0x20 DUP5 LT PUSH2 0x14E6 JUMPI DUP1 MLOAD DUP3 MSTORE PUSH2 0x14C5 PUSH1 0x20 DUP4 PUSH2 0x1BFC JUMP JUMPDEST SWAP2 POP PUSH2 0x14D2 PUSH1 0x20 DUP3 PUSH2 0x1BFC JUMP JUMPDEST SWAP1 POP PUSH2 0x14DF PUSH1 0x20 DUP6 PUSH2 0x1CFD JUMP JUMPDEST SWAP4 POP PUSH2 0x14AE JUMP JUMPDEST MLOAD DUP2 MLOAD PUSH1 0x0 NOT PUSH1 0x20 DUP7 SWAP1 SUB PUSH2 0x100 EXP ADD SWAP1 DUP2 AND SWAP1 NOT SWAP2 SWAP1 SWAP2 AND OR SWAP1 MSTORE POP DUP4 SWAP5 SWAP4 POP POP POP POP JUMP JUMPDEST PUSH1 0x40 DUP1 MLOAD DUP1 DUP3 ADD SWAP1 SWAP2 MSTORE PUSH1 0x60 DUP2 MSTORE PUSH1 0x0 PUSH1 0x20 DUP3 ADD MSTORE DUP4 PUSH1 0x20 ADD MLOAD DUP4 LT PUSH2 0x1541 JUMPI PUSH2 0x1541 DUP5 DUP6 PUSH1 0x20 ADD MLOAD PUSH1 0x2 PUSH2 0x1482 SWAP2 SWAP1 PUSH2 0x1C14 JUMP JUMPDEST DUP4 MLOAD DUP1 MLOAD PUSH1 0x20 DUP6 DUP4 ADD ADD DUP5 DUP2 MSTORE8 POP DUP1 DUP6 EQ ISZERO PUSH2 0x155E JUMPI PUSH1 0x1 DUP2 ADD DUP3 MSTORE JUMPDEST POP SWAP4 SWAP5 SWAP4 POP POP POP POP JUMP JUMPDEST PUSH1 0x40 DUP1 MLOAD DUP1 DUP3 ADD SWAP1 SWAP2 MSTORE PUSH1 0x60 DUP2 MSTORE PUSH1 0x0 PUSH1 0x20 DUP3 ADD MSTORE PUSH1 0x20 DUP6 ADD MLOAD PUSH2 0x158C DUP6 DUP5 PUSH2 0x1BFC JUMP JUMPDEST GT ISZERO PUSH2 0x15A0 JUMPI PUSH2 0x15A0 DUP6 PUSH2 0x1477 DUP7 DUP6 PUSH2 0x1BFC JUMP JUMPDEST PUSH1 0x0 PUSH1 0x1 PUSH2 0x15B0 DUP5 PUSH2 0x100 PUSH2 0x1DF8 JUMP JUMPDEST PUSH2 0x15BA SWAP2 SWAP1 PUSH2 0x1CFD JUMP JUMPDEST SWAP1 POP DUP6 MLOAD DUP4 DUP7 DUP3 ADD ADD DUP6 DUP4 NOT DUP3 MLOAD AND OR DUP2 MSTORE POP DUP1 MLOAD DUP5 DUP8 ADD GT ISZERO PUSH2 0x15DE JUMPI DUP4 DUP7 ADD DUP2 MSTORE JUMPDEST POP SWAP5 SWAP6 SWAP5 POP POP POP POP POP JUMP JUMPDEST PUSH1 0x0 DUP2 DUP4 GT ISZERO PUSH2 0x15FA JUMPI POP DUP2 PUSH2 0x12CF JUMP JUMPDEST POP SWAP2 SWAP1 POP JUMP JUMPDEST DUP2 MLOAD PUSH2 0x160C DUP4 DUP4 PUSH2 0x126A JUMP JUMPDEST POP PUSH2 0x12F0 DUP4 DUP3 PUSH2 0x13A9 JUMP JUMPDEST DUP3 DUP1 SLOAD PUSH2 0x1623 SWAP1 PUSH2 0x1A61 JUMP JUMPDEST SWAP1 PUSH1 0x0 MSTORE PUSH1 0x20 PUSH1 0x0 KECCAK256 SWAP1 PUSH1 0x1F ADD PUSH1 0x20 SWAP1 DIV DUP2 ADD SWAP3 DUP3 PUSH2 0x1645 JUMPI PUSH1 0x0 DUP6 SSTORE PUSH2 0x168B JUMP JUMPDEST DUP3 PUSH1 0x1F LT PUSH2 0x165E JUMPI DUP1 MLOAD PUSH1 0xFF NOT AND DUP4 DUP1 ADD OR DUP6 SSTORE PUSH2 0x168B JUMP JUMPDEST DUP3 DUP1 ADD PUSH1 0x1 ADD DUP6 SSTORE DUP3 ISZERO PUSH2 0x168B JUMPI SWAP2 DUP3 ADD JUMPDEST DUP3 DUP2 GT ISZERO PUSH2 0x168B JUMPI DUP3 MLOAD DUP3 SSTORE SWAP2 PUSH1 0x20 ADD SWAP2 SWAP1 PUSH1 0x1 ADD SWAP1 PUSH2 0x1670 JUMP JUMPDEST POP PUSH2 0x1697 SWAP3 SWAP2 POP PUSH2 0x16D6 JUMP JUMPDEST POP SWAP1 JUMP JUMPDEST PUSH1 0x40 DUP1 MLOAD PUSH1 0xA0 DUP2 ADD DUP3 MSTORE PUSH1 0x0 DUP1 DUP3 MSTORE PUSH1 0x20 DUP1 DUP4 ADD DUP3 SWAP1 MSTORE DUP3 DUP5 ADD DUP3 SWAP1 MSTORE PUSH1 0x60 DUP1 DUP5 ADD DUP4 SWAP1 MSTORE DUP5 MLOAD DUP1 DUP7 ADD SWAP1 SWAP6 MSTORE DUP5 MSTORE DUP4 ADD MSTORE SWAP1 PUSH1 0x80 DUP3 ADD MSTORE SWAP1 JUMP JUMPDEST JUMPDEST DUP1 DUP3 GT ISZERO PUSH2 0x1697 JUMPI PUSH1 0x0 DUP2 SSTORE PUSH1 0x1 ADD PUSH2 0x16D7 JUMP JUMPDEST PUSH1 0x0 DUP1 PUSH1 0x40 DUP4 DUP6 SUB SLT ISZERO PUSH2 0x16FE JUMPI PUSH1 0x0 DUP1 REVERT JUMPDEST POP POP DUP1 CALLDATALOAD SWAP3 PUSH1 0x20 SWAP1 SWAP2 ADD CALLDATALOAD SWAP2 POP JUMP JUMPDEST PUSH4 0x4E487B71 PUSH1 0xE0 SHL PUSH1 0x0 MSTORE PUSH1 0x41 PUSH1 0x4 MSTORE PUSH1 0x24 PUSH1 0x0 REVERT JUMPDEST PUSH1 0x40 MLOAD PUSH1 0x1F DUP3 ADD PUSH1 0x1F NOT AND DUP2 ADD PUSH8 0xFFFFFFFFFFFFFFFF DUP2 GT DUP3 DUP3 LT OR ISZERO PUSH2 0x174C JUMPI PUSH2 0x174C PUSH2 0x170D JUMP JUMPDEST PUSH1 0x40 MSTORE SWAP2 SWAP1 POP JUMP JUMPDEST PUSH1 0x0 PUSH8 0xFFFFFFFFFFFFFFFF DUP3 GT ISZERO PUSH2 0x176E JUMPI PUSH2 0x176E PUSH2 0x170D JUMP JUMPDEST POP PUSH1 0x1F ADD PUSH1 0x1F NOT AND PUSH1 0x20 ADD SWAP1 JUMP JUMPDEST PUSH1 0x0 DUP3 PUSH1 0x1F DUP4 ADD SLT PUSH2 0x178D JUMPI PUSH1 0x0 DUP1 REVERT JUMPDEST DUP2 CALLDATALOAD PUSH2 0x17A0 PUSH2 0x179B DUP3 PUSH2 0x1754 JUMP JUMPDEST PUSH2 0x1723 JUMP JUMPDEST DUP2 DUP2 MSTORE DUP5 PUSH1 0x20 DUP4 DUP7 ADD ADD GT ISZERO PUSH2 0x17B5 JUMPI PUSH1 0x0 DUP1 REVERT JUMPDEST DUP2 PUSH1 0x20 DUP6 ADD PUSH1 0x20 DUP4 ADD CALLDATACOPY PUSH1 0x0 SWAP2 DUP2 ADD PUSH1 0x20 ADD SWAP2 SWAP1 SWAP2 MSTORE SWAP4 SWAP3 POP POP POP JUMP JUMPDEST PUSH1 0x0 PUSH1 0x20 DUP3 DUP5 SUB SLT ISZERO PUSH2 0x17E4 JUMPI PUSH1 0x0 DUP1 REVERT JUMPDEST DUP2 CALLDATALOAD PUSH8 0xFFFFFFFFFFFFFFFF DUP2 GT ISZERO PUSH2 0x17FB JUMPI PUSH1 0x0 DUP1 REVERT JUMPDEST PUSH2 0xFB0 DUP5 DUP3 DUP6 ADD PUSH2 0x177C JUMP JUMPDEST PUSH1 0x0 JUMPDEST DUP4 DUP2 LT ISZERO PUSH2 0x1822 JUMPI DUP2 DUP2 ADD MLOAD DUP4 DUP3 ADD MSTORE PUSH1 0x20 ADD PUSH2 0x180A JUMP JUMPDEST DUP4 DUP2 GT ISZERO PUSH2 0x12F0 JUMPI POP POP PUSH1 0x0 SWAP2 ADD MSTORE JUMP JUMPDEST PUSH1 0x0 DUP2 MLOAD DUP1 DUP5 MSTORE PUSH2 0x184B DUP2 PUSH1 0x20 DUP7 ADD PUSH1 0x20 DUP7 ADD PUSH2 0x1807 JUMP JUMPDEST PUSH1 0x1F ADD PUSH1 0x1F NOT AND SWAP3 SWAP1 SWAP3 ADD PUSH1 0x20 ADD SWAP3 SWAP2 POP POP JUMP JUMPDEST PUSH4 0x4E487B71 PUSH1 0xE0 SHL PUSH1 0x0 MSTORE PUSH1 0x21 PUSH1 0x4 MSTORE PUSH1 0x24 PUSH1 0x0 REVERT JUMPDEST PUSH1 0x0 PUSH2 0x120 DUP12 DUP4 MSTORE DUP1 PUSH1 0x20 DUP5 ADD MSTORE PUSH2 0x188F DUP2 DUP5 ADD DUP13 PUSH2 0x1833 JUMP JUMPDEST PUSH1 0x40 DUP5 ADD DUP12 SWAP1 MSTORE PUSH1 0x1 PUSH1 0x1 PUSH1 0xA0 SHL SUB DUP11 DUP2 AND PUSH1 0x60 DUP7 ADD MSTORE DUP10 AND PUSH1 0x80 DUP6 ADD MSTORE DUP8 ISZERO ISZERO PUSH1 0xA0 DUP6 ADD MSTORE DUP4 DUP2 SUB PUSH1 0xC0 DUP6 ADD MSTORE SWAP1 POP PUSH2 0x18C9 DUP2 DUP8 PUSH2 0x1833 JUMP JUMPDEST SWAP1 POP DUP3 DUP2 SUB PUSH1 0xE0 DUP5 ADD MSTORE PUSH2 0x18DD DUP2 DUP7 PUSH2 0x1833 JUMP JUMPDEST SWAP2 POP POP PUSH1 0x5 DUP4 LT PUSH2 0x18FE JUMPI PUSH4 0x4E487B71 PUSH1 0xE0 SHL PUSH1 0x0 MSTORE PUSH1 0x21 PUSH1 0x4 MSTORE PUSH1 0x24 PUSH1 0x0 REVERT JUMPDEST DUP3 PUSH2 0x100 DUP4 ADD MSTORE SWAP11 SWAP10 POP POP POP POP POP POP POP POP POP POP JUMP JUMPDEST DUP1 CALLDATALOAD PUSH1 0x1 PUSH1 0x1 PUSH1 0xA0 SHL SUB DUP2 AND DUP2 EQ PUSH2 0x192A JUMPI PUSH1 0x0 DUP1 REVERT JUMPDEST SWAP2 SWAP1 POP JUMP JUMPDEST PUSH1 0x0 DUP1 PUSH1 0x0 DUP1 PUSH1 0x0 DUP1 PUSH1 0x0 PUSH1 0xE0 DUP9 DUP11 SUB SLT ISZERO PUSH2 0x194A JUMPI PUSH1 0x0 DUP1 REVERT JUMPDEST PUSH2 0x1953 DUP9 PUSH2 0x1913 JUMP JUMPDEST SWAP7 POP PUSH2 0x1961 PUSH1 0x20 DUP10 ADD PUSH2 0x1913 JUMP JUMPDEST SWAP6 POP PUSH1 0x40 DUP9 ADD CALLDATALOAD PUSH8 0xFFFFFFFFFFFFFFFF DUP1 DUP3 GT ISZERO PUSH2 0x197E JUMPI PUSH1 0x0 DUP1 REVERT JUMPDEST PUSH2 0x198A DUP12 DUP4 DUP13 ADD PUSH2 0x177C JUMP JUMPDEST SWAP7 POP PUSH1 0x60 DUP11 ADD CALLDATALOAD SWAP2 POP DUP1 DUP3 GT ISZERO PUSH2 0x19A0 JUMPI PUSH1 0x0 DUP1 REVERT JUMPDEST POP PUSH2 0x19AD DUP11 DUP3 DUP12 ADD PUSH2 0x177C JUMP JUMPDEST SWAP5 POP POP PUSH2 0x19BC PUSH1 0x80 DUP10 ADD PUSH2 0x1913 JUMP JUMPDEST SWAP3 POP PUSH1 0xA0 DUP9 ADD CALLDATALOAD SWAP2 POP PUSH1 0xC0 DUP9 ADD CALLDATALOAD SWAP1 POP SWAP3 SWAP6 SWAP9 SWAP2 SWAP5 SWAP8 POP SWAP3 SWAP6 POP JUMP JUMPDEST PUSH1 0x0 PUSH1 0x20 DUP3 DUP5 SUB SLT ISZERO PUSH2 0x19EA JUMPI PUSH1 0x0 DUP1 REVERT JUMPDEST PUSH2 0x13D0 DUP3 PUSH2 0x1913 JUMP JUMPDEST PUSH1 0x0 PUSH1 0x20 DUP3 DUP5 SUB SLT ISZERO PUSH2 0x1A05 JUMPI PUSH1 0x0 DUP1 REVERT JUMPDEST DUP2 MLOAD PUSH8 0xFFFFFFFFFFFFFFFF DUP2 GT ISZERO PUSH2 0x1A1C JUMPI PUSH1 0x0 DUP1 REVERT JUMPDEST DUP3 ADD PUSH1 0x1F DUP2 ADD DUP5 SGT PUSH2 0x1A2D JUMPI PUSH1 0x0 DUP1 REVERT JUMPDEST DUP1 MLOAD PUSH2 0x1A3B PUSH2 0x179B DUP3 PUSH2 0x1754 JUMP JUMPDEST DUP2 DUP2 MSTORE DUP6 PUSH1 0x20 DUP4 DUP6 ADD ADD GT ISZERO PUSH2 0x1A50 JUMPI PUSH1 0x0 DUP1 REVERT JUMPDEST PUSH2 0xF72 DUP3 PUSH1 0x20 DUP4 ADD PUSH1 0x20 DUP7 ADD PUSH2 0x1807 JUMP JUMPDEST PUSH1 0x1 DUP2 DUP2 SHR SWAP1 DUP3 AND DUP1 PUSH2 0x1A75 JUMPI PUSH1 0x7F DUP3 AND SWAP2 POP JUMPDEST PUSH1 0x20 DUP3 LT DUP2 EQ ISZERO PUSH2 0x15FA JUMPI PUSH4 0x4E487B71 PUSH1 0xE0 SHL PUSH1 0x0 MSTORE PUSH1 0x22 PUSH1 0x4 MSTORE PUSH1 0x24 PUSH1 0x0 REVERT JUMPDEST PUSH1 0x40 DUP2 MSTORE PUSH1 0x0 PUSH2 0x1AA9 PUSH1 0x40 DUP4 ADD DUP5 PUSH2 0x1833 JUMP JUMPDEST DUP3 DUP2 SUB PUSH1 0x20 DUP5 ADD MSTORE PUSH1 0x9 DUP2 MSTORE PUSH9 0x11195B1A5D995C9959 PUSH1 0xBA SHL PUSH1 0x20 DUP3 ADD MSTORE PUSH1 0x40 DUP2 ADD SWAP2 POP POP SWAP3 SWAP2 POP POP JUMP JUMPDEST PUSH1 0x0 PUSH1 0x20 DUP3 DUP5 SUB SLT ISZERO PUSH2 0x1AE6 JUMPI PUSH1 0x0 DUP1 REVERT JUMPDEST DUP2 MLOAD DUP1 ISZERO ISZERO DUP2 EQ PUSH2 0x13D0 JUMPI PUSH1 0x0 DUP1 REVERT JUMPDEST PUSH1 0x20 DUP1 DUP3 MSTORE DUP2 DUP2 ADD MSTORE PUSH32 0x4F776E61626C653A2063616C6C6572206973206E6F7420746865206F776E6572 PUSH1 0x40 DUP3 ADD MSTORE PUSH1 0x60 ADD SWAP1 JUMP JUMPDEST PUSH1 0x20 DUP2 MSTORE PUSH1 0x0 PUSH2 0x13D0 PUSH1 0x20 DUP4 ADD DUP5 PUSH2 0x1833 JUMP JUMPDEST PUSH1 0x0 PUSH1 0x20 DUP1 DUP4 MSTORE PUSH1 0x0 DUP5 SLOAD DUP2 PUSH1 0x1 DUP3 DUP2 SHR SWAP2 POP DUP1 DUP4 AND DUP1 PUSH2 0x1B60 JUMPI PUSH1 0x7F DUP4 AND SWAP3 POP JUMPDEST DUP6 DUP4 LT DUP2 EQ ISZERO PUSH2 0x1B7E JUMPI PUSH4 0x4E487B71 PUSH1 0xE0 SHL DUP6 MSTORE PUSH1 0x22 PUSH1 0x4 MSTORE PUSH1 0x24 DUP6 REVERT JUMPDEST DUP8 DUP7 ADD DUP4 DUP2 MSTORE PUSH1 0x20 ADD DUP2 DUP1 ISZERO PUSH2 0x1B9B JUMPI PUSH1 0x1 DUP2 EQ PUSH2 0x1BAC JUMPI PUSH2 0x1BD7 JUMP JUMPDEST PUSH1 0xFF NOT DUP7 AND DUP3 MSTORE DUP8 DUP3 ADD SWAP7 POP PUSH2 0x1BD7 JUMP JUMPDEST PUSH1 0x0 DUP12 DUP2 MSTORE PUSH1 0x20 SWAP1 KECCAK256 PUSH1 0x0 JUMPDEST DUP7 DUP2 LT ISZERO PUSH2 0x1BD1 JUMPI DUP2 SLOAD DUP5 DUP3 ADD MSTORE SWAP1 DUP6 ADD SWAP1 DUP10 ADD PUSH2 0x1BB8 JUMP JUMPDEST DUP4 ADD SWAP8 POP POP JUMPDEST POP SWAP5 SWAP10 SWAP9 POP POP POP POP POP POP POP POP POP JUMP JUMPDEST PUSH4 0x4E487B71 PUSH1 0xE0 SHL PUSH1 0x0 MSTORE PUSH1 0x11 PUSH1 0x4 MSTORE PUSH1 0x24 PUSH1 0x0 REVERT JUMPDEST PUSH1 0x0 DUP3 NOT DUP3 GT ISZERO PUSH2 0x1C0F JUMPI PUSH2 0x1C0F PUSH2 0x1BE6 JUMP JUMPDEST POP ADD SWAP1 JUMP JUMPDEST PUSH1 0x0 DUP2 PUSH1 0x0 NOT DIV DUP4 GT DUP3 ISZERO ISZERO AND ISZERO PUSH2 0x1C2E JUMPI PUSH2 0x1C2E PUSH2 0x1BE6 JUMP JUMPDEST POP MUL SWAP1 JUMP JUMPDEST PUSH1 0x0 PUSH1 0x20 DUP3 DUP5 SUB SLT ISZERO PUSH2 0x1C45 JUMPI PUSH1 0x0 DUP1 REVERT JUMPDEST POP MLOAD SWAP2 SWAP1 POP JUMP JUMPDEST PUSH1 0x1 PUSH1 0x1 PUSH1 0xA0 SHL SUB DUP10 DUP2 AND DUP3 MSTORE PUSH1 0x20 DUP3 ADD DUP10 SWAP1 MSTORE PUSH1 0x40 DUP3 ADD DUP9 SWAP1 MSTORE DUP7 AND PUSH1 0x60 DUP3 ADD MSTORE PUSH1 0x1 PUSH1 0x1 PUSH1 0xE0 SHL SUB NOT DUP6 AND PUSH1 0x80 DUP3 ADD MSTORE PUSH1 0xA0 DUP2 ADD DUP5 SWAP1 MSTORE PUSH1 0xC0 DUP2 ADD DUP4 SWAP1 MSTORE PUSH2 0x100 PUSH1 0xE0 DUP3 ADD DUP2 SWAP1 MSTORE PUSH1 0x0 SWAP1 PUSH2 0x1CA5 DUP4 DUP3 ADD DUP6 PUSH2 0x1833 JUMP JUMPDEST SWAP12 SWAP11 POP POP POP POP POP POP POP POP POP POP POP JUMP JUMPDEST PUSH1 0x1 DUP1 PUSH1 0xA0 SHL SUB DUP5 AND DUP2 MSTORE DUP3 PUSH1 0x20 DUP3 ADD MSTORE PUSH1 0x60 PUSH1 0x40 DUP3 ADD MSTORE PUSH1 0x0 PUSH2 0xF72 PUSH1 0x60 DUP4 ADD DUP5 PUSH2 0x1833 JUMP JUMPDEST PUSH1 0x0 DUP3 PUSH2 0x1CF8 JUMPI PUSH4 0x4E487B71 PUSH1 0xE0 SHL PUSH1 0x0 MSTORE PUSH1 0x12 PUSH1 0x4 MSTORE PUSH1 0x24 PUSH1 0x0 REVERT JUMPDEST POP MOD SWAP1 JUMP JUMPDEST PUSH1 0x0 DUP3 DUP3 LT ISZERO PUSH2 0x1D0F JUMPI PUSH2 0x1D0F PUSH2 0x1BE6 JUMP JUMPDEST POP SUB SWAP1 JUMP JUMPDEST PUSH1 0x1 DUP2 DUP2 JUMPDEST DUP1 DUP6 GT ISZERO PUSH2 0x1D4F JUMPI DUP2 PUSH1 0x0 NOT DIV DUP3 GT ISZERO PUSH2 0x1D35 JUMPI PUSH2 0x1D35 PUSH2 0x1BE6 JUMP JUMPDEST DUP1 DUP6 AND ISZERO PUSH2 0x1D42 JUMPI SWAP2 DUP2 MUL SWAP2 JUMPDEST SWAP4 DUP5 SHR SWAP4 SWAP1 DUP1 MUL SWAP1 PUSH2 0x1D19 JUMP JUMPDEST POP SWAP3 POP SWAP3 SWAP1 POP JUMP JUMPDEST PUSH1 0x0 DUP3 PUSH2 0x1D66 JUMPI POP PUSH1 0x1 PUSH2 0x12CF JUMP JUMPDEST DUP2 PUSH2 0x1D73 JUMPI POP PUSH1 0x0 PUSH2 0x12CF JUMP JUMPDEST DUP2 PUSH1 0x1 DUP2 EQ PUSH2 0x1D89 JUMPI PUSH1 0x2 DUP2 EQ PUSH2 0x1D93 JUMPI PUSH2 0x1DAF JUMP JUMPDEST PUSH1 0x1 SWAP2 POP POP PUSH2 0x12CF JUMP JUMPDEST PUSH1 0xFF DUP5 GT ISZERO PUSH2 0x1DA4 JUMPI PUSH2 0x1DA4 PUSH2 0x1BE6 JUMP JUMPDEST POP POP PUSH1 0x1 DUP3 SHL PUSH2 0x12CF JUMP JUMPDEST POP PUSH1 0x20 DUP4 LT PUSH2 0x133 DUP4 LT AND PUSH1 0x4E DUP5 LT PUSH1 0xB DUP5 LT AND OR ISZERO PUSH2 0x1DD2 JUMPI POP DUP2 DUP2 EXP PUSH2 0x12CF JUMP JUMPDEST PUSH2 0x1DDC DUP4 DUP4 PUSH2 0x1D14 JUMP JUMPDEST DUP1 PUSH1 0x0 NOT DIV DUP3 GT ISZERO PUSH2 0x1DF0 JUMPI PUSH2 0x1DF0 PUSH2 0x1BE6 JUMP JUMPDEST MUL SWAP4 SWAP3 POP POP POP JUMP JUMPDEST PUSH1 0x0 PUSH2 0x13D0 DUP4 DUP4 PUSH2 0x1D57 JUMP INVALID LOG2 PUSH5 0x6970667358 0x22 SLT KECCAK256 DUP1 0x5C 0xDD RETURN 0xB2 0xF 0x2C 0xAB 0xE3 0xC5 0xA5 0xEA 0xF7 0xFB 0xAB 0x4F PUSH32 0x9D480F12D11FE47D7DCB0C985C51E264736F6C63430008090033A26469706673 PC 0x22 SLT KECCAK256 PUSH19 0x82FFB1DB8C390F6BAA88A21B928A2100E6D5BB 0xCD 0xED 0xD6 0x23 PUSH28 0xC91A7CBD30CEC764736F6C6343000809003300000000000000000000 ","sha1":"b4eaa1215cff412f65a4744fc8246908188a36de","source":"// SPDX-License-Identifier: MIT\npragma solidity ^0.8.0;\n\nimport \"contracts/Escrow.sol\";\nimport \"@openzeppelin/contracts/access/Ownable.sol\";\n\ncontract EscrowFactory is Ownable {\n    address linkToken;\n    address oracle;\n    string jobId;\n    uint256 public maxLockPeriod;\n    uint256 public productCount;\n    mapping(uint256 => address) public products;\n\n    constructor(\n        address _linkToken,\n        address _oracle,\n        string memory _jobId,\n        uint256 _maxLockPeriod\n    ) {\n        require(_maxLockPeriod >= 0, \"lock period must be greater than 0\");\n        linkToken = _linkToken;\n        oracle = _oracle;\n        jobId = _jobId;\n        productCount = 0;\n        maxLockPeriod = _maxLockPeriod;\n    }\n\n    event ProductCreated(address indexed seller, address product);\n\n    function createProduct(\n        string memory _name,\n        uint256 _price,\n        uint256 _lockPeriod\n    ) external {\n        uint256 lockPeriod = _lockPeriod;\n        if (lockPeriod > maxLockPeriod) {\n            lockPeriod = maxLockPeriod;\n        }\n        bytes32 salt = keccak256(\n            abi.encodePacked(\n                linkToken,\n                oracle,\n                jobId,\n                _name,\n                msg.sender,\n                _price,\n                lockPeriod,\n                productCount\n            )\n        );\n\n        address product = address(new Escrow{salt: salt}());\n\n        Escrow(product).init(\n            linkToken,\n            oracle,\n            jobId,\n            _name,\n            msg.sender,\n            _price,\n            lockPeriod\n        );\n\n        productCount++;\n        products[productCount] = product;\n\n        emit ProductCreated(msg.sender, product);\n    }\n\n    function setMaxLockPeriod(uint256 _maxLockPeriod) external onlyOwner {\n        require(_maxLockPeriod >= 0, \"lock period must be greater than 0\");\n        maxLockPeriod = _maxLockPeriod;\n    }\n}\n","sourcePath":"contracts/EscrowFactory.sol","type":"contract","deployment":{"address":"0x4fc027aC0128f7cC8A6fA656783F293DD2aE5C86","chainid":"42","blockHeight":28351355}}