{"abi":[{"inputs":[{"internalType":"bytes32","name":"_bytes32","type":"bytes32"}],"name":"bytes32ToString","outputs":[{"internalType":"string","name":"","type":"string"}],"stateMutability":"pure","type":"function"},{"inputs":[{"internalType":"string","name":"a","type":"string"},{"internalType":"string","name":"b","type":"string"}],"name":"compareStrings","outputs":[{"internalType":"bool","name":"","type":"bool"}],"stateMutability":"pure","type":"function"},{"inputs":[{"internalType":"string","name":"source","type":"string"}],"name":"stringToBytes32","outputs":[{"internalType":"bytes32","name":"result","type":"bytes32"}],"stateMutability":"pure","type":"function"}],"bytecode":"6104c061003a600b82828239805160001a60731461002d57634e487b7160e01b600052600060045260246000fd5b30600052607381538281f3fe730000000000000000000000000000000000000000301460806040526004361061004b5760003560e01c80639201de5514610050578063bed34bba14610079578063cfb519281461009c575b600080fd5b61006361005e36600461026a565b6100bd565b60405161007091906102b3565b60405180910390f35b61008c610087366004610389565b6101f4565b6040519015158152602001610070565b6100af6100aa3660046103ed565b61024d565b604051908152602001610070565b606060005b60208160ff161080156100f65750828160ff16602081106100e5576100e561042a565b1a60f81b6001600160f81b03191615155b1561010d578061010581610440565b9150506100c2565b60008160ff1667ffffffffffffffff81111561012b5761012b6102e6565b6040519080825280601f01601f191660200182016040528015610155576020820181803683370190505b509050600091505b60208260ff161080156101915750838260ff16602081106101805761018061042a565b1a60f81b6001600160f81b03191615155b156101ed57838260ff16602081106101ab576101ab61042a565b1a60f81b818360ff16815181106101c4576101c461042a565b60200101906001600160f81b031916908160001a905350816101e581610440565b92505061015d565b9392505050565b600081604051602001610207919061046e565b604051602081830303815290604052805190602001208360405160200161022e919061046e565b6040516020818303038152906040528051906020012014905092915050565b805160009082906102615750600092915050565b50506020015190565b60006020828403121561027c57600080fd5b5035919050565b60005b8381101561029e578181015183820152602001610286565b838111156102ad576000848401525b50505050565b60208152600082518060208401526102d2816040850160208701610283565b601f01601f19169190910160400192915050565b634e487b7160e01b600052604160045260246000fd5b600082601f83011261030d57600080fd5b813567ffffffffffffffff80821115610328576103286102e6565b604051601f8301601f19908116603f01168101908282118183101715610350576103506102e6565b8160405283815286602085880101111561036957600080fd5b836020870160208301376000602085830101528094505050505092915050565b6000806040838503121561039c57600080fd5b823567ffffffffffffffff808211156103b457600080fd5b6103c0868387016102fc565b935060208501359150808211156103d657600080fd5b506103e3858286016102fc565b9150509250929050565b6000602082840312156103ff57600080fd5b813567ffffffffffffffff81111561041657600080fd5b610422848285016102fc565b949350505050565b634e487b7160e01b600052603260045260246000fd5b600060ff821660ff81141561046557634e487b7160e01b600052601160045260246000fd5b60010192915050565b60008251610480818460208701610283565b919091019291505056fea2646970667358221220298d82728ae43c9244b45b4b5fb205a17617d6c71594ee44ce79f35e380a398264736f6c63430008090033","bytecodeSha1":"69a06548a04ed73f4a6939b4d5b98e1d12ae86e5","compiler":{"evm_version":"istanbul","optimizer":{"enabled":true,"runs":200},"version":"0.8.9+commit.e5eed63a"},"contractName":"strings","language":"Solidity","natspec":{"kind":"dev","methods":{},"version":1},"opcodes":"PUSH20 0x0 ADDRESS EQ PUSH1 0x80 PUSH1 0x40 MSTORE PUSH1 0x4 CALLDATASIZE LT PUSH2 0x4B JUMPI PUSH1 0x0 CALLDATALOAD PUSH1 0xE0 SHR DUP1 PUSH4 0x9201DE55 EQ PUSH2 0x50 JUMPI DUP1 PUSH4 0xBED34BBA EQ PUSH2 0x79 JUMPI DUP1 PUSH4 0xCFB51928 EQ PUSH2 0x9C JUMPI JUMPDEST PUSH1 0x0 DUP1 REVERT JUMPDEST PUSH2 0x63 PUSH2 0x5E CALLDATASIZE PUSH1 0x4 PUSH2 0x26A JUMP JUMPDEST PUSH2 0xBD JUMP JUMPDEST PUSH1 0x40 MLOAD PUSH2 0x70 SWAP2 SWAP1 PUSH2 0x2B3 JUMP JUMPDEST PUSH1 0x40 MLOAD DUP1 SWAP2 SUB SWAP1 RETURN JUMPDEST PUSH2 0x8C PUSH2 0x87 CALLDATASIZE PUSH1 0x4 PUSH2 0x389 JUMP JUMPDEST PUSH2 0x1F4 JUMP JUMPDEST PUSH1 0x40 MLOAD SWAP1 ISZERO ISZERO DUP2 MSTORE PUSH1 0x20 ADD PUSH2 0x70 JUMP JUMPDEST PUSH2 0xAF PUSH2 0xAA CALLDATASIZE PUSH1 0x4 PUSH2 0x3ED JUMP JUMPDEST PUSH2 0x24D JUMP JUMPDEST PUSH1 0x40 MLOAD SWAP1 DUP2 MSTORE PUSH1 0x20 ADD PUSH2 0x70 JUMP JUMPDEST PUSH1 0x60 PUSH1 0x0 JUMPDEST PUSH1 0x20 DUP2 PUSH1 0xFF AND LT DUP1 ISZERO PUSH2 0xF6 JUMPI POP DUP3 DUP2 PUSH1 0xFF AND PUSH1 0x20 DUP2 LT PUSH2 0xE5 JUMPI PUSH2 0xE5 PUSH2 0x42A JUMP JUMPDEST BYTE PUSH1 0xF8 SHL PUSH1 0x1 PUSH1 0x1 PUSH1 0xF8 SHL SUB NOT AND ISZERO ISZERO JUMPDEST ISZERO PUSH2 0x10D JUMPI DUP1 PUSH2 0x105 DUP2 PUSH2 0x440 JUMP JUMPDEST SWAP2 POP POP PUSH2 0xC2 JUMP JUMPDEST PUSH1 0x0 DUP2 PUSH1 0xFF AND PUSH8 0xFFFFFFFFFFFFFFFF DUP2 GT ISZERO PUSH2 0x12B JUMPI PUSH2 0x12B PUSH2 0x2E6 JUMP JUMPDEST PUSH1 0x40 MLOAD SWAP1 DUP1 DUP3 MSTORE DUP1 PUSH1 0x1F ADD PUSH1 0x1F NOT AND PUSH1 0x20 ADD DUP3 ADD PUSH1 0x40 MSTORE DUP1 ISZERO PUSH2 0x155 JUMPI PUSH1 0x20 DUP3 ADD DUP2 DUP1 CALLDATASIZE DUP4 CALLDATACOPY ADD SWAP1 POP JUMPDEST POP SWAP1 POP PUSH1 0x0 SWAP2 POP JUMPDEST PUSH1 0x20 DUP3 PUSH1 0xFF AND LT DUP1 ISZERO PUSH2 0x191 JUMPI POP DUP4 DUP3 PUSH1 0xFF AND PUSH1 0x20 DUP2 LT PUSH2 0x180 JUMPI PUSH2 0x180 PUSH2 0x42A JUMP JUMPDEST BYTE PUSH1 0xF8 SHL PUSH1 0x1 PUSH1 0x1 PUSH1 0xF8 SHL SUB NOT AND ISZERO ISZERO JUMPDEST ISZERO PUSH2 0x1ED JUMPI DUP4 DUP3 PUSH1 0xFF AND PUSH1 0x20 DUP2 LT PUSH2 0x1AB JUMPI PUSH2 0x1AB PUSH2 0x42A JUMP JUMPDEST BYTE PUSH1 0xF8 SHL DUP2 DUP4 PUSH1 0xFF AND DUP2 MLOAD DUP2 LT PUSH2 0x1C4 JUMPI PUSH2 0x1C4 PUSH2 0x42A JUMP JUMPDEST PUSH1 0x20 ADD ADD SWAP1 PUSH1 0x1 PUSH1 0x1 PUSH1 0xF8 SHL SUB NOT AND SWAP1 DUP2 PUSH1 0x0 BYTE SWAP1 MSTORE8 POP DUP2 PUSH2 0x1E5 DUP2 PUSH2 0x440 JUMP JUMPDEST SWAP3 POP POP PUSH2 0x15D JUMP JUMPDEST SWAP4 SWAP3 POP POP POP JUMP JUMPDEST PUSH1 0x0 DUP2 PUSH1 0x40 MLOAD PUSH1 0x20 ADD PUSH2 0x207 SWAP2 SWAP1 PUSH2 0x46E JUMP JUMPDEST PUSH1 0x40 MLOAD PUSH1 0x20 DUP2 DUP4 SUB SUB DUP2 MSTORE SWAP1 PUSH1 0x40 MSTORE DUP1 MLOAD SWAP1 PUSH1 0x20 ADD KECCAK256 DUP4 PUSH1 0x40 MLOAD PUSH1 0x20 ADD PUSH2 0x22E SWAP2 SWAP1 PUSH2 0x46E JUMP JUMPDEST PUSH1 0x40 MLOAD PUSH1 0x20 DUP2 DUP4 SUB SUB DUP2 MSTORE SWAP1 PUSH1 0x40 MSTORE DUP1 MLOAD SWAP1 PUSH1 0x20 ADD KECCAK256 EQ SWAP1 POP SWAP3 SWAP2 POP POP JUMP JUMPDEST DUP1 MLOAD PUSH1 0x0 SWAP1 DUP3 SWAP1 PUSH2 0x261 JUMPI POP PUSH1 0x0 SWAP3 SWAP2 POP POP JUMP JUMPDEST POP POP PUSH1 0x20 ADD MLOAD SWAP1 JUMP JUMPDEST PUSH1 0x0 PUSH1 0x20 DUP3 DUP5 SUB SLT ISZERO PUSH2 0x27C JUMPI PUSH1 0x0 DUP1 REVERT JUMPDEST POP CALLDATALOAD SWAP2 SWAP1 POP JUMP JUMPDEST PUSH1 0x0 JUMPDEST DUP4 DUP2 LT ISZERO PUSH2 0x29E JUMPI DUP2 DUP2 ADD MLOAD DUP4 DUP3 ADD MSTORE PUSH1 0x20 ADD PUSH2 0x286 JUMP JUMPDEST DUP4 DUP2 GT ISZERO PUSH2 0x2AD JUMPI PUSH1 0x0 DUP5 DUP5 ADD MSTORE JUMPDEST POP POP POP POP JUMP JUMPDEST PUSH1 0x20 DUP2 MSTORE PUSH1 0x0 DUP3 MLOAD DUP1 PUSH1 0x20 DUP5 ADD MSTORE PUSH2 0x2D2 DUP2 PUSH1 0x40 DUP6 ADD PUSH1 0x20 DUP8 ADD PUSH2 0x283 JUMP JUMPDEST PUSH1 0x1F ADD PUSH1 0x1F NOT AND SWAP2 SWAP1 SWAP2 ADD PUSH1 0x40 ADD SWAP3 SWAP2 POP POP JUMP JUMPDEST PUSH4 0x4E487B71 PUSH1 0xE0 SHL PUSH1 0x0 MSTORE PUSH1 0x41 PUSH1 0x4 MSTORE PUSH1 0x24 PUSH1 0x0 REVERT JUMPDEST PUSH1 0x0 DUP3 PUSH1 0x1F DUP4 ADD SLT PUSH2 0x30D JUMPI PUSH1 0x0 DUP1 REVERT JUMPDEST DUP2 CALLDATALOAD PUSH8 0xFFFFFFFFFFFFFFFF DUP1 DUP3 GT ISZERO PUSH2 0x328 JUMPI PUSH2 0x328 PUSH2 0x2E6 JUMP JUMPDEST PUSH1 0x40 MLOAD PUSH1 0x1F DUP4 ADD PUSH1 0x1F NOT SWAP1 DUP2 AND PUSH1 0x3F ADD AND DUP2 ADD SWAP1 DUP3 DUP3 GT DUP2 DUP4 LT OR ISZERO PUSH2 0x350 JUMPI PUSH2 0x350 PUSH2 0x2E6 JUMP JUMPDEST DUP2 PUSH1 0x40 MSTORE DUP4 DUP2 MSTORE DUP7 PUSH1 0x20 DUP6 DUP9 ADD ADD GT ISZERO PUSH2 0x369 JUMPI PUSH1 0x0 DUP1 REVERT JUMPDEST DUP4 PUSH1 0x20 DUP8 ADD PUSH1 0x20 DUP4 ADD CALLDATACOPY PUSH1 0x0 PUSH1 0x20 DUP6 DUP4 ADD ADD MSTORE DUP1 SWAP5 POP POP POP POP POP SWAP3 SWAP2 POP POP JUMP JUMPDEST PUSH1 0x0 DUP1 PUSH1 0x40 DUP4 DUP6 SUB SLT ISZERO PUSH2 0x39C JUMPI PUSH1 0x0 DUP1 REVERT JUMPDEST DUP3 CALLDATALOAD PUSH8 0xFFFFFFFFFFFFFFFF DUP1 DUP3 GT ISZERO PUSH2 0x3B4 JUMPI PUSH1 0x0 DUP1 REVERT JUMPDEST PUSH2 0x3C0 DUP7 DUP4 DUP8 ADD PUSH2 0x2FC JUMP JUMPDEST SWAP4 POP PUSH1 0x20 DUP6 ADD CALLDATALOAD SWAP2 POP DUP1 DUP3 GT ISZERO PUSH2 0x3D6 JUMPI PUSH1 0x0 DUP1 REVERT JUMPDEST POP PUSH2 0x3E3 DUP6 DUP3 DUP7 ADD PUSH2 0x2FC JUMP JUMPDEST SWAP2 POP POP SWAP3 POP SWAP3 SWAP1 POP JUMP JUMPDEST PUSH1 0x0 PUSH1 0x20 DUP3 DUP5 SUB SLT ISZERO PUSH2 0x3FF JUMPI PUSH1 0x0 DUP1 REVERT JUMPDEST DUP2 CALLDATALOAD PUSH8 0xFFFFFFFFFFFFFFFF DUP2 GT ISZERO PUSH2 0x416 JUMPI PUSH1 0x0 DUP1 REVERT JUMPDEST PUSH2 0x422 DUP5 DUP3 DUP6 ADD PUSH2 0x2FC JUMP JUMPDEST SWAP5 SWAP4 POP POP POP POP JUMP JUMPDEST PUSH4 0x4E487B71 PUSH1 0xE0 SHL PUSH1 0x0 MSTORE PUSH1 0x32 PUSH1 0x4 MSTORE PUSH1 0x24 PUSH1 0x0 REVERT JUMPDEST PUSH1 0x0 PUSH1 0xFF DUP3 AND PUSH1 0xFF DUP2 EQ ISZERO PUSH2 0x465 JUMPI PUSH4 0x4E487B71 PUSH1 0xE0 SHL PUSH1 0x0 MSTORE PUSH1 0x11 PUSH1 0x4 MSTORE PUSH1 0x24 PUSH1 0x0 REVERT JUMPDEST PUSH1 0x1 ADD SWAP3 SWAP2 POP POP JUMP JUMPDEST PUSH1 0x0 DUP3 MLOAD PUSH2 0x480 DUP2 DUP5 PUSH1 0x20 DUP8 ADD PUSH2 0x283 JUMP JUMPDEST SWAP2 SWAP1 SWAP2 ADD SWAP3 SWAP2 POP POP JUMP INVALID LOG2 PUSH5 0x6970667358 0x22 SLT KECCAK256 0x29 DUP14 DUP3 PUSH19 0x8AE43C9244B45B4B5FB205A17617D6C71594EE DIFFICULTY 0xCE PUSH26 0xF35E380A398264736F6C63430008090033000000000000000000 ","sha1":"8efc158d08405959ea6040b7da14efdf93a621b8","source":"// SPDX-License-Identifier: MIT\npragma solidity ^0.8.0;\n\nimport \"@chainlink/contracts/src/v0.8/ChainlinkClient.sol\";\nimport \"@openzeppelin/contracts/access/Ownable.sol\";\n\n// import \"./strings.sol\";\n\nlibrary strings {\n    function compareStrings(string memory a, string memory b)\n        public\n        pure\n        returns (bool)\n    {\n        return (keccak256(abi.encodePacked((a))) ==\n            keccak256(abi.encodePacked((b))));\n    }\n\n    function bytes32ToString(bytes32 _bytes32)\n        public\n        pure\n        returns (string memory)\n    {\n        uint8 i = 0;\n        while (i < 32 && _bytes32[i] != 0) {\n            i++;\n        }\n        bytes memory bytesArray = new bytes(i);\n        for (i = 0; i < 32 && _bytes32[i] != 0; i++) {\n            bytesArray[i] = _bytes32[i];\n        }\n        return string(bytesArray);\n    }\n\n    function stringToBytes32(string memory source)\n        public\n        pure\n        returns (bytes32 result)\n    {\n        bytes memory tempEmptyStringTest = bytes(source);\n        if (tempEmptyStringTest.length == 0) {\n            return 0x0;\n        }\n\n        assembly {\n            // solhint-disable-line no-inline-assembly\n            result := mload(add(source, 32))\n        }\n    }\n}\n\ncontract Escrow is ChainlinkClient, Ownable {\n    using Chainlink for Chainlink.Request;\n    using strings for string;\n    using strings for bytes32;\n\n    uint256 private constant ORACLE_PAYMENT = 1 * LINK_DIVISIBILITY;\n    address private oracle;\n    bytes32 private jobId;\n\n    address factory;\n    uint256 public lockPeriod;\n    uint256 public currentBlock;\n\n    struct Product {\n        uint256 id;\n        string name;\n        uint256 price;\n        address owner;\n        address buyer;\n        // IERC20 currency;\n        bool purchased;\n        string trackingId;\n        string deliveryStatus;\n        Stage stage;\n    }\n\n    Product public product;\n\n    // address public buyer;\n    // address public seller;\n    // uint256 public price;\n\n    enum Stage {\n        Initiate,\n        WaitForShipping,\n        Shipping,\n        Delivered,\n        End\n    }\n\n    event OrderInitiate(address indexed _buyer);\n    event OrderCancel(address indexed _buyer);\n\n    event ShipmentInprogress(string trackingNo);\n    event ShipmentUpdated(bytes32 status);\n    event ShipmentDelivered(bytes32 status);\n    event OrderCompleted(string trackingNo);\n\n    modifier validStage(Stage _stage, string memory message) {\n        require(product.stage == _stage, message);\n        _;\n    }\n\n    modifier onlyBuyer() {\n        require(msg.sender == product.buyer, \"Only Buyer\");\n        _;\n    }\n\n    constructor() {\n        factory = msg.sender;\n    }\n\n    function init(\n        address _link,\n        address _oracle,\n        string memory _jobId,\n        string memory _name,\n        address _seller,\n        // address _currency,\n        uint256 _price,\n        uint256 _lockPeriod\n    ) external {\n        require(msg.sender == factory, \"FORBIDDEN\");\n        // setPublicChainlinkToken();\n        setChainlinkToken(_link);\n        transferOwnership(_seller);\n        oracle = _oracle;\n        jobId = _jobId.stringToBytes32();\n        lockPeriod = _lockPeriod;\n\n        product.name = _name;\n        product.stage = Stage.Initiate;\n        product.owner = _seller;\n        // currency = IERC20(_currency);\n        product.price = _price;\n    }\n\n    function order()\n        external\n        payable\n        validStage(Stage.Initiate, \"Already have a buyer\")\n    {\n        require(msg.sender != owner(), \"You can not buy from yourself\");\n        require(msg.value >= product.price, \"Not enough fund\");\n        product.stage = Stage.WaitForShipping;\n        product.buyer = msg.sender;\n        currentBlock = block.number;\n        // currency.transferFrom(msg.sender, address(this), price);\n        emit OrderInitiate(product.buyer);\n    }\n\n    function cancelOrder()\n        external\n        onlyBuyer\n        validStage(Stage.WaitForShipping, \"shipping in progress\")\n    {\n        require(\n            block.number >= currentBlock + lockPeriod,\n            \"Not allowed to cancel order\"\n        );\n        product.buyer = address(0);\n        product.stage = Stage.Initiate;\n        // currency.transfer(msg.sender, price);\n        payable(msg.sender).transfer(address(this).balance);\n        emit OrderCancel(msg.sender);\n    }\n\n    function updateShipment(string memory _trackingId)\n        external\n        onlyOwner\n        validStage(Stage.WaitForShipping, \"Invalid Stage\")\n    {\n        product.stage = Stage.Shipping;\n        product.trackingId = _trackingId;\n        emit ShipmentInprogress(product.trackingId);\n    }\n\n    function requestShippingDetail()\n        external\n        validStage(Stage.Shipping, \"Need shipment\")\n    {\n        Chainlink.Request memory req = buildChainlinkRequest(\n            jobId,\n            address(this),\n            this.fulfillShippingDetail.selector\n        );\n\n        req.add(\"trackingId\", product.trackingId);\n        bytes32 requestId = sendChainlinkRequestTo(oracle, req, ORACLE_PAYMENT);\n        emit ChainlinkRequested(requestId);\n    }\n\n    function fulfillShippingDetail(bytes32 _requestId, bytes32 _deliveryStatus)\n        public\n        recordChainlinkFulfillment(_requestId)\n    {\n        product.deliveryStatus = _deliveryStatus.bytes32ToString();\n        if (product.deliveryStatus.compareStrings(\"Delivered\")) {\n            product.stage = Stage.Delivered;\n            emit ShipmentDelivered(_deliveryStatus);\n        } else {\n            emit ShipmentUpdated(_deliveryStatus);\n        }\n    }\n\n    function reclaimFund()\n        external\n        onlyOwner\n        validStage(Stage.Delivered, \"Invalid Stage\")\n    {\n        // currency.transfer(msg.sender, address(this).balance);\n        product.stage = Stage.End;\n        payable(msg.sender).transfer(address(this).balance);\n    }\n}\n","sourcePath":"contracts/Escrow.sol","type":"library","deployment":{"address":"0x7F8c656af2e051447B8cd41f82F35B7e341D4782","chainid":"42","blockHeight":28352860}}