{"abi":[{"inputs":[{"internalType":"address","name":"_linkToken","type":"address"},{"internalType":"address","name":"_oracle","type":"address"},{"internalType":"string","name":"_jobId","type":"string"},{"internalType":"uint256","name":"_maxLockPeriod","type":"uint256"}],"stateMutability":"nonpayable","type":"constructor","name":"constructor"},{"anonymous":false,"inputs":[{"indexed":true,"internalType":"address","name":"previousOwner","type":"address"},{"indexed":true,"internalType":"address","name":"newOwner","type":"address"}],"name":"OwnershipTransferred","type":"event"},{"anonymous":false,"inputs":[{"indexed":true,"internalType":"address","name":"seller","type":"address"},{"indexed":false,"internalType":"address","name":"product","type":"address"}],"name":"ProductCreated","type":"event"},{"inputs":[{"internalType":"string","name":"_name","type":"string"},{"internalType":"uint256","name":"_price","type":"uint256"},{"internalType":"uint256","name":"_lockPeriod","type":"uint256"}],"name":"createProduct","outputs":[],"stateMutability":"nonpayable","type":"function"},{"inputs":[],"name":"maxLockPeriod","outputs":[{"internalType":"uint256","name":"","type":"uint256"}],"stateMutability":"view","type":"function"},{"inputs":[],"name":"owner","outputs":[{"internalType":"address","name":"","type":"address"}],"stateMutability":"view","type":"function"},{"inputs":[],"name":"productCount","outputs":[{"internalType":"uint256","name":"","type":"uint256"}],"stateMutability":"view","type":"function"},{"inputs":[{"internalType":"uint256","name":"","type":"uint256"}],"name":"products","outputs":[{"internalType":"address","name":"","type":"address"}],"stateMutability":"view","type":"function"},{"inputs":[],"name":"renounceOwnership","outputs":[],"stateMutability":"nonpayable","type":"function"},{"inputs":[{"internalType":"uint256","name":"_maxLockPeriod","type":"uint256"}],"name":"setMaxLockPeriod","outputs":[],"stateMutability":"nonpayable","type":"function"},{"inputs":[{"internalType":"address","name":"newOwner","type":"address"}],"name":"transferOwnership","outputs":[],"stateMutability":"nonpayable","type":"function"}],"bytecode":"60806040523480156200001157600080fd5b5060405162002a5e38038062002a5e8339810160408190526200003491620001c0565b6200003f3362000097565b600180546001600160a01b038087166001600160a01b0319928316179092556002805492861692909116919091179055815162000084906003906020850190620000e7565b5060006005556004555062000307915050565b600080546001600160a01b038381166001600160a01b0319831681178455604051919092169283917f8be0079c531659141344cd1fd0a4f28419497f9722a3daafe3b4186f6b6457e09190a35050565b828054620000f590620002ca565b90600052602060002090601f01602090048101928262000119576000855562000164565b82601f106200013457805160ff191683800117855562000164565b8280016001018555821562000164579182015b828111156200016457825182559160200191906001019062000147565b506200017292915062000176565b5090565b5b8082111562000172576000815560010162000177565b80516001600160a01b0381168114620001a557600080fd5b919050565b634e487b7160e01b600052604160045260246000fd5b60008060008060808587031215620001d757600080fd5b620001e2856200018d565b93506020620001f38187016200018d565b60408701519094506001600160401b03808211156200021157600080fd5b818801915088601f8301126200022657600080fd5b8151818111156200023b576200023b620001aa565b604051601f8201601f19908116603f01168101908382118183101715620002665762000266620001aa565b816040528281528b868487010111156200027f57600080fd5b600093505b82841015620002a3578484018601518185018701529285019262000284565b82841115620002b55760008684830101525b60609a909a0151989b979a5050505050505050565b600181811c90821680620002df57607f821691505b602082108114156200030157634e487b7160e01b600052602260045260246000fd5b50919050565b61274780620003176000396000f3fe608060405234801561001057600080fd5b50600436106100885760003560e01c80637bf12b1c1161005b5780637bf12b1c146101075780638da5cb5b1461011a578063e0f6ef871461012b578063f2fde38b1461013457600080fd5b80634b1d29b41461008d57806355889d01146100a9578063715018a6146100be5780637acc0b20146100c6575b600080fd5b61009660045481565b6040519081526020015b60405180910390f35b6100bc6100b7366004610438565b610147565b005b6100bc61017f565b6100ef6100d4366004610438565b6006602052600090815260409020546001600160a01b031681565b6040516001600160a01b0390911681526020016100a0565b6100bc610115366004610467565b6101b5565b6000546001600160a01b03166100ef565b61009660055481565b6100bc61014236600461052b565b610340565b6000546001600160a01b0316331461017a5760405162461bcd60e51b81526004016101719061055b565b60405180910390fd5b600455565b6000546001600160a01b031633146101a95760405162461bcd60e51b81526004016101719061055b565b6101b360006103db565b565b60045481908111156101c657506004545b6005546001546002546040516000926101fd926001600160a01b039182169291169060039086908b9033908c908b90602001610617565b6040516020818303038152906040528051906020012090506000816040516102249061042b565b8190604051809103906000f5905080158015610244573d6000803e3d6000fd5b50600154600254604051636f21131360e01b81529293506001600160a01b0380851693636f2113139361028c9390831692169060039089908e9033908f908e90600401610724565b600060405180830381600087803b1580156102a657600080fd5b505af11580156102ba573d6000803e3d6000fd5b5050600580549250905060006102cf83610807565b909155505060055460009081526006602090815260409182902080546001600160a01b0319166001600160a01b038516908117909155915191825233917fa66df2ac9413442073c2e47b33e555f5891823df7841196bd1f197175a12f8ae910160405180910390a250505050505050565b6000546001600160a01b0316331461036a5760405162461bcd60e51b81526004016101719061055b565b6001600160a01b0381166103cf5760405162461bcd60e51b815260206004820152602660248201527f4f776e61626c653a206e6577206f776e657220697320746865207a65726f206160448201526564647265737360d01b6064820152608401610171565b6103d8816103db565b50565b600080546001600160a01b038381166001600160a01b0319831681178455604051919092169283917f8be0079c531659141344cd1fd0a4f28419497f9722a3daafe3b4186f6b6457e09190a35050565b611ee18061083183390190565b60006020828403121561044a57600080fd5b5035919050565b634e487b7160e01b600052604160045260246000fd5b60008060006060848603121561047c57600080fd5b833567ffffffffffffffff8082111561049457600080fd5b818601915086601f8301126104a857600080fd5b8135818111156104ba576104ba610451565b604051601f8201601f19908116603f011681019083821181831017156104e2576104e2610451565b816040528281528960208487010111156104fb57600080fd5b82602086016020830137600060208483010152809750505050505060208401359150604084013590509250925092565b60006020828403121561053d57600080fd5b81356001600160a01b038116811461055457600080fd5b9392505050565b6020808252818101527f4f776e61626c653a2063616c6c6572206973206e6f7420746865206f776e6572604082015260600190565b600181811c908216806105a457607f821691505b602082108114156105c557634e487b7160e01b600052602260045260246000fd5b50919050565b60005b838110156105e65781810151838201526020016105ce565b838111156105f5576000848401525b50505050565b6000815161060d8185602086016105cb565b9290920192915050565b60006bffffffffffffffffffffffff19808b60601b168352808a60601b1660148401525060286000895461064a81610590565b600182811680156106625760018114610677576106aa565b60ff19841688870152828801860194506106aa565b8d60005260208060002060005b8581101561069f5781548b82018a0152908401908201610684565b505050858389010194505b505050508881526106be60208201896105fb565b9150506106dc818760601b6bffffffffffffffffffffffff19169052565b6014810194909452505060348201526054019695505050505050565b600081518084526107108160208601602086016105cb565b601f01601f19169290920160200192915050565b6001600160a01b0389811682528816602080830191909152610100604083018190528854600092839161075681610590565b9386018490526101209360018281168015610778576001811461078d576107bb565b60ff19841689880152610140890195506107bb565b8e6000528460002060005b848110156107b35781548b82018a0152908301908601610798565b8a0188019650505b505050505088606085015283810360808501526107d881896106f8565b925050506107f160a08301866001600160a01b03169052565b60c082019390935260e001529695505050505050565b600060001982141561082957634e487b7160e01b600052601160045260246000fd5b506001019056fe6080604052600160045534801561001557600080fd5b5061001f33610036565b600980546001600160a01b03191633179055610088565b600680546001600160a01b038381166001600160a01b0319831681179093556040519116919082907f8be0079c531659141344cd1fd0a4f28419497f9722a3daafe3b4186f6b6457e090600090a35050565b611e4a806100976000396000f3fe6080604052600436106100c25760003560e01c80636f2113131161007f578063bf15071d11610059578063bf15071d146101ce578063bf9ce952146101d6578063e12ed13c14610200578063f2fde38b1461021657600080fd5b80636f21131314610171578063715018a6146101915780638da5cb5b146101a657600080fd5b806309d99f67146100c7578063366e8e52146100e95780633fd8b02f146100fe57806350737055146101275780636a816548146101475780636b827cd41461015c575b600080fd5b3480156100d357600080fd5b506100e76100e23660046116f1565b610236565b005b3480156100f557600080fd5b506100e7610524565b34801561010a57600080fd5b50610114600a5481565b6040519081526020015b60405180910390f35b34801561013357600080fd5b506100e76101423660046117d8565b6105e9565b34801561015357600080fd5b506100e76106c5565b34801561016857600080fd5b506100e7610848565b34801561017d57600080fd5b506100e761018c366004611829565b6109e4565b34801561019d57600080fd5b506100e7610b47565b3480156101b257600080fd5b506006546040516001600160a01b03909116815260200161011e565b6100e7610b7d565b3480156101e257600080fd5b506101eb610cd7565b60405161011e9998979695949392919061194a565b34801561020c57600080fd5b50610114600b5481565b34801561022257600080fd5b506100e76102313660046119e8565b610ec1565b60008281526005602052604090205482906001600160a01b031633146102b45760405162461bcd60e51b815260206004820152602860248201527f536f75726365206d75737420626520746865206f7261636c65206f6620746865604482015267081c995c5d595cdd60c21b60648201526084015b60405180910390fd5b60008181526005602052604080822080546001600160a01b03191690555182917f7cc135e0cebb02c3480ae5d74d377283180a2601f8f644edf7987b009316c63a91a2604051639201de5560e01b81526004810183905273__strings_______________________________90639201de559060240160006040518083038186803b15801561034257600080fd5b505af4158015610356573d6000803e3d6000fd5b505050506040513d6000823e601f3d908101601f1916820160405261037e9190810190611a03565b80516103929160129160209091019061161d565b50601280546103a090611a71565b80601f01602080910402602001604051908101604052809291908181526020018280546103cc90611a71565b80156104195780601f106103ee57610100808354040283529160200191610419565b820191906000526020600020905b8154815290600101906020018083116103fc57829003601f168201915b5050604051635f69a5dd60e11b815273__strings_______________________________9463bed34bba945061045493509150600401611aa6565b60206040518083038186803b15801561046c57600080fd5b505af4158015610480573d6000803e3d6000fd5b505050506040513d601f19601f820116820180604052508101906104a49190611ae4565b156104ef576013805460ff191660031790556040518281527fad84bc03ffc88d269c045288b6bd3d77f12f9ef79581b860c1538f4bd662f9ea906020015b60405180910390a1505050565b6040518281527f65fb20badd0fcfd3bf3ba0ca9bfe4ec522640041a07decd17f1be1fb0ead4f4a906020016104e2565b505050565b6006546001600160a01b0316331461054e5760405162461bcd60e51b81526004016102ab90611b06565b60408051808201909152600d81526c496e76616c696420537461676560981b60208201526003908160135460ff16600481111561058d5761058d611934565b1481906105ad5760405162461bcd60e51b81526004016102ab9190611b3b565b5060138054600460ff1990911617905560405133904780156108fc02916000818181858888f1935050505015801561051f573d6000803e3d6000fd5b6006546001600160a01b031633146106135760405162461bcd60e51b81526004016102ab90611b06565b60408051808201909152600d81526c496e76616c696420537461676560981b60208201526001908160135460ff16600481111561065257610652611934565b1481906106725760405162461bcd60e51b81526004016102ab9190611b3b565b506013805460ff19166002179055825161069390601190602086019061161d565b506040517f1862cf7a0e12bac162f518f43c2f50df187e89045899a7c015c1d61d9880a11b906104e290601190611b4e565b6010546001600160a01b0316331461070c5760405162461bcd60e51b815260206004820152600a60248201526927b7363c90213abcb2b960b11b60448201526064016102ab565b6040805180820190915260148152737368697070696e6720696e2070726f677265737360601b60208201526001908160135460ff16600481111561075257610752611934565b1481906107725760405162461bcd60e51b81526004016102ab9190611b3b565b50600a54600b546107839190611c0c565b4310156107d25760405162461bcd60e51b815260206004820152601b60248201527f4e6f7420616c6c6f77656420746f2063616e63656c206f72646572000000000060448201526064016102ab565b601080546001600160a01b03191690556013805460ff1916905560405133904780156108fc02916000818181858888f19350505050158015610818573d6000803e3d6000fd5b5060405133907f393629f15e859a19530bab9675f9d39f0f57889f19f883bc5be3533c4a2c9ea890600090a25050565b60408051808201909152600d81526c13995959081cda1a5c1b595b9d609a1b60208201526002908160135460ff16600481111561088757610887611934565b1481906108a75760405162461bcd60e51b81526004016102ab9190611b3b565b5060006108be600854306309d99f6760e01b610f5c565b90506109846040518060400160405280600a8152602001691d1c9858dada5b99d25960b21b815250600c60050180546108f690611a71565b80601f016020809104026020016040519081016040528092919081815260200182805461092290611a71565b801561096f5780601f106109445761010080835404028352916020019161096f565b820191906000526020600020905b81548152906001019060200180831161095257829003601f168201915b505050505083610f819092919063ffffffff16565b6007546000906109b0906001600160a01b0316836109ab670de0b6b3a76400006001611c24565b610f9f565b60405190915081907fb5e6e01e79f91267dc17b4e6314d5d4d03593d2ceee0fbb452b750bd70ea5af990600090a250505050565b6009546001600160a01b03163314610a2a5760405162461bcd60e51b81526020600482015260096024820152682327a92124a22222a760b91b60448201526064016102ab565b600280546001600160a01b0319166001600160a01b038a16179055610a4e83610ec1565b600780546001600160a01b0319166001600160a01b0389161790556040516319f6a32560e31b815273__strings_______________________________9063cfb5192890610aa0908990600401611b3b565b60206040518083038186803b158015610ab857600080fd5b505af4158015610acc573d6000803e3d6000fd5b505050506040513d601f19601f82011682018060405250810190610af09190611c43565b600855600a819055600c8590558351610b1090600d90602087019061161d565b50506013805460ff19169055600f80546001600160a01b0319166001600160a01b039390931692909217909155600e555050505050565b6006546001600160a01b03163314610b715760405162461bcd60e51b81526004016102ab90611b06565b610b7b6000610fbe565b565b60408051808201909152601481527320b63932b0b23c903430bb32903090313abcb2b960611b60208201526000908160135460ff166004811115610bc357610bc3611934565b148190610be35760405162461bcd60e51b81526004016102ab9190611b3b565b506006546001600160a01b0316331415610c3f5760405162461bcd60e51b815260206004820152601d60248201527f596f752063616e206e6f74206275792066726f6d20796f757273656c6600000060448201526064016102ab565b600e54341015610c835760405162461bcd60e51b815260206004820152600f60248201526e139bdd08195b9bdd59da08199d5b99608a1b60448201526064016102ab565b6013805460ff1916600117905560108054336001600160a01b0319909116811790915543600b556040517fe4caeaef8e4f0c4880839ca47219351b38cf4116c082fd0baefc3008e4ba11a390600090a25050565b600c8054600d8054919291610ceb90611a71565b80601f0160208091040260200160405190810160405280929190818152602001828054610d1790611a71565b8015610d645780601f10610d3957610100808354040283529160200191610d64565b820191906000526020600020905b815481529060010190602001808311610d4757829003601f168201915b50505050600283015460038401546004850154600586018054959693956001600160a01b03938416955092821693600160a01b90920460ff1692610da790611a71565b80601f0160208091040260200160405190810160405280929190818152602001828054610dd390611a71565b8015610e205780601f10610df557610100808354040283529160200191610e20565b820191906000526020600020905b815481529060010190602001808311610e0357829003601f168201915b505050505090806006018054610e3590611a71565b80601f0160208091040260200160405190810160405280929190818152602001828054610e6190611a71565b8015610eae5780601f10610e8357610100808354040283529160200191610eae565b820191906000526020600020905b815481529060010190602001808311610e9157829003601f168201915b5050506007909301549192505060ff1689565b6006546001600160a01b03163314610eeb5760405162461bcd60e51b81526004016102ab90611b06565b6001600160a01b038116610f505760405162461bcd60e51b815260206004820152602660248201527f4f776e61626c653a206e6577206f776e657220697320746865207a65726f206160448201526564647265737360d01b60648201526084016102ab565b610f5981610fbe565b50565b610f646116a1565b610f6c6116a1565b610f7881868686611010565b95945050505050565b6080830151610f90908361104d565b608083015161051f908261104d565b6000610fb684848460016320214ca360e11b611064565b949350505050565b600680546001600160a01b038381166001600160a01b0319831681179093556040519116919082907f8be0079c531659141344cd1fd0a4f28419497f9722a3daafe3b4186f6b6457e090600090a35050565b6110186116a1565b6110288560800151610100611270565b50509183526001600160a01b031660208301526001600160e01b031916604082015290565b61105a82600383516112db565b61051f82826113af565b6004546040516bffffffffffffffffffffffff193060601b166020820152603481019190915260009060540160408051808303601f19018152918152815160209283012060045460608901526000818152600590935281832080546001600160a01b0319166001600160a01b038b16179055905190925082917fb5e6e01e79f91267dc17b4e6314d5d4d03593d2ceee0fbb452b750bd70ea5af991a2600082600080886000015189602001518a604001518b606001518a8d608001516000015160405160240161113b989796959493929190611c5c565b60408051601f198184030181529181526020820180516001600160e01b03166001600160e01b0319909416939093179092526002549151630200057560e51b81529092506001600160a01b0390911690634000aea0906111a3908a9089908690600401611cc4565b602060405180830381600087803b1580156111bd57600080fd5b505af11580156111d1573d6000803e3d6000fd5b505050506040513d601f19601f820116820180604052508101906111f59190611ae4565b61124d5760405162461bcd60e51b815260206004820152602360248201527f756e61626c6520746f207472616e73666572416e6443616c6c20746f206f7261604482015262636c6560e81b60648201526084016102ab565b6001600460008282546112609190611c0c565b9091555091979650505050505050565b604080518082019091526060815260006020820152611290602083611ceb565b156112b8576112a0602083611ceb565b6112ab906020611d0d565b6112b59083611c0c565b91505b506020808301829052604080518085526000815283019091019052815b92915050565b601781116112fc576112f68360e0600585901b1683176113dd565b50505050565b60ff811161132657611319836018611fe0600586901b16176113dd565b506112f683826001611402565b61ffff811161135157611344836019611fe0600586901b16176113dd565b506112f683826002611402565b63ffffffff811161137e5761137183601a611fe0600586901b16176113dd565b506112f683826004611402565b67ffffffffffffffff811161051f576113a283601b611fe0600586901b16176113dd565b506112f683826008611402565b6040805180820190915260608152600060208201526113d683846000015151848551611428565b9392505050565b6040805180820190915260608152600060208201526113d68384600001515184611512565b604080518082019091526060815260006020820152610fb684856000015151858561156e565b604080518082019091526060815260006020820152825182111561144b57600080fd5b602085015161145a8386611c0c565b111561148d5761148d8561147d876020015187866114789190611c0c565b6115ef565b611488906002611c24565b611606565b6000808651805187602083010193508088870111156114ac5787860182525b505050602084015b602084106114ec57805182526114cb602083611c0c565b91506114d8602082611c0c565b90506114e5602085611d0d565b93506114b4565b51815160001960208690036101000a019081169019919091161790525083949350505050565b604080518082019091526060815260006020820152836020015183106115475761154784856020015160026114889190611c24565b835180516020858301018481535080851415611564576001810182525b5093949350505050565b60408051808201909152606081526000602082015260208501516115928584611c0c565b11156115a6576115a68561147d8685611c0c565b600060016115b684610100611e08565b6115c09190611d0d565b90508551838682010185831982511617815250805184870111156115e45783860181525b509495945050505050565b6000818311156116005750816112d5565b50919050565b81516116128383611270565b506112f683826113af565b82805461162990611a71565b90600052602060002090601f01602090048101928261164b5760008555611691565b82601f1061166457805160ff1916838001178555611691565b82800160010185558215611691579182015b82811115611691578251825591602001919060010190611676565b5061169d9291506116dc565b5090565b6040805160a0810182526000808252602080830182905282840182905260608084018390528451808601909552845283015290608082015290565b5b8082111561169d57600081556001016116dd565b6000806040838503121561170457600080fd5b50508035926020909101359150565b634e487b7160e01b600052604160045260246000fd5b604051601f8201601f1916810167ffffffffffffffff8111828210171561175257611752611713565b604052919050565b600067ffffffffffffffff82111561177457611774611713565b50601f01601f191660200190565b600082601f83011261179357600080fd5b81356117a66117a18261175a565b611729565b8181528460208386010111156117bb57600080fd5b816020850160208301376000918101602001919091529392505050565b6000602082840312156117ea57600080fd5b813567ffffffffffffffff81111561180157600080fd5b610fb684828501611782565b80356001600160a01b038116811461182457600080fd5b919050565b600080600080600080600080610100898b03121561184657600080fd5b61184f8961180d565b975061185d60208a0161180d565b9650604089013567ffffffffffffffff8082111561187a57600080fd5b6118868c838d01611782565b975060608b0135965060808b01359150808211156118a357600080fd5b506118b08b828c01611782565b9450506118bf60a08a0161180d565b925060c0890135915060e089013590509295985092959890939650565b60005b838110156118f75781810151838201526020016118df565b838111156112f65750506000910152565b600081518084526119208160208601602086016118dc565b601f01601f19169290920160200192915050565b634e487b7160e01b600052602160045260246000fd5b60006101208b83528060208401526119648184018c611908565b604084018b90526001600160a01b038a811660608601528916608085015287151560a085015283810360c0850152905061199e8187611908565b905082810360e08401526119b28186611908565b915050600583106119d357634e487b7160e01b600052602160045260246000fd5b826101008301529a9950505050505050505050565b6000602082840312156119fa57600080fd5b6113d68261180d565b600060208284031215611a1557600080fd5b815167ffffffffffffffff811115611a2c57600080fd5b8201601f81018413611a3d57600080fd5b8051611a4b6117a18261175a565b818152856020838501011115611a6057600080fd5b610f788260208301602086016118dc565b600181811c90821680611a8557607f821691505b6020821081141561160057634e487b7160e01b600052602260045260246000fd5b604081526000611ab96040830184611908565b8281036020840152600981526811195b1a5d995c995960ba1b60208201526040810191505092915050565b600060208284031215611af657600080fd5b815180151581146113d657600080fd5b6020808252818101527f4f776e61626c653a2063616c6c6572206973206e6f7420746865206f776e6572604082015260600190565b6020815260006113d66020830184611908565b600060208083526000845481600182811c915080831680611b7057607f831692505b858310811415611b8e57634e487b7160e01b85526022600452602485fd5b878601838152602001818015611bab5760018114611bbc57611be7565b60ff19861682528782019650611be7565b60008b81526020902060005b86811015611be157815484820152908501908901611bc8565b83019750505b50949998505050505050505050565b634e487b7160e01b600052601160045260246000fd5b60008219821115611c1f57611c1f611bf6565b500190565b6000816000190483118215151615611c3e57611c3e611bf6565b500290565b600060208284031215611c5557600080fd5b5051919050565b6001600160a01b0389811682526020820189905260408201889052861660608201526001600160e01b03198516608082015260a0810184905260c0810183905261010060e08201819052600090611cb583820185611908565b9b9a5050505050505050505050565b60018060a01b0384168152826020820152606060408201526000610f786060830184611908565b600082611d0857634e487b7160e01b600052601260045260246000fd5b500690565b600082821015611d1f57611d1f611bf6565b500390565b600181815b80851115611d5f578160001904821115611d4557611d45611bf6565b80851615611d5257918102915b93841c9390800290611d29565b509250929050565b600082611d76575060016112d5565b81611d83575060006112d5565b8160018114611d995760028114611da357611dbf565b60019150506112d5565b60ff841115611db457611db4611bf6565b50506001821b6112d5565b5060208310610133831016604e8410600b8410161715611de2575081810a6112d5565b611dec8383611d24565b8060001904821115611e0057611e00611bf6565b029392505050565b60006113d68383611d6756fea2646970667358221220b07d01f78fec4b928ae2fd6969f1ddeda03bbe960c60239cd81178e2c53a208364736f6c63430008090033a2646970667358221220be59f859da816d42083ff95891adf4e3c5b1af49d0b9a3090062dc53c56b1f4464736f6c63430008090033","bytecodeSha1":"c76dadada053dea976b12318474a6ade30e00d3b","compiler":{"evm_version":"istanbul","optimizer":{"enabled":true,"runs":200},"version":"0.8.9+commit.e5eed63a"},"contractName":"EscrowFactory","deployedBytecode":"608060405234801561001057600080fd5b50600436106100885760003560e01c80637bf12b1c1161005b5780637bf12b1c146101075780638da5cb5b1461011a578063e0f6ef871461012b578063f2fde38b1461013457600080fd5b80634b1d29b41461008d57806355889d01146100a9578063715018a6146100be5780637acc0b20146100c6575b600080fd5b61009660045481565b6040519081526020015b60405180910390f35b6100bc6100b7366004610438565b610147565b005b6100bc61017f565b6100ef6100d4366004610438565b6006602052600090815260409020546001600160a01b031681565b6040516001600160a01b0390911681526020016100a0565b6100bc610115366004610467565b6101b5565b6000546001600160a01b03166100ef565b61009660055481565b6100bc61014236600461052b565b610340565b6000546001600160a01b0316331461017a5760405162461bcd60e51b81526004016101719061055b565b60405180910390fd5b600455565b6000546001600160a01b031633146101a95760405162461bcd60e51b81526004016101719061055b565b6101b360006103db565b565b60045481908111156101c657506004545b6005546001546002546040516000926101fd926001600160a01b039182169291169060039086908b9033908c908b90602001610617565b6040516020818303038152906040528051906020012090506000816040516102249061042b565b8190604051809103906000f5905080158015610244573d6000803e3d6000fd5b50600154600254604051636f21131360e01b81529293506001600160a01b0380851693636f2113139361028c9390831692169060039089908e9033908f908e90600401610724565b600060405180830381600087803b1580156102a657600080fd5b505af11580156102ba573d6000803e3d6000fd5b5050600580549250905060006102cf83610807565b909155505060055460009081526006602090815260409182902080546001600160a01b0319166001600160a01b038516908117909155915191825233917fa66df2ac9413442073c2e47b33e555f5891823df7841196bd1f197175a12f8ae910160405180910390a250505050505050565b6000546001600160a01b0316331461036a5760405162461bcd60e51b81526004016101719061055b565b6001600160a01b0381166103cf5760405162461bcd60e51b815260206004820152602660248201527f4f776e61626c653a206e6577206f776e657220697320746865207a65726f206160448201526564647265737360d01b6064820152608401610171565b6103d8816103db565b50565b600080546001600160a01b038381166001600160a01b0319831681178455604051919092169283917f8be0079c531659141344cd1fd0a4f28419497f9722a3daafe3b4186f6b6457e09190a35050565b611ee18061083183390190565b60006020828403121561044a57600080fd5b5035919050565b634e487b7160e01b600052604160045260246000fd5b60008060006060848603121561047c57600080fd5b833567ffffffffffffffff8082111561049457600080fd5b818601915086601f8301126104a857600080fd5b8135818111156104ba576104ba610451565b604051601f8201601f19908116603f011681019083821181831017156104e2576104e2610451565b816040528281528960208487010111156104fb57600080fd5b82602086016020830137600060208483010152809750505050505060208401359150604084013590509250925092565b60006020828403121561053d57600080fd5b81356001600160a01b038116811461055457600080fd5b9392505050565b6020808252818101527f4f776e61626c653a2063616c6c6572206973206e6f7420746865206f776e6572604082015260600190565b600181811c908216806105a457607f821691505b602082108114156105c557634e487b7160e01b600052602260045260246000fd5b50919050565b60005b838110156105e65781810151838201526020016105ce565b838111156105f5576000848401525b50505050565b6000815161060d8185602086016105cb565b9290920192915050565b60006bffffffffffffffffffffffff19808b60601b168352808a60601b1660148401525060286000895461064a81610590565b600182811680156106625760018114610677576106aa565b60ff19841688870152828801860194506106aa565b8d60005260208060002060005b8581101561069f5781548b82018a0152908401908201610684565b505050858389010194505b505050508881526106be60208201896105fb565b9150506106dc818760601b6bffffffffffffffffffffffff19169052565b6014810194909452505060348201526054019695505050505050565b600081518084526107108160208601602086016105cb565b601f01601f19169290920160200192915050565b6001600160a01b0389811682528816602080830191909152610100604083018190528854600092839161075681610590565b9386018490526101209360018281168015610778576001811461078d576107bb565b60ff19841689880152610140890195506107bb565b8e6000528460002060005b848110156107b35781548b82018a0152908301908601610798565b8a0188019650505b505050505088606085015283810360808501526107d881896106f8565b925050506107f160a08301866001600160a01b03169052565b60c082019390935260e001529695505050505050565b600060001982141561082957634e487b7160e01b600052601160045260246000fd5b506001019056fe6080604052600160045534801561001557600080fd5b5061001f33610036565b600980546001600160a01b03191633179055610088565b600680546001600160a01b038381166001600160a01b0319831681179093556040519116919082907f8be0079c531659141344cd1fd0a4f28419497f9722a3daafe3b4186f6b6457e090600090a35050565b611e4a806100976000396000f3fe6080604052600436106100c25760003560e01c80636f2113131161007f578063bf15071d11610059578063bf15071d146101ce578063bf9ce952146101d6578063e12ed13c14610200578063f2fde38b1461021657600080fd5b80636f21131314610171578063715018a6146101915780638da5cb5b146101a657600080fd5b806309d99f67146100c7578063366e8e52146100e95780633fd8b02f146100fe57806350737055146101275780636a816548146101475780636b827cd41461015c575b600080fd5b3480156100d357600080fd5b506100e76100e23660046116f1565b610236565b005b3480156100f557600080fd5b506100e7610524565b34801561010a57600080fd5b50610114600a5481565b6040519081526020015b60405180910390f35b34801561013357600080fd5b506100e76101423660046117d8565b6105e9565b34801561015357600080fd5b506100e76106c5565b34801561016857600080fd5b506100e7610848565b34801561017d57600080fd5b506100e761018c366004611829565b6109e4565b34801561019d57600080fd5b506100e7610b47565b3480156101b257600080fd5b506006546040516001600160a01b03909116815260200161011e565b6100e7610b7d565b3480156101e257600080fd5b506101eb610cd7565b60405161011e9998979695949392919061194a565b34801561020c57600080fd5b50610114600b5481565b34801561022257600080fd5b506100e76102313660046119e8565b610ec1565b60008281526005602052604090205482906001600160a01b031633146102b45760405162461bcd60e51b815260206004820152602860248201527f536f75726365206d75737420626520746865206f7261636c65206f6620746865604482015267081c995c5d595cdd60c21b60648201526084015b60405180910390fd5b60008181526005602052604080822080546001600160a01b03191690555182917f7cc135e0cebb02c3480ae5d74d377283180a2601f8f644edf7987b009316c63a91a2604051639201de5560e01b81526004810183905273__$aadc688bcea560502e0213413fe0dcbaa2$__90639201de559060240160006040518083038186803b15801561034257600080fd5b505af4158015610356573d6000803e3d6000fd5b505050506040513d6000823e601f3d908101601f1916820160405261037e9190810190611a03565b80516103929160129160209091019061161d565b50601280546103a090611a71565b80601f01602080910402602001604051908101604052809291908181526020018280546103cc90611a71565b80156104195780601f106103ee57610100808354040283529160200191610419565b820191906000526020600020905b8154815290600101906020018083116103fc57829003601f168201915b5050604051635f69a5dd60e11b815273__$aadc688bcea560502e0213413fe0dcbaa2$__9463bed34bba945061045493509150600401611aa6565b60206040518083038186803b15801561046c57600080fd5b505af4158015610480573d6000803e3d6000fd5b505050506040513d601f19601f820116820180604052508101906104a49190611ae4565b156104ef576013805460ff191660031790556040518281527fad84bc03ffc88d269c045288b6bd3d77f12f9ef79581b860c1538f4bd662f9ea906020015b60405180910390a1505050565b6040518281527f65fb20badd0fcfd3bf3ba0ca9bfe4ec522640041a07decd17f1be1fb0ead4f4a906020016104e2565b505050565b6006546001600160a01b0316331461054e5760405162461bcd60e51b81526004016102ab90611b06565b60408051808201909152600d81526c496e76616c696420537461676560981b60208201526003908160135460ff16600481111561058d5761058d611934565b1481906105ad5760405162461bcd60e51b81526004016102ab9190611b3b565b5060138054600460ff1990911617905560405133904780156108fc02916000818181858888f1935050505015801561051f573d6000803e3d6000fd5b6006546001600160a01b031633146106135760405162461bcd60e51b81526004016102ab90611b06565b60408051808201909152600d81526c496e76616c696420537461676560981b60208201526001908160135460ff16600481111561065257610652611934565b1481906106725760405162461bcd60e51b81526004016102ab9190611b3b565b506013805460ff19166002179055825161069390601190602086019061161d565b506040517f1862cf7a0e12bac162f518f43c2f50df187e89045899a7c015c1d61d9880a11b906104e290601190611b4e565b6010546001600160a01b0316331461070c5760405162461bcd60e51b815260206004820152600a60248201526927b7363c90213abcb2b960b11b60448201526064016102ab565b6040805180820190915260148152737368697070696e6720696e2070726f677265737360601b60208201526001908160135460ff16600481111561075257610752611934565b1481906107725760405162461bcd60e51b81526004016102ab9190611b3b565b50600a54600b546107839190611c0c565b4310156107d25760405162461bcd60e51b815260206004820152601b60248201527f4e6f7420616c6c6f77656420746f2063616e63656c206f72646572000000000060448201526064016102ab565b601080546001600160a01b03191690556013805460ff1916905560405133904780156108fc02916000818181858888f19350505050158015610818573d6000803e3d6000fd5b5060405133907f393629f15e859a19530bab9675f9d39f0f57889f19f883bc5be3533c4a2c9ea890600090a25050565b60408051808201909152600d81526c13995959081cda1a5c1b595b9d609a1b60208201526002908160135460ff16600481111561088757610887611934565b1481906108a75760405162461bcd60e51b81526004016102ab9190611b3b565b5060006108be600854306309d99f6760e01b610f5c565b90506109846040518060400160405280600a8152602001691d1c9858dada5b99d25960b21b815250600c60050180546108f690611a71565b80601f016020809104026020016040519081016040528092919081815260200182805461092290611a71565b801561096f5780601f106109445761010080835404028352916020019161096f565b820191906000526020600020905b81548152906001019060200180831161095257829003601f168201915b505050505083610f819092919063ffffffff16565b6007546000906109b0906001600160a01b0316836109ab670de0b6b3a76400006001611c24565b610f9f565b60405190915081907fb5e6e01e79f91267dc17b4e6314d5d4d03593d2ceee0fbb452b750bd70ea5af990600090a250505050565b6009546001600160a01b03163314610a2a5760405162461bcd60e51b81526020600482015260096024820152682327a92124a22222a760b91b60448201526064016102ab565b600280546001600160a01b0319166001600160a01b038a16179055610a4e83610ec1565b600780546001600160a01b0319166001600160a01b0389161790556040516319f6a32560e31b815273__$aadc688bcea560502e0213413fe0dcbaa2$__9063cfb5192890610aa0908990600401611b3b565b60206040518083038186803b158015610ab857600080fd5b505af4158015610acc573d6000803e3d6000fd5b505050506040513d601f19601f82011682018060405250810190610af09190611c43565b600855600a819055600c8590558351610b1090600d90602087019061161d565b50506013805460ff19169055600f80546001600160a01b0319166001600160a01b039390931692909217909155600e555050505050565b6006546001600160a01b03163314610b715760405162461bcd60e51b81526004016102ab90611b06565b610b7b6000610fbe565b565b60408051808201909152601481527320b63932b0b23c903430bb32903090313abcb2b960611b60208201526000908160135460ff166004811115610bc357610bc3611934565b148190610be35760405162461bcd60e51b81526004016102ab9190611b3b565b506006546001600160a01b0316331415610c3f5760405162461bcd60e51b815260206004820152601d60248201527f596f752063616e206e6f74206275792066726f6d20796f757273656c6600000060448201526064016102ab565b600e54341015610c835760405162461bcd60e51b815260206004820152600f60248201526e139bdd08195b9bdd59da08199d5b99608a1b60448201526064016102ab565b6013805460ff1916600117905560108054336001600160a01b0319909116811790915543600b556040517fe4caeaef8e4f0c4880839ca47219351b38cf4116c082fd0baefc3008e4ba11a390600090a25050565b600c8054600d8054919291610ceb90611a71565b80601f0160208091040260200160405190810160405280929190818152602001828054610d1790611a71565b8015610d645780601f10610d3957610100808354040283529160200191610d64565b820191906000526020600020905b815481529060010190602001808311610d4757829003601f168201915b50505050600283015460038401546004850154600586018054959693956001600160a01b03938416955092821693600160a01b90920460ff1692610da790611a71565b80601f0160208091040260200160405190810160405280929190818152602001828054610dd390611a71565b8015610e205780601f10610df557610100808354040283529160200191610e20565b820191906000526020600020905b815481529060010190602001808311610e0357829003601f168201915b505050505090806006018054610e3590611a71565b80601f0160208091040260200160405190810160405280929190818152602001828054610e6190611a71565b8015610eae5780601f10610e8357610100808354040283529160200191610eae565b820191906000526020600020905b815481529060010190602001808311610e9157829003601f168201915b5050506007909301549192505060ff1689565b6006546001600160a01b03163314610eeb5760405162461bcd60e51b81526004016102ab90611b06565b6001600160a01b038116610f505760405162461bcd60e51b815260206004820152602660248201527f4f776e61626c653a206e6577206f776e657220697320746865207a65726f206160448201526564647265737360d01b60648201526084016102ab565b610f5981610fbe565b50565b610f646116a1565b610f6c6116a1565b610f7881868686611010565b95945050505050565b6080830151610f90908361104d565b608083015161051f908261104d565b6000610fb684848460016320214ca360e11b611064565b949350505050565b600680546001600160a01b038381166001600160a01b0319831681179093556040519116919082907f8be0079c531659141344cd1fd0a4f28419497f9722a3daafe3b4186f6b6457e090600090a35050565b6110186116a1565b6110288560800151610100611270565b50509183526001600160a01b031660208301526001600160e01b031916604082015290565b61105a82600383516112db565b61051f82826113af565b6004546040516bffffffffffffffffffffffff193060601b166020820152603481019190915260009060540160408051808303601f19018152918152815160209283012060045460608901526000818152600590935281832080546001600160a01b0319166001600160a01b038b16179055905190925082917fb5e6e01e79f91267dc17b4e6314d5d4d03593d2ceee0fbb452b750bd70ea5af991a2600082600080886000015189602001518a604001518b606001518a8d608001516000015160405160240161113b989796959493929190611c5c565b60408051601f198184030181529181526020820180516001600160e01b03166001600160e01b0319909416939093179092526002549151630200057560e51b81529092506001600160a01b0390911690634000aea0906111a3908a9089908690600401611cc4565b602060405180830381600087803b1580156111bd57600080fd5b505af11580156111d1573d6000803e3d6000fd5b505050506040513d601f19601f820116820180604052508101906111f59190611ae4565b61124d5760405162461bcd60e51b815260206004820152602360248201527f756e61626c6520746f207472616e73666572416e6443616c6c20746f206f7261604482015262636c6560e81b60648201526084016102ab565b6001600460008282546112609190611c0c565b9091555091979650505050505050565b604080518082019091526060815260006020820152611290602083611ceb565b156112b8576112a0602083611ceb565b6112ab906020611d0d565b6112b59083611c0c565b91505b506020808301829052604080518085526000815283019091019052815b92915050565b601781116112fc576112f68360e0600585901b1683176113dd565b50505050565b60ff811161132657611319836018611fe0600586901b16176113dd565b506112f683826001611402565b61ffff811161135157611344836019611fe0600586901b16176113dd565b506112f683826002611402565b63ffffffff811161137e5761137183601a611fe0600586901b16176113dd565b506112f683826004611402565b67ffffffffffffffff811161051f576113a283601b611fe0600586901b16176113dd565b506112f683826008611402565b6040805180820190915260608152600060208201526113d683846000015151848551611428565b9392505050565b6040805180820190915260608152600060208201526113d68384600001515184611512565b604080518082019091526060815260006020820152610fb684856000015151858561156e565b604080518082019091526060815260006020820152825182111561144b57600080fd5b602085015161145a8386611c0c565b111561148d5761148d8561147d876020015187866114789190611c0c565b6115ef565b611488906002611c24565b611606565b6000808651805187602083010193508088870111156114ac5787860182525b505050602084015b602084106114ec57805182526114cb602083611c0c565b91506114d8602082611c0c565b90506114e5602085611d0d565b93506114b4565b51815160001960208690036101000a019081169019919091161790525083949350505050565b604080518082019091526060815260006020820152836020015183106115475761154784856020015160026114889190611c24565b835180516020858301018481535080851415611564576001810182525b5093949350505050565b60408051808201909152606081526000602082015260208501516115928584611c0c565b11156115a6576115a68561147d8685611c0c565b600060016115b684610100611e08565b6115c09190611d0d565b90508551838682010185831982511617815250805184870111156115e45783860181525b509495945050505050565b6000818311156116005750816112d5565b50919050565b81516116128383611270565b506112f683826113af565b82805461162990611a71565b90600052602060002090601f01602090048101928261164b5760008555611691565b82601f1061166457805160ff1916838001178555611691565b82800160010185558215611691579182015b82811115611691578251825591602001919060010190611676565b5061169d9291506116dc565b5090565b6040805160a0810182526000808252602080830182905282840182905260608084018390528451808601909552845283015290608082015290565b5b8082111561169d57600081556001016116dd565b6000806040838503121561170457600080fd5b50508035926020909101359150565b634e487b7160e01b600052604160045260246000fd5b604051601f8201601f1916810167ffffffffffffffff8111828210171561175257611752611713565b604052919050565b600067ffffffffffffffff82111561177457611774611713565b50601f01601f191660200190565b600082601f83011261179357600080fd5b81356117a66117a18261175a565b611729565b8181528460208386010111156117bb57600080fd5b816020850160208301376000918101602001919091529392505050565b6000602082840312156117ea57600080fd5b813567ffffffffffffffff81111561180157600080fd5b610fb684828501611782565b80356001600160a01b038116811461182457600080fd5b919050565b600080600080600080600080610100898b03121561184657600080fd5b61184f8961180d565b975061185d60208a0161180d565b9650604089013567ffffffffffffffff8082111561187a57600080fd5b6118868c838d01611782565b975060608b0135965060808b01359150808211156118a357600080fd5b506118b08b828c01611782565b9450506118bf60a08a0161180d565b925060c0890135915060e089013590509295985092959890939650565b60005b838110156118f75781810151838201526020016118df565b838111156112f65750506000910152565b600081518084526119208160208601602086016118dc565b601f01601f19169290920160200192915050565b634e487b7160e01b600052602160045260246000fd5b60006101208b83528060208401526119648184018c611908565b604084018b90526001600160a01b038a811660608601528916608085015287151560a085015283810360c0850152905061199e8187611908565b905082810360e08401526119b28186611908565b915050600583106119d357634e487b7160e01b600052602160045260246000fd5b826101008301529a9950505050505050505050565b6000602082840312156119fa57600080fd5b6113d68261180d565b600060208284031215611a1557600080fd5b815167ffffffffffffffff811115611a2c57600080fd5b8201601f81018413611a3d57600080fd5b8051611a4b6117a18261175a565b818152856020838501011115611a6057600080fd5b610f788260208301602086016118dc565b600181811c90821680611a8557607f821691505b6020821081141561160057634e487b7160e01b600052602260045260246000fd5b604081526000611ab96040830184611908565b8281036020840152600981526811195b1a5d995c995960ba1b60208201526040810191505092915050565b600060208284031215611af657600080fd5b815180151581146113d657600080fd5b6020808252818101527f4f776e61626c653a2063616c6c6572206973206e6f7420746865206f776e6572604082015260600190565b6020815260006113d66020830184611908565b600060208083526000845481600182811c915080831680611b7057607f831692505b858310811415611b8e57634e487b7160e01b85526022600452602485fd5b878601838152602001818015611bab5760018114611bbc57611be7565b60ff19861682528782019650611be7565b60008b81526020902060005b86811015611be157815484820152908501908901611bc8565b83019750505b50949998505050505050505050565b634e487b7160e01b600052601160045260246000fd5b60008219821115611c1f57611c1f611bf6565b500190565b6000816000190483118215151615611c3e57611c3e611bf6565b500290565b600060208284031215611c5557600080fd5b5051919050565b6001600160a01b0389811682526020820189905260408201889052861660608201526001600160e01b03198516608082015260a0810184905260c0810183905261010060e08201819052600090611cb583820185611908565b9b9a5050505050505050505050565b60018060a01b0384168152826020820152606060408201526000610f786060830184611908565b600082611d0857634e487b7160e01b600052601260045260246000fd5b500690565b600082821015611d1f57611d1f611bf6565b500390565b600181815b80851115611d5f578160001904821115611d4557611d45611bf6565b80851615611d5257918102915b93841c9390800290611d29565b509250929050565b600082611d76575060016112d5565b81611d83575060006112d5565b8160018114611d995760028114611da357611dbf565b60019150506112d5565b60ff841115611db457611db4611bf6565b50506001821b6112d5565b5060208310610133831016604e8410600b8410161715611de2575081810a6112d5565b611dec8383611d24565b8060001904821115611e0057611e00611bf6565b029392505050565b60006113d68383611d6756fea2646970667358221220b07d01f78fec4b928ae2fd6969f1ddeda03bbe960c60239cd81178e2c53a208364736f6c63430008090033a2646970667358221220be59f859da816d42083ff95891adf4e3c5b1af49d0b9a3090062dc53c56b1f4464736f6c63430008090033","language":"Solidity","natspec":{"kind":"dev","methods":{"owner()":{"details":"Returns the address of the current owner."},"renounceOwnership()":{"details":"Leaves the contract without owner. It will not be possible to call `onlyOwner` functions anymore. Can only be called by the current owner. NOTE: Renouncing ownership will leave the contract without an owner, thereby removing any functionality that is only available to the owner."},"transferOwnership(address)":{"details":"Transfers ownership of the contract to a new account (`newOwner`). Can only be called by the current owner."}},"version":1},"opcodes":"PUSH1 0x80 PUSH1 0x40 MSTORE CALLVALUE DUP1 ISZERO PUSH2 0x10 JUMPI PUSH1 0x0 DUP1 REVERT JUMPDEST POP PUSH1 0x4 CALLDATASIZE LT PUSH2 0x88 JUMPI PUSH1 0x0 CALLDATALOAD PUSH1 0xE0 SHR DUP1 PUSH4 0x7BF12B1C GT PUSH2 0x5B JUMPI DUP1 PUSH4 0x7BF12B1C EQ PUSH2 0x107 JUMPI DUP1 PUSH4 0x8DA5CB5B EQ PUSH2 0x11A JUMPI DUP1 PUSH4 0xE0F6EF87 EQ PUSH2 0x12B JUMPI DUP1 PUSH4 0xF2FDE38B EQ PUSH2 0x134 JUMPI PUSH1 0x0 DUP1 REVERT JUMPDEST DUP1 PUSH4 0x4B1D29B4 EQ PUSH2 0x8D JUMPI DUP1 PUSH4 0x55889D01 EQ PUSH2 0xA9 JUMPI DUP1 PUSH4 0x715018A6 EQ PUSH2 0xBE JUMPI DUP1 PUSH4 0x7ACC0B20 EQ PUSH2 0xC6 JUMPI JUMPDEST PUSH1 0x0 DUP1 REVERT JUMPDEST PUSH2 0x96 PUSH1 0x4 SLOAD DUP2 JUMP JUMPDEST PUSH1 0x40 MLOAD SWAP1 DUP2 MSTORE PUSH1 0x20 ADD JUMPDEST PUSH1 0x40 MLOAD DUP1 SWAP2 SUB SWAP1 RETURN JUMPDEST PUSH2 0xBC PUSH2 0xB7 CALLDATASIZE PUSH1 0x4 PUSH2 0x438 JUMP JUMPDEST PUSH2 0x147 JUMP JUMPDEST STOP JUMPDEST PUSH2 0xBC PUSH2 0x17F JUMP JUMPDEST PUSH2 0xEF PUSH2 0xD4 CALLDATASIZE PUSH1 0x4 PUSH2 0x438 JUMP JUMPDEST PUSH1 0x6 PUSH1 0x20 MSTORE PUSH1 0x0 SWAP1 DUP2 MSTORE PUSH1 0x40 SWAP1 KECCAK256 SLOAD PUSH1 0x1 PUSH1 0x1 PUSH1 0xA0 SHL SUB AND DUP2 JUMP JUMPDEST PUSH1 0x40 MLOAD PUSH1 0x1 PUSH1 0x1 PUSH1 0xA0 SHL SUB SWAP1 SWAP2 AND DUP2 MSTORE PUSH1 0x20 ADD PUSH2 0xA0 JUMP JUMPDEST PUSH2 0xBC PUSH2 0x115 CALLDATASIZE PUSH1 0x4 PUSH2 0x467 JUMP JUMPDEST PUSH2 0x1B5 JUMP JUMPDEST PUSH1 0x0 SLOAD PUSH1 0x1 PUSH1 0x1 PUSH1 0xA0 SHL SUB AND PUSH2 0xEF JUMP JUMPDEST PUSH2 0x96 PUSH1 0x5 SLOAD DUP2 JUMP JUMPDEST PUSH2 0xBC PUSH2 0x142 CALLDATASIZE PUSH1 0x4 PUSH2 0x52B JUMP JUMPDEST PUSH2 0x340 JUMP JUMPDEST PUSH1 0x0 SLOAD PUSH1 0x1 PUSH1 0x1 PUSH1 0xA0 SHL SUB AND CALLER EQ PUSH2 0x17A JUMPI PUSH1 0x40 MLOAD PUSH3 0x461BCD PUSH1 0xE5 SHL DUP2 MSTORE PUSH1 0x4 ADD PUSH2 0x171 SWAP1 PUSH2 0x55B JUMP JUMPDEST PUSH1 0x40 MLOAD DUP1 SWAP2 SUB SWAP1 REVERT JUMPDEST PUSH1 0x4 SSTORE JUMP JUMPDEST PUSH1 0x0 SLOAD PUSH1 0x1 PUSH1 0x1 PUSH1 0xA0 SHL SUB AND CALLER EQ PUSH2 0x1A9 JUMPI PUSH1 0x40 MLOAD PUSH3 0x461BCD PUSH1 0xE5 SHL DUP2 MSTORE PUSH1 0x4 ADD PUSH2 0x171 SWAP1 PUSH2 0x55B JUMP JUMPDEST PUSH2 0x1B3 PUSH1 0x0 PUSH2 0x3DB JUMP JUMPDEST JUMP JUMPDEST PUSH1 0x4 SLOAD DUP2 SWAP1 DUP2 GT ISZERO PUSH2 0x1C6 JUMPI POP PUSH1 0x4 SLOAD JUMPDEST PUSH1 0x5 SLOAD PUSH1 0x1 SLOAD PUSH1 0x2 SLOAD PUSH1 0x40 MLOAD PUSH1 0x0 SWAP3 PUSH2 0x1FD SWAP3 PUSH1 0x1 PUSH1 0x1 PUSH1 0xA0 SHL SUB SWAP2 DUP3 AND SWAP3 SWAP2 AND SWAP1 PUSH1 0x3 SWAP1 DUP7 SWAP1 DUP12 SWAP1 CALLER SWAP1 DUP13 SWAP1 DUP12 SWAP1 PUSH1 0x20 ADD PUSH2 0x617 JUMP JUMPDEST PUSH1 0x40 MLOAD PUSH1 0x20 DUP2 DUP4 SUB SUB DUP2 MSTORE SWAP1 PUSH1 0x40 MSTORE DUP1 MLOAD SWAP1 PUSH1 0x20 ADD KECCAK256 SWAP1 POP PUSH1 0x0 DUP2 PUSH1 0x40 MLOAD PUSH2 0x224 SWAP1 PUSH2 0x42B JUMP JUMPDEST DUP2 SWAP1 PUSH1 0x40 MLOAD DUP1 SWAP2 SUB SWAP1 PUSH1 0x0 CREATE2 SWAP1 POP DUP1 ISZERO DUP1 ISZERO PUSH2 0x244 JUMPI RETURNDATASIZE PUSH1 0x0 DUP1 RETURNDATACOPY RETURNDATASIZE PUSH1 0x0 REVERT JUMPDEST POP PUSH1 0x1 SLOAD PUSH1 0x2 SLOAD PUSH1 0x40 MLOAD PUSH4 0x6F211313 PUSH1 0xE0 SHL DUP2 MSTORE SWAP3 SWAP4 POP PUSH1 0x1 PUSH1 0x1 PUSH1 0xA0 SHL SUB DUP1 DUP6 AND SWAP4 PUSH4 0x6F211313 SWAP4 PUSH2 0x28C SWAP4 SWAP1 DUP4 AND SWAP3 AND SWAP1 PUSH1 0x3 SWAP1 DUP10 SWAP1 DUP15 SWAP1 CALLER SWAP1 DUP16 SWAP1 DUP15 SWAP1 PUSH1 0x4 ADD PUSH2 0x724 JUMP JUMPDEST PUSH1 0x0 PUSH1 0x40 MLOAD DUP1 DUP4 SUB DUP2 PUSH1 0x0 DUP8 DUP1 EXTCODESIZE ISZERO DUP1 ISZERO PUSH2 0x2A6 JUMPI PUSH1 0x0 DUP1 REVERT JUMPDEST POP GAS CALL ISZERO DUP1 ISZERO PUSH2 0x2BA JUMPI RETURNDATASIZE PUSH1 0x0 DUP1 RETURNDATACOPY RETURNDATASIZE PUSH1 0x0 REVERT JUMPDEST POP POP PUSH1 0x5 DUP1 SLOAD SWAP3 POP SWAP1 POP PUSH1 0x0 PUSH2 0x2CF DUP4 PUSH2 0x807 JUMP JUMPDEST SWAP1 SWAP2 SSTORE POP POP PUSH1 0x5 SLOAD PUSH1 0x0 SWAP1 DUP2 MSTORE PUSH1 0x6 PUSH1 0x20 SWAP1 DUP2 MSTORE PUSH1 0x40 SWAP2 DUP3 SWAP1 KECCAK256 DUP1 SLOAD PUSH1 0x1 PUSH1 0x1 PUSH1 0xA0 SHL SUB NOT AND PUSH1 0x1 PUSH1 0x1 PUSH1 0xA0 SHL SUB DUP6 AND SWAP1 DUP2 OR SWAP1 SWAP2 SSTORE SWAP2 MLOAD SWAP2 DUP3 MSTORE CALLER SWAP2 PUSH32 0xA66DF2AC9413442073C2E47B33E555F5891823DF7841196BD1F197175A12F8AE SWAP2 ADD PUSH1 0x40 MLOAD DUP1 SWAP2 SUB SWAP1 LOG2 POP POP POP POP POP POP POP JUMP JUMPDEST PUSH1 0x0 SLOAD PUSH1 0x1 PUSH1 0x1 PUSH1 0xA0 SHL SUB AND CALLER EQ PUSH2 0x36A JUMPI PUSH1 0x40 MLOAD PUSH3 0x461BCD PUSH1 0xE5 SHL DUP2 MSTORE PUSH1 0x4 ADD PUSH2 0x171 SWAP1 PUSH2 0x55B JUMP JUMPDEST PUSH1 0x1 PUSH1 0x1 PUSH1 0xA0 SHL SUB DUP2 AND PUSH2 0x3CF JUMPI PUSH1 0x40 MLOAD PUSH3 0x461BCD PUSH1 0xE5 SHL DUP2 MSTORE PUSH1 0x20 PUSH1 0x4 DUP3 ADD MSTORE PUSH1 0x26 PUSH1 0x24 DUP3 ADD MSTORE PUSH32 0x4F776E61626C653A206E6577206F776E657220697320746865207A65726F2061 PUSH1 0x44 DUP3 ADD MSTORE PUSH6 0x646472657373 PUSH1 0xD0 SHL PUSH1 0x64 DUP3 ADD MSTORE PUSH1 0x84 ADD PUSH2 0x171 JUMP JUMPDEST PUSH2 0x3D8 DUP2 PUSH2 0x3DB JUMP JUMPDEST POP JUMP JUMPDEST PUSH1 0x0 DUP1 SLOAD PUSH1 0x1 PUSH1 0x1 PUSH1 0xA0 SHL SUB DUP4 DUP2 AND PUSH1 0x1 PUSH1 0x1 PUSH1 0xA0 SHL SUB NOT DUP4 AND DUP2 OR DUP5 SSTORE PUSH1 0x40 MLOAD SWAP2 SWAP1 SWAP3 AND SWAP3 DUP4 SWAP2 PUSH32 0x8BE0079C531659141344CD1FD0A4F28419497F9722A3DAAFE3B4186F6B6457E0 SWAP2 SWAP1 LOG3 POP POP JUMP JUMPDEST PUSH2 0x1EE1 DUP1 PUSH2 0x831 DUP4 CODECOPY ADD SWAP1 JUMP JUMPDEST PUSH1 0x0 PUSH1 0x20 DUP3 DUP5 SUB SLT ISZERO PUSH2 0x44A JUMPI PUSH1 0x0 DUP1 REVERT JUMPDEST POP CALLDATALOAD SWAP2 SWAP1 POP JUMP JUMPDEST PUSH4 0x4E487B71 PUSH1 0xE0 SHL PUSH1 0x0 MSTORE PUSH1 0x41 PUSH1 0x4 MSTORE PUSH1 0x24 PUSH1 0x0 REVERT JUMPDEST PUSH1 0x0 DUP1 PUSH1 0x0 PUSH1 0x60 DUP5 DUP7 SUB SLT ISZERO PUSH2 0x47C JUMPI PUSH1 0x0 DUP1 REVERT JUMPDEST DUP4 CALLDATALOAD PUSH8 0xFFFFFFFFFFFFFFFF DUP1 DUP3 GT ISZERO PUSH2 0x494 JUMPI PUSH1 0x0 DUP1 REVERT JUMPDEST DUP2 DUP7 ADD SWAP2 POP DUP7 PUSH1 0x1F DUP4 ADD SLT PUSH2 0x4A8 JUMPI PUSH1 0x0 DUP1 REVERT JUMPDEST DUP2 CALLDATALOAD DUP2 DUP2 GT ISZERO PUSH2 0x4BA JUMPI PUSH2 0x4BA PUSH2 0x451 JUMP JUMPDEST PUSH1 0x40 MLOAD PUSH1 0x1F DUP3 ADD PUSH1 0x1F NOT SWAP1 DUP2 AND PUSH1 0x3F ADD AND DUP2 ADD SWAP1 DUP4 DUP3 GT DUP2 DUP4 LT OR ISZERO PUSH2 0x4E2 JUMPI PUSH2 0x4E2 PUSH2 0x451 JUMP JUMPDEST DUP2 PUSH1 0x40 MSTORE DUP3 DUP2 MSTORE DUP10 PUSH1 0x20 DUP5 DUP8 ADD ADD GT ISZERO PUSH2 0x4FB JUMPI PUSH1 0x0 DUP1 REVERT JUMPDEST DUP3 PUSH1 0x20 DUP7 ADD PUSH1 0x20 DUP4 ADD CALLDATACOPY PUSH1 0x0 PUSH1 0x20 DUP5 DUP4 ADD ADD MSTORE DUP1 SWAP8 POP POP POP POP POP POP PUSH1 0x20 DUP5 ADD CALLDATALOAD SWAP2 POP PUSH1 0x40 DUP5 ADD CALLDATALOAD SWAP1 POP SWAP3 POP SWAP3 POP SWAP3 JUMP JUMPDEST PUSH1 0x0 PUSH1 0x20 DUP3 DUP5 SUB SLT ISZERO PUSH2 0x53D JUMPI PUSH1 0x0 DUP1 REVERT JUMPDEST DUP2 CALLDATALOAD PUSH1 0x1 PUSH1 0x1 PUSH1 0xA0 SHL SUB DUP2 AND DUP2 EQ PUSH2 0x554 JUMPI PUSH1 0x0 DUP1 REVERT JUMPDEST SWAP4 SWAP3 POP POP POP JUMP JUMPDEST PUSH1 0x20 DUP1 DUP3 MSTORE DUP2 DUP2 ADD MSTORE PUSH32 0x4F776E61626C653A2063616C6C6572206973206E6F7420746865206F776E6572 PUSH1 0x40 DUP3 ADD MSTORE PUSH1 0x60 ADD SWAP1 JUMP JUMPDEST PUSH1 0x1 DUP2 DUP2 SHR SWAP1 DUP3 AND DUP1 PUSH2 0x5A4 JUMPI PUSH1 0x7F DUP3 AND SWAP2 POP JUMPDEST PUSH1 0x20 DUP3 LT DUP2 EQ ISZERO PUSH2 0x5C5 JUMPI PUSH4 0x4E487B71 PUSH1 0xE0 SHL PUSH1 0x0 MSTORE PUSH1 0x22 PUSH1 0x4 MSTORE PUSH1 0x24 PUSH1 0x0 REVERT JUMPDEST POP SWAP2 SWAP1 POP JUMP JUMPDEST PUSH1 0x0 JUMPDEST DUP4 DUP2 LT ISZERO PUSH2 0x5E6 JUMPI DUP2 DUP2 ADD MLOAD DUP4 DUP3 ADD MSTORE PUSH1 0x20 ADD PUSH2 0x5CE JUMP JUMPDEST DUP4 DUP2 GT ISZERO PUSH2 0x5F5 JUMPI PUSH1 0x0 DUP5 DUP5 ADD MSTORE JUMPDEST POP POP POP POP JUMP JUMPDEST PUSH1 0x0 DUP2 MLOAD PUSH2 0x60D DUP2 DUP6 PUSH1 0x20 DUP7 ADD PUSH2 0x5CB JUMP JUMPDEST SWAP3 SWAP1 SWAP3 ADD SWAP3 SWAP2 POP POP JUMP JUMPDEST PUSH1 0x0 PUSH12 0xFFFFFFFFFFFFFFFFFFFFFFFF NOT DUP1 DUP12 PUSH1 0x60 SHL AND DUP4 MSTORE DUP1 DUP11 PUSH1 0x60 SHL AND PUSH1 0x14 DUP5 ADD MSTORE POP PUSH1 0x28 PUSH1 0x0 DUP10 SLOAD PUSH2 0x64A DUP2 PUSH2 0x590 JUMP JUMPDEST PUSH1 0x1 DUP3 DUP2 AND DUP1 ISZERO PUSH2 0x662 JUMPI PUSH1 0x1 DUP2 EQ PUSH2 0x677 JUMPI PUSH2 0x6AA JUMP JUMPDEST PUSH1 0xFF NOT DUP5 AND DUP9 DUP8 ADD MSTORE DUP3 DUP9 ADD DUP7 ADD SWAP5 POP PUSH2 0x6AA JUMP JUMPDEST DUP14 PUSH1 0x0 MSTORE PUSH1 0x20 DUP1 PUSH1 0x0 KECCAK256 PUSH1 0x0 JUMPDEST DUP6 DUP2 LT ISZERO PUSH2 0x69F JUMPI DUP2 SLOAD DUP12 DUP3 ADD DUP11 ADD MSTORE SWAP1 DUP5 ADD SWAP1 DUP3 ADD PUSH2 0x684 JUMP JUMPDEST POP POP POP DUP6 DUP4 DUP10 ADD ADD SWAP5 POP JUMPDEST POP POP POP POP DUP9 DUP2 MSTORE PUSH2 0x6BE PUSH1 0x20 DUP3 ADD DUP10 PUSH2 0x5FB JUMP JUMPDEST SWAP2 POP POP PUSH2 0x6DC DUP2 DUP8 PUSH1 0x60 SHL PUSH12 0xFFFFFFFFFFFFFFFFFFFFFFFF NOT AND SWAP1 MSTORE JUMP JUMPDEST PUSH1 0x14 DUP2 ADD SWAP5 SWAP1 SWAP5 MSTORE POP POP PUSH1 0x34 DUP3 ADD MSTORE PUSH1 0x54 ADD SWAP7 SWAP6 POP POP POP POP POP POP JUMP JUMPDEST PUSH1 0x0 DUP2 MLOAD DUP1 DUP5 MSTORE PUSH2 0x710 DUP2 PUSH1 0x20 DUP7 ADD PUSH1 0x20 DUP7 ADD PUSH2 0x5CB JUMP JUMPDEST PUSH1 0x1F ADD PUSH1 0x1F NOT AND SWAP3 SWAP1 SWAP3 ADD PUSH1 0x20 ADD SWAP3 SWAP2 POP POP JUMP JUMPDEST PUSH1 0x1 PUSH1 0x1 PUSH1 0xA0 SHL SUB DUP10 DUP2 AND DUP3 MSTORE DUP9 AND PUSH1 0x20 DUP1 DUP4 ADD SWAP2 SWAP1 SWAP2 MSTORE PUSH2 0x100 PUSH1 0x40 DUP4 ADD DUP2 SWAP1 MSTORE DUP9 SLOAD PUSH1 0x0 SWAP3 DUP4 SWAP2 PUSH2 0x756 DUP2 PUSH2 0x590 JUMP JUMPDEST SWAP4 DUP7 ADD DUP5 SWAP1 MSTORE PUSH2 0x120 SWAP4 PUSH1 0x1 DUP3 DUP2 AND DUP1 ISZERO PUSH2 0x778 JUMPI PUSH1 0x1 DUP2 EQ PUSH2 0x78D JUMPI PUSH2 0x7BB JUMP JUMPDEST PUSH1 0xFF NOT DUP5 AND DUP10 DUP9 ADD MSTORE PUSH2 0x140 DUP10 ADD SWAP6 POP PUSH2 0x7BB JUMP JUMPDEST DUP15 PUSH1 0x0 MSTORE DUP5 PUSH1 0x0 KECCAK256 PUSH1 0x0 JUMPDEST DUP5 DUP2 LT ISZERO PUSH2 0x7B3 JUMPI DUP2 SLOAD DUP12 DUP3 ADD DUP11 ADD MSTORE SWAP1 DUP4 ADD SWAP1 DUP7 ADD PUSH2 0x798 JUMP JUMPDEST DUP11 ADD DUP9 ADD SWAP7 POP POP JUMPDEST POP POP POP POP POP DUP9 PUSH1 0x60 DUP6 ADD MSTORE DUP4 DUP2 SUB PUSH1 0x80 DUP6 ADD MSTORE PUSH2 0x7D8 DUP2 DUP10 PUSH2 0x6F8 JUMP JUMPDEST SWAP3 POP POP POP PUSH2 0x7F1 PUSH1 0xA0 DUP4 ADD DUP7 PUSH1 0x1 PUSH1 0x1 PUSH1 0xA0 SHL SUB AND SWAP1 MSTORE JUMP JUMPDEST PUSH1 0xC0 DUP3 ADD SWAP4 SWAP1 SWAP4 MSTORE PUSH1 0xE0 ADD MSTORE SWAP7 SWAP6 POP POP POP POP POP POP JUMP JUMPDEST PUSH1 0x0 PUSH1 0x0 NOT DUP3 EQ ISZERO PUSH2 0x829 JUMPI PUSH4 0x4E487B71 PUSH1 0xE0 SHL PUSH1 0x0 MSTORE PUSH1 0x11 PUSH1 0x4 MSTORE PUSH1 0x24 PUSH1 0x0 REVERT JUMPDEST POP PUSH1 0x1 ADD SWAP1 JUMP INVALID PUSH1 0x80 PUSH1 0x40 MSTORE PUSH1 0x1 PUSH1 0x4 SSTORE CALLVALUE DUP1 ISZERO PUSH2 0x15 JUMPI PUSH1 0x0 DUP1 REVERT JUMPDEST POP PUSH2 0x1F CALLER PUSH2 0x36 JUMP JUMPDEST PUSH1 0x9 DUP1 SLOAD PUSH1 0x1 PUSH1 0x1 PUSH1 0xA0 SHL SUB NOT AND CALLER OR SWAP1 SSTORE PUSH2 0x88 JUMP JUMPDEST PUSH1 0x6 DUP1 SLOAD PUSH1 0x1 PUSH1 0x1 PUSH1 0xA0 SHL SUB DUP4 DUP2 AND PUSH1 0x1 PUSH1 0x1 PUSH1 0xA0 SHL SUB NOT DUP4 AND DUP2 OR SWAP1 SWAP4 SSTORE PUSH1 0x40 MLOAD SWAP2 AND SWAP2 SWAP1 DUP3 SWAP1 PUSH32 0x8BE0079C531659141344CD1FD0A4F28419497F9722A3DAAFE3B4186F6B6457E0 SWAP1 PUSH1 0x0 SWAP1 LOG3 POP POP JUMP JUMPDEST PUSH2 0x1E4A DUP1 PUSH2 0x97 PUSH1 0x0 CODECOPY PUSH1 0x0 RETURN INVALID PUSH1 0x80 PUSH1 0x40 MSTORE PUSH1 0x4 CALLDATASIZE LT PUSH2 0xC2 JUMPI PUSH1 0x0 CALLDATALOAD PUSH1 0xE0 SHR DUP1 PUSH4 0x6F211313 GT PUSH2 0x7F JUMPI DUP1 PUSH4 0xBF15071D GT PUSH2 0x59 JUMPI DUP1 PUSH4 0xBF15071D EQ PUSH2 0x1CE JUMPI DUP1 PUSH4 0xBF9CE952 EQ PUSH2 0x1D6 JUMPI DUP1 PUSH4 0xE12ED13C EQ PUSH2 0x200 JUMPI DUP1 PUSH4 0xF2FDE38B EQ PUSH2 0x216 JUMPI PUSH1 0x0 DUP1 REVERT JUMPDEST DUP1 PUSH4 0x6F211313 EQ PUSH2 0x171 JUMPI DUP1 PUSH4 0x715018A6 EQ PUSH2 0x191 JUMPI DUP1 PUSH4 0x8DA5CB5B EQ PUSH2 0x1A6 JUMPI PUSH1 0x0 DUP1 REVERT JUMPDEST DUP1 PUSH4 0x9D99F67 EQ PUSH2 0xC7 JUMPI DUP1 PUSH4 0x366E8E52 EQ PUSH2 0xE9 JUMPI DUP1 PUSH4 0x3FD8B02F EQ PUSH2 0xFE JUMPI DUP1 PUSH4 0x50737055 EQ PUSH2 0x127 JUMPI DUP1 PUSH4 0x6A816548 EQ PUSH2 0x147 JUMPI DUP1 PUSH4 0x6B827CD4 EQ PUSH2 0x15C JUMPI JUMPDEST PUSH1 0x0 DUP1 REVERT JUMPDEST CALLVALUE DUP1 ISZERO PUSH2 0xD3 JUMPI PUSH1 0x0 DUP1 REVERT JUMPDEST POP PUSH2 0xE7 PUSH2 0xE2 CALLDATASIZE PUSH1 0x4 PUSH2 0x16F1 JUMP JUMPDEST PUSH2 0x236 JUMP JUMPDEST STOP JUMPDEST CALLVALUE DUP1 ISZERO PUSH2 0xF5 JUMPI PUSH1 0x0 DUP1 REVERT JUMPDEST POP PUSH2 0xE7 PUSH2 0x524 JUMP JUMPDEST CALLVALUE DUP1 ISZERO PUSH2 0x10A JUMPI PUSH1 0x0 DUP1 REVERT JUMPDEST POP PUSH2 0x114 PUSH1 0xA SLOAD DUP2 JUMP JUMPDEST PUSH1 0x40 MLOAD SWAP1 DUP2 MSTORE PUSH1 0x20 ADD JUMPDEST PUSH1 0x40 MLOAD DUP1 SWAP2 SUB SWAP1 RETURN JUMPDEST CALLVALUE DUP1 ISZERO PUSH2 0x133 JUMPI PUSH1 0x0 DUP1 REVERT JUMPDEST POP PUSH2 0xE7 PUSH2 0x142 CALLDATASIZE PUSH1 0x4 PUSH2 0x17D8 JUMP JUMPDEST PUSH2 0x5E9 JUMP JUMPDEST CALLVALUE DUP1 ISZERO PUSH2 0x153 JUMPI PUSH1 0x0 DUP1 REVERT JUMPDEST POP PUSH2 0xE7 PUSH2 0x6C5 JUMP JUMPDEST CALLVALUE DUP1 ISZERO PUSH2 0x168 JUMPI PUSH1 0x0 DUP1 REVERT JUMPDEST POP PUSH2 0xE7 PUSH2 0x848 JUMP JUMPDEST CALLVALUE DUP1 ISZERO PUSH2 0x17D JUMPI PUSH1 0x0 DUP1 REVERT JUMPDEST POP PUSH2 0xE7 PUSH2 0x18C CALLDATASIZE PUSH1 0x4 PUSH2 0x1829 JUMP JUMPDEST PUSH2 0x9E4 JUMP JUMPDEST CALLVALUE DUP1 ISZERO PUSH2 0x19D JUMPI PUSH1 0x0 DUP1 REVERT JUMPDEST POP PUSH2 0xE7 PUSH2 0xB47 JUMP JUMPDEST CALLVALUE DUP1 ISZERO PUSH2 0x1B2 JUMPI PUSH1 0x0 DUP1 REVERT JUMPDEST POP PUSH1 0x6 SLOAD PUSH1 0x40 MLOAD PUSH1 0x1 PUSH1 0x1 PUSH1 0xA0 SHL SUB SWAP1 SWAP2 AND DUP2 MSTORE PUSH1 0x20 ADD PUSH2 0x11E JUMP JUMPDEST PUSH2 0xE7 PUSH2 0xB7D JUMP JUMPDEST CALLVALUE DUP1 ISZERO PUSH2 0x1E2 JUMPI PUSH1 0x0 DUP1 REVERT JUMPDEST POP PUSH2 0x1EB PUSH2 0xCD7 JUMP JUMPDEST PUSH1 0x40 MLOAD PUSH2 0x11E SWAP10 SWAP9 SWAP8 SWAP7 SWAP6 SWAP5 SWAP4 SWAP3 SWAP2 SWAP1 PUSH2 0x194A JUMP JUMPDEST CALLVALUE DUP1 ISZERO PUSH2 0x20C JUMPI PUSH1 0x0 DUP1 REVERT JUMPDEST POP PUSH2 0x114 PUSH1 0xB SLOAD DUP2 JUMP JUMPDEST CALLVALUE DUP1 ISZERO PUSH2 0x222 JUMPI PUSH1 0x0 DUP1 REVERT JUMPDEST POP PUSH2 0xE7 PUSH2 0x231 CALLDATASIZE PUSH1 0x4 PUSH2 0x19E8 JUMP JUMPDEST PUSH2 0xEC1 JUMP JUMPDEST PUSH1 0x0 DUP3 DUP2 MSTORE PUSH1 0x5 PUSH1 0x20 MSTORE PUSH1 0x40 SWAP1 KECCAK256 SLOAD DUP3 SWAP1 PUSH1 0x1 PUSH1 0x1 PUSH1 0xA0 SHL SUB AND CALLER EQ PUSH2 0x2B4 JUMPI PUSH1 0x40 MLOAD PUSH3 0x461BCD PUSH1 0xE5 SHL DUP2 MSTORE PUSH1 0x20 PUSH1 0x4 DUP3 ADD MSTORE PUSH1 0x28 PUSH1 0x24 DUP3 ADD MSTORE PUSH32 0x536F75726365206D75737420626520746865206F7261636C65206F6620746865 PUSH1 0x44 DUP3 ADD MSTORE PUSH8 0x81C995C5D595CDD PUSH1 0xC2 SHL PUSH1 0x64 DUP3 ADD MSTORE PUSH1 0x84 ADD JUMPDEST PUSH1 0x40 MLOAD DUP1 SWAP2 SUB SWAP1 REVERT JUMPDEST PUSH1 0x0 DUP2 DUP2 MSTORE PUSH1 0x5 PUSH1 0x20 MSTORE PUSH1 0x40 DUP1 DUP3 KECCAK256 DUP1 SLOAD PUSH1 0x1 PUSH1 0x1 PUSH1 0xA0 SHL SUB NOT AND SWAP1 SSTORE MLOAD DUP3 SWAP2 PUSH32 0x7CC135E0CEBB02C3480AE5D74D377283180A2601F8F644EDF7987B009316C63A SWAP2 LOG2 PUSH1 0x40 MLOAD PUSH4 0x9201DE55 PUSH1 0xE0 SHL DUP2 MSTORE PUSH1 0x4 DUP2 ADD DUP4 SWAP1 MSTORE PUSH20 0x0 SWAP1 PUSH4 0x9201DE55 SWAP1 PUSH1 0x24 ADD PUSH1 0x0 PUSH1 0x40 MLOAD DUP1 DUP4 SUB DUP2 DUP7 DUP1 EXTCODESIZE ISZERO DUP1 ISZERO PUSH2 0x342 JUMPI PUSH1 0x0 DUP1 REVERT JUMPDEST POP GAS DELEGATECALL ISZERO DUP1 ISZERO PUSH2 0x356 JUMPI RETURNDATASIZE PUSH1 0x0 DUP1 RETURNDATACOPY RETURNDATASIZE PUSH1 0x0 REVERT JUMPDEST POP POP POP POP PUSH1 0x40 MLOAD RETURNDATASIZE PUSH1 0x0 DUP3 RETURNDATACOPY PUSH1 0x1F RETURNDATASIZE SWAP1 DUP2 ADD PUSH1 0x1F NOT AND DUP3 ADD PUSH1 0x40 MSTORE PUSH2 0x37E SWAP2 SWAP1 DUP2 ADD SWAP1 PUSH2 0x1A03 JUMP JUMPDEST DUP1 MLOAD PUSH2 0x392 SWAP2 PUSH1 0x12 SWAP2 PUSH1 0x20 SWAP1 SWAP2 ADD SWAP1 PUSH2 0x161D JUMP JUMPDEST POP PUSH1 0x12 DUP1 SLOAD PUSH2 0x3A0 SWAP1 PUSH2 0x1A71 JUMP JUMPDEST DUP1 PUSH1 0x1F ADD PUSH1 0x20 DUP1 SWAP2 DIV MUL PUSH1 0x20 ADD PUSH1 0x40 MLOAD SWAP1 DUP2 ADD PUSH1 0x40 MSTORE DUP1 SWAP3 SWAP2 SWAP1 DUP2 DUP2 MSTORE PUSH1 0x20 ADD DUP3 DUP1 SLOAD PUSH2 0x3CC SWAP1 PUSH2 0x1A71 JUMP JUMPDEST DUP1 ISZERO PUSH2 0x419 JUMPI DUP1 PUSH1 0x1F LT PUSH2 0x3EE JUMPI PUSH2 0x100 DUP1 DUP4 SLOAD DIV MUL DUP4 MSTORE SWAP2 PUSH1 0x20 ADD SWAP2 PUSH2 0x419 JUMP JUMPDEST DUP3 ADD SWAP2 SWAP1 PUSH1 0x0 MSTORE PUSH1 0x20 PUSH1 0x0 KECCAK256 SWAP1 JUMPDEST DUP2 SLOAD DUP2 MSTORE SWAP1 PUSH1 0x1 ADD SWAP1 PUSH1 0x20 ADD DUP1 DUP4 GT PUSH2 0x3FC JUMPI DUP3 SWAP1 SUB PUSH1 0x1F AND DUP3 ADD SWAP2 JUMPDEST POP POP PUSH1 0x40 MLOAD PUSH4 0x5F69A5DD PUSH1 0xE1 SHL DUP2 MSTORE PUSH20 0x0 SWAP5 PUSH4 0xBED34BBA SWAP5 POP PUSH2 0x454 SWAP4 POP SWAP2 POP PUSH1 0x4 ADD PUSH2 0x1AA6 JUMP JUMPDEST PUSH1 0x20 PUSH1 0x40 MLOAD DUP1 DUP4 SUB DUP2 DUP7 DUP1 EXTCODESIZE ISZERO DUP1 ISZERO PUSH2 0x46C JUMPI PUSH1 0x0 DUP1 REVERT JUMPDEST POP GAS DELEGATECALL ISZERO DUP1 ISZERO PUSH2 0x480 JUMPI RETURNDATASIZE PUSH1 0x0 DUP1 RETURNDATACOPY RETURNDATASIZE PUSH1 0x0 REVERT JUMPDEST POP POP POP POP PUSH1 0x40 MLOAD RETURNDATASIZE PUSH1 0x1F NOT PUSH1 0x1F DUP3 ADD AND DUP3 ADD DUP1 PUSH1 0x40 MSTORE POP DUP2 ADD SWAP1 PUSH2 0x4A4 SWAP2 SWAP1 PUSH2 0x1AE4 JUMP JUMPDEST ISZERO PUSH2 0x4EF JUMPI PUSH1 0x13 DUP1 SLOAD PUSH1 0xFF NOT AND PUSH1 0x3 OR SWAP1 SSTORE PUSH1 0x40 MLOAD DUP3 DUP2 MSTORE PUSH32 0xAD84BC03FFC88D269C045288B6BD3D77F12F9EF79581B860C1538F4BD662F9EA SWAP1 PUSH1 0x20 ADD JUMPDEST PUSH1 0x40 MLOAD DUP1 SWAP2 SUB SWAP1 LOG1 POP POP POP JUMP JUMPDEST PUSH1 0x40 MLOAD DUP3 DUP2 MSTORE PUSH32 0x65FB20BADD0FCFD3BF3BA0CA9BFE4EC522640041A07DECD17F1BE1FB0EAD4F4A SWAP1 PUSH1 0x20 ADD PUSH2 0x4E2 JUMP JUMPDEST POP POP POP JUMP JUMPDEST PUSH1 0x6 SLOAD PUSH1 0x1 PUSH1 0x1 PUSH1 0xA0 SHL SUB AND CALLER EQ PUSH2 0x54E JUMPI PUSH1 0x40 MLOAD PUSH3 0x461BCD PUSH1 0xE5 SHL DUP2 MSTORE PUSH1 0x4 ADD PUSH2 0x2AB SWAP1 PUSH2 0x1B06 JUMP JUMPDEST PUSH1 0x40 DUP1 MLOAD DUP1 DUP3 ADD SWAP1 SWAP2 MSTORE PUSH1 0xD DUP2 MSTORE PUSH13 0x496E76616C6964205374616765 PUSH1 0x98 SHL PUSH1 0x20 DUP3 ADD MSTORE PUSH1 0x3 SWAP1 DUP2 PUSH1 0x13 SLOAD PUSH1 0xFF AND PUSH1 0x4 DUP2 GT ISZERO PUSH2 0x58D JUMPI PUSH2 0x58D PUSH2 0x1934 JUMP JUMPDEST EQ DUP2 SWAP1 PUSH2 0x5AD JUMPI PUSH1 0x40 MLOAD PUSH3 0x461BCD PUSH1 0xE5 SHL DUP2 MSTORE PUSH1 0x4 ADD PUSH2 0x2AB SWAP2 SWAP1 PUSH2 0x1B3B JUMP JUMPDEST POP PUSH1 0x13 DUP1 SLOAD PUSH1 0x4 PUSH1 0xFF NOT SWAP1 SWAP2 AND OR SWAP1 SSTORE PUSH1 0x40 MLOAD CALLER SWAP1 SELFBALANCE DUP1 ISZERO PUSH2 0x8FC MUL SWAP2 PUSH1 0x0 DUP2 DUP2 DUP2 DUP6 DUP9 DUP9 CALL SWAP4 POP POP POP POP ISZERO DUP1 ISZERO PUSH2 0x51F JUMPI RETURNDATASIZE PUSH1 0x0 DUP1 RETURNDATACOPY RETURNDATASIZE PUSH1 0x0 REVERT JUMPDEST PUSH1 0x6 SLOAD PUSH1 0x1 PUSH1 0x1 PUSH1 0xA0 SHL SUB AND CALLER EQ PUSH2 0x613 JUMPI PUSH1 0x40 MLOAD PUSH3 0x461BCD PUSH1 0xE5 SHL DUP2 MSTORE PUSH1 0x4 ADD PUSH2 0x2AB SWAP1 PUSH2 0x1B06 JUMP JUMPDEST PUSH1 0x40 DUP1 MLOAD DUP1 DUP3 ADD SWAP1 SWAP2 MSTORE PUSH1 0xD DUP2 MSTORE PUSH13 0x496E76616C6964205374616765 PUSH1 0x98 SHL PUSH1 0x20 DUP3 ADD MSTORE PUSH1 0x1 SWAP1 DUP2 PUSH1 0x13 SLOAD PUSH1 0xFF AND PUSH1 0x4 DUP2 GT ISZERO PUSH2 0x652 JUMPI PUSH2 0x652 PUSH2 0x1934 JUMP JUMPDEST EQ DUP2 SWAP1 PUSH2 0x672 JUMPI PUSH1 0x40 MLOAD PUSH3 0x461BCD PUSH1 0xE5 SHL DUP2 MSTORE PUSH1 0x4 ADD PUSH2 0x2AB SWAP2 SWAP1 PUSH2 0x1B3B JUMP JUMPDEST POP PUSH1 0x13 DUP1 SLOAD PUSH1 0xFF NOT AND PUSH1 0x2 OR SWAP1 SSTORE DUP3 MLOAD PUSH2 0x693 SWAP1 PUSH1 0x11 SWAP1 PUSH1 0x20 DUP7 ADD SWAP1 PUSH2 0x161D JUMP JUMPDEST POP PUSH1 0x40 MLOAD PUSH32 0x1862CF7A0E12BAC162F518F43C2F50DF187E89045899A7C015C1D61D9880A11B SWAP1 PUSH2 0x4E2 SWAP1 PUSH1 0x11 SWAP1 PUSH2 0x1B4E JUMP JUMPDEST PUSH1 0x10 SLOAD PUSH1 0x1 PUSH1 0x1 PUSH1 0xA0 SHL SUB AND CALLER EQ PUSH2 0x70C JUMPI PUSH1 0x40 MLOAD PUSH3 0x461BCD PUSH1 0xE5 SHL DUP2 MSTORE PUSH1 0x20 PUSH1 0x4 DUP3 ADD MSTORE PUSH1 0xA PUSH1 0x24 DUP3 ADD MSTORE PUSH10 0x27B7363C90213ABCB2B9 PUSH1 0xB1 SHL PUSH1 0x44 DUP3 ADD MSTORE PUSH1 0x64 ADD PUSH2 0x2AB JUMP JUMPDEST PUSH1 0x40 DUP1 MLOAD DUP1 DUP3 ADD SWAP1 SWAP2 MSTORE PUSH1 0x14 DUP2 MSTORE PUSH20 0x7368697070696E6720696E2070726F6772657373 PUSH1 0x60 SHL PUSH1 0x20 DUP3 ADD MSTORE PUSH1 0x1 SWAP1 DUP2 PUSH1 0x13 SLOAD PUSH1 0xFF AND PUSH1 0x4 DUP2 GT ISZERO PUSH2 0x752 JUMPI PUSH2 0x752 PUSH2 0x1934 JUMP JUMPDEST EQ DUP2 SWAP1 PUSH2 0x772 JUMPI PUSH1 0x40 MLOAD PUSH3 0x461BCD PUSH1 0xE5 SHL DUP2 MSTORE PUSH1 0x4 ADD PUSH2 0x2AB SWAP2 SWAP1 PUSH2 0x1B3B JUMP JUMPDEST POP PUSH1 0xA SLOAD PUSH1 0xB SLOAD PUSH2 0x783 SWAP2 SWAP1 PUSH2 0x1C0C JUMP JUMPDEST NUMBER LT ISZERO PUSH2 0x7D2 JUMPI PUSH1 0x40 MLOAD PUSH3 0x461BCD PUSH1 0xE5 SHL DUP2 MSTORE PUSH1 0x20 PUSH1 0x4 DUP3 ADD MSTORE PUSH1 0x1B PUSH1 0x24 DUP3 ADD MSTORE PUSH32 0x4E6F7420616C6C6F77656420746F2063616E63656C206F726465720000000000 PUSH1 0x44 DUP3 ADD MSTORE PUSH1 0x64 ADD PUSH2 0x2AB JUMP JUMPDEST PUSH1 0x10 DUP1 SLOAD PUSH1 0x1 PUSH1 0x1 PUSH1 0xA0 SHL SUB NOT AND SWAP1 SSTORE PUSH1 0x13 DUP1 SLOAD PUSH1 0xFF NOT AND SWAP1 SSTORE PUSH1 0x40 MLOAD CALLER SWAP1 SELFBALANCE DUP1 ISZERO PUSH2 0x8FC MUL SWAP2 PUSH1 0x0 DUP2 DUP2 DUP2 DUP6 DUP9 DUP9 CALL SWAP4 POP POP POP POP ISZERO DUP1 ISZERO PUSH2 0x818 JUMPI RETURNDATASIZE PUSH1 0x0 DUP1 RETURNDATACOPY RETURNDATASIZE PUSH1 0x0 REVERT JUMPDEST POP PUSH1 0x40 MLOAD CALLER SWAP1 PUSH32 0x393629F15E859A19530BAB9675F9D39F0F57889F19F883BC5BE3533C4A2C9EA8 SWAP1 PUSH1 0x0 SWAP1 LOG2 POP POP JUMP JUMPDEST PUSH1 0x40 DUP1 MLOAD DUP1 DUP3 ADD SWAP1 SWAP2 MSTORE PUSH1 0xD DUP2 MSTORE PUSH13 0x13995959081CDA1A5C1B595B9D PUSH1 0x9A SHL PUSH1 0x20 DUP3 ADD MSTORE PUSH1 0x2 SWAP1 DUP2 PUSH1 0x13 SLOAD PUSH1 0xFF AND PUSH1 0x4 DUP2 GT ISZERO PUSH2 0x887 JUMPI PUSH2 0x887 PUSH2 0x1934 JUMP JUMPDEST EQ DUP2 SWAP1 PUSH2 0x8A7 JUMPI PUSH1 0x40 MLOAD PUSH3 0x461BCD PUSH1 0xE5 SHL DUP2 MSTORE PUSH1 0x4 ADD PUSH2 0x2AB SWAP2 SWAP1 PUSH2 0x1B3B JUMP JUMPDEST POP PUSH1 0x0 PUSH2 0x8BE PUSH1 0x8 SLOAD ADDRESS PUSH4 0x9D99F67 PUSH1 0xE0 SHL PUSH2 0xF5C JUMP JUMPDEST SWAP1 POP PUSH2 0x984 PUSH1 0x40 MLOAD DUP1 PUSH1 0x40 ADD PUSH1 0x40 MSTORE DUP1 PUSH1 0xA DUP2 MSTORE PUSH1 0x20 ADD PUSH10 0x1D1C9858DADA5B99D259 PUSH1 0xB2 SHL DUP2 MSTORE POP PUSH1 0xC PUSH1 0x5 ADD DUP1 SLOAD PUSH2 0x8F6 SWAP1 PUSH2 0x1A71 JUMP JUMPDEST DUP1 PUSH1 0x1F ADD PUSH1 0x20 DUP1 SWAP2 DIV MUL PUSH1 0x20 ADD PUSH1 0x40 MLOAD SWAP1 DUP2 ADD PUSH1 0x40 MSTORE DUP1 SWAP3 SWAP2 SWAP1 DUP2 DUP2 MSTORE PUSH1 0x20 ADD DUP3 DUP1 SLOAD PUSH2 0x922 SWAP1 PUSH2 0x1A71 JUMP JUMPDEST DUP1 ISZERO PUSH2 0x96F JUMPI DUP1 PUSH1 0x1F LT PUSH2 0x944 JUMPI PUSH2 0x100 DUP1 DUP4 SLOAD DIV MUL DUP4 MSTORE SWAP2 PUSH1 0x20 ADD SWAP2 PUSH2 0x96F JUMP JUMPDEST DUP3 ADD SWAP2 SWAP1 PUSH1 0x0 MSTORE PUSH1 0x20 PUSH1 0x0 KECCAK256 SWAP1 JUMPDEST DUP2 SLOAD DUP2 MSTORE SWAP1 PUSH1 0x1 ADD SWAP1 PUSH1 0x20 ADD DUP1 DUP4 GT PUSH2 0x952 JUMPI DUP3 SWAP1 SUB PUSH1 0x1F AND DUP3 ADD SWAP2 JUMPDEST POP POP POP POP POP DUP4 PUSH2 0xF81 SWAP1 SWAP3 SWAP2 SWAP1 PUSH4 0xFFFFFFFF AND JUMP JUMPDEST PUSH1 0x7 SLOAD PUSH1 0x0 SWAP1 PUSH2 0x9B0 SWAP1 PUSH1 0x1 PUSH1 0x1 PUSH1 0xA0 SHL SUB AND DUP4 PUSH2 0x9AB PUSH8 0xDE0B6B3A7640000 PUSH1 0x1 PUSH2 0x1C24 JUMP JUMPDEST PUSH2 0xF9F JUMP JUMPDEST PUSH1 0x40 MLOAD SWAP1 SWAP2 POP DUP2 SWAP1 PUSH32 0xB5E6E01E79F91267DC17B4E6314D5D4D03593D2CEEE0FBB452B750BD70EA5AF9 SWAP1 PUSH1 0x0 SWAP1 LOG2 POP POP POP POP JUMP JUMPDEST PUSH1 0x9 SLOAD PUSH1 0x1 PUSH1 0x1 PUSH1 0xA0 SHL SUB AND CALLER EQ PUSH2 0xA2A JUMPI PUSH1 0x40 MLOAD PUSH3 0x461BCD PUSH1 0xE5 SHL DUP2 MSTORE PUSH1 0x20 PUSH1 0x4 DUP3 ADD MSTORE PUSH1 0x9 PUSH1 0x24 DUP3 ADD MSTORE PUSH9 0x2327A92124A22222A7 PUSH1 0xB9 SHL PUSH1 0x44 DUP3 ADD MSTORE PUSH1 0x64 ADD PUSH2 0x2AB JUMP JUMPDEST PUSH1 0x2 DUP1 SLOAD PUSH1 0x1 PUSH1 0x1 PUSH1 0xA0 SHL SUB NOT AND PUSH1 0x1 PUSH1 0x1 PUSH1 0xA0 SHL SUB DUP11 AND OR SWAP1 SSTORE PUSH2 0xA4E DUP4 PUSH2 0xEC1 JUMP JUMPDEST PUSH1 0x7 DUP1 SLOAD PUSH1 0x1 PUSH1 0x1 PUSH1 0xA0 SHL SUB NOT AND PUSH1 0x1 PUSH1 0x1 PUSH1 0xA0 SHL SUB DUP10 AND OR SWAP1 SSTORE PUSH1 0x40 MLOAD PUSH4 0x19F6A325 PUSH1 0xE3 SHL DUP2 MSTORE PUSH20 0x0 SWAP1 PUSH4 0xCFB51928 SWAP1 PUSH2 0xAA0 SWAP1 DUP10 SWAP1 PUSH1 0x4 ADD PUSH2 0x1B3B JUMP JUMPDEST PUSH1 0x20 PUSH1 0x40 MLOAD DUP1 DUP4 SUB DUP2 DUP7 DUP1 EXTCODESIZE ISZERO DUP1 ISZERO PUSH2 0xAB8 JUMPI PUSH1 0x0 DUP1 REVERT JUMPDEST POP GAS DELEGATECALL ISZERO DUP1 ISZERO PUSH2 0xACC JUMPI RETURNDATASIZE PUSH1 0x0 DUP1 RETURNDATACOPY RETURNDATASIZE PUSH1 0x0 REVERT JUMPDEST POP POP POP POP PUSH1 0x40 MLOAD RETURNDATASIZE PUSH1 0x1F NOT PUSH1 0x1F DUP3 ADD AND DUP3 ADD DUP1 PUSH1 0x40 MSTORE POP DUP2 ADD SWAP1 PUSH2 0xAF0 SWAP2 SWAP1 PUSH2 0x1C43 JUMP JUMPDEST PUSH1 0x8 SSTORE PUSH1 0xA DUP2 SWAP1 SSTORE PUSH1 0xC DUP6 SWAP1 SSTORE DUP4 MLOAD PUSH2 0xB10 SWAP1 PUSH1 0xD SWAP1 PUSH1 0x20 DUP8 ADD SWAP1 PUSH2 0x161D JUMP JUMPDEST POP POP PUSH1 0x13 DUP1 SLOAD PUSH1 0xFF NOT AND SWAP1 SSTORE PUSH1 0xF DUP1 SLOAD PUSH1 0x1 PUSH1 0x1 PUSH1 0xA0 SHL SUB NOT AND PUSH1 0x1 PUSH1 0x1 PUSH1 0xA0 SHL SUB SWAP4 SWAP1 SWAP4 AND SWAP3 SWAP1 SWAP3 OR SWAP1 SWAP2 SSTORE PUSH1 0xE SSTORE POP POP POP POP POP JUMP JUMPDEST PUSH1 0x6 SLOAD PUSH1 0x1 PUSH1 0x1 PUSH1 0xA0 SHL SUB AND CALLER EQ PUSH2 0xB71 JUMPI PUSH1 0x40 MLOAD PUSH3 0x461BCD PUSH1 0xE5 SHL DUP2 MSTORE PUSH1 0x4 ADD PUSH2 0x2AB SWAP1 PUSH2 0x1B06 JUMP JUMPDEST PUSH2 0xB7B PUSH1 0x0 PUSH2 0xFBE JUMP JUMPDEST JUMP JUMPDEST PUSH1 0x40 DUP1 MLOAD DUP1 DUP3 ADD SWAP1 SWAP2 MSTORE PUSH1 0x14 DUP2 MSTORE PUSH20 0x20B63932B0B23C903430BB32903090313ABCB2B9 PUSH1 0x61 SHL PUSH1 0x20 DUP3 ADD MSTORE PUSH1 0x0 SWAP1 DUP2 PUSH1 0x13 SLOAD PUSH1 0xFF AND PUSH1 0x4 DUP2 GT ISZERO PUSH2 0xBC3 JUMPI PUSH2 0xBC3 PUSH2 0x1934 JUMP JUMPDEST EQ DUP2 SWAP1 PUSH2 0xBE3 JUMPI PUSH1 0x40 MLOAD PUSH3 0x461BCD PUSH1 0xE5 SHL DUP2 MSTORE PUSH1 0x4 ADD PUSH2 0x2AB SWAP2 SWAP1 PUSH2 0x1B3B JUMP JUMPDEST POP PUSH1 0x6 SLOAD PUSH1 0x1 PUSH1 0x1 PUSH1 0xA0 SHL SUB AND CALLER EQ ISZERO PUSH2 0xC3F JUMPI PUSH1 0x40 MLOAD PUSH3 0x461BCD PUSH1 0xE5 SHL DUP2 MSTORE PUSH1 0x20 PUSH1 0x4 DUP3 ADD MSTORE PUSH1 0x1D PUSH1 0x24 DUP3 ADD MSTORE PUSH32 0x596F752063616E206E6F74206275792066726F6D20796F757273656C66000000 PUSH1 0x44 DUP3 ADD MSTORE PUSH1 0x64 ADD PUSH2 0x2AB JUMP JUMPDEST PUSH1 0xE SLOAD CALLVALUE LT ISZERO PUSH2 0xC83 JUMPI PUSH1 0x40 MLOAD PUSH3 0x461BCD PUSH1 0xE5 SHL DUP2 MSTORE PUSH1 0x20 PUSH1 0x4 DUP3 ADD MSTORE PUSH1 0xF PUSH1 0x24 DUP3 ADD MSTORE PUSH15 0x139BDD08195B9BDD59DA08199D5B99 PUSH1 0x8A SHL PUSH1 0x44 DUP3 ADD MSTORE PUSH1 0x64 ADD PUSH2 0x2AB JUMP JUMPDEST PUSH1 0x13 DUP1 SLOAD PUSH1 0xFF NOT AND PUSH1 0x1 OR SWAP1 SSTORE PUSH1 0x10 DUP1 SLOAD CALLER PUSH1 0x1 PUSH1 0x1 PUSH1 0xA0 SHL SUB NOT SWAP1 SWAP2 AND DUP2 OR SWAP1 SWAP2 SSTORE NUMBER PUSH1 0xB SSTORE PUSH1 0x40 MLOAD PUSH32 0xE4CAEAEF8E4F0C4880839CA47219351B38CF4116C082FD0BAEFC3008E4BA11A3 SWAP1 PUSH1 0x0 SWAP1 LOG2 POP POP JUMP JUMPDEST PUSH1 0xC DUP1 SLOAD PUSH1 0xD DUP1 SLOAD SWAP2 SWAP3 SWAP2 PUSH2 0xCEB SWAP1 PUSH2 0x1A71 JUMP JUMPDEST DUP1 PUSH1 0x1F ADD PUSH1 0x20 DUP1 SWAP2 DIV MUL PUSH1 0x20 ADD PUSH1 0x40 MLOAD SWAP1 DUP2 ADD PUSH1 0x40 MSTORE DUP1 SWAP3 SWAP2 SWAP1 DUP2 DUP2 MSTORE PUSH1 0x20 ADD DUP3 DUP1 SLOAD PUSH2 0xD17 SWAP1 PUSH2 0x1A71 JUMP JUMPDEST DUP1 ISZERO PUSH2 0xD64 JUMPI DUP1 PUSH1 0x1F LT PUSH2 0xD39 JUMPI PUSH2 0x100 DUP1 DUP4 SLOAD DIV MUL DUP4 MSTORE SWAP2 PUSH1 0x20 ADD SWAP2 PUSH2 0xD64 JUMP JUMPDEST DUP3 ADD SWAP2 SWAP1 PUSH1 0x0 MSTORE PUSH1 0x20 PUSH1 0x0 KECCAK256 SWAP1 JUMPDEST DUP2 SLOAD DUP2 MSTORE SWAP1 PUSH1 0x1 ADD SWAP1 PUSH1 0x20 ADD DUP1 DUP4 GT PUSH2 0xD47 JUMPI DUP3 SWAP1 SUB PUSH1 0x1F AND DUP3 ADD SWAP2 JUMPDEST POP POP POP POP PUSH1 0x2 DUP4 ADD SLOAD PUSH1 0x3 DUP5 ADD SLOAD PUSH1 0x4 DUP6 ADD SLOAD PUSH1 0x5 DUP7 ADD DUP1 SLOAD SWAP6 SWAP7 SWAP4 SWAP6 PUSH1 0x1 PUSH1 0x1 PUSH1 0xA0 SHL SUB SWAP4 DUP5 AND SWAP6 POP SWAP3 DUP3 AND SWAP4 PUSH1 0x1 PUSH1 0xA0 SHL SWAP1 SWAP3 DIV PUSH1 0xFF AND SWAP3 PUSH2 0xDA7 SWAP1 PUSH2 0x1A71 JUMP JUMPDEST DUP1 PUSH1 0x1F ADD PUSH1 0x20 DUP1 SWAP2 DIV MUL PUSH1 0x20 ADD PUSH1 0x40 MLOAD SWAP1 DUP2 ADD PUSH1 0x40 MSTORE DUP1 SWAP3 SWAP2 SWAP1 DUP2 DUP2 MSTORE PUSH1 0x20 ADD DUP3 DUP1 SLOAD PUSH2 0xDD3 SWAP1 PUSH2 0x1A71 JUMP JUMPDEST DUP1 ISZERO PUSH2 0xE20 JUMPI DUP1 PUSH1 0x1F LT PUSH2 0xDF5 JUMPI PUSH2 0x100 DUP1 DUP4 SLOAD DIV MUL DUP4 MSTORE SWAP2 PUSH1 0x20 ADD SWAP2 PUSH2 0xE20 JUMP JUMPDEST DUP3 ADD SWAP2 SWAP1 PUSH1 0x0 MSTORE PUSH1 0x20 PUSH1 0x0 KECCAK256 SWAP1 JUMPDEST DUP2 SLOAD DUP2 MSTORE SWAP1 PUSH1 0x1 ADD SWAP1 PUSH1 0x20 ADD DUP1 DUP4 GT PUSH2 0xE03 JUMPI DUP3 SWAP1 SUB PUSH1 0x1F AND DUP3 ADD SWAP2 JUMPDEST POP POP POP POP POP SWAP1 DUP1 PUSH1 0x6 ADD DUP1 SLOAD PUSH2 0xE35 SWAP1 PUSH2 0x1A71 JUMP JUMPDEST DUP1 PUSH1 0x1F ADD PUSH1 0x20 DUP1 SWAP2 DIV MUL PUSH1 0x20 ADD PUSH1 0x40 MLOAD SWAP1 DUP2 ADD PUSH1 0x40 MSTORE DUP1 SWAP3 SWAP2 SWAP1 DUP2 DUP2 MSTORE PUSH1 0x20 ADD DUP3 DUP1 SLOAD PUSH2 0xE61 SWAP1 PUSH2 0x1A71 JUMP JUMPDEST DUP1 ISZERO PUSH2 0xEAE JUMPI DUP1 PUSH1 0x1F LT PUSH2 0xE83 JUMPI PUSH2 0x100 DUP1 DUP4 SLOAD DIV MUL DUP4 MSTORE SWAP2 PUSH1 0x20 ADD SWAP2 PUSH2 0xEAE JUMP JUMPDEST DUP3 ADD SWAP2 SWAP1 PUSH1 0x0 MSTORE PUSH1 0x20 PUSH1 0x0 KECCAK256 SWAP1 JUMPDEST DUP2 SLOAD DUP2 MSTORE SWAP1 PUSH1 0x1 ADD SWAP1 PUSH1 0x20 ADD DUP1 DUP4 GT PUSH2 0xE91 JUMPI DUP3 SWAP1 SUB PUSH1 0x1F AND DUP3 ADD SWAP2 JUMPDEST POP POP POP PUSH1 0x7 SWAP1 SWAP4 ADD SLOAD SWAP2 SWAP3 POP POP PUSH1 0xFF AND DUP10 JUMP JUMPDEST PUSH1 0x6 SLOAD PUSH1 0x1 PUSH1 0x1 PUSH1 0xA0 SHL SUB AND CALLER EQ PUSH2 0xEEB JUMPI PUSH1 0x40 MLOAD PUSH3 0x461BCD PUSH1 0xE5 SHL DUP2 MSTORE PUSH1 0x4 ADD PUSH2 0x2AB SWAP1 PUSH2 0x1B06 JUMP JUMPDEST PUSH1 0x1 PUSH1 0x1 PUSH1 0xA0 SHL SUB DUP2 AND PUSH2 0xF50 JUMPI PUSH1 0x40 MLOAD PUSH3 0x461BCD PUSH1 0xE5 SHL DUP2 MSTORE PUSH1 0x20 PUSH1 0x4 DUP3 ADD MSTORE PUSH1 0x26 PUSH1 0x24 DUP3 ADD MSTORE PUSH32 0x4F776E61626C653A206E6577206F776E657220697320746865207A65726F2061 PUSH1 0x44 DUP3 ADD MSTORE PUSH6 0x646472657373 PUSH1 0xD0 SHL PUSH1 0x64 DUP3 ADD MSTORE PUSH1 0x84 ADD PUSH2 0x2AB JUMP JUMPDEST PUSH2 0xF59 DUP2 PUSH2 0xFBE JUMP JUMPDEST POP JUMP JUMPDEST PUSH2 0xF64 PUSH2 0x16A1 JUMP JUMPDEST PUSH2 0xF6C PUSH2 0x16A1 JUMP JUMPDEST PUSH2 0xF78 DUP2 DUP7 DUP7 DUP7 PUSH2 0x1010 JUMP JUMPDEST SWAP6 SWAP5 POP POP POP POP POP JUMP JUMPDEST PUSH1 0x80 DUP4 ADD MLOAD PUSH2 0xF90 SWAP1 DUP4 PUSH2 0x104D JUMP JUMPDEST PUSH1 0x80 DUP4 ADD MLOAD PUSH2 0x51F SWAP1 DUP3 PUSH2 0x104D JUMP JUMPDEST PUSH1 0x0 PUSH2 0xFB6 DUP5 DUP5 DUP5 PUSH1 0x1 PUSH4 0x20214CA3 PUSH1 0xE1 SHL PUSH2 0x1064 JUMP JUMPDEST SWAP5 SWAP4 POP POP POP POP JUMP JUMPDEST PUSH1 0x6 DUP1 SLOAD PUSH1 0x1 PUSH1 0x1 PUSH1 0xA0 SHL SUB DUP4 DUP2 AND PUSH1 0x1 PUSH1 0x1 PUSH1 0xA0 SHL SUB NOT DUP4 AND DUP2 OR SWAP1 SWAP4 SSTORE PUSH1 0x40 MLOAD SWAP2 AND SWAP2 SWAP1 DUP3 SWAP1 PUSH32 0x8BE0079C531659141344CD1FD0A4F28419497F9722A3DAAFE3B4186F6B6457E0 SWAP1 PUSH1 0x0 SWAP1 LOG3 POP POP JUMP JUMPDEST PUSH2 0x1018 PUSH2 0x16A1 JUMP JUMPDEST PUSH2 0x1028 DUP6 PUSH1 0x80 ADD MLOAD PUSH2 0x100 PUSH2 0x1270 JUMP JUMPDEST POP POP SWAP2 DUP4 MSTORE PUSH1 0x1 PUSH1 0x1 PUSH1 0xA0 SHL SUB AND PUSH1 0x20 DUP4 ADD MSTORE PUSH1 0x1 PUSH1 0x1 PUSH1 0xE0 SHL SUB NOT AND PUSH1 0x40 DUP3 ADD MSTORE SWAP1 JUMP JUMPDEST PUSH2 0x105A DUP3 PUSH1 0x3 DUP4 MLOAD PUSH2 0x12DB JUMP JUMPDEST PUSH2 0x51F DUP3 DUP3 PUSH2 0x13AF JUMP JUMPDEST PUSH1 0x4 SLOAD PUSH1 0x40 MLOAD PUSH12 0xFFFFFFFFFFFFFFFFFFFFFFFF NOT ADDRESS PUSH1 0x60 SHL AND PUSH1 0x20 DUP3 ADD MSTORE PUSH1 0x34 DUP2 ADD SWAP2 SWAP1 SWAP2 MSTORE PUSH1 0x0 SWAP1 PUSH1 0x54 ADD PUSH1 0x40 DUP1 MLOAD DUP1 DUP4 SUB PUSH1 0x1F NOT ADD DUP2 MSTORE SWAP2 DUP2 MSTORE DUP2 MLOAD PUSH1 0x20 SWAP3 DUP4 ADD KECCAK256 PUSH1 0x4 SLOAD PUSH1 0x60 DUP10 ADD MSTORE PUSH1 0x0 DUP2 DUP2 MSTORE PUSH1 0x5 SWAP1 SWAP4 MSTORE DUP2 DUP4 KECCAK256 DUP1 SLOAD PUSH1 0x1 PUSH1 0x1 PUSH1 0xA0 SHL SUB NOT AND PUSH1 0x1 PUSH1 0x1 PUSH1 0xA0 SHL SUB DUP12 AND OR SWAP1 SSTORE SWAP1 MLOAD SWAP1 SWAP3 POP DUP3 SWAP2 PUSH32 0xB5E6E01E79F91267DC17B4E6314D5D4D03593D2CEEE0FBB452B750BD70EA5AF9 SWAP2 LOG2 PUSH1 0x0 DUP3 PUSH1 0x0 DUP1 DUP9 PUSH1 0x0 ADD MLOAD DUP10 PUSH1 0x20 ADD MLOAD DUP11 PUSH1 0x40 ADD MLOAD DUP12 PUSH1 0x60 ADD MLOAD DUP11 DUP14 PUSH1 0x80 ADD MLOAD PUSH1 0x0 ADD MLOAD PUSH1 0x40 MLOAD PUSH1 0x24 ADD PUSH2 0x113B SWAP9 SWAP8 SWAP7 SWAP6 SWAP5 SWAP4 SWAP3 SWAP2 SWAP1 PUSH2 0x1C5C JUMP JUMPDEST PUSH1 0x40 DUP1 MLOAD PUSH1 0x1F NOT DUP2 DUP5 SUB ADD DUP2 MSTORE SWAP2 DUP2 MSTORE PUSH1 0x20 DUP3 ADD DUP1 MLOAD PUSH1 0x1 PUSH1 0x1 PUSH1 0xE0 SHL SUB AND PUSH1 0x1 PUSH1 0x1 PUSH1 0xE0 SHL SUB NOT SWAP1 SWAP5 AND SWAP4 SWAP1 SWAP4 OR SWAP1 SWAP3 MSTORE PUSH1 0x2 SLOAD SWAP2 MLOAD PUSH4 0x2000575 PUSH1 0xE5 SHL DUP2 MSTORE SWAP1 SWAP3 POP PUSH1 0x1 PUSH1 0x1 PUSH1 0xA0 SHL SUB SWAP1 SWAP2 AND SWAP1 PUSH4 0x4000AEA0 SWAP1 PUSH2 0x11A3 SWAP1 DUP11 SWAP1 DUP10 SWAP1 DUP7 SWAP1 PUSH1 0x4 ADD PUSH2 0x1CC4 JUMP JUMPDEST PUSH1 0x20 PUSH1 0x40 MLOAD DUP1 DUP4 SUB DUP2 PUSH1 0x0 DUP8 DUP1 EXTCODESIZE ISZERO DUP1 ISZERO PUSH2 0x11BD JUMPI PUSH1 0x0 DUP1 REVERT JUMPDEST POP GAS CALL ISZERO DUP1 ISZERO PUSH2 0x11D1 JUMPI RETURNDATASIZE PUSH1 0x0 DUP1 RETURNDATACOPY RETURNDATASIZE PUSH1 0x0 REVERT JUMPDEST POP POP POP POP PUSH1 0x40 MLOAD RETURNDATASIZE PUSH1 0x1F NOT PUSH1 0x1F DUP3 ADD AND DUP3 ADD DUP1 PUSH1 0x40 MSTORE POP DUP2 ADD SWAP1 PUSH2 0x11F5 SWAP2 SWAP1 PUSH2 0x1AE4 JUMP JUMPDEST PUSH2 0x124D JUMPI PUSH1 0x40 MLOAD PUSH3 0x461BCD PUSH1 0xE5 SHL DUP2 MSTORE PUSH1 0x20 PUSH1 0x4 DUP3 ADD MSTORE PUSH1 0x23 PUSH1 0x24 DUP3 ADD MSTORE PUSH32 0x756E61626C6520746F207472616E73666572416E6443616C6C20746F206F7261 PUSH1 0x44 DUP3 ADD MSTORE PUSH3 0x636C65 PUSH1 0xE8 SHL PUSH1 0x64 DUP3 ADD MSTORE PUSH1 0x84 ADD PUSH2 0x2AB JUMP JUMPDEST PUSH1 0x1 PUSH1 0x4 PUSH1 0x0 DUP3 DUP3 SLOAD PUSH2 0x1260 SWAP2 SWAP1 PUSH2 0x1C0C JUMP JUMPDEST SWAP1 SWAP2 SSTORE POP SWAP2 SWAP8 SWAP7 POP POP POP POP POP POP POP JUMP JUMPDEST PUSH1 0x40 DUP1 MLOAD DUP1 DUP3 ADD SWAP1 SWAP2 MSTORE PUSH1 0x60 DUP2 MSTORE PUSH1 0x0 PUSH1 0x20 DUP3 ADD MSTORE PUSH2 0x1290 PUSH1 0x20 DUP4 PUSH2 0x1CEB JUMP JUMPDEST ISZERO PUSH2 0x12B8 JUMPI PUSH2 0x12A0 PUSH1 0x20 DUP4 PUSH2 0x1CEB JUMP JUMPDEST PUSH2 0x12AB SWAP1 PUSH1 0x20 PUSH2 0x1D0D JUMP JUMPDEST PUSH2 0x12B5 SWAP1 DUP4 PUSH2 0x1C0C JUMP JUMPDEST SWAP2 POP JUMPDEST POP PUSH1 0x20 DUP1 DUP4 ADD DUP3 SWAP1 MSTORE PUSH1 0x40 DUP1 MLOAD DUP1 DUP6 MSTORE PUSH1 0x0 DUP2 MSTORE DUP4 ADD SWAP1 SWAP2 ADD SWAP1 MSTORE DUP2 JUMPDEST SWAP3 SWAP2 POP POP JUMP JUMPDEST PUSH1 0x17 DUP2 GT PUSH2 0x12FC JUMPI PUSH2 0x12F6 DUP4 PUSH1 0xE0 PUSH1 0x5 DUP6 SWAP1 SHL AND DUP4 OR PUSH2 0x13DD JUMP JUMPDEST POP POP POP POP JUMP JUMPDEST PUSH1 0xFF DUP2 GT PUSH2 0x1326 JUMPI PUSH2 0x1319 DUP4 PUSH1 0x18 PUSH2 0x1FE0 PUSH1 0x5 DUP7 SWAP1 SHL AND OR PUSH2 0x13DD JUMP JUMPDEST POP PUSH2 0x12F6 DUP4 DUP3 PUSH1 0x1 PUSH2 0x1402 JUMP JUMPDEST PUSH2 0xFFFF DUP2 GT PUSH2 0x1351 JUMPI PUSH2 0x1344 DUP4 PUSH1 0x19 PUSH2 0x1FE0 PUSH1 0x5 DUP7 SWAP1 SHL AND OR PUSH2 0x13DD JUMP JUMPDEST POP PUSH2 0x12F6 DUP4 DUP3 PUSH1 0x2 PUSH2 0x1402 JUMP JUMPDEST PUSH4 0xFFFFFFFF DUP2 GT PUSH2 0x137E JUMPI PUSH2 0x1371 DUP4 PUSH1 0x1A PUSH2 0x1FE0 PUSH1 0x5 DUP7 SWAP1 SHL AND OR PUSH2 0x13DD JUMP JUMPDEST POP PUSH2 0x12F6 DUP4 DUP3 PUSH1 0x4 PUSH2 0x1402 JUMP JUMPDEST PUSH8 0xFFFFFFFFFFFFFFFF DUP2 GT PUSH2 0x51F JUMPI PUSH2 0x13A2 DUP4 PUSH1 0x1B PUSH2 0x1FE0 PUSH1 0x5 DUP7 SWAP1 SHL AND OR PUSH2 0x13DD JUMP JUMPDEST POP PUSH2 0x12F6 DUP4 DUP3 PUSH1 0x8 PUSH2 0x1402 JUMP JUMPDEST PUSH1 0x40 DUP1 MLOAD DUP1 DUP3 ADD SWAP1 SWAP2 MSTORE PUSH1 0x60 DUP2 MSTORE PUSH1 0x0 PUSH1 0x20 DUP3 ADD MSTORE PUSH2 0x13D6 DUP4 DUP5 PUSH1 0x0 ADD MLOAD MLOAD DUP5 DUP6 MLOAD PUSH2 0x1428 JUMP JUMPDEST SWAP4 SWAP3 POP POP POP JUMP JUMPDEST PUSH1 0x40 DUP1 MLOAD DUP1 DUP3 ADD SWAP1 SWAP2 MSTORE PUSH1 0x60 DUP2 MSTORE PUSH1 0x0 PUSH1 0x20 DUP3 ADD MSTORE PUSH2 0x13D6 DUP4 DUP5 PUSH1 0x0 ADD MLOAD MLOAD DUP5 PUSH2 0x1512 JUMP JUMPDEST PUSH1 0x40 DUP1 MLOAD DUP1 DUP3 ADD SWAP1 SWAP2 MSTORE PUSH1 0x60 DUP2 MSTORE PUSH1 0x0 PUSH1 0x20 DUP3 ADD MSTORE PUSH2 0xFB6 DUP5 DUP6 PUSH1 0x0 ADD MLOAD MLOAD DUP6 DUP6 PUSH2 0x156E JUMP JUMPDEST PUSH1 0x40 DUP1 MLOAD DUP1 DUP3 ADD SWAP1 SWAP2 MSTORE PUSH1 0x60 DUP2 MSTORE PUSH1 0x0 PUSH1 0x20 DUP3 ADD MSTORE DUP3 MLOAD DUP3 GT ISZERO PUSH2 0x144B JUMPI PUSH1 0x0 DUP1 REVERT JUMPDEST PUSH1 0x20 DUP6 ADD MLOAD PUSH2 0x145A DUP4 DUP7 PUSH2 0x1C0C JUMP JUMPDEST GT ISZERO PUSH2 0x148D JUMPI PUSH2 0x148D DUP6 PUSH2 0x147D DUP8 PUSH1 0x20 ADD MLOAD DUP8 DUP7 PUSH2 0x1478 SWAP2 SWAP1 PUSH2 0x1C0C JUMP JUMPDEST PUSH2 0x15EF JUMP JUMPDEST PUSH2 0x1488 SWAP1 PUSH1 0x2 PUSH2 0x1C24 JUMP JUMPDEST PUSH2 0x1606 JUMP JUMPDEST PUSH1 0x0 DUP1 DUP7 MLOAD DUP1 MLOAD DUP8 PUSH1 0x20 DUP4 ADD ADD SWAP4 POP DUP1 DUP9 DUP8 ADD GT ISZERO PUSH2 0x14AC JUMPI DUP8 DUP7 ADD DUP3 MSTORE JUMPDEST POP POP POP PUSH1 0x20 DUP5 ADD JUMPDEST PUSH1 0x20 DUP5 LT PUSH2 0x14EC JUMPI DUP1 MLOAD DUP3 MSTORE PUSH2 0x14CB PUSH1 0x20 DUP4 PUSH2 0x1C0C JUMP JUMPDEST SWAP2 POP PUSH2 0x14D8 PUSH1 0x20 DUP3 PUSH2 0x1C0C JUMP JUMPDEST SWAP1 POP PUSH2 0x14E5 PUSH1 0x20 DUP6 PUSH2 0x1D0D JUMP JUMPDEST SWAP4 POP PUSH2 0x14B4 JUMP JUMPDEST MLOAD DUP2 MLOAD PUSH1 0x0 NOT PUSH1 0x20 DUP7 SWAP1 SUB PUSH2 0x100 EXP ADD SWAP1 DUP2 AND SWAP1 NOT SWAP2 SWAP1 SWAP2 AND OR SWAP1 MSTORE POP DUP4 SWAP5 SWAP4 POP POP POP POP JUMP JUMPDEST PUSH1 0x40 DUP1 MLOAD DUP1 DUP3 ADD SWAP1 SWAP2 MSTORE PUSH1 0x60 DUP2 MSTORE PUSH1 0x0 PUSH1 0x20 DUP3 ADD MSTORE DUP4 PUSH1 0x20 ADD MLOAD DUP4 LT PUSH2 0x1547 JUMPI PUSH2 0x1547 DUP5 DUP6 PUSH1 0x20 ADD MLOAD PUSH1 0x2 PUSH2 0x1488 SWAP2 SWAP1 PUSH2 0x1C24 JUMP JUMPDEST DUP4 MLOAD DUP1 MLOAD PUSH1 0x20 DUP6 DUP4 ADD ADD DUP5 DUP2 MSTORE8 POP DUP1 DUP6 EQ ISZERO PUSH2 0x1564 JUMPI PUSH1 0x1 DUP2 ADD DUP3 MSTORE JUMPDEST POP SWAP4 SWAP5 SWAP4 POP POP POP POP JUMP JUMPDEST PUSH1 0x40 DUP1 MLOAD DUP1 DUP3 ADD SWAP1 SWAP2 MSTORE PUSH1 0x60 DUP2 MSTORE PUSH1 0x0 PUSH1 0x20 DUP3 ADD MSTORE PUSH1 0x20 DUP6 ADD MLOAD PUSH2 0x1592 DUP6 DUP5 PUSH2 0x1C0C JUMP JUMPDEST GT ISZERO PUSH2 0x15A6 JUMPI PUSH2 0x15A6 DUP6 PUSH2 0x147D DUP7 DUP6 PUSH2 0x1C0C JUMP JUMPDEST PUSH1 0x0 PUSH1 0x1 PUSH2 0x15B6 DUP5 PUSH2 0x100 PUSH2 0x1E08 JUMP JUMPDEST PUSH2 0x15C0 SWAP2 SWAP1 PUSH2 0x1D0D JUMP JUMPDEST SWAP1 POP DUP6 MLOAD DUP4 DUP7 DUP3 ADD ADD DUP6 DUP4 NOT DUP3 MLOAD AND OR DUP2 MSTORE POP DUP1 MLOAD DUP5 DUP8 ADD GT ISZERO PUSH2 0x15E4 JUMPI DUP4 DUP7 ADD DUP2 MSTORE JUMPDEST POP SWAP5 SWAP6 SWAP5 POP POP POP POP POP JUMP JUMPDEST PUSH1 0x0 DUP2 DUP4 GT ISZERO PUSH2 0x1600 JUMPI POP DUP2 PUSH2 0x12D5 JUMP JUMPDEST POP SWAP2 SWAP1 POP JUMP JUMPDEST DUP2 MLOAD PUSH2 0x1612 DUP4 DUP4 PUSH2 0x1270 JUMP JUMPDEST POP PUSH2 0x12F6 DUP4 DUP3 PUSH2 0x13AF JUMP JUMPDEST DUP3 DUP1 SLOAD PUSH2 0x1629 SWAP1 PUSH2 0x1A71 JUMP JUMPDEST SWAP1 PUSH1 0x0 MSTORE PUSH1 0x20 PUSH1 0x0 KECCAK256 SWAP1 PUSH1 0x1F ADD PUSH1 0x20 SWAP1 DIV DUP2 ADD SWAP3 DUP3 PUSH2 0x164B JUMPI PUSH1 0x0 DUP6 SSTORE PUSH2 0x1691 JUMP JUMPDEST DUP3 PUSH1 0x1F LT PUSH2 0x1664 JUMPI DUP1 MLOAD PUSH1 0xFF NOT AND DUP4 DUP1 ADD OR DUP6 SSTORE PUSH2 0x1691 JUMP JUMPDEST DUP3 DUP1 ADD PUSH1 0x1 ADD DUP6 SSTORE DUP3 ISZERO PUSH2 0x1691 JUMPI SWAP2 DUP3 ADD JUMPDEST DUP3 DUP2 GT ISZERO PUSH2 0x1691 JUMPI DUP3 MLOAD DUP3 SSTORE SWAP2 PUSH1 0x20 ADD SWAP2 SWAP1 PUSH1 0x1 ADD SWAP1 PUSH2 0x1676 JUMP JUMPDEST POP PUSH2 0x169D SWAP3 SWAP2 POP PUSH2 0x16DC JUMP JUMPDEST POP SWAP1 JUMP JUMPDEST PUSH1 0x40 DUP1 MLOAD PUSH1 0xA0 DUP2 ADD DUP3 MSTORE PUSH1 0x0 DUP1 DUP3 MSTORE PUSH1 0x20 DUP1 DUP4 ADD DUP3 SWAP1 MSTORE DUP3 DUP5 ADD DUP3 SWAP1 MSTORE PUSH1 0x60 DUP1 DUP5 ADD DUP4 SWAP1 MSTORE DUP5 MLOAD DUP1 DUP7 ADD SWAP1 SWAP6 MSTORE DUP5 MSTORE DUP4 ADD MSTORE SWAP1 PUSH1 0x80 DUP3 ADD MSTORE SWAP1 JUMP JUMPDEST JUMPDEST DUP1 DUP3 GT ISZERO PUSH2 0x169D JUMPI PUSH1 0x0 DUP2 SSTORE PUSH1 0x1 ADD PUSH2 0x16DD JUMP JUMPDEST PUSH1 0x0 DUP1 PUSH1 0x40 DUP4 DUP6 SUB SLT ISZERO PUSH2 0x1704 JUMPI PUSH1 0x0 DUP1 REVERT JUMPDEST POP POP DUP1 CALLDATALOAD SWAP3 PUSH1 0x20 SWAP1 SWAP2 ADD CALLDATALOAD SWAP2 POP JUMP JUMPDEST PUSH4 0x4E487B71 PUSH1 0xE0 SHL PUSH1 0x0 MSTORE PUSH1 0x41 PUSH1 0x4 MSTORE PUSH1 0x24 PUSH1 0x0 REVERT JUMPDEST PUSH1 0x40 MLOAD PUSH1 0x1F DUP3 ADD PUSH1 0x1F NOT AND DUP2 ADD PUSH8 0xFFFFFFFFFFFFFFFF DUP2 GT DUP3 DUP3 LT OR ISZERO PUSH2 0x1752 JUMPI PUSH2 0x1752 PUSH2 0x1713 JUMP JUMPDEST PUSH1 0x40 MSTORE SWAP2 SWAP1 POP JUMP JUMPDEST PUSH1 0x0 PUSH8 0xFFFFFFFFFFFFFFFF DUP3 GT ISZERO PUSH2 0x1774 JUMPI PUSH2 0x1774 PUSH2 0x1713 JUMP JUMPDEST POP PUSH1 0x1F ADD PUSH1 0x1F NOT AND PUSH1 0x20 ADD SWAP1 JUMP JUMPDEST PUSH1 0x0 DUP3 PUSH1 0x1F DUP4 ADD SLT PUSH2 0x1793 JUMPI PUSH1 0x0 DUP1 REVERT JUMPDEST DUP2 CALLDATALOAD PUSH2 0x17A6 PUSH2 0x17A1 DUP3 PUSH2 0x175A JUMP JUMPDEST PUSH2 0x1729 JUMP JUMPDEST DUP2 DUP2 MSTORE DUP5 PUSH1 0x20 DUP4 DUP7 ADD ADD GT ISZERO PUSH2 0x17BB JUMPI PUSH1 0x0 DUP1 REVERT JUMPDEST DUP2 PUSH1 0x20 DUP6 ADD PUSH1 0x20 DUP4 ADD CALLDATACOPY PUSH1 0x0 SWAP2 DUP2 ADD PUSH1 0x20 ADD SWAP2 SWAP1 SWAP2 MSTORE SWAP4 SWAP3 POP POP POP JUMP JUMPDEST PUSH1 0x0 PUSH1 0x20 DUP3 DUP5 SUB SLT ISZERO PUSH2 0x17EA JUMPI PUSH1 0x0 DUP1 REVERT JUMPDEST DUP2 CALLDATALOAD PUSH8 0xFFFFFFFFFFFFFFFF DUP2 GT ISZERO PUSH2 0x1801 JUMPI PUSH1 0x0 DUP1 REVERT JUMPDEST PUSH2 0xFB6 DUP5 DUP3 DUP6 ADD PUSH2 0x1782 JUMP JUMPDEST DUP1 CALLDATALOAD PUSH1 0x1 PUSH1 0x1 PUSH1 0xA0 SHL SUB DUP2 AND DUP2 EQ PUSH2 0x1824 JUMPI PUSH1 0x0 DUP1 REVERT JUMPDEST SWAP2 SWAP1 POP JUMP JUMPDEST PUSH1 0x0 DUP1 PUSH1 0x0 DUP1 PUSH1 0x0 DUP1 PUSH1 0x0 DUP1 PUSH2 0x100 DUP10 DUP12 SUB SLT ISZERO PUSH2 0x1846 JUMPI PUSH1 0x0 DUP1 REVERT JUMPDEST PUSH2 0x184F DUP10 PUSH2 0x180D JUMP JUMPDEST SWAP8 POP PUSH2 0x185D PUSH1 0x20 DUP11 ADD PUSH2 0x180D JUMP JUMPDEST SWAP7 POP PUSH1 0x40 DUP10 ADD CALLDATALOAD PUSH8 0xFFFFFFFFFFFFFFFF DUP1 DUP3 GT ISZERO PUSH2 0x187A JUMPI PUSH1 0x0 DUP1 REVERT JUMPDEST PUSH2 0x1886 DUP13 DUP4 DUP14 ADD PUSH2 0x1782 JUMP JUMPDEST SWAP8 POP PUSH1 0x60 DUP12 ADD CALLDATALOAD SWAP7 POP PUSH1 0x80 DUP12 ADD CALLDATALOAD SWAP2 POP DUP1 DUP3 GT ISZERO PUSH2 0x18A3 JUMPI PUSH1 0x0 DUP1 REVERT JUMPDEST POP PUSH2 0x18B0 DUP12 DUP3 DUP13 ADD PUSH2 0x1782 JUMP JUMPDEST SWAP5 POP POP PUSH2 0x18BF PUSH1 0xA0 DUP11 ADD PUSH2 0x180D JUMP JUMPDEST SWAP3 POP PUSH1 0xC0 DUP10 ADD CALLDATALOAD SWAP2 POP PUSH1 0xE0 DUP10 ADD CALLDATALOAD SWAP1 POP SWAP3 SWAP6 SWAP9 POP SWAP3 SWAP6 SWAP9 SWAP1 SWAP4 SWAP7 POP JUMP JUMPDEST PUSH1 0x0 JUMPDEST DUP4 DUP2 LT ISZERO PUSH2 0x18F7 JUMPI DUP2 DUP2 ADD MLOAD DUP4 DUP3 ADD MSTORE PUSH1 0x20 ADD PUSH2 0x18DF JUMP JUMPDEST DUP4 DUP2 GT ISZERO PUSH2 0x12F6 JUMPI POP POP PUSH1 0x0 SWAP2 ADD MSTORE JUMP JUMPDEST PUSH1 0x0 DUP2 MLOAD DUP1 DUP5 MSTORE PUSH2 0x1920 DUP2 PUSH1 0x20 DUP7 ADD PUSH1 0x20 DUP7 ADD PUSH2 0x18DC JUMP JUMPDEST PUSH1 0x1F ADD PUSH1 0x1F NOT AND SWAP3 SWAP1 SWAP3 ADD PUSH1 0x20 ADD SWAP3 SWAP2 POP POP JUMP JUMPDEST PUSH4 0x4E487B71 PUSH1 0xE0 SHL PUSH1 0x0 MSTORE PUSH1 0x21 PUSH1 0x4 MSTORE PUSH1 0x24 PUSH1 0x0 REVERT JUMPDEST PUSH1 0x0 PUSH2 0x120 DUP12 DUP4 MSTORE DUP1 PUSH1 0x20 DUP5 ADD MSTORE PUSH2 0x1964 DUP2 DUP5 ADD DUP13 PUSH2 0x1908 JUMP JUMPDEST PUSH1 0x40 DUP5 ADD DUP12 SWAP1 MSTORE PUSH1 0x1 PUSH1 0x1 PUSH1 0xA0 SHL SUB DUP11 DUP2 AND PUSH1 0x60 DUP7 ADD MSTORE DUP10 AND PUSH1 0x80 DUP6 ADD MSTORE DUP8 ISZERO ISZERO PUSH1 0xA0 DUP6 ADD MSTORE DUP4 DUP2 SUB PUSH1 0xC0 DUP6 ADD MSTORE SWAP1 POP PUSH2 0x199E DUP2 DUP8 PUSH2 0x1908 JUMP JUMPDEST SWAP1 POP DUP3 DUP2 SUB PUSH1 0xE0 DUP5 ADD MSTORE PUSH2 0x19B2 DUP2 DUP7 PUSH2 0x1908 JUMP JUMPDEST SWAP2 POP POP PUSH1 0x5 DUP4 LT PUSH2 0x19D3 JUMPI PUSH4 0x4E487B71 PUSH1 0xE0 SHL PUSH1 0x0 MSTORE PUSH1 0x21 PUSH1 0x4 MSTORE PUSH1 0x24 PUSH1 0x0 REVERT JUMPDEST DUP3 PUSH2 0x100 DUP4 ADD MSTORE SWAP11 SWAP10 POP POP POP POP POP POP POP POP POP POP JUMP JUMPDEST PUSH1 0x0 PUSH1 0x20 DUP3 DUP5 SUB SLT ISZERO PUSH2 0x19FA JUMPI PUSH1 0x0 DUP1 REVERT JUMPDEST PUSH2 0x13D6 DUP3 PUSH2 0x180D JUMP JUMPDEST PUSH1 0x0 PUSH1 0x20 DUP3 DUP5 SUB SLT ISZERO PUSH2 0x1A15 JUMPI PUSH1 0x0 DUP1 REVERT JUMPDEST DUP2 MLOAD PUSH8 0xFFFFFFFFFFFFFFFF DUP2 GT ISZERO PUSH2 0x1A2C JUMPI PUSH1 0x0 DUP1 REVERT JUMPDEST DUP3 ADD PUSH1 0x1F DUP2 ADD DUP5 SGT PUSH2 0x1A3D JUMPI PUSH1 0x0 DUP1 REVERT JUMPDEST DUP1 MLOAD PUSH2 0x1A4B PUSH2 0x17A1 DUP3 PUSH2 0x175A JUMP JUMPDEST DUP2 DUP2 MSTORE DUP6 PUSH1 0x20 DUP4 DUP6 ADD ADD GT ISZERO PUSH2 0x1A60 JUMPI PUSH1 0x0 DUP1 REVERT JUMPDEST PUSH2 0xF78 DUP3 PUSH1 0x20 DUP4 ADD PUSH1 0x20 DUP7 ADD PUSH2 0x18DC JUMP JUMPDEST PUSH1 0x1 DUP2 DUP2 SHR SWAP1 DUP3 AND DUP1 PUSH2 0x1A85 JUMPI PUSH1 0x7F DUP3 AND SWAP2 POP JUMPDEST PUSH1 0x20 DUP3 LT DUP2 EQ ISZERO PUSH2 0x1600 JUMPI PUSH4 0x4E487B71 PUSH1 0xE0 SHL PUSH1 0x0 MSTORE PUSH1 0x22 PUSH1 0x4 MSTORE PUSH1 0x24 PUSH1 0x0 REVERT JUMPDEST PUSH1 0x40 DUP2 MSTORE PUSH1 0x0 PUSH2 0x1AB9 PUSH1 0x40 DUP4 ADD DUP5 PUSH2 0x1908 JUMP JUMPDEST DUP3 DUP2 SUB PUSH1 0x20 DUP5 ADD MSTORE PUSH1 0x9 DUP2 MSTORE PUSH9 0x11195B1A5D995C9959 PUSH1 0xBA SHL PUSH1 0x20 DUP3 ADD MSTORE PUSH1 0x40 DUP2 ADD SWAP2 POP POP SWAP3 SWAP2 POP POP JUMP JUMPDEST PUSH1 0x0 PUSH1 0x20 DUP3 DUP5 SUB SLT ISZERO PUSH2 0x1AF6 JUMPI PUSH1 0x0 DUP1 REVERT JUMPDEST DUP2 MLOAD DUP1 ISZERO ISZERO DUP2 EQ PUSH2 0x13D6 JUMPI PUSH1 0x0 DUP1 REVERT JUMPDEST PUSH1 0x20 DUP1 DUP3 MSTORE DUP2 DUP2 ADD MSTORE PUSH32 0x4F776E61626C653A2063616C6C6572206973206E6F7420746865206F776E6572 PUSH1 0x40 DUP3 ADD MSTORE PUSH1 0x60 ADD SWAP1 JUMP JUMPDEST PUSH1 0x20 DUP2 MSTORE PUSH1 0x0 PUSH2 0x13D6 PUSH1 0x20 DUP4 ADD DUP5 PUSH2 0x1908 JUMP JUMPDEST PUSH1 0x0 PUSH1 0x20 DUP1 DUP4 MSTORE PUSH1 0x0 DUP5 SLOAD DUP2 PUSH1 0x1 DUP3 DUP2 SHR SWAP2 POP DUP1 DUP4 AND DUP1 PUSH2 0x1B70 JUMPI PUSH1 0x7F DUP4 AND SWAP3 POP JUMPDEST DUP6 DUP4 LT DUP2 EQ ISZERO PUSH2 0x1B8E JUMPI PUSH4 0x4E487B71 PUSH1 0xE0 SHL DUP6 MSTORE PUSH1 0x22 PUSH1 0x4 MSTORE PUSH1 0x24 DUP6 REVERT JUMPDEST DUP8 DUP7 ADD DUP4 DUP2 MSTORE PUSH1 0x20 ADD DUP2 DUP1 ISZERO PUSH2 0x1BAB JUMPI PUSH1 0x1 DUP2 EQ PUSH2 0x1BBC JUMPI PUSH2 0x1BE7 JUMP JUMPDEST PUSH1 0xFF NOT DUP7 AND DUP3 MSTORE DUP8 DUP3 ADD SWAP7 POP PUSH2 0x1BE7 JUMP JUMPDEST PUSH1 0x0 DUP12 DUP2 MSTORE PUSH1 0x20 SWAP1 KECCAK256 PUSH1 0x0 JUMPDEST DUP7 DUP2 LT ISZERO PUSH2 0x1BE1 JUMPI DUP2 SLOAD DUP5 DUP3 ADD MSTORE SWAP1 DUP6 ADD SWAP1 DUP10 ADD PUSH2 0x1BC8 JUMP JUMPDEST DUP4 ADD SWAP8 POP POP JUMPDEST POP SWAP5 SWAP10 SWAP9 POP POP POP POP POP POP POP POP POP JUMP JUMPDEST PUSH4 0x4E487B71 PUSH1 0xE0 SHL PUSH1 0x0 MSTORE PUSH1 0x11 PUSH1 0x4 MSTORE PUSH1 0x24 PUSH1 0x0 REVERT JUMPDEST PUSH1 0x0 DUP3 NOT DUP3 GT ISZERO PUSH2 0x1C1F JUMPI PUSH2 0x1C1F PUSH2 0x1BF6 JUMP JUMPDEST POP ADD SWAP1 JUMP JUMPDEST PUSH1 0x0 DUP2 PUSH1 0x0 NOT DIV DUP4 GT DUP3 ISZERO ISZERO AND ISZERO PUSH2 0x1C3E JUMPI PUSH2 0x1C3E PUSH2 0x1BF6 JUMP JUMPDEST POP MUL SWAP1 JUMP JUMPDEST PUSH1 0x0 PUSH1 0x20 DUP3 DUP5 SUB SLT ISZERO PUSH2 0x1C55 JUMPI PUSH1 0x0 DUP1 REVERT JUMPDEST POP MLOAD SWAP2 SWAP1 POP JUMP JUMPDEST PUSH1 0x1 PUSH1 0x1 PUSH1 0xA0 SHL SUB DUP10 DUP2 AND DUP3 MSTORE PUSH1 0x20 DUP3 ADD DUP10 SWAP1 MSTORE PUSH1 0x40 DUP3 ADD DUP9 SWAP1 MSTORE DUP7 AND PUSH1 0x60 DUP3 ADD MSTORE PUSH1 0x1 PUSH1 0x1 PUSH1 0xE0 SHL SUB NOT DUP6 AND PUSH1 0x80 DUP3 ADD MSTORE PUSH1 0xA0 DUP2 ADD DUP5 SWAP1 MSTORE PUSH1 0xC0 DUP2 ADD DUP4 SWAP1 MSTORE PUSH2 0x100 PUSH1 0xE0 DUP3 ADD DUP2 SWAP1 MSTORE PUSH1 0x0 SWAP1 PUSH2 0x1CB5 DUP4 DUP3 ADD DUP6 PUSH2 0x1908 JUMP JUMPDEST SWAP12 SWAP11 POP POP POP POP POP POP POP POP POP POP POP JUMP JUMPDEST PUSH1 0x1 DUP1 PUSH1 0xA0 SHL SUB DUP5 AND DUP2 MSTORE DUP3 PUSH1 0x20 DUP3 ADD MSTORE PUSH1 0x60 PUSH1 0x40 DUP3 ADD MSTORE PUSH1 0x0 PUSH2 0xF78 PUSH1 0x60 DUP4 ADD DUP5 PUSH2 0x1908 JUMP JUMPDEST PUSH1 0x0 DUP3 PUSH2 0x1D08 JUMPI PUSH4 0x4E487B71 PUSH1 0xE0 SHL PUSH1 0x0 MSTORE PUSH1 0x12 PUSH1 0x4 MSTORE PUSH1 0x24 PUSH1 0x0 REVERT JUMPDEST POP MOD SWAP1 JUMP JUMPDEST PUSH1 0x0 DUP3 DUP3 LT ISZERO PUSH2 0x1D1F JUMPI PUSH2 0x1D1F PUSH2 0x1BF6 JUMP JUMPDEST POP SUB SWAP1 JUMP JUMPDEST PUSH1 0x1 DUP2 DUP2 JUMPDEST DUP1 DUP6 GT ISZERO PUSH2 0x1D5F JUMPI DUP2 PUSH1 0x0 NOT DIV DUP3 GT ISZERO PUSH2 0x1D45 JUMPI PUSH2 0x1D45 PUSH2 0x1BF6 JUMP JUMPDEST DUP1 DUP6 AND ISZERO PUSH2 0x1D52 JUMPI SWAP2 DUP2 MUL SWAP2 JUMPDEST SWAP4 DUP5 SHR SWAP4 SWAP1 DUP1 MUL SWAP1 PUSH2 0x1D29 JUMP JUMPDEST POP SWAP3 POP SWAP3 SWAP1 POP JUMP JUMPDEST PUSH1 0x0 DUP3 PUSH2 0x1D76 JUMPI POP PUSH1 0x1 PUSH2 0x12D5 JUMP JUMPDEST DUP2 PUSH2 0x1D83 JUMPI POP PUSH1 0x0 PUSH2 0x12D5 JUMP JUMPDEST DUP2 PUSH1 0x1 DUP2 EQ PUSH2 0x1D99 JUMPI PUSH1 0x2 DUP2 EQ PUSH2 0x1DA3 JUMPI PUSH2 0x1DBF JUMP JUMPDEST PUSH1 0x1 SWAP2 POP POP PUSH2 0x12D5 JUMP JUMPDEST PUSH1 0xFF DUP5 GT ISZERO PUSH2 0x1DB4 JUMPI PUSH2 0x1DB4 PUSH2 0x1BF6 JUMP JUMPDEST POP POP PUSH1 0x1 DUP3 SHL PUSH2 0x12D5 JUMP JUMPDEST POP PUSH1 0x20 DUP4 LT PUSH2 0x133 DUP4 LT AND PUSH1 0x4E DUP5 LT PUSH1 0xB DUP5 LT AND OR ISZERO PUSH2 0x1DE2 JUMPI POP DUP2 DUP2 EXP PUSH2 0x12D5 JUMP JUMPDEST PUSH2 0x1DEC DUP4 DUP4 PUSH2 0x1D24 JUMP JUMPDEST DUP1 PUSH1 0x0 NOT DIV DUP3 GT ISZERO PUSH2 0x1E00 JUMPI PUSH2 0x1E00 PUSH2 0x1BF6 JUMP JUMPDEST MUL SWAP4 SWAP3 POP POP POP JUMP JUMPDEST PUSH1 0x0 PUSH2 0x13D6 DUP4 DUP4 PUSH2 0x1D67 JUMP INVALID LOG2 PUSH5 0x6970667358 0x22 SLT KECCAK256 0xB0 PUSH30 0x1F78FEC4B928AE2FD6969F1DDEDA03BBE960C60239CD81178E2C53A2083 PUSH5 0x736F6C6343 STOP ADDMOD MULMOD STOP CALLER LOG2 PUSH5 0x6970667358 0x22 SLT KECCAK256 0xBE MSIZE 0xF8 MSIZE 0xDA DUP2 PUSH14 0x42083FF95891ADF4E3C5B1AF49D0 0xB9 LOG3 MULMOD STOP PUSH3 0xDC53C5 PUSH12 0x1F4464736F6C634300080900 CALLER ","sha1":"22227d0db6ac7c2f64c75a591c5c26a5ebdc581a","source":"// SPDX-License-Identifier: MIT\npragma solidity ^0.8.7;\n\nimport \"./Escrow.sol\";\nimport \"@openzeppelin/contracts/access/Ownable.sol\";\n\ncontract EscrowFactory is Ownable {\n    address linkToken;\n    address oracle;\n    string jobId;\n    uint256 public maxLockPeriod;\n    uint256 public productCount;\n    mapping(uint256 => address) public products;\n\n    constructor(\n        address _linkToken,\n        address _oracle,\n        string memory _jobId,\n        uint256 _maxLockPeriod\n    ) {\n        require(_maxLockPeriod >= 0, \"lock period must be greater than 0\");\n        linkToken = _linkToken;\n        oracle = _oracle;\n        jobId = _jobId;\n        productCount = 0;\n        maxLockPeriod = _maxLockPeriod;\n    }\n\n    event ProductCreated(address indexed seller, address product);\n\n    function createProduct(\n        string memory _name,\n        uint256 _price,\n        uint256 _lockPeriod\n    ) external {\n        uint256 lockPeriod = _lockPeriod;\n        if (lockPeriod > maxLockPeriod) {\n            lockPeriod = maxLockPeriod;\n        }\n        uint256 newId = productCount;\n        bytes32 salt = keccak256(\n            abi.encodePacked(\n                linkToken,\n                oracle,\n                jobId,\n                newId,\n                _name,\n                msg.sender,\n                _price,\n                lockPeriod\n            )\n        );\n\n        address product = address(new Escrow{salt: salt}());\n\n        Escrow(product).init(\n            linkToken,\n            oracle,\n            jobId,\n            newId,\n            _name,\n            msg.sender,\n            _price,\n            lockPeriod\n        );\n\n        productCount++;\n        products[productCount] = product;\n\n        emit ProductCreated(msg.sender, product);\n    }\n\n    function setMaxLockPeriod(uint256 _maxLockPeriod) external onlyOwner {\n        require(_maxLockPeriod >= 0, \"lock period must be greater than 0\");\n        maxLockPeriod = _maxLockPeriod;\n    }\n}\n","sourcePath":"contracts/EscrowFactory.sol","type":"contract","deployment":{"address":"0x9d803fb72Dbb3E627A082E768CAc6DF61b598087","chainid":"42","blockHeight":28408640}}