{"bytecode":"608060405234801561001057600080fd5b506040516124b13803806124b183398101604081905261002f916100e7565b6100383361007b565b600180546001600160a01b039485166001600160a01b0319918216179091556002805493909416921691909117909155600391909155600060055560045561012b565b600080546001600160a01b038381166001600160a01b0319831681178455604051919092169283917f8be0079c531659141344cd1fd0a4f28419497f9722a3daafe3b4186f6b6457e09190a35050565b80516001600160a01b03811681146100e257600080fd5b919050565b600080600080608085870312156100fd57600080fd5b8451935061010d602086016100cb565b925061011b604086016100cb565b6060959095015193969295505050565b6123778061013a6000396000f3fe608060405234801561001057600080fd5b506004361061007d5760003560e01c80638da5cb5b1161005b5780638da5cb5b146100bb578063a06fc346146100d6578063e0f6ef87146100e9578063f2fde38b146100f257600080fd5b80634b1d29b41461008257806355889d011461009e578063715018a6146100b3575b600080fd5b61008b60045481565b6040519081526020015b60405180910390f35b6100b16100ac366004610533565b610105565b005b6100b161013d565b6000546040516001600160a01b039091168152602001610095565b6100b16100e43660046105ef565b610173565b61008b60055481565b6100b1610100366004610664565b61043b565b6000546001600160a01b031633146101385760405162461bcd60e51b815260040161012f90610694565b60405180910390fd5b600455565b6000546001600160a01b031633146101675760405162461bcd60e51b815260040161012f90610694565b61017160006104d6565b565b6004548111156101b95760405162461bcd60e51b8152602060048201526011602482015270496e76616c6964206c6f636b2074696d6560781b604482015260640161012f565b60055460405160009081906101d060208201610526565b601f1982820381018352601f909101166040818152602082018690526bffffffffffffffffffffffff193360601b169082015260548101889052909150600090607401604051602081830303815290604052805190602001209050808251602084016000f56040516312b383d560e31b81529093506001600160a01b0384169063959c1ea890610264908990600401610716565b600060405180830381600087803b15801561027e57600080fd5b505af1158015610292573d6000803e3d6000fd5b50505050826001600160a01b03166316833f3189600354600160009054906101000a90046001600160a01b0316600260009054906101000a90046001600160a01b0316338a8e8d670de0b6b3a76400006040518a63ffffffff1660e01b815260040161030699989796959493929190610729565b600060405180830381600087803b15801561032057600080fd5b505af1158015610334573d6000803e3d6000fd5b50506001546001600160a01b0316915063a9059cbb90508461035f670de0b6b3a7640000600361079d565b6040516001600160e01b031960e085901b1681526001600160a01b0390921660048301526024820152604401602060405180830381600087803b1580156103a557600080fd5b505af11580156103b9573d6000803e3d6000fd5b505050506040513d601f19601f820116820180604052508101906103dd91906107bc565b50600580549060006103ee836107de565b90915550506040516001600160a01b038416815233907fa66df2ac9413442073c2e47b33e555f5891823df7841196bd1f197175a12f8ae9060200160405180910390a25050505050505050565b6000546001600160a01b031633146104655760405162461bcd60e51b815260040161012f90610694565b6001600160a01b0381166104ca5760405162461bcd60e51b815260206004820152602660248201527f4f776e61626c653a206e6577206f776e657220697320746865207a65726f206160448201526564647265737360d01b606482015260840161012f565b6104d3816104d6565b50565b600080546001600160a01b038381166001600160a01b0319831681178455604051919092169283917f8be0079c531659141344cd1fd0a4f28419497f9722a3daafe3b4186f6b6457e09190a35050565b611b48806107fa83390190565b60006020828403121561054557600080fd5b5035919050565b634e487b7160e01b600052604160045260246000fd5b600082601f83011261057357600080fd5b813567ffffffffffffffff8082111561058e5761058e61054c565b604051601f8301601f19908116603f011681019082821181831017156105b6576105b661054c565b816040528381528660208588010111156105cf57600080fd5b836020870160208301376000602085830101528094505050505092915050565b6000806000806080858703121561060557600080fd5b843567ffffffffffffffff8082111561061d57600080fd5b61062988838901610562565b955060208701359450604087013591508082111561064657600080fd5b5061065387828801610562565b949793965093946060013593505050565b60006020828403121561067657600080fd5b81356001600160a01b038116811461068d57600080fd5b9392505050565b6020808252818101527f4f776e61626c653a2063616c6c6572206973206e6f7420746865206f776e6572604082015260600190565b6000815180845260005b818110156106ef576020818501810151868301820152016106d3565b81811115610701576000602083870101525b50601f01601f19169290920160200192915050565b60208152600061068d60208301846106c9565b600061012080835261073d8184018d6106c9565b602084019b909b5250506001600160a01b039788166040820152958716606087015293909516608085015260a084019190915260c083015260e08201929092526101000152919050565b634e487b7160e01b600052601160045260246000fd5b60008160001904831182151516156107b7576107b7610787565b500290565b6000602082840312156107ce57600080fd5b8151801515811461068d57600080fd5b60006000198214156107f2576107f2610787565b506001019056fe6080604052600160045534801561001557600080fd5b50600f80546001600160a01b03191633179055611b11806100376000396000f3fe60806040526004361061009c5760003560e01c80636b827cd4116100645780636b827cd41461012d5780637477475014610142578063959c1ea81461016c578063bf15071d1461018c578063bf9ce95214610194578063e12ed13c146101bf57600080fd5b806309d99f67146100a157806316833f31146100c3578063366e8e52146100e357806350737055146100f85780636a81654814610118575b600080fd5b3480156100ad57600080fd5b506100c16100bc366004611401565b6101e3565b005b3480156100cf57600080fd5b506100c16100de366004611504565b610402565b3480156100ef57600080fd5b506100c16104c1565b34801561010457600080fd5b506100c16101133660046115a2565b61058b565b34801561012457600080fd5b506100c1610667565b34801561013957600080fd5b506100c1610776565b34801561014e57600080fd5b50610157610906565b60405190151581526020015b60405180910390f35b34801561017857600080fd5b506100c16101873660046115a2565b610942565b6100c1610983565b3480156101a057600080fd5b506101a9610add565b6040516101639a99989796959493929190611645565b3480156101cb57600080fd5b506101d560095481565b604051908152602001610163565b60008281526005602052604090205482906001600160a01b031633146102615760405162461bcd60e51b815260206004820152602860248201527f536f75726365206d75737420626520746865206f7261636c65206f6620746865604482015267081c995c5d595cdd60c21b60648201526084015b60405180910390fd5b60008181526005602052604080822080546001600160a01b03191690555182917f7cc135e0cebb02c3480ae5d74d377283180a2601f8f644edf7987b009316c63a91a2600a829055604051639201de5560e01b81526004810183905273__strings_______________________________90639201de559060240160006040518083038186803b1580156102f457600080fd5b505af4158015610308573d6000803e3d6000fd5b505050506040513d6000823e601f3d908101601f1916820160405261033091908101906116f4565b604051635f69a5dd60e11b815273__strings_______________________________9163bed34bba916103669190600401611762565b60206040518083038186803b15801561037e57600080fd5b505af4158015610392573d6000803e3d6000fd5b505050506040513d601f19601f820116820180604052508101906103b691906117a0565b156103c957600b805460ff191660031790555b6040518281527f65fb20badd0fcfd3bf3ba0ca9bfe4ec522640041a07decd17f1be1fb0ead4f4a906020015b60405180910390a1505050565b600f546001600160a01b0316331461042c5760405162461bcd60e51b8152600401610258906117c2565b600280546001600160a01b0319166001600160a01b038916179055600780546001600160a01b0319166001600160a01b03881617905560088890556006819055600c849055600e82905588516104899060129060208c019061132d565b5050600b805460ff1916905550600f80546001600160a01b0319166001600160a01b03949094169390931790925550600d5550505050565b600f546001600160a01b031633146104eb5760405162461bcd60e51b8152600401610258906117c2565b60408051808201909152600d81526c496e76616c696420537461676560981b602082015260039081600b5460ff16600481111561052a5761052a6115d7565b14819061054a5760405162461bcd60e51b815260040161025891906117e6565b50600b8054600460ff1990911617905560405133904780156108fc02916000818181858888f19350505050158015610586573d6000803e3d6000fd5b505050565b600f546001600160a01b031633146105b55760405162461bcd60e51b8152600401610258906117c2565b60408051808201909152600d81526c496e76616c696420537461676560981b602082015260019081600b5460ff1660048111156105f4576105f46115d7565b1481906106145760405162461bcd60e51b815260040161025891906117e6565b50600b805460ff19166002179055825161063590601190602086019061132d565b506040517f1862cf7a0e12bac162f518f43c2f50df187e89045899a7c015c1d61d9880a11b906103f59060119061182e565b6010546001600160a01b031633146106ae5760405162461bcd60e51b815260206004820152600a60248201526927b7363c90213abcb2b960b11b6044820152606401610258565b6106b6610906565b6107025760405162461bcd60e51b815260206004820152601b60248201527f4e6f7420616c6c6f77656420746f2063616e63656c206f7264657200000000006044820152606401610258565b601080546001600160a01b0319169055600b805460ff1916905560405133904780156108fc02916000818181858888f19350505050158015610748573d6000803e3d6000fd5b5060405133907f393629f15e859a19530bab9675f9d39f0f57889f19f883bc5be3533c4a2c9ea890600090a2565b60408051808201909152600d81526c13995959081cda1a5c1b595b9d609a1b602082015260029081600b5460ff1660048111156107b5576107b56115d7565b1481906107d55760405162461bcd60e51b815260040161025891906117e6565b5060006107ec600854306309d99f6760e01b610cbe565b90506108b26040518060400160405280600a8152602001691d1c9858dada5b99d25960b21b815250600a6007018054610824906117f9565b80601f0160208091040260200160405190810160405280929190818152602001828054610850906117f9565b801561089d5780601f106108725761010080835404028352916020019161089d565b820191906000526020600020905b81548152906001019060200180831161088057829003601f168201915b505050505083610ce39092919063ffffffff16565b6007546006546000916108d2916001600160a01b03909116908490610d01565b60405190915081907fb5e6e01e79f91267dc17b4e6314d5d4d03593d2ceee0fbb452b750bd70ea5af990600090a250505050565b600e54600954600091610918916118ec565b431015801561093d57506001600b5460ff16600481111561093b5761093b6115d7565b145b905090565b600f546001600160a01b0316331461096c5760405162461bcd60e51b8152600401610258906117c2565b805161097f90601390602084019061132d565b5050565b60408051808201909152601481527320b63932b0b23c903430bb32903090313abcb2b960611b602082015260009081600b5460ff1660048111156109c9576109c96115d7565b1481906109e95760405162461bcd60e51b815260040161025891906117e6565b50600f546001600160a01b0316331415610a455760405162461bcd60e51b815260206004820152601d60248201527f596f752063616e206e6f74206275792066726f6d20796f757273656c660000006044820152606401610258565b600d54341015610a895760405162461bcd60e51b815260206004820152600f60248201526e139bdd08195b9bdd59da08199d5b99608a1b6044820152606401610258565b600b805460ff1916600117905560108054336001600160a01b03199091168117909155436009556040517fe4caeaef8e4f0c4880839ca47219351b38cf4116c082fd0baefc3008e4ba11a390600090a25050565b600a8054600b54600c54600d54600e54600f5460105460118054979860ff909716979596949593946001600160a01b03938416949390921692610b1f906117f9565b80601f0160208091040260200160405190810160405280929190818152602001828054610b4b906117f9565b8015610b985780601f10610b6d57610100808354040283529160200191610b98565b820191906000526020600020905b815481529060010190602001808311610b7b57829003601f168201915b505050505090806008018054610bad906117f9565b80601f0160208091040260200160405190810160405280929190818152602001828054610bd9906117f9565b8015610c265780601f10610bfb57610100808354040283529160200191610c26565b820191906000526020600020905b815481529060010190602001808311610c0957829003601f168201915b505050505090806009018054610c3b906117f9565b80601f0160208091040260200160405190810160405280929190818152602001828054610c67906117f9565b8015610cb45780601f10610c8957610100808354040283529160200191610cb4565b820191906000526020600020905b815481529060010190602001808311610c9757829003601f168201915b505050505090508a565b610cc66113b1565b610cce6113b1565b610cda81868686610d20565b95945050505050565b6080830151610cf29083610d5d565b60808301516105869082610d5d565b6000610d1884848460016320214ca360e11b610d74565b949350505050565b610d286113b1565b610d388560800151610100610f80565b50509183526001600160a01b031660208301526001600160e01b031916604082015290565b610d6a8260038351610feb565b61058682826110bf565b6004546040516bffffffffffffffffffffffff193060601b166020820152603481019190915260009060540160408051808303601f19018152918152815160209283012060045460608901526000818152600590935281832080546001600160a01b0319166001600160a01b038b16179055905190925082917fb5e6e01e79f91267dc17b4e6314d5d4d03593d2ceee0fbb452b750bd70ea5af991a2600082600080886000015189602001518a604001518b606001518a8d6080015160000151604051602401610e4b989796959493929190611904565b60408051601f198184030181529181526020820180516001600160e01b03166001600160e01b0319909416939093179092526002549151630200057560e51b81529092506001600160a01b0390911690634000aea090610eb3908a908990869060040161196c565b602060405180830381600087803b158015610ecd57600080fd5b505af1158015610ee1573d6000803e3d6000fd5b505050506040513d601f19601f82011682018060405250810190610f0591906117a0565b610f5d5760405162461bcd60e51b815260206004820152602360248201527f756e61626c6520746f207472616e73666572416e6443616c6c20746f206f7261604482015262636c6560e81b6064820152608401610258565b600160046000828254610f7091906118ec565b9091555091979650505050505050565b604080518082019091526060815260006020820152610fa0602083611993565b15610fc857610fb0602083611993565b610fbb9060206119b5565b610fc590836118ec565b91505b506020808301829052604080518085526000815283019091019052815b92915050565b6017811161100c576110068360e0600585901b1683176110ed565b50505050565b60ff811161103657611029836018611fe0600586901b16176110ed565b5061100683826001611112565b61ffff811161106157611054836019611fe0600586901b16176110ed565b5061100683826002611112565b63ffffffff811161108e5761108183601a611fe0600586901b16176110ed565b5061100683826004611112565b67ffffffffffffffff8111610586576110b283601b611fe0600586901b16176110ed565b5061100683826008611112565b6040805180820190915260608152600060208201526110e683846000015151848551611138565b9392505050565b6040805180820190915260608152600060208201526110e68384600001515184611222565b604080518082019091526060815260006020820152610d1884856000015151858561127e565b604080518082019091526060815260006020820152825182111561115b57600080fd5b602085015161116a83866118ec565b111561119d5761119d8561118d8760200151878661118891906118ec565b6112ff565b6111989060026119cc565b611316565b6000808651805187602083010193508088870111156111bc5787860182525b505050602084015b602084106111fc57805182526111db6020836118ec565b91506111e86020826118ec565b90506111f56020856119b5565b93506111c4565b51815160001960208690036101000a019081169019919091161790525083949350505050565b6040805180820190915260608152600060208201528360200151831061125757611257848560200151600261119891906119cc565b835180516020858301018481535080851415611274576001810182525b5093949350505050565b60408051808201909152606081526000602082015260208501516112a285846118ec565b11156112b6576112b68561118d86856118ec565b600060016112c684610100611acf565b6112d091906119b5565b90508551838682010185831982511617815250805184870111156112f45783860181525b509495945050505050565b600081831115611310575081610fe5565b50919050565b81516113228383610f80565b5061100683826110bf565b828054611339906117f9565b90600052602060002090601f01602090048101928261135b57600085556113a1565b82601f1061137457805160ff19168380011785556113a1565b828001600101855582156113a1579182015b828111156113a1578251825591602001919060010190611386565b506113ad9291506113ec565b5090565b6040805160a0810182526000808252602080830182905282840182905260608084018390528451808601909552845283015290608082015290565b5b808211156113ad57600081556001016113ed565b6000806040838503121561141457600080fd5b50508035926020909101359150565b634e487b7160e01b600052604160045260246000fd5b604051601f8201601f1916810167ffffffffffffffff8111828210171561146257611462611423565b604052919050565b600067ffffffffffffffff82111561148457611484611423565b50601f01601f191660200190565b600082601f8301126114a357600080fd5b81356114b66114b18261146a565b611439565b8181528460208386010111156114cb57600080fd5b816020850160208301376000918101602001919091529392505050565b80356001600160a01b03811681146114ff57600080fd5b919050565b60008060008060008060008060006101208a8c03121561152357600080fd5b893567ffffffffffffffff81111561153a57600080fd5b6115468c828d01611492565b99505060208a0135975061155c60408b016114e8565b965061156a60608b016114e8565b955061157860808b016114e8565b989b979a50959894979660a0860135965060c08601359560e0810135955061010001359350915050565b6000602082840312156115b457600080fd5b813567ffffffffffffffff8111156115cb57600080fd5b610d1884828501611492565b634e487b7160e01b600052602160045260246000fd5b60005b838110156116085781810151838201526020016115f0565b838111156110065750506000910152565b600081518084526116318160208601602086016115ed565b601f01601f19169290920160200192915050565b60006101408c835260058c1061166b57634e487b7160e01b600052602160045260246000fd5b8b60208401528a604084015289606084015288608084015261169860a08401896001600160a01b03169052565b6001600160a01b03871660c08401528060e08401526116b981840187611619565b90508281036101008401526116ce8186611619565b90508281036101208401526116e38185611619565b9d9c50505050505050505050505050565b60006020828403121561170657600080fd5b815167ffffffffffffffff81111561171d57600080fd5b8201601f8101841361172e57600080fd5b805161173c6114b18261146a565b81815285602083850101111561175157600080fd5b610cda8260208301602086016115ed565b6040815260006117756040830184611619565b8281036020840152600981526811195b1a5d995c995960ba1b60208201526040810191505092915050565b6000602082840312156117b257600080fd5b815180151581146110e657600080fd5b6020808252600a908201526927b7363c9027bbb732b960b11b604082015260600190565b6020815260006110e66020830184611619565b600181811c9082168061180d57607f821691505b6020821081141561131057634e487b7160e01b600052602260045260246000fd5b600060208083526000845481600182811c91508083168061185057607f831692505b85831081141561186e57634e487b7160e01b85526022600452602485fd5b87860183815260200181801561188b576001811461189c576118c7565b60ff198616825287820196506118c7565b60008b81526020902060005b868110156118c1578154848201529085019089016118a8565b83019750505b50949998505050505050505050565b634e487b7160e01b600052601160045260246000fd5b600082198211156118ff576118ff6118d6565b500190565b6001600160a01b0389811682526020820189905260408201889052861660608201526001600160e01b03198516608082015260a0810184905260c0810183905261010060e0820181905260009061195d83820185611619565b9b9a5050505050505050505050565b60018060a01b0384168152826020820152606060408201526000610cda6060830184611619565b6000826119b057634e487b7160e01b600052601260045260246000fd5b500690565b6000828210156119c7576119c76118d6565b500390565b60008160001904831182151516156119e6576119e66118d6565b500290565b600181815b80851115611a26578160001904821115611a0c57611a0c6118d6565b80851615611a1957918102915b93841c93908002906119f0565b509250929050565b600082611a3d57506001610fe5565b81611a4a57506000610fe5565b8160018114611a605760028114611a6a57611a86565b6001915050610fe5565b60ff841115611a7b57611a7b6118d6565b50506001821b610fe5565b5060208310610133831016604e8410600b8410161715611aa9575081810a610fe5565b611ab383836119eb565b8060001904821115611ac757611ac76118d6565b029392505050565b60006110e68383611a2e56fea2646970667358221220e3674c632c01eaab69a9b4813581d831b3fb6a089d13982915a62d69deb42f5264736f6c63430008090033a26469706673582212205f356a28ebcd247aef32ac4380bdb22582ce0eeccddea1badcafb9872518c7ad64736f6c63430008090033","bytecodeSha1":"4f2d05ec89b15451df9c19f8d544d5937f293fc6","type":"contract","abi":[{"inputs":[{"internalType":"bytes32","name":"_jobId","type":"bytes32"},{"internalType":"address","name":"_linkToken","type":"address"},{"internalType":"address","name":"_oracle","type":"address"},{"internalType":"uint256","name":"_maxLockPeriod","type":"uint256"}],"stateMutability":"nonpayable","type":"constructor","name":"constructor"},{"anonymous":false,"inputs":[{"indexed":true,"internalType":"address","name":"previousOwner","type":"address"},{"indexed":true,"internalType":"address","name":"newOwner","type":"address"}],"name":"OwnershipTransferred","type":"event"},{"anonymous":false,"inputs":[{"indexed":true,"internalType":"address","name":"seller","type":"address"},{"indexed":false,"internalType":"address","name":"product","type":"address"}],"name":"ProductCreated","type":"event"},{"inputs":[{"internalType":"string","name":"_name","type":"string"},{"internalType":"uint256","name":"_price","type":"uint256"},{"internalType":"string","name":"_productURI","type":"string"},{"internalType":"uint256","name":"_lockPeriod","type":"uint256"}],"name":"createProduct","outputs":[],"stateMutability":"nonpayable","type":"function"},{"inputs":[],"name":"maxLockPeriod","outputs":[{"internalType":"uint256","name":"","type":"uint256"}],"stateMutability":"view","type":"function"},{"inputs":[],"name":"owner","outputs":[{"internalType":"address","name":"","type":"address"}],"stateMutability":"view","type":"function"},{"inputs":[],"name":"productCount","outputs":[{"internalType":"uint256","name":"","type":"uint256"}],"stateMutability":"view","type":"function"},{"inputs":[],"name":"renounceOwnership","outputs":[],"stateMutability":"nonpayable","type":"function"},{"inputs":[{"internalType":"uint256","name":"_maxLockPeriod","type":"uint256"}],"name":"setMaxLockPeriod","outputs":[],"stateMutability":"nonpayable","type":"function"},{"inputs":[{"internalType":"address","name":"newOwner","type":"address"}],"name":"transferOwnership","outputs":[],"stateMutability":"nonpayable","type":"function"}],"compiler":{"version":"0.8.9+commit.e5eed63a","evm_version":"istanbul","optimizer":{"enabled":true,"runs":200}},"contractName":"EscrowFactory","deployedBytecode":"608060405234801561001057600080fd5b506004361061007d5760003560e01c80638da5cb5b1161005b5780638da5cb5b146100bb578063a06fc346146100d6578063e0f6ef87146100e9578063f2fde38b146100f257600080fd5b80634b1d29b41461008257806355889d011461009e578063715018a6146100b3575b600080fd5b61008b60045481565b6040519081526020015b60405180910390f35b6100b16100ac366004610533565b610105565b005b6100b161013d565b6000546040516001600160a01b039091168152602001610095565b6100b16100e43660046105ef565b610173565b61008b60055481565b6100b1610100366004610664565b61043b565b6000546001600160a01b031633146101385760405162461bcd60e51b815260040161012f90610694565b60405180910390fd5b600455565b6000546001600160a01b031633146101675760405162461bcd60e51b815260040161012f90610694565b61017160006104d6565b565b6004548111156101b95760405162461bcd60e51b8152602060048201526011602482015270496e76616c6964206c6f636b2074696d6560781b604482015260640161012f565b60055460405160009081906101d060208201610526565b601f1982820381018352601f909101166040818152602082018690526bffffffffffffffffffffffff193360601b169082015260548101889052909150600090607401604051602081830303815290604052805190602001209050808251602084016000f56040516312b383d560e31b81529093506001600160a01b0384169063959c1ea890610264908990600401610716565b600060405180830381600087803b15801561027e57600080fd5b505af1158015610292573d6000803e3d6000fd5b50505050826001600160a01b03166316833f3189600354600160009054906101000a90046001600160a01b0316600260009054906101000a90046001600160a01b0316338a8e8d670de0b6b3a76400006040518a63ffffffff1660e01b815260040161030699989796959493929190610729565b600060405180830381600087803b15801561032057600080fd5b505af1158015610334573d6000803e3d6000fd5b50506001546001600160a01b0316915063a9059cbb90508461035f670de0b6b3a7640000600361079d565b6040516001600160e01b031960e085901b1681526001600160a01b0390921660048301526024820152604401602060405180830381600087803b1580156103a557600080fd5b505af11580156103b9573d6000803e3d6000fd5b505050506040513d601f19601f820116820180604052508101906103dd91906107bc565b50600580549060006103ee836107de565b90915550506040516001600160a01b038416815233907fa66df2ac9413442073c2e47b33e555f5891823df7841196bd1f197175a12f8ae9060200160405180910390a25050505050505050565b6000546001600160a01b031633146104655760405162461bcd60e51b815260040161012f90610694565b6001600160a01b0381166104ca5760405162461bcd60e51b815260206004820152602660248201527f4f776e61626c653a206e6577206f776e657220697320746865207a65726f206160448201526564647265737360d01b606482015260840161012f565b6104d3816104d6565b50565b600080546001600160a01b038381166001600160a01b0319831681178455604051919092169283917f8be0079c531659141344cd1fd0a4f28419497f9722a3daafe3b4186f6b6457e09190a35050565b611b48806107fa83390190565b60006020828403121561054557600080fd5b5035919050565b634e487b7160e01b600052604160045260246000fd5b600082601f83011261057357600080fd5b813567ffffffffffffffff8082111561058e5761058e61054c565b604051601f8301601f19908116603f011681019082821181831017156105b6576105b661054c565b816040528381528660208588010111156105cf57600080fd5b836020870160208301376000602085830101528094505050505092915050565b6000806000806080858703121561060557600080fd5b843567ffffffffffffffff8082111561061d57600080fd5b61062988838901610562565b955060208701359450604087013591508082111561064657600080fd5b5061065387828801610562565b949793965093946060013593505050565b60006020828403121561067657600080fd5b81356001600160a01b038116811461068d57600080fd5b9392505050565b6020808252818101527f4f776e61626c653a2063616c6c6572206973206e6f7420746865206f776e6572604082015260600190565b6000815180845260005b818110156106ef576020818501810151868301820152016106d3565b81811115610701576000602083870101525b50601f01601f19169290920160200192915050565b60208152600061068d60208301846106c9565b600061012080835261073d8184018d6106c9565b602084019b909b5250506001600160a01b039788166040820152958716606087015293909516608085015260a084019190915260c083015260e08201929092526101000152919050565b634e487b7160e01b600052601160045260246000fd5b60008160001904831182151516156107b7576107b7610787565b500290565b6000602082840312156107ce57600080fd5b8151801515811461068d57600080fd5b60006000198214156107f2576107f2610787565b506001019056fe6080604052600160045534801561001557600080fd5b50600f80546001600160a01b03191633179055611b11806100376000396000f3fe60806040526004361061009c5760003560e01c80636b827cd4116100645780636b827cd41461012d5780637477475014610142578063959c1ea81461016c578063bf15071d1461018c578063bf9ce95214610194578063e12ed13c146101bf57600080fd5b806309d99f67146100a157806316833f31146100c3578063366e8e52146100e357806350737055146100f85780636a81654814610118575b600080fd5b3480156100ad57600080fd5b506100c16100bc366004611401565b6101e3565b005b3480156100cf57600080fd5b506100c16100de366004611504565b610402565b3480156100ef57600080fd5b506100c16104c1565b34801561010457600080fd5b506100c16101133660046115a2565b61058b565b34801561012457600080fd5b506100c1610667565b34801561013957600080fd5b506100c1610776565b34801561014e57600080fd5b50610157610906565b60405190151581526020015b60405180910390f35b34801561017857600080fd5b506100c16101873660046115a2565b610942565b6100c1610983565b3480156101a057600080fd5b506101a9610add565b6040516101639a99989796959493929190611645565b3480156101cb57600080fd5b506101d560095481565b604051908152602001610163565b60008281526005602052604090205482906001600160a01b031633146102615760405162461bcd60e51b815260206004820152602860248201527f536f75726365206d75737420626520746865206f7261636c65206f6620746865604482015267081c995c5d595cdd60c21b60648201526084015b60405180910390fd5b60008181526005602052604080822080546001600160a01b03191690555182917f7cc135e0cebb02c3480ae5d74d377283180a2601f8f644edf7987b009316c63a91a2600a829055604051639201de5560e01b81526004810183905273__$aadc688bcea560502e0213413fe0dcbaa2$__90639201de559060240160006040518083038186803b1580156102f457600080fd5b505af4158015610308573d6000803e3d6000fd5b505050506040513d6000823e601f3d908101601f1916820160405261033091908101906116f4565b604051635f69a5dd60e11b815273__$aadc688bcea560502e0213413fe0dcbaa2$__9163bed34bba916103669190600401611762565b60206040518083038186803b15801561037e57600080fd5b505af4158015610392573d6000803e3d6000fd5b505050506040513d601f19601f820116820180604052508101906103b691906117a0565b156103c957600b805460ff191660031790555b6040518281527f65fb20badd0fcfd3bf3ba0ca9bfe4ec522640041a07decd17f1be1fb0ead4f4a906020015b60405180910390a1505050565b600f546001600160a01b0316331461042c5760405162461bcd60e51b8152600401610258906117c2565b600280546001600160a01b0319166001600160a01b038916179055600780546001600160a01b0319166001600160a01b03881617905560088890556006819055600c849055600e82905588516104899060129060208c019061132d565b5050600b805460ff1916905550600f80546001600160a01b0319166001600160a01b03949094169390931790925550600d5550505050565b600f546001600160a01b031633146104eb5760405162461bcd60e51b8152600401610258906117c2565b60408051808201909152600d81526c496e76616c696420537461676560981b602082015260039081600b5460ff16600481111561052a5761052a6115d7565b14819061054a5760405162461bcd60e51b815260040161025891906117e6565b50600b8054600460ff1990911617905560405133904780156108fc02916000818181858888f19350505050158015610586573d6000803e3d6000fd5b505050565b600f546001600160a01b031633146105b55760405162461bcd60e51b8152600401610258906117c2565b60408051808201909152600d81526c496e76616c696420537461676560981b602082015260019081600b5460ff1660048111156105f4576105f46115d7565b1481906106145760405162461bcd60e51b815260040161025891906117e6565b50600b805460ff19166002179055825161063590601190602086019061132d565b506040517f1862cf7a0e12bac162f518f43c2f50df187e89045899a7c015c1d61d9880a11b906103f59060119061182e565b6010546001600160a01b031633146106ae5760405162461bcd60e51b815260206004820152600a60248201526927b7363c90213abcb2b960b11b6044820152606401610258565b6106b6610906565b6107025760405162461bcd60e51b815260206004820152601b60248201527f4e6f7420616c6c6f77656420746f2063616e63656c206f7264657200000000006044820152606401610258565b601080546001600160a01b0319169055600b805460ff1916905560405133904780156108fc02916000818181858888f19350505050158015610748573d6000803e3d6000fd5b5060405133907f393629f15e859a19530bab9675f9d39f0f57889f19f883bc5be3533c4a2c9ea890600090a2565b60408051808201909152600d81526c13995959081cda1a5c1b595b9d609a1b602082015260029081600b5460ff1660048111156107b5576107b56115d7565b1481906107d55760405162461bcd60e51b815260040161025891906117e6565b5060006107ec600854306309d99f6760e01b610cbe565b90506108b26040518060400160405280600a8152602001691d1c9858dada5b99d25960b21b815250600a6007018054610824906117f9565b80601f0160208091040260200160405190810160405280929190818152602001828054610850906117f9565b801561089d5780601f106108725761010080835404028352916020019161089d565b820191906000526020600020905b81548152906001019060200180831161088057829003601f168201915b505050505083610ce39092919063ffffffff16565b6007546006546000916108d2916001600160a01b03909116908490610d01565b60405190915081907fb5e6e01e79f91267dc17b4e6314d5d4d03593d2ceee0fbb452b750bd70ea5af990600090a250505050565b600e54600954600091610918916118ec565b431015801561093d57506001600b5460ff16600481111561093b5761093b6115d7565b145b905090565b600f546001600160a01b0316331461096c5760405162461bcd60e51b8152600401610258906117c2565b805161097f90601390602084019061132d565b5050565b60408051808201909152601481527320b63932b0b23c903430bb32903090313abcb2b960611b602082015260009081600b5460ff1660048111156109c9576109c96115d7565b1481906109e95760405162461bcd60e51b815260040161025891906117e6565b50600f546001600160a01b0316331415610a455760405162461bcd60e51b815260206004820152601d60248201527f596f752063616e206e6f74206275792066726f6d20796f757273656c660000006044820152606401610258565b600d54341015610a895760405162461bcd60e51b815260206004820152600f60248201526e139bdd08195b9bdd59da08199d5b99608a1b6044820152606401610258565b600b805460ff1916600117905560108054336001600160a01b03199091168117909155436009556040517fe4caeaef8e4f0c4880839ca47219351b38cf4116c082fd0baefc3008e4ba11a390600090a25050565b600a8054600b54600c54600d54600e54600f5460105460118054979860ff909716979596949593946001600160a01b03938416949390921692610b1f906117f9565b80601f0160208091040260200160405190810160405280929190818152602001828054610b4b906117f9565b8015610b985780601f10610b6d57610100808354040283529160200191610b98565b820191906000526020600020905b815481529060010190602001808311610b7b57829003601f168201915b505050505090806008018054610bad906117f9565b80601f0160208091040260200160405190810160405280929190818152602001828054610bd9906117f9565b8015610c265780601f10610bfb57610100808354040283529160200191610c26565b820191906000526020600020905b815481529060010190602001808311610c0957829003601f168201915b505050505090806009018054610c3b906117f9565b80601f0160208091040260200160405190810160405280929190818152602001828054610c67906117f9565b8015610cb45780601f10610c8957610100808354040283529160200191610cb4565b820191906000526020600020905b815481529060010190602001808311610c9757829003601f168201915b505050505090508a565b610cc66113b1565b610cce6113b1565b610cda81868686610d20565b95945050505050565b6080830151610cf29083610d5d565b60808301516105869082610d5d565b6000610d1884848460016320214ca360e11b610d74565b949350505050565b610d286113b1565b610d388560800151610100610f80565b50509183526001600160a01b031660208301526001600160e01b031916604082015290565b610d6a8260038351610feb565b61058682826110bf565b6004546040516bffffffffffffffffffffffff193060601b166020820152603481019190915260009060540160408051808303601f19018152918152815160209283012060045460608901526000818152600590935281832080546001600160a01b0319166001600160a01b038b16179055905190925082917fb5e6e01e79f91267dc17b4e6314d5d4d03593d2ceee0fbb452b750bd70ea5af991a2600082600080886000015189602001518a604001518b606001518a8d6080015160000151604051602401610e4b989796959493929190611904565b60408051601f198184030181529181526020820180516001600160e01b03166001600160e01b0319909416939093179092526002549151630200057560e51b81529092506001600160a01b0390911690634000aea090610eb3908a908990869060040161196c565b602060405180830381600087803b158015610ecd57600080fd5b505af1158015610ee1573d6000803e3d6000fd5b505050506040513d601f19601f82011682018060405250810190610f0591906117a0565b610f5d5760405162461bcd60e51b815260206004820152602360248201527f756e61626c6520746f207472616e73666572416e6443616c6c20746f206f7261604482015262636c6560e81b6064820152608401610258565b600160046000828254610f7091906118ec565b9091555091979650505050505050565b604080518082019091526060815260006020820152610fa0602083611993565b15610fc857610fb0602083611993565b610fbb9060206119b5565b610fc590836118ec565b91505b506020808301829052604080518085526000815283019091019052815b92915050565b6017811161100c576110068360e0600585901b1683176110ed565b50505050565b60ff811161103657611029836018611fe0600586901b16176110ed565b5061100683826001611112565b61ffff811161106157611054836019611fe0600586901b16176110ed565b5061100683826002611112565b63ffffffff811161108e5761108183601a611fe0600586901b16176110ed565b5061100683826004611112565b67ffffffffffffffff8111610586576110b283601b611fe0600586901b16176110ed565b5061100683826008611112565b6040805180820190915260608152600060208201526110e683846000015151848551611138565b9392505050565b6040805180820190915260608152600060208201526110e68384600001515184611222565b604080518082019091526060815260006020820152610d1884856000015151858561127e565b604080518082019091526060815260006020820152825182111561115b57600080fd5b602085015161116a83866118ec565b111561119d5761119d8561118d8760200151878661118891906118ec565b6112ff565b6111989060026119cc565b611316565b6000808651805187602083010193508088870111156111bc5787860182525b505050602084015b602084106111fc57805182526111db6020836118ec565b91506111e86020826118ec565b90506111f56020856119b5565b93506111c4565b51815160001960208690036101000a019081169019919091161790525083949350505050565b6040805180820190915260608152600060208201528360200151831061125757611257848560200151600261119891906119cc565b835180516020858301018481535080851415611274576001810182525b5093949350505050565b60408051808201909152606081526000602082015260208501516112a285846118ec565b11156112b6576112b68561118d86856118ec565b600060016112c684610100611acf565b6112d091906119b5565b90508551838682010185831982511617815250805184870111156112f45783860181525b509495945050505050565b600081831115611310575081610fe5565b50919050565b81516113228383610f80565b5061100683826110bf565b828054611339906117f9565b90600052602060002090601f01602090048101928261135b57600085556113a1565b82601f1061137457805160ff19168380011785556113a1565b828001600101855582156113a1579182015b828111156113a1578251825591602001919060010190611386565b506113ad9291506113ec565b5090565b6040805160a0810182526000808252602080830182905282840182905260608084018390528451808601909552845283015290608082015290565b5b808211156113ad57600081556001016113ed565b6000806040838503121561141457600080fd5b50508035926020909101359150565b634e487b7160e01b600052604160045260246000fd5b604051601f8201601f1916810167ffffffffffffffff8111828210171561146257611462611423565b604052919050565b600067ffffffffffffffff82111561148457611484611423565b50601f01601f191660200190565b600082601f8301126114a357600080fd5b81356114b66114b18261146a565b611439565b8181528460208386010111156114cb57600080fd5b816020850160208301376000918101602001919091529392505050565b80356001600160a01b03811681146114ff57600080fd5b919050565b60008060008060008060008060006101208a8c03121561152357600080fd5b893567ffffffffffffffff81111561153a57600080fd5b6115468c828d01611492565b99505060208a0135975061155c60408b016114e8565b965061156a60608b016114e8565b955061157860808b016114e8565b989b979a50959894979660a0860135965060c08601359560e0810135955061010001359350915050565b6000602082840312156115b457600080fd5b813567ffffffffffffffff8111156115cb57600080fd5b610d1884828501611492565b634e487b7160e01b600052602160045260246000fd5b60005b838110156116085781810151838201526020016115f0565b838111156110065750506000910152565b600081518084526116318160208601602086016115ed565b601f01601f19169290920160200192915050565b60006101408c835260058c1061166b57634e487b7160e01b600052602160045260246000fd5b8b60208401528a604084015289606084015288608084015261169860a08401896001600160a01b03169052565b6001600160a01b03871660c08401528060e08401526116b981840187611619565b90508281036101008401526116ce8186611619565b90508281036101208401526116e38185611619565b9d9c50505050505050505050505050565b60006020828403121561170657600080fd5b815167ffffffffffffffff81111561171d57600080fd5b8201601f8101841361172e57600080fd5b805161173c6114b18261146a565b81815285602083850101111561175157600080fd5b610cda8260208301602086016115ed565b6040815260006117756040830184611619565b8281036020840152600981526811195b1a5d995c995960ba1b60208201526040810191505092915050565b6000602082840312156117b257600080fd5b815180151581146110e657600080fd5b6020808252600a908201526927b7363c9027bbb732b960b11b604082015260600190565b6020815260006110e66020830184611619565b600181811c9082168061180d57607f821691505b6020821081141561131057634e487b7160e01b600052602260045260246000fd5b600060208083526000845481600182811c91508083168061185057607f831692505b85831081141561186e57634e487b7160e01b85526022600452602485fd5b87860183815260200181801561188b576001811461189c576118c7565b60ff198616825287820196506118c7565b60008b81526020902060005b868110156118c1578154848201529085019089016118a8565b83019750505b50949998505050505050505050565b634e487b7160e01b600052601160045260246000fd5b600082198211156118ff576118ff6118d6565b500190565b6001600160a01b0389811682526020820189905260408201889052861660608201526001600160e01b03198516608082015260a0810184905260c0810183905261010060e0820181905260009061195d83820185611619565b9b9a5050505050505050505050565b60018060a01b0384168152826020820152606060408201526000610cda6060830184611619565b6000826119b057634e487b7160e01b600052601260045260246000fd5b500690565b6000828210156119c7576119c76118d6565b500390565b60008160001904831182151516156119e6576119e66118d6565b500290565b600181815b80851115611a26578160001904821115611a0c57611a0c6118d6565b80851615611a1957918102915b93841c93908002906119f0565b509250929050565b600082611a3d57506001610fe5565b81611a4a57506000610fe5565b8160018114611a605760028114611a6a57611a86565b6001915050610fe5565b60ff841115611a7b57611a7b6118d6565b50506001821b610fe5565b5060208310610133831016604e8410600b8410161715611aa9575081810a610fe5565b611ab383836119eb565b8060001904821115611ac757611ac76118d6565b029392505050565b60006110e68383611a2e56fea2646970667358221220e3674c632c01eaab69a9b4813581d831b3fb6a089d13982915a62d69deb42f5264736f6c63430008090033a26469706673582212205f356a28ebcd247aef32ac4380bdb22582ce0eeccddea1badcafb9872518c7ad64736f6c63430008090033","language":"Solidity","natspec":{"methods":{"owner()":{"details":"Returns the address of the current owner."},"renounceOwnership()":{"details":"Leaves the contract without owner. It will not be possible to call `onlyOwner` functions anymore. Can only be called by the current owner. NOTE: Renouncing ownership will leave the contract without an owner, thereby removing any functionality that is only available to the owner."},"transferOwnership(address)":{"details":"Transfers ownership of the contract to a new account (`newOwner`). Can only be called by the current owner."}},"kind":"dev","version":1},"opcodes":"PUSH1 0x80 PUSH1 0x40 MSTORE CALLVALUE DUP1 ISZERO PUSH2 0x10 JUMPI PUSH1 0x0 DUP1 REVERT JUMPDEST POP PUSH1 0x4 CALLDATASIZE LT PUSH2 0x7D JUMPI PUSH1 0x0 CALLDATALOAD PUSH1 0xE0 SHR DUP1 PUSH4 0x8DA5CB5B GT PUSH2 0x5B JUMPI DUP1 PUSH4 0x8DA5CB5B EQ PUSH2 0xBB JUMPI DUP1 PUSH4 0xA06FC346 EQ PUSH2 0xD6 JUMPI DUP1 PUSH4 0xE0F6EF87 EQ PUSH2 0xE9 JUMPI DUP1 PUSH4 0xF2FDE38B EQ PUSH2 0xF2 JUMPI PUSH1 0x0 DUP1 REVERT JUMPDEST DUP1 PUSH4 0x4B1D29B4 EQ PUSH2 0x82 JUMPI DUP1 PUSH4 0x55889D01 EQ PUSH2 0x9E JUMPI DUP1 PUSH4 0x715018A6 EQ PUSH2 0xB3 JUMPI JUMPDEST PUSH1 0x0 DUP1 REVERT JUMPDEST PUSH2 0x8B PUSH1 0x4 SLOAD DUP2 JUMP JUMPDEST PUSH1 0x40 MLOAD SWAP1 DUP2 MSTORE PUSH1 0x20 ADD JUMPDEST PUSH1 0x40 MLOAD DUP1 SWAP2 SUB SWAP1 RETURN JUMPDEST PUSH2 0xB1 PUSH2 0xAC CALLDATASIZE PUSH1 0x4 PUSH2 0x533 JUMP JUMPDEST PUSH2 0x105 JUMP JUMPDEST STOP JUMPDEST PUSH2 0xB1 PUSH2 0x13D JUMP JUMPDEST PUSH1 0x0 SLOAD PUSH1 0x40 MLOAD PUSH1 0x1 PUSH1 0x1 PUSH1 0xA0 SHL SUB SWAP1 SWAP2 AND DUP2 MSTORE PUSH1 0x20 ADD PUSH2 0x95 JUMP JUMPDEST PUSH2 0xB1 PUSH2 0xE4 CALLDATASIZE PUSH1 0x4 PUSH2 0x5EF JUMP JUMPDEST PUSH2 0x173 JUMP JUMPDEST PUSH2 0x8B PUSH1 0x5 SLOAD DUP2 JUMP JUMPDEST PUSH2 0xB1 PUSH2 0x100 CALLDATASIZE PUSH1 0x4 PUSH2 0x664 JUMP JUMPDEST PUSH2 0x43B JUMP JUMPDEST PUSH1 0x0 SLOAD PUSH1 0x1 PUSH1 0x1 PUSH1 0xA0 SHL SUB AND CALLER EQ PUSH2 0x138 JUMPI PUSH1 0x40 MLOAD PUSH3 0x461BCD PUSH1 0xE5 SHL DUP2 MSTORE PUSH1 0x4 ADD PUSH2 0x12F SWAP1 PUSH2 0x694 JUMP JUMPDEST PUSH1 0x40 MLOAD DUP1 SWAP2 SUB SWAP1 REVERT JUMPDEST PUSH1 0x4 SSTORE JUMP JUMPDEST PUSH1 0x0 SLOAD PUSH1 0x1 PUSH1 0x1 PUSH1 0xA0 SHL SUB AND CALLER EQ PUSH2 0x167 JUMPI PUSH1 0x40 MLOAD PUSH3 0x461BCD PUSH1 0xE5 SHL DUP2 MSTORE PUSH1 0x4 ADD PUSH2 0x12F SWAP1 PUSH2 0x694 JUMP JUMPDEST PUSH2 0x171 PUSH1 0x0 PUSH2 0x4D6 JUMP JUMPDEST JUMP JUMPDEST PUSH1 0x4 SLOAD DUP2 GT ISZERO PUSH2 0x1B9 JUMPI PUSH1 0x40 MLOAD PUSH3 0x461BCD PUSH1 0xE5 SHL DUP2 MSTORE PUSH1 0x20 PUSH1 0x4 DUP3 ADD MSTORE PUSH1 0x11 PUSH1 0x24 DUP3 ADD MSTORE PUSH17 0x496E76616C6964206C6F636B2074696D65 PUSH1 0x78 SHL PUSH1 0x44 DUP3 ADD MSTORE PUSH1 0x64 ADD PUSH2 0x12F JUMP JUMPDEST PUSH1 0x5 SLOAD PUSH1 0x40 MLOAD PUSH1 0x0 SWAP1 DUP2 SWAP1 PUSH2 0x1D0 PUSH1 0x20 DUP3 ADD PUSH2 0x526 JUMP JUMPDEST PUSH1 0x1F NOT DUP3 DUP3 SUB DUP2 ADD DUP4 MSTORE PUSH1 0x1F SWAP1 SWAP2 ADD AND PUSH1 0x40 DUP2 DUP2 MSTORE PUSH1 0x20 DUP3 ADD DUP7 SWAP1 MSTORE PUSH12 0xFFFFFFFFFFFFFFFFFFFFFFFF NOT CALLER PUSH1 0x60 SHL AND SWAP1 DUP3 ADD MSTORE PUSH1 0x54 DUP2 ADD DUP9 SWAP1 MSTORE SWAP1 SWAP2 POP PUSH1 0x0 SWAP1 PUSH1 0x74 ADD PUSH1 0x40 MLOAD PUSH1 0x20 DUP2 DUP4 SUB SUB DUP2 MSTORE SWAP1 PUSH1 0x40 MSTORE DUP1 MLOAD SWAP1 PUSH1 0x20 ADD KECCAK256 SWAP1 POP DUP1 DUP3 MLOAD PUSH1 0x20 DUP5 ADD PUSH1 0x0 CREATE2 PUSH1 0x40 MLOAD PUSH4 0x12B383D5 PUSH1 0xE3 SHL DUP2 MSTORE SWAP1 SWAP4 POP PUSH1 0x1 PUSH1 0x1 PUSH1 0xA0 SHL SUB DUP5 AND SWAP1 PUSH4 0x959C1EA8 SWAP1 PUSH2 0x264 SWAP1 DUP10 SWAP1 PUSH1 0x4 ADD PUSH2 0x716 JUMP JUMPDEST PUSH1 0x0 PUSH1 0x40 MLOAD DUP1 DUP4 SUB DUP2 PUSH1 0x0 DUP8 DUP1 EXTCODESIZE ISZERO DUP1 ISZERO PUSH2 0x27E JUMPI PUSH1 0x0 DUP1 REVERT JUMPDEST POP GAS CALL ISZERO DUP1 ISZERO PUSH2 0x292 JUMPI RETURNDATASIZE PUSH1 0x0 DUP1 RETURNDATACOPY RETURNDATASIZE PUSH1 0x0 REVERT JUMPDEST POP POP POP POP DUP3 PUSH1 0x1 PUSH1 0x1 PUSH1 0xA0 SHL SUB AND PUSH4 0x16833F31 DUP10 PUSH1 0x3 SLOAD PUSH1 0x1 PUSH1 0x0 SWAP1 SLOAD SWAP1 PUSH2 0x100 EXP SWAP1 DIV PUSH1 0x1 PUSH1 0x1 PUSH1 0xA0 SHL SUB AND PUSH1 0x2 PUSH1 0x0 SWAP1 SLOAD SWAP1 PUSH2 0x100 EXP SWAP1 DIV PUSH1 0x1 PUSH1 0x1 PUSH1 0xA0 SHL SUB AND CALLER DUP11 DUP15 DUP14 PUSH8 0xDE0B6B3A7640000 PUSH1 0x40 MLOAD DUP11 PUSH4 0xFFFFFFFF AND PUSH1 0xE0 SHL DUP2 MSTORE PUSH1 0x4 ADD PUSH2 0x306 SWAP10 SWAP9 SWAP8 SWAP7 SWAP6 SWAP5 SWAP4 SWAP3 SWAP2 SWAP1 PUSH2 0x729 JUMP JUMPDEST PUSH1 0x0 PUSH1 0x40 MLOAD DUP1 DUP4 SUB DUP2 PUSH1 0x0 DUP8 DUP1 EXTCODESIZE ISZERO DUP1 ISZERO PUSH2 0x320 JUMPI PUSH1 0x0 DUP1 REVERT JUMPDEST POP GAS CALL ISZERO DUP1 ISZERO PUSH2 0x334 JUMPI RETURNDATASIZE PUSH1 0x0 DUP1 RETURNDATACOPY RETURNDATASIZE PUSH1 0x0 REVERT JUMPDEST POP POP PUSH1 0x1 SLOAD PUSH1 0x1 PUSH1 0x1 PUSH1 0xA0 SHL SUB AND SWAP2 POP PUSH4 0xA9059CBB SWAP1 POP DUP5 PUSH2 0x35F PUSH8 0xDE0B6B3A7640000 PUSH1 0x3 PUSH2 0x79D JUMP JUMPDEST PUSH1 0x40 MLOAD PUSH1 0x1 PUSH1 0x1 PUSH1 0xE0 SHL SUB NOT PUSH1 0xE0 DUP6 SWAP1 SHL AND DUP2 MSTORE PUSH1 0x1 PUSH1 0x1 PUSH1 0xA0 SHL SUB SWAP1 SWAP3 AND PUSH1 0x4 DUP4 ADD MSTORE PUSH1 0x24 DUP3 ADD MSTORE PUSH1 0x44 ADD PUSH1 0x20 PUSH1 0x40 MLOAD DUP1 DUP4 SUB DUP2 PUSH1 0x0 DUP8 DUP1 EXTCODESIZE ISZERO DUP1 ISZERO PUSH2 0x3A5 JUMPI PUSH1 0x0 DUP1 REVERT JUMPDEST POP GAS CALL ISZERO DUP1 ISZERO PUSH2 0x3B9 JUMPI RETURNDATASIZE PUSH1 0x0 DUP1 RETURNDATACOPY RETURNDATASIZE PUSH1 0x0 REVERT JUMPDEST POP POP POP POP PUSH1 0x40 MLOAD RETURNDATASIZE PUSH1 0x1F NOT PUSH1 0x1F DUP3 ADD AND DUP3 ADD DUP1 PUSH1 0x40 MSTORE POP DUP2 ADD SWAP1 PUSH2 0x3DD SWAP2 SWAP1 PUSH2 0x7BC JUMP JUMPDEST POP PUSH1 0x5 DUP1 SLOAD SWAP1 PUSH1 0x0 PUSH2 0x3EE DUP4 PUSH2 0x7DE JUMP JUMPDEST SWAP1 SWAP2 SSTORE POP POP PUSH1 0x40 MLOAD PUSH1 0x1 PUSH1 0x1 PUSH1 0xA0 SHL SUB DUP5 AND DUP2 MSTORE CALLER SWAP1 PUSH32 0xA66DF2AC9413442073C2E47B33E555F5891823DF7841196BD1F197175A12F8AE SWAP1 PUSH1 0x20 ADD PUSH1 0x40 MLOAD DUP1 SWAP2 SUB SWAP1 LOG2 POP POP POP POP POP POP POP POP JUMP JUMPDEST PUSH1 0x0 SLOAD PUSH1 0x1 PUSH1 0x1 PUSH1 0xA0 SHL SUB AND CALLER EQ PUSH2 0x465 JUMPI PUSH1 0x40 MLOAD PUSH3 0x461BCD PUSH1 0xE5 SHL DUP2 MSTORE PUSH1 0x4 ADD PUSH2 0x12F SWAP1 PUSH2 0x694 JUMP JUMPDEST PUSH1 0x1 PUSH1 0x1 PUSH1 0xA0 SHL SUB DUP2 AND PUSH2 0x4CA JUMPI PUSH1 0x40 MLOAD PUSH3 0x461BCD PUSH1 0xE5 SHL DUP2 MSTORE PUSH1 0x20 PUSH1 0x4 DUP3 ADD MSTORE PUSH1 0x26 PUSH1 0x24 DUP3 ADD MSTORE PUSH32 0x4F776E61626C653A206E6577206F776E657220697320746865207A65726F2061 PUSH1 0x44 DUP3 ADD MSTORE PUSH6 0x646472657373 PUSH1 0xD0 SHL PUSH1 0x64 DUP3 ADD MSTORE PUSH1 0x84 ADD PUSH2 0x12F JUMP JUMPDEST PUSH2 0x4D3 DUP2 PUSH2 0x4D6 JUMP JUMPDEST POP JUMP JUMPDEST PUSH1 0x0 DUP1 SLOAD PUSH1 0x1 PUSH1 0x1 PUSH1 0xA0 SHL SUB DUP4 DUP2 AND PUSH1 0x1 PUSH1 0x1 PUSH1 0xA0 SHL SUB NOT DUP4 AND DUP2 OR DUP5 SSTORE PUSH1 0x40 MLOAD SWAP2 SWAP1 SWAP3 AND SWAP3 DUP4 SWAP2 PUSH32 0x8BE0079C531659141344CD1FD0A4F28419497F9722A3DAAFE3B4186F6B6457E0 SWAP2 SWAP1 LOG3 POP POP JUMP JUMPDEST PUSH2 0x1B48 DUP1 PUSH2 0x7FA DUP4 CODECOPY ADD SWAP1 JUMP JUMPDEST PUSH1 0x0 PUSH1 0x20 DUP3 DUP5 SUB SLT ISZERO PUSH2 0x545 JUMPI PUSH1 0x0 DUP1 REVERT JUMPDEST POP CALLDATALOAD SWAP2 SWAP1 POP JUMP JUMPDEST PUSH4 0x4E487B71 PUSH1 0xE0 SHL PUSH1 0x0 MSTORE PUSH1 0x41 PUSH1 0x4 MSTORE PUSH1 0x24 PUSH1 0x0 REVERT JUMPDEST PUSH1 0x0 DUP3 PUSH1 0x1F DUP4 ADD SLT PUSH2 0x573 JUMPI PUSH1 0x0 DUP1 REVERT JUMPDEST DUP2 CALLDATALOAD PUSH8 0xFFFFFFFFFFFFFFFF DUP1 DUP3 GT ISZERO PUSH2 0x58E JUMPI PUSH2 0x58E PUSH2 0x54C JUMP JUMPDEST PUSH1 0x40 MLOAD PUSH1 0x1F DUP4 ADD PUSH1 0x1F NOT SWAP1 DUP2 AND PUSH1 0x3F ADD AND DUP2 ADD SWAP1 DUP3 DUP3 GT DUP2 DUP4 LT OR ISZERO PUSH2 0x5B6 JUMPI PUSH2 0x5B6 PUSH2 0x54C JUMP JUMPDEST DUP2 PUSH1 0x40 MSTORE DUP4 DUP2 MSTORE DUP7 PUSH1 0x20 DUP6 DUP9 ADD ADD GT ISZERO PUSH2 0x5CF JUMPI PUSH1 0x0 DUP1 REVERT JUMPDEST DUP4 PUSH1 0x20 DUP8 ADD PUSH1 0x20 DUP4 ADD CALLDATACOPY PUSH1 0x0 PUSH1 0x20 DUP6 DUP4 ADD ADD MSTORE DUP1 SWAP5 POP POP POP POP POP SWAP3 SWAP2 POP POP JUMP JUMPDEST PUSH1 0x0 DUP1 PUSH1 0x0 DUP1 PUSH1 0x80 DUP6 DUP8 SUB SLT ISZERO PUSH2 0x605 JUMPI PUSH1 0x0 DUP1 REVERT JUMPDEST DUP5 CALLDATALOAD PUSH8 0xFFFFFFFFFFFFFFFF DUP1 DUP3 GT ISZERO PUSH2 0x61D JUMPI PUSH1 0x0 DUP1 REVERT JUMPDEST PUSH2 0x629 DUP9 DUP4 DUP10 ADD PUSH2 0x562 JUMP JUMPDEST SWAP6 POP PUSH1 0x20 DUP8 ADD CALLDATALOAD SWAP5 POP PUSH1 0x40 DUP8 ADD CALLDATALOAD SWAP2 POP DUP1 DUP3 GT ISZERO PUSH2 0x646 JUMPI PUSH1 0x0 DUP1 REVERT JUMPDEST POP PUSH2 0x653 DUP8 DUP3 DUP9 ADD PUSH2 0x562 JUMP JUMPDEST SWAP5 SWAP8 SWAP4 SWAP7 POP SWAP4 SWAP5 PUSH1 0x60 ADD CALLDATALOAD SWAP4 POP POP POP JUMP JUMPDEST PUSH1 0x0 PUSH1 0x20 DUP3 DUP5 SUB SLT ISZERO PUSH2 0x676 JUMPI PUSH1 0x0 DUP1 REVERT JUMPDEST DUP2 CALLDATALOAD PUSH1 0x1 PUSH1 0x1 PUSH1 0xA0 SHL SUB DUP2 AND DUP2 EQ PUSH2 0x68D JUMPI PUSH1 0x0 DUP1 REVERT JUMPDEST SWAP4 SWAP3 POP POP POP JUMP JUMPDEST PUSH1 0x20 DUP1 DUP3 MSTORE DUP2 DUP2 ADD MSTORE PUSH32 0x4F776E61626C653A2063616C6C6572206973206E6F7420746865206F776E6572 PUSH1 0x40 DUP3 ADD MSTORE PUSH1 0x60 ADD SWAP1 JUMP JUMPDEST PUSH1 0x0 DUP2 MLOAD DUP1 DUP5 MSTORE PUSH1 0x0 JUMPDEST DUP2 DUP2 LT ISZERO PUSH2 0x6EF JUMPI PUSH1 0x20 DUP2 DUP6 ADD DUP2 ADD MLOAD DUP7 DUP4 ADD DUP3 ADD MSTORE ADD PUSH2 0x6D3 JUMP JUMPDEST DUP2 DUP2 GT ISZERO PUSH2 0x701 JUMPI PUSH1 0x0 PUSH1 0x20 DUP4 DUP8 ADD ADD MSTORE JUMPDEST POP PUSH1 0x1F ADD PUSH1 0x1F NOT AND SWAP3 SWAP1 SWAP3 ADD PUSH1 0x20 ADD SWAP3 SWAP2 POP POP JUMP JUMPDEST PUSH1 0x20 DUP2 MSTORE PUSH1 0x0 PUSH2 0x68D PUSH1 0x20 DUP4 ADD DUP5 PUSH2 0x6C9 JUMP JUMPDEST PUSH1 0x0 PUSH2 0x120 DUP1 DUP4 MSTORE PUSH2 0x73D DUP2 DUP5 ADD DUP14 PUSH2 0x6C9 JUMP JUMPDEST PUSH1 0x20 DUP5 ADD SWAP12 SWAP1 SWAP12 MSTORE POP POP PUSH1 0x1 PUSH1 0x1 PUSH1 0xA0 SHL SUB SWAP8 DUP9 AND PUSH1 0x40 DUP3 ADD MSTORE SWAP6 DUP8 AND PUSH1 0x60 DUP8 ADD MSTORE SWAP4 SWAP1 SWAP6 AND PUSH1 0x80 DUP6 ADD MSTORE PUSH1 0xA0 DUP5 ADD SWAP2 SWAP1 SWAP2 MSTORE PUSH1 0xC0 DUP4 ADD MSTORE PUSH1 0xE0 DUP3 ADD SWAP3 SWAP1 SWAP3 MSTORE PUSH2 0x100 ADD MSTORE SWAP2 SWAP1 POP JUMP JUMPDEST PUSH4 0x4E487B71 PUSH1 0xE0 SHL PUSH1 0x0 MSTORE PUSH1 0x11 PUSH1 0x4 MSTORE PUSH1 0x24 PUSH1 0x0 REVERT JUMPDEST PUSH1 0x0 DUP2 PUSH1 0x0 NOT DIV DUP4 GT DUP3 ISZERO ISZERO AND ISZERO PUSH2 0x7B7 JUMPI PUSH2 0x7B7 PUSH2 0x787 JUMP JUMPDEST POP MUL SWAP1 JUMP JUMPDEST PUSH1 0x0 PUSH1 0x20 DUP3 DUP5 SUB SLT ISZERO PUSH2 0x7CE JUMPI PUSH1 0x0 DUP1 REVERT JUMPDEST DUP2 MLOAD DUP1 ISZERO ISZERO DUP2 EQ PUSH2 0x68D JUMPI PUSH1 0x0 DUP1 REVERT JUMPDEST PUSH1 0x0 PUSH1 0x0 NOT DUP3 EQ ISZERO PUSH2 0x7F2 JUMPI PUSH2 0x7F2 PUSH2 0x787 JUMP JUMPDEST POP PUSH1 0x1 ADD SWAP1 JUMP INVALID PUSH1 0x80 PUSH1 0x40 MSTORE PUSH1 0x1 PUSH1 0x4 SSTORE CALLVALUE DUP1 ISZERO PUSH2 0x15 JUMPI PUSH1 0x0 DUP1 REVERT JUMPDEST POP PUSH1 0xF DUP1 SLOAD PUSH1 0x1 PUSH1 0x1 PUSH1 0xA0 SHL SUB NOT AND CALLER OR SWAP1 SSTORE PUSH2 0x1B11 DUP1 PUSH2 0x37 PUSH1 0x0 CODECOPY PUSH1 0x0 RETURN INVALID PUSH1 0x80 PUSH1 0x40 MSTORE PUSH1 0x4 CALLDATASIZE LT PUSH2 0x9C JUMPI PUSH1 0x0 CALLDATALOAD PUSH1 0xE0 SHR DUP1 PUSH4 0x6B827CD4 GT PUSH2 0x64 JUMPI DUP1 PUSH4 0x6B827CD4 EQ PUSH2 0x12D JUMPI DUP1 PUSH4 0x74774750 EQ PUSH2 0x142 JUMPI DUP1 PUSH4 0x959C1EA8 EQ PUSH2 0x16C JUMPI DUP1 PUSH4 0xBF15071D EQ PUSH2 0x18C JUMPI DUP1 PUSH4 0xBF9CE952 EQ PUSH2 0x194 JUMPI DUP1 PUSH4 0xE12ED13C EQ PUSH2 0x1BF JUMPI PUSH1 0x0 DUP1 REVERT JUMPDEST DUP1 PUSH4 0x9D99F67 EQ PUSH2 0xA1 JUMPI DUP1 PUSH4 0x16833F31 EQ PUSH2 0xC3 JUMPI DUP1 PUSH4 0x366E8E52 EQ PUSH2 0xE3 JUMPI DUP1 PUSH4 0x50737055 EQ PUSH2 0xF8 JUMPI DUP1 PUSH4 0x6A816548 EQ PUSH2 0x118 JUMPI JUMPDEST PUSH1 0x0 DUP1 REVERT JUMPDEST CALLVALUE DUP1 ISZERO PUSH2 0xAD JUMPI PUSH1 0x0 DUP1 REVERT JUMPDEST POP PUSH2 0xC1 PUSH2 0xBC CALLDATASIZE PUSH1 0x4 PUSH2 0x1401 JUMP JUMPDEST PUSH2 0x1E3 JUMP JUMPDEST STOP JUMPDEST CALLVALUE DUP1 ISZERO PUSH2 0xCF JUMPI PUSH1 0x0 DUP1 REVERT JUMPDEST POP PUSH2 0xC1 PUSH2 0xDE CALLDATASIZE PUSH1 0x4 PUSH2 0x1504 JUMP JUMPDEST PUSH2 0x402 JUMP JUMPDEST CALLVALUE DUP1 ISZERO PUSH2 0xEF JUMPI PUSH1 0x0 DUP1 REVERT JUMPDEST POP PUSH2 0xC1 PUSH2 0x4C1 JUMP JUMPDEST CALLVALUE DUP1 ISZERO PUSH2 0x104 JUMPI PUSH1 0x0 DUP1 REVERT JUMPDEST POP PUSH2 0xC1 PUSH2 0x113 CALLDATASIZE PUSH1 0x4 PUSH2 0x15A2 JUMP JUMPDEST PUSH2 0x58B JUMP JUMPDEST CALLVALUE DUP1 ISZERO PUSH2 0x124 JUMPI PUSH1 0x0 DUP1 REVERT JUMPDEST POP PUSH2 0xC1 PUSH2 0x667 JUMP JUMPDEST CALLVALUE DUP1 ISZERO PUSH2 0x139 JUMPI PUSH1 0x0 DUP1 REVERT JUMPDEST POP PUSH2 0xC1 PUSH2 0x776 JUMP JUMPDEST CALLVALUE DUP1 ISZERO PUSH2 0x14E JUMPI PUSH1 0x0 DUP1 REVERT JUMPDEST POP PUSH2 0x157 PUSH2 0x906 JUMP JUMPDEST PUSH1 0x40 MLOAD SWAP1 ISZERO ISZERO DUP2 MSTORE PUSH1 0x20 ADD JUMPDEST PUSH1 0x40 MLOAD DUP1 SWAP2 SUB SWAP1 RETURN JUMPDEST CALLVALUE DUP1 ISZERO PUSH2 0x178 JUMPI PUSH1 0x0 DUP1 REVERT JUMPDEST POP PUSH2 0xC1 PUSH2 0x187 CALLDATASIZE PUSH1 0x4 PUSH2 0x15A2 JUMP JUMPDEST PUSH2 0x942 JUMP JUMPDEST PUSH2 0xC1 PUSH2 0x983 JUMP JUMPDEST CALLVALUE DUP1 ISZERO PUSH2 0x1A0 JUMPI PUSH1 0x0 DUP1 REVERT JUMPDEST POP PUSH2 0x1A9 PUSH2 0xADD JUMP JUMPDEST PUSH1 0x40 MLOAD PUSH2 0x163 SWAP11 SWAP10 SWAP9 SWAP8 SWAP7 SWAP6 SWAP5 SWAP4 SWAP3 SWAP2 SWAP1 PUSH2 0x1645 JUMP JUMPDEST CALLVALUE DUP1 ISZERO PUSH2 0x1CB JUMPI PUSH1 0x0 DUP1 REVERT JUMPDEST POP PUSH2 0x1D5 PUSH1 0x9 SLOAD DUP2 JUMP JUMPDEST PUSH1 0x40 MLOAD SWAP1 DUP2 MSTORE PUSH1 0x20 ADD PUSH2 0x163 JUMP JUMPDEST PUSH1 0x0 DUP3 DUP2 MSTORE PUSH1 0x5 PUSH1 0x20 MSTORE PUSH1 0x40 SWAP1 KECCAK256 SLOAD DUP3 SWAP1 PUSH1 0x1 PUSH1 0x1 PUSH1 0xA0 SHL SUB AND CALLER EQ PUSH2 0x261 JUMPI PUSH1 0x40 MLOAD PUSH3 0x461BCD PUSH1 0xE5 SHL DUP2 MSTORE PUSH1 0x20 PUSH1 0x4 DUP3 ADD MSTORE PUSH1 0x28 PUSH1 0x24 DUP3 ADD MSTORE PUSH32 0x536F75726365206D75737420626520746865206F7261636C65206F6620746865 PUSH1 0x44 DUP3 ADD MSTORE PUSH8 0x81C995C5D595CDD PUSH1 0xC2 SHL PUSH1 0x64 DUP3 ADD MSTORE PUSH1 0x84 ADD JUMPDEST PUSH1 0x40 MLOAD DUP1 SWAP2 SUB SWAP1 REVERT JUMPDEST PUSH1 0x0 DUP2 DUP2 MSTORE PUSH1 0x5 PUSH1 0x20 MSTORE PUSH1 0x40 DUP1 DUP3 KECCAK256 DUP1 SLOAD PUSH1 0x1 PUSH1 0x1 PUSH1 0xA0 SHL SUB NOT AND SWAP1 SSTORE MLOAD DUP3 SWAP2 PUSH32 0x7CC135E0CEBB02C3480AE5D74D377283180A2601F8F644EDF7987B009316C63A SWAP2 LOG2 PUSH1 0xA DUP3 SWAP1 SSTORE PUSH1 0x40 MLOAD PUSH4 0x9201DE55 PUSH1 0xE0 SHL DUP2 MSTORE PUSH1 0x4 DUP2 ADD DUP4 SWAP1 MSTORE PUSH20 0x0 SWAP1 PUSH4 0x9201DE55 SWAP1 PUSH1 0x24 ADD PUSH1 0x0 PUSH1 0x40 MLOAD DUP1 DUP4 SUB DUP2 DUP7 DUP1 EXTCODESIZE ISZERO DUP1 ISZERO PUSH2 0x2F4 JUMPI PUSH1 0x0 DUP1 REVERT JUMPDEST POP GAS DELEGATECALL ISZERO DUP1 ISZERO PUSH2 0x308 JUMPI RETURNDATASIZE PUSH1 0x0 DUP1 RETURNDATACOPY RETURNDATASIZE PUSH1 0x0 REVERT JUMPDEST POP POP POP POP PUSH1 0x40 MLOAD RETURNDATASIZE PUSH1 0x0 DUP3 RETURNDATACOPY PUSH1 0x1F RETURNDATASIZE SWAP1 DUP2 ADD PUSH1 0x1F NOT AND DUP3 ADD PUSH1 0x40 MSTORE PUSH2 0x330 SWAP2 SWAP1 DUP2 ADD SWAP1 PUSH2 0x16F4 JUMP JUMPDEST PUSH1 0x40 MLOAD PUSH4 0x5F69A5DD PUSH1 0xE1 SHL DUP2 MSTORE PUSH20 0x0 SWAP2 PUSH4 0xBED34BBA SWAP2 PUSH2 0x366 SWAP2 SWAP1 PUSH1 0x4 ADD PUSH2 0x1762 JUMP JUMPDEST PUSH1 0x20 PUSH1 0x40 MLOAD DUP1 DUP4 SUB DUP2 DUP7 DUP1 EXTCODESIZE ISZERO DUP1 ISZERO PUSH2 0x37E JUMPI PUSH1 0x0 DUP1 REVERT JUMPDEST POP GAS DELEGATECALL ISZERO DUP1 ISZERO PUSH2 0x392 JUMPI RETURNDATASIZE PUSH1 0x0 DUP1 RETURNDATACOPY RETURNDATASIZE PUSH1 0x0 REVERT JUMPDEST POP POP POP POP PUSH1 0x40 MLOAD RETURNDATASIZE PUSH1 0x1F NOT PUSH1 0x1F DUP3 ADD AND DUP3 ADD DUP1 PUSH1 0x40 MSTORE POP DUP2 ADD SWAP1 PUSH2 0x3B6 SWAP2 SWAP1 PUSH2 0x17A0 JUMP JUMPDEST ISZERO PUSH2 0x3C9 JUMPI PUSH1 0xB DUP1 SLOAD PUSH1 0xFF NOT AND PUSH1 0x3 OR SWAP1 SSTORE JUMPDEST PUSH1 0x40 MLOAD DUP3 DUP2 MSTORE PUSH32 0x65FB20BADD0FCFD3BF3BA0CA9BFE4EC522640041A07DECD17F1BE1FB0EAD4F4A SWAP1 PUSH1 0x20 ADD JUMPDEST PUSH1 0x40 MLOAD DUP1 SWAP2 SUB SWAP1 LOG1 POP POP POP JUMP JUMPDEST PUSH1 0xF SLOAD PUSH1 0x1 PUSH1 0x1 PUSH1 0xA0 SHL SUB AND CALLER EQ PUSH2 0x42C JUMPI PUSH1 0x40 MLOAD PUSH3 0x461BCD PUSH1 0xE5 SHL DUP2 MSTORE PUSH1 0x4 ADD PUSH2 0x258 SWAP1 PUSH2 0x17C2 JUMP JUMPDEST PUSH1 0x2 DUP1 SLOAD PUSH1 0x1 PUSH1 0x1 PUSH1 0xA0 SHL SUB NOT AND PUSH1 0x1 PUSH1 0x1 PUSH1 0xA0 SHL SUB DUP10 AND OR SWAP1 SSTORE PUSH1 0x7 DUP1 SLOAD PUSH1 0x1 PUSH1 0x1 PUSH1 0xA0 SHL SUB NOT AND PUSH1 0x1 PUSH1 0x1 PUSH1 0xA0 SHL SUB DUP9 AND OR SWAP1 SSTORE PUSH1 0x8 DUP9 SWAP1 SSTORE PUSH1 0x6 DUP2 SWAP1 SSTORE PUSH1 0xC DUP5 SWAP1 SSTORE PUSH1 0xE DUP3 SWAP1 SSTORE DUP9 MLOAD PUSH2 0x489 SWAP1 PUSH1 0x12 SWAP1 PUSH1 0x20 DUP13 ADD SWAP1 PUSH2 0x132D JUMP JUMPDEST POP POP PUSH1 0xB DUP1 SLOAD PUSH1 0xFF NOT AND SWAP1 SSTORE POP PUSH1 0xF DUP1 SLOAD PUSH1 0x1 PUSH1 0x1 PUSH1 0xA0 SHL SUB NOT AND PUSH1 0x1 PUSH1 0x1 PUSH1 0xA0 SHL SUB SWAP5 SWAP1 SWAP5 AND SWAP4 SWAP1 SWAP4 OR SWAP1 SWAP3 SSTORE POP PUSH1 0xD SSTORE POP POP POP POP JUMP JUMPDEST PUSH1 0xF SLOAD PUSH1 0x1 PUSH1 0x1 PUSH1 0xA0 SHL SUB AND CALLER EQ PUSH2 0x4EB JUMPI PUSH1 0x40 MLOAD PUSH3 0x461BCD PUSH1 0xE5 SHL DUP2 MSTORE PUSH1 0x4 ADD PUSH2 0x258 SWAP1 PUSH2 0x17C2 JUMP JUMPDEST PUSH1 0x40 DUP1 MLOAD DUP1 DUP3 ADD SWAP1 SWAP2 MSTORE PUSH1 0xD DUP2 MSTORE PUSH13 0x496E76616C6964205374616765 PUSH1 0x98 SHL PUSH1 0x20 DUP3 ADD MSTORE PUSH1 0x3 SWAP1 DUP2 PUSH1 0xB SLOAD PUSH1 0xFF AND PUSH1 0x4 DUP2 GT ISZERO PUSH2 0x52A JUMPI PUSH2 0x52A PUSH2 0x15D7 JUMP JUMPDEST EQ DUP2 SWAP1 PUSH2 0x54A JUMPI PUSH1 0x40 MLOAD PUSH3 0x461BCD PUSH1 0xE5 SHL DUP2 MSTORE PUSH1 0x4 ADD PUSH2 0x258 SWAP2 SWAP1 PUSH2 0x17E6 JUMP JUMPDEST POP PUSH1 0xB DUP1 SLOAD PUSH1 0x4 PUSH1 0xFF NOT SWAP1 SWAP2 AND OR SWAP1 SSTORE PUSH1 0x40 MLOAD CALLER SWAP1 SELFBALANCE DUP1 ISZERO PUSH2 0x8FC MUL SWAP2 PUSH1 0x0 DUP2 DUP2 DUP2 DUP6 DUP9 DUP9 CALL SWAP4 POP POP POP POP ISZERO DUP1 ISZERO PUSH2 0x586 JUMPI RETURNDATASIZE PUSH1 0x0 DUP1 RETURNDATACOPY RETURNDATASIZE PUSH1 0x0 REVERT JUMPDEST POP POP POP JUMP JUMPDEST PUSH1 0xF SLOAD PUSH1 0x1 PUSH1 0x1 PUSH1 0xA0 SHL SUB AND CALLER EQ PUSH2 0x5B5 JUMPI PUSH1 0x40 MLOAD PUSH3 0x461BCD PUSH1 0xE5 SHL DUP2 MSTORE PUSH1 0x4 ADD PUSH2 0x258 SWAP1 PUSH2 0x17C2 JUMP JUMPDEST PUSH1 0x40 DUP1 MLOAD DUP1 DUP3 ADD SWAP1 SWAP2 MSTORE PUSH1 0xD DUP2 MSTORE PUSH13 0x496E76616C6964205374616765 PUSH1 0x98 SHL PUSH1 0x20 DUP3 ADD MSTORE PUSH1 0x1 SWAP1 DUP2 PUSH1 0xB SLOAD PUSH1 0xFF AND PUSH1 0x4 DUP2 GT ISZERO PUSH2 0x5F4 JUMPI PUSH2 0x5F4 PUSH2 0x15D7 JUMP JUMPDEST EQ DUP2 SWAP1 PUSH2 0x614 JUMPI PUSH1 0x40 MLOAD PUSH3 0x461BCD PUSH1 0xE5 SHL DUP2 MSTORE PUSH1 0x4 ADD PUSH2 0x258 SWAP2 SWAP1 PUSH2 0x17E6 JUMP JUMPDEST POP PUSH1 0xB DUP1 SLOAD PUSH1 0xFF NOT AND PUSH1 0x2 OR SWAP1 SSTORE DUP3 MLOAD PUSH2 0x635 SWAP1 PUSH1 0x11 SWAP1 PUSH1 0x20 DUP7 ADD SWAP1 PUSH2 0x132D JUMP JUMPDEST POP PUSH1 0x40 MLOAD PUSH32 0x1862CF7A0E12BAC162F518F43C2F50DF187E89045899A7C015C1D61D9880A11B SWAP1 PUSH2 0x3F5 SWAP1 PUSH1 0x11 SWAP1 PUSH2 0x182E JUMP JUMPDEST PUSH1 0x10 SLOAD PUSH1 0x1 PUSH1 0x1 PUSH1 0xA0 SHL SUB AND CALLER EQ PUSH2 0x6AE JUMPI PUSH1 0x40 MLOAD PUSH3 0x461BCD PUSH1 0xE5 SHL DUP2 MSTORE PUSH1 0x20 PUSH1 0x4 DUP3 ADD MSTORE PUSH1 0xA PUSH1 0x24 DUP3 ADD MSTORE PUSH10 0x27B7363C90213ABCB2B9 PUSH1 0xB1 SHL PUSH1 0x44 DUP3 ADD MSTORE PUSH1 0x64 ADD PUSH2 0x258 JUMP JUMPDEST PUSH2 0x6B6 PUSH2 0x906 JUMP JUMPDEST PUSH2 0x702 JUMPI PUSH1 0x40 MLOAD PUSH3 0x461BCD PUSH1 0xE5 SHL DUP2 MSTORE PUSH1 0x20 PUSH1 0x4 DUP3 ADD MSTORE PUSH1 0x1B PUSH1 0x24 DUP3 ADD MSTORE PUSH32 0x4E6F7420616C6C6F77656420746F2063616E63656C206F726465720000000000 PUSH1 0x44 DUP3 ADD MSTORE PUSH1 0x64 ADD PUSH2 0x258 JUMP JUMPDEST PUSH1 0x10 DUP1 SLOAD PUSH1 0x1 PUSH1 0x1 PUSH1 0xA0 SHL SUB NOT AND SWAP1 SSTORE PUSH1 0xB DUP1 SLOAD PUSH1 0xFF NOT AND SWAP1 SSTORE PUSH1 0x40 MLOAD CALLER SWAP1 SELFBALANCE DUP1 ISZERO PUSH2 0x8FC MUL SWAP2 PUSH1 0x0 DUP2 DUP2 DUP2 DUP6 DUP9 DUP9 CALL SWAP4 POP POP POP POP ISZERO DUP1 ISZERO PUSH2 0x748 JUMPI RETURNDATASIZE PUSH1 0x0 DUP1 RETURNDATACOPY RETURNDATASIZE PUSH1 0x0 REVERT JUMPDEST POP PUSH1 0x40 MLOAD CALLER SWAP1 PUSH32 0x393629F15E859A19530BAB9675F9D39F0F57889F19F883BC5BE3533C4A2C9EA8 SWAP1 PUSH1 0x0 SWAP1 LOG2 JUMP JUMPDEST PUSH1 0x40 DUP1 MLOAD DUP1 DUP3 ADD SWAP1 SWAP2 MSTORE PUSH1 0xD DUP2 MSTORE PUSH13 0x13995959081CDA1A5C1B595B9D PUSH1 0x9A SHL PUSH1 0x20 DUP3 ADD MSTORE PUSH1 0x2 SWAP1 DUP2 PUSH1 0xB SLOAD PUSH1 0xFF AND PUSH1 0x4 DUP2 GT ISZERO PUSH2 0x7B5 JUMPI PUSH2 0x7B5 PUSH2 0x15D7 JUMP JUMPDEST EQ DUP2 SWAP1 PUSH2 0x7D5 JUMPI PUSH1 0x40 MLOAD PUSH3 0x461BCD PUSH1 0xE5 SHL DUP2 MSTORE PUSH1 0x4 ADD PUSH2 0x258 SWAP2 SWAP1 PUSH2 0x17E6 JUMP JUMPDEST POP PUSH1 0x0 PUSH2 0x7EC PUSH1 0x8 SLOAD ADDRESS PUSH4 0x9D99F67 PUSH1 0xE0 SHL PUSH2 0xCBE JUMP JUMPDEST SWAP1 POP PUSH2 0x8B2 PUSH1 0x40 MLOAD DUP1 PUSH1 0x40 ADD PUSH1 0x40 MSTORE DUP1 PUSH1 0xA DUP2 MSTORE PUSH1 0x20 ADD PUSH10 0x1D1C9858DADA5B99D259 PUSH1 0xB2 SHL DUP2 MSTORE POP PUSH1 0xA PUSH1 0x7 ADD DUP1 SLOAD PUSH2 0x824 SWAP1 PUSH2 0x17F9 JUMP JUMPDEST DUP1 PUSH1 0x1F ADD PUSH1 0x20 DUP1 SWAP2 DIV MUL PUSH1 0x20 ADD PUSH1 0x40 MLOAD SWAP1 DUP2 ADD PUSH1 0x40 MSTORE DUP1 SWAP3 SWAP2 SWAP1 DUP2 DUP2 MSTORE PUSH1 0x20 ADD DUP3 DUP1 SLOAD PUSH2 0x850 SWAP1 PUSH2 0x17F9 JUMP JUMPDEST DUP1 ISZERO PUSH2 0x89D JUMPI DUP1 PUSH1 0x1F LT PUSH2 0x872 JUMPI PUSH2 0x100 DUP1 DUP4 SLOAD DIV MUL DUP4 MSTORE SWAP2 PUSH1 0x20 ADD SWAP2 PUSH2 0x89D JUMP JUMPDEST DUP3 ADD SWAP2 SWAP1 PUSH1 0x0 MSTORE PUSH1 0x20 PUSH1 0x0 KECCAK256 SWAP1 JUMPDEST DUP2 SLOAD DUP2 MSTORE SWAP1 PUSH1 0x1 ADD SWAP1 PUSH1 0x20 ADD DUP1 DUP4 GT PUSH2 0x880 JUMPI DUP3 SWAP1 SUB PUSH1 0x1F AND DUP3 ADD SWAP2 JUMPDEST POP POP POP POP POP DUP4 PUSH2 0xCE3 SWAP1 SWAP3 SWAP2 SWAP1 PUSH4 0xFFFFFFFF AND JUMP JUMPDEST PUSH1 0x7 SLOAD PUSH1 0x6 SLOAD PUSH1 0x0 SWAP2 PUSH2 0x8D2 SWAP2 PUSH1 0x1 PUSH1 0x1 PUSH1 0xA0 SHL SUB SWAP1 SWAP2 AND SWAP1 DUP5 SWAP1 PUSH2 0xD01 JUMP JUMPDEST PUSH1 0x40 MLOAD SWAP1 SWAP2 POP DUP2 SWAP1 PUSH32 0xB5E6E01E79F91267DC17B4E6314D5D4D03593D2CEEE0FBB452B750BD70EA5AF9 SWAP1 PUSH1 0x0 SWAP1 LOG2 POP POP POP POP JUMP JUMPDEST PUSH1 0xE SLOAD PUSH1 0x9 SLOAD PUSH1 0x0 SWAP2 PUSH2 0x918 SWAP2 PUSH2 0x18EC JUMP JUMPDEST NUMBER LT ISZERO DUP1 ISZERO PUSH2 0x93D JUMPI POP PUSH1 0x1 PUSH1 0xB SLOAD PUSH1 0xFF AND PUSH1 0x4 DUP2 GT ISZERO PUSH2 0x93B JUMPI PUSH2 0x93B PUSH2 0x15D7 JUMP JUMPDEST EQ JUMPDEST SWAP1 POP SWAP1 JUMP JUMPDEST PUSH1 0xF SLOAD PUSH1 0x1 PUSH1 0x1 PUSH1 0xA0 SHL SUB AND CALLER EQ PUSH2 0x96C JUMPI PUSH1 0x40 MLOAD PUSH3 0x461BCD PUSH1 0xE5 SHL DUP2 MSTORE PUSH1 0x4 ADD PUSH2 0x258 SWAP1 PUSH2 0x17C2 JUMP JUMPDEST DUP1 MLOAD PUSH2 0x97F SWAP1 PUSH1 0x13 SWAP1 PUSH1 0x20 DUP5 ADD SWAP1 PUSH2 0x132D JUMP JUMPDEST POP POP JUMP JUMPDEST PUSH1 0x40 DUP1 MLOAD DUP1 DUP3 ADD SWAP1 SWAP2 MSTORE PUSH1 0x14 DUP2 MSTORE PUSH20 0x20B63932B0B23C903430BB32903090313ABCB2B9 PUSH1 0x61 SHL PUSH1 0x20 DUP3 ADD MSTORE PUSH1 0x0 SWAP1 DUP2 PUSH1 0xB SLOAD PUSH1 0xFF AND PUSH1 0x4 DUP2 GT ISZERO PUSH2 0x9C9 JUMPI PUSH2 0x9C9 PUSH2 0x15D7 JUMP JUMPDEST EQ DUP2 SWAP1 PUSH2 0x9E9 JUMPI PUSH1 0x40 MLOAD PUSH3 0x461BCD PUSH1 0xE5 SHL DUP2 MSTORE PUSH1 0x4 ADD PUSH2 0x258 SWAP2 SWAP1 PUSH2 0x17E6 JUMP JUMPDEST POP PUSH1 0xF SLOAD PUSH1 0x1 PUSH1 0x1 PUSH1 0xA0 SHL SUB AND CALLER EQ ISZERO PUSH2 0xA45 JUMPI PUSH1 0x40 MLOAD PUSH3 0x461BCD PUSH1 0xE5 SHL DUP2 MSTORE PUSH1 0x20 PUSH1 0x4 DUP3 ADD MSTORE PUSH1 0x1D PUSH1 0x24 DUP3 ADD MSTORE PUSH32 0x596F752063616E206E6F74206275792066726F6D20796F757273656C66000000 PUSH1 0x44 DUP3 ADD MSTORE PUSH1 0x64 ADD PUSH2 0x258 JUMP JUMPDEST PUSH1 0xD SLOAD CALLVALUE LT ISZERO PUSH2 0xA89 JUMPI PUSH1 0x40 MLOAD PUSH3 0x461BCD PUSH1 0xE5 SHL DUP2 MSTORE PUSH1 0x20 PUSH1 0x4 DUP3 ADD MSTORE PUSH1 0xF PUSH1 0x24 DUP3 ADD MSTORE PUSH15 0x139BDD08195B9BDD59DA08199D5B99 PUSH1 0x8A SHL PUSH1 0x44 DUP3 ADD MSTORE PUSH1 0x64 ADD PUSH2 0x258 JUMP JUMPDEST PUSH1 0xB DUP1 SLOAD PUSH1 0xFF NOT AND PUSH1 0x1 OR SWAP1 SSTORE PUSH1 0x10 DUP1 SLOAD CALLER PUSH1 0x1 PUSH1 0x1 PUSH1 0xA0 SHL SUB NOT SWAP1 SWAP2 AND DUP2 OR SWAP1 SWAP2 SSTORE NUMBER PUSH1 0x9 SSTORE PUSH1 0x40 MLOAD PUSH32 0xE4CAEAEF8E4F0C4880839CA47219351B38CF4116C082FD0BAEFC3008E4BA11A3 SWAP1 PUSH1 0x0 SWAP1 LOG2 POP POP JUMP JUMPDEST PUSH1 0xA DUP1 SLOAD PUSH1 0xB SLOAD PUSH1 0xC SLOAD PUSH1 0xD SLOAD PUSH1 0xE SLOAD PUSH1 0xF SLOAD PUSH1 0x10 SLOAD PUSH1 0x11 DUP1 SLOAD SWAP8 SWAP9 PUSH1 0xFF SWAP1 SWAP8 AND SWAP8 SWAP6 SWAP7 SWAP5 SWAP6 SWAP4 SWAP5 PUSH1 0x1 PUSH1 0x1 PUSH1 0xA0 SHL SUB SWAP4 DUP5 AND SWAP5 SWAP4 SWAP1 SWAP3 AND SWAP3 PUSH2 0xB1F SWAP1 PUSH2 0x17F9 JUMP JUMPDEST DUP1 PUSH1 0x1F ADD PUSH1 0x20 DUP1 SWAP2 DIV MUL PUSH1 0x20 ADD PUSH1 0x40 MLOAD SWAP1 DUP2 ADD PUSH1 0x40 MSTORE DUP1 SWAP3 SWAP2 SWAP1 DUP2 DUP2 MSTORE PUSH1 0x20 ADD DUP3 DUP1 SLOAD PUSH2 0xB4B SWAP1 PUSH2 0x17F9 JUMP JUMPDEST DUP1 ISZERO PUSH2 0xB98 JUMPI DUP1 PUSH1 0x1F LT PUSH2 0xB6D JUMPI PUSH2 0x100 DUP1 DUP4 SLOAD DIV MUL DUP4 MSTORE SWAP2 PUSH1 0x20 ADD SWAP2 PUSH2 0xB98 JUMP JUMPDEST DUP3 ADD SWAP2 SWAP1 PUSH1 0x0 MSTORE PUSH1 0x20 PUSH1 0x0 KECCAK256 SWAP1 JUMPDEST DUP2 SLOAD DUP2 MSTORE SWAP1 PUSH1 0x1 ADD SWAP1 PUSH1 0x20 ADD DUP1 DUP4 GT PUSH2 0xB7B JUMPI DUP3 SWAP1 SUB PUSH1 0x1F AND DUP3 ADD SWAP2 JUMPDEST POP POP POP POP POP SWAP1 DUP1 PUSH1 0x8 ADD DUP1 SLOAD PUSH2 0xBAD SWAP1 PUSH2 0x17F9 JUMP JUMPDEST DUP1 PUSH1 0x1F ADD PUSH1 0x20 DUP1 SWAP2 DIV MUL PUSH1 0x20 ADD PUSH1 0x40 MLOAD SWAP1 DUP2 ADD PUSH1 0x40 MSTORE DUP1 SWAP3 SWAP2 SWAP1 DUP2 DUP2 MSTORE PUSH1 0x20 ADD DUP3 DUP1 SLOAD PUSH2 0xBD9 SWAP1 PUSH2 0x17F9 JUMP JUMPDEST DUP1 ISZERO PUSH2 0xC26 JUMPI DUP1 PUSH1 0x1F LT PUSH2 0xBFB JUMPI PUSH2 0x100 DUP1 DUP4 SLOAD DIV MUL DUP4 MSTORE SWAP2 PUSH1 0x20 ADD SWAP2 PUSH2 0xC26 JUMP JUMPDEST DUP3 ADD SWAP2 SWAP1 PUSH1 0x0 MSTORE PUSH1 0x20 PUSH1 0x0 KECCAK256 SWAP1 JUMPDEST DUP2 SLOAD DUP2 MSTORE SWAP1 PUSH1 0x1 ADD SWAP1 PUSH1 0x20 ADD DUP1 DUP4 GT PUSH2 0xC09 JUMPI DUP3 SWAP1 SUB PUSH1 0x1F AND DUP3 ADD SWAP2 JUMPDEST POP POP POP POP POP SWAP1 DUP1 PUSH1 0x9 ADD DUP1 SLOAD PUSH2 0xC3B SWAP1 PUSH2 0x17F9 JUMP JUMPDEST DUP1 PUSH1 0x1F ADD PUSH1 0x20 DUP1 SWAP2 DIV MUL PUSH1 0x20 ADD PUSH1 0x40 MLOAD SWAP1 DUP2 ADD PUSH1 0x40 MSTORE DUP1 SWAP3 SWAP2 SWAP1 DUP2 DUP2 MSTORE PUSH1 0x20 ADD DUP3 DUP1 SLOAD PUSH2 0xC67 SWAP1 PUSH2 0x17F9 JUMP JUMPDEST DUP1 ISZERO PUSH2 0xCB4 JUMPI DUP1 PUSH1 0x1F LT PUSH2 0xC89 JUMPI PUSH2 0x100 DUP1 DUP4 SLOAD DIV MUL DUP4 MSTORE SWAP2 PUSH1 0x20 ADD SWAP2 PUSH2 0xCB4 JUMP JUMPDEST DUP3 ADD SWAP2 SWAP1 PUSH1 0x0 MSTORE PUSH1 0x20 PUSH1 0x0 KECCAK256 SWAP1 JUMPDEST DUP2 SLOAD DUP2 MSTORE SWAP1 PUSH1 0x1 ADD SWAP1 PUSH1 0x20 ADD DUP1 DUP4 GT PUSH2 0xC97 JUMPI DUP3 SWAP1 SUB PUSH1 0x1F AND DUP3 ADD SWAP2 JUMPDEST POP POP POP POP POP SWAP1 POP DUP11 JUMP JUMPDEST PUSH2 0xCC6 PUSH2 0x13B1 JUMP JUMPDEST PUSH2 0xCCE PUSH2 0x13B1 JUMP JUMPDEST PUSH2 0xCDA DUP2 DUP7 DUP7 DUP7 PUSH2 0xD20 JUMP JUMPDEST SWAP6 SWAP5 POP POP POP POP POP JUMP JUMPDEST PUSH1 0x80 DUP4 ADD MLOAD PUSH2 0xCF2 SWAP1 DUP4 PUSH2 0xD5D JUMP JUMPDEST PUSH1 0x80 DUP4 ADD MLOAD PUSH2 0x586 SWAP1 DUP3 PUSH2 0xD5D JUMP JUMPDEST PUSH1 0x0 PUSH2 0xD18 DUP5 DUP5 DUP5 PUSH1 0x1 PUSH4 0x20214CA3 PUSH1 0xE1 SHL PUSH2 0xD74 JUMP JUMPDEST SWAP5 SWAP4 POP POP POP POP JUMP JUMPDEST PUSH2 0xD28 PUSH2 0x13B1 JUMP JUMPDEST PUSH2 0xD38 DUP6 PUSH1 0x80 ADD MLOAD PUSH2 0x100 PUSH2 0xF80 JUMP JUMPDEST POP POP SWAP2 DUP4 MSTORE PUSH1 0x1 PUSH1 0x1 PUSH1 0xA0 SHL SUB AND PUSH1 0x20 DUP4 ADD MSTORE PUSH1 0x1 PUSH1 0x1 PUSH1 0xE0 SHL SUB NOT AND PUSH1 0x40 DUP3 ADD MSTORE SWAP1 JUMP JUMPDEST PUSH2 0xD6A DUP3 PUSH1 0x3 DUP4 MLOAD PUSH2 0xFEB JUMP JUMPDEST PUSH2 0x586 DUP3 DUP3 PUSH2 0x10BF JUMP JUMPDEST PUSH1 0x4 SLOAD PUSH1 0x40 MLOAD PUSH12 0xFFFFFFFFFFFFFFFFFFFFFFFF NOT ADDRESS PUSH1 0x60 SHL AND PUSH1 0x20 DUP3 ADD MSTORE PUSH1 0x34 DUP2 ADD SWAP2 SWAP1 SWAP2 MSTORE PUSH1 0x0 SWAP1 PUSH1 0x54 ADD PUSH1 0x40 DUP1 MLOAD DUP1 DUP4 SUB PUSH1 0x1F NOT ADD DUP2 MSTORE SWAP2 DUP2 MSTORE DUP2 MLOAD PUSH1 0x20 SWAP3 DUP4 ADD KECCAK256 PUSH1 0x4 SLOAD PUSH1 0x60 DUP10 ADD MSTORE PUSH1 0x0 DUP2 DUP2 MSTORE PUSH1 0x5 SWAP1 SWAP4 MSTORE DUP2 DUP4 KECCAK256 DUP1 SLOAD PUSH1 0x1 PUSH1 0x1 PUSH1 0xA0 SHL SUB NOT AND PUSH1 0x1 PUSH1 0x1 PUSH1 0xA0 SHL SUB DUP12 AND OR SWAP1 SSTORE SWAP1 MLOAD SWAP1 SWAP3 POP DUP3 SWAP2 PUSH32 0xB5E6E01E79F91267DC17B4E6314D5D4D03593D2CEEE0FBB452B750BD70EA5AF9 SWAP2 LOG2 PUSH1 0x0 DUP3 PUSH1 0x0 DUP1 DUP9 PUSH1 0x0 ADD MLOAD DUP10 PUSH1 0x20 ADD MLOAD DUP11 PUSH1 0x40 ADD MLOAD DUP12 PUSH1 0x60 ADD MLOAD DUP11 DUP14 PUSH1 0x80 ADD MLOAD PUSH1 0x0 ADD MLOAD PUSH1 0x40 MLOAD PUSH1 0x24 ADD PUSH2 0xE4B SWAP9 SWAP8 SWAP7 SWAP6 SWAP5 SWAP4 SWAP3 SWAP2 SWAP1 PUSH2 0x1904 JUMP JUMPDEST PUSH1 0x40 DUP1 MLOAD PUSH1 0x1F NOT DUP2 DUP5 SUB ADD DUP2 MSTORE SWAP2 DUP2 MSTORE PUSH1 0x20 DUP3 ADD DUP1 MLOAD PUSH1 0x1 PUSH1 0x1 PUSH1 0xE0 SHL SUB AND PUSH1 0x1 PUSH1 0x1 PUSH1 0xE0 SHL SUB NOT SWAP1 SWAP5 AND SWAP4 SWAP1 SWAP4 OR SWAP1 SWAP3 MSTORE PUSH1 0x2 SLOAD SWAP2 MLOAD PUSH4 0x2000575 PUSH1 0xE5 SHL DUP2 MSTORE SWAP1 SWAP3 POP PUSH1 0x1 PUSH1 0x1 PUSH1 0xA0 SHL SUB SWAP1 SWAP2 AND SWAP1 PUSH4 0x4000AEA0 SWAP1 PUSH2 0xEB3 SWAP1 DUP11 SWAP1 DUP10 SWAP1 DUP7 SWAP1 PUSH1 0x4 ADD PUSH2 0x196C JUMP JUMPDEST PUSH1 0x20 PUSH1 0x40 MLOAD DUP1 DUP4 SUB DUP2 PUSH1 0x0 DUP8 DUP1 EXTCODESIZE ISZERO DUP1 ISZERO PUSH2 0xECD JUMPI PUSH1 0x0 DUP1 REVERT JUMPDEST POP GAS CALL ISZERO DUP1 ISZERO PUSH2 0xEE1 JUMPI RETURNDATASIZE PUSH1 0x0 DUP1 RETURNDATACOPY RETURNDATASIZE PUSH1 0x0 REVERT JUMPDEST POP POP POP POP PUSH1 0x40 MLOAD RETURNDATASIZE PUSH1 0x1F NOT PUSH1 0x1F DUP3 ADD AND DUP3 ADD DUP1 PUSH1 0x40 MSTORE POP DUP2 ADD SWAP1 PUSH2 0xF05 SWAP2 SWAP1 PUSH2 0x17A0 JUMP JUMPDEST PUSH2 0xF5D JUMPI PUSH1 0x40 MLOAD PUSH3 0x461BCD PUSH1 0xE5 SHL DUP2 MSTORE PUSH1 0x20 PUSH1 0x4 DUP3 ADD MSTORE PUSH1 0x23 PUSH1 0x24 DUP3 ADD MSTORE PUSH32 0x756E61626C6520746F207472616E73666572416E6443616C6C20746F206F7261 PUSH1 0x44 DUP3 ADD MSTORE PUSH3 0x636C65 PUSH1 0xE8 SHL PUSH1 0x64 DUP3 ADD MSTORE PUSH1 0x84 ADD PUSH2 0x258 JUMP JUMPDEST PUSH1 0x1 PUSH1 0x4 PUSH1 0x0 DUP3 DUP3 SLOAD PUSH2 0xF70 SWAP2 SWAP1 PUSH2 0x18EC JUMP JUMPDEST SWAP1 SWAP2 SSTORE POP SWAP2 SWAP8 SWAP7 POP POP POP POP POP POP POP JUMP JUMPDEST PUSH1 0x40 DUP1 MLOAD DUP1 DUP3 ADD SWAP1 SWAP2 MSTORE PUSH1 0x60 DUP2 MSTORE PUSH1 0x0 PUSH1 0x20 DUP3 ADD MSTORE PUSH2 0xFA0 PUSH1 0x20 DUP4 PUSH2 0x1993 JUMP JUMPDEST ISZERO PUSH2 0xFC8 JUMPI PUSH2 0xFB0 PUSH1 0x20 DUP4 PUSH2 0x1993 JUMP JUMPDEST PUSH2 0xFBB SWAP1 PUSH1 0x20 PUSH2 0x19B5 JUMP JUMPDEST PUSH2 0xFC5 SWAP1 DUP4 PUSH2 0x18EC JUMP JUMPDEST SWAP2 POP JUMPDEST POP PUSH1 0x20 DUP1 DUP4 ADD DUP3 SWAP1 MSTORE PUSH1 0x40 DUP1 MLOAD DUP1 DUP6 MSTORE PUSH1 0x0 DUP2 MSTORE DUP4 ADD SWAP1 SWAP2 ADD SWAP1 MSTORE DUP2 JUMPDEST SWAP3 SWAP2 POP POP JUMP JUMPDEST PUSH1 0x17 DUP2 GT PUSH2 0x100C JUMPI PUSH2 0x1006 DUP4 PUSH1 0xE0 PUSH1 0x5 DUP6 SWAP1 SHL AND DUP4 OR PUSH2 0x10ED JUMP JUMPDEST POP POP POP POP JUMP JUMPDEST PUSH1 0xFF DUP2 GT PUSH2 0x1036 JUMPI PUSH2 0x1029 DUP4 PUSH1 0x18 PUSH2 0x1FE0 PUSH1 0x5 DUP7 SWAP1 SHL AND OR PUSH2 0x10ED JUMP JUMPDEST POP PUSH2 0x1006 DUP4 DUP3 PUSH1 0x1 PUSH2 0x1112 JUMP JUMPDEST PUSH2 0xFFFF DUP2 GT PUSH2 0x1061 JUMPI PUSH2 0x1054 DUP4 PUSH1 0x19 PUSH2 0x1FE0 PUSH1 0x5 DUP7 SWAP1 SHL AND OR PUSH2 0x10ED JUMP JUMPDEST POP PUSH2 0x1006 DUP4 DUP3 PUSH1 0x2 PUSH2 0x1112 JUMP JUMPDEST PUSH4 0xFFFFFFFF DUP2 GT PUSH2 0x108E JUMPI PUSH2 0x1081 DUP4 PUSH1 0x1A PUSH2 0x1FE0 PUSH1 0x5 DUP7 SWAP1 SHL AND OR PUSH2 0x10ED JUMP JUMPDEST POP PUSH2 0x1006 DUP4 DUP3 PUSH1 0x4 PUSH2 0x1112 JUMP JUMPDEST PUSH8 0xFFFFFFFFFFFFFFFF DUP2 GT PUSH2 0x586 JUMPI PUSH2 0x10B2 DUP4 PUSH1 0x1B PUSH2 0x1FE0 PUSH1 0x5 DUP7 SWAP1 SHL AND OR PUSH2 0x10ED JUMP JUMPDEST POP PUSH2 0x1006 DUP4 DUP3 PUSH1 0x8 PUSH2 0x1112 JUMP JUMPDEST PUSH1 0x40 DUP1 MLOAD DUP1 DUP3 ADD SWAP1 SWAP2 MSTORE PUSH1 0x60 DUP2 MSTORE PUSH1 0x0 PUSH1 0x20 DUP3 ADD MSTORE PUSH2 0x10E6 DUP4 DUP5 PUSH1 0x0 ADD MLOAD MLOAD DUP5 DUP6 MLOAD PUSH2 0x1138 JUMP JUMPDEST SWAP4 SWAP3 POP POP POP JUMP JUMPDEST PUSH1 0x40 DUP1 MLOAD DUP1 DUP3 ADD SWAP1 SWAP2 MSTORE PUSH1 0x60 DUP2 MSTORE PUSH1 0x0 PUSH1 0x20 DUP3 ADD MSTORE PUSH2 0x10E6 DUP4 DUP5 PUSH1 0x0 ADD MLOAD MLOAD DUP5 PUSH2 0x1222 JUMP JUMPDEST PUSH1 0x40 DUP1 MLOAD DUP1 DUP3 ADD SWAP1 SWAP2 MSTORE PUSH1 0x60 DUP2 MSTORE PUSH1 0x0 PUSH1 0x20 DUP3 ADD MSTORE PUSH2 0xD18 DUP5 DUP6 PUSH1 0x0 ADD MLOAD MLOAD DUP6 DUP6 PUSH2 0x127E JUMP JUMPDEST PUSH1 0x40 DUP1 MLOAD DUP1 DUP3 ADD SWAP1 SWAP2 MSTORE PUSH1 0x60 DUP2 MSTORE PUSH1 0x0 PUSH1 0x20 DUP3 ADD MSTORE DUP3 MLOAD DUP3 GT ISZERO PUSH2 0x115B JUMPI PUSH1 0x0 DUP1 REVERT JUMPDEST PUSH1 0x20 DUP6 ADD MLOAD PUSH2 0x116A DUP4 DUP7 PUSH2 0x18EC JUMP JUMPDEST GT ISZERO PUSH2 0x119D JUMPI PUSH2 0x119D DUP6 PUSH2 0x118D DUP8 PUSH1 0x20 ADD MLOAD DUP8 DUP7 PUSH2 0x1188 SWAP2 SWAP1 PUSH2 0x18EC JUMP JUMPDEST PUSH2 0x12FF JUMP JUMPDEST PUSH2 0x1198 SWAP1 PUSH1 0x2 PUSH2 0x19CC JUMP JUMPDEST PUSH2 0x1316 JUMP JUMPDEST PUSH1 0x0 DUP1 DUP7 MLOAD DUP1 MLOAD DUP8 PUSH1 0x20 DUP4 ADD ADD SWAP4 POP DUP1 DUP9 DUP8 ADD GT ISZERO PUSH2 0x11BC JUMPI DUP8 DUP7 ADD DUP3 MSTORE JUMPDEST POP POP POP PUSH1 0x20 DUP5 ADD JUMPDEST PUSH1 0x20 DUP5 LT PUSH2 0x11FC JUMPI DUP1 MLOAD DUP3 MSTORE PUSH2 0x11DB PUSH1 0x20 DUP4 PUSH2 0x18EC JUMP JUMPDEST SWAP2 POP PUSH2 0x11E8 PUSH1 0x20 DUP3 PUSH2 0x18EC JUMP JUMPDEST SWAP1 POP PUSH2 0x11F5 PUSH1 0x20 DUP6 PUSH2 0x19B5 JUMP JUMPDEST SWAP4 POP PUSH2 0x11C4 JUMP JUMPDEST MLOAD DUP2 MLOAD PUSH1 0x0 NOT PUSH1 0x20 DUP7 SWAP1 SUB PUSH2 0x100 EXP ADD SWAP1 DUP2 AND SWAP1 NOT SWAP2 SWAP1 SWAP2 AND OR SWAP1 MSTORE POP DUP4 SWAP5 SWAP4 POP POP POP POP JUMP JUMPDEST PUSH1 0x40 DUP1 MLOAD DUP1 DUP3 ADD SWAP1 SWAP2 MSTORE PUSH1 0x60 DUP2 MSTORE PUSH1 0x0 PUSH1 0x20 DUP3 ADD MSTORE DUP4 PUSH1 0x20 ADD MLOAD DUP4 LT PUSH2 0x1257 JUMPI PUSH2 0x1257 DUP5 DUP6 PUSH1 0x20 ADD MLOAD PUSH1 0x2 PUSH2 0x1198 SWAP2 SWAP1 PUSH2 0x19CC JUMP JUMPDEST DUP4 MLOAD DUP1 MLOAD PUSH1 0x20 DUP6 DUP4 ADD ADD DUP5 DUP2 MSTORE8 POP DUP1 DUP6 EQ ISZERO PUSH2 0x1274 JUMPI PUSH1 0x1 DUP2 ADD DUP3 MSTORE JUMPDEST POP SWAP4 SWAP5 SWAP4 POP POP POP POP JUMP JUMPDEST PUSH1 0x40 DUP1 MLOAD DUP1 DUP3 ADD SWAP1 SWAP2 MSTORE PUSH1 0x60 DUP2 MSTORE PUSH1 0x0 PUSH1 0x20 DUP3 ADD MSTORE PUSH1 0x20 DUP6 ADD MLOAD PUSH2 0x12A2 DUP6 DUP5 PUSH2 0x18EC JUMP JUMPDEST GT ISZERO PUSH2 0x12B6 JUMPI PUSH2 0x12B6 DUP6 PUSH2 0x118D DUP7 DUP6 PUSH2 0x18EC JUMP JUMPDEST PUSH1 0x0 PUSH1 0x1 PUSH2 0x12C6 DUP5 PUSH2 0x100 PUSH2 0x1ACF JUMP JUMPDEST PUSH2 0x12D0 SWAP2 SWAP1 PUSH2 0x19B5 JUMP JUMPDEST SWAP1 POP DUP6 MLOAD DUP4 DUP7 DUP3 ADD ADD DUP6 DUP4 NOT DUP3 MLOAD AND OR DUP2 MSTORE POP DUP1 MLOAD DUP5 DUP8 ADD GT ISZERO PUSH2 0x12F4 JUMPI DUP4 DUP7 ADD DUP2 MSTORE JUMPDEST POP SWAP5 SWAP6 SWAP5 POP POP POP POP POP JUMP JUMPDEST PUSH1 0x0 DUP2 DUP4 GT ISZERO PUSH2 0x1310 JUMPI POP DUP2 PUSH2 0xFE5 JUMP JUMPDEST POP SWAP2 SWAP1 POP JUMP JUMPDEST DUP2 MLOAD PUSH2 0x1322 DUP4 DUP4 PUSH2 0xF80 JUMP JUMPDEST POP PUSH2 0x1006 DUP4 DUP3 PUSH2 0x10BF JUMP JUMPDEST DUP3 DUP1 SLOAD PUSH2 0x1339 SWAP1 PUSH2 0x17F9 JUMP JUMPDEST SWAP1 PUSH1 0x0 MSTORE PUSH1 0x20 PUSH1 0x0 KECCAK256 SWAP1 PUSH1 0x1F ADD PUSH1 0x20 SWAP1 DIV DUP2 ADD SWAP3 DUP3 PUSH2 0x135B JUMPI PUSH1 0x0 DUP6 SSTORE PUSH2 0x13A1 JUMP JUMPDEST DUP3 PUSH1 0x1F LT PUSH2 0x1374 JUMPI DUP1 MLOAD PUSH1 0xFF NOT AND DUP4 DUP1 ADD OR DUP6 SSTORE PUSH2 0x13A1 JUMP JUMPDEST DUP3 DUP1 ADD PUSH1 0x1 ADD DUP6 SSTORE DUP3 ISZERO PUSH2 0x13A1 JUMPI SWAP2 DUP3 ADD JUMPDEST DUP3 DUP2 GT ISZERO PUSH2 0x13A1 JUMPI DUP3 MLOAD DUP3 SSTORE SWAP2 PUSH1 0x20 ADD SWAP2 SWAP1 PUSH1 0x1 ADD SWAP1 PUSH2 0x1386 JUMP JUMPDEST POP PUSH2 0x13AD SWAP3 SWAP2 POP PUSH2 0x13EC JUMP JUMPDEST POP SWAP1 JUMP JUMPDEST PUSH1 0x40 DUP1 MLOAD PUSH1 0xA0 DUP2 ADD DUP3 MSTORE PUSH1 0x0 DUP1 DUP3 MSTORE PUSH1 0x20 DUP1 DUP4 ADD DUP3 SWAP1 MSTORE DUP3 DUP5 ADD DUP3 SWAP1 MSTORE PUSH1 0x60 DUP1 DUP5 ADD DUP4 SWAP1 MSTORE DUP5 MLOAD DUP1 DUP7 ADD SWAP1 SWAP6 MSTORE DUP5 MSTORE DUP4 ADD MSTORE SWAP1 PUSH1 0x80 DUP3 ADD MSTORE SWAP1 JUMP JUMPDEST JUMPDEST DUP1 DUP3 GT ISZERO PUSH2 0x13AD JUMPI PUSH1 0x0 DUP2 SSTORE PUSH1 0x1 ADD PUSH2 0x13ED JUMP JUMPDEST PUSH1 0x0 DUP1 PUSH1 0x40 DUP4 DUP6 SUB SLT ISZERO PUSH2 0x1414 JUMPI PUSH1 0x0 DUP1 REVERT JUMPDEST POP POP DUP1 CALLDATALOAD SWAP3 PUSH1 0x20 SWAP1 SWAP2 ADD CALLDATALOAD SWAP2 POP JUMP JUMPDEST PUSH4 0x4E487B71 PUSH1 0xE0 SHL PUSH1 0x0 MSTORE PUSH1 0x41 PUSH1 0x4 MSTORE PUSH1 0x24 PUSH1 0x0 REVERT JUMPDEST PUSH1 0x40 MLOAD PUSH1 0x1F DUP3 ADD PUSH1 0x1F NOT AND DUP2 ADD PUSH8 0xFFFFFFFFFFFFFFFF DUP2 GT DUP3 DUP3 LT OR ISZERO PUSH2 0x1462 JUMPI PUSH2 0x1462 PUSH2 0x1423 JUMP JUMPDEST PUSH1 0x40 MSTORE SWAP2 SWAP1 POP JUMP JUMPDEST PUSH1 0x0 PUSH8 0xFFFFFFFFFFFFFFFF DUP3 GT ISZERO PUSH2 0x1484 JUMPI PUSH2 0x1484 PUSH2 0x1423 JUMP JUMPDEST POP PUSH1 0x1F ADD PUSH1 0x1F NOT AND PUSH1 0x20 ADD SWAP1 JUMP JUMPDEST PUSH1 0x0 DUP3 PUSH1 0x1F DUP4 ADD SLT PUSH2 0x14A3 JUMPI PUSH1 0x0 DUP1 REVERT JUMPDEST DUP2 CALLDATALOAD PUSH2 0x14B6 PUSH2 0x14B1 DUP3 PUSH2 0x146A JUMP JUMPDEST PUSH2 0x1439 JUMP JUMPDEST DUP2 DUP2 MSTORE DUP5 PUSH1 0x20 DUP4 DUP7 ADD ADD GT ISZERO PUSH2 0x14CB JUMPI PUSH1 0x0 DUP1 REVERT JUMPDEST DUP2 PUSH1 0x20 DUP6 ADD PUSH1 0x20 DUP4 ADD CALLDATACOPY PUSH1 0x0 SWAP2 DUP2 ADD PUSH1 0x20 ADD SWAP2 SWAP1 SWAP2 MSTORE SWAP4 SWAP3 POP POP POP JUMP JUMPDEST DUP1 CALLDATALOAD PUSH1 0x1 PUSH1 0x1 PUSH1 0xA0 SHL SUB DUP2 AND DUP2 EQ PUSH2 0x14FF JUMPI PUSH1 0x0 DUP1 REVERT JUMPDEST SWAP2 SWAP1 POP JUMP JUMPDEST PUSH1 0x0 DUP1 PUSH1 0x0 DUP1 PUSH1 0x0 DUP1 PUSH1 0x0 DUP1 PUSH1 0x0 PUSH2 0x120 DUP11 DUP13 SUB SLT ISZERO PUSH2 0x1523 JUMPI PUSH1 0x0 DUP1 REVERT JUMPDEST DUP10 CALLDATALOAD PUSH8 0xFFFFFFFFFFFFFFFF DUP2 GT ISZERO PUSH2 0x153A JUMPI PUSH1 0x0 DUP1 REVERT JUMPDEST PUSH2 0x1546 DUP13 DUP3 DUP14 ADD PUSH2 0x1492 JUMP JUMPDEST SWAP10 POP POP PUSH1 0x20 DUP11 ADD CALLDATALOAD SWAP8 POP PUSH2 0x155C PUSH1 0x40 DUP12 ADD PUSH2 0x14E8 JUMP JUMPDEST SWAP7 POP PUSH2 0x156A PUSH1 0x60 DUP12 ADD PUSH2 0x14E8 JUMP JUMPDEST SWAP6 POP PUSH2 0x1578 PUSH1 0x80 DUP12 ADD PUSH2 0x14E8 JUMP JUMPDEST SWAP9 SWAP12 SWAP8 SWAP11 POP SWAP6 SWAP9 SWAP5 SWAP8 SWAP7 PUSH1 0xA0 DUP7 ADD CALLDATALOAD SWAP7 POP PUSH1 0xC0 DUP7 ADD CALLDATALOAD SWAP6 PUSH1 0xE0 DUP2 ADD CALLDATALOAD SWAP6 POP PUSH2 0x100 ADD CALLDATALOAD SWAP4 POP SWAP2 POP POP JUMP JUMPDEST PUSH1 0x0 PUSH1 0x20 DUP3 DUP5 SUB SLT ISZERO PUSH2 0x15B4 JUMPI PUSH1 0x0 DUP1 REVERT JUMPDEST DUP2 CALLDATALOAD PUSH8 0xFFFFFFFFFFFFFFFF DUP2 GT ISZERO PUSH2 0x15CB JUMPI PUSH1 0x0 DUP1 REVERT JUMPDEST PUSH2 0xD18 DUP5 DUP3 DUP6 ADD PUSH2 0x1492 JUMP JUMPDEST PUSH4 0x4E487B71 PUSH1 0xE0 SHL PUSH1 0x0 MSTORE PUSH1 0x21 PUSH1 0x4 MSTORE PUSH1 0x24 PUSH1 0x0 REVERT JUMPDEST PUSH1 0x0 JUMPDEST DUP4 DUP2 LT ISZERO PUSH2 0x1608 JUMPI DUP2 DUP2 ADD MLOAD DUP4 DUP3 ADD MSTORE PUSH1 0x20 ADD PUSH2 0x15F0 JUMP JUMPDEST DUP4 DUP2 GT ISZERO PUSH2 0x1006 JUMPI POP POP PUSH1 0x0 SWAP2 ADD MSTORE JUMP JUMPDEST PUSH1 0x0 DUP2 MLOAD DUP1 DUP5 MSTORE PUSH2 0x1631 DUP2 PUSH1 0x20 DUP7 ADD PUSH1 0x20 DUP7 ADD PUSH2 0x15ED JUMP JUMPDEST PUSH1 0x1F ADD PUSH1 0x1F NOT AND SWAP3 SWAP1 SWAP3 ADD PUSH1 0x20 ADD SWAP3 SWAP2 POP POP JUMP JUMPDEST PUSH1 0x0 PUSH2 0x140 DUP13 DUP4 MSTORE PUSH1 0x5 DUP13 LT PUSH2 0x166B JUMPI PUSH4 0x4E487B71 PUSH1 0xE0 SHL PUSH1 0x0 MSTORE PUSH1 0x21 PUSH1 0x4 MSTORE PUSH1 0x24 PUSH1 0x0 REVERT JUMPDEST DUP12 PUSH1 0x20 DUP5 ADD MSTORE DUP11 PUSH1 0x40 DUP5 ADD MSTORE DUP10 PUSH1 0x60 DUP5 ADD MSTORE DUP9 PUSH1 0x80 DUP5 ADD MSTORE PUSH2 0x1698 PUSH1 0xA0 DUP5 ADD DUP10 PUSH1 0x1 PUSH1 0x1 PUSH1 0xA0 SHL SUB AND SWAP1 MSTORE JUMP JUMPDEST PUSH1 0x1 PUSH1 0x1 PUSH1 0xA0 SHL SUB DUP8 AND PUSH1 0xC0 DUP5 ADD MSTORE DUP1 PUSH1 0xE0 DUP5 ADD MSTORE PUSH2 0x16B9 DUP2 DUP5 ADD DUP8 PUSH2 0x1619 JUMP JUMPDEST SWAP1 POP DUP3 DUP2 SUB PUSH2 0x100 DUP5 ADD MSTORE PUSH2 0x16CE DUP2 DUP7 PUSH2 0x1619 JUMP JUMPDEST SWAP1 POP DUP3 DUP2 SUB PUSH2 0x120 DUP5 ADD MSTORE PUSH2 0x16E3 DUP2 DUP6 PUSH2 0x1619 JUMP JUMPDEST SWAP14 SWAP13 POP POP POP POP POP POP POP POP POP POP POP POP POP JUMP JUMPDEST PUSH1 0x0 PUSH1 0x20 DUP3 DUP5 SUB SLT ISZERO PUSH2 0x1706 JUMPI PUSH1 0x0 DUP1 REVERT JUMPDEST DUP2 MLOAD PUSH8 0xFFFFFFFFFFFFFFFF DUP2 GT ISZERO PUSH2 0x171D JUMPI PUSH1 0x0 DUP1 REVERT JUMPDEST DUP3 ADD PUSH1 0x1F DUP2 ADD DUP5 SGT PUSH2 0x172E JUMPI PUSH1 0x0 DUP1 REVERT JUMPDEST DUP1 MLOAD PUSH2 0x173C PUSH2 0x14B1 DUP3 PUSH2 0x146A JUMP JUMPDEST DUP2 DUP2 MSTORE DUP6 PUSH1 0x20 DUP4 DUP6 ADD ADD GT ISZERO PUSH2 0x1751 JUMPI PUSH1 0x0 DUP1 REVERT JUMPDEST PUSH2 0xCDA DUP3 PUSH1 0x20 DUP4 ADD PUSH1 0x20 DUP7 ADD PUSH2 0x15ED JUMP JUMPDEST PUSH1 0x40 DUP2 MSTORE PUSH1 0x0 PUSH2 0x1775 PUSH1 0x40 DUP4 ADD DUP5 PUSH2 0x1619 JUMP JUMPDEST DUP3 DUP2 SUB PUSH1 0x20 DUP5 ADD MSTORE PUSH1 0x9 DUP2 MSTORE PUSH9 0x11195B1A5D995C9959 PUSH1 0xBA SHL PUSH1 0x20 DUP3 ADD MSTORE PUSH1 0x40 DUP2 ADD SWAP2 POP POP SWAP3 SWAP2 POP POP JUMP JUMPDEST PUSH1 0x0 PUSH1 0x20 DUP3 DUP5 SUB SLT ISZERO PUSH2 0x17B2 JUMPI PUSH1 0x0 DUP1 REVERT JUMPDEST DUP2 MLOAD DUP1 ISZERO ISZERO DUP2 EQ PUSH2 0x10E6 JUMPI PUSH1 0x0 DUP1 REVERT JUMPDEST PUSH1 0x20 DUP1 DUP3 MSTORE PUSH1 0xA SWAP1 DUP3 ADD MSTORE PUSH10 0x27B7363C9027BBB732B9 PUSH1 0xB1 SHL PUSH1 0x40 DUP3 ADD MSTORE PUSH1 0x60 ADD SWAP1 JUMP JUMPDEST PUSH1 0x20 DUP2 MSTORE PUSH1 0x0 PUSH2 0x10E6 PUSH1 0x20 DUP4 ADD DUP5 PUSH2 0x1619 JUMP JUMPDEST PUSH1 0x1 DUP2 DUP2 SHR SWAP1 DUP3 AND DUP1 PUSH2 0x180D JUMPI PUSH1 0x7F DUP3 AND SWAP2 POP JUMPDEST PUSH1 0x20 DUP3 LT DUP2 EQ ISZERO PUSH2 0x1310 JUMPI PUSH4 0x4E487B71 PUSH1 0xE0 SHL PUSH1 0x0 MSTORE PUSH1 0x22 PUSH1 0x4 MSTORE PUSH1 0x24 PUSH1 0x0 REVERT JUMPDEST PUSH1 0x0 PUSH1 0x20 DUP1 DUP4 MSTORE PUSH1 0x0 DUP5 SLOAD DUP2 PUSH1 0x1 DUP3 DUP2 SHR SWAP2 POP DUP1 DUP4 AND DUP1 PUSH2 0x1850 JUMPI PUSH1 0x7F DUP4 AND SWAP3 POP JUMPDEST DUP6 DUP4 LT DUP2 EQ ISZERO PUSH2 0x186E JUMPI PUSH4 0x4E487B71 PUSH1 0xE0 SHL DUP6 MSTORE PUSH1 0x22 PUSH1 0x4 MSTORE PUSH1 0x24 DUP6 REVERT JUMPDEST DUP8 DUP7 ADD DUP4 DUP2 MSTORE PUSH1 0x20 ADD DUP2 DUP1 ISZERO PUSH2 0x188B JUMPI PUSH1 0x1 DUP2 EQ PUSH2 0x189C JUMPI PUSH2 0x18C7 JUMP JUMPDEST PUSH1 0xFF NOT DUP7 AND DUP3 MSTORE DUP8 DUP3 ADD SWAP7 POP PUSH2 0x18C7 JUMP JUMPDEST PUSH1 0x0 DUP12 DUP2 MSTORE PUSH1 0x20 SWAP1 KECCAK256 PUSH1 0x0 JUMPDEST DUP7 DUP2 LT ISZERO PUSH2 0x18C1 JUMPI DUP2 SLOAD DUP5 DUP3 ADD MSTORE SWAP1 DUP6 ADD SWAP1 DUP10 ADD PUSH2 0x18A8 JUMP JUMPDEST DUP4 ADD SWAP8 POP POP JUMPDEST POP SWAP5 SWAP10 SWAP9 POP POP POP POP POP POP POP POP POP JUMP JUMPDEST PUSH4 0x4E487B71 PUSH1 0xE0 SHL PUSH1 0x0 MSTORE PUSH1 0x11 PUSH1 0x4 MSTORE PUSH1 0x24 PUSH1 0x0 REVERT JUMPDEST PUSH1 0x0 DUP3 NOT DUP3 GT ISZERO PUSH2 0x18FF JUMPI PUSH2 0x18FF PUSH2 0x18D6 JUMP JUMPDEST POP ADD SWAP1 JUMP JUMPDEST PUSH1 0x1 PUSH1 0x1 PUSH1 0xA0 SHL SUB DUP10 DUP2 AND DUP3 MSTORE PUSH1 0x20 DUP3 ADD DUP10 SWAP1 MSTORE PUSH1 0x40 DUP3 ADD DUP9 SWAP1 MSTORE DUP7 AND PUSH1 0x60 DUP3 ADD MSTORE PUSH1 0x1 PUSH1 0x1 PUSH1 0xE0 SHL SUB NOT DUP6 AND PUSH1 0x80 DUP3 ADD MSTORE PUSH1 0xA0 DUP2 ADD DUP5 SWAP1 MSTORE PUSH1 0xC0 DUP2 ADD DUP4 SWAP1 MSTORE PUSH2 0x100 PUSH1 0xE0 DUP3 ADD DUP2 SWAP1 MSTORE PUSH1 0x0 SWAP1 PUSH2 0x195D DUP4 DUP3 ADD DUP6 PUSH2 0x1619 JUMP JUMPDEST SWAP12 SWAP11 POP POP POP POP POP POP POP POP POP POP POP JUMP JUMPDEST PUSH1 0x1 DUP1 PUSH1 0xA0 SHL SUB DUP5 AND DUP2 MSTORE DUP3 PUSH1 0x20 DUP3 ADD MSTORE PUSH1 0x60 PUSH1 0x40 DUP3 ADD MSTORE PUSH1 0x0 PUSH2 0xCDA PUSH1 0x60 DUP4 ADD DUP5 PUSH2 0x1619 JUMP JUMPDEST PUSH1 0x0 DUP3 PUSH2 0x19B0 JUMPI PUSH4 0x4E487B71 PUSH1 0xE0 SHL PUSH1 0x0 MSTORE PUSH1 0x12 PUSH1 0x4 MSTORE PUSH1 0x24 PUSH1 0x0 REVERT JUMPDEST POP MOD SWAP1 JUMP JUMPDEST PUSH1 0x0 DUP3 DUP3 LT ISZERO PUSH2 0x19C7 JUMPI PUSH2 0x19C7 PUSH2 0x18D6 JUMP JUMPDEST POP SUB SWAP1 JUMP JUMPDEST PUSH1 0x0 DUP2 PUSH1 0x0 NOT DIV DUP4 GT DUP3 ISZERO ISZERO AND ISZERO PUSH2 0x19E6 JUMPI PUSH2 0x19E6 PUSH2 0x18D6 JUMP JUMPDEST POP MUL SWAP1 JUMP JUMPDEST PUSH1 0x1 DUP2 DUP2 JUMPDEST DUP1 DUP6 GT ISZERO PUSH2 0x1A26 JUMPI DUP2 PUSH1 0x0 NOT DIV DUP3 GT ISZERO PUSH2 0x1A0C JUMPI PUSH2 0x1A0C PUSH2 0x18D6 JUMP JUMPDEST DUP1 DUP6 AND ISZERO PUSH2 0x1A19 JUMPI SWAP2 DUP2 MUL SWAP2 JUMPDEST SWAP4 DUP5 SHR SWAP4 SWAP1 DUP1 MUL SWAP1 PUSH2 0x19F0 JUMP JUMPDEST POP SWAP3 POP SWAP3 SWAP1 POP JUMP JUMPDEST PUSH1 0x0 DUP3 PUSH2 0x1A3D JUMPI POP PUSH1 0x1 PUSH2 0xFE5 JUMP JUMPDEST DUP2 PUSH2 0x1A4A JUMPI POP PUSH1 0x0 PUSH2 0xFE5 JUMP JUMPDEST DUP2 PUSH1 0x1 DUP2 EQ PUSH2 0x1A60 JUMPI PUSH1 0x2 DUP2 EQ PUSH2 0x1A6A JUMPI PUSH2 0x1A86 JUMP JUMPDEST PUSH1 0x1 SWAP2 POP POP PUSH2 0xFE5 JUMP JUMPDEST PUSH1 0xFF DUP5 GT ISZERO PUSH2 0x1A7B JUMPI PUSH2 0x1A7B PUSH2 0x18D6 JUMP JUMPDEST POP POP PUSH1 0x1 DUP3 SHL PUSH2 0xFE5 JUMP JUMPDEST POP PUSH1 0x20 DUP4 LT PUSH2 0x133 DUP4 LT AND PUSH1 0x4E DUP5 LT PUSH1 0xB DUP5 LT AND OR ISZERO PUSH2 0x1AA9 JUMPI POP DUP2 DUP2 EXP PUSH2 0xFE5 JUMP JUMPDEST PUSH2 0x1AB3 DUP4 DUP4 PUSH2 0x19EB JUMP JUMPDEST DUP1 PUSH1 0x0 NOT DIV DUP3 GT ISZERO PUSH2 0x1AC7 JUMPI PUSH2 0x1AC7 PUSH2 0x18D6 JUMP JUMPDEST MUL SWAP4 SWAP3 POP POP POP JUMP JUMPDEST PUSH1 0x0 PUSH2 0x10E6 DUP4 DUP4 PUSH2 0x1A2E JUMP INVALID LOG2 PUSH5 0x6970667358 0x22 SLT KECCAK256 0xE3 PUSH8 0x4C632C01EAAB69A9 0xB4 DUP2 CALLDATALOAD DUP2 0xD8 BALANCE 0xB3 0xFB PUSH11 0x89D13982915A62D69DEB4 0x2F MSTORE PUSH5 0x736F6C6343 STOP ADDMOD MULMOD STOP CALLER LOG2 PUSH5 0x6970667358 0x22 SLT KECCAK256 0x5F CALLDATALOAD PUSH11 0x28EBCD247AEF32AC4380BD 0xB2 0x25 DUP3 0xCE 0xE 0xEC 0xCD 0xDE LOG1 0xBA 0xDC 0xAF 0xB9 DUP8 0x25 XOR 0xC7 0xAD PUSH5 0x736F6C6343 STOP ADDMOD MULMOD STOP CALLER ","sha1":"c0f49e533802093a70008dd2517d87dbaf7dc886","source":"// SPDX-License-Identifier: MIT\npragma solidity ^0.8.7;\n\nimport \"./Escrow.sol\";\nimport \"@openzeppelin/contracts/access/Ownable.sol\";\nimport \"@openzeppelin/contracts/token/ERC20/ERC20.sol\";\n\ncontract EscrowFactory is Ownable {\n    address linkToken;\n    address oracle;\n    bytes32 jobId;\n    uint256 public maxLockPeriod;\n    uint256 public productCount;\n    uint256 internal constant oracleFee = 1 * 10**18;\n\n    constructor(\n        bytes32 _jobId,\n        address _linkToken,\n        address _oracle,\n        uint256 _maxLockPeriod\n    ) {\n        require(_maxLockPeriod >= 0, \"lock period must be greater than 0\");\n        linkToken = _linkToken;\n        oracle = _oracle;\n        jobId = _jobId;\n        productCount = 0;\n        maxLockPeriod = _maxLockPeriod;\n    }\n\n    event ProductCreated(address indexed seller, address product);\n\n    function createProduct(\n        string memory _name,\n        uint256 _price,\n        string memory _productURI,\n        uint256 _lockPeriod\n    ) external {\n        require(_lockPeriod <= maxLockPeriod, \"Invalid lock time\");\n        uint256 newId = productCount;\n\n        // address product = address(new Escrow{salt: salt}());\n        address addr;\n        bytes memory bytecode = type(Escrow).creationCode;\n        bytes32 salt = keccak256(abi.encodePacked(newId, msg.sender, _price));\n        assembly {\n            addr := create2(0, add(bytecode, 32), mload(bytecode), salt)\n        }\n\n        Escrow(addr).setProductURI(_productURI);\n\n        Escrow(addr).init(\n            _name,\n            jobId,\n            linkToken,\n            oracle,\n            msg.sender,\n            newId,\n            _price,\n            _lockPeriod,\n            oracleFee\n        );\n\n        ERC20(linkToken).transfer(addr, 3 * oracleFee);\n\n        productCount++;\n\n        emit ProductCreated(msg.sender, addr);\n    }\n\n    function setMaxLockPeriod(uint256 _maxLockPeriod) external onlyOwner {\n        require(_maxLockPeriod >= 0, \"lock period must be greater than 0\");\n        maxLockPeriod = _maxLockPeriod;\n    }\n}\n","sourcePath":"contracts/EscrowFactory.sol","deployment":{"address":"0xDCc38eA97Bb158f0ee58F179EeC50Ee81A196F22","chainid":"42","blockHeight":28461680}}