{
  "abi": [
    {
      "inputs": [],
      "stateMutability": "nonpayable",
      "type": "constructor"
    },
    {
      "anonymous": false,
      "inputs": [
        {
          "indexed": true,
          "internalType": "bytes32",
          "name": "id",
          "type": "bytes32"
        }
      ],
      "name": "ChainlinkCancelled",
      "type": "event"
    },
    {
      "anonymous": false,
      "inputs": [
        {
          "indexed": true,
          "internalType": "bytes32",
          "name": "id",
          "type": "bytes32"
        }
      ],
      "name": "ChainlinkFulfilled",
      "type": "event"
    },
    {
      "anonymous": false,
      "inputs": [
        {
          "indexed": true,
          "internalType": "bytes32",
          "name": "id",
          "type": "bytes32"
        }
      ],
      "name": "ChainlinkRequested",
      "type": "event"
    },
    {
      "anonymous": false,
      "inputs": [
        {
          "indexed": true,
          "internalType": "address",
          "name": "_buyer",
          "type": "address"
        }
      ],
      "name": "OrderCancel",
      "type": "event"
    },
    {
      "anonymous": false,
      "inputs": [
        {
          "indexed": false,
          "internalType": "string",
          "name": "trackingNo",
          "type": "string"
        }
      ],
      "name": "OrderCompleted",
      "type": "event"
    },
    {
      "anonymous": false,
      "inputs": [
        {
          "indexed": true,
          "internalType": "address",
          "name": "_buyer",
          "type": "address"
        }
      ],
      "name": "OrderInitiate",
      "type": "event"
    },
    {
      "anonymous": false,
      "inputs": [
        {
          "indexed": false,
          "internalType": "bytes32",
          "name": "status",
          "type": "bytes32"
        }
      ],
      "name": "ShipmentDelivered",
      "type": "event"
    },
    {
      "anonymous": false,
      "inputs": [
        {
          "indexed": false,
          "internalType": "string",
          "name": "trackingNo",
          "type": "string"
        }
      ],
      "name": "ShipmentInprogress",
      "type": "event"
    },
    {
      "anonymous": false,
      "inputs": [
        {
          "indexed": false,
          "internalType": "bytes32",
          "name": "status",
          "type": "bytes32"
        }
      ],
      "name": "ShipmentUpdated",
      "type": "event"
    },
    {
      "inputs": [],
      "name": "buyer",
      "outputs": [
        {
          "internalType": "address",
          "name": "",
          "type": "address"
        }
      ],
      "stateMutability": "view",
      "type": "function"
    },
    {
      "inputs": [],
      "name": "cancelOrder",
      "outputs": [],
      "stateMutability": "nonpayable",
      "type": "function"
    },
    {
      "inputs": [],
      "name": "currency",
      "outputs": [
        {
          "internalType": "contract IERC20",
          "name": "",
          "type": "address"
        }
      ],
      "stateMutability": "view",
      "type": "function"
    },
    {
      "inputs": [],
      "name": "currentBlock",
      "outputs": [
        {
          "internalType": "uint256",
          "name": "",
          "type": "uint256"
        }
      ],
      "stateMutability": "view",
      "type": "function"
    },
    {
      "inputs": [],
      "name": "deliveryStatus",
      "outputs": [
        {
          "internalType": "string",
          "name": "",
          "type": "string"
        }
      ],
      "stateMutability": "view",
      "type": "function"
    },
    {
      "inputs": [
        {
          "internalType": "bytes32",
          "name": "_requestId",
          "type": "bytes32"
        },
        {
          "internalType": "bytes32",
          "name": "_deliveryStatus",
          "type": "bytes32"
        }
      ],
      "name": "fulfillShippingDetail",
      "outputs": [],
      "stateMutability": "nonpayable",
      "type": "function"
    },
    {
      "inputs": [
        {
          "internalType": "address",
          "name": "_link",
          "type": "address"
        },
        {
          "internalType": "address",
          "name": "_oracle",
          "type": "address"
        },
        {
          "internalType": "string",
          "name": "_jobId",
          "type": "string"
        },
        {
          "internalType": "address",
          "name": "_seller",
          "type": "address"
        },
        {
          "internalType": "uint256",
          "name": "_price",
          "type": "uint256"
        },
        {
          "internalType": "uint256",
          "name": "_lockPeriod",
          "type": "uint256"
        }
      ],
      "name": "init",
      "outputs": [],
      "stateMutability": "nonpayable",
      "type": "function"
    },
    {
      "inputs": [],
      "name": "lockPeriod",
      "outputs": [
        {
          "internalType": "uint256",
          "name": "",
          "type": "uint256"
        }
      ],
      "stateMutability": "view",
      "type": "function"
    },
    {
      "inputs": [],
      "name": "order",
      "outputs": [],
      "stateMutability": "payable",
      "type": "function"
    },
    {
      "inputs": [],
      "name": "price",
      "outputs": [
        {
          "internalType": "uint256",
          "name": "",
          "type": "uint256"
        }
      ],
      "stateMutability": "view",
      "type": "function"
    },
    {
      "inputs": [],
      "name": "reclaimFund",
      "outputs": [],
      "stateMutability": "nonpayable",
      "type": "function"
    },
    {
      "inputs": [],
      "name": "requestShippingDetail",
      "outputs": [],
      "stateMutability": "nonpayable",
      "type": "function"
    },
    {
      "inputs": [],
      "name": "seller",
      "outputs": [
        {
          "internalType": "address",
          "name": "",
          "type": "address"
        }
      ],
      "stateMutability": "view",
      "type": "function"
    },
    {
      "inputs": [],
      "name": "stage",
      "outputs": [
        {
          "internalType": "enum Escrow.Stage",
          "name": "",
          "type": "uint8"
        }
      ],
      "stateMutability": "view",
      "type": "function"
    },
    {
      "inputs": [
        {
          "internalType": "string",
          "name": "_trackingNO",
          "type": "string"
        }
      ],
      "name": "updateShipment",
      "outputs": [],
      "stateMutability": "nonpayable",
      "type": "function"
    }
  ],
  "bytecode": "6080604052600160045534801561001557600080fd5b50600880546001600160a01b03191633179055611bf8806100376000396000f3fe6080604052600436106100e75760003560e01c80636a8165481161008a578063bf15071d11610059578063bf15071d14610246578063c040e6b81461024e578063e12ed13c1461027c578063e5a6b10f1461029257600080fd5b80636a816548146101e65780636b827cd4146101fb5780637150d8ae14610210578063a035b1fe1461023057600080fd5b80630ced083c116100c65780630ced083c1461016b578063366e8e521461018d5780633fd8b02f146101a257806350737055146101c657600080fd5b8062e31057146100ec57806308551a531461010e57806309d99f671461014b575b600080fd5b3480156100f857600080fd5b5061010c610107366004611678565b6102b2565b005b34801561011a57600080fd5b50600a5461012e906001600160a01b031681565b6040516001600160a01b0390911681526020015b60405180910390f35b34801561015757600080fd5b5061010c6101663660046116f9565b6103f6565b34801561017757600080fd5b506101806106e5565b6040516101429190611773565b34801561019957600080fd5b5061010c610773565b3480156101ae57600080fd5b506101b8600f5481565b604051908152602001610142565b3480156101d257600080fd5b5061010c6101e1366004611786565b610873565b3480156101f257600080fd5b5061010c61098b565b34801561020757600080fd5b5061010c610b2a565b34801561021c57600080fd5b5060095461012e906001600160a01b031681565b34801561023c57600080fd5b506101b8600b5481565b61010c610cdc565b34801561025a57600080fd5b5060085461026f90600160a01b900460ff1681565b60405161014291906117d1565b34801561028857600080fd5b506101b860105481565b34801561029e57600080fd5b50600c5461012e906001600160a01b031681565b6008546001600160a01b031633146102fd5760405162461bcd60e51b81526020600482015260096024820152682327a92124a22222a760b91b60448201526064015b60405180910390fd5b600280546001600160a01b0319166001600160a01b038816179055600680546001600160a01b0319166001600160a01b0387161790556040516319f6a32560e31b815273__strings_______________________________9063cfb519289061036a908790600401611773565b60206040518083038186803b15801561038257600080fd5b505af4158015610396573d6000803e3d6000fd5b505050506040513d601f19601f820116820180604052508101906103ba91906117f9565b6007556008805460ff60a01b19169055600a80546001600160a01b0319166001600160a01b039490941693909317909255600b55600f55505050565b60008281526005602052604090205482906001600160a01b0316331461046f5760405162461bcd60e51b815260206004820152602860248201527f536f75726365206d75737420626520746865206f7261636c65206f6620746865604482015267081c995c5d595cdd60c21b60648201526084016102f4565b60008181526005602052604080822080546001600160a01b03191690555182917f7cc135e0cebb02c3480ae5d74d377283180a2601f8f644edf7987b009316c63a91a2604051639201de5560e01b81526004810183905273__strings_______________________________90639201de559060240160006040518083038186803b1580156104fd57600080fd5b505af4158015610511573d6000803e3d6000fd5b505050506040513d6000823e601f3d908101601f191682016040526105399190810190611812565b805161054d91600e916020909101906114c3565b50600e805461055b90611880565b80601f016020809104026020016040519081016040528092919081815260200182805461058790611880565b80156105d45780601f106105a9576101008083540402835291602001916105d4565b820191906000526020600020905b8154815290600101906020018083116105b757829003601f168201915b5050604051635f69a5dd60e11b815273__strings_______________________________9463bed34bba945061060f935091506004016118b5565b60206040518083038186803b15801561062757600080fd5b505af415801561063b573d6000803e3d6000fd5b505050506040513d601f19601f8201168201806040525081019061065f91906118f3565b156106b0576008805460ff60a01b1916600360a01b1790556040518281527fad84bc03ffc88d269c045288b6bd3d77f12f9ef79581b860c1538f4bd662f9ea906020015b60405180910390a1505050565b6040518281527f65fb20badd0fcfd3bf3ba0ca9bfe4ec522640041a07decd17f1be1fb0ead4f4a906020016106a3565b505050565b600e80546106f290611880565b80601f016020809104026020016040519081016040528092919081815260200182805461071e90611880565b801561076b5780601f106107405761010080835404028352916020019161076b565b820191906000526020600020905b81548152906001019060200180831161074e57829003601f168201915b505050505081565b60408051808201909152600d81526c496e76616c696420537461676560981b602082015260085460039190600160a01b900460ff1660048111156107b9576107b96117bb565b8260048111156107cb576107cb6117bb565b1481906107eb5760405162461bcd60e51b81526004016102f49190611773565b50600a546001600160a01b031633146108345760405162461bcd60e51b815260206004820152600b60248201526a27b7363c9029b2b63632b960a91b60448201526064016102f4565b6008805460ff60a01b1916600160a21b17905560405133904780156108fc02916000818181858888f193505050501580156106e0573d6000803e3d6000fd5b60408051808201909152600d81526c496e76616c696420537461676560981b602082015260085460019190600160a01b900460ff1660048111156108b9576108b96117bb565b8260048111156108cb576108cb6117bb565b1481906108eb5760405162461bcd60e51b81526004016102f49190611773565b50600a546001600160a01b031633146109345760405162461bcd60e51b815260206004820152600b60248201526a27b7363c9029b2b63632b960a91b60448201526064016102f4565b6008805460ff60a01b1916600160a11b179055825161095a90600d9060208601906114c3565b507f1862cf7a0e12bac162f518f43c2f50df187e89045899a7c015c1d61d9880a11b600d6040516106a39190611915565b6040805180820190915260148152737368697070696e6720696e2070726f677265737360601b602082015260085460019190600160a01b900460ff1660048111156109d8576109d86117bb565b8260048111156109ea576109ea6117bb565b148190610a0a5760405162461bcd60e51b81526004016102f49190611773565b506009546001600160a01b03163314610a525760405162461bcd60e51b815260206004820152600a60248201526927b7363c90313abcb2b960b11b60448201526064016102f4565b600f54601054610a6291906119d3565b431015610ab15760405162461bcd60e51b815260206004820152601b60248201527f4e6f7420616c6c6f77656420746f2063616e63656c206f72646572000000000060448201526064016102f4565b600980546001600160a01b03191690556008805460ff60a01b1916905560405133904780156108fc02916000818181858888f19350505050158015610afa573d6000803e3d6000fd5b5060405133907f393629f15e859a19530bab9675f9d39f0f57889f19f883bc5be3533c4a2c9ea890600090a25050565b60408051808201909152600d81526c13995959081cda1a5c1b595b9d609a1b602082015260085460029190600160a01b900460ff166004811115610b7057610b706117bb565b826004811115610b8257610b826117bb565b148190610ba25760405162461bcd60e51b81526004016102f49190611773565b506000610bb9600754306309d99f6760e01b610e54565b9050610c7c6040518060400160405280600a815260200169747261636b696e674e6f60b01b815250600d8054610bee90611880565b80601f0160208091040260200160405190810160405280929190818152602001828054610c1a90611880565b8015610c675780601f10610c3c57610100808354040283529160200191610c67565b820191906000526020600020905b815481529060010190602001808311610c4a57829003601f168201915b505050505083610e799092919063ffffffff16565b600654600090610ca8906001600160a01b031683610ca3670de0b6b3a764000060016119eb565b610e97565b60405190915081907fb5e6e01e79f91267dc17b4e6314d5d4d03593d2ceee0fbb452b750bd70ea5af990600090a250505050565b60408051808201909152601481527320b63932b0b23c903430bb32903090313abcb2b960611b602082015260085460009190600160a01b900460ff166004811115610d2957610d296117bb565b826004811115610d3b57610d3b6117bb565b148190610d5b5760405162461bcd60e51b81526004016102f49190611773565b50600a546001600160a01b0316331415610db75760405162461bcd60e51b815260206004820152601d60248201527f596f752063616e206e6f74206275792066726f6d20796f757273656c6600000060448201526064016102f4565b600b54341015610dfb5760405162461bcd60e51b815260206004820152600f60248201526e139bdd08195b9bdd59da08199d5b99608a1b60448201526064016102f4565b6008805460ff60a01b1916600160a01b179055600980546001600160a01b03191633908117909155436010556040517fe4caeaef8e4f0c4880839ca47219351b38cf4116c082fd0baefc3008e4ba11a390600090a25050565b610e5c611547565b610e64611547565b610e7081868686610eb6565b95945050505050565b6080830151610e889083610ef3565b60808301516106e09082610ef3565b6000610eae84848460016320214ca360e11b610f0a565b949350505050565b610ebe611547565b610ece8560800151610100611116565b50509183526001600160a01b031660208301526001600160e01b031916604082015290565b610f008260038351611181565b6106e08282611255565b6004546040516bffffffffffffffffffffffff193060601b166020820152603481019190915260009060540160408051808303601f19018152918152815160209283012060045460608901526000818152600590935281832080546001600160a01b0319166001600160a01b038b16179055905190925082917fb5e6e01e79f91267dc17b4e6314d5d4d03593d2ceee0fbb452b750bd70ea5af991a2600082600080886000015189602001518a604001518b606001518a8d6080015160000151604051602401610fe1989796959493929190611a0a565b60408051601f198184030181529181526020820180516001600160e01b03166001600160e01b0319909416939093179092526002549151630200057560e51b81529092506001600160a01b0390911690634000aea090611049908a9089908690600401611a72565b602060405180830381600087803b15801561106357600080fd5b505af1158015611077573d6000803e3d6000fd5b505050506040513d601f19601f8201168201806040525081019061109b91906118f3565b6110f35760405162461bcd60e51b815260206004820152602360248201527f756e61626c6520746f207472616e73666572416e6443616c6c20746f206f7261604482015262636c6560e81b60648201526084016102f4565b60016004600082825461110691906119d3565b9091555091979650505050505050565b604080518082019091526060815260006020820152611136602083611a99565b1561115e57611146602083611a99565b611151906020611abb565b61115b90836119d3565b91505b506020808301829052604080518085526000815283019091019052815b92915050565b601781116111a25761119c8360e0600585901b168317611283565b50505050565b60ff81116111cc576111bf836018611fe0600586901b1617611283565b5061119c838260016112a8565b61ffff81116111f7576111ea836019611fe0600586901b1617611283565b5061119c838260026112a8565b63ffffffff81116112245761121783601a611fe0600586901b1617611283565b5061119c838260046112a8565b67ffffffffffffffff81116106e05761124883601b611fe0600586901b1617611283565b5061119c838260086112a8565b60408051808201909152606081526000602082015261127c838460000151518485516112ce565b9392505050565b60408051808201909152606081526000602082015261127c83846000015151846113b8565b604080518082019091526060815260006020820152610eae848560000151518585611414565b60408051808201909152606081526000602082015282518211156112f157600080fd5b602085015161130083866119d3565b111561133357611333856113238760200151878661131e91906119d3565b611495565b61132e9060026119eb565b6114ac565b6000808651805187602083010193508088870111156113525787860182525b505050602084015b6020841061139257805182526113716020836119d3565b915061137e6020826119d3565b905061138b602085611abb565b935061135a565b51815160001960208690036101000a019081169019919091161790525083949350505050565b604080518082019091526060815260006020820152836020015183106113ed576113ed848560200151600261132e91906119eb565b83518051602085830101848153508085141561140a576001810182525b5093949350505050565b604080518082019091526060815260006020820152602085015161143885846119d3565b111561144c5761144c8561132386856119d3565b6000600161145c84610100611bb6565b6114669190611abb565b905085518386820101858319825116178152508051848701111561148a5783860181525b509495945050505050565b6000818311156114a657508161117b565b50919050565b81516114b88383611116565b5061119c8382611255565b8280546114cf90611880565b90600052602060002090601f0160209004810192826114f15760008555611537565b82601f1061150a57805160ff1916838001178555611537565b82800160010185558215611537579182015b8281111561153757825182559160200191906001019061151c565b50611543929150611582565b5090565b6040805160a0810182526000808252602080830182905282840182905260608084018390528451808601909552845283015290608082015290565b5b808211156115435760008155600101611583565b80356001600160a01b03811681146115ae57600080fd5b919050565b634e487b7160e01b600052604160045260246000fd5b604051601f8201601f1916810167ffffffffffffffff811182821017156115f2576115f26115b3565b604052919050565b600067ffffffffffffffff821115611614576116146115b3565b50601f01601f191660200190565b600082601f83011261163357600080fd5b8135611646611641826115fa565b6115c9565b81815284602083860101111561165b57600080fd5b816020850160208301376000918101602001919091529392505050565b60008060008060008060c0878903121561169157600080fd5b61169a87611597565b95506116a860208801611597565b9450604087013567ffffffffffffffff8111156116c457600080fd5b6116d089828a01611622565b9450506116df60608801611597565b92506080870135915060a087013590509295509295509295565b6000806040838503121561170c57600080fd5b50508035926020909101359150565b60005b8381101561173657818101518382015260200161171e565b8381111561119c5750506000910152565b6000815180845261175f81602086016020860161171b565b601f01601f19169290920160200192915050565b60208152600061127c6020830184611747565b60006020828403121561179857600080fd5b813567ffffffffffffffff8111156117af57600080fd5b610eae84828501611622565b634e487b7160e01b600052602160045260246000fd5b60208101600583106117f357634e487b7160e01b600052602160045260246000fd5b91905290565b60006020828403121561180b57600080fd5b5051919050565b60006020828403121561182457600080fd5b815167ffffffffffffffff81111561183b57600080fd5b8201601f8101841361184c57600080fd5b805161185a611641826115fa565b81815285602083850101111561186f57600080fd5b610e7082602083016020860161171b565b600181811c9082168061189457607f821691505b602082108114156114a657634e487b7160e01b600052602260045260246000fd5b6040815260006118c86040830184611747565b8281036020840152600981526811195b1a5d995c995960ba1b60208201526040810191505092915050565b60006020828403121561190557600080fd5b8151801515811461127c57600080fd5b600060208083526000845481600182811c91508083168061193757607f831692505b85831081141561195557634e487b7160e01b85526022600452602485fd5b8786018381526020018180156119725760018114611983576119ae565b60ff198616825287820196506119ae565b60008b81526020902060005b868110156119a85781548482015290850190890161198f565b83019750505b50949998505050505050505050565b634e487b7160e01b600052601160045260246000fd5b600082198211156119e6576119e66119bd565b500190565b6000816000190483118215151615611a0557611a056119bd565b500290565b6001600160a01b0389811682526020820189905260408201889052861660608201526001600160e01b03198516608082015260a0810184905260c0810183905261010060e08201819052600090611a6383820185611747565b9b9a5050505050505050505050565b60018060a01b0384168152826020820152606060408201526000610e706060830184611747565b600082611ab657634e487b7160e01b600052601260045260246000fd5b500690565b600082821015611acd57611acd6119bd565b500390565b600181815b80851115611b0d578160001904821115611af357611af36119bd565b80851615611b0057918102915b93841c9390800290611ad7565b509250929050565b600082611b245750600161117b565b81611b315750600061117b565b8160018114611b475760028114611b5157611b6d565b600191505061117b565b60ff841115611b6257611b626119bd565b50506001821b61117b565b5060208310610133831016604e8410600b8410161715611b90575081810a61117b565b611b9a8383611ad2565b8060001904821115611bae57611bae6119bd565b029392505050565b600061127c8383611b1556fea2646970667358221220eb77284eefd3344b394c441693f591db1ad5ce03c4d15d9e1dd1bf0d2b7b149064736f6c63430008090033",
  "bytecodeSha1": "5492ed0f2c8a4697507ddbe89fb2aa6d0376c2d6",
  "compiler": {
    "evm_version": "istanbul",
    "optimizer": {
      "enabled": true,
      "runs": 200
    },
    "version": "0.8.9+commit.e5eed63a"
  },
  "contractName": "Escrow",
  "deployedBytecode": "6080604052600436106100e75760003560e01c80636a8165481161008a578063bf15071d11610059578063bf15071d14610246578063c040e6b81461024e578063e12ed13c1461027c578063e5a6b10f1461029257600080fd5b80636a816548146101e65780636b827cd4146101fb5780637150d8ae14610210578063a035b1fe1461023057600080fd5b80630ced083c116100c65780630ced083c1461016b578063366e8e521461018d5780633fd8b02f146101a257806350737055146101c657600080fd5b8062e31057146100ec57806308551a531461010e57806309d99f671461014b575b600080fd5b3480156100f857600080fd5b5061010c610107366004611678565b6102b2565b005b34801561011a57600080fd5b50600a5461012e906001600160a01b031681565b6040516001600160a01b0390911681526020015b60405180910390f35b34801561015757600080fd5b5061010c6101663660046116f9565b6103f6565b34801561017757600080fd5b506101806106e5565b6040516101429190611773565b34801561019957600080fd5b5061010c610773565b3480156101ae57600080fd5b506101b8600f5481565b604051908152602001610142565b3480156101d257600080fd5b5061010c6101e1366004611786565b610873565b3480156101f257600080fd5b5061010c61098b565b34801561020757600080fd5b5061010c610b2a565b34801561021c57600080fd5b5060095461012e906001600160a01b031681565b34801561023c57600080fd5b506101b8600b5481565b61010c610cdc565b34801561025a57600080fd5b5060085461026f90600160a01b900460ff1681565b60405161014291906117d1565b34801561028857600080fd5b506101b860105481565b34801561029e57600080fd5b50600c5461012e906001600160a01b031681565b6008546001600160a01b031633146102fd5760405162461bcd60e51b81526020600482015260096024820152682327a92124a22222a760b91b60448201526064015b60405180910390fd5b600280546001600160a01b0319166001600160a01b038816179055600680546001600160a01b0319166001600160a01b0387161790556040516319f6a32560e31b815273__$70037793ffcb74a9865142770fa2fa1c6b$__9063cfb519289061036a908790600401611773565b60206040518083038186803b15801561038257600080fd5b505af4158015610396573d6000803e3d6000fd5b505050506040513d601f19601f820116820180604052508101906103ba91906117f9565b6007556008805460ff60a01b19169055600a80546001600160a01b0319166001600160a01b039490941693909317909255600b55600f55505050565b60008281526005602052604090205482906001600160a01b0316331461046f5760405162461bcd60e51b815260206004820152602860248201527f536f75726365206d75737420626520746865206f7261636c65206f6620746865604482015267081c995c5d595cdd60c21b60648201526084016102f4565b60008181526005602052604080822080546001600160a01b03191690555182917f7cc135e0cebb02c3480ae5d74d377283180a2601f8f644edf7987b009316c63a91a2604051639201de5560e01b81526004810183905273__$70037793ffcb74a9865142770fa2fa1c6b$__90639201de559060240160006040518083038186803b1580156104fd57600080fd5b505af4158015610511573d6000803e3d6000fd5b505050506040513d6000823e601f3d908101601f191682016040526105399190810190611812565b805161054d91600e916020909101906114c3565b50600e805461055b90611880565b80601f016020809104026020016040519081016040528092919081815260200182805461058790611880565b80156105d45780601f106105a9576101008083540402835291602001916105d4565b820191906000526020600020905b8154815290600101906020018083116105b757829003601f168201915b5050604051635f69a5dd60e11b815273__$70037793ffcb74a9865142770fa2fa1c6b$__9463bed34bba945061060f935091506004016118b5565b60206040518083038186803b15801561062757600080fd5b505af415801561063b573d6000803e3d6000fd5b505050506040513d601f19601f8201168201806040525081019061065f91906118f3565b156106b0576008805460ff60a01b1916600360a01b1790556040518281527fad84bc03ffc88d269c045288b6bd3d77f12f9ef79581b860c1538f4bd662f9ea906020015b60405180910390a1505050565b6040518281527f65fb20badd0fcfd3bf3ba0ca9bfe4ec522640041a07decd17f1be1fb0ead4f4a906020016106a3565b505050565b600e80546106f290611880565b80601f016020809104026020016040519081016040528092919081815260200182805461071e90611880565b801561076b5780601f106107405761010080835404028352916020019161076b565b820191906000526020600020905b81548152906001019060200180831161074e57829003601f168201915b505050505081565b60408051808201909152600d81526c496e76616c696420537461676560981b602082015260085460039190600160a01b900460ff1660048111156107b9576107b96117bb565b8260048111156107cb576107cb6117bb565b1481906107eb5760405162461bcd60e51b81526004016102f49190611773565b50600a546001600160a01b031633146108345760405162461bcd60e51b815260206004820152600b60248201526a27b7363c9029b2b63632b960a91b60448201526064016102f4565b6008805460ff60a01b1916600160a21b17905560405133904780156108fc02916000818181858888f193505050501580156106e0573d6000803e3d6000fd5b60408051808201909152600d81526c496e76616c696420537461676560981b602082015260085460019190600160a01b900460ff1660048111156108b9576108b96117bb565b8260048111156108cb576108cb6117bb565b1481906108eb5760405162461bcd60e51b81526004016102f49190611773565b50600a546001600160a01b031633146109345760405162461bcd60e51b815260206004820152600b60248201526a27b7363c9029b2b63632b960a91b60448201526064016102f4565b6008805460ff60a01b1916600160a11b179055825161095a90600d9060208601906114c3565b507f1862cf7a0e12bac162f518f43c2f50df187e89045899a7c015c1d61d9880a11b600d6040516106a39190611915565b6040805180820190915260148152737368697070696e6720696e2070726f677265737360601b602082015260085460019190600160a01b900460ff1660048111156109d8576109d86117bb565b8260048111156109ea576109ea6117bb565b148190610a0a5760405162461bcd60e51b81526004016102f49190611773565b506009546001600160a01b03163314610a525760405162461bcd60e51b815260206004820152600a60248201526927b7363c90313abcb2b960b11b60448201526064016102f4565b600f54601054610a6291906119d3565b431015610ab15760405162461bcd60e51b815260206004820152601b60248201527f4e6f7420616c6c6f77656420746f2063616e63656c206f72646572000000000060448201526064016102f4565b600980546001600160a01b03191690556008805460ff60a01b1916905560405133904780156108fc02916000818181858888f19350505050158015610afa573d6000803e3d6000fd5b5060405133907f393629f15e859a19530bab9675f9d39f0f57889f19f883bc5be3533c4a2c9ea890600090a25050565b60408051808201909152600d81526c13995959081cda1a5c1b595b9d609a1b602082015260085460029190600160a01b900460ff166004811115610b7057610b706117bb565b826004811115610b8257610b826117bb565b148190610ba25760405162461bcd60e51b81526004016102f49190611773565b506000610bb9600754306309d99f6760e01b610e54565b9050610c7c6040518060400160405280600a815260200169747261636b696e674e6f60b01b815250600d8054610bee90611880565b80601f0160208091040260200160405190810160405280929190818152602001828054610c1a90611880565b8015610c675780601f10610c3c57610100808354040283529160200191610c67565b820191906000526020600020905b815481529060010190602001808311610c4a57829003601f168201915b505050505083610e799092919063ffffffff16565b600654600090610ca8906001600160a01b031683610ca3670de0b6b3a764000060016119eb565b610e97565b60405190915081907fb5e6e01e79f91267dc17b4e6314d5d4d03593d2ceee0fbb452b750bd70ea5af990600090a250505050565b60408051808201909152601481527320b63932b0b23c903430bb32903090313abcb2b960611b602082015260085460009190600160a01b900460ff166004811115610d2957610d296117bb565b826004811115610d3b57610d3b6117bb565b148190610d5b5760405162461bcd60e51b81526004016102f49190611773565b50600a546001600160a01b0316331415610db75760405162461bcd60e51b815260206004820152601d60248201527f596f752063616e206e6f74206275792066726f6d20796f757273656c6600000060448201526064016102f4565b600b54341015610dfb5760405162461bcd60e51b815260206004820152600f60248201526e139bdd08195b9bdd59da08199d5b99608a1b60448201526064016102f4565b6008805460ff60a01b1916600160a01b179055600980546001600160a01b03191633908117909155436010556040517fe4caeaef8e4f0c4880839ca47219351b38cf4116c082fd0baefc3008e4ba11a390600090a25050565b610e5c611547565b610e64611547565b610e7081868686610eb6565b95945050505050565b6080830151610e889083610ef3565b60808301516106e09082610ef3565b6000610eae84848460016320214ca360e11b610f0a565b949350505050565b610ebe611547565b610ece8560800151610100611116565b50509183526001600160a01b031660208301526001600160e01b031916604082015290565b610f008260038351611181565b6106e08282611255565b6004546040516bffffffffffffffffffffffff193060601b166020820152603481019190915260009060540160408051808303601f19018152918152815160209283012060045460608901526000818152600590935281832080546001600160a01b0319166001600160a01b038b16179055905190925082917fb5e6e01e79f91267dc17b4e6314d5d4d03593d2ceee0fbb452b750bd70ea5af991a2600082600080886000015189602001518a604001518b606001518a8d6080015160000151604051602401610fe1989796959493929190611a0a565b60408051601f198184030181529181526020820180516001600160e01b03166001600160e01b0319909416939093179092526002549151630200057560e51b81529092506001600160a01b0390911690634000aea090611049908a9089908690600401611a72565b602060405180830381600087803b15801561106357600080fd5b505af1158015611077573d6000803e3d6000fd5b505050506040513d601f19601f8201168201806040525081019061109b91906118f3565b6110f35760405162461bcd60e51b815260206004820152602360248201527f756e61626c6520746f207472616e73666572416e6443616c6c20746f206f7261604482015262636c6560e81b60648201526084016102f4565b60016004600082825461110691906119d3565b9091555091979650505050505050565b604080518082019091526060815260006020820152611136602083611a99565b1561115e57611146602083611a99565b611151906020611abb565b61115b90836119d3565b91505b506020808301829052604080518085526000815283019091019052815b92915050565b601781116111a25761119c8360e0600585901b168317611283565b50505050565b60ff81116111cc576111bf836018611fe0600586901b1617611283565b5061119c838260016112a8565b61ffff81116111f7576111ea836019611fe0600586901b1617611283565b5061119c838260026112a8565b63ffffffff81116112245761121783601a611fe0600586901b1617611283565b5061119c838260046112a8565b67ffffffffffffffff81116106e05761124883601b611fe0600586901b1617611283565b5061119c838260086112a8565b60408051808201909152606081526000602082015261127c838460000151518485516112ce565b9392505050565b60408051808201909152606081526000602082015261127c83846000015151846113b8565b604080518082019091526060815260006020820152610eae848560000151518585611414565b60408051808201909152606081526000602082015282518211156112f157600080fd5b602085015161130083866119d3565b111561133357611333856113238760200151878661131e91906119d3565b611495565b61132e9060026119eb565b6114ac565b6000808651805187602083010193508088870111156113525787860182525b505050602084015b6020841061139257805182526113716020836119d3565b915061137e6020826119d3565b905061138b602085611abb565b935061135a565b51815160001960208690036101000a019081169019919091161790525083949350505050565b604080518082019091526060815260006020820152836020015183106113ed576113ed848560200151600261132e91906119eb565b83518051602085830101848153508085141561140a576001810182525b5093949350505050565b604080518082019091526060815260006020820152602085015161143885846119d3565b111561144c5761144c8561132386856119d3565b6000600161145c84610100611bb6565b6114669190611abb565b905085518386820101858319825116178152508051848701111561148a5783860181525b509495945050505050565b6000818311156114a657508161117b565b50919050565b81516114b88383611116565b5061119c8382611255565b8280546114cf90611880565b90600052602060002090601f0160209004810192826114f15760008555611537565b82601f1061150a57805160ff1916838001178555611537565b82800160010185558215611537579182015b8281111561153757825182559160200191906001019061151c565b50611543929150611582565b5090565b6040805160a0810182526000808252602080830182905282840182905260608084018390528451808601909552845283015290608082015290565b5b808211156115435760008155600101611583565b80356001600160a01b03811681146115ae57600080fd5b919050565b634e487b7160e01b600052604160045260246000fd5b604051601f8201601f1916810167ffffffffffffffff811182821017156115f2576115f26115b3565b604052919050565b600067ffffffffffffffff821115611614576116146115b3565b50601f01601f191660200190565b600082601f83011261163357600080fd5b8135611646611641826115fa565b6115c9565b81815284602083860101111561165b57600080fd5b816020850160208301376000918101602001919091529392505050565b60008060008060008060c0878903121561169157600080fd5b61169a87611597565b95506116a860208801611597565b9450604087013567ffffffffffffffff8111156116c457600080fd5b6116d089828a01611622565b9450506116df60608801611597565b92506080870135915060a087013590509295509295509295565b6000806040838503121561170c57600080fd5b50508035926020909101359150565b60005b8381101561173657818101518382015260200161171e565b8381111561119c5750506000910152565b6000815180845261175f81602086016020860161171b565b601f01601f19169290920160200192915050565b60208152600061127c6020830184611747565b60006020828403121561179857600080fd5b813567ffffffffffffffff8111156117af57600080fd5b610eae84828501611622565b634e487b7160e01b600052602160045260246000fd5b60208101600583106117f357634e487b7160e01b600052602160045260246000fd5b91905290565b60006020828403121561180b57600080fd5b5051919050565b60006020828403121561182457600080fd5b815167ffffffffffffffff81111561183b57600080fd5b8201601f8101841361184c57600080fd5b805161185a611641826115fa565b81815285602083850101111561186f57600080fd5b610e7082602083016020860161171b565b600181811c9082168061189457607f821691505b602082108114156114a657634e487b7160e01b600052602260045260246000fd5b6040815260006118c86040830184611747565b8281036020840152600981526811195b1a5d995c995960ba1b60208201526040810191505092915050565b60006020828403121561190557600080fd5b8151801515811461127c57600080fd5b600060208083526000845481600182811c91508083168061193757607f831692505b85831081141561195557634e487b7160e01b85526022600452602485fd5b8786018381526020018180156119725760018114611983576119ae565b60ff198616825287820196506119ae565b60008b81526020902060005b868110156119a85781548482015290850190890161198f565b83019750505b50949998505050505050505050565b634e487b7160e01b600052601160045260246000fd5b600082198211156119e6576119e66119bd565b500190565b6000816000190483118215151615611a0557611a056119bd565b500290565b6001600160a01b0389811682526020820189905260408201889052861660608201526001600160e01b03198516608082015260a0810184905260c0810183905261010060e08201819052600090611a6383820185611747565b9b9a5050505050505050505050565b60018060a01b0384168152826020820152606060408201526000610e706060830184611747565b600082611ab657634e487b7160e01b600052601260045260246000fd5b500690565b600082821015611acd57611acd6119bd565b500390565b600181815b80851115611b0d578160001904821115611af357611af36119bd565b80851615611b0057918102915b93841c9390800290611ad7565b509250929050565b600082611b245750600161117b565b81611b315750600061117b565b8160018114611b475760028114611b5157611b6d565b600191505061117b565b60ff841115611b6257611b626119bd565b50506001821b61117b565b5060208310610133831016604e8410600b8410161715611b90575081810a61117b565b611b9a8383611ad2565b8060001904821115611bae57611bae6119bd565b029392505050565b600061127c8383611b1556fea2646970667358221220eb77284eefd3344b394c441693f591db1ad5ce03c4d15d9e1dd1bf0d2b7b149064736f6c63430008090033",
  "language": "Solidity",
  "natspec": {
    "kind": "dev",
    "methods": {},
    "version": 1
  },
  "opcodes": "PUSH1 0x80 PUSH1 0x40 MSTORE PUSH1 0x4 CALLDATASIZE LT PUSH2 0xE7 JUMPI PUSH1 0x0 CALLDATALOAD PUSH1 0xE0 SHR DUP1 PUSH4 0x6A816548 GT PUSH2 0x8A JUMPI DUP1 PUSH4 0xBF15071D GT PUSH2 0x59 JUMPI DUP1 PUSH4 0xBF15071D EQ PUSH2 0x246 JUMPI DUP1 PUSH4 0xC040E6B8 EQ PUSH2 0x24E JUMPI DUP1 PUSH4 0xE12ED13C EQ PUSH2 0x27C JUMPI DUP1 PUSH4 0xE5A6B10F EQ PUSH2 0x292 JUMPI PUSH1 0x0 DUP1 REVERT JUMPDEST DUP1 PUSH4 0x6A816548 EQ PUSH2 0x1E6 JUMPI DUP1 PUSH4 0x6B827CD4 EQ PUSH2 0x1FB JUMPI DUP1 PUSH4 0x7150D8AE EQ PUSH2 0x210 JUMPI DUP1 PUSH4 0xA035B1FE EQ PUSH2 0x230 JUMPI PUSH1 0x0 DUP1 REVERT JUMPDEST DUP1 PUSH4 0xCED083C GT PUSH2 0xC6 JUMPI DUP1 PUSH4 0xCED083C EQ PUSH2 0x16B JUMPI DUP1 PUSH4 0x366E8E52 EQ PUSH2 0x18D JUMPI DUP1 PUSH4 0x3FD8B02F EQ PUSH2 0x1A2 JUMPI DUP1 PUSH4 0x50737055 EQ PUSH2 0x1C6 JUMPI PUSH1 0x0 DUP1 REVERT JUMPDEST DUP1 PUSH3 0xE31057 EQ PUSH2 0xEC JUMPI DUP1 PUSH4 0x8551A53 EQ PUSH2 0x10E JUMPI DUP1 PUSH4 0x9D99F67 EQ PUSH2 0x14B JUMPI JUMPDEST PUSH1 0x0 DUP1 REVERT JUMPDEST CALLVALUE DUP1 ISZERO PUSH2 0xF8 JUMPI PUSH1 0x0 DUP1 REVERT JUMPDEST POP PUSH2 0x10C PUSH2 0x107 CALLDATASIZE PUSH1 0x4 PUSH2 0x1678 JUMP JUMPDEST PUSH2 0x2B2 JUMP JUMPDEST STOP JUMPDEST CALLVALUE DUP1 ISZERO PUSH2 0x11A JUMPI PUSH1 0x0 DUP1 REVERT JUMPDEST POP PUSH1 0xA SLOAD PUSH2 0x12E SWAP1 PUSH1 0x1 PUSH1 0x1 PUSH1 0xA0 SHL SUB AND DUP2 JUMP JUMPDEST PUSH1 0x40 MLOAD PUSH1 0x1 PUSH1 0x1 PUSH1 0xA0 SHL SUB SWAP1 SWAP2 AND DUP2 MSTORE PUSH1 0x20 ADD JUMPDEST PUSH1 0x40 MLOAD DUP1 SWAP2 SUB SWAP1 RETURN JUMPDEST CALLVALUE DUP1 ISZERO PUSH2 0x157 JUMPI PUSH1 0x0 DUP1 REVERT JUMPDEST POP PUSH2 0x10C PUSH2 0x166 CALLDATASIZE PUSH1 0x4 PUSH2 0x16F9 JUMP JUMPDEST PUSH2 0x3F6 JUMP JUMPDEST CALLVALUE DUP1 ISZERO PUSH2 0x177 JUMPI PUSH1 0x0 DUP1 REVERT JUMPDEST POP PUSH2 0x180 PUSH2 0x6E5 JUMP JUMPDEST PUSH1 0x40 MLOAD PUSH2 0x142 SWAP2 SWAP1 PUSH2 0x1773 JUMP JUMPDEST CALLVALUE DUP1 ISZERO PUSH2 0x199 JUMPI PUSH1 0x0 DUP1 REVERT JUMPDEST POP PUSH2 0x10C PUSH2 0x773 JUMP JUMPDEST CALLVALUE DUP1 ISZERO PUSH2 0x1AE JUMPI PUSH1 0x0 DUP1 REVERT JUMPDEST POP PUSH2 0x1B8 PUSH1 0xF SLOAD DUP2 JUMP JUMPDEST PUSH1 0x40 MLOAD SWAP1 DUP2 MSTORE PUSH1 0x20 ADD PUSH2 0x142 JUMP JUMPDEST CALLVALUE DUP1 ISZERO PUSH2 0x1D2 JUMPI PUSH1 0x0 DUP1 REVERT JUMPDEST POP PUSH2 0x10C PUSH2 0x1E1 CALLDATASIZE PUSH1 0x4 PUSH2 0x1786 JUMP JUMPDEST PUSH2 0x873 JUMP JUMPDEST CALLVALUE DUP1 ISZERO PUSH2 0x1F2 JUMPI PUSH1 0x0 DUP1 REVERT JUMPDEST POP PUSH2 0x10C PUSH2 0x98B JUMP JUMPDEST CALLVALUE DUP1 ISZERO PUSH2 0x207 JUMPI PUSH1 0x0 DUP1 REVERT JUMPDEST POP PUSH2 0x10C PUSH2 0xB2A JUMP JUMPDEST CALLVALUE DUP1 ISZERO PUSH2 0x21C JUMPI PUSH1 0x0 DUP1 REVERT JUMPDEST POP PUSH1 0x9 SLOAD PUSH2 0x12E SWAP1 PUSH1 0x1 PUSH1 0x1 PUSH1 0xA0 SHL SUB AND DUP2 JUMP JUMPDEST CALLVALUE DUP1 ISZERO PUSH2 0x23C JUMPI PUSH1 0x0 DUP1 REVERT JUMPDEST POP PUSH2 0x1B8 PUSH1 0xB SLOAD DUP2 JUMP JUMPDEST PUSH2 0x10C PUSH2 0xCDC JUMP JUMPDEST CALLVALUE DUP1 ISZERO PUSH2 0x25A JUMPI PUSH1 0x0 DUP1 REVERT JUMPDEST POP PUSH1 0x8 SLOAD PUSH2 0x26F SWAP1 PUSH1 0x1 PUSH1 0xA0 SHL SWAP1 DIV PUSH1 0xFF AND DUP2 JUMP JUMPDEST PUSH1 0x40 MLOAD PUSH2 0x142 SWAP2 SWAP1 PUSH2 0x17D1 JUMP JUMPDEST CALLVALUE DUP1 ISZERO PUSH2 0x288 JUMPI PUSH1 0x0 DUP1 REVERT JUMPDEST POP PUSH2 0x1B8 PUSH1 0x10 SLOAD DUP2 JUMP JUMPDEST CALLVALUE DUP1 ISZERO PUSH2 0x29E JUMPI PUSH1 0x0 DUP1 REVERT JUMPDEST POP PUSH1 0xC SLOAD PUSH2 0x12E SWAP1 PUSH1 0x1 PUSH1 0x1 PUSH1 0xA0 SHL SUB AND DUP2 JUMP JUMPDEST PUSH1 0x8 SLOAD PUSH1 0x1 PUSH1 0x1 PUSH1 0xA0 SHL SUB AND CALLER EQ PUSH2 0x2FD JUMPI PUSH1 0x40 MLOAD PUSH3 0x461BCD PUSH1 0xE5 SHL DUP2 MSTORE PUSH1 0x20 PUSH1 0x4 DUP3 ADD MSTORE PUSH1 0x9 PUSH1 0x24 DUP3 ADD MSTORE PUSH9 0x2327A92124A22222A7 PUSH1 0xB9 SHL PUSH1 0x44 DUP3 ADD MSTORE PUSH1 0x64 ADD JUMPDEST PUSH1 0x40 MLOAD DUP1 SWAP2 SUB SWAP1 REVERT JUMPDEST PUSH1 0x2 DUP1 SLOAD PUSH1 0x1 PUSH1 0x1 PUSH1 0xA0 SHL SUB NOT AND PUSH1 0x1 PUSH1 0x1 PUSH1 0xA0 SHL SUB DUP9 AND OR SWAP1 SSTORE PUSH1 0x6 DUP1 SLOAD PUSH1 0x1 PUSH1 0x1 PUSH1 0xA0 SHL SUB NOT AND PUSH1 0x1 PUSH1 0x1 PUSH1 0xA0 SHL SUB DUP8 AND OR SWAP1 SSTORE PUSH1 0x40 MLOAD PUSH4 0x19F6A325 PUSH1 0xE3 SHL DUP2 MSTORE PUSH20 0x0 SWAP1 PUSH4 0xCFB51928 SWAP1 PUSH2 0x36A SWAP1 DUP8 SWAP1 PUSH1 0x4 ADD PUSH2 0x1773 JUMP JUMPDEST PUSH1 0x20 PUSH1 0x40 MLOAD DUP1 DUP4 SUB DUP2 DUP7 DUP1 EXTCODESIZE ISZERO DUP1 ISZERO PUSH2 0x382 JUMPI PUSH1 0x0 DUP1 REVERT JUMPDEST POP GAS DELEGATECALL ISZERO DUP1 ISZERO PUSH2 0x396 JUMPI RETURNDATASIZE PUSH1 0x0 DUP1 RETURNDATACOPY RETURNDATASIZE PUSH1 0x0 REVERT JUMPDEST POP POP POP POP PUSH1 0x40 MLOAD RETURNDATASIZE PUSH1 0x1F NOT PUSH1 0x1F DUP3 ADD AND DUP3 ADD DUP1 PUSH1 0x40 MSTORE POP DUP2 ADD SWAP1 PUSH2 0x3BA SWAP2 SWAP1 PUSH2 0x17F9 JUMP JUMPDEST PUSH1 0x7 SSTORE PUSH1 0x8 DUP1 SLOAD PUSH1 0xFF PUSH1 0xA0 SHL NOT AND SWAP1 SSTORE PUSH1 0xA DUP1 SLOAD PUSH1 0x1 PUSH1 0x1 PUSH1 0xA0 SHL SUB NOT AND PUSH1 0x1 PUSH1 0x1 PUSH1 0xA0 SHL SUB SWAP5 SWAP1 SWAP5 AND SWAP4 SWAP1 SWAP4 OR SWAP1 SWAP3 SSTORE PUSH1 0xB SSTORE PUSH1 0xF SSTORE POP POP POP JUMP JUMPDEST PUSH1 0x0 DUP3 DUP2 MSTORE PUSH1 0x5 PUSH1 0x20 MSTORE PUSH1 0x40 SWAP1 KECCAK256 SLOAD DUP3 SWAP1 PUSH1 0x1 PUSH1 0x1 PUSH1 0xA0 SHL SUB AND CALLER EQ PUSH2 0x46F JUMPI PUSH1 0x40 MLOAD PUSH3 0x461BCD PUSH1 0xE5 SHL DUP2 MSTORE PUSH1 0x20 PUSH1 0x4 DUP3 ADD MSTORE PUSH1 0x28 PUSH1 0x24 DUP3 ADD MSTORE PUSH32 0x536F75726365206D75737420626520746865206F7261636C65206F6620746865 PUSH1 0x44 DUP3 ADD MSTORE PUSH8 0x81C995C5D595CDD PUSH1 0xC2 SHL PUSH1 0x64 DUP3 ADD MSTORE PUSH1 0x84 ADD PUSH2 0x2F4 JUMP JUMPDEST PUSH1 0x0 DUP2 DUP2 MSTORE PUSH1 0x5 PUSH1 0x20 MSTORE PUSH1 0x40 DUP1 DUP3 KECCAK256 DUP1 SLOAD PUSH1 0x1 PUSH1 0x1 PUSH1 0xA0 SHL SUB NOT AND SWAP1 SSTORE MLOAD DUP3 SWAP2 PUSH32 0x7CC135E0CEBB02C3480AE5D74D377283180A2601F8F644EDF7987B009316C63A SWAP2 LOG2 PUSH1 0x40 MLOAD PUSH4 0x9201DE55 PUSH1 0xE0 SHL DUP2 MSTORE PUSH1 0x4 DUP2 ADD DUP4 SWAP1 MSTORE PUSH20 0x0 SWAP1 PUSH4 0x9201DE55 SWAP1 PUSH1 0x24 ADD PUSH1 0x0 PUSH1 0x40 MLOAD DUP1 DUP4 SUB DUP2 DUP7 DUP1 EXTCODESIZE ISZERO DUP1 ISZERO PUSH2 0x4FD JUMPI PUSH1 0x0 DUP1 REVERT JUMPDEST POP GAS DELEGATECALL ISZERO DUP1 ISZERO PUSH2 0x511 JUMPI RETURNDATASIZE PUSH1 0x0 DUP1 RETURNDATACOPY RETURNDATASIZE PUSH1 0x0 REVERT JUMPDEST POP POP POP POP PUSH1 0x40 MLOAD RETURNDATASIZE PUSH1 0x0 DUP3 RETURNDATACOPY PUSH1 0x1F RETURNDATASIZE SWAP1 DUP2 ADD PUSH1 0x1F NOT AND DUP3 ADD PUSH1 0x40 MSTORE PUSH2 0x539 SWAP2 SWAP1 DUP2 ADD SWAP1 PUSH2 0x1812 JUMP JUMPDEST DUP1 MLOAD PUSH2 0x54D SWAP2 PUSH1 0xE SWAP2 PUSH1 0x20 SWAP1 SWAP2 ADD SWAP1 PUSH2 0x14C3 JUMP JUMPDEST POP PUSH1 0xE DUP1 SLOAD PUSH2 0x55B SWAP1 PUSH2 0x1880 JUMP JUMPDEST DUP1 PUSH1 0x1F ADD PUSH1 0x20 DUP1 SWAP2 DIV MUL PUSH1 0x20 ADD PUSH1 0x40 MLOAD SWAP1 DUP2 ADD PUSH1 0x40 MSTORE DUP1 SWAP3 SWAP2 SWAP1 DUP2 DUP2 MSTORE PUSH1 0x20 ADD DUP3 DUP1 SLOAD PUSH2 0x587 SWAP1 PUSH2 0x1880 JUMP JUMPDEST DUP1 ISZERO PUSH2 0x5D4 JUMPI DUP1 PUSH1 0x1F LT PUSH2 0x5A9 JUMPI PUSH2 0x100 DUP1 DUP4 SLOAD DIV MUL DUP4 MSTORE SWAP2 PUSH1 0x20 ADD SWAP2 PUSH2 0x5D4 JUMP JUMPDEST DUP3 ADD SWAP2 SWAP1 PUSH1 0x0 MSTORE PUSH1 0x20 PUSH1 0x0 KECCAK256 SWAP1 JUMPDEST DUP2 SLOAD DUP2 MSTORE SWAP1 PUSH1 0x1 ADD SWAP1 PUSH1 0x20 ADD DUP1 DUP4 GT PUSH2 0x5B7 JUMPI DUP3 SWAP1 SUB PUSH1 0x1F AND DUP3 ADD SWAP2 JUMPDEST POP POP PUSH1 0x40 MLOAD PUSH4 0x5F69A5DD PUSH1 0xE1 SHL DUP2 MSTORE PUSH20 0x0 SWAP5 PUSH4 0xBED34BBA SWAP5 POP PUSH2 0x60F SWAP4 POP SWAP2 POP PUSH1 0x4 ADD PUSH2 0x18B5 JUMP JUMPDEST PUSH1 0x20 PUSH1 0x40 MLOAD DUP1 DUP4 SUB DUP2 DUP7 DUP1 EXTCODESIZE ISZERO DUP1 ISZERO PUSH2 0x627 JUMPI PUSH1 0x0 DUP1 REVERT JUMPDEST POP GAS DELEGATECALL ISZERO DUP1 ISZERO PUSH2 0x63B JUMPI RETURNDATASIZE PUSH1 0x0 DUP1 RETURNDATACOPY RETURNDATASIZE PUSH1 0x0 REVERT JUMPDEST POP POP POP POP PUSH1 0x40 MLOAD RETURNDATASIZE PUSH1 0x1F NOT PUSH1 0x1F DUP3 ADD AND DUP3 ADD DUP1 PUSH1 0x40 MSTORE POP DUP2 ADD SWAP1 PUSH2 0x65F SWAP2 SWAP1 PUSH2 0x18F3 JUMP JUMPDEST ISZERO PUSH2 0x6B0 JUMPI PUSH1 0x8 DUP1 SLOAD PUSH1 0xFF PUSH1 0xA0 SHL NOT AND PUSH1 0x3 PUSH1 0xA0 SHL OR SWAP1 SSTORE PUSH1 0x40 MLOAD DUP3 DUP2 MSTORE PUSH32 0xAD84BC03FFC88D269C045288B6BD3D77F12F9EF79581B860C1538F4BD662F9EA SWAP1 PUSH1 0x20 ADD JUMPDEST PUSH1 0x40 MLOAD DUP1 SWAP2 SUB SWAP1 LOG1 POP POP POP JUMP JUMPDEST PUSH1 0x40 MLOAD DUP3 DUP2 MSTORE PUSH32 0x65FB20BADD0FCFD3BF3BA0CA9BFE4EC522640041A07DECD17F1BE1FB0EAD4F4A SWAP1 PUSH1 0x20 ADD PUSH2 0x6A3 JUMP JUMPDEST POP POP POP JUMP JUMPDEST PUSH1 0xE DUP1 SLOAD PUSH2 0x6F2 SWAP1 PUSH2 0x1880 JUMP JUMPDEST DUP1 PUSH1 0x1F ADD PUSH1 0x20 DUP1 SWAP2 DIV MUL PUSH1 0x20 ADD PUSH1 0x40 MLOAD SWAP1 DUP2 ADD PUSH1 0x40 MSTORE DUP1 SWAP3 SWAP2 SWAP1 DUP2 DUP2 MSTORE PUSH1 0x20 ADD DUP3 DUP1 SLOAD PUSH2 0x71E SWAP1 PUSH2 0x1880 JUMP JUMPDEST DUP1 ISZERO PUSH2 0x76B JUMPI DUP1 PUSH1 0x1F LT PUSH2 0x740 JUMPI PUSH2 0x100 DUP1 DUP4 SLOAD DIV MUL DUP4 MSTORE SWAP2 PUSH1 0x20 ADD SWAP2 PUSH2 0x76B JUMP JUMPDEST DUP3 ADD SWAP2 SWAP1 PUSH1 0x0 MSTORE PUSH1 0x20 PUSH1 0x0 KECCAK256 SWAP1 JUMPDEST DUP2 SLOAD DUP2 MSTORE SWAP1 PUSH1 0x1 ADD SWAP1 PUSH1 0x20 ADD DUP1 DUP4 GT PUSH2 0x74E JUMPI DUP3 SWAP1 SUB PUSH1 0x1F AND DUP3 ADD SWAP2 JUMPDEST POP POP POP POP POP DUP2 JUMP JUMPDEST PUSH1 0x40 DUP1 MLOAD DUP1 DUP3 ADD SWAP1 SWAP2 MSTORE PUSH1 0xD DUP2 MSTORE PUSH13 0x496E76616C6964205374616765 PUSH1 0x98 SHL PUSH1 0x20 DUP3 ADD MSTORE PUSH1 0x8 SLOAD PUSH1 0x3 SWAP2 SWAP1 PUSH1 0x1 PUSH1 0xA0 SHL SWAP1 DIV PUSH1 0xFF AND PUSH1 0x4 DUP2 GT ISZERO PUSH2 0x7B9 JUMPI PUSH2 0x7B9 PUSH2 0x17BB JUMP JUMPDEST DUP3 PUSH1 0x4 DUP2 GT ISZERO PUSH2 0x7CB JUMPI PUSH2 0x7CB PUSH2 0x17BB JUMP JUMPDEST EQ DUP2 SWAP1 PUSH2 0x7EB JUMPI PUSH1 0x40 MLOAD PUSH3 0x461BCD PUSH1 0xE5 SHL DUP2 MSTORE PUSH1 0x4 ADD PUSH2 0x2F4 SWAP2 SWAP1 PUSH2 0x1773 JUMP JUMPDEST POP PUSH1 0xA SLOAD PUSH1 0x1 PUSH1 0x1 PUSH1 0xA0 SHL SUB AND CALLER EQ PUSH2 0x834 JUMPI PUSH1 0x40 MLOAD PUSH3 0x461BCD PUSH1 0xE5 SHL DUP2 MSTORE PUSH1 0x20 PUSH1 0x4 DUP3 ADD MSTORE PUSH1 0xB PUSH1 0x24 DUP3 ADD MSTORE PUSH11 0x27B7363C9029B2B63632B9 PUSH1 0xA9 SHL PUSH1 0x44 DUP3 ADD MSTORE PUSH1 0x64 ADD PUSH2 0x2F4 JUMP JUMPDEST PUSH1 0x8 DUP1 SLOAD PUSH1 0xFF PUSH1 0xA0 SHL NOT AND PUSH1 0x1 PUSH1 0xA2 SHL OR SWAP1 SSTORE PUSH1 0x40 MLOAD CALLER SWAP1 SELFBALANCE DUP1 ISZERO PUSH2 0x8FC MUL SWAP2 PUSH1 0x0 DUP2 DUP2 DUP2 DUP6 DUP9 DUP9 CALL SWAP4 POP POP POP POP ISZERO DUP1 ISZERO PUSH2 0x6E0 JUMPI RETURNDATASIZE PUSH1 0x0 DUP1 RETURNDATACOPY RETURNDATASIZE PUSH1 0x0 REVERT JUMPDEST PUSH1 0x40 DUP1 MLOAD DUP1 DUP3 ADD SWAP1 SWAP2 MSTORE PUSH1 0xD DUP2 MSTORE PUSH13 0x496E76616C6964205374616765 PUSH1 0x98 SHL PUSH1 0x20 DUP3 ADD MSTORE PUSH1 0x8 SLOAD PUSH1 0x1 SWAP2 SWAP1 PUSH1 0x1 PUSH1 0xA0 SHL SWAP1 DIV PUSH1 0xFF AND PUSH1 0x4 DUP2 GT ISZERO PUSH2 0x8B9 JUMPI PUSH2 0x8B9 PUSH2 0x17BB JUMP JUMPDEST DUP3 PUSH1 0x4 DUP2 GT ISZERO PUSH2 0x8CB JUMPI PUSH2 0x8CB PUSH2 0x17BB JUMP JUMPDEST EQ DUP2 SWAP1 PUSH2 0x8EB JUMPI PUSH1 0x40 MLOAD PUSH3 0x461BCD PUSH1 0xE5 SHL DUP2 MSTORE PUSH1 0x4 ADD PUSH2 0x2F4 SWAP2 SWAP1 PUSH2 0x1773 JUMP JUMPDEST POP PUSH1 0xA SLOAD PUSH1 0x1 PUSH1 0x1 PUSH1 0xA0 SHL SUB AND CALLER EQ PUSH2 0x934 JUMPI PUSH1 0x40 MLOAD PUSH3 0x461BCD PUSH1 0xE5 SHL DUP2 MSTORE PUSH1 0x20 PUSH1 0x4 DUP3 ADD MSTORE PUSH1 0xB PUSH1 0x24 DUP3 ADD MSTORE PUSH11 0x27B7363C9029B2B63632B9 PUSH1 0xA9 SHL PUSH1 0x44 DUP3 ADD MSTORE PUSH1 0x64 ADD PUSH2 0x2F4 JUMP JUMPDEST PUSH1 0x8 DUP1 SLOAD PUSH1 0xFF PUSH1 0xA0 SHL NOT AND PUSH1 0x1 PUSH1 0xA1 SHL OR SWAP1 SSTORE DUP3 MLOAD PUSH2 0x95A SWAP1 PUSH1 0xD SWAP1 PUSH1 0x20 DUP7 ADD SWAP1 PUSH2 0x14C3 JUMP JUMPDEST POP PUSH32 0x1862CF7A0E12BAC162F518F43C2F50DF187E89045899A7C015C1D61D9880A11B PUSH1 0xD PUSH1 0x40 MLOAD PUSH2 0x6A3 SWAP2 SWAP1 PUSH2 0x1915 JUMP JUMPDEST PUSH1 0x40 DUP1 MLOAD DUP1 DUP3 ADD SWAP1 SWAP2 MSTORE PUSH1 0x14 DUP2 MSTORE PUSH20 0x7368697070696E6720696E2070726F6772657373 PUSH1 0x60 SHL PUSH1 0x20 DUP3 ADD MSTORE PUSH1 0x8 SLOAD PUSH1 0x1 SWAP2 SWAP1 PUSH1 0x1 PUSH1 0xA0 SHL SWAP1 DIV PUSH1 0xFF AND PUSH1 0x4 DUP2 GT ISZERO PUSH2 0x9D8 JUMPI PUSH2 0x9D8 PUSH2 0x17BB JUMP JUMPDEST DUP3 PUSH1 0x4 DUP2 GT ISZERO PUSH2 0x9EA JUMPI PUSH2 0x9EA PUSH2 0x17BB JUMP JUMPDEST EQ DUP2 SWAP1 PUSH2 0xA0A JUMPI PUSH1 0x40 MLOAD PUSH3 0x461BCD PUSH1 0xE5 SHL DUP2 MSTORE PUSH1 0x4 ADD PUSH2 0x2F4 SWAP2 SWAP1 PUSH2 0x1773 JUMP JUMPDEST POP PUSH1 0x9 SLOAD PUSH1 0x1 PUSH1 0x1 PUSH1 0xA0 SHL SUB AND CALLER EQ PUSH2 0xA52 JUMPI PUSH1 0x40 MLOAD PUSH3 0x461BCD PUSH1 0xE5 SHL DUP2 MSTORE PUSH1 0x20 PUSH1 0x4 DUP3 ADD MSTORE PUSH1 0xA PUSH1 0x24 DUP3 ADD MSTORE PUSH10 0x27B7363C90313ABCB2B9 PUSH1 0xB1 SHL PUSH1 0x44 DUP3 ADD MSTORE PUSH1 0x64 ADD PUSH2 0x2F4 JUMP JUMPDEST PUSH1 0xF SLOAD PUSH1 0x10 SLOAD PUSH2 0xA62 SWAP2 SWAP1 PUSH2 0x19D3 JUMP JUMPDEST NUMBER LT ISZERO PUSH2 0xAB1 JUMPI PUSH1 0x40 MLOAD PUSH3 0x461BCD PUSH1 0xE5 SHL DUP2 MSTORE PUSH1 0x20 PUSH1 0x4 DUP3 ADD MSTORE PUSH1 0x1B PUSH1 0x24 DUP3 ADD MSTORE PUSH32 0x4E6F7420616C6C6F77656420746F2063616E63656C206F726465720000000000 PUSH1 0x44 DUP3 ADD MSTORE PUSH1 0x64 ADD PUSH2 0x2F4 JUMP JUMPDEST PUSH1 0x9 DUP1 SLOAD PUSH1 0x1 PUSH1 0x1 PUSH1 0xA0 SHL SUB NOT AND SWAP1 SSTORE PUSH1 0x8 DUP1 SLOAD PUSH1 0xFF PUSH1 0xA0 SHL NOT AND SWAP1 SSTORE PUSH1 0x40 MLOAD CALLER SWAP1 SELFBALANCE DUP1 ISZERO PUSH2 0x8FC MUL SWAP2 PUSH1 0x0 DUP2 DUP2 DUP2 DUP6 DUP9 DUP9 CALL SWAP4 POP POP POP POP ISZERO DUP1 ISZERO PUSH2 0xAFA JUMPI RETURNDATASIZE PUSH1 0x0 DUP1 RETURNDATACOPY RETURNDATASIZE PUSH1 0x0 REVERT JUMPDEST POP PUSH1 0x40 MLOAD CALLER SWAP1 PUSH32 0x393629F15E859A19530BAB9675F9D39F0F57889F19F883BC5BE3533C4A2C9EA8 SWAP1 PUSH1 0x0 SWAP1 LOG2 POP POP JUMP JUMPDEST PUSH1 0x40 DUP1 MLOAD DUP1 DUP3 ADD SWAP1 SWAP2 MSTORE PUSH1 0xD DUP2 MSTORE PUSH13 0x13995959081CDA1A5C1B595B9D PUSH1 0x9A SHL PUSH1 0x20 DUP3 ADD MSTORE PUSH1 0x8 SLOAD PUSH1 0x2 SWAP2 SWAP1 PUSH1 0x1 PUSH1 0xA0 SHL SWAP1 DIV PUSH1 0xFF AND PUSH1 0x4 DUP2 GT ISZERO PUSH2 0xB70 JUMPI PUSH2 0xB70 PUSH2 0x17BB JUMP JUMPDEST DUP3 PUSH1 0x4 DUP2 GT ISZERO PUSH2 0xB82 JUMPI PUSH2 0xB82 PUSH2 0x17BB JUMP JUMPDEST EQ DUP2 SWAP1 PUSH2 0xBA2 JUMPI PUSH1 0x40 MLOAD PUSH3 0x461BCD PUSH1 0xE5 SHL DUP2 MSTORE PUSH1 0x4 ADD PUSH2 0x2F4 SWAP2 SWAP1 PUSH2 0x1773 JUMP JUMPDEST POP PUSH1 0x0 PUSH2 0xBB9 PUSH1 0x7 SLOAD ADDRESS PUSH4 0x9D99F67 PUSH1 0xE0 SHL PUSH2 0xE54 JUMP JUMPDEST SWAP1 POP PUSH2 0xC7C PUSH1 0x40 MLOAD DUP1 PUSH1 0x40 ADD PUSH1 0x40 MSTORE DUP1 PUSH1 0xA DUP2 MSTORE PUSH1 0x20 ADD PUSH10 0x747261636B696E674E6F PUSH1 0xB0 SHL DUP2 MSTORE POP PUSH1 0xD DUP1 SLOAD PUSH2 0xBEE SWAP1 PUSH2 0x1880 JUMP JUMPDEST DUP1 PUSH1 0x1F ADD PUSH1 0x20 DUP1 SWAP2 DIV MUL PUSH1 0x20 ADD PUSH1 0x40 MLOAD SWAP1 DUP2 ADD PUSH1 0x40 MSTORE DUP1 SWAP3 SWAP2 SWAP1 DUP2 DUP2 MSTORE PUSH1 0x20 ADD DUP3 DUP1 SLOAD PUSH2 0xC1A SWAP1 PUSH2 0x1880 JUMP JUMPDEST DUP1 ISZERO PUSH2 0xC67 JUMPI DUP1 PUSH1 0x1F LT PUSH2 0xC3C JUMPI PUSH2 0x100 DUP1 DUP4 SLOAD DIV MUL DUP4 MSTORE SWAP2 PUSH1 0x20 ADD SWAP2 PUSH2 0xC67 JUMP JUMPDEST DUP3 ADD SWAP2 SWAP1 PUSH1 0x0 MSTORE PUSH1 0x20 PUSH1 0x0 KECCAK256 SWAP1 JUMPDEST DUP2 SLOAD DUP2 MSTORE SWAP1 PUSH1 0x1 ADD SWAP1 PUSH1 0x20 ADD DUP1 DUP4 GT PUSH2 0xC4A JUMPI DUP3 SWAP1 SUB PUSH1 0x1F AND DUP3 ADD SWAP2 JUMPDEST POP POP POP POP POP DUP4 PUSH2 0xE79 SWAP1 SWAP3 SWAP2 SWAP1 PUSH4 0xFFFFFFFF AND JUMP JUMPDEST PUSH1 0x6 SLOAD PUSH1 0x0 SWAP1 PUSH2 0xCA8 SWAP1 PUSH1 0x1 PUSH1 0x1 PUSH1 0xA0 SHL SUB AND DUP4 PUSH2 0xCA3 PUSH8 0xDE0B6B3A7640000 PUSH1 0x1 PUSH2 0x19EB JUMP JUMPDEST PUSH2 0xE97 JUMP JUMPDEST PUSH1 0x40 MLOAD SWAP1 SWAP2 POP DUP2 SWAP1 PUSH32 0xB5E6E01E79F91267DC17B4E6314D5D4D03593D2CEEE0FBB452B750BD70EA5AF9 SWAP1 PUSH1 0x0 SWAP1 LOG2 POP POP POP POP JUMP JUMPDEST PUSH1 0x40 DUP1 MLOAD DUP1 DUP3 ADD SWAP1 SWAP2 MSTORE PUSH1 0x14 DUP2 MSTORE PUSH20 0x20B63932B0B23C903430BB32903090313ABCB2B9 PUSH1 0x61 SHL PUSH1 0x20 DUP3 ADD MSTORE PUSH1 0x8 SLOAD PUSH1 0x0 SWAP2 SWAP1 PUSH1 0x1 PUSH1 0xA0 SHL SWAP1 DIV PUSH1 0xFF AND PUSH1 0x4 DUP2 GT ISZERO PUSH2 0xD29 JUMPI PUSH2 0xD29 PUSH2 0x17BB JUMP JUMPDEST DUP3 PUSH1 0x4 DUP2 GT ISZERO PUSH2 0xD3B JUMPI PUSH2 0xD3B PUSH2 0x17BB JUMP JUMPDEST EQ DUP2 SWAP1 PUSH2 0xD5B JUMPI PUSH1 0x40 MLOAD PUSH3 0x461BCD PUSH1 0xE5 SHL DUP2 MSTORE PUSH1 0x4 ADD PUSH2 0x2F4 SWAP2 SWAP1 PUSH2 0x1773 JUMP JUMPDEST POP PUSH1 0xA SLOAD PUSH1 0x1 PUSH1 0x1 PUSH1 0xA0 SHL SUB AND CALLER EQ ISZERO PUSH2 0xDB7 JUMPI PUSH1 0x40 MLOAD PUSH3 0x461BCD PUSH1 0xE5 SHL DUP2 MSTORE PUSH1 0x20 PUSH1 0x4 DUP3 ADD MSTORE PUSH1 0x1D PUSH1 0x24 DUP3 ADD MSTORE PUSH32 0x596F752063616E206E6F74206275792066726F6D20796F757273656C66000000 PUSH1 0x44 DUP3 ADD MSTORE PUSH1 0x64 ADD PUSH2 0x2F4 JUMP JUMPDEST PUSH1 0xB SLOAD CALLVALUE LT ISZERO PUSH2 0xDFB JUMPI PUSH1 0x40 MLOAD PUSH3 0x461BCD PUSH1 0xE5 SHL DUP2 MSTORE PUSH1 0x20 PUSH1 0x4 DUP3 ADD MSTORE PUSH1 0xF PUSH1 0x24 DUP3 ADD MSTORE PUSH15 0x139BDD08195B9BDD59DA08199D5B99 PUSH1 0x8A SHL PUSH1 0x44 DUP3 ADD MSTORE PUSH1 0x64 ADD PUSH2 0x2F4 JUMP JUMPDEST PUSH1 0x8 DUP1 SLOAD PUSH1 0xFF PUSH1 0xA0 SHL NOT AND PUSH1 0x1 PUSH1 0xA0 SHL OR SWAP1 SSTORE PUSH1 0x9 DUP1 SLOAD PUSH1 0x1 PUSH1 0x1 PUSH1 0xA0 SHL SUB NOT AND CALLER SWAP1 DUP2 OR SWAP1 SWAP2 SSTORE NUMBER PUSH1 0x10 SSTORE PUSH1 0x40 MLOAD PUSH32 0xE4CAEAEF8E4F0C4880839CA47219351B38CF4116C082FD0BAEFC3008E4BA11A3 SWAP1 PUSH1 0x0 SWAP1 LOG2 POP POP JUMP JUMPDEST PUSH2 0xE5C PUSH2 0x1547 JUMP JUMPDEST PUSH2 0xE64 PUSH2 0x1547 JUMP JUMPDEST PUSH2 0xE70 DUP2 DUP7 DUP7 DUP7 PUSH2 0xEB6 JUMP JUMPDEST SWAP6 SWAP5 POP POP POP POP POP JUMP JUMPDEST PUSH1 0x80 DUP4 ADD MLOAD PUSH2 0xE88 SWAP1 DUP4 PUSH2 0xEF3 JUMP JUMPDEST PUSH1 0x80 DUP4 ADD MLOAD PUSH2 0x6E0 SWAP1 DUP3 PUSH2 0xEF3 JUMP JUMPDEST PUSH1 0x0 PUSH2 0xEAE DUP5 DUP5 DUP5 PUSH1 0x1 PUSH4 0x20214CA3 PUSH1 0xE1 SHL PUSH2 0xF0A JUMP JUMPDEST SWAP5 SWAP4 POP POP POP POP JUMP JUMPDEST PUSH2 0xEBE PUSH2 0x1547 JUMP JUMPDEST PUSH2 0xECE DUP6 PUSH1 0x80 ADD MLOAD PUSH2 0x100 PUSH2 0x1116 JUMP JUMPDEST POP POP SWAP2 DUP4 MSTORE PUSH1 0x1 PUSH1 0x1 PUSH1 0xA0 SHL SUB AND PUSH1 0x20 DUP4 ADD MSTORE PUSH1 0x1 PUSH1 0x1 PUSH1 0xE0 SHL SUB NOT AND PUSH1 0x40 DUP3 ADD MSTORE SWAP1 JUMP JUMPDEST PUSH2 0xF00 DUP3 PUSH1 0x3 DUP4 MLOAD PUSH2 0x1181 JUMP JUMPDEST PUSH2 0x6E0 DUP3 DUP3 PUSH2 0x1255 JUMP JUMPDEST PUSH1 0x4 SLOAD PUSH1 0x40 MLOAD PUSH12 0xFFFFFFFFFFFFFFFFFFFFFFFF NOT ADDRESS PUSH1 0x60 SHL AND PUSH1 0x20 DUP3 ADD MSTORE PUSH1 0x34 DUP2 ADD SWAP2 SWAP1 SWAP2 MSTORE PUSH1 0x0 SWAP1 PUSH1 0x54 ADD PUSH1 0x40 DUP1 MLOAD DUP1 DUP4 SUB PUSH1 0x1F NOT ADD DUP2 MSTORE SWAP2 DUP2 MSTORE DUP2 MLOAD PUSH1 0x20 SWAP3 DUP4 ADD KECCAK256 PUSH1 0x4 SLOAD PUSH1 0x60 DUP10 ADD MSTORE PUSH1 0x0 DUP2 DUP2 MSTORE PUSH1 0x5 SWAP1 SWAP4 MSTORE DUP2 DUP4 KECCAK256 DUP1 SLOAD PUSH1 0x1 PUSH1 0x1 PUSH1 0xA0 SHL SUB NOT AND PUSH1 0x1 PUSH1 0x1 PUSH1 0xA0 SHL SUB DUP12 AND OR SWAP1 SSTORE SWAP1 MLOAD SWAP1 SWAP3 POP DUP3 SWAP2 PUSH32 0xB5E6E01E79F91267DC17B4E6314D5D4D03593D2CEEE0FBB452B750BD70EA5AF9 SWAP2 LOG2 PUSH1 0x0 DUP3 PUSH1 0x0 DUP1 DUP9 PUSH1 0x0 ADD MLOAD DUP10 PUSH1 0x20 ADD MLOAD DUP11 PUSH1 0x40 ADD MLOAD DUP12 PUSH1 0x60 ADD MLOAD DUP11 DUP14 PUSH1 0x80 ADD MLOAD PUSH1 0x0 ADD MLOAD PUSH1 0x40 MLOAD PUSH1 0x24 ADD PUSH2 0xFE1 SWAP9 SWAP8 SWAP7 SWAP6 SWAP5 SWAP4 SWAP3 SWAP2 SWAP1 PUSH2 0x1A0A JUMP JUMPDEST PUSH1 0x40 DUP1 MLOAD PUSH1 0x1F NOT DUP2 DUP5 SUB ADD DUP2 MSTORE SWAP2 DUP2 MSTORE PUSH1 0x20 DUP3 ADD DUP1 MLOAD PUSH1 0x1 PUSH1 0x1 PUSH1 0xE0 SHL SUB AND PUSH1 0x1 PUSH1 0x1 PUSH1 0xE0 SHL SUB NOT SWAP1 SWAP5 AND SWAP4 SWAP1 SWAP4 OR SWAP1 SWAP3 MSTORE PUSH1 0x2 SLOAD SWAP2 MLOAD PUSH4 0x2000575 PUSH1 0xE5 SHL DUP2 MSTORE SWAP1 SWAP3 POP PUSH1 0x1 PUSH1 0x1 PUSH1 0xA0 SHL SUB SWAP1 SWAP2 AND SWAP1 PUSH4 0x4000AEA0 SWAP1 PUSH2 0x1049 SWAP1 DUP11 SWAP1 DUP10 SWAP1 DUP7 SWAP1 PUSH1 0x4 ADD PUSH2 0x1A72 JUMP JUMPDEST PUSH1 0x20 PUSH1 0x40 MLOAD DUP1 DUP4 SUB DUP2 PUSH1 0x0 DUP8 DUP1 EXTCODESIZE ISZERO DUP1 ISZERO PUSH2 0x1063 JUMPI PUSH1 0x0 DUP1 REVERT JUMPDEST POP GAS CALL ISZERO DUP1 ISZERO PUSH2 0x1077 JUMPI RETURNDATASIZE PUSH1 0x0 DUP1 RETURNDATACOPY RETURNDATASIZE PUSH1 0x0 REVERT JUMPDEST POP POP POP POP PUSH1 0x40 MLOAD RETURNDATASIZE PUSH1 0x1F NOT PUSH1 0x1F DUP3 ADD AND DUP3 ADD DUP1 PUSH1 0x40 MSTORE POP DUP2 ADD SWAP1 PUSH2 0x109B SWAP2 SWAP1 PUSH2 0x18F3 JUMP JUMPDEST PUSH2 0x10F3 JUMPI PUSH1 0x40 MLOAD PUSH3 0x461BCD PUSH1 0xE5 SHL DUP2 MSTORE PUSH1 0x20 PUSH1 0x4 DUP3 ADD MSTORE PUSH1 0x23 PUSH1 0x24 DUP3 ADD MSTORE PUSH32 0x756E61626C6520746F207472616E73666572416E6443616C6C20746F206F7261 PUSH1 0x44 DUP3 ADD MSTORE PUSH3 0x636C65 PUSH1 0xE8 SHL PUSH1 0x64 DUP3 ADD MSTORE PUSH1 0x84 ADD PUSH2 0x2F4 JUMP JUMPDEST PUSH1 0x1 PUSH1 0x4 PUSH1 0x0 DUP3 DUP3 SLOAD PUSH2 0x1106 SWAP2 SWAP1 PUSH2 0x19D3 JUMP JUMPDEST SWAP1 SWAP2 SSTORE POP SWAP2 SWAP8 SWAP7 POP POP POP POP POP POP POP JUMP JUMPDEST PUSH1 0x40 DUP1 MLOAD DUP1 DUP3 ADD SWAP1 SWAP2 MSTORE PUSH1 0x60 DUP2 MSTORE PUSH1 0x0 PUSH1 0x20 DUP3 ADD MSTORE PUSH2 0x1136 PUSH1 0x20 DUP4 PUSH2 0x1A99 JUMP JUMPDEST ISZERO PUSH2 0x115E JUMPI PUSH2 0x1146 PUSH1 0x20 DUP4 PUSH2 0x1A99 JUMP JUMPDEST PUSH2 0x1151 SWAP1 PUSH1 0x20 PUSH2 0x1ABB JUMP JUMPDEST PUSH2 0x115B SWAP1 DUP4 PUSH2 0x19D3 JUMP JUMPDEST SWAP2 POP JUMPDEST POP PUSH1 0x20 DUP1 DUP4 ADD DUP3 SWAP1 MSTORE PUSH1 0x40 DUP1 MLOAD DUP1 DUP6 MSTORE PUSH1 0x0 DUP2 MSTORE DUP4 ADD SWAP1 SWAP2 ADD SWAP1 MSTORE DUP2 JUMPDEST SWAP3 SWAP2 POP POP JUMP JUMPDEST PUSH1 0x17 DUP2 GT PUSH2 0x11A2 JUMPI PUSH2 0x119C DUP4 PUSH1 0xE0 PUSH1 0x5 DUP6 SWAP1 SHL AND DUP4 OR PUSH2 0x1283 JUMP JUMPDEST POP POP POP POP JUMP JUMPDEST PUSH1 0xFF DUP2 GT PUSH2 0x11CC JUMPI PUSH2 0x11BF DUP4 PUSH1 0x18 PUSH2 0x1FE0 PUSH1 0x5 DUP7 SWAP1 SHL AND OR PUSH2 0x1283 JUMP JUMPDEST POP PUSH2 0x119C DUP4 DUP3 PUSH1 0x1 PUSH2 0x12A8 JUMP JUMPDEST PUSH2 0xFFFF DUP2 GT PUSH2 0x11F7 JUMPI PUSH2 0x11EA DUP4 PUSH1 0x19 PUSH2 0x1FE0 PUSH1 0x5 DUP7 SWAP1 SHL AND OR PUSH2 0x1283 JUMP JUMPDEST POP PUSH2 0x119C DUP4 DUP3 PUSH1 0x2 PUSH2 0x12A8 JUMP JUMPDEST PUSH4 0xFFFFFFFF DUP2 GT PUSH2 0x1224 JUMPI PUSH2 0x1217 DUP4 PUSH1 0x1A PUSH2 0x1FE0 PUSH1 0x5 DUP7 SWAP1 SHL AND OR PUSH2 0x1283 JUMP JUMPDEST POP PUSH2 0x119C DUP4 DUP3 PUSH1 0x4 PUSH2 0x12A8 JUMP JUMPDEST PUSH8 0xFFFFFFFFFFFFFFFF DUP2 GT PUSH2 0x6E0 JUMPI PUSH2 0x1248 DUP4 PUSH1 0x1B PUSH2 0x1FE0 PUSH1 0x5 DUP7 SWAP1 SHL AND OR PUSH2 0x1283 JUMP JUMPDEST POP PUSH2 0x119C DUP4 DUP3 PUSH1 0x8 PUSH2 0x12A8 JUMP JUMPDEST PUSH1 0x40 DUP1 MLOAD DUP1 DUP3 ADD SWAP1 SWAP2 MSTORE PUSH1 0x60 DUP2 MSTORE PUSH1 0x0 PUSH1 0x20 DUP3 ADD MSTORE PUSH2 0x127C DUP4 DUP5 PUSH1 0x0 ADD MLOAD MLOAD DUP5 DUP6 MLOAD PUSH2 0x12CE JUMP JUMPDEST SWAP4 SWAP3 POP POP POP JUMP JUMPDEST PUSH1 0x40 DUP1 MLOAD DUP1 DUP3 ADD SWAP1 SWAP2 MSTORE PUSH1 0x60 DUP2 MSTORE PUSH1 0x0 PUSH1 0x20 DUP3 ADD MSTORE PUSH2 0x127C DUP4 DUP5 PUSH1 0x0 ADD MLOAD MLOAD DUP5 PUSH2 0x13B8 JUMP JUMPDEST PUSH1 0x40 DUP1 MLOAD DUP1 DUP3 ADD SWAP1 SWAP2 MSTORE PUSH1 0x60 DUP2 MSTORE PUSH1 0x0 PUSH1 0x20 DUP3 ADD MSTORE PUSH2 0xEAE DUP5 DUP6 PUSH1 0x0 ADD MLOAD MLOAD DUP6 DUP6 PUSH2 0x1414 JUMP JUMPDEST PUSH1 0x40 DUP1 MLOAD DUP1 DUP3 ADD SWAP1 SWAP2 MSTORE PUSH1 0x60 DUP2 MSTORE PUSH1 0x0 PUSH1 0x20 DUP3 ADD MSTORE DUP3 MLOAD DUP3 GT ISZERO PUSH2 0x12F1 JUMPI PUSH1 0x0 DUP1 REVERT JUMPDEST PUSH1 0x20 DUP6 ADD MLOAD PUSH2 0x1300 DUP4 DUP7 PUSH2 0x19D3 JUMP JUMPDEST GT ISZERO PUSH2 0x1333 JUMPI PUSH2 0x1333 DUP6 PUSH2 0x1323 DUP8 PUSH1 0x20 ADD MLOAD DUP8 DUP7 PUSH2 0x131E SWAP2 SWAP1 PUSH2 0x19D3 JUMP JUMPDEST PUSH2 0x1495 JUMP JUMPDEST PUSH2 0x132E SWAP1 PUSH1 0x2 PUSH2 0x19EB JUMP JUMPDEST PUSH2 0x14AC JUMP JUMPDEST PUSH1 0x0 DUP1 DUP7 MLOAD DUP1 MLOAD DUP8 PUSH1 0x20 DUP4 ADD ADD SWAP4 POP DUP1 DUP9 DUP8 ADD GT ISZERO PUSH2 0x1352 JUMPI DUP8 DUP7 ADD DUP3 MSTORE JUMPDEST POP POP POP PUSH1 0x20 DUP5 ADD JUMPDEST PUSH1 0x20 DUP5 LT PUSH2 0x1392 JUMPI DUP1 MLOAD DUP3 MSTORE PUSH2 0x1371 PUSH1 0x20 DUP4 PUSH2 0x19D3 JUMP JUMPDEST SWAP2 POP PUSH2 0x137E PUSH1 0x20 DUP3 PUSH2 0x19D3 JUMP JUMPDEST SWAP1 POP PUSH2 0x138B PUSH1 0x20 DUP6 PUSH2 0x1ABB JUMP JUMPDEST SWAP4 POP PUSH2 0x135A JUMP JUMPDEST MLOAD DUP2 MLOAD PUSH1 0x0 NOT PUSH1 0x20 DUP7 SWAP1 SUB PUSH2 0x100 EXP ADD SWAP1 DUP2 AND SWAP1 NOT SWAP2 SWAP1 SWAP2 AND OR SWAP1 MSTORE POP DUP4 SWAP5 SWAP4 POP POP POP POP JUMP JUMPDEST PUSH1 0x40 DUP1 MLOAD DUP1 DUP3 ADD SWAP1 SWAP2 MSTORE PUSH1 0x60 DUP2 MSTORE PUSH1 0x0 PUSH1 0x20 DUP3 ADD MSTORE DUP4 PUSH1 0x20 ADD MLOAD DUP4 LT PUSH2 0x13ED JUMPI PUSH2 0x13ED DUP5 DUP6 PUSH1 0x20 ADD MLOAD PUSH1 0x2 PUSH2 0x132E SWAP2 SWAP1 PUSH2 0x19EB JUMP JUMPDEST DUP4 MLOAD DUP1 MLOAD PUSH1 0x20 DUP6 DUP4 ADD ADD DUP5 DUP2 MSTORE8 POP DUP1 DUP6 EQ ISZERO PUSH2 0x140A JUMPI PUSH1 0x1 DUP2 ADD DUP3 MSTORE JUMPDEST POP SWAP4 SWAP5 SWAP4 POP POP POP POP JUMP JUMPDEST PUSH1 0x40 DUP1 MLOAD DUP1 DUP3 ADD SWAP1 SWAP2 MSTORE PUSH1 0x60 DUP2 MSTORE PUSH1 0x0 PUSH1 0x20 DUP3 ADD MSTORE PUSH1 0x20 DUP6 ADD MLOAD PUSH2 0x1438 DUP6 DUP5 PUSH2 0x19D3 JUMP JUMPDEST GT ISZERO PUSH2 0x144C JUMPI PUSH2 0x144C DUP6 PUSH2 0x1323 DUP7 DUP6 PUSH2 0x19D3 JUMP JUMPDEST PUSH1 0x0 PUSH1 0x1 PUSH2 0x145C DUP5 PUSH2 0x100 PUSH2 0x1BB6 JUMP JUMPDEST PUSH2 0x1466 SWAP2 SWAP1 PUSH2 0x1ABB JUMP JUMPDEST SWAP1 POP DUP6 MLOAD DUP4 DUP7 DUP3 ADD ADD DUP6 DUP4 NOT DUP3 MLOAD AND OR DUP2 MSTORE POP DUP1 MLOAD DUP5 DUP8 ADD GT ISZERO PUSH2 0x148A JUMPI DUP4 DUP7 ADD DUP2 MSTORE JUMPDEST POP SWAP5 SWAP6 SWAP5 POP POP POP POP POP JUMP JUMPDEST PUSH1 0x0 DUP2 DUP4 GT ISZERO PUSH2 0x14A6 JUMPI POP DUP2 PUSH2 0x117B JUMP JUMPDEST POP SWAP2 SWAP1 POP JUMP JUMPDEST DUP2 MLOAD PUSH2 0x14B8 DUP4 DUP4 PUSH2 0x1116 JUMP JUMPDEST POP PUSH2 0x119C DUP4 DUP3 PUSH2 0x1255 JUMP JUMPDEST DUP3 DUP1 SLOAD PUSH2 0x14CF SWAP1 PUSH2 0x1880 JUMP JUMPDEST SWAP1 PUSH1 0x0 MSTORE PUSH1 0x20 PUSH1 0x0 KECCAK256 SWAP1 PUSH1 0x1F ADD PUSH1 0x20 SWAP1 DIV DUP2 ADD SWAP3 DUP3 PUSH2 0x14F1 JUMPI PUSH1 0x0 DUP6 SSTORE PUSH2 0x1537 JUMP JUMPDEST DUP3 PUSH1 0x1F LT PUSH2 0x150A JUMPI DUP1 MLOAD PUSH1 0xFF NOT AND DUP4 DUP1 ADD OR DUP6 SSTORE PUSH2 0x1537 JUMP JUMPDEST DUP3 DUP1 ADD PUSH1 0x1 ADD DUP6 SSTORE DUP3 ISZERO PUSH2 0x1537 JUMPI SWAP2 DUP3 ADD JUMPDEST DUP3 DUP2 GT ISZERO PUSH2 0x1537 JUMPI DUP3 MLOAD DUP3 SSTORE SWAP2 PUSH1 0x20 ADD SWAP2 SWAP1 PUSH1 0x1 ADD SWAP1 PUSH2 0x151C JUMP JUMPDEST POP PUSH2 0x1543 SWAP3 SWAP2 POP PUSH2 0x1582 JUMP JUMPDEST POP SWAP1 JUMP JUMPDEST PUSH1 0x40 DUP1 MLOAD PUSH1 0xA0 DUP2 ADD DUP3 MSTORE PUSH1 0x0 DUP1 DUP3 MSTORE PUSH1 0x20 DUP1 DUP4 ADD DUP3 SWAP1 MSTORE DUP3 DUP5 ADD DUP3 SWAP1 MSTORE PUSH1 0x60 DUP1 DUP5 ADD DUP4 SWAP1 MSTORE DUP5 MLOAD DUP1 DUP7 ADD SWAP1 SWAP6 MSTORE DUP5 MSTORE DUP4 ADD MSTORE SWAP1 PUSH1 0x80 DUP3 ADD MSTORE SWAP1 JUMP JUMPDEST JUMPDEST DUP1 DUP3 GT ISZERO PUSH2 0x1543 JUMPI PUSH1 0x0 DUP2 SSTORE PUSH1 0x1 ADD PUSH2 0x1583 JUMP JUMPDEST DUP1 CALLDATALOAD PUSH1 0x1 PUSH1 0x1 PUSH1 0xA0 SHL SUB DUP2 AND DUP2 EQ PUSH2 0x15AE JUMPI PUSH1 0x0 DUP1 REVERT JUMPDEST SWAP2 SWAP1 POP JUMP JUMPDEST PUSH4 0x4E487B71 PUSH1 0xE0 SHL PUSH1 0x0 MSTORE PUSH1 0x41 PUSH1 0x4 MSTORE PUSH1 0x24 PUSH1 0x0 REVERT JUMPDEST PUSH1 0x40 MLOAD PUSH1 0x1F DUP3 ADD PUSH1 0x1F NOT AND DUP2 ADD PUSH8 0xFFFFFFFFFFFFFFFF DUP2 GT DUP3 DUP3 LT OR ISZERO PUSH2 0x15F2 JUMPI PUSH2 0x15F2 PUSH2 0x15B3 JUMP JUMPDEST PUSH1 0x40 MSTORE SWAP2 SWAP1 POP JUMP JUMPDEST PUSH1 0x0 PUSH8 0xFFFFFFFFFFFFFFFF DUP3 GT ISZERO PUSH2 0x1614 JUMPI PUSH2 0x1614 PUSH2 0x15B3 JUMP JUMPDEST POP PUSH1 0x1F ADD PUSH1 0x1F NOT AND PUSH1 0x20 ADD SWAP1 JUMP JUMPDEST PUSH1 0x0 DUP3 PUSH1 0x1F DUP4 ADD SLT PUSH2 0x1633 JUMPI PUSH1 0x0 DUP1 REVERT JUMPDEST DUP2 CALLDATALOAD PUSH2 0x1646 PUSH2 0x1641 DUP3 PUSH2 0x15FA JUMP JUMPDEST PUSH2 0x15C9 JUMP JUMPDEST DUP2 DUP2 MSTORE DUP5 PUSH1 0x20 DUP4 DUP7 ADD ADD GT ISZERO PUSH2 0x165B JUMPI PUSH1 0x0 DUP1 REVERT JUMPDEST DUP2 PUSH1 0x20 DUP6 ADD PUSH1 0x20 DUP4 ADD CALLDATACOPY PUSH1 0x0 SWAP2 DUP2 ADD PUSH1 0x20 ADD SWAP2 SWAP1 SWAP2 MSTORE SWAP4 SWAP3 POP POP POP JUMP JUMPDEST PUSH1 0x0 DUP1 PUSH1 0x0 DUP1 PUSH1 0x0 DUP1 PUSH1 0xC0 DUP8 DUP10 SUB SLT ISZERO PUSH2 0x1691 JUMPI PUSH1 0x0 DUP1 REVERT JUMPDEST PUSH2 0x169A DUP8 PUSH2 0x1597 JUMP JUMPDEST SWAP6 POP PUSH2 0x16A8 PUSH1 0x20 DUP9 ADD PUSH2 0x1597 JUMP JUMPDEST SWAP5 POP PUSH1 0x40 DUP8 ADD CALLDATALOAD PUSH8 0xFFFFFFFFFFFFFFFF DUP2 GT ISZERO PUSH2 0x16C4 JUMPI PUSH1 0x0 DUP1 REVERT JUMPDEST PUSH2 0x16D0 DUP10 DUP3 DUP11 ADD PUSH2 0x1622 JUMP JUMPDEST SWAP5 POP POP PUSH2 0x16DF PUSH1 0x60 DUP9 ADD PUSH2 0x1597 JUMP JUMPDEST SWAP3 POP PUSH1 0x80 DUP8 ADD CALLDATALOAD SWAP2 POP PUSH1 0xA0 DUP8 ADD CALLDATALOAD SWAP1 POP SWAP3 SWAP6 POP SWAP3 SWAP6 POP SWAP3 SWAP6 JUMP JUMPDEST PUSH1 0x0 DUP1 PUSH1 0x40 DUP4 DUP6 SUB SLT ISZERO PUSH2 0x170C JUMPI PUSH1 0x0 DUP1 REVERT JUMPDEST POP POP DUP1 CALLDATALOAD SWAP3 PUSH1 0x20 SWAP1 SWAP2 ADD CALLDATALOAD SWAP2 POP JUMP JUMPDEST PUSH1 0x0 JUMPDEST DUP4 DUP2 LT ISZERO PUSH2 0x1736 JUMPI DUP2 DUP2 ADD MLOAD DUP4 DUP3 ADD MSTORE PUSH1 0x20 ADD PUSH2 0x171E JUMP JUMPDEST DUP4 DUP2 GT ISZERO PUSH2 0x119C JUMPI POP POP PUSH1 0x0 SWAP2 ADD MSTORE JUMP JUMPDEST PUSH1 0x0 DUP2 MLOAD DUP1 DUP5 MSTORE PUSH2 0x175F DUP2 PUSH1 0x20 DUP7 ADD PUSH1 0x20 DUP7 ADD PUSH2 0x171B JUMP JUMPDEST PUSH1 0x1F ADD PUSH1 0x1F NOT AND SWAP3 SWAP1 SWAP3 ADD PUSH1 0x20 ADD SWAP3 SWAP2 POP POP JUMP JUMPDEST PUSH1 0x20 DUP2 MSTORE PUSH1 0x0 PUSH2 0x127C PUSH1 0x20 DUP4 ADD DUP5 PUSH2 0x1747 JUMP JUMPDEST PUSH1 0x0 PUSH1 0x20 DUP3 DUP5 SUB SLT ISZERO PUSH2 0x1798 JUMPI PUSH1 0x0 DUP1 REVERT JUMPDEST DUP2 CALLDATALOAD PUSH8 0xFFFFFFFFFFFFFFFF DUP2 GT ISZERO PUSH2 0x17AF JUMPI PUSH1 0x0 DUP1 REVERT JUMPDEST PUSH2 0xEAE DUP5 DUP3 DUP6 ADD PUSH2 0x1622 JUMP JUMPDEST PUSH4 0x4E487B71 PUSH1 0xE0 SHL PUSH1 0x0 MSTORE PUSH1 0x21 PUSH1 0x4 MSTORE PUSH1 0x24 PUSH1 0x0 REVERT JUMPDEST PUSH1 0x20 DUP2 ADD PUSH1 0x5 DUP4 LT PUSH2 0x17F3 JUMPI PUSH4 0x4E487B71 PUSH1 0xE0 SHL PUSH1 0x0 MSTORE PUSH1 0x21 PUSH1 0x4 MSTORE PUSH1 0x24 PUSH1 0x0 REVERT JUMPDEST SWAP2 SWAP1 MSTORE SWAP1 JUMP JUMPDEST PUSH1 0x0 PUSH1 0x20 DUP3 DUP5 SUB SLT ISZERO PUSH2 0x180B JUMPI PUSH1 0x0 DUP1 REVERT JUMPDEST POP MLOAD SWAP2 SWAP1 POP JUMP JUMPDEST PUSH1 0x0 PUSH1 0x20 DUP3 DUP5 SUB SLT ISZERO PUSH2 0x1824 JUMPI PUSH1 0x0 DUP1 REVERT JUMPDEST DUP2 MLOAD PUSH8 0xFFFFFFFFFFFFFFFF DUP2 GT ISZERO PUSH2 0x183B JUMPI PUSH1 0x0 DUP1 REVERT JUMPDEST DUP3 ADD PUSH1 0x1F DUP2 ADD DUP5 SGT PUSH2 0x184C JUMPI PUSH1 0x0 DUP1 REVERT JUMPDEST DUP1 MLOAD PUSH2 0x185A PUSH2 0x1641 DUP3 PUSH2 0x15FA JUMP JUMPDEST DUP2 DUP2 MSTORE DUP6 PUSH1 0x20 DUP4 DUP6 ADD ADD GT ISZERO PUSH2 0x186F JUMPI PUSH1 0x0 DUP1 REVERT JUMPDEST PUSH2 0xE70 DUP3 PUSH1 0x20 DUP4 ADD PUSH1 0x20 DUP7 ADD PUSH2 0x171B JUMP JUMPDEST PUSH1 0x1 DUP2 DUP2 SHR SWAP1 DUP3 AND DUP1 PUSH2 0x1894 JUMPI PUSH1 0x7F DUP3 AND SWAP2 POP JUMPDEST PUSH1 0x20 DUP3 LT DUP2 EQ ISZERO PUSH2 0x14A6 JUMPI PUSH4 0x4E487B71 PUSH1 0xE0 SHL PUSH1 0x0 MSTORE PUSH1 0x22 PUSH1 0x4 MSTORE PUSH1 0x24 PUSH1 0x0 REVERT JUMPDEST PUSH1 0x40 DUP2 MSTORE PUSH1 0x0 PUSH2 0x18C8 PUSH1 0x40 DUP4 ADD DUP5 PUSH2 0x1747 JUMP JUMPDEST DUP3 DUP2 SUB PUSH1 0x20 DUP5 ADD MSTORE PUSH1 0x9 DUP2 MSTORE PUSH9 0x11195B1A5D995C9959 PUSH1 0xBA SHL PUSH1 0x20 DUP3 ADD MSTORE PUSH1 0x40 DUP2 ADD SWAP2 POP POP SWAP3 SWAP2 POP POP JUMP JUMPDEST PUSH1 0x0 PUSH1 0x20 DUP3 DUP5 SUB SLT ISZERO PUSH2 0x1905 JUMPI PUSH1 0x0 DUP1 REVERT JUMPDEST DUP2 MLOAD DUP1 ISZERO ISZERO DUP2 EQ PUSH2 0x127C JUMPI PUSH1 0x0 DUP1 REVERT JUMPDEST PUSH1 0x0 PUSH1 0x20 DUP1 DUP4 MSTORE PUSH1 0x0 DUP5 SLOAD DUP2 PUSH1 0x1 DUP3 DUP2 SHR SWAP2 POP DUP1 DUP4 AND DUP1 PUSH2 0x1937 JUMPI PUSH1 0x7F DUP4 AND SWAP3 POP JUMPDEST DUP6 DUP4 LT DUP2 EQ ISZERO PUSH2 0x1955 JUMPI PUSH4 0x4E487B71 PUSH1 0xE0 SHL DUP6 MSTORE PUSH1 0x22 PUSH1 0x4 MSTORE PUSH1 0x24 DUP6 REVERT JUMPDEST DUP8 DUP7 ADD DUP4 DUP2 MSTORE PUSH1 0x20 ADD DUP2 DUP1 ISZERO PUSH2 0x1972 JUMPI PUSH1 0x1 DUP2 EQ PUSH2 0x1983 JUMPI PUSH2 0x19AE JUMP JUMPDEST PUSH1 0xFF NOT DUP7 AND DUP3 MSTORE DUP8 DUP3 ADD SWAP7 POP PUSH2 0x19AE JUMP JUMPDEST PUSH1 0x0 DUP12 DUP2 MSTORE PUSH1 0x20 SWAP1 KECCAK256 PUSH1 0x0 JUMPDEST DUP7 DUP2 LT ISZERO PUSH2 0x19A8 JUMPI DUP2 SLOAD DUP5 DUP3 ADD MSTORE SWAP1 DUP6 ADD SWAP1 DUP10 ADD PUSH2 0x198F JUMP JUMPDEST DUP4 ADD SWAP8 POP POP JUMPDEST POP SWAP5 SWAP10 SWAP9 POP POP POP POP POP POP POP POP POP JUMP JUMPDEST PUSH4 0x4E487B71 PUSH1 0xE0 SHL PUSH1 0x0 MSTORE PUSH1 0x11 PUSH1 0x4 MSTORE PUSH1 0x24 PUSH1 0x0 REVERT JUMPDEST PUSH1 0x0 DUP3 NOT DUP3 GT ISZERO PUSH2 0x19E6 JUMPI PUSH2 0x19E6 PUSH2 0x19BD JUMP JUMPDEST POP ADD SWAP1 JUMP JUMPDEST PUSH1 0x0 DUP2 PUSH1 0x0 NOT DIV DUP4 GT DUP3 ISZERO ISZERO AND ISZERO PUSH2 0x1A05 JUMPI PUSH2 0x1A05 PUSH2 0x19BD JUMP JUMPDEST POP MUL SWAP1 JUMP JUMPDEST PUSH1 0x1 PUSH1 0x1 PUSH1 0xA0 SHL SUB DUP10 DUP2 AND DUP3 MSTORE PUSH1 0x20 DUP3 ADD DUP10 SWAP1 MSTORE PUSH1 0x40 DUP3 ADD DUP9 SWAP1 MSTORE DUP7 AND PUSH1 0x60 DUP3 ADD MSTORE PUSH1 0x1 PUSH1 0x1 PUSH1 0xE0 SHL SUB NOT DUP6 AND PUSH1 0x80 DUP3 ADD MSTORE PUSH1 0xA0 DUP2 ADD DUP5 SWAP1 MSTORE PUSH1 0xC0 DUP2 ADD DUP4 SWAP1 MSTORE PUSH2 0x100 PUSH1 0xE0 DUP3 ADD DUP2 SWAP1 MSTORE PUSH1 0x0 SWAP1 PUSH2 0x1A63 DUP4 DUP3 ADD DUP6 PUSH2 0x1747 JUMP JUMPDEST SWAP12 SWAP11 POP POP POP POP POP POP POP POP POP POP POP JUMP JUMPDEST PUSH1 0x1 DUP1 PUSH1 0xA0 SHL SUB DUP5 AND DUP2 MSTORE DUP3 PUSH1 0x20 DUP3 ADD MSTORE PUSH1 0x60 PUSH1 0x40 DUP3 ADD MSTORE PUSH1 0x0 PUSH2 0xE70 PUSH1 0x60 DUP4 ADD DUP5 PUSH2 0x1747 JUMP JUMPDEST PUSH1 0x0 DUP3 PUSH2 0x1AB6 JUMPI PUSH4 0x4E487B71 PUSH1 0xE0 SHL PUSH1 0x0 MSTORE PUSH1 0x12 PUSH1 0x4 MSTORE PUSH1 0x24 PUSH1 0x0 REVERT JUMPDEST POP MOD SWAP1 JUMP JUMPDEST PUSH1 0x0 DUP3 DUP3 LT ISZERO PUSH2 0x1ACD JUMPI PUSH2 0x1ACD PUSH2 0x19BD JUMP JUMPDEST POP SUB SWAP1 JUMP JUMPDEST PUSH1 0x1 DUP2 DUP2 JUMPDEST DUP1 DUP6 GT ISZERO PUSH2 0x1B0D JUMPI DUP2 PUSH1 0x0 NOT DIV DUP3 GT ISZERO PUSH2 0x1AF3 JUMPI PUSH2 0x1AF3 PUSH2 0x19BD JUMP JUMPDEST DUP1 DUP6 AND ISZERO PUSH2 0x1B00 JUMPI SWAP2 DUP2 MUL SWAP2 JUMPDEST SWAP4 DUP5 SHR SWAP4 SWAP1 DUP1 MUL SWAP1 PUSH2 0x1AD7 JUMP JUMPDEST POP SWAP3 POP SWAP3 SWAP1 POP JUMP JUMPDEST PUSH1 0x0 DUP3 PUSH2 0x1B24 JUMPI POP PUSH1 0x1 PUSH2 0x117B JUMP JUMPDEST DUP2 PUSH2 0x1B31 JUMPI POP PUSH1 0x0 PUSH2 0x117B JUMP JUMPDEST DUP2 PUSH1 0x1 DUP2 EQ PUSH2 0x1B47 JUMPI PUSH1 0x2 DUP2 EQ PUSH2 0x1B51 JUMPI PUSH2 0x1B6D JUMP JUMPDEST PUSH1 0x1 SWAP2 POP POP PUSH2 0x117B JUMP JUMPDEST PUSH1 0xFF DUP5 GT ISZERO PUSH2 0x1B62 JUMPI PUSH2 0x1B62 PUSH2 0x19BD JUMP JUMPDEST POP POP PUSH1 0x1 DUP3 SHL PUSH2 0x117B JUMP JUMPDEST POP PUSH1 0x20 DUP4 LT PUSH2 0x133 DUP4 LT AND PUSH1 0x4E DUP5 LT PUSH1 0xB DUP5 LT AND OR ISZERO PUSH2 0x1B90 JUMPI POP DUP2 DUP2 EXP PUSH2 0x117B JUMP JUMPDEST PUSH2 0x1B9A DUP4 DUP4 PUSH2 0x1AD2 JUMP JUMPDEST DUP1 PUSH1 0x0 NOT DIV DUP3 GT ISZERO PUSH2 0x1BAE JUMPI PUSH2 0x1BAE PUSH2 0x19BD JUMP JUMPDEST MUL SWAP4 SWAP3 POP POP POP JUMP JUMPDEST PUSH1 0x0 PUSH2 0x127C DUP4 DUP4 PUSH2 0x1B15 JUMP INVALID LOG2 PUSH5 0x6970667358 0x22 SLT KECCAK256 0xEB PUSH24 0x284EEFD3344B394C441693F591DB1AD5CE03C4D15D9E1DD1 0xBF 0xD 0x2B PUSH28 0x149064736F6C63430008090033000000000000000000000000000000 ",
  "sha1": "d5b5deb3ab8654bd54016b87a984ee164e43d540",
  "source": "// SPDX-License-Identifier: MIT\npragma solidity ^0.8.7;\n\nimport \"@chainlink/contracts/src/v0.8/ChainlinkClient.sol\";\nimport \"@chainlink/contracts/src/v0.8/ConfirmedOwner.sol\";\nimport \"@openzeppelin/contracts/interfaces/IERC20.sol\";\nimport \"./libraries/strings.sol\";\n\ncontract Escrow is ChainlinkClient {\n    using Chainlink for Chainlink.Request;\n    using strings for string;\n    using strings for bytes32;\n\n    uint256 private constant ORACLE_PAYMENT = 1 * LINK_DIVISIBILITY;\n    address private oracle;\n    bytes32 private jobId;\n\n    address factory;\n\n    Stage public stage;\n    address public buyer;\n    address public seller;\n    uint256 public price;\n    IERC20 public currency;\n    string trackingNo;\n    string public deliveryStatus;\n\n    uint256 public lockPeriod;\n    uint256 public currentBlock;\n\n    enum Stage {\n        Initiate,\n        WaitForShipping,\n        Shipping,\n        Delivered,\n        End\n    }\n\n    event OrderInitiate(address indexed _buyer);\n    event OrderCancel(address indexed _buyer);\n\n    event ShipmentInprogress(string trackingNo);\n    event ShipmentUpdated(bytes32 status);\n    event ShipmentDelivered(bytes32 status);\n    event OrderCompleted(string trackingNo);\n\n    modifier validStage(Stage _stage, string memory message) {\n        require(_stage == stage, message);\n        _;\n    }\n\n    constructor() {\n        factory = msg.sender;\n    }\n\n    function init(\n        address _link,\n        address _oracle,\n        string memory _jobId,\n        address _seller,\n        // address _currency,\n        uint256 _price,\n        uint256 _lockPeriod\n    ) external {\n        require(msg.sender == factory, \"FORBIDDEN\");\n        // setPublicChainlinkToken();\n        setChainlinkToken(_link);\n        oracle = _oracle;\n        jobId = _jobId.stringToBytes32();\n        stage = Stage.Initiate;\n        seller = _seller;\n        // currency = IERC20(_currency);\n        price = _price;\n        lockPeriod = _lockPeriod;\n    }\n\n    function order()\n        external\n        payable\n        validStage(Stage.Initiate, \"Already have a buyer\")\n    {\n        require(msg.sender != seller, \"You can not buy from yourself\");\n        require(msg.value >= price, \"Not enough fund\");\n        stage = Stage.WaitForShipping;\n        buyer = msg.sender;\n        currentBlock = block.number;\n        // currency.transferFrom(msg.sender, address(this), price);\n        emit OrderInitiate(buyer);\n    }\n\n    function cancelOrder()\n        external\n        validStage(Stage.WaitForShipping, \"shipping in progress\")\n    {\n        require(msg.sender == buyer, \"Only buyer\");\n\n        require(\n            block.number >= currentBlock + lockPeriod,\n            \"Not allowed to cancel order\"\n        );\n        buyer = address(0);\n        stage = Stage.Initiate;\n        // currency.transfer(msg.sender, price);\n        payable(msg.sender).transfer(address(this).balance);\n        emit OrderCancel(msg.sender);\n    }\n\n    function updateShipment(string memory _trackingNO)\n        external\n        validStage(Stage.WaitForShipping, \"Invalid Stage\")\n    {\n        require(msg.sender == seller, \"Only Seller\");\n\n        stage = Stage.Shipping;\n        trackingNo = _trackingNO;\n        emit ShipmentInprogress(trackingNo);\n    }\n\n    function requestShippingDetail()\n        external\n        validStage(Stage.Shipping, \"Need shipment\")\n    {\n        Chainlink.Request memory req = buildChainlinkRequest(\n            jobId,\n            address(this),\n            this.fulfillShippingDetail.selector\n        );\n\n        req.add(\"trackingNo\", trackingNo);\n        bytes32 requestId = sendChainlinkRequestTo(oracle, req, ORACLE_PAYMENT);\n        emit ChainlinkRequested(requestId);\n    }\n\n    function fulfillShippingDetail(bytes32 _requestId, bytes32 _deliveryStatus)\n        public\n        recordChainlinkFulfillment(_requestId)\n    {\n        deliveryStatus = _deliveryStatus.bytes32ToString();\n        if (deliveryStatus.compareStrings(\"Delivered\")) {\n            stage = Stage.Delivered;\n            emit ShipmentDelivered(_deliveryStatus);\n        } else {\n            emit ShipmentUpdated(_deliveryStatus);\n        }\n    }\n\n    function reclaimFund()\n        external\n        validStage(Stage.Delivered, \"Invalid Stage\")\n    {\n        require(msg.sender == seller, \"Only Seller\");\n\n        // currency.transfer(msg.sender, address(this).balance);\n        stage = Stage.End;\n        payable(msg.sender).transfer(address(this).balance);\n    }\n}\n",
  "sourcePath": "contracts/Escrow.sol",
  "type": "contract"
}