{"bytecode":"608060405234801561001057600080fd5b5060405161062138038061062183398101604081905261002f916101a8565b6100383361008d565b600180546001600160a01b038087166001600160a01b0319928316179092556002805492861692909116919091179055815161007b9060039060208501906100dd565b506000600555600455506102dc915050565b600080546001600160a01b038381166001600160a01b0319831681178455604051919092169283917f8be0079c531659141344cd1fd0a4f28419497f9722a3daafe3b4186f6b6457e09190a35050565b8280546100e9906102a1565b90600052602060002090601f01602090048101928261010b5760008555610151565b82601f1061012457805160ff1916838001178555610151565b82800160010185558215610151579182015b82811115610151578251825591602001919060010190610136565b5061015d929150610161565b5090565b5b8082111561015d5760008155600101610162565b80516001600160a01b038116811461018d57600080fd5b919050565b634e487b7160e01b600052604160045260246000fd5b600080600080608085870312156101be57600080fd5b6101c785610176565b935060206101d6818701610176565b60408701519094506001600160401b03808211156101f357600080fd5b818801915088601f83011261020757600080fd5b81518181111561021957610219610192565b604051601f8201601f19908116603f0116810190838211818310171561024157610241610192565b816040528281528b8684870101111561025957600080fd5b600093505b8284101561027b578484018601518185018701529285019261025e565b8284111561028c5760008684830101525b60609a909a0151989b979a5050505050505050565b600181811c908216806102b557607f821691505b602082108114156102d657634e487b7160e01b600052602260045260246000fd5b50919050565b610336806102eb6000396000f3fe608060405234801561001057600080fd5b506004361061007d5760003560e01c80637acc0b201161005b5780637acc0b20146100bb5780638da5cb5b146100fc578063e0f6ef871461010d578063f2fde38b1461011657600080fd5b80634b1d29b41461008257806355889d011461009e578063715018a6146100b3575b600080fd5b61008b60045481565b6040519081526020015b60405180910390f35b6100b16100ac366004610282565b610129565b005b6100b1610161565b6100e46100c9366004610282565b6006602052600090815260409020546001600160a01b031681565b6040516001600160a01b039091168152602001610095565b6000546001600160a01b03166100e4565b61008b60055481565b6100b161012436600461029b565b610197565b6000546001600160a01b0316331461015c5760405162461bcd60e51b8152600401610153906102cb565b60405180910390fd5b600455565b6000546001600160a01b0316331461018b5760405162461bcd60e51b8152600401610153906102cb565b6101956000610232565b565b6000546001600160a01b031633146101c15760405162461bcd60e51b8152600401610153906102cb565b6001600160a01b0381166102265760405162461bcd60e51b815260206004820152602660248201527f4f776e61626c653a206e6577206f776e657220697320746865207a65726f206160448201526564647265737360d01b6064820152608401610153565b61022f81610232565b50565b600080546001600160a01b038381166001600160a01b0319831681178455604051919092169283917f8be0079c531659141344cd1fd0a4f28419497f9722a3daafe3b4186f6b6457e09190a35050565b60006020828403121561029457600080fd5b5035919050565b6000602082840312156102ad57600080fd5b81356001600160a01b03811681146102c457600080fd5b9392505050565b6020808252818101527f4f776e61626c653a2063616c6c6572206973206e6f7420746865206f776e657260408201526060019056fea26469706673582212201f8cd8a51e506636d78b76efc3a0541be832656b4ec67bb4578d6ef7411b2ce864736f6c63430008090033","bytecodeSha1":"12b7867a239a4fdbe8a9c3fae7d8cb4b24f74df5","type":"contract","abi":[{"inputs":[{"internalType":"address","name":"_linkToken","type":"address"},{"internalType":"address","name":"_oracle","type":"address"},{"internalType":"string","name":"_jobId","type":"string"},{"internalType":"uint256","name":"_maxLockPeriod","type":"uint256"}],"stateMutability":"nonpayable","type":"constructor","name":"constructor"},{"anonymous":false,"inputs":[{"indexed":true,"internalType":"address","name":"previousOwner","type":"address"},{"indexed":true,"internalType":"address","name":"newOwner","type":"address"}],"name":"OwnershipTransferred","type":"event"},{"anonymous":false,"inputs":[{"indexed":true,"internalType":"address","name":"seller","type":"address"},{"indexed":false,"internalType":"address","name":"product","type":"address"}],"name":"ProductCreated","type":"event"},{"inputs":[],"name":"maxLockPeriod","outputs":[{"internalType":"uint256","name":"","type":"uint256"}],"stateMutability":"view","type":"function"},{"inputs":[],"name":"owner","outputs":[{"internalType":"address","name":"","type":"address"}],"stateMutability":"view","type":"function"},{"inputs":[],"name":"productCount","outputs":[{"internalType":"uint256","name":"","type":"uint256"}],"stateMutability":"view","type":"function"},{"inputs":[{"internalType":"uint256","name":"","type":"uint256"}],"name":"products","outputs":[{"internalType":"address","name":"","type":"address"}],"stateMutability":"view","type":"function"},{"inputs":[],"name":"renounceOwnership","outputs":[],"stateMutability":"nonpayable","type":"function"},{"inputs":[{"internalType":"uint256","name":"_maxLockPeriod","type":"uint256"}],"name":"setMaxLockPeriod","outputs":[],"stateMutability":"nonpayable","type":"function"},{"inputs":[{"internalType":"address","name":"newOwner","type":"address"}],"name":"transferOwnership","outputs":[],"stateMutability":"nonpayable","type":"function"}],"compiler":{"version":"0.8.9+commit.e5eed63a","evm_version":"istanbul","optimizer":{"enabled":true,"runs":200}},"contractName":"EscrowFactory","language":"Solidity","natspec":{"methods":{"owner()":{"details":"Returns the address of the current owner."},"renounceOwnership()":{"details":"Leaves the contract without owner. It will not be possible to call `onlyOwner` functions anymore. Can only be called by the current owner. NOTE: Renouncing ownership will leave the contract without an owner, thereby removing any functionality that is only available to the owner."},"transferOwnership(address)":{"details":"Transfers ownership of the contract to a new account (`newOwner`). Can only be called by the current owner."}},"kind":"dev","version":1},"opcodes":"PUSH1 0x80 PUSH1 0x40 MSTORE CALLVALUE DUP1 ISZERO PUSH2 0x10 JUMPI PUSH1 0x0 DUP1 REVERT JUMPDEST POP PUSH1 0x4 CALLDATASIZE LT PUSH2 0x7D JUMPI PUSH1 0x0 CALLDATALOAD PUSH1 0xE0 SHR DUP1 PUSH4 0x7ACC0B20 GT PUSH2 0x5B JUMPI DUP1 PUSH4 0x7ACC0B20 EQ PUSH2 0xBB JUMPI DUP1 PUSH4 0x8DA5CB5B EQ PUSH2 0xFC JUMPI DUP1 PUSH4 0xE0F6EF87 EQ PUSH2 0x10D JUMPI DUP1 PUSH4 0xF2FDE38B EQ PUSH2 0x116 JUMPI PUSH1 0x0 DUP1 REVERT JUMPDEST DUP1 PUSH4 0x4B1D29B4 EQ PUSH2 0x82 JUMPI DUP1 PUSH4 0x55889D01 EQ PUSH2 0x9E JUMPI DUP1 PUSH4 0x715018A6 EQ PUSH2 0xB3 JUMPI JUMPDEST PUSH1 0x0 DUP1 REVERT JUMPDEST PUSH2 0x8B PUSH1 0x4 SLOAD DUP2 JUMP JUMPDEST PUSH1 0x40 MLOAD SWAP1 DUP2 MSTORE PUSH1 0x20 ADD JUMPDEST PUSH1 0x40 MLOAD DUP1 SWAP2 SUB SWAP1 RETURN JUMPDEST PUSH2 0xB1 PUSH2 0xAC CALLDATASIZE PUSH1 0x4 PUSH2 0x282 JUMP JUMPDEST PUSH2 0x129 JUMP JUMPDEST STOP JUMPDEST PUSH2 0xB1 PUSH2 0x161 JUMP JUMPDEST PUSH2 0xE4 PUSH2 0xC9 CALLDATASIZE PUSH1 0x4 PUSH2 0x282 JUMP JUMPDEST PUSH1 0x6 PUSH1 0x20 MSTORE PUSH1 0x0 SWAP1 DUP2 MSTORE PUSH1 0x40 SWAP1 KECCAK256 SLOAD PUSH1 0x1 PUSH1 0x1 PUSH1 0xA0 SHL SUB AND DUP2 JUMP JUMPDEST PUSH1 0x40 MLOAD PUSH1 0x1 PUSH1 0x1 PUSH1 0xA0 SHL SUB SWAP1 SWAP2 AND DUP2 MSTORE PUSH1 0x20 ADD PUSH2 0x95 JUMP JUMPDEST PUSH1 0x0 SLOAD PUSH1 0x1 PUSH1 0x1 PUSH1 0xA0 SHL SUB AND PUSH2 0xE4 JUMP JUMPDEST PUSH2 0x8B PUSH1 0x5 SLOAD DUP2 JUMP JUMPDEST PUSH2 0xB1 PUSH2 0x124 CALLDATASIZE PUSH1 0x4 PUSH2 0x29B JUMP JUMPDEST PUSH2 0x197 JUMP JUMPDEST PUSH1 0x0 SLOAD PUSH1 0x1 PUSH1 0x1 PUSH1 0xA0 SHL SUB AND CALLER EQ PUSH2 0x15C JUMPI PUSH1 0x40 MLOAD PUSH3 0x461BCD PUSH1 0xE5 SHL DUP2 MSTORE PUSH1 0x4 ADD PUSH2 0x153 SWAP1 PUSH2 0x2CB JUMP JUMPDEST PUSH1 0x40 MLOAD DUP1 SWAP2 SUB SWAP1 REVERT JUMPDEST PUSH1 0x4 SSTORE JUMP JUMPDEST PUSH1 0x0 SLOAD PUSH1 0x1 PUSH1 0x1 PUSH1 0xA0 SHL SUB AND CALLER EQ PUSH2 0x18B JUMPI PUSH1 0x40 MLOAD PUSH3 0x461BCD PUSH1 0xE5 SHL DUP2 MSTORE PUSH1 0x4 ADD PUSH2 0x153 SWAP1 PUSH2 0x2CB JUMP JUMPDEST PUSH2 0x195 PUSH1 0x0 PUSH2 0x232 JUMP JUMPDEST JUMP JUMPDEST PUSH1 0x0 SLOAD PUSH1 0x1 PUSH1 0x1 PUSH1 0xA0 SHL SUB AND CALLER EQ PUSH2 0x1C1 JUMPI PUSH1 0x40 MLOAD PUSH3 0x461BCD PUSH1 0xE5 SHL DUP2 MSTORE PUSH1 0x4 ADD PUSH2 0x153 SWAP1 PUSH2 0x2CB JUMP JUMPDEST PUSH1 0x1 PUSH1 0x1 PUSH1 0xA0 SHL SUB DUP2 AND PUSH2 0x226 JUMPI PUSH1 0x40 MLOAD PUSH3 0x461BCD PUSH1 0xE5 SHL DUP2 MSTORE PUSH1 0x20 PUSH1 0x4 DUP3 ADD MSTORE PUSH1 0x26 PUSH1 0x24 DUP3 ADD MSTORE PUSH32 0x4F776E61626C653A206E6577206F776E657220697320746865207A65726F2061 PUSH1 0x44 DUP3 ADD MSTORE PUSH6 0x646472657373 PUSH1 0xD0 SHL PUSH1 0x64 DUP3 ADD MSTORE PUSH1 0x84 ADD PUSH2 0x153 JUMP JUMPDEST PUSH2 0x22F DUP2 PUSH2 0x232 JUMP JUMPDEST POP JUMP JUMPDEST PUSH1 0x0 DUP1 SLOAD PUSH1 0x1 PUSH1 0x1 PUSH1 0xA0 SHL SUB DUP4 DUP2 AND PUSH1 0x1 PUSH1 0x1 PUSH1 0xA0 SHL SUB NOT DUP4 AND DUP2 OR DUP5 SSTORE PUSH1 0x40 MLOAD SWAP2 SWAP1 SWAP3 AND SWAP3 DUP4 SWAP2 PUSH32 0x8BE0079C531659141344CD1FD0A4F28419497F9722A3DAAFE3B4186F6B6457E0 SWAP2 SWAP1 LOG3 POP POP JUMP JUMPDEST PUSH1 0x0 PUSH1 0x20 DUP3 DUP5 SUB SLT ISZERO PUSH2 0x294 JUMPI PUSH1 0x0 DUP1 REVERT JUMPDEST POP CALLDATALOAD SWAP2 SWAP1 POP JUMP JUMPDEST PUSH1 0x0 PUSH1 0x20 DUP3 DUP5 SUB SLT ISZERO PUSH2 0x2AD JUMPI PUSH1 0x0 DUP1 REVERT JUMPDEST DUP2 CALLDATALOAD PUSH1 0x1 PUSH1 0x1 PUSH1 0xA0 SHL SUB DUP2 AND DUP2 EQ PUSH2 0x2C4 JUMPI PUSH1 0x0 DUP1 REVERT JUMPDEST SWAP4 SWAP3 POP POP POP JUMP JUMPDEST PUSH1 0x20 DUP1 DUP3 MSTORE DUP2 DUP2 ADD MSTORE PUSH32 0x4F776E61626C653A2063616C6C6572206973206E6F7420746865206F776E6572 PUSH1 0x40 DUP3 ADD MSTORE PUSH1 0x60 ADD SWAP1 JUMP INVALID LOG2 PUSH5 0x6970667358 0x22 SLT KECCAK256 0x1F DUP13 0xD8 0xA5 0x1E POP PUSH7 0x36D78B76EFC3A0 SLOAD SHL 0xE8 ORIGIN PUSH6 0x6B4EC67BB457 DUP14 PUSH15 0xF7411B2CE864736F6C634300080900 CALLER ","sha1":"13ce22ebd8dd4336c3450923cd51b34d01d7a162","source":"// SPDX-License-Identifier: MIT\npragma solidity ^0.8.0;\n\n// import \"./Escrow.sol\";\nimport \"@openzeppelin/contracts/access/Ownable.sol\";\n\ncontract EscrowFactory is Ownable {\n    address linkToken;\n    address oracle;\n    string jobId;\n    uint256 public maxLockPeriod;\n    uint256 public productCount;\n    mapping(uint256 => address) public products;\n\n    constructor(\n        address _linkToken,\n        address _oracle,\n        string memory _jobId,\n        uint256 _maxLockPeriod\n    ) {\n        require(_maxLockPeriod >= 0, \"lock period must be greater than 0\");\n        linkToken = _linkToken;\n        oracle = _oracle;\n        jobId = _jobId;\n        productCount = 0;\n        maxLockPeriod = _maxLockPeriod;\n    }\n\n    event ProductCreated(address indexed seller, address product);\n\n    // function createProduct(\n    //     string memory _name,\n    //     uint256 _price,\n    //     uint256 _lockPeriod\n    // ) external {\n    //     uint256 lockPeriod = _lockPeriod;\n    //     if (lockPeriod > maxLockPeriod) {\n    //         lockPeriod = maxLockPeriod;\n    //     }\n    //     bytes32 salt = keccak256(\n    //         abi.encodePacked(\n    //             linkToken,\n    //             oracle,\n    //             jobId,\n    //             _name,\n    //             msg.sender,\n    //             _price,\n    //             lockPeriod,\n    //             productCount\n    //         )\n    //     );\n\n    //     address product = address(new Escrow{salt: salt}());\n\n    //     Escrow(product).init(\n    //         linkToken,\n    //         oracle,\n    //         jobId,\n    //         _name,\n    //         msg.sender,\n    //         _price,\n    //         lockPeriod\n    //     );\n\n    //     productCount++;\n    //     products[productCount] = product;\n\n    //     emit ProductCreated(msg.sender, product);\n    // }\n\n    function setMaxLockPeriod(uint256 _maxLockPeriod) external onlyOwner {\n        require(_maxLockPeriod >= 0, \"lock period must be greater than 0\");\n        maxLockPeriod = _maxLockPeriod;\n    }\n}\n","sourcePath":"contracts/EscrowFactory.sol","deployment":{"address":"0x3f1c67d8438747B92adb0e130e635F707739a7C9","chainid":"42","blockHeight":28351269}}