{
  "abi": [
    {
      "inputs": [
        {
          "internalType": "address",
          "name": "newOwner",
          "type": "address"
        },
        {
          "internalType": "address",
          "name": "pendingOwner",
          "type": "address"
        }
      ],
      "stateMutability": "nonpayable",
      "type": "constructor"
    },
    {
      "anonymous": false,
      "inputs": [
        {
          "indexed": true,
          "internalType": "address",
          "name": "from",
          "type": "address"
        },
        {
          "indexed": true,
          "internalType": "address",
          "name": "to",
          "type": "address"
        }
      ],
      "name": "OwnershipTransferRequested",
      "type": "event"
    },
    {
      "anonymous": false,
      "inputs": [
        {
          "indexed": true,
          "internalType": "address",
          "name": "from",
          "type": "address"
        },
        {
          "indexed": true,
          "internalType": "address",
          "name": "to",
          "type": "address"
        }
      ],
      "name": "OwnershipTransferred",
      "type": "event"
    },
    {
      "inputs": [],
      "name": "acceptOwnership",
      "outputs": [],
      "stateMutability": "nonpayable",
      "type": "function"
    },
    {
      "inputs": [],
      "name": "owner",
      "outputs": [
        {
          "internalType": "address",
          "name": "",
          "type": "address"
        }
      ],
      "stateMutability": "view",
      "type": "function"
    },
    {
      "inputs": [
        {
          "internalType": "address",
          "name": "to",
          "type": "address"
        }
      ],
      "name": "transferOwnership",
      "outputs": [],
      "stateMutability": "nonpayable",
      "type": "function"
    }
  ],
  "bytecode": "608060405234801561001057600080fd5b5060405161047338038061047383398101604081905261002f91610187565b6001600160a01b03821661008a5760405162461bcd60e51b815260206004820152601860248201527f43616e6e6f7420736574206f776e657220746f207a65726f000000000000000060448201526064015b60405180910390fd5b600080546001600160a01b0319166001600160a01b03848116919091179091558116156100ba576100ba816100c1565b50506101ba565b6001600160a01b03811633141561011a5760405162461bcd60e51b815260206004820152601760248201527f43616e6e6f74207472616e7366657220746f2073656c660000000000000000006044820152606401610081565b600180546001600160a01b0319166001600160a01b0383811691821790925560008054604051929316917fed8889f560326eb138920d842192f0eb3dd22b4f139c87a2c57538e05bae12789190a350565b80516001600160a01b038116811461018257600080fd5b919050565b6000806040838503121561019a57600080fd5b6101a38361016b565b91506101b16020840161016b565b90509250929050565b6102aa806101c96000396000f3fe608060405234801561001057600080fd5b50600436106100415760003560e01c806379ba5097146100465780638da5cb5b14610050578063f2fde38b1461006f575b600080fd5b61004e610082565b005b600054604080516001600160a01b039092168252519081900360200190f35b61004e61007d366004610244565b610131565b6001546001600160a01b031633146100da5760405162461bcd60e51b815260206004820152601660248201527526bab9ba10313290383937b837b9b2b21037bbb732b960511b60448201526064015b60405180910390fd5b60008054336001600160a01b0319808316821784556001805490911690556040516001600160a01b0390921692909183917f8be0079c531659141344cd1fd0a4f28419497f9722a3daafe3b4186f6b6457e091a350565b610139610145565b6101428161019a565b50565b6000546001600160a01b031633146101985760405162461bcd60e51b815260206004820152601660248201527527b7363c9031b0b63630b1363290313c9037bbb732b960511b60448201526064016100d1565b565b6001600160a01b0381163314156101f35760405162461bcd60e51b815260206004820152601760248201527f43616e6e6f74207472616e7366657220746f2073656c6600000000000000000060448201526064016100d1565b600180546001600160a01b0319166001600160a01b0383811691821790925560008054604051929316917fed8889f560326eb138920d842192f0eb3dd22b4f139c87a2c57538e05bae12789190a350565b60006020828403121561025657600080fd5b81356001600160a01b038116811461026d57600080fd5b939250505056fea26469706673582212209f8ef6e7a754ed7e88fa4fdde1d5666afafc8d3d3ac782d71b863f5681a4bda164736f6c63430008090033",
  "bytecodeSha1": "416a8104df283e07b4aa63a543859d5b5282f692",
  "compiler": {
    "evm_version": "istanbul",
    "optimizer": {
      "enabled": true,
      "runs": 200
    },
    "version": "0.8.9+commit.e5eed63a"
  },
  "contractName": "ConfirmedOwnerWithProposal",
  "language": "Solidity",
  "natspec": {
    "kind": "dev",
    "methods": {
      "acceptOwnership()": {
        "notice": "Allows an ownership transfer to be completed by the recipient."
      },
      "owner()": {
        "notice": "Get the current owner"
      },
      "transferOwnership(address)": {
        "notice": "Allows an owner to begin transferring ownership to a new address, pending."
      }
    },
    "notice": "A contract with helpers for basic contract ownership.",
    "title": "The ConfirmedOwner contract",
    "version": 1
  },
  "opcodes": "PUSH1 0x80 PUSH1 0x40 MSTORE CALLVALUE DUP1 ISZERO PUSH2 0x10 JUMPI PUSH1 0x0 DUP1 REVERT JUMPDEST POP PUSH1 0x4 CALLDATASIZE LT PUSH2 0x41 JUMPI PUSH1 0x0 CALLDATALOAD PUSH1 0xE0 SHR DUP1 PUSH4 0x79BA5097 EQ PUSH2 0x46 JUMPI DUP1 PUSH4 0x8DA5CB5B EQ PUSH2 0x50 JUMPI DUP1 PUSH4 0xF2FDE38B EQ PUSH2 0x6F JUMPI JUMPDEST PUSH1 0x0 DUP1 REVERT JUMPDEST PUSH2 0x4E PUSH2 0x82 JUMP JUMPDEST STOP JUMPDEST PUSH1 0x0 SLOAD PUSH1 0x40 DUP1 MLOAD PUSH1 0x1 PUSH1 0x1 PUSH1 0xA0 SHL SUB SWAP1 SWAP3 AND DUP3 MSTORE MLOAD SWAP1 DUP2 SWAP1 SUB PUSH1 0x20 ADD SWAP1 RETURN JUMPDEST PUSH2 0x4E PUSH2 0x7D CALLDATASIZE PUSH1 0x4 PUSH2 0x244 JUMP JUMPDEST PUSH2 0x131 JUMP JUMPDEST PUSH1 0x1 SLOAD PUSH1 0x1 PUSH1 0x1 PUSH1 0xA0 SHL SUB AND CALLER EQ PUSH2 0xDA JUMPI PUSH1 0x40 MLOAD PUSH3 0x461BCD PUSH1 0xE5 SHL DUP2 MSTORE PUSH1 0x20 PUSH1 0x4 DUP3 ADD MSTORE PUSH1 0x16 PUSH1 0x24 DUP3 ADD MSTORE PUSH22 0x26BAB9BA10313290383937B837B9B2B21037BBB732B9 PUSH1 0x51 SHL PUSH1 0x44 DUP3 ADD MSTORE PUSH1 0x64 ADD JUMPDEST PUSH1 0x40 MLOAD DUP1 SWAP2 SUB SWAP1 REVERT JUMPDEST PUSH1 0x0 DUP1 SLOAD CALLER PUSH1 0x1 PUSH1 0x1 PUSH1 0xA0 SHL SUB NOT DUP1 DUP4 AND DUP3 OR DUP5 SSTORE PUSH1 0x1 DUP1 SLOAD SWAP1 SWAP2 AND SWAP1 SSTORE PUSH1 0x40 MLOAD PUSH1 0x1 PUSH1 0x1 PUSH1 0xA0 SHL SUB SWAP1 SWAP3 AND SWAP3 SWAP1 SWAP2 DUP4 SWAP2 PUSH32 0x8BE0079C531659141344CD1FD0A4F28419497F9722A3DAAFE3B4186F6B6457E0 SWAP2 LOG3 POP JUMP JUMPDEST PUSH2 0x139 PUSH2 0x145 JUMP JUMPDEST PUSH2 0x142 DUP2 PUSH2 0x19A JUMP JUMPDEST POP JUMP JUMPDEST PUSH1 0x0 SLOAD PUSH1 0x1 PUSH1 0x1 PUSH1 0xA0 SHL SUB AND CALLER EQ PUSH2 0x198 JUMPI PUSH1 0x40 MLOAD PUSH3 0x461BCD PUSH1 0xE5 SHL DUP2 MSTORE PUSH1 0x20 PUSH1 0x4 DUP3 ADD MSTORE PUSH1 0x16 PUSH1 0x24 DUP3 ADD MSTORE PUSH22 0x27B7363C9031B0B63630B1363290313C9037BBB732B9 PUSH1 0x51 SHL PUSH1 0x44 DUP3 ADD MSTORE PUSH1 0x64 ADD PUSH2 0xD1 JUMP JUMPDEST JUMP JUMPDEST PUSH1 0x1 PUSH1 0x1 PUSH1 0xA0 SHL SUB DUP2 AND CALLER EQ ISZERO PUSH2 0x1F3 JUMPI PUSH1 0x40 MLOAD PUSH3 0x461BCD PUSH1 0xE5 SHL DUP2 MSTORE PUSH1 0x20 PUSH1 0x4 DUP3 ADD MSTORE PUSH1 0x17 PUSH1 0x24 DUP3 ADD MSTORE PUSH32 0x43616E6E6F74207472616E7366657220746F2073656C66000000000000000000 PUSH1 0x44 DUP3 ADD MSTORE PUSH1 0x64 ADD PUSH2 0xD1 JUMP JUMPDEST PUSH1 0x1 DUP1 SLOAD PUSH1 0x1 PUSH1 0x1 PUSH1 0xA0 SHL SUB NOT AND PUSH1 0x1 PUSH1 0x1 PUSH1 0xA0 SHL SUB DUP4 DUP2 AND SWAP2 DUP3 OR SWAP1 SWAP3 SSTORE PUSH1 0x0 DUP1 SLOAD PUSH1 0x40 MLOAD SWAP3 SWAP4 AND SWAP2 PUSH32 0xED8889F560326EB138920D842192F0EB3DD22B4F139C87A2C57538E05BAE1278 SWAP2 SWAP1 LOG3 POP JUMP JUMPDEST PUSH1 0x0 PUSH1 0x20 DUP3 DUP5 SUB SLT ISZERO PUSH2 0x256 JUMPI PUSH1 0x0 DUP1 REVERT JUMPDEST DUP2 CALLDATALOAD PUSH1 0x1 PUSH1 0x1 PUSH1 0xA0 SHL SUB DUP2 AND DUP2 EQ PUSH2 0x26D JUMPI PUSH1 0x0 DUP1 REVERT JUMPDEST SWAP4 SWAP3 POP POP POP JUMP INVALID LOG2 PUSH5 0x6970667358 0x22 SLT KECCAK256 SWAP16 DUP15 0xF6 0xE7 0xA7 SLOAD 0xED PUSH31 0x88FA4FDDE1D5666AFAFC8D3D3AC782D71B863F5681A4BDA164736F6C634300 ADDMOD MULMOD STOP CALLER ",
  "sha1": "4cbb93a5d1941f202b21cd534921f77258a30876",
  "source": "// SPDX-License-Identifier: MIT\npragma solidity ^0.8.0;\n\nimport \"./interfaces/OwnableInterface.sol\";\n\n/**\n * @title The ConfirmedOwner contract\n * @notice A contract with helpers for basic contract ownership.\n */\ncontract ConfirmedOwnerWithProposal is OwnableInterface {\n\n  address private s_owner;\n  address private s_pendingOwner;\n\n  event OwnershipTransferRequested(\n    address indexed from,\n    address indexed to\n  );\n  event OwnershipTransferred(\n    address indexed from,\n    address indexed to\n  );\n\n  constructor(\n    address newOwner,\n    address pendingOwner\n  ) {\n    require(newOwner != address(0), \"Cannot set owner to zero\");\n\n    s_owner = newOwner;\n    if (pendingOwner != address(0)) {\n      _transferOwnership(pendingOwner);\n    }\n  }\n\n  /**\n   * @notice Allows an owner to begin transferring ownership to a new address,\n   * pending.\n   */\n  function transferOwnership(\n    address to\n  )\n    public\n    override\n    onlyOwner()\n  {\n    _transferOwnership(to);\n  }\n\n  /**\n   * @notice Allows an ownership transfer to be completed by the recipient.\n   */\n  function acceptOwnership()\n    external\n    override\n  {\n    require(msg.sender == s_pendingOwner, \"Must be proposed owner\");\n\n    address oldOwner = s_owner;\n    s_owner = msg.sender;\n    s_pendingOwner = address(0);\n\n    emit OwnershipTransferred(oldOwner, msg.sender);\n  }\n\n  /**\n   * @notice Get the current owner\n   */\n  function owner()\n    public\n    view\n    override\n    returns (\n      address\n    )\n  {\n    return s_owner;\n  }\n\n  /**\n   * @notice validate, transfer ownership, and emit relevant events\n   */\n  function _transferOwnership(\n    address to\n  )\n    private\n  {\n    require(to != msg.sender, \"Cannot transfer to self\");\n\n    s_pendingOwner = to;\n\n    emit OwnershipTransferRequested(s_owner, to);\n  }\n\n  /**\n   * @notice validate access\n   */\n  function _validateOwnership()\n    internal\n    view\n  {\n    require(msg.sender == s_owner, \"Only callable by owner\");\n  }\n\n  /**\n   * @notice Reverts if called by anyone other than the contract owner.\n   */\n  modifier onlyOwner() {\n    _validateOwnership();\n    _;\n  }\n\n}\n",
  "sourcePath": "/Users/palll/.brownie/packages/smartcontractkit/chainlink-brownie-contracts@0.2.2/contracts/src/v0.8/ConfirmedOwnerWithProposal.sol",
  "type": "contract"
}