{
  "abi": [
    {
      "inputs": [],
      "stateMutability": "nonpayable",
      "type": "constructor"
    },
    {
      "anonymous": false,
      "inputs": [
        {
          "indexed": true,
          "internalType": "bytes32",
          "name": "id",
          "type": "bytes32"
        }
      ],
      "name": "ChainlinkCancelled",
      "type": "event"
    },
    {
      "anonymous": false,
      "inputs": [
        {
          "indexed": true,
          "internalType": "bytes32",
          "name": "id",
          "type": "bytes32"
        }
      ],
      "name": "ChainlinkFulfilled",
      "type": "event"
    },
    {
      "anonymous": false,
      "inputs": [
        {
          "indexed": true,
          "internalType": "bytes32",
          "name": "id",
          "type": "bytes32"
        }
      ],
      "name": "ChainlinkRequested",
      "type": "event"
    },
    {
      "anonymous": false,
      "inputs": [
        {
          "indexed": true,
          "internalType": "address",
          "name": "_buyer",
          "type": "address"
        }
      ],
      "name": "OrderCancel",
      "type": "event"
    },
    {
      "anonymous": false,
      "inputs": [
        {
          "indexed": false,
          "internalType": "string",
          "name": "trackingNo",
          "type": "string"
        }
      ],
      "name": "OrderCompleted",
      "type": "event"
    },
    {
      "anonymous": false,
      "inputs": [
        {
          "indexed": true,
          "internalType": "address",
          "name": "_buyer",
          "type": "address"
        }
      ],
      "name": "OrderInitiate",
      "type": "event"
    },
    {
      "anonymous": false,
      "inputs": [
        {
          "indexed": false,
          "internalType": "string",
          "name": "trackingNo",
          "type": "string"
        }
      ],
      "name": "ShipmentInprogress",
      "type": "event"
    },
    {
      "anonymous": false,
      "inputs": [
        {
          "indexed": false,
          "internalType": "bytes32",
          "name": "status",
          "type": "bytes32"
        }
      ],
      "name": "ShipmentUpdated",
      "type": "event"
    },
    {
      "inputs": [],
      "name": "cancelOrder",
      "outputs": [],
      "stateMutability": "nonpayable",
      "type": "function"
    },
    {
      "inputs": [],
      "name": "currentBlock",
      "outputs": [
        {
          "internalType": "uint256",
          "name": "",
          "type": "uint256"
        }
      ],
      "stateMutability": "view",
      "type": "function"
    },
    {
      "inputs": [
        {
          "internalType": "bytes32",
          "name": "_requestId",
          "type": "bytes32"
        },
        {
          "internalType": "bytes32",
          "name": "_deliveryStatus",
          "type": "bytes32"
        }
      ],
      "name": "fulfillShippingDetail",
      "outputs": [],
      "stateMutability": "nonpayable",
      "type": "function"
    },
    {
      "inputs": [
        {
          "internalType": "string",
          "name": "_name",
          "type": "string"
        },
        {
          "internalType": "bytes32",
          "name": "_jobId",
          "type": "bytes32"
        },
        {
          "internalType": "address",
          "name": "_link",
          "type": "address"
        },
        {
          "internalType": "address",
          "name": "_oracle",
          "type": "address"
        },
        {
          "internalType": "address",
          "name": "_seller",
          "type": "address"
        },
        {
          "internalType": "uint256",
          "name": "_id",
          "type": "uint256"
        },
        {
          "internalType": "uint256",
          "name": "_price",
          "type": "uint256"
        },
        {
          "internalType": "uint256",
          "name": "_lockPeriod",
          "type": "uint256"
        },
        {
          "internalType": "uint256",
          "name": "_oracleFee",
          "type": "uint256"
        }
      ],
      "name": "init",
      "outputs": [],
      "stateMutability": "nonpayable",
      "type": "function"
    },
    {
      "inputs": [],
      "name": "isAbleToCancelOrder",
      "outputs": [
        {
          "internalType": "bool",
          "name": "",
          "type": "bool"
        }
      ],
      "stateMutability": "view",
      "type": "function"
    },
    {
      "inputs": [],
      "name": "isDeliveredFail",
      "outputs": [
        {
          "internalType": "bool",
          "name": "",
          "type": "bool"
        }
      ],
      "stateMutability": "view",
      "type": "function"
    },
    {
      "inputs": [],
      "name": "order",
      "outputs": [],
      "stateMutability": "payable",
      "type": "function"
    },
    {
      "inputs": [],
      "name": "product",
      "outputs": [
        {
          "internalType": "bytes32",
          "name": "deliveryStatus",
          "type": "bytes32"
        },
        {
          "internalType": "enum Escrow.Stage",
          "name": "stage",
          "type": "uint8"
        },
        {
          "internalType": "uint256",
          "name": "id",
          "type": "uint256"
        },
        {
          "internalType": "uint256",
          "name": "price",
          "type": "uint256"
        },
        {
          "internalType": "uint256",
          "name": "lockPeriod",
          "type": "uint256"
        },
        {
          "internalType": "address",
          "name": "owner",
          "type": "address"
        },
        {
          "internalType": "address",
          "name": "buyer",
          "type": "address"
        },
        {
          "internalType": "string",
          "name": "trackingId",
          "type": "string"
        },
        {
          "internalType": "string",
          "name": "name",
          "type": "string"
        },
        {
          "internalType": "string",
          "name": "productURI",
          "type": "string"
        }
      ],
      "stateMutability": "view",
      "type": "function"
    },
    {
      "inputs": [
        {
          "internalType": "bool",
          "name": "_reclaim",
          "type": "bool"
        }
      ],
      "name": "reclaimBuyer",
      "outputs": [],
      "stateMutability": "nonpayable",
      "type": "function"
    },
    {
      "inputs": [],
      "name": "reclaimFund",
      "outputs": [],
      "stateMutability": "nonpayable",
      "type": "function"
    },
    {
      "inputs": [],
      "name": "requestShippingDetail",
      "outputs": [],
      "stateMutability": "nonpayable",
      "type": "function"
    },
    {
      "inputs": [
        {
          "internalType": "string",
          "name": "_productURI",
          "type": "string"
        }
      ],
      "name": "setProductURI",
      "outputs": [],
      "stateMutability": "nonpayable",
      "type": "function"
    },
    {
      "inputs": [
        {
          "internalType": "string",
          "name": "_trackingId",
          "type": "string"
        }
      ],
      "name": "updateShipment",
      "outputs": [],
      "stateMutability": "nonpayable",
      "type": "function"
    }
  ],
  "bytecode": "6080604052600160045534801561001557600080fd5b50600f80546001600160a01b03191633179055611e57806100376000396000f3fe6080604052600436106100c25760003560e01c80636a8165481161007f578063959c1ea811610059578063959c1ea8146101c7578063bf15071d146101e7578063bf9ce952146101ef578063e12ed13c1461021a57600080fd5b80636a816548146101885780636b827cd41461019d57806374774750146101b257600080fd5b806309d99f67146100c757806316833f31146100e95780631820e56d14610109578063366e8e5214610133578063507370551461014857806359686c9f14610168575b600080fd5b3480156100d357600080fd5b506100e76100e23660046116e0565b61023e565b005b3480156100f557600080fd5b506100e76101043660046117e3565b61045d565b34801561011557600080fd5b5061011e61051c565b60405190151581526020015b60405180910390f35b34801561013f57600080fd5b506100e7610655565b34801561015457600080fd5b506100e7610163366004611881565b61071f565b34801561017457600080fd5b506100e76101833660046118c7565b61084c565b34801561019457600080fd5b506100e7610947565b3480156101a957600080fd5b506100e7610a56565b3480156101be57600080fd5b5061011e610be6565b3480156101d357600080fd5b506100e76101e2366004611881565b610c21565b6100e7610c62565b3480156101fb57600080fd5b50610204610dbc565b60405161012a9a99989796959493929190611952565b34801561022657600080fd5b5061023060095481565b60405190815260200161012a565b60008281526005602052604090205482906001600160a01b031633146102bc5760405162461bcd60e51b815260206004820152602860248201527f536f75726365206d75737420626520746865206f7261636c65206f6620746865604482015267081c995c5d595cdd60c21b60648201526084015b60405180910390fd5b60008181526005602052604080822080546001600160a01b03191690555182917f7cc135e0cebb02c3480ae5d74d377283180a2601f8f644edf7987b009316c63a91a2600a829055604051639201de5560e01b81526004810183905273__strings_______________________________90639201de559060240160006040518083038186803b15801561034f57600080fd5b505af4158015610363573d6000803e3d6000fd5b505050506040513d6000823e601f3d908101601f1916820160405261038b9190810190611a01565b604051635f69a5dd60e11b815273__strings_______________________________9163bed34bba916103c19190600401611a6f565b60206040518083038186803b1580156103d957600080fd5b505af41580156103ed573d6000803e3d6000fd5b505050506040513d601f19601f820116820180604052508101906104119190611aad565b1561042457600b805460ff191660031790555b6040518281527f65fb20badd0fcfd3bf3ba0ca9bfe4ec522640041a07decd17f1be1fb0ead4f4a906020015b60405180910390a1505050565b600f546001600160a01b031633146104875760405162461bcd60e51b81526004016102b390611aca565b600280546001600160a01b0319166001600160a01b038916179055600780546001600160a01b0319166001600160a01b03881617905560088890556006819055600c849055600e82905588516104e49060129060208c019061160c565b5050600b805460ff1916905550600f80546001600160a01b0319166001600160a01b03949094169390931790925550600d5550505050565b60006002600b5460ff166004811115610537576105376118e4565b1480156106505750600a54604051639201de5560e01b8152600481019190915273__strings_______________________________90639201de559060240160006040518083038186803b15801561058e57600080fd5b505af41580156105a2573d6000803e3d6000fd5b505050506040513d6000823e601f3d908101601f191682016040526105ca9190810190611a01565b604051635f69a5dd60e11b815273__strings_______________________________9163bed34bba916106009190600401611aee565b60206040518083038186803b15801561061857600080fd5b505af415801561062c573d6000803e3d6000fd5b505050506040513d601f19601f820116820180604052508101906106509190611aad565b905090565b600f546001600160a01b0316331461067f5760405162461bcd60e51b81526004016102b390611aca565b60408051808201909152600d81526c496e76616c696420537461676560981b602082015260039081600b5460ff1660048111156106be576106be6118e4565b1481906106de5760405162461bcd60e51b81526004016102b39190611b2c565b50600b8054600460ff1990911617905560405133904780156108fc02916000818181858888f1935050505015801561071a573d6000803e3d6000fd5b505050565b600f546001600160a01b031633146107495760405162461bcd60e51b81526004016102b390611aca565b60408051808201909152600d81526c496e76616c696420537461676560981b602082015260019081600b5460ff166004811115610788576107886118e4565b1481906107a85760405162461bcd60e51b81526004016102b39190611b2c565b5060008351116107fa5760405162461bcd60e51b815260206004820152601960248201527f747261636b696e674964206d757374206e6f7420656d7074790000000000000060448201526064016102b3565b600b805460ff19166002179055825161081a90601190602086019061160c565b506040517f1862cf7a0e12bac162f518f43c2f50df187e89045899a7c015c1d61d9880a11b9061045090601190611b74565b6010546001600160a01b031633146108935760405162461bcd60e51b815260206004820152600a60248201526927b7363c90213abcb2b960b11b60448201526064016102b3565b61089b61051c565b6108df5760405162461bcd60e51b815260206004820152601560248201527444656c69766572656420696e2070726f677265737360581b60448201526064016102b3565b80156109315760405133904780156108fc02916000818181858888f19350505050158015610911573d6000803e3d6000fd5b50600b805460ff19169055601080546001600160a01b031916905561093f565b600b805460ff191660011790555b506000600a55565b6010546001600160a01b0316331461098e5760405162461bcd60e51b815260206004820152600a60248201526927b7363c90213abcb2b960b11b60448201526064016102b3565b610996610be6565b6109e25760405162461bcd60e51b815260206004820152601b60248201527f4e6f7420616c6c6f77656420746f2063616e63656c206f72646572000000000060448201526064016102b3565b601080546001600160a01b0319169055600b805460ff1916905560405133904780156108fc02916000818181858888f19350505050158015610a28573d6000803e3d6000fd5b5060405133907f393629f15e859a19530bab9675f9d39f0f57889f19f883bc5be3533c4a2c9ea890600090a2565b60408051808201909152600d81526c13995959081cda1a5c1b595b9d609a1b602082015260029081600b5460ff166004811115610a9557610a956118e4565b148190610ab55760405162461bcd60e51b81526004016102b39190611b2c565b506000610acc600854306309d99f6760e01b610f9d565b9050610b926040518060400160405280600a8152602001691d1c9858dada5b99d25960b21b815250600a6007018054610b0490611b3f565b80601f0160208091040260200160405190810160405280929190818152602001828054610b3090611b3f565b8015610b7d5780601f10610b5257610100808354040283529160200191610b7d565b820191906000526020600020905b815481529060010190602001808311610b6057829003601f168201915b505050505083610fc29092919063ffffffff16565b600754600654600091610bb2916001600160a01b03909116908490610fe0565b60405190915081907fb5e6e01e79f91267dc17b4e6314d5d4d03593d2ceee0fbb452b750bd70ea5af990600090a250505050565b600e54600954600091610bf891611c32565b431015801561065057506001600b5460ff166004811115610c1b57610c1b6118e4565b14905090565b600f546001600160a01b03163314610c4b5760405162461bcd60e51b81526004016102b390611aca565b8051610c5e90601390602084019061160c565b5050565b60408051808201909152601481527320b63932b0b23c903430bb32903090313abcb2b960611b602082015260009081600b5460ff166004811115610ca857610ca86118e4565b148190610cc85760405162461bcd60e51b81526004016102b39190611b2c565b50600f546001600160a01b0316331415610d245760405162461bcd60e51b815260206004820152601d60248201527f596f752063616e206e6f74206275792066726f6d20796f757273656c6600000060448201526064016102b3565b600d54341015610d685760405162461bcd60e51b815260206004820152600f60248201526e139bdd08195b9bdd59da08199d5b99608a1b60448201526064016102b3565b600b805460ff1916600117905560108054336001600160a01b03199091168117909155436009556040517fe4caeaef8e4f0c4880839ca47219351b38cf4116c082fd0baefc3008e4ba11a390600090a25050565b600a8054600b54600c54600d54600e54600f5460105460118054979860ff909716979596949593946001600160a01b03938416949390921692610dfe90611b3f565b80601f0160208091040260200160405190810160405280929190818152602001828054610e2a90611b3f565b8015610e775780601f10610e4c57610100808354040283529160200191610e77565b820191906000526020600020905b815481529060010190602001808311610e5a57829003601f168201915b505050505090806008018054610e8c90611b3f565b80601f0160208091040260200160405190810160405280929190818152602001828054610eb890611b3f565b8015610f055780601f10610eda57610100808354040283529160200191610f05565b820191906000526020600020905b815481529060010190602001808311610ee857829003601f168201915b505050505090806009018054610f1a90611b3f565b80601f0160208091040260200160405190810160405280929190818152602001828054610f4690611b3f565b8015610f935780601f10610f6857610100808354040283529160200191610f93565b820191906000526020600020905b815481529060010190602001808311610f7657829003601f168201915b505050505090508a565b610fa5611690565b610fad611690565b610fb981868686610fff565b95945050505050565b6080830151610fd1908361103c565b608083015161071a908261103c565b6000610ff784848460016320214ca360e11b611053565b949350505050565b611007611690565b611017856080015161010061125f565b50509183526001600160a01b031660208301526001600160e01b031916604082015290565b61104982600383516112ca565b61071a828261139e565b6004546040516bffffffffffffffffffffffff193060601b166020820152603481019190915260009060540160408051808303601f19018152918152815160209283012060045460608901526000818152600590935281832080546001600160a01b0319166001600160a01b038b16179055905190925082917fb5e6e01e79f91267dc17b4e6314d5d4d03593d2ceee0fbb452b750bd70ea5af991a2600082600080886000015189602001518a604001518b606001518a8d608001516000015160405160240161112a989796959493929190611c4a565b60408051601f198184030181529181526020820180516001600160e01b03166001600160e01b0319909416939093179092526002549151630200057560e51b81529092506001600160a01b0390911690634000aea090611192908a9089908690600401611cb2565b602060405180830381600087803b1580156111ac57600080fd5b505af11580156111c0573d6000803e3d6000fd5b505050506040513d601f19601f820116820180604052508101906111e49190611aad565b61123c5760405162461bcd60e51b815260206004820152602360248201527f756e61626c6520746f207472616e73666572416e6443616c6c20746f206f7261604482015262636c6560e81b60648201526084016102b3565b60016004600082825461124f9190611c32565b9091555091979650505050505050565b60408051808201909152606081526000602082015261127f602083611cd9565b156112a75761128f602083611cd9565b61129a906020611cfb565b6112a49083611c32565b91505b506020808301829052604080518085526000815283019091019052815b92915050565b601781116112eb576112e58360e0600585901b1683176113cc565b50505050565b60ff811161131557611308836018611fe0600586901b16176113cc565b506112e5838260016113f1565b61ffff811161134057611333836019611fe0600586901b16176113cc565b506112e5838260026113f1565b63ffffffff811161136d5761136083601a611fe0600586901b16176113cc565b506112e5838260046113f1565b67ffffffffffffffff811161071a5761139183601b611fe0600586901b16176113cc565b506112e5838260086113f1565b6040805180820190915260608152600060208201526113c583846000015151848551611417565b9392505050565b6040805180820190915260608152600060208201526113c58384600001515184611501565b604080518082019091526060815260006020820152610ff784856000015151858561155d565b604080518082019091526060815260006020820152825182111561143a57600080fd5b60208501516114498386611c32565b111561147c5761147c8561146c876020015187866114679190611c32565b6115de565b611477906002611d12565b6115f5565b60008086518051876020830101935080888701111561149b5787860182525b505050602084015b602084106114db57805182526114ba602083611c32565b91506114c7602082611c32565b90506114d4602085611cfb565b93506114a3565b51815160001960208690036101000a019081169019919091161790525083949350505050565b604080518082019091526060815260006020820152836020015183106115365761153684856020015160026114779190611d12565b835180516020858301018481535080851415611553576001810182525b5093949350505050565b60408051808201909152606081526000602082015260208501516115818584611c32565b1115611595576115958561146c8685611c32565b600060016115a584610100611e15565b6115af9190611cfb565b90508551838682010185831982511617815250805184870111156115d35783860181525b509495945050505050565b6000818311156115ef5750816112c4565b50919050565b8151611601838361125f565b506112e5838261139e565b82805461161890611b3f565b90600052602060002090601f01602090048101928261163a5760008555611680565b82601f1061165357805160ff1916838001178555611680565b82800160010185558215611680579182015b82811115611680578251825591602001919060010190611665565b5061168c9291506116cb565b5090565b6040805160a0810182526000808252602080830182905282840182905260608084018390528451808601909552845283015290608082015290565b5b8082111561168c57600081556001016116cc565b600080604083850312156116f357600080fd5b50508035926020909101359150565b634e487b7160e01b600052604160045260246000fd5b604051601f8201601f1916810167ffffffffffffffff8111828210171561174157611741611702565b604052919050565b600067ffffffffffffffff82111561176357611763611702565b50601f01601f191660200190565b600082601f83011261178257600080fd5b813561179561179082611749565b611718565b8181528460208386010111156117aa57600080fd5b816020850160208301376000918101602001919091529392505050565b80356001600160a01b03811681146117de57600080fd5b919050565b60008060008060008060008060006101208a8c03121561180257600080fd5b893567ffffffffffffffff81111561181957600080fd5b6118258c828d01611771565b99505060208a0135975061183b60408b016117c7565b965061184960608b016117c7565b955061185760808b016117c7565b989b979a50959894979660a0860135965060c08601359560e0810135955061010001359350915050565b60006020828403121561189357600080fd5b813567ffffffffffffffff8111156118aa57600080fd5b610ff784828501611771565b80151581146118c457600080fd5b50565b6000602082840312156118d957600080fd5b81356113c5816118b6565b634e487b7160e01b600052602160045260246000fd5b60005b838110156119155781810151838201526020016118fd565b838111156112e55750506000910152565b6000815180845261193e8160208601602086016118fa565b601f01601f19169290920160200192915050565b60006101408c835260058c1061197857634e487b7160e01b600052602160045260246000fd5b8b60208401528a60408401528960608401528860808401526119a560a08401896001600160a01b03169052565b6001600160a01b03871660c08401528060e08401526119c681840187611926565b90508281036101008401526119db8186611926565b90508281036101208401526119f08185611926565b9d9c50505050505050505050505050565b600060208284031215611a1357600080fd5b815167ffffffffffffffff811115611a2a57600080fd5b8201601f81018413611a3b57600080fd5b8051611a4961179082611749565b818152856020838501011115611a5e57600080fd5b610fb98260208301602086016118fa565b604081526000611a826040830184611926565b8281036020840152600981526811195b1a5d995c995960ba1b60208201526040810191505092915050565b600060208284031215611abf57600080fd5b81516113c5816118b6565b6020808252600a908201526927b7363c9027bbb732b960b11b604082015260600190565b604081526000611b016040830184611926565b8281036020840152600981526822bc31b2b83a34b7b760b91b60208201526040810191505092915050565b6020815260006113c56020830184611926565b600181811c90821680611b5357607f821691505b602082108114156115ef57634e487b7160e01b600052602260045260246000fd5b600060208083526000845481600182811c915080831680611b9657607f831692505b858310811415611bb457634e487b7160e01b85526022600452602485fd5b878601838152602001818015611bd15760018114611be257611c0d565b60ff19861682528782019650611c0d565b60008b81526020902060005b86811015611c0757815484820152908501908901611bee565b83019750505b50949998505050505050505050565b634e487b7160e01b600052601160045260246000fd5b60008219821115611c4557611c45611c1c565b500190565b6001600160a01b0389811682526020820189905260408201889052861660608201526001600160e01b03198516608082015260a0810184905260c0810183905261010060e08201819052600090611ca383820185611926565b9b9a5050505050505050505050565b60018060a01b0384168152826020820152606060408201526000610fb96060830184611926565b600082611cf657634e487b7160e01b600052601260045260246000fd5b500690565b600082821015611d0d57611d0d611c1c565b500390565b6000816000190483118215151615611d2c57611d2c611c1c565b500290565b600181815b80851115611d6c578160001904821115611d5257611d52611c1c565b80851615611d5f57918102915b93841c9390800290611d36565b509250929050565b600082611d83575060016112c4565b81611d90575060006112c4565b8160018114611da65760028114611db057611dcc565b60019150506112c4565b60ff841115611dc157611dc1611c1c565b50506001821b6112c4565b5060208310610133831016604e8410600b8410161715611def575081810a6112c4565b611df98383611d31565b8060001904821115611e0d57611e0d611c1c565b029392505050565b60006113c58383611d7456fea26469706673582212203005e6abb51123840acc05d7af4b38724e172c3db894458d0b8304ea3b1d862664736f6c63430008090033",
  "bytecodeSha1": "4f38ce99a1d3000601c63a70788dc57e4cb1d030",
  "compiler": {
    "evm_version": "istanbul",
    "optimizer": {
      "enabled": true,
      "runs": 200
    },
    "version": "0.8.9+commit.e5eed63a"
  },
  "contractName": "Escrow",
  "deployedBytecode": "6080604052600436106100c25760003560e01c80636a8165481161007f578063959c1ea811610059578063959c1ea8146101c7578063bf15071d146101e7578063bf9ce952146101ef578063e12ed13c1461021a57600080fd5b80636a816548146101885780636b827cd41461019d57806374774750146101b257600080fd5b806309d99f67146100c757806316833f31146100e95780631820e56d14610109578063366e8e5214610133578063507370551461014857806359686c9f14610168575b600080fd5b3480156100d357600080fd5b506100e76100e23660046116e0565b61023e565b005b3480156100f557600080fd5b506100e76101043660046117e3565b61045d565b34801561011557600080fd5b5061011e61051c565b60405190151581526020015b60405180910390f35b34801561013f57600080fd5b506100e7610655565b34801561015457600080fd5b506100e7610163366004611881565b61071f565b34801561017457600080fd5b506100e76101833660046118c7565b61084c565b34801561019457600080fd5b506100e7610947565b3480156101a957600080fd5b506100e7610a56565b3480156101be57600080fd5b5061011e610be6565b3480156101d357600080fd5b506100e76101e2366004611881565b610c21565b6100e7610c62565b3480156101fb57600080fd5b50610204610dbc565b60405161012a9a99989796959493929190611952565b34801561022657600080fd5b5061023060095481565b60405190815260200161012a565b60008281526005602052604090205482906001600160a01b031633146102bc5760405162461bcd60e51b815260206004820152602860248201527f536f75726365206d75737420626520746865206f7261636c65206f6620746865604482015267081c995c5d595cdd60c21b60648201526084015b60405180910390fd5b60008181526005602052604080822080546001600160a01b03191690555182917f7cc135e0cebb02c3480ae5d74d377283180a2601f8f644edf7987b009316c63a91a2600a829055604051639201de5560e01b81526004810183905273__$aadc688bcea560502e0213413fe0dcbaa2$__90639201de559060240160006040518083038186803b15801561034f57600080fd5b505af4158015610363573d6000803e3d6000fd5b505050506040513d6000823e601f3d908101601f1916820160405261038b9190810190611a01565b604051635f69a5dd60e11b815273__$aadc688bcea560502e0213413fe0dcbaa2$__9163bed34bba916103c19190600401611a6f565b60206040518083038186803b1580156103d957600080fd5b505af41580156103ed573d6000803e3d6000fd5b505050506040513d601f19601f820116820180604052508101906104119190611aad565b1561042457600b805460ff191660031790555b6040518281527f65fb20badd0fcfd3bf3ba0ca9bfe4ec522640041a07decd17f1be1fb0ead4f4a906020015b60405180910390a1505050565b600f546001600160a01b031633146104875760405162461bcd60e51b81526004016102b390611aca565b600280546001600160a01b0319166001600160a01b038916179055600780546001600160a01b0319166001600160a01b03881617905560088890556006819055600c849055600e82905588516104e49060129060208c019061160c565b5050600b805460ff1916905550600f80546001600160a01b0319166001600160a01b03949094169390931790925550600d5550505050565b60006002600b5460ff166004811115610537576105376118e4565b1480156106505750600a54604051639201de5560e01b8152600481019190915273__$aadc688bcea560502e0213413fe0dcbaa2$__90639201de559060240160006040518083038186803b15801561058e57600080fd5b505af41580156105a2573d6000803e3d6000fd5b505050506040513d6000823e601f3d908101601f191682016040526105ca9190810190611a01565b604051635f69a5dd60e11b815273__$aadc688bcea560502e0213413fe0dcbaa2$__9163bed34bba916106009190600401611aee565b60206040518083038186803b15801561061857600080fd5b505af415801561062c573d6000803e3d6000fd5b505050506040513d601f19601f820116820180604052508101906106509190611aad565b905090565b600f546001600160a01b0316331461067f5760405162461bcd60e51b81526004016102b390611aca565b60408051808201909152600d81526c496e76616c696420537461676560981b602082015260039081600b5460ff1660048111156106be576106be6118e4565b1481906106de5760405162461bcd60e51b81526004016102b39190611b2c565b50600b8054600460ff1990911617905560405133904780156108fc02916000818181858888f1935050505015801561071a573d6000803e3d6000fd5b505050565b600f546001600160a01b031633146107495760405162461bcd60e51b81526004016102b390611aca565b60408051808201909152600d81526c496e76616c696420537461676560981b602082015260019081600b5460ff166004811115610788576107886118e4565b1481906107a85760405162461bcd60e51b81526004016102b39190611b2c565b5060008351116107fa5760405162461bcd60e51b815260206004820152601960248201527f747261636b696e674964206d757374206e6f7420656d7074790000000000000060448201526064016102b3565b600b805460ff19166002179055825161081a90601190602086019061160c565b506040517f1862cf7a0e12bac162f518f43c2f50df187e89045899a7c015c1d61d9880a11b9061045090601190611b74565b6010546001600160a01b031633146108935760405162461bcd60e51b815260206004820152600a60248201526927b7363c90213abcb2b960b11b60448201526064016102b3565b61089b61051c565b6108df5760405162461bcd60e51b815260206004820152601560248201527444656c69766572656420696e2070726f677265737360581b60448201526064016102b3565b80156109315760405133904780156108fc02916000818181858888f19350505050158015610911573d6000803e3d6000fd5b50600b805460ff19169055601080546001600160a01b031916905561093f565b600b805460ff191660011790555b506000600a55565b6010546001600160a01b0316331461098e5760405162461bcd60e51b815260206004820152600a60248201526927b7363c90213abcb2b960b11b60448201526064016102b3565b610996610be6565b6109e25760405162461bcd60e51b815260206004820152601b60248201527f4e6f7420616c6c6f77656420746f2063616e63656c206f72646572000000000060448201526064016102b3565b601080546001600160a01b0319169055600b805460ff1916905560405133904780156108fc02916000818181858888f19350505050158015610a28573d6000803e3d6000fd5b5060405133907f393629f15e859a19530bab9675f9d39f0f57889f19f883bc5be3533c4a2c9ea890600090a2565b60408051808201909152600d81526c13995959081cda1a5c1b595b9d609a1b602082015260029081600b5460ff166004811115610a9557610a956118e4565b148190610ab55760405162461bcd60e51b81526004016102b39190611b2c565b506000610acc600854306309d99f6760e01b610f9d565b9050610b926040518060400160405280600a8152602001691d1c9858dada5b99d25960b21b815250600a6007018054610b0490611b3f565b80601f0160208091040260200160405190810160405280929190818152602001828054610b3090611b3f565b8015610b7d5780601f10610b5257610100808354040283529160200191610b7d565b820191906000526020600020905b815481529060010190602001808311610b6057829003601f168201915b505050505083610fc29092919063ffffffff16565b600754600654600091610bb2916001600160a01b03909116908490610fe0565b60405190915081907fb5e6e01e79f91267dc17b4e6314d5d4d03593d2ceee0fbb452b750bd70ea5af990600090a250505050565b600e54600954600091610bf891611c32565b431015801561065057506001600b5460ff166004811115610c1b57610c1b6118e4565b14905090565b600f546001600160a01b03163314610c4b5760405162461bcd60e51b81526004016102b390611aca565b8051610c5e90601390602084019061160c565b5050565b60408051808201909152601481527320b63932b0b23c903430bb32903090313abcb2b960611b602082015260009081600b5460ff166004811115610ca857610ca86118e4565b148190610cc85760405162461bcd60e51b81526004016102b39190611b2c565b50600f546001600160a01b0316331415610d245760405162461bcd60e51b815260206004820152601d60248201527f596f752063616e206e6f74206275792066726f6d20796f757273656c6600000060448201526064016102b3565b600d54341015610d685760405162461bcd60e51b815260206004820152600f60248201526e139bdd08195b9bdd59da08199d5b99608a1b60448201526064016102b3565b600b805460ff1916600117905560108054336001600160a01b03199091168117909155436009556040517fe4caeaef8e4f0c4880839ca47219351b38cf4116c082fd0baefc3008e4ba11a390600090a25050565b600a8054600b54600c54600d54600e54600f5460105460118054979860ff909716979596949593946001600160a01b03938416949390921692610dfe90611b3f565b80601f0160208091040260200160405190810160405280929190818152602001828054610e2a90611b3f565b8015610e775780601f10610e4c57610100808354040283529160200191610e77565b820191906000526020600020905b815481529060010190602001808311610e5a57829003601f168201915b505050505090806008018054610e8c90611b3f565b80601f0160208091040260200160405190810160405280929190818152602001828054610eb890611b3f565b8015610f055780601f10610eda57610100808354040283529160200191610f05565b820191906000526020600020905b815481529060010190602001808311610ee857829003601f168201915b505050505090806009018054610f1a90611b3f565b80601f0160208091040260200160405190810160405280929190818152602001828054610f4690611b3f565b8015610f935780601f10610f6857610100808354040283529160200191610f93565b820191906000526020600020905b815481529060010190602001808311610f7657829003601f168201915b505050505090508a565b610fa5611690565b610fad611690565b610fb981868686610fff565b95945050505050565b6080830151610fd1908361103c565b608083015161071a908261103c565b6000610ff784848460016320214ca360e11b611053565b949350505050565b611007611690565b611017856080015161010061125f565b50509183526001600160a01b031660208301526001600160e01b031916604082015290565b61104982600383516112ca565b61071a828261139e565b6004546040516bffffffffffffffffffffffff193060601b166020820152603481019190915260009060540160408051808303601f19018152918152815160209283012060045460608901526000818152600590935281832080546001600160a01b0319166001600160a01b038b16179055905190925082917fb5e6e01e79f91267dc17b4e6314d5d4d03593d2ceee0fbb452b750bd70ea5af991a2600082600080886000015189602001518a604001518b606001518a8d608001516000015160405160240161112a989796959493929190611c4a565b60408051601f198184030181529181526020820180516001600160e01b03166001600160e01b0319909416939093179092526002549151630200057560e51b81529092506001600160a01b0390911690634000aea090611192908a9089908690600401611cb2565b602060405180830381600087803b1580156111ac57600080fd5b505af11580156111c0573d6000803e3d6000fd5b505050506040513d601f19601f820116820180604052508101906111e49190611aad565b61123c5760405162461bcd60e51b815260206004820152602360248201527f756e61626c6520746f207472616e73666572416e6443616c6c20746f206f7261604482015262636c6560e81b60648201526084016102b3565b60016004600082825461124f9190611c32565b9091555091979650505050505050565b60408051808201909152606081526000602082015261127f602083611cd9565b156112a75761128f602083611cd9565b61129a906020611cfb565b6112a49083611c32565b91505b506020808301829052604080518085526000815283019091019052815b92915050565b601781116112eb576112e58360e0600585901b1683176113cc565b50505050565b60ff811161131557611308836018611fe0600586901b16176113cc565b506112e5838260016113f1565b61ffff811161134057611333836019611fe0600586901b16176113cc565b506112e5838260026113f1565b63ffffffff811161136d5761136083601a611fe0600586901b16176113cc565b506112e5838260046113f1565b67ffffffffffffffff811161071a5761139183601b611fe0600586901b16176113cc565b506112e5838260086113f1565b6040805180820190915260608152600060208201526113c583846000015151848551611417565b9392505050565b6040805180820190915260608152600060208201526113c58384600001515184611501565b604080518082019091526060815260006020820152610ff784856000015151858561155d565b604080518082019091526060815260006020820152825182111561143a57600080fd5b60208501516114498386611c32565b111561147c5761147c8561146c876020015187866114679190611c32565b6115de565b611477906002611d12565b6115f5565b60008086518051876020830101935080888701111561149b5787860182525b505050602084015b602084106114db57805182526114ba602083611c32565b91506114c7602082611c32565b90506114d4602085611cfb565b93506114a3565b51815160001960208690036101000a019081169019919091161790525083949350505050565b604080518082019091526060815260006020820152836020015183106115365761153684856020015160026114779190611d12565b835180516020858301018481535080851415611553576001810182525b5093949350505050565b60408051808201909152606081526000602082015260208501516115818584611c32565b1115611595576115958561146c8685611c32565b600060016115a584610100611e15565b6115af9190611cfb565b90508551838682010185831982511617815250805184870111156115d35783860181525b509495945050505050565b6000818311156115ef5750816112c4565b50919050565b8151611601838361125f565b506112e5838261139e565b82805461161890611b3f565b90600052602060002090601f01602090048101928261163a5760008555611680565b82601f1061165357805160ff1916838001178555611680565b82800160010185558215611680579182015b82811115611680578251825591602001919060010190611665565b5061168c9291506116cb565b5090565b6040805160a0810182526000808252602080830182905282840182905260608084018390528451808601909552845283015290608082015290565b5b8082111561168c57600081556001016116cc565b600080604083850312156116f357600080fd5b50508035926020909101359150565b634e487b7160e01b600052604160045260246000fd5b604051601f8201601f1916810167ffffffffffffffff8111828210171561174157611741611702565b604052919050565b600067ffffffffffffffff82111561176357611763611702565b50601f01601f191660200190565b600082601f83011261178257600080fd5b813561179561179082611749565b611718565b8181528460208386010111156117aa57600080fd5b816020850160208301376000918101602001919091529392505050565b80356001600160a01b03811681146117de57600080fd5b919050565b60008060008060008060008060006101208a8c03121561180257600080fd5b893567ffffffffffffffff81111561181957600080fd5b6118258c828d01611771565b99505060208a0135975061183b60408b016117c7565b965061184960608b016117c7565b955061185760808b016117c7565b989b979a50959894979660a0860135965060c08601359560e0810135955061010001359350915050565b60006020828403121561189357600080fd5b813567ffffffffffffffff8111156118aa57600080fd5b610ff784828501611771565b80151581146118c457600080fd5b50565b6000602082840312156118d957600080fd5b81356113c5816118b6565b634e487b7160e01b600052602160045260246000fd5b60005b838110156119155781810151838201526020016118fd565b838111156112e55750506000910152565b6000815180845261193e8160208601602086016118fa565b601f01601f19169290920160200192915050565b60006101408c835260058c1061197857634e487b7160e01b600052602160045260246000fd5b8b60208401528a60408401528960608401528860808401526119a560a08401896001600160a01b03169052565b6001600160a01b03871660c08401528060e08401526119c681840187611926565b90508281036101008401526119db8186611926565b90508281036101208401526119f08185611926565b9d9c50505050505050505050505050565b600060208284031215611a1357600080fd5b815167ffffffffffffffff811115611a2a57600080fd5b8201601f81018413611a3b57600080fd5b8051611a4961179082611749565b818152856020838501011115611a5e57600080fd5b610fb98260208301602086016118fa565b604081526000611a826040830184611926565b8281036020840152600981526811195b1a5d995c995960ba1b60208201526040810191505092915050565b600060208284031215611abf57600080fd5b81516113c5816118b6565b6020808252600a908201526927b7363c9027bbb732b960b11b604082015260600190565b604081526000611b016040830184611926565b8281036020840152600981526822bc31b2b83a34b7b760b91b60208201526040810191505092915050565b6020815260006113c56020830184611926565b600181811c90821680611b5357607f821691505b602082108114156115ef57634e487b7160e01b600052602260045260246000fd5b600060208083526000845481600182811c915080831680611b9657607f831692505b858310811415611bb457634e487b7160e01b85526022600452602485fd5b878601838152602001818015611bd15760018114611be257611c0d565b60ff19861682528782019650611c0d565b60008b81526020902060005b86811015611c0757815484820152908501908901611bee565b83019750505b50949998505050505050505050565b634e487b7160e01b600052601160045260246000fd5b60008219821115611c4557611c45611c1c565b500190565b6001600160a01b0389811682526020820189905260408201889052861660608201526001600160e01b03198516608082015260a0810184905260c0810183905261010060e08201819052600090611ca383820185611926565b9b9a5050505050505050505050565b60018060a01b0384168152826020820152606060408201526000610fb96060830184611926565b600082611cf657634e487b7160e01b600052601260045260246000fd5b500690565b600082821015611d0d57611d0d611c1c565b500390565b6000816000190483118215151615611d2c57611d2c611c1c565b500290565b600181815b80851115611d6c578160001904821115611d5257611d52611c1c565b80851615611d5f57918102915b93841c9390800290611d36565b509250929050565b600082611d83575060016112c4565b81611d90575060006112c4565b8160018114611da65760028114611db057611dcc565b60019150506112c4565b60ff841115611dc157611dc1611c1c565b50506001821b6112c4565b5060208310610133831016604e8410600b8410161715611def575081810a6112c4565b611df98383611d31565b8060001904821115611e0d57611e0d611c1c565b029392505050565b60006113c58383611d7456fea26469706673582212203005e6abb51123840acc05d7af4b38724e172c3db894458d0b8304ea3b1d862664736f6c63430008090033",
  "language": "Solidity",
  "natspec": {
    "kind": "dev",
    "methods": {},
    "version": 1
  },
  "opcodes": "PUSH1 0x80 PUSH1 0x40 MSTORE PUSH1 0x4 CALLDATASIZE LT PUSH2 0xC2 JUMPI PUSH1 0x0 CALLDATALOAD PUSH1 0xE0 SHR DUP1 PUSH4 0x6A816548 GT PUSH2 0x7F JUMPI DUP1 PUSH4 0x959C1EA8 GT PUSH2 0x59 JUMPI DUP1 PUSH4 0x959C1EA8 EQ PUSH2 0x1C7 JUMPI DUP1 PUSH4 0xBF15071D EQ PUSH2 0x1E7 JUMPI DUP1 PUSH4 0xBF9CE952 EQ PUSH2 0x1EF JUMPI DUP1 PUSH4 0xE12ED13C EQ PUSH2 0x21A JUMPI PUSH1 0x0 DUP1 REVERT JUMPDEST DUP1 PUSH4 0x6A816548 EQ PUSH2 0x188 JUMPI DUP1 PUSH4 0x6B827CD4 EQ PUSH2 0x19D JUMPI DUP1 PUSH4 0x74774750 EQ PUSH2 0x1B2 JUMPI PUSH1 0x0 DUP1 REVERT JUMPDEST DUP1 PUSH4 0x9D99F67 EQ PUSH2 0xC7 JUMPI DUP1 PUSH4 0x16833F31 EQ PUSH2 0xE9 JUMPI DUP1 PUSH4 0x1820E56D EQ PUSH2 0x109 JUMPI DUP1 PUSH4 0x366E8E52 EQ PUSH2 0x133 JUMPI DUP1 PUSH4 0x50737055 EQ PUSH2 0x148 JUMPI DUP1 PUSH4 0x59686C9F EQ PUSH2 0x168 JUMPI JUMPDEST PUSH1 0x0 DUP1 REVERT JUMPDEST CALLVALUE DUP1 ISZERO PUSH2 0xD3 JUMPI PUSH1 0x0 DUP1 REVERT JUMPDEST POP PUSH2 0xE7 PUSH2 0xE2 CALLDATASIZE PUSH1 0x4 PUSH2 0x16E0 JUMP JUMPDEST PUSH2 0x23E JUMP JUMPDEST STOP JUMPDEST CALLVALUE DUP1 ISZERO PUSH2 0xF5 JUMPI PUSH1 0x0 DUP1 REVERT JUMPDEST POP PUSH2 0xE7 PUSH2 0x104 CALLDATASIZE PUSH1 0x4 PUSH2 0x17E3 JUMP JUMPDEST PUSH2 0x45D JUMP JUMPDEST CALLVALUE DUP1 ISZERO PUSH2 0x115 JUMPI PUSH1 0x0 DUP1 REVERT JUMPDEST POP PUSH2 0x11E PUSH2 0x51C JUMP JUMPDEST PUSH1 0x40 MLOAD SWAP1 ISZERO ISZERO DUP2 MSTORE PUSH1 0x20 ADD JUMPDEST PUSH1 0x40 MLOAD DUP1 SWAP2 SUB SWAP1 RETURN JUMPDEST CALLVALUE DUP1 ISZERO PUSH2 0x13F JUMPI PUSH1 0x0 DUP1 REVERT JUMPDEST POP PUSH2 0xE7 PUSH2 0x655 JUMP JUMPDEST CALLVALUE DUP1 ISZERO PUSH2 0x154 JUMPI PUSH1 0x0 DUP1 REVERT JUMPDEST POP PUSH2 0xE7 PUSH2 0x163 CALLDATASIZE PUSH1 0x4 PUSH2 0x1881 JUMP JUMPDEST PUSH2 0x71F JUMP JUMPDEST CALLVALUE DUP1 ISZERO PUSH2 0x174 JUMPI PUSH1 0x0 DUP1 REVERT JUMPDEST POP PUSH2 0xE7 PUSH2 0x183 CALLDATASIZE PUSH1 0x4 PUSH2 0x18C7 JUMP JUMPDEST PUSH2 0x84C JUMP JUMPDEST CALLVALUE DUP1 ISZERO PUSH2 0x194 JUMPI PUSH1 0x0 DUP1 REVERT JUMPDEST POP PUSH2 0xE7 PUSH2 0x947 JUMP JUMPDEST CALLVALUE DUP1 ISZERO PUSH2 0x1A9 JUMPI PUSH1 0x0 DUP1 REVERT JUMPDEST POP PUSH2 0xE7 PUSH2 0xA56 JUMP JUMPDEST CALLVALUE DUP1 ISZERO PUSH2 0x1BE JUMPI PUSH1 0x0 DUP1 REVERT JUMPDEST POP PUSH2 0x11E PUSH2 0xBE6 JUMP JUMPDEST CALLVALUE DUP1 ISZERO PUSH2 0x1D3 JUMPI PUSH1 0x0 DUP1 REVERT JUMPDEST POP PUSH2 0xE7 PUSH2 0x1E2 CALLDATASIZE PUSH1 0x4 PUSH2 0x1881 JUMP JUMPDEST PUSH2 0xC21 JUMP JUMPDEST PUSH2 0xE7 PUSH2 0xC62 JUMP JUMPDEST CALLVALUE DUP1 ISZERO PUSH2 0x1FB JUMPI PUSH1 0x0 DUP1 REVERT JUMPDEST POP PUSH2 0x204 PUSH2 0xDBC JUMP JUMPDEST PUSH1 0x40 MLOAD PUSH2 0x12A SWAP11 SWAP10 SWAP9 SWAP8 SWAP7 SWAP6 SWAP5 SWAP4 SWAP3 SWAP2 SWAP1 PUSH2 0x1952 JUMP JUMPDEST CALLVALUE DUP1 ISZERO PUSH2 0x226 JUMPI PUSH1 0x0 DUP1 REVERT JUMPDEST POP PUSH2 0x230 PUSH1 0x9 SLOAD DUP2 JUMP JUMPDEST PUSH1 0x40 MLOAD SWAP1 DUP2 MSTORE PUSH1 0x20 ADD PUSH2 0x12A JUMP JUMPDEST PUSH1 0x0 DUP3 DUP2 MSTORE PUSH1 0x5 PUSH1 0x20 MSTORE PUSH1 0x40 SWAP1 KECCAK256 SLOAD DUP3 SWAP1 PUSH1 0x1 PUSH1 0x1 PUSH1 0xA0 SHL SUB AND CALLER EQ PUSH2 0x2BC JUMPI PUSH1 0x40 MLOAD PUSH3 0x461BCD PUSH1 0xE5 SHL DUP2 MSTORE PUSH1 0x20 PUSH1 0x4 DUP3 ADD MSTORE PUSH1 0x28 PUSH1 0x24 DUP3 ADD MSTORE PUSH32 0x536F75726365206D75737420626520746865206F7261636C65206F6620746865 PUSH1 0x44 DUP3 ADD MSTORE PUSH8 0x81C995C5D595CDD PUSH1 0xC2 SHL PUSH1 0x64 DUP3 ADD MSTORE PUSH1 0x84 ADD JUMPDEST PUSH1 0x40 MLOAD DUP1 SWAP2 SUB SWAP1 REVERT JUMPDEST PUSH1 0x0 DUP2 DUP2 MSTORE PUSH1 0x5 PUSH1 0x20 MSTORE PUSH1 0x40 DUP1 DUP3 KECCAK256 DUP1 SLOAD PUSH1 0x1 PUSH1 0x1 PUSH1 0xA0 SHL SUB NOT AND SWAP1 SSTORE MLOAD DUP3 SWAP2 PUSH32 0x7CC135E0CEBB02C3480AE5D74D377283180A2601F8F644EDF7987B009316C63A SWAP2 LOG2 PUSH1 0xA DUP3 SWAP1 SSTORE PUSH1 0x40 MLOAD PUSH4 0x9201DE55 PUSH1 0xE0 SHL DUP2 MSTORE PUSH1 0x4 DUP2 ADD DUP4 SWAP1 MSTORE PUSH20 0x0 SWAP1 PUSH4 0x9201DE55 SWAP1 PUSH1 0x24 ADD PUSH1 0x0 PUSH1 0x40 MLOAD DUP1 DUP4 SUB DUP2 DUP7 DUP1 EXTCODESIZE ISZERO DUP1 ISZERO PUSH2 0x34F JUMPI PUSH1 0x0 DUP1 REVERT JUMPDEST POP GAS DELEGATECALL ISZERO DUP1 ISZERO PUSH2 0x363 JUMPI RETURNDATASIZE PUSH1 0x0 DUP1 RETURNDATACOPY RETURNDATASIZE PUSH1 0x0 REVERT JUMPDEST POP POP POP POP PUSH1 0x40 MLOAD RETURNDATASIZE PUSH1 0x0 DUP3 RETURNDATACOPY PUSH1 0x1F RETURNDATASIZE SWAP1 DUP2 ADD PUSH1 0x1F NOT AND DUP3 ADD PUSH1 0x40 MSTORE PUSH2 0x38B SWAP2 SWAP1 DUP2 ADD SWAP1 PUSH2 0x1A01 JUMP JUMPDEST PUSH1 0x40 MLOAD PUSH4 0x5F69A5DD PUSH1 0xE1 SHL DUP2 MSTORE PUSH20 0x0 SWAP2 PUSH4 0xBED34BBA SWAP2 PUSH2 0x3C1 SWAP2 SWAP1 PUSH1 0x4 ADD PUSH2 0x1A6F JUMP JUMPDEST PUSH1 0x20 PUSH1 0x40 MLOAD DUP1 DUP4 SUB DUP2 DUP7 DUP1 EXTCODESIZE ISZERO DUP1 ISZERO PUSH2 0x3D9 JUMPI PUSH1 0x0 DUP1 REVERT JUMPDEST POP GAS DELEGATECALL ISZERO DUP1 ISZERO PUSH2 0x3ED JUMPI RETURNDATASIZE PUSH1 0x0 DUP1 RETURNDATACOPY RETURNDATASIZE PUSH1 0x0 REVERT JUMPDEST POP POP POP POP PUSH1 0x40 MLOAD RETURNDATASIZE PUSH1 0x1F NOT PUSH1 0x1F DUP3 ADD AND DUP3 ADD DUP1 PUSH1 0x40 MSTORE POP DUP2 ADD SWAP1 PUSH2 0x411 SWAP2 SWAP1 PUSH2 0x1AAD JUMP JUMPDEST ISZERO PUSH2 0x424 JUMPI PUSH1 0xB DUP1 SLOAD PUSH1 0xFF NOT AND PUSH1 0x3 OR SWAP1 SSTORE JUMPDEST PUSH1 0x40 MLOAD DUP3 DUP2 MSTORE PUSH32 0x65FB20BADD0FCFD3BF3BA0CA9BFE4EC522640041A07DECD17F1BE1FB0EAD4F4A SWAP1 PUSH1 0x20 ADD JUMPDEST PUSH1 0x40 MLOAD DUP1 SWAP2 SUB SWAP1 LOG1 POP POP POP JUMP JUMPDEST PUSH1 0xF SLOAD PUSH1 0x1 PUSH1 0x1 PUSH1 0xA0 SHL SUB AND CALLER EQ PUSH2 0x487 JUMPI PUSH1 0x40 MLOAD PUSH3 0x461BCD PUSH1 0xE5 SHL DUP2 MSTORE PUSH1 0x4 ADD PUSH2 0x2B3 SWAP1 PUSH2 0x1ACA JUMP JUMPDEST PUSH1 0x2 DUP1 SLOAD PUSH1 0x1 PUSH1 0x1 PUSH1 0xA0 SHL SUB NOT AND PUSH1 0x1 PUSH1 0x1 PUSH1 0xA0 SHL SUB DUP10 AND OR SWAP1 SSTORE PUSH1 0x7 DUP1 SLOAD PUSH1 0x1 PUSH1 0x1 PUSH1 0xA0 SHL SUB NOT AND PUSH1 0x1 PUSH1 0x1 PUSH1 0xA0 SHL SUB DUP9 AND OR SWAP1 SSTORE PUSH1 0x8 DUP9 SWAP1 SSTORE PUSH1 0x6 DUP2 SWAP1 SSTORE PUSH1 0xC DUP5 SWAP1 SSTORE PUSH1 0xE DUP3 SWAP1 SSTORE DUP9 MLOAD PUSH2 0x4E4 SWAP1 PUSH1 0x12 SWAP1 PUSH1 0x20 DUP13 ADD SWAP1 PUSH2 0x160C JUMP JUMPDEST POP POP PUSH1 0xB DUP1 SLOAD PUSH1 0xFF NOT AND SWAP1 SSTORE POP PUSH1 0xF DUP1 SLOAD PUSH1 0x1 PUSH1 0x1 PUSH1 0xA0 SHL SUB NOT AND PUSH1 0x1 PUSH1 0x1 PUSH1 0xA0 SHL SUB SWAP5 SWAP1 SWAP5 AND SWAP4 SWAP1 SWAP4 OR SWAP1 SWAP3 SSTORE POP PUSH1 0xD SSTORE POP POP POP POP JUMP JUMPDEST PUSH1 0x0 PUSH1 0x2 PUSH1 0xB SLOAD PUSH1 0xFF AND PUSH1 0x4 DUP2 GT ISZERO PUSH2 0x537 JUMPI PUSH2 0x537 PUSH2 0x18E4 JUMP JUMPDEST EQ DUP1 ISZERO PUSH2 0x650 JUMPI POP PUSH1 0xA SLOAD PUSH1 0x40 MLOAD PUSH4 0x9201DE55 PUSH1 0xE0 SHL DUP2 MSTORE PUSH1 0x4 DUP2 ADD SWAP2 SWAP1 SWAP2 MSTORE PUSH20 0x0 SWAP1 PUSH4 0x9201DE55 SWAP1 PUSH1 0x24 ADD PUSH1 0x0 PUSH1 0x40 MLOAD DUP1 DUP4 SUB DUP2 DUP7 DUP1 EXTCODESIZE ISZERO DUP1 ISZERO PUSH2 0x58E JUMPI PUSH1 0x0 DUP1 REVERT JUMPDEST POP GAS DELEGATECALL ISZERO DUP1 ISZERO PUSH2 0x5A2 JUMPI RETURNDATASIZE PUSH1 0x0 DUP1 RETURNDATACOPY RETURNDATASIZE PUSH1 0x0 REVERT JUMPDEST POP POP POP POP PUSH1 0x40 MLOAD RETURNDATASIZE PUSH1 0x0 DUP3 RETURNDATACOPY PUSH1 0x1F RETURNDATASIZE SWAP1 DUP2 ADD PUSH1 0x1F NOT AND DUP3 ADD PUSH1 0x40 MSTORE PUSH2 0x5CA SWAP2 SWAP1 DUP2 ADD SWAP1 PUSH2 0x1A01 JUMP JUMPDEST PUSH1 0x40 MLOAD PUSH4 0x5F69A5DD PUSH1 0xE1 SHL DUP2 MSTORE PUSH20 0x0 SWAP2 PUSH4 0xBED34BBA SWAP2 PUSH2 0x600 SWAP2 SWAP1 PUSH1 0x4 ADD PUSH2 0x1AEE JUMP JUMPDEST PUSH1 0x20 PUSH1 0x40 MLOAD DUP1 DUP4 SUB DUP2 DUP7 DUP1 EXTCODESIZE ISZERO DUP1 ISZERO PUSH2 0x618 JUMPI PUSH1 0x0 DUP1 REVERT JUMPDEST POP GAS DELEGATECALL ISZERO DUP1 ISZERO PUSH2 0x62C JUMPI RETURNDATASIZE PUSH1 0x0 DUP1 RETURNDATACOPY RETURNDATASIZE PUSH1 0x0 REVERT JUMPDEST POP POP POP POP PUSH1 0x40 MLOAD RETURNDATASIZE PUSH1 0x1F NOT PUSH1 0x1F DUP3 ADD AND DUP3 ADD DUP1 PUSH1 0x40 MSTORE POP DUP2 ADD SWAP1 PUSH2 0x650 SWAP2 SWAP1 PUSH2 0x1AAD JUMP JUMPDEST SWAP1 POP SWAP1 JUMP JUMPDEST PUSH1 0xF SLOAD PUSH1 0x1 PUSH1 0x1 PUSH1 0xA0 SHL SUB AND CALLER EQ PUSH2 0x67F JUMPI PUSH1 0x40 MLOAD PUSH3 0x461BCD PUSH1 0xE5 SHL DUP2 MSTORE PUSH1 0x4 ADD PUSH2 0x2B3 SWAP1 PUSH2 0x1ACA JUMP JUMPDEST PUSH1 0x40 DUP1 MLOAD DUP1 DUP3 ADD SWAP1 SWAP2 MSTORE PUSH1 0xD DUP2 MSTORE PUSH13 0x496E76616C6964205374616765 PUSH1 0x98 SHL PUSH1 0x20 DUP3 ADD MSTORE PUSH1 0x3 SWAP1 DUP2 PUSH1 0xB SLOAD PUSH1 0xFF AND PUSH1 0x4 DUP2 GT ISZERO PUSH2 0x6BE JUMPI PUSH2 0x6BE PUSH2 0x18E4 JUMP JUMPDEST EQ DUP2 SWAP1 PUSH2 0x6DE JUMPI PUSH1 0x40 MLOAD PUSH3 0x461BCD PUSH1 0xE5 SHL DUP2 MSTORE PUSH1 0x4 ADD PUSH2 0x2B3 SWAP2 SWAP1 PUSH2 0x1B2C JUMP JUMPDEST POP PUSH1 0xB DUP1 SLOAD PUSH1 0x4 PUSH1 0xFF NOT SWAP1 SWAP2 AND OR SWAP1 SSTORE PUSH1 0x40 MLOAD CALLER SWAP1 SELFBALANCE DUP1 ISZERO PUSH2 0x8FC MUL SWAP2 PUSH1 0x0 DUP2 DUP2 DUP2 DUP6 DUP9 DUP9 CALL SWAP4 POP POP POP POP ISZERO DUP1 ISZERO PUSH2 0x71A JUMPI RETURNDATASIZE PUSH1 0x0 DUP1 RETURNDATACOPY RETURNDATASIZE PUSH1 0x0 REVERT JUMPDEST POP POP POP JUMP JUMPDEST PUSH1 0xF SLOAD PUSH1 0x1 PUSH1 0x1 PUSH1 0xA0 SHL SUB AND CALLER EQ PUSH2 0x749 JUMPI PUSH1 0x40 MLOAD PUSH3 0x461BCD PUSH1 0xE5 SHL DUP2 MSTORE PUSH1 0x4 ADD PUSH2 0x2B3 SWAP1 PUSH2 0x1ACA JUMP JUMPDEST PUSH1 0x40 DUP1 MLOAD DUP1 DUP3 ADD SWAP1 SWAP2 MSTORE PUSH1 0xD DUP2 MSTORE PUSH13 0x496E76616C6964205374616765 PUSH1 0x98 SHL PUSH1 0x20 DUP3 ADD MSTORE PUSH1 0x1 SWAP1 DUP2 PUSH1 0xB SLOAD PUSH1 0xFF AND PUSH1 0x4 DUP2 GT ISZERO PUSH2 0x788 JUMPI PUSH2 0x788 PUSH2 0x18E4 JUMP JUMPDEST EQ DUP2 SWAP1 PUSH2 0x7A8 JUMPI PUSH1 0x40 MLOAD PUSH3 0x461BCD PUSH1 0xE5 SHL DUP2 MSTORE PUSH1 0x4 ADD PUSH2 0x2B3 SWAP2 SWAP1 PUSH2 0x1B2C JUMP JUMPDEST POP PUSH1 0x0 DUP4 MLOAD GT PUSH2 0x7FA JUMPI PUSH1 0x40 MLOAD PUSH3 0x461BCD PUSH1 0xE5 SHL DUP2 MSTORE PUSH1 0x20 PUSH1 0x4 DUP3 ADD MSTORE PUSH1 0x19 PUSH1 0x24 DUP3 ADD MSTORE PUSH32 0x747261636B696E674964206D757374206E6F7420656D70747900000000000000 PUSH1 0x44 DUP3 ADD MSTORE PUSH1 0x64 ADD PUSH2 0x2B3 JUMP JUMPDEST PUSH1 0xB DUP1 SLOAD PUSH1 0xFF NOT AND PUSH1 0x2 OR SWAP1 SSTORE DUP3 MLOAD PUSH2 0x81A SWAP1 PUSH1 0x11 SWAP1 PUSH1 0x20 DUP7 ADD SWAP1 PUSH2 0x160C JUMP JUMPDEST POP PUSH1 0x40 MLOAD PUSH32 0x1862CF7A0E12BAC162F518F43C2F50DF187E89045899A7C015C1D61D9880A11B SWAP1 PUSH2 0x450 SWAP1 PUSH1 0x11 SWAP1 PUSH2 0x1B74 JUMP JUMPDEST PUSH1 0x10 SLOAD PUSH1 0x1 PUSH1 0x1 PUSH1 0xA0 SHL SUB AND CALLER EQ PUSH2 0x893 JUMPI PUSH1 0x40 MLOAD PUSH3 0x461BCD PUSH1 0xE5 SHL DUP2 MSTORE PUSH1 0x20 PUSH1 0x4 DUP3 ADD MSTORE PUSH1 0xA PUSH1 0x24 DUP3 ADD MSTORE PUSH10 0x27B7363C90213ABCB2B9 PUSH1 0xB1 SHL PUSH1 0x44 DUP3 ADD MSTORE PUSH1 0x64 ADD PUSH2 0x2B3 JUMP JUMPDEST PUSH2 0x89B PUSH2 0x51C JUMP JUMPDEST PUSH2 0x8DF JUMPI PUSH1 0x40 MLOAD PUSH3 0x461BCD PUSH1 0xE5 SHL DUP2 MSTORE PUSH1 0x20 PUSH1 0x4 DUP3 ADD MSTORE PUSH1 0x15 PUSH1 0x24 DUP3 ADD MSTORE PUSH21 0x44656C69766572656420696E2070726F6772657373 PUSH1 0x58 SHL PUSH1 0x44 DUP3 ADD MSTORE PUSH1 0x64 ADD PUSH2 0x2B3 JUMP JUMPDEST DUP1 ISZERO PUSH2 0x931 JUMPI PUSH1 0x40 MLOAD CALLER SWAP1 SELFBALANCE DUP1 ISZERO PUSH2 0x8FC MUL SWAP2 PUSH1 0x0 DUP2 DUP2 DUP2 DUP6 DUP9 DUP9 CALL SWAP4 POP POP POP POP ISZERO DUP1 ISZERO PUSH2 0x911 JUMPI RETURNDATASIZE PUSH1 0x0 DUP1 RETURNDATACOPY RETURNDATASIZE PUSH1 0x0 REVERT JUMPDEST POP PUSH1 0xB DUP1 SLOAD PUSH1 0xFF NOT AND SWAP1 SSTORE PUSH1 0x10 DUP1 SLOAD PUSH1 0x1 PUSH1 0x1 PUSH1 0xA0 SHL SUB NOT AND SWAP1 SSTORE PUSH2 0x93F JUMP JUMPDEST PUSH1 0xB DUP1 SLOAD PUSH1 0xFF NOT AND PUSH1 0x1 OR SWAP1 SSTORE JUMPDEST POP PUSH1 0x0 PUSH1 0xA SSTORE JUMP JUMPDEST PUSH1 0x10 SLOAD PUSH1 0x1 PUSH1 0x1 PUSH1 0xA0 SHL SUB AND CALLER EQ PUSH2 0x98E JUMPI PUSH1 0x40 MLOAD PUSH3 0x461BCD PUSH1 0xE5 SHL DUP2 MSTORE PUSH1 0x20 PUSH1 0x4 DUP3 ADD MSTORE PUSH1 0xA PUSH1 0x24 DUP3 ADD MSTORE PUSH10 0x27B7363C90213ABCB2B9 PUSH1 0xB1 SHL PUSH1 0x44 DUP3 ADD MSTORE PUSH1 0x64 ADD PUSH2 0x2B3 JUMP JUMPDEST PUSH2 0x996 PUSH2 0xBE6 JUMP JUMPDEST PUSH2 0x9E2 JUMPI PUSH1 0x40 MLOAD PUSH3 0x461BCD PUSH1 0xE5 SHL DUP2 MSTORE PUSH1 0x20 PUSH1 0x4 DUP3 ADD MSTORE PUSH1 0x1B PUSH1 0x24 DUP3 ADD MSTORE PUSH32 0x4E6F7420616C6C6F77656420746F2063616E63656C206F726465720000000000 PUSH1 0x44 DUP3 ADD MSTORE PUSH1 0x64 ADD PUSH2 0x2B3 JUMP JUMPDEST PUSH1 0x10 DUP1 SLOAD PUSH1 0x1 PUSH1 0x1 PUSH1 0xA0 SHL SUB NOT AND SWAP1 SSTORE PUSH1 0xB DUP1 SLOAD PUSH1 0xFF NOT AND SWAP1 SSTORE PUSH1 0x40 MLOAD CALLER SWAP1 SELFBALANCE DUP1 ISZERO PUSH2 0x8FC MUL SWAP2 PUSH1 0x0 DUP2 DUP2 DUP2 DUP6 DUP9 DUP9 CALL SWAP4 POP POP POP POP ISZERO DUP1 ISZERO PUSH2 0xA28 JUMPI RETURNDATASIZE PUSH1 0x0 DUP1 RETURNDATACOPY RETURNDATASIZE PUSH1 0x0 REVERT JUMPDEST POP PUSH1 0x40 MLOAD CALLER SWAP1 PUSH32 0x393629F15E859A19530BAB9675F9D39F0F57889F19F883BC5BE3533C4A2C9EA8 SWAP1 PUSH1 0x0 SWAP1 LOG2 JUMP JUMPDEST PUSH1 0x40 DUP1 MLOAD DUP1 DUP3 ADD SWAP1 SWAP2 MSTORE PUSH1 0xD DUP2 MSTORE PUSH13 0x13995959081CDA1A5C1B595B9D PUSH1 0x9A SHL PUSH1 0x20 DUP3 ADD MSTORE PUSH1 0x2 SWAP1 DUP2 PUSH1 0xB SLOAD PUSH1 0xFF AND PUSH1 0x4 DUP2 GT ISZERO PUSH2 0xA95 JUMPI PUSH2 0xA95 PUSH2 0x18E4 JUMP JUMPDEST EQ DUP2 SWAP1 PUSH2 0xAB5 JUMPI PUSH1 0x40 MLOAD PUSH3 0x461BCD PUSH1 0xE5 SHL DUP2 MSTORE PUSH1 0x4 ADD PUSH2 0x2B3 SWAP2 SWAP1 PUSH2 0x1B2C JUMP JUMPDEST POP PUSH1 0x0 PUSH2 0xACC PUSH1 0x8 SLOAD ADDRESS PUSH4 0x9D99F67 PUSH1 0xE0 SHL PUSH2 0xF9D JUMP JUMPDEST SWAP1 POP PUSH2 0xB92 PUSH1 0x40 MLOAD DUP1 PUSH1 0x40 ADD PUSH1 0x40 MSTORE DUP1 PUSH1 0xA DUP2 MSTORE PUSH1 0x20 ADD PUSH10 0x1D1C9858DADA5B99D259 PUSH1 0xB2 SHL DUP2 MSTORE POP PUSH1 0xA PUSH1 0x7 ADD DUP1 SLOAD PUSH2 0xB04 SWAP1 PUSH2 0x1B3F JUMP JUMPDEST DUP1 PUSH1 0x1F ADD PUSH1 0x20 DUP1 SWAP2 DIV MUL PUSH1 0x20 ADD PUSH1 0x40 MLOAD SWAP1 DUP2 ADD PUSH1 0x40 MSTORE DUP1 SWAP3 SWAP2 SWAP1 DUP2 DUP2 MSTORE PUSH1 0x20 ADD DUP3 DUP1 SLOAD PUSH2 0xB30 SWAP1 PUSH2 0x1B3F JUMP JUMPDEST DUP1 ISZERO PUSH2 0xB7D JUMPI DUP1 PUSH1 0x1F LT PUSH2 0xB52 JUMPI PUSH2 0x100 DUP1 DUP4 SLOAD DIV MUL DUP4 MSTORE SWAP2 PUSH1 0x20 ADD SWAP2 PUSH2 0xB7D JUMP JUMPDEST DUP3 ADD SWAP2 SWAP1 PUSH1 0x0 MSTORE PUSH1 0x20 PUSH1 0x0 KECCAK256 SWAP1 JUMPDEST DUP2 SLOAD DUP2 MSTORE SWAP1 PUSH1 0x1 ADD SWAP1 PUSH1 0x20 ADD DUP1 DUP4 GT PUSH2 0xB60 JUMPI DUP3 SWAP1 SUB PUSH1 0x1F AND DUP3 ADD SWAP2 JUMPDEST POP POP POP POP POP DUP4 PUSH2 0xFC2 SWAP1 SWAP3 SWAP2 SWAP1 PUSH4 0xFFFFFFFF AND JUMP JUMPDEST PUSH1 0x7 SLOAD PUSH1 0x6 SLOAD PUSH1 0x0 SWAP2 PUSH2 0xBB2 SWAP2 PUSH1 0x1 PUSH1 0x1 PUSH1 0xA0 SHL SUB SWAP1 SWAP2 AND SWAP1 DUP5 SWAP1 PUSH2 0xFE0 JUMP JUMPDEST PUSH1 0x40 MLOAD SWAP1 SWAP2 POP DUP2 SWAP1 PUSH32 0xB5E6E01E79F91267DC17B4E6314D5D4D03593D2CEEE0FBB452B750BD70EA5AF9 SWAP1 PUSH1 0x0 SWAP1 LOG2 POP POP POP POP JUMP JUMPDEST PUSH1 0xE SLOAD PUSH1 0x9 SLOAD PUSH1 0x0 SWAP2 PUSH2 0xBF8 SWAP2 PUSH2 0x1C32 JUMP JUMPDEST NUMBER LT ISZERO DUP1 ISZERO PUSH2 0x650 JUMPI POP PUSH1 0x1 PUSH1 0xB SLOAD PUSH1 0xFF AND PUSH1 0x4 DUP2 GT ISZERO PUSH2 0xC1B JUMPI PUSH2 0xC1B PUSH2 0x18E4 JUMP JUMPDEST EQ SWAP1 POP SWAP1 JUMP JUMPDEST PUSH1 0xF SLOAD PUSH1 0x1 PUSH1 0x1 PUSH1 0xA0 SHL SUB AND CALLER EQ PUSH2 0xC4B JUMPI PUSH1 0x40 MLOAD PUSH3 0x461BCD PUSH1 0xE5 SHL DUP2 MSTORE PUSH1 0x4 ADD PUSH2 0x2B3 SWAP1 PUSH2 0x1ACA JUMP JUMPDEST DUP1 MLOAD PUSH2 0xC5E SWAP1 PUSH1 0x13 SWAP1 PUSH1 0x20 DUP5 ADD SWAP1 PUSH2 0x160C JUMP JUMPDEST POP POP JUMP JUMPDEST PUSH1 0x40 DUP1 MLOAD DUP1 DUP3 ADD SWAP1 SWAP2 MSTORE PUSH1 0x14 DUP2 MSTORE PUSH20 0x20B63932B0B23C903430BB32903090313ABCB2B9 PUSH1 0x61 SHL PUSH1 0x20 DUP3 ADD MSTORE PUSH1 0x0 SWAP1 DUP2 PUSH1 0xB SLOAD PUSH1 0xFF AND PUSH1 0x4 DUP2 GT ISZERO PUSH2 0xCA8 JUMPI PUSH2 0xCA8 PUSH2 0x18E4 JUMP JUMPDEST EQ DUP2 SWAP1 PUSH2 0xCC8 JUMPI PUSH1 0x40 MLOAD PUSH3 0x461BCD PUSH1 0xE5 SHL DUP2 MSTORE PUSH1 0x4 ADD PUSH2 0x2B3 SWAP2 SWAP1 PUSH2 0x1B2C JUMP JUMPDEST POP PUSH1 0xF SLOAD PUSH1 0x1 PUSH1 0x1 PUSH1 0xA0 SHL SUB AND CALLER EQ ISZERO PUSH2 0xD24 JUMPI PUSH1 0x40 MLOAD PUSH3 0x461BCD PUSH1 0xE5 SHL DUP2 MSTORE PUSH1 0x20 PUSH1 0x4 DUP3 ADD MSTORE PUSH1 0x1D PUSH1 0x24 DUP3 ADD MSTORE PUSH32 0x596F752063616E206E6F74206275792066726F6D20796F757273656C66000000 PUSH1 0x44 DUP3 ADD MSTORE PUSH1 0x64 ADD PUSH2 0x2B3 JUMP JUMPDEST PUSH1 0xD SLOAD CALLVALUE LT ISZERO PUSH2 0xD68 JUMPI PUSH1 0x40 MLOAD PUSH3 0x461BCD PUSH1 0xE5 SHL DUP2 MSTORE PUSH1 0x20 PUSH1 0x4 DUP3 ADD MSTORE PUSH1 0xF PUSH1 0x24 DUP3 ADD MSTORE PUSH15 0x139BDD08195B9BDD59DA08199D5B99 PUSH1 0x8A SHL PUSH1 0x44 DUP3 ADD MSTORE PUSH1 0x64 ADD PUSH2 0x2B3 JUMP JUMPDEST PUSH1 0xB DUP1 SLOAD PUSH1 0xFF NOT AND PUSH1 0x1 OR SWAP1 SSTORE PUSH1 0x10 DUP1 SLOAD CALLER PUSH1 0x1 PUSH1 0x1 PUSH1 0xA0 SHL SUB NOT SWAP1 SWAP2 AND DUP2 OR SWAP1 SWAP2 SSTORE NUMBER PUSH1 0x9 SSTORE PUSH1 0x40 MLOAD PUSH32 0xE4CAEAEF8E4F0C4880839CA47219351B38CF4116C082FD0BAEFC3008E4BA11A3 SWAP1 PUSH1 0x0 SWAP1 LOG2 POP POP JUMP JUMPDEST PUSH1 0xA DUP1 SLOAD PUSH1 0xB SLOAD PUSH1 0xC SLOAD PUSH1 0xD SLOAD PUSH1 0xE SLOAD PUSH1 0xF SLOAD PUSH1 0x10 SLOAD PUSH1 0x11 DUP1 SLOAD SWAP8 SWAP9 PUSH1 0xFF SWAP1 SWAP8 AND SWAP8 SWAP6 SWAP7 SWAP5 SWAP6 SWAP4 SWAP5 PUSH1 0x1 PUSH1 0x1 PUSH1 0xA0 SHL SUB SWAP4 DUP5 AND SWAP5 SWAP4 SWAP1 SWAP3 AND SWAP3 PUSH2 0xDFE SWAP1 PUSH2 0x1B3F JUMP JUMPDEST DUP1 PUSH1 0x1F ADD PUSH1 0x20 DUP1 SWAP2 DIV MUL PUSH1 0x20 ADD PUSH1 0x40 MLOAD SWAP1 DUP2 ADD PUSH1 0x40 MSTORE DUP1 SWAP3 SWAP2 SWAP1 DUP2 DUP2 MSTORE PUSH1 0x20 ADD DUP3 DUP1 SLOAD PUSH2 0xE2A SWAP1 PUSH2 0x1B3F JUMP JUMPDEST DUP1 ISZERO PUSH2 0xE77 JUMPI DUP1 PUSH1 0x1F LT PUSH2 0xE4C JUMPI PUSH2 0x100 DUP1 DUP4 SLOAD DIV MUL DUP4 MSTORE SWAP2 PUSH1 0x20 ADD SWAP2 PUSH2 0xE77 JUMP JUMPDEST DUP3 ADD SWAP2 SWAP1 PUSH1 0x0 MSTORE PUSH1 0x20 PUSH1 0x0 KECCAK256 SWAP1 JUMPDEST DUP2 SLOAD DUP2 MSTORE SWAP1 PUSH1 0x1 ADD SWAP1 PUSH1 0x20 ADD DUP1 DUP4 GT PUSH2 0xE5A JUMPI DUP3 SWAP1 SUB PUSH1 0x1F AND DUP3 ADD SWAP2 JUMPDEST POP POP POP POP POP SWAP1 DUP1 PUSH1 0x8 ADD DUP1 SLOAD PUSH2 0xE8C SWAP1 PUSH2 0x1B3F JUMP JUMPDEST DUP1 PUSH1 0x1F ADD PUSH1 0x20 DUP1 SWAP2 DIV MUL PUSH1 0x20 ADD PUSH1 0x40 MLOAD SWAP1 DUP2 ADD PUSH1 0x40 MSTORE DUP1 SWAP3 SWAP2 SWAP1 DUP2 DUP2 MSTORE PUSH1 0x20 ADD DUP3 DUP1 SLOAD PUSH2 0xEB8 SWAP1 PUSH2 0x1B3F JUMP JUMPDEST DUP1 ISZERO PUSH2 0xF05 JUMPI DUP1 PUSH1 0x1F LT PUSH2 0xEDA JUMPI PUSH2 0x100 DUP1 DUP4 SLOAD DIV MUL DUP4 MSTORE SWAP2 PUSH1 0x20 ADD SWAP2 PUSH2 0xF05 JUMP JUMPDEST DUP3 ADD SWAP2 SWAP1 PUSH1 0x0 MSTORE PUSH1 0x20 PUSH1 0x0 KECCAK256 SWAP1 JUMPDEST DUP2 SLOAD DUP2 MSTORE SWAP1 PUSH1 0x1 ADD SWAP1 PUSH1 0x20 ADD DUP1 DUP4 GT PUSH2 0xEE8 JUMPI DUP3 SWAP1 SUB PUSH1 0x1F AND DUP3 ADD SWAP2 JUMPDEST POP POP POP POP POP SWAP1 DUP1 PUSH1 0x9 ADD DUP1 SLOAD PUSH2 0xF1A SWAP1 PUSH2 0x1B3F JUMP JUMPDEST DUP1 PUSH1 0x1F ADD PUSH1 0x20 DUP1 SWAP2 DIV MUL PUSH1 0x20 ADD PUSH1 0x40 MLOAD SWAP1 DUP2 ADD PUSH1 0x40 MSTORE DUP1 SWAP3 SWAP2 SWAP1 DUP2 DUP2 MSTORE PUSH1 0x20 ADD DUP3 DUP1 SLOAD PUSH2 0xF46 SWAP1 PUSH2 0x1B3F JUMP JUMPDEST DUP1 ISZERO PUSH2 0xF93 JUMPI DUP1 PUSH1 0x1F LT PUSH2 0xF68 JUMPI PUSH2 0x100 DUP1 DUP4 SLOAD DIV MUL DUP4 MSTORE SWAP2 PUSH1 0x20 ADD SWAP2 PUSH2 0xF93 JUMP JUMPDEST DUP3 ADD SWAP2 SWAP1 PUSH1 0x0 MSTORE PUSH1 0x20 PUSH1 0x0 KECCAK256 SWAP1 JUMPDEST DUP2 SLOAD DUP2 MSTORE SWAP1 PUSH1 0x1 ADD SWAP1 PUSH1 0x20 ADD DUP1 DUP4 GT PUSH2 0xF76 JUMPI DUP3 SWAP1 SUB PUSH1 0x1F AND DUP3 ADD SWAP2 JUMPDEST POP POP POP POP POP SWAP1 POP DUP11 JUMP JUMPDEST PUSH2 0xFA5 PUSH2 0x1690 JUMP JUMPDEST PUSH2 0xFAD PUSH2 0x1690 JUMP JUMPDEST PUSH2 0xFB9 DUP2 DUP7 DUP7 DUP7 PUSH2 0xFFF JUMP JUMPDEST SWAP6 SWAP5 POP POP POP POP POP JUMP JUMPDEST PUSH1 0x80 DUP4 ADD MLOAD PUSH2 0xFD1 SWAP1 DUP4 PUSH2 0x103C JUMP JUMPDEST PUSH1 0x80 DUP4 ADD MLOAD PUSH2 0x71A SWAP1 DUP3 PUSH2 0x103C JUMP JUMPDEST PUSH1 0x0 PUSH2 0xFF7 DUP5 DUP5 DUP5 PUSH1 0x1 PUSH4 0x20214CA3 PUSH1 0xE1 SHL PUSH2 0x1053 JUMP JUMPDEST SWAP5 SWAP4 POP POP POP POP JUMP JUMPDEST PUSH2 0x1007 PUSH2 0x1690 JUMP JUMPDEST PUSH2 0x1017 DUP6 PUSH1 0x80 ADD MLOAD PUSH2 0x100 PUSH2 0x125F JUMP JUMPDEST POP POP SWAP2 DUP4 MSTORE PUSH1 0x1 PUSH1 0x1 PUSH1 0xA0 SHL SUB AND PUSH1 0x20 DUP4 ADD MSTORE PUSH1 0x1 PUSH1 0x1 PUSH1 0xE0 SHL SUB NOT AND PUSH1 0x40 DUP3 ADD MSTORE SWAP1 JUMP JUMPDEST PUSH2 0x1049 DUP3 PUSH1 0x3 DUP4 MLOAD PUSH2 0x12CA JUMP JUMPDEST PUSH2 0x71A DUP3 DUP3 PUSH2 0x139E JUMP JUMPDEST PUSH1 0x4 SLOAD PUSH1 0x40 MLOAD PUSH12 0xFFFFFFFFFFFFFFFFFFFFFFFF NOT ADDRESS PUSH1 0x60 SHL AND PUSH1 0x20 DUP3 ADD MSTORE PUSH1 0x34 DUP2 ADD SWAP2 SWAP1 SWAP2 MSTORE PUSH1 0x0 SWAP1 PUSH1 0x54 ADD PUSH1 0x40 DUP1 MLOAD DUP1 DUP4 SUB PUSH1 0x1F NOT ADD DUP2 MSTORE SWAP2 DUP2 MSTORE DUP2 MLOAD PUSH1 0x20 SWAP3 DUP4 ADD KECCAK256 PUSH1 0x4 SLOAD PUSH1 0x60 DUP10 ADD MSTORE PUSH1 0x0 DUP2 DUP2 MSTORE PUSH1 0x5 SWAP1 SWAP4 MSTORE DUP2 DUP4 KECCAK256 DUP1 SLOAD PUSH1 0x1 PUSH1 0x1 PUSH1 0xA0 SHL SUB NOT AND PUSH1 0x1 PUSH1 0x1 PUSH1 0xA0 SHL SUB DUP12 AND OR SWAP1 SSTORE SWAP1 MLOAD SWAP1 SWAP3 POP DUP3 SWAP2 PUSH32 0xB5E6E01E79F91267DC17B4E6314D5D4D03593D2CEEE0FBB452B750BD70EA5AF9 SWAP2 LOG2 PUSH1 0x0 DUP3 PUSH1 0x0 DUP1 DUP9 PUSH1 0x0 ADD MLOAD DUP10 PUSH1 0x20 ADD MLOAD DUP11 PUSH1 0x40 ADD MLOAD DUP12 PUSH1 0x60 ADD MLOAD DUP11 DUP14 PUSH1 0x80 ADD MLOAD PUSH1 0x0 ADD MLOAD PUSH1 0x40 MLOAD PUSH1 0x24 ADD PUSH2 0x112A SWAP9 SWAP8 SWAP7 SWAP6 SWAP5 SWAP4 SWAP3 SWAP2 SWAP1 PUSH2 0x1C4A JUMP JUMPDEST PUSH1 0x40 DUP1 MLOAD PUSH1 0x1F NOT DUP2 DUP5 SUB ADD DUP2 MSTORE SWAP2 DUP2 MSTORE PUSH1 0x20 DUP3 ADD DUP1 MLOAD PUSH1 0x1 PUSH1 0x1 PUSH1 0xE0 SHL SUB AND PUSH1 0x1 PUSH1 0x1 PUSH1 0xE0 SHL SUB NOT SWAP1 SWAP5 AND SWAP4 SWAP1 SWAP4 OR SWAP1 SWAP3 MSTORE PUSH1 0x2 SLOAD SWAP2 MLOAD PUSH4 0x2000575 PUSH1 0xE5 SHL DUP2 MSTORE SWAP1 SWAP3 POP PUSH1 0x1 PUSH1 0x1 PUSH1 0xA0 SHL SUB SWAP1 SWAP2 AND SWAP1 PUSH4 0x4000AEA0 SWAP1 PUSH2 0x1192 SWAP1 DUP11 SWAP1 DUP10 SWAP1 DUP7 SWAP1 PUSH1 0x4 ADD PUSH2 0x1CB2 JUMP JUMPDEST PUSH1 0x20 PUSH1 0x40 MLOAD DUP1 DUP4 SUB DUP2 PUSH1 0x0 DUP8 DUP1 EXTCODESIZE ISZERO DUP1 ISZERO PUSH2 0x11AC JUMPI PUSH1 0x0 DUP1 REVERT JUMPDEST POP GAS CALL ISZERO DUP1 ISZERO PUSH2 0x11C0 JUMPI RETURNDATASIZE PUSH1 0x0 DUP1 RETURNDATACOPY RETURNDATASIZE PUSH1 0x0 REVERT JUMPDEST POP POP POP POP PUSH1 0x40 MLOAD RETURNDATASIZE PUSH1 0x1F NOT PUSH1 0x1F DUP3 ADD AND DUP3 ADD DUP1 PUSH1 0x40 MSTORE POP DUP2 ADD SWAP1 PUSH2 0x11E4 SWAP2 SWAP1 PUSH2 0x1AAD JUMP JUMPDEST PUSH2 0x123C JUMPI PUSH1 0x40 MLOAD PUSH3 0x461BCD PUSH1 0xE5 SHL DUP2 MSTORE PUSH1 0x20 PUSH1 0x4 DUP3 ADD MSTORE PUSH1 0x23 PUSH1 0x24 DUP3 ADD MSTORE PUSH32 0x756E61626C6520746F207472616E73666572416E6443616C6C20746F206F7261 PUSH1 0x44 DUP3 ADD MSTORE PUSH3 0x636C65 PUSH1 0xE8 SHL PUSH1 0x64 DUP3 ADD MSTORE PUSH1 0x84 ADD PUSH2 0x2B3 JUMP JUMPDEST PUSH1 0x1 PUSH1 0x4 PUSH1 0x0 DUP3 DUP3 SLOAD PUSH2 0x124F SWAP2 SWAP1 PUSH2 0x1C32 JUMP JUMPDEST SWAP1 SWAP2 SSTORE POP SWAP2 SWAP8 SWAP7 POP POP POP POP POP POP POP JUMP JUMPDEST PUSH1 0x40 DUP1 MLOAD DUP1 DUP3 ADD SWAP1 SWAP2 MSTORE PUSH1 0x60 DUP2 MSTORE PUSH1 0x0 PUSH1 0x20 DUP3 ADD MSTORE PUSH2 0x127F PUSH1 0x20 DUP4 PUSH2 0x1CD9 JUMP JUMPDEST ISZERO PUSH2 0x12A7 JUMPI PUSH2 0x128F PUSH1 0x20 DUP4 PUSH2 0x1CD9 JUMP JUMPDEST PUSH2 0x129A SWAP1 PUSH1 0x20 PUSH2 0x1CFB JUMP JUMPDEST PUSH2 0x12A4 SWAP1 DUP4 PUSH2 0x1C32 JUMP JUMPDEST SWAP2 POP JUMPDEST POP PUSH1 0x20 DUP1 DUP4 ADD DUP3 SWAP1 MSTORE PUSH1 0x40 DUP1 MLOAD DUP1 DUP6 MSTORE PUSH1 0x0 DUP2 MSTORE DUP4 ADD SWAP1 SWAP2 ADD SWAP1 MSTORE DUP2 JUMPDEST SWAP3 SWAP2 POP POP JUMP JUMPDEST PUSH1 0x17 DUP2 GT PUSH2 0x12EB JUMPI PUSH2 0x12E5 DUP4 PUSH1 0xE0 PUSH1 0x5 DUP6 SWAP1 SHL AND DUP4 OR PUSH2 0x13CC JUMP JUMPDEST POP POP POP POP JUMP JUMPDEST PUSH1 0xFF DUP2 GT PUSH2 0x1315 JUMPI PUSH2 0x1308 DUP4 PUSH1 0x18 PUSH2 0x1FE0 PUSH1 0x5 DUP7 SWAP1 SHL AND OR PUSH2 0x13CC JUMP JUMPDEST POP PUSH2 0x12E5 DUP4 DUP3 PUSH1 0x1 PUSH2 0x13F1 JUMP JUMPDEST PUSH2 0xFFFF DUP2 GT PUSH2 0x1340 JUMPI PUSH2 0x1333 DUP4 PUSH1 0x19 PUSH2 0x1FE0 PUSH1 0x5 DUP7 SWAP1 SHL AND OR PUSH2 0x13CC JUMP JUMPDEST POP PUSH2 0x12E5 DUP4 DUP3 PUSH1 0x2 PUSH2 0x13F1 JUMP JUMPDEST PUSH4 0xFFFFFFFF DUP2 GT PUSH2 0x136D JUMPI PUSH2 0x1360 DUP4 PUSH1 0x1A PUSH2 0x1FE0 PUSH1 0x5 DUP7 SWAP1 SHL AND OR PUSH2 0x13CC JUMP JUMPDEST POP PUSH2 0x12E5 DUP4 DUP3 PUSH1 0x4 PUSH2 0x13F1 JUMP JUMPDEST PUSH8 0xFFFFFFFFFFFFFFFF DUP2 GT PUSH2 0x71A JUMPI PUSH2 0x1391 DUP4 PUSH1 0x1B PUSH2 0x1FE0 PUSH1 0x5 DUP7 SWAP1 SHL AND OR PUSH2 0x13CC JUMP JUMPDEST POP PUSH2 0x12E5 DUP4 DUP3 PUSH1 0x8 PUSH2 0x13F1 JUMP JUMPDEST PUSH1 0x40 DUP1 MLOAD DUP1 DUP3 ADD SWAP1 SWAP2 MSTORE PUSH1 0x60 DUP2 MSTORE PUSH1 0x0 PUSH1 0x20 DUP3 ADD MSTORE PUSH2 0x13C5 DUP4 DUP5 PUSH1 0x0 ADD MLOAD MLOAD DUP5 DUP6 MLOAD PUSH2 0x1417 JUMP JUMPDEST SWAP4 SWAP3 POP POP POP JUMP JUMPDEST PUSH1 0x40 DUP1 MLOAD DUP1 DUP3 ADD SWAP1 SWAP2 MSTORE PUSH1 0x60 DUP2 MSTORE PUSH1 0x0 PUSH1 0x20 DUP3 ADD MSTORE PUSH2 0x13C5 DUP4 DUP5 PUSH1 0x0 ADD MLOAD MLOAD DUP5 PUSH2 0x1501 JUMP JUMPDEST PUSH1 0x40 DUP1 MLOAD DUP1 DUP3 ADD SWAP1 SWAP2 MSTORE PUSH1 0x60 DUP2 MSTORE PUSH1 0x0 PUSH1 0x20 DUP3 ADD MSTORE PUSH2 0xFF7 DUP5 DUP6 PUSH1 0x0 ADD MLOAD MLOAD DUP6 DUP6 PUSH2 0x155D JUMP JUMPDEST PUSH1 0x40 DUP1 MLOAD DUP1 DUP3 ADD SWAP1 SWAP2 MSTORE PUSH1 0x60 DUP2 MSTORE PUSH1 0x0 PUSH1 0x20 DUP3 ADD MSTORE DUP3 MLOAD DUP3 GT ISZERO PUSH2 0x143A JUMPI PUSH1 0x0 DUP1 REVERT JUMPDEST PUSH1 0x20 DUP6 ADD MLOAD PUSH2 0x1449 DUP4 DUP7 PUSH2 0x1C32 JUMP JUMPDEST GT ISZERO PUSH2 0x147C JUMPI PUSH2 0x147C DUP6 PUSH2 0x146C DUP8 PUSH1 0x20 ADD MLOAD DUP8 DUP7 PUSH2 0x1467 SWAP2 SWAP1 PUSH2 0x1C32 JUMP JUMPDEST PUSH2 0x15DE JUMP JUMPDEST PUSH2 0x1477 SWAP1 PUSH1 0x2 PUSH2 0x1D12 JUMP JUMPDEST PUSH2 0x15F5 JUMP JUMPDEST PUSH1 0x0 DUP1 DUP7 MLOAD DUP1 MLOAD DUP8 PUSH1 0x20 DUP4 ADD ADD SWAP4 POP DUP1 DUP9 DUP8 ADD GT ISZERO PUSH2 0x149B JUMPI DUP8 DUP7 ADD DUP3 MSTORE JUMPDEST POP POP POP PUSH1 0x20 DUP5 ADD JUMPDEST PUSH1 0x20 DUP5 LT PUSH2 0x14DB JUMPI DUP1 MLOAD DUP3 MSTORE PUSH2 0x14BA PUSH1 0x20 DUP4 PUSH2 0x1C32 JUMP JUMPDEST SWAP2 POP PUSH2 0x14C7 PUSH1 0x20 DUP3 PUSH2 0x1C32 JUMP JUMPDEST SWAP1 POP PUSH2 0x14D4 PUSH1 0x20 DUP6 PUSH2 0x1CFB JUMP JUMPDEST SWAP4 POP PUSH2 0x14A3 JUMP JUMPDEST MLOAD DUP2 MLOAD PUSH1 0x0 NOT PUSH1 0x20 DUP7 SWAP1 SUB PUSH2 0x100 EXP ADD SWAP1 DUP2 AND SWAP1 NOT SWAP2 SWAP1 SWAP2 AND OR SWAP1 MSTORE POP DUP4 SWAP5 SWAP4 POP POP POP POP JUMP JUMPDEST PUSH1 0x40 DUP1 MLOAD DUP1 DUP3 ADD SWAP1 SWAP2 MSTORE PUSH1 0x60 DUP2 MSTORE PUSH1 0x0 PUSH1 0x20 DUP3 ADD MSTORE DUP4 PUSH1 0x20 ADD MLOAD DUP4 LT PUSH2 0x1536 JUMPI PUSH2 0x1536 DUP5 DUP6 PUSH1 0x20 ADD MLOAD PUSH1 0x2 PUSH2 0x1477 SWAP2 SWAP1 PUSH2 0x1D12 JUMP JUMPDEST DUP4 MLOAD DUP1 MLOAD PUSH1 0x20 DUP6 DUP4 ADD ADD DUP5 DUP2 MSTORE8 POP DUP1 DUP6 EQ ISZERO PUSH2 0x1553 JUMPI PUSH1 0x1 DUP2 ADD DUP3 MSTORE JUMPDEST POP SWAP4 SWAP5 SWAP4 POP POP POP POP JUMP JUMPDEST PUSH1 0x40 DUP1 MLOAD DUP1 DUP3 ADD SWAP1 SWAP2 MSTORE PUSH1 0x60 DUP2 MSTORE PUSH1 0x0 PUSH1 0x20 DUP3 ADD MSTORE PUSH1 0x20 DUP6 ADD MLOAD PUSH2 0x1581 DUP6 DUP5 PUSH2 0x1C32 JUMP JUMPDEST GT ISZERO PUSH2 0x1595 JUMPI PUSH2 0x1595 DUP6 PUSH2 0x146C DUP7 DUP6 PUSH2 0x1C32 JUMP JUMPDEST PUSH1 0x0 PUSH1 0x1 PUSH2 0x15A5 DUP5 PUSH2 0x100 PUSH2 0x1E15 JUMP JUMPDEST PUSH2 0x15AF SWAP2 SWAP1 PUSH2 0x1CFB JUMP JUMPDEST SWAP1 POP DUP6 MLOAD DUP4 DUP7 DUP3 ADD ADD DUP6 DUP4 NOT DUP3 MLOAD AND OR DUP2 MSTORE POP DUP1 MLOAD DUP5 DUP8 ADD GT ISZERO PUSH2 0x15D3 JUMPI DUP4 DUP7 ADD DUP2 MSTORE JUMPDEST POP SWAP5 SWAP6 SWAP5 POP POP POP POP POP JUMP JUMPDEST PUSH1 0x0 DUP2 DUP4 GT ISZERO PUSH2 0x15EF JUMPI POP DUP2 PUSH2 0x12C4 JUMP JUMPDEST POP SWAP2 SWAP1 POP JUMP JUMPDEST DUP2 MLOAD PUSH2 0x1601 DUP4 DUP4 PUSH2 0x125F JUMP JUMPDEST POP PUSH2 0x12E5 DUP4 DUP3 PUSH2 0x139E JUMP JUMPDEST DUP3 DUP1 SLOAD PUSH2 0x1618 SWAP1 PUSH2 0x1B3F JUMP JUMPDEST SWAP1 PUSH1 0x0 MSTORE PUSH1 0x20 PUSH1 0x0 KECCAK256 SWAP1 PUSH1 0x1F ADD PUSH1 0x20 SWAP1 DIV DUP2 ADD SWAP3 DUP3 PUSH2 0x163A JUMPI PUSH1 0x0 DUP6 SSTORE PUSH2 0x1680 JUMP JUMPDEST DUP3 PUSH1 0x1F LT PUSH2 0x1653 JUMPI DUP1 MLOAD PUSH1 0xFF NOT AND DUP4 DUP1 ADD OR DUP6 SSTORE PUSH2 0x1680 JUMP JUMPDEST DUP3 DUP1 ADD PUSH1 0x1 ADD DUP6 SSTORE DUP3 ISZERO PUSH2 0x1680 JUMPI SWAP2 DUP3 ADD JUMPDEST DUP3 DUP2 GT ISZERO PUSH2 0x1680 JUMPI DUP3 MLOAD DUP3 SSTORE SWAP2 PUSH1 0x20 ADD SWAP2 SWAP1 PUSH1 0x1 ADD SWAP1 PUSH2 0x1665 JUMP JUMPDEST POP PUSH2 0x168C SWAP3 SWAP2 POP PUSH2 0x16CB JUMP JUMPDEST POP SWAP1 JUMP JUMPDEST PUSH1 0x40 DUP1 MLOAD PUSH1 0xA0 DUP2 ADD DUP3 MSTORE PUSH1 0x0 DUP1 DUP3 MSTORE PUSH1 0x20 DUP1 DUP4 ADD DUP3 SWAP1 MSTORE DUP3 DUP5 ADD DUP3 SWAP1 MSTORE PUSH1 0x60 DUP1 DUP5 ADD DUP4 SWAP1 MSTORE DUP5 MLOAD DUP1 DUP7 ADD SWAP1 SWAP6 MSTORE DUP5 MSTORE DUP4 ADD MSTORE SWAP1 PUSH1 0x80 DUP3 ADD MSTORE SWAP1 JUMP JUMPDEST JUMPDEST DUP1 DUP3 GT ISZERO PUSH2 0x168C JUMPI PUSH1 0x0 DUP2 SSTORE PUSH1 0x1 ADD PUSH2 0x16CC JUMP JUMPDEST PUSH1 0x0 DUP1 PUSH1 0x40 DUP4 DUP6 SUB SLT ISZERO PUSH2 0x16F3 JUMPI PUSH1 0x0 DUP1 REVERT JUMPDEST POP POP DUP1 CALLDATALOAD SWAP3 PUSH1 0x20 SWAP1 SWAP2 ADD CALLDATALOAD SWAP2 POP JUMP JUMPDEST PUSH4 0x4E487B71 PUSH1 0xE0 SHL PUSH1 0x0 MSTORE PUSH1 0x41 PUSH1 0x4 MSTORE PUSH1 0x24 PUSH1 0x0 REVERT JUMPDEST PUSH1 0x40 MLOAD PUSH1 0x1F DUP3 ADD PUSH1 0x1F NOT AND DUP2 ADD PUSH8 0xFFFFFFFFFFFFFFFF DUP2 GT DUP3 DUP3 LT OR ISZERO PUSH2 0x1741 JUMPI PUSH2 0x1741 PUSH2 0x1702 JUMP JUMPDEST PUSH1 0x40 MSTORE SWAP2 SWAP1 POP JUMP JUMPDEST PUSH1 0x0 PUSH8 0xFFFFFFFFFFFFFFFF DUP3 GT ISZERO PUSH2 0x1763 JUMPI PUSH2 0x1763 PUSH2 0x1702 JUMP JUMPDEST POP PUSH1 0x1F ADD PUSH1 0x1F NOT AND PUSH1 0x20 ADD SWAP1 JUMP JUMPDEST PUSH1 0x0 DUP3 PUSH1 0x1F DUP4 ADD SLT PUSH2 0x1782 JUMPI PUSH1 0x0 DUP1 REVERT JUMPDEST DUP2 CALLDATALOAD PUSH2 0x1795 PUSH2 0x1790 DUP3 PUSH2 0x1749 JUMP JUMPDEST PUSH2 0x1718 JUMP JUMPDEST DUP2 DUP2 MSTORE DUP5 PUSH1 0x20 DUP4 DUP7 ADD ADD GT ISZERO PUSH2 0x17AA JUMPI PUSH1 0x0 DUP1 REVERT JUMPDEST DUP2 PUSH1 0x20 DUP6 ADD PUSH1 0x20 DUP4 ADD CALLDATACOPY PUSH1 0x0 SWAP2 DUP2 ADD PUSH1 0x20 ADD SWAP2 SWAP1 SWAP2 MSTORE SWAP4 SWAP3 POP POP POP JUMP JUMPDEST DUP1 CALLDATALOAD PUSH1 0x1 PUSH1 0x1 PUSH1 0xA0 SHL SUB DUP2 AND DUP2 EQ PUSH2 0x17DE JUMPI PUSH1 0x0 DUP1 REVERT JUMPDEST SWAP2 SWAP1 POP JUMP JUMPDEST PUSH1 0x0 DUP1 PUSH1 0x0 DUP1 PUSH1 0x0 DUP1 PUSH1 0x0 DUP1 PUSH1 0x0 PUSH2 0x120 DUP11 DUP13 SUB SLT ISZERO PUSH2 0x1802 JUMPI PUSH1 0x0 DUP1 REVERT JUMPDEST DUP10 CALLDATALOAD PUSH8 0xFFFFFFFFFFFFFFFF DUP2 GT ISZERO PUSH2 0x1819 JUMPI PUSH1 0x0 DUP1 REVERT JUMPDEST PUSH2 0x1825 DUP13 DUP3 DUP14 ADD PUSH2 0x1771 JUMP JUMPDEST SWAP10 POP POP PUSH1 0x20 DUP11 ADD CALLDATALOAD SWAP8 POP PUSH2 0x183B PUSH1 0x40 DUP12 ADD PUSH2 0x17C7 JUMP JUMPDEST SWAP7 POP PUSH2 0x1849 PUSH1 0x60 DUP12 ADD PUSH2 0x17C7 JUMP JUMPDEST SWAP6 POP PUSH2 0x1857 PUSH1 0x80 DUP12 ADD PUSH2 0x17C7 JUMP JUMPDEST SWAP9 SWAP12 SWAP8 SWAP11 POP SWAP6 SWAP9 SWAP5 SWAP8 SWAP7 PUSH1 0xA0 DUP7 ADD CALLDATALOAD SWAP7 POP PUSH1 0xC0 DUP7 ADD CALLDATALOAD SWAP6 PUSH1 0xE0 DUP2 ADD CALLDATALOAD SWAP6 POP PUSH2 0x100 ADD CALLDATALOAD SWAP4 POP SWAP2 POP POP JUMP JUMPDEST PUSH1 0x0 PUSH1 0x20 DUP3 DUP5 SUB SLT ISZERO PUSH2 0x1893 JUMPI PUSH1 0x0 DUP1 REVERT JUMPDEST DUP2 CALLDATALOAD PUSH8 0xFFFFFFFFFFFFFFFF DUP2 GT ISZERO PUSH2 0x18AA JUMPI PUSH1 0x0 DUP1 REVERT JUMPDEST PUSH2 0xFF7 DUP5 DUP3 DUP6 ADD PUSH2 0x1771 JUMP JUMPDEST DUP1 ISZERO ISZERO DUP2 EQ PUSH2 0x18C4 JUMPI PUSH1 0x0 DUP1 REVERT JUMPDEST POP JUMP JUMPDEST PUSH1 0x0 PUSH1 0x20 DUP3 DUP5 SUB SLT ISZERO PUSH2 0x18D9 JUMPI PUSH1 0x0 DUP1 REVERT JUMPDEST DUP2 CALLDATALOAD PUSH2 0x13C5 DUP2 PUSH2 0x18B6 JUMP JUMPDEST PUSH4 0x4E487B71 PUSH1 0xE0 SHL PUSH1 0x0 MSTORE PUSH1 0x21 PUSH1 0x4 MSTORE PUSH1 0x24 PUSH1 0x0 REVERT JUMPDEST PUSH1 0x0 JUMPDEST DUP4 DUP2 LT ISZERO PUSH2 0x1915 JUMPI DUP2 DUP2 ADD MLOAD DUP4 DUP3 ADD MSTORE PUSH1 0x20 ADD PUSH2 0x18FD JUMP JUMPDEST DUP4 DUP2 GT ISZERO PUSH2 0x12E5 JUMPI POP POP PUSH1 0x0 SWAP2 ADD MSTORE JUMP JUMPDEST PUSH1 0x0 DUP2 MLOAD DUP1 DUP5 MSTORE PUSH2 0x193E DUP2 PUSH1 0x20 DUP7 ADD PUSH1 0x20 DUP7 ADD PUSH2 0x18FA JUMP JUMPDEST PUSH1 0x1F ADD PUSH1 0x1F NOT AND SWAP3 SWAP1 SWAP3 ADD PUSH1 0x20 ADD SWAP3 SWAP2 POP POP JUMP JUMPDEST PUSH1 0x0 PUSH2 0x140 DUP13 DUP4 MSTORE PUSH1 0x5 DUP13 LT PUSH2 0x1978 JUMPI PUSH4 0x4E487B71 PUSH1 0xE0 SHL PUSH1 0x0 MSTORE PUSH1 0x21 PUSH1 0x4 MSTORE PUSH1 0x24 PUSH1 0x0 REVERT JUMPDEST DUP12 PUSH1 0x20 DUP5 ADD MSTORE DUP11 PUSH1 0x40 DUP5 ADD MSTORE DUP10 PUSH1 0x60 DUP5 ADD MSTORE DUP9 PUSH1 0x80 DUP5 ADD MSTORE PUSH2 0x19A5 PUSH1 0xA0 DUP5 ADD DUP10 PUSH1 0x1 PUSH1 0x1 PUSH1 0xA0 SHL SUB AND SWAP1 MSTORE JUMP JUMPDEST PUSH1 0x1 PUSH1 0x1 PUSH1 0xA0 SHL SUB DUP8 AND PUSH1 0xC0 DUP5 ADD MSTORE DUP1 PUSH1 0xE0 DUP5 ADD MSTORE PUSH2 0x19C6 DUP2 DUP5 ADD DUP8 PUSH2 0x1926 JUMP JUMPDEST SWAP1 POP DUP3 DUP2 SUB PUSH2 0x100 DUP5 ADD MSTORE PUSH2 0x19DB DUP2 DUP7 PUSH2 0x1926 JUMP JUMPDEST SWAP1 POP DUP3 DUP2 SUB PUSH2 0x120 DUP5 ADD MSTORE PUSH2 0x19F0 DUP2 DUP6 PUSH2 0x1926 JUMP JUMPDEST SWAP14 SWAP13 POP POP POP POP POP POP POP POP POP POP POP POP POP JUMP JUMPDEST PUSH1 0x0 PUSH1 0x20 DUP3 DUP5 SUB SLT ISZERO PUSH2 0x1A13 JUMPI PUSH1 0x0 DUP1 REVERT JUMPDEST DUP2 MLOAD PUSH8 0xFFFFFFFFFFFFFFFF DUP2 GT ISZERO PUSH2 0x1A2A JUMPI PUSH1 0x0 DUP1 REVERT JUMPDEST DUP3 ADD PUSH1 0x1F DUP2 ADD DUP5 SGT PUSH2 0x1A3B JUMPI PUSH1 0x0 DUP1 REVERT JUMPDEST DUP1 MLOAD PUSH2 0x1A49 PUSH2 0x1790 DUP3 PUSH2 0x1749 JUMP JUMPDEST DUP2 DUP2 MSTORE DUP6 PUSH1 0x20 DUP4 DUP6 ADD ADD GT ISZERO PUSH2 0x1A5E JUMPI PUSH1 0x0 DUP1 REVERT JUMPDEST PUSH2 0xFB9 DUP3 PUSH1 0x20 DUP4 ADD PUSH1 0x20 DUP7 ADD PUSH2 0x18FA JUMP JUMPDEST PUSH1 0x40 DUP2 MSTORE PUSH1 0x0 PUSH2 0x1A82 PUSH1 0x40 DUP4 ADD DUP5 PUSH2 0x1926 JUMP JUMPDEST DUP3 DUP2 SUB PUSH1 0x20 DUP5 ADD MSTORE PUSH1 0x9 DUP2 MSTORE PUSH9 0x11195B1A5D995C9959 PUSH1 0xBA SHL PUSH1 0x20 DUP3 ADD MSTORE PUSH1 0x40 DUP2 ADD SWAP2 POP POP SWAP3 SWAP2 POP POP JUMP JUMPDEST PUSH1 0x0 PUSH1 0x20 DUP3 DUP5 SUB SLT ISZERO PUSH2 0x1ABF JUMPI PUSH1 0x0 DUP1 REVERT JUMPDEST DUP2 MLOAD PUSH2 0x13C5 DUP2 PUSH2 0x18B6 JUMP JUMPDEST PUSH1 0x20 DUP1 DUP3 MSTORE PUSH1 0xA SWAP1 DUP3 ADD MSTORE PUSH10 0x27B7363C9027BBB732B9 PUSH1 0xB1 SHL PUSH1 0x40 DUP3 ADD MSTORE PUSH1 0x60 ADD SWAP1 JUMP JUMPDEST PUSH1 0x40 DUP2 MSTORE PUSH1 0x0 PUSH2 0x1B01 PUSH1 0x40 DUP4 ADD DUP5 PUSH2 0x1926 JUMP JUMPDEST DUP3 DUP2 SUB PUSH1 0x20 DUP5 ADD MSTORE PUSH1 0x9 DUP2 MSTORE PUSH9 0x22BC31B2B83A34B7B7 PUSH1 0xB9 SHL PUSH1 0x20 DUP3 ADD MSTORE PUSH1 0x40 DUP2 ADD SWAP2 POP POP SWAP3 SWAP2 POP POP JUMP JUMPDEST PUSH1 0x20 DUP2 MSTORE PUSH1 0x0 PUSH2 0x13C5 PUSH1 0x20 DUP4 ADD DUP5 PUSH2 0x1926 JUMP JUMPDEST PUSH1 0x1 DUP2 DUP2 SHR SWAP1 DUP3 AND DUP1 PUSH2 0x1B53 JUMPI PUSH1 0x7F DUP3 AND SWAP2 POP JUMPDEST PUSH1 0x20 DUP3 LT DUP2 EQ ISZERO PUSH2 0x15EF JUMPI PUSH4 0x4E487B71 PUSH1 0xE0 SHL PUSH1 0x0 MSTORE PUSH1 0x22 PUSH1 0x4 MSTORE PUSH1 0x24 PUSH1 0x0 REVERT JUMPDEST PUSH1 0x0 PUSH1 0x20 DUP1 DUP4 MSTORE PUSH1 0x0 DUP5 SLOAD DUP2 PUSH1 0x1 DUP3 DUP2 SHR SWAP2 POP DUP1 DUP4 AND DUP1 PUSH2 0x1B96 JUMPI PUSH1 0x7F DUP4 AND SWAP3 POP JUMPDEST DUP6 DUP4 LT DUP2 EQ ISZERO PUSH2 0x1BB4 JUMPI PUSH4 0x4E487B71 PUSH1 0xE0 SHL DUP6 MSTORE PUSH1 0x22 PUSH1 0x4 MSTORE PUSH1 0x24 DUP6 REVERT JUMPDEST DUP8 DUP7 ADD DUP4 DUP2 MSTORE PUSH1 0x20 ADD DUP2 DUP1 ISZERO PUSH2 0x1BD1 JUMPI PUSH1 0x1 DUP2 EQ PUSH2 0x1BE2 JUMPI PUSH2 0x1C0D JUMP JUMPDEST PUSH1 0xFF NOT DUP7 AND DUP3 MSTORE DUP8 DUP3 ADD SWAP7 POP PUSH2 0x1C0D JUMP JUMPDEST PUSH1 0x0 DUP12 DUP2 MSTORE PUSH1 0x20 SWAP1 KECCAK256 PUSH1 0x0 JUMPDEST DUP7 DUP2 LT ISZERO PUSH2 0x1C07 JUMPI DUP2 SLOAD DUP5 DUP3 ADD MSTORE SWAP1 DUP6 ADD SWAP1 DUP10 ADD PUSH2 0x1BEE JUMP JUMPDEST DUP4 ADD SWAP8 POP POP JUMPDEST POP SWAP5 SWAP10 SWAP9 POP POP POP POP POP POP POP POP POP JUMP JUMPDEST PUSH4 0x4E487B71 PUSH1 0xE0 SHL PUSH1 0x0 MSTORE PUSH1 0x11 PUSH1 0x4 MSTORE PUSH1 0x24 PUSH1 0x0 REVERT JUMPDEST PUSH1 0x0 DUP3 NOT DUP3 GT ISZERO PUSH2 0x1C45 JUMPI PUSH2 0x1C45 PUSH2 0x1C1C JUMP JUMPDEST POP ADD SWAP1 JUMP JUMPDEST PUSH1 0x1 PUSH1 0x1 PUSH1 0xA0 SHL SUB DUP10 DUP2 AND DUP3 MSTORE PUSH1 0x20 DUP3 ADD DUP10 SWAP1 MSTORE PUSH1 0x40 DUP3 ADD DUP9 SWAP1 MSTORE DUP7 AND PUSH1 0x60 DUP3 ADD MSTORE PUSH1 0x1 PUSH1 0x1 PUSH1 0xE0 SHL SUB NOT DUP6 AND PUSH1 0x80 DUP3 ADD MSTORE PUSH1 0xA0 DUP2 ADD DUP5 SWAP1 MSTORE PUSH1 0xC0 DUP2 ADD DUP4 SWAP1 MSTORE PUSH2 0x100 PUSH1 0xE0 DUP3 ADD DUP2 SWAP1 MSTORE PUSH1 0x0 SWAP1 PUSH2 0x1CA3 DUP4 DUP3 ADD DUP6 PUSH2 0x1926 JUMP JUMPDEST SWAP12 SWAP11 POP POP POP POP POP POP POP POP POP POP POP JUMP JUMPDEST PUSH1 0x1 DUP1 PUSH1 0xA0 SHL SUB DUP5 AND DUP2 MSTORE DUP3 PUSH1 0x20 DUP3 ADD MSTORE PUSH1 0x60 PUSH1 0x40 DUP3 ADD MSTORE PUSH1 0x0 PUSH2 0xFB9 PUSH1 0x60 DUP4 ADD DUP5 PUSH2 0x1926 JUMP JUMPDEST PUSH1 0x0 DUP3 PUSH2 0x1CF6 JUMPI PUSH4 0x4E487B71 PUSH1 0xE0 SHL PUSH1 0x0 MSTORE PUSH1 0x12 PUSH1 0x4 MSTORE PUSH1 0x24 PUSH1 0x0 REVERT JUMPDEST POP MOD SWAP1 JUMP JUMPDEST PUSH1 0x0 DUP3 DUP3 LT ISZERO PUSH2 0x1D0D JUMPI PUSH2 0x1D0D PUSH2 0x1C1C JUMP JUMPDEST POP SUB SWAP1 JUMP JUMPDEST PUSH1 0x0 DUP2 PUSH1 0x0 NOT DIV DUP4 GT DUP3 ISZERO ISZERO AND ISZERO PUSH2 0x1D2C JUMPI PUSH2 0x1D2C PUSH2 0x1C1C JUMP JUMPDEST POP MUL SWAP1 JUMP JUMPDEST PUSH1 0x1 DUP2 DUP2 JUMPDEST DUP1 DUP6 GT ISZERO PUSH2 0x1D6C JUMPI DUP2 PUSH1 0x0 NOT DIV DUP3 GT ISZERO PUSH2 0x1D52 JUMPI PUSH2 0x1D52 PUSH2 0x1C1C JUMP JUMPDEST DUP1 DUP6 AND ISZERO PUSH2 0x1D5F JUMPI SWAP2 DUP2 MUL SWAP2 JUMPDEST SWAP4 DUP5 SHR SWAP4 SWAP1 DUP1 MUL SWAP1 PUSH2 0x1D36 JUMP JUMPDEST POP SWAP3 POP SWAP3 SWAP1 POP JUMP JUMPDEST PUSH1 0x0 DUP3 PUSH2 0x1D83 JUMPI POP PUSH1 0x1 PUSH2 0x12C4 JUMP JUMPDEST DUP2 PUSH2 0x1D90 JUMPI POP PUSH1 0x0 PUSH2 0x12C4 JUMP JUMPDEST DUP2 PUSH1 0x1 DUP2 EQ PUSH2 0x1DA6 JUMPI PUSH1 0x2 DUP2 EQ PUSH2 0x1DB0 JUMPI PUSH2 0x1DCC JUMP JUMPDEST PUSH1 0x1 SWAP2 POP POP PUSH2 0x12C4 JUMP JUMPDEST PUSH1 0xFF DUP5 GT ISZERO PUSH2 0x1DC1 JUMPI PUSH2 0x1DC1 PUSH2 0x1C1C JUMP JUMPDEST POP POP PUSH1 0x1 DUP3 SHL PUSH2 0x12C4 JUMP JUMPDEST POP PUSH1 0x20 DUP4 LT PUSH2 0x133 DUP4 LT AND PUSH1 0x4E DUP5 LT PUSH1 0xB DUP5 LT AND OR ISZERO PUSH2 0x1DEF JUMPI POP DUP2 DUP2 EXP PUSH2 0x12C4 JUMP JUMPDEST PUSH2 0x1DF9 DUP4 DUP4 PUSH2 0x1D31 JUMP JUMPDEST DUP1 PUSH1 0x0 NOT DIV DUP3 GT ISZERO PUSH2 0x1E0D JUMPI PUSH2 0x1E0D PUSH2 0x1C1C JUMP JUMPDEST MUL SWAP4 SWAP3 POP POP POP JUMP JUMPDEST PUSH1 0x0 PUSH2 0x13C5 DUP4 DUP4 PUSH2 0x1D74 JUMP INVALID LOG2 PUSH5 0x6970667358 0x22 SLT KECCAK256 ADDRESS SDIV 0xE6 0xAB 0xB5 GT 0x23 DUP5 EXP 0xCC SDIV 0xD7 0xAF 0x4B CODESIZE PUSH19 0x4E172C3DB894458D0B8304EA3B1D862664736F PUSH13 0x63430008090033000000000000 ",
  "sha1": "e9e047b975e473afb3381e750b72330e5af51a40",
  "source": "// SPDX-License-Identifier: MIT\npragma solidity ^0.8.7;\n\nimport \"@chainlink/contracts/src/v0.8/ChainlinkClient.sol\";\nimport \"./strings.sol\";\n\ncontract Escrow is ChainlinkClient {\n    using Chainlink for Chainlink.Request;\n    using strings for string;\n    using strings for bytes32;\n\n    uint256 private oracleFee;\n    address private oracle;\n    bytes32 private jobId;\n    uint256 public currentBlock;\n\n    struct Product {\n        bytes32 deliveryStatus;\n        Stage stage;\n        uint256 id;\n        uint256 price;\n        uint256 lockPeriod;\n        address owner;\n        address buyer;\n        // IERC20 currency;\n        string trackingId;\n        string name;\n        string productURI;\n    }\n\n    enum Stage {\n        Initiate,\n        WaitForShipping,\n        Shipping,\n        Delivered,\n        End\n    }\n\n    Product public product;\n\n    event OrderInitiate(address indexed _buyer);\n    event OrderCancel(address indexed _buyer);\n\n    event ShipmentInprogress(string trackingNo);\n    event ShipmentUpdated(bytes32 status);\n    event OrderCompleted(string trackingNo);\n\n    modifier validStage(Stage _stage, string memory message) {\n        require(product.stage == _stage, message);\n        _;\n    }\n\n    modifier onlyBuyer() {\n        require(msg.sender == product.buyer, \"Only Buyer\");\n        _;\n    }\n\n    modifier onlyOwner() {\n        require(msg.sender == product.owner, \"Only Owner\");\n        _;\n    }\n\n    constructor() {\n        product.owner = msg.sender;\n    }\n\n    function init(\n        string memory _name,\n        bytes32 _jobId,\n        address _link,\n        address _oracle,\n        address _seller,\n        uint256 _id,\n        uint256 _price,\n        uint256 _lockPeriod,\n        uint256 _oracleFee\n    ) external onlyOwner {\n        // setPublicChainlinkToken();\n        setChainlinkToken(_link);\n        oracle = _oracle;\n        jobId = _jobId;\n        oracleFee = _oracleFee;\n\n        product.id = _id;\n        product.lockPeriod = _lockPeriod;\n        product.name = _name;\n        product.stage = Stage.Initiate;\n        product.owner = _seller;\n        product.price = _price;\n    }\n\n    function setProductURI(string memory _productURI) public onlyOwner {\n        product.productURI = _productURI;\n    }\n\n    function order()\n        external\n        payable\n        validStage(Stage.Initiate, \"Already have a buyer\")\n    {\n        require(msg.sender != product.owner, \"You can not buy from yourself\");\n        require(msg.value >= product.price, \"Not enough fund\");\n        product.stage = Stage.WaitForShipping;\n        product.buyer = msg.sender;\n        currentBlock = block.number;\n        // currency.transferFrom(msg.sender, address(this), price);\n        emit OrderInitiate(product.buyer);\n    }\n\n    function isAbleToCancelOrder() public view returns (bool) {\n        return\n            block.number >= currentBlock + product.lockPeriod &&\n            product.stage == Stage.WaitForShipping;\n    }\n\n    function isDeliveredFail() public view returns (bool) {\n        return\n            product.stage == Stage.Shipping &&\n            product.deliveryStatus.bytes32ToString().compareStrings(\n                \"Exception\"\n            );\n    }\n\n    function cancelOrder() external onlyBuyer {\n        require(isAbleToCancelOrder(), \"Not allowed to cancel order\");\n        product.buyer = address(0);\n        product.stage = Stage.Initiate;\n        // currency.transfer(msg.sender, price);\n        payable(msg.sender).transfer(address(this).balance);\n        emit OrderCancel(msg.sender);\n    }\n\n    function updateShipment(string memory _trackingId)\n        external\n        onlyOwner\n        validStage(Stage.WaitForShipping, \"Invalid Stage\")\n    {\n        require(bytes(_trackingId).length > 0, \"trackingId must not empty\");\n        product.stage = Stage.Shipping;\n        product.trackingId = _trackingId;\n        emit ShipmentInprogress(product.trackingId);\n    }\n\n    function requestShippingDetail()\n        external\n        validStage(Stage.Shipping, \"Need shipment\")\n    {\n        Chainlink.Request memory req = buildChainlinkRequest(\n            jobId,\n            address(this),\n            this.fulfillShippingDetail.selector\n        );\n\n        req.add(\"trackingId\", product.trackingId);\n        bytes32 requestId = sendChainlinkRequestTo(oracle, req, oracleFee);\n        emit ChainlinkRequested(requestId);\n    }\n\n    function fulfillShippingDetail(bytes32 _requestId, bytes32 _deliveryStatus)\n        public\n        recordChainlinkFulfillment(_requestId)\n    {\n        product.deliveryStatus = _deliveryStatus;\n        if (_deliveryStatus.bytes32ToString().compareStrings(\"Delivered\")) {\n            product.stage = Stage.Delivered;\n        }\n\n        emit ShipmentUpdated(_deliveryStatus);\n    }\n\n    function reclaimBuyer(bool _reclaim) external onlyBuyer {\n        require(isDeliveredFail(), \"Delivered in progress\");\n        if (_reclaim) {\n            payable(msg.sender).transfer(address(this).balance);\n            product.stage = Stage.Initiate;\n            product.buyer = address(0);\n        } else {\n            // let's seller resend the product again\n            product.stage = Stage.WaitForShipping;\n        }\n\n        product.deliveryStatus = \"\";\n    }\n\n    function reclaimFund()\n        external\n        onlyOwner\n        validStage(Stage.Delivered, \"Invalid Stage\")\n    {\n        // currency.transfer(msg.sender, address(this).balance);\n        product.stage = Stage.End;\n        payable(msg.sender).transfer(address(this).balance);\n    }\n}\n",
  "sourcePath": "contracts/Escrow.sol",
  "type": "contract"
}