{
  "abi": [
    {
      "inputs": [
        {
          "internalType": "bytes32",
          "name": "_jobId",
          "type": "bytes32"
        },
        {
          "internalType": "address",
          "name": "_linkToken",
          "type": "address"
        },
        {
          "internalType": "address",
          "name": "_oracle",
          "type": "address"
        },
        {
          "internalType": "uint256",
          "name": "_maxLockPeriod",
          "type": "uint256"
        }
      ],
      "stateMutability": "nonpayable",
      "type": "constructor"
    },
    {
      "anonymous": false,
      "inputs": [
        {
          "indexed": true,
          "internalType": "address",
          "name": "previousOwner",
          "type": "address"
        },
        {
          "indexed": true,
          "internalType": "address",
          "name": "newOwner",
          "type": "address"
        }
      ],
      "name": "OwnershipTransferred",
      "type": "event"
    },
    {
      "anonymous": false,
      "inputs": [
        {
          "indexed": true,
          "internalType": "address",
          "name": "seller",
          "type": "address"
        },
        {
          "indexed": false,
          "internalType": "address",
          "name": "product",
          "type": "address"
        }
      ],
      "name": "ProductCreated",
      "type": "event"
    },
    {
      "inputs": [
        {
          "internalType": "string",
          "name": "_name",
          "type": "string"
        },
        {
          "internalType": "uint256",
          "name": "_price",
          "type": "uint256"
        },
        {
          "internalType": "string",
          "name": "_productURI",
          "type": "string"
        },
        {
          "internalType": "uint256",
          "name": "_lockPeriod",
          "type": "uint256"
        }
      ],
      "name": "createProduct",
      "outputs": [],
      "stateMutability": "nonpayable",
      "type": "function"
    },
    {
      "inputs": [],
      "name": "maxLockPeriod",
      "outputs": [
        {
          "internalType": "uint256",
          "name": "",
          "type": "uint256"
        }
      ],
      "stateMutability": "view",
      "type": "function"
    },
    {
      "inputs": [],
      "name": "owner",
      "outputs": [
        {
          "internalType": "address",
          "name": "",
          "type": "address"
        }
      ],
      "stateMutability": "view",
      "type": "function"
    },
    {
      "inputs": [],
      "name": "productCount",
      "outputs": [
        {
          "internalType": "uint256",
          "name": "",
          "type": "uint256"
        }
      ],
      "stateMutability": "view",
      "type": "function"
    },
    {
      "inputs": [],
      "name": "renounceOwnership",
      "outputs": [],
      "stateMutability": "nonpayable",
      "type": "function"
    },
    {
      "inputs": [
        {
          "internalType": "uint256",
          "name": "_maxLockPeriod",
          "type": "uint256"
        }
      ],
      "name": "setMaxLockPeriod",
      "outputs": [],
      "stateMutability": "nonpayable",
      "type": "function"
    },
    {
      "inputs": [
        {
          "internalType": "address",
          "name": "newOwner",
          "type": "address"
        }
      ],
      "name": "transferOwnership",
      "outputs": [],
      "stateMutability": "nonpayable",
      "type": "function"
    }
  ],
  "bytecode": "608060405234801561001057600080fd5b506040516127b83803806127b883398101604081905261002f916100e7565b6100383361007b565b600180546001600160a01b039485166001600160a01b0319918216179091556002805493909416921691909117909155600391909155600060055560045561012b565b600080546001600160a01b038381166001600160a01b0319831681178455604051919092169283917f8be0079c531659141344cd1fd0a4f28419497f9722a3daafe3b4186f6b6457e09190a35050565b80516001600160a01b03811681146100e257600080fd5b919050565b600080600080608085870312156100fd57600080fd5b8451935061010d602086016100cb565b925061011b604086016100cb565b6060959095015193969295505050565b61267e8061013a6000396000f3fe608060405234801561001057600080fd5b506004361061007d5760003560e01c80638da5cb5b1161005b5780638da5cb5b146100bb578063a06fc346146100d6578063e0f6ef87146100e9578063f2fde38b146100f257600080fd5b80634b1d29b41461008257806355889d011461009e578063715018a6146100b3575b600080fd5b61008b60045481565b6040519081526020015b60405180910390f35b6100b16100ac3660046104fe565b610105565b005b6100b161013d565b6000546040516001600160a01b039091168152602001610095565b6100b16100e43660046105ba565b610173565b61008b60055481565b6100b161010036600461062f565b610406565b6000546001600160a01b031633146101385760405162461bcd60e51b815260040161012f9061065f565b60405180910390fd5b600455565b6000546001600160a01b031633146101675760405162461bcd60e51b815260040161012f9061065f565b61017160006104a1565b565b60045481111561018257506004545b6005546040516000908190610199602082016104f1565b601f1982820381018352601f909101166040818152602082018690526bffffffffffffffffffffffff193360601b169082015260548101889052909150600090607401604051602081830303815290604052805190602001209050808251602084016000f56040516312b383d560e31b81529093506001600160a01b0384169063959c1ea89061022d9089906004016106e1565b600060405180830381600087803b15801561024757600080fd5b505af115801561025b573d6000803e3d6000fd5b50505050826001600160a01b03166316833f3189600354600160009054906101000a90046001600160a01b0316600260009054906101000a90046001600160a01b0316338a8e8d670de0b6b3a76400006040518a63ffffffff1660e01b81526004016102cf999897969594939291906106f4565b600060405180830381600087803b1580156102e957600080fd5b505af11580156102fd573d6000803e3d6000fd5b5050600180546001600160a01b0316925063a9059cbb9150859061032a90670de0b6b3a764000090610768565b6040516001600160e01b031960e085901b1681526001600160a01b0390921660048301526024820152604401602060405180830381600087803b15801561037057600080fd5b505af1158015610384573d6000803e3d6000fd5b505050506040513d601f19601f820116820180604052508101906103a89190610787565b50600580549060006103b9836107a9565b90915550506040516001600160a01b038416815233907fa66df2ac9413442073c2e47b33e555f5891823df7841196bd1f197175a12f8ae9060200160405180910390a25050505050505050565b6000546001600160a01b031633146104305760405162461bcd60e51b815260040161012f9061065f565b6001600160a01b0381166104955760405162461bcd60e51b815260206004820152602660248201527f4f776e61626c653a206e6577206f776e657220697320746865207a65726f206160448201526564647265737360d01b606482015260840161012f565b61049e816104a1565b50565b600080546001600160a01b038381166001600160a01b0319831681178455604051919092169283917f8be0079c531659141344cd1fd0a4f28419497f9722a3daafe3b4186f6b6457e09190a35050565b611e84806107c583390190565b60006020828403121561051057600080fd5b5035919050565b634e487b7160e01b600052604160045260246000fd5b600082601f83011261053e57600080fd5b813567ffffffffffffffff8082111561055957610559610517565b604051601f8301601f19908116603f0116810190828211818310171561058157610581610517565b8160405283815286602085880101111561059a57600080fd5b836020870160208301376000602085830101528094505050505092915050565b600080600080608085870312156105d057600080fd5b843567ffffffffffffffff808211156105e857600080fd5b6105f48883890161052d565b955060208701359450604087013591508082111561061157600080fd5b5061061e8782880161052d565b949793965093946060013593505050565b60006020828403121561064157600080fd5b81356001600160a01b038116811461065857600080fd5b9392505050565b6020808252818101527f4f776e61626c653a2063616c6c6572206973206e6f7420746865206f776e6572604082015260600190565b6000815180845260005b818110156106ba5760208185018101518683018201520161069e565b818111156106cc576000602083870101525b50601f01601f19169290920160200192915050565b6020815260006106586020830184610694565b60006101208083526107088184018d610694565b602084019b909b5250506001600160a01b039788166040820152958716606087015293909516608085015260a084019190915260c083015260e08201929092526101000152919050565b634e487b7160e01b600052601160045260246000fd5b600081600019048311821515161561078257610782610752565b500290565b60006020828403121561079957600080fd5b8151801515811461065857600080fd5b60006000198214156107bd576107bd610752565b506001019056fe6080604052600160045534801561001557600080fd5b50600f80546001600160a01b03191633179055611e4d806100376000396000f3fe6080604052600436106100c25760003560e01c80636a8165481161007f578063959c1ea811610059578063959c1ea8146101c7578063bf15071d146101e7578063bf9ce952146101ef578063e12ed13c1461021a57600080fd5b80636a816548146101885780636b827cd41461019d57806374774750146101b257600080fd5b806309d99f67146100c757806316833f31146100e95780631820e56d14610109578063366e8e5214610133578063507370551461014857806359686c9f14610168575b600080fd5b3480156100d357600080fd5b506100e76100e23660046116d9565b61023e565b005b3480156100f557600080fd5b506100e76101043660046117dc565b61045d565b34801561011557600080fd5b5061011e61051c565b60405190151581526020015b60405180910390f35b34801561013f57600080fd5b506100e7610655565b34801561015457600080fd5b506100e761016336600461187a565b61071f565b34801561017457600080fd5b506100e76101833660046118bd565b61084c565b34801561019457600080fd5b506100e7610940565b3480156101a957600080fd5b506100e7610a4f565b3480156101be57600080fd5b5061011e610bdf565b3480156101d357600080fd5b506100e76101e236600461187a565b610c1a565b6100e7610c5b565b3480156101fb57600080fd5b50610204610db5565b60405161012a9a99989796959493929190611948565b34801561022657600080fd5b5061023060095481565b60405190815260200161012a565b60008281526005602052604090205482906001600160a01b031633146102bc5760405162461bcd60e51b815260206004820152602860248201527f536f75726365206d75737420626520746865206f7261636c65206f6620746865604482015267081c995c5d595cdd60c21b60648201526084015b60405180910390fd5b60008181526005602052604080822080546001600160a01b03191690555182917f7cc135e0cebb02c3480ae5d74d377283180a2601f8f644edf7987b009316c63a91a2600a829055604051639201de5560e01b81526004810183905273__strings_______________________________90639201de559060240160006040518083038186803b15801561034f57600080fd5b505af4158015610363573d6000803e3d6000fd5b505050506040513d6000823e601f3d908101601f1916820160405261038b91908101906119f7565b604051635f69a5dd60e11b815273__strings_______________________________9163bed34bba916103c19190600401611a65565b60206040518083038186803b1580156103d957600080fd5b505af41580156103ed573d6000803e3d6000fd5b505050506040513d601f19601f820116820180604052508101906104119190611aa3565b1561042457600b805460ff191660031790555b6040518281527f65fb20badd0fcfd3bf3ba0ca9bfe4ec522640041a07decd17f1be1fb0ead4f4a906020015b60405180910390a1505050565b600f546001600160a01b031633146104875760405162461bcd60e51b81526004016102b390611ac0565b600280546001600160a01b0319166001600160a01b038916179055600780546001600160a01b0319166001600160a01b03881617905560088890556006819055600c849055600e82905588516104e49060129060208c0190611605565b5050600b805460ff1916905550600f80546001600160a01b0319166001600160a01b03949094169390931790925550600d5550505050565b60006002600b5460ff166004811115610537576105376118da565b1480156106505750600a54604051639201de5560e01b8152600481019190915273__strings_______________________________90639201de559060240160006040518083038186803b15801561058e57600080fd5b505af41580156105a2573d6000803e3d6000fd5b505050506040513d6000823e601f3d908101601f191682016040526105ca91908101906119f7565b604051635f69a5dd60e11b815273__strings_______________________________9163bed34bba916106009190600401611ae4565b60206040518083038186803b15801561061857600080fd5b505af415801561062c573d6000803e3d6000fd5b505050506040513d601f19601f820116820180604052508101906106509190611aa3565b905090565b600f546001600160a01b0316331461067f5760405162461bcd60e51b81526004016102b390611ac0565b60408051808201909152600d81526c496e76616c696420537461676560981b602082015260039081600b5460ff1660048111156106be576106be6118da565b1481906106de5760405162461bcd60e51b81526004016102b39190611b22565b50600b8054600460ff1990911617905560405133904780156108fc02916000818181858888f1935050505015801561071a573d6000803e3d6000fd5b505050565b600f546001600160a01b031633146107495760405162461bcd60e51b81526004016102b390611ac0565b60408051808201909152600d81526c496e76616c696420537461676560981b602082015260019081600b5460ff166004811115610788576107886118da565b1481906107a85760405162461bcd60e51b81526004016102b39190611b22565b5060008351116107fa5760405162461bcd60e51b815260206004820152601960248201527f747261636b696e674964206d757374206e6f7420656d7074790000000000000060448201526064016102b3565b600b805460ff19166002179055825161081a906011906020860190611605565b506040517f1862cf7a0e12bac162f518f43c2f50df187e89045899a7c015c1d61d9880a11b9061045090601190611b6a565b6010546001600160a01b031633146108935760405162461bcd60e51b815260206004820152600a60248201526927b7363c90213abcb2b960b11b60448201526064016102b3565b61089b61051c565b6108df5760405162461bcd60e51b815260206004820152601560248201527444656c69766572656420696e2070726f677265737360581b60448201526064016102b3565b801561092f5760405133904780156108fc02916000818181858888f19350505050158015610911573d6000803e3d6000fd5b5050600b805460ff19169055601080546001600160a01b0319169055565b600b805460ff191660011790555b50565b6010546001600160a01b031633146109875760405162461bcd60e51b815260206004820152600a60248201526927b7363c90213abcb2b960b11b60448201526064016102b3565b61098f610bdf565b6109db5760405162461bcd60e51b815260206004820152601b60248201527f4e6f7420616c6c6f77656420746f2063616e63656c206f72646572000000000060448201526064016102b3565b601080546001600160a01b0319169055600b805460ff1916905560405133904780156108fc02916000818181858888f19350505050158015610a21573d6000803e3d6000fd5b5060405133907f393629f15e859a19530bab9675f9d39f0f57889f19f883bc5be3533c4a2c9ea890600090a2565b60408051808201909152600d81526c13995959081cda1a5c1b595b9d609a1b602082015260029081600b5460ff166004811115610a8e57610a8e6118da565b148190610aae5760405162461bcd60e51b81526004016102b39190611b22565b506000610ac5600854306309d99f6760e01b610f96565b9050610b8b6040518060400160405280600a8152602001691d1c9858dada5b99d25960b21b815250600a6007018054610afd90611b35565b80601f0160208091040260200160405190810160405280929190818152602001828054610b2990611b35565b8015610b765780601f10610b4b57610100808354040283529160200191610b76565b820191906000526020600020905b815481529060010190602001808311610b5957829003601f168201915b505050505083610fbb9092919063ffffffff16565b600754600654600091610bab916001600160a01b03909116908490610fd9565b60405190915081907fb5e6e01e79f91267dc17b4e6314d5d4d03593d2ceee0fbb452b750bd70ea5af990600090a250505050565b600e54600954600091610bf191611c28565b431015801561065057506001600b5460ff166004811115610c1457610c146118da565b14905090565b600f546001600160a01b03163314610c445760405162461bcd60e51b81526004016102b390611ac0565b8051610c57906013906020840190611605565b5050565b60408051808201909152601481527320b63932b0b23c903430bb32903090313abcb2b960611b602082015260009081600b5460ff166004811115610ca157610ca16118da565b148190610cc15760405162461bcd60e51b81526004016102b39190611b22565b50600f546001600160a01b0316331415610d1d5760405162461bcd60e51b815260206004820152601d60248201527f596f752063616e206e6f74206275792066726f6d20796f757273656c6600000060448201526064016102b3565b600d54341015610d615760405162461bcd60e51b815260206004820152600f60248201526e139bdd08195b9bdd59da08199d5b99608a1b60448201526064016102b3565b600b805460ff1916600117905560108054336001600160a01b03199091168117909155436009556040517fe4caeaef8e4f0c4880839ca47219351b38cf4116c082fd0baefc3008e4ba11a390600090a25050565b600a8054600b54600c54600d54600e54600f5460105460118054979860ff909716979596949593946001600160a01b03938416949390921692610df790611b35565b80601f0160208091040260200160405190810160405280929190818152602001828054610e2390611b35565b8015610e705780601f10610e4557610100808354040283529160200191610e70565b820191906000526020600020905b815481529060010190602001808311610e5357829003601f168201915b505050505090806008018054610e8590611b35565b80601f0160208091040260200160405190810160405280929190818152602001828054610eb190611b35565b8015610efe5780601f10610ed357610100808354040283529160200191610efe565b820191906000526020600020905b815481529060010190602001808311610ee157829003601f168201915b505050505090806009018054610f1390611b35565b80601f0160208091040260200160405190810160405280929190818152602001828054610f3f90611b35565b8015610f8c5780601f10610f6157610100808354040283529160200191610f8c565b820191906000526020600020905b815481529060010190602001808311610f6f57829003601f168201915b505050505090508a565b610f9e611689565b610fa6611689565b610fb281868686610ff8565b95945050505050565b6080830151610fca9083611035565b608083015161071a9082611035565b6000610ff084848460016320214ca360e11b61104c565b949350505050565b611000611689565b6110108560800151610100611258565b50509183526001600160a01b031660208301526001600160e01b031916604082015290565b61104282600383516112c3565b61071a8282611397565b6004546040516bffffffffffffffffffffffff193060601b166020820152603481019190915260009060540160408051808303601f19018152918152815160209283012060045460608901526000818152600590935281832080546001600160a01b0319166001600160a01b038b16179055905190925082917fb5e6e01e79f91267dc17b4e6314d5d4d03593d2ceee0fbb452b750bd70ea5af991a2600082600080886000015189602001518a604001518b606001518a8d6080015160000151604051602401611123989796959493929190611c40565b60408051601f198184030181529181526020820180516001600160e01b03166001600160e01b0319909416939093179092526002549151630200057560e51b81529092506001600160a01b0390911690634000aea09061118b908a9089908690600401611ca8565b602060405180830381600087803b1580156111a557600080fd5b505af11580156111b9573d6000803e3d6000fd5b505050506040513d601f19601f820116820180604052508101906111dd9190611aa3565b6112355760405162461bcd60e51b815260206004820152602360248201527f756e61626c6520746f207472616e73666572416e6443616c6c20746f206f7261604482015262636c6560e81b60648201526084016102b3565b6001600460008282546112489190611c28565b9091555091979650505050505050565b604080518082019091526060815260006020820152611278602083611ccf565b156112a057611288602083611ccf565b611293906020611cf1565b61129d9083611c28565b91505b506020808301829052604080518085526000815283019091019052815b92915050565b601781116112e4576112de8360e0600585901b1683176113c5565b50505050565b60ff811161130e57611301836018611fe0600586901b16176113c5565b506112de838260016113ea565b61ffff81116113395761132c836019611fe0600586901b16176113c5565b506112de838260026113ea565b63ffffffff81116113665761135983601a611fe0600586901b16176113c5565b506112de838260046113ea565b67ffffffffffffffff811161071a5761138a83601b611fe0600586901b16176113c5565b506112de838260086113ea565b6040805180820190915260608152600060208201526113be83846000015151848551611410565b9392505050565b6040805180820190915260608152600060208201526113be83846000015151846114fa565b604080518082019091526060815260006020820152610ff0848560000151518585611556565b604080518082019091526060815260006020820152825182111561143357600080fd5b60208501516114428386611c28565b11156114755761147585611465876020015187866114609190611c28565b6115d7565b611470906002611d08565b6115ee565b6000808651805187602083010193508088870111156114945787860182525b505050602084015b602084106114d457805182526114b3602083611c28565b91506114c0602082611c28565b90506114cd602085611cf1565b935061149c565b51815160001960208690036101000a019081169019919091161790525083949350505050565b6040805180820190915260608152600060208201528360200151831061152f5761152f84856020015160026114709190611d08565b83518051602085830101848153508085141561154c576001810182525b5093949350505050565b604080518082019091526060815260006020820152602085015161157a8584611c28565b111561158e5761158e856114658685611c28565b6000600161159e84610100611e0b565b6115a89190611cf1565b90508551838682010185831982511617815250805184870111156115cc5783860181525b509495945050505050565b6000818311156115e85750816112bd565b50919050565b81516115fa8383611258565b506112de8382611397565b82805461161190611b35565b90600052602060002090601f0160209004810192826116335760008555611679565b82601f1061164c57805160ff1916838001178555611679565b82800160010185558215611679579182015b8281111561167957825182559160200191906001019061165e565b506116859291506116c4565b5090565b6040805160a0810182526000808252602080830182905282840182905260608084018390528451808601909552845283015290608082015290565b5b8082111561168557600081556001016116c5565b600080604083850312156116ec57600080fd5b50508035926020909101359150565b634e487b7160e01b600052604160045260246000fd5b604051601f8201601f1916810167ffffffffffffffff8111828210171561173a5761173a6116fb565b604052919050565b600067ffffffffffffffff82111561175c5761175c6116fb565b50601f01601f191660200190565b600082601f83011261177b57600080fd5b813561178e61178982611742565b611711565b8181528460208386010111156117a357600080fd5b816020850160208301376000918101602001919091529392505050565b80356001600160a01b03811681146117d757600080fd5b919050565b60008060008060008060008060006101208a8c0312156117fb57600080fd5b893567ffffffffffffffff81111561181257600080fd5b61181e8c828d0161176a565b99505060208a0135975061183460408b016117c0565b965061184260608b016117c0565b955061185060808b016117c0565b989b979a50959894979660a0860135965060c08601359560e0810135955061010001359350915050565b60006020828403121561188c57600080fd5b813567ffffffffffffffff8111156118a357600080fd5b610ff08482850161176a565b801515811461093d57600080fd5b6000602082840312156118cf57600080fd5b81356113be816118af565b634e487b7160e01b600052602160045260246000fd5b60005b8381101561190b5781810151838201526020016118f3565b838111156112de5750506000910152565b600081518084526119348160208601602086016118f0565b601f01601f19169290920160200192915050565b60006101408c835260058c1061196e57634e487b7160e01b600052602160045260246000fd5b8b60208401528a604084015289606084015288608084015261199b60a08401896001600160a01b03169052565b6001600160a01b03871660c08401528060e08401526119bc8184018761191c565b90508281036101008401526119d1818661191c565b90508281036101208401526119e6818561191c565b9d9c50505050505050505050505050565b600060208284031215611a0957600080fd5b815167ffffffffffffffff811115611a2057600080fd5b8201601f81018413611a3157600080fd5b8051611a3f61178982611742565b818152856020838501011115611a5457600080fd5b610fb28260208301602086016118f0565b604081526000611a78604083018461191c565b8281036020840152600981526811195b1a5d995c995960ba1b60208201526040810191505092915050565b600060208284031215611ab557600080fd5b81516113be816118af565b6020808252600a908201526927b7363c9027bbb732b960b11b604082015260600190565b604081526000611af7604083018461191c565b8281036020840152600981526822bc31b2b83a34b7b760b91b60208201526040810191505092915050565b6020815260006113be602083018461191c565b600181811c90821680611b4957607f821691505b602082108114156115e857634e487b7160e01b600052602260045260246000fd5b600060208083526000845481600182811c915080831680611b8c57607f831692505b858310811415611baa57634e487b7160e01b85526022600452602485fd5b878601838152602001818015611bc75760018114611bd857611c03565b60ff19861682528782019650611c03565b60008b81526020902060005b86811015611bfd57815484820152908501908901611be4565b83019750505b50949998505050505050505050565b634e487b7160e01b600052601160045260246000fd5b60008219821115611c3b57611c3b611c12565b500190565b6001600160a01b0389811682526020820189905260408201889052861660608201526001600160e01b03198516608082015260a0810184905260c0810183905261010060e08201819052600090611c998382018561191c565b9b9a5050505050505050505050565b60018060a01b0384168152826020820152606060408201526000610fb2606083018461191c565b600082611cec57634e487b7160e01b600052601260045260246000fd5b500690565b600082821015611d0357611d03611c12565b500390565b6000816000190483118215151615611d2257611d22611c12565b500290565b600181815b80851115611d62578160001904821115611d4857611d48611c12565b80851615611d5557918102915b93841c9390800290611d2c565b509250929050565b600082611d79575060016112bd565b81611d86575060006112bd565b8160018114611d9c5760028114611da657611dc2565b60019150506112bd565b60ff841115611db757611db7611c12565b50506001821b6112bd565b5060208310610133831016604e8410600b8410161715611de5575081810a6112bd565b611def8383611d27565b8060001904821115611e0357611e03611c12565b029392505050565b60006113be8383611d6a56fea264697066735822122021249081bccf192514fe7782ac10eb3e35476aa4d8931c0c6642175da666e04064736f6c63430008090033a2646970667358221220c4489f69910fa24d38a48dbc2baace3984206e3acb52ccc3dce93b1ab645502864736f6c63430008090033",
  "bytecodeSha1": "c8e8a6e6285e2447e26fd6c92352322442156c06",
  "compiler": {
    "evm_version": "istanbul",
    "optimizer": {
      "enabled": true,
      "runs": 200
    },
    "version": "0.8.9+commit.e5eed63a"
  },
  "contractName": "EscrowFactory",
  "deployedBytecode": "608060405234801561001057600080fd5b506004361061007d5760003560e01c80638da5cb5b1161005b5780638da5cb5b146100bb578063a06fc346146100d6578063e0f6ef87146100e9578063f2fde38b146100f257600080fd5b80634b1d29b41461008257806355889d011461009e578063715018a6146100b3575b600080fd5b61008b60045481565b6040519081526020015b60405180910390f35b6100b16100ac3660046104fe565b610105565b005b6100b161013d565b6000546040516001600160a01b039091168152602001610095565b6100b16100e43660046105ba565b610173565b61008b60055481565b6100b161010036600461062f565b610406565b6000546001600160a01b031633146101385760405162461bcd60e51b815260040161012f9061065f565b60405180910390fd5b600455565b6000546001600160a01b031633146101675760405162461bcd60e51b815260040161012f9061065f565b61017160006104a1565b565b60045481111561018257506004545b6005546040516000908190610199602082016104f1565b601f1982820381018352601f909101166040818152602082018690526bffffffffffffffffffffffff193360601b169082015260548101889052909150600090607401604051602081830303815290604052805190602001209050808251602084016000f56040516312b383d560e31b81529093506001600160a01b0384169063959c1ea89061022d9089906004016106e1565b600060405180830381600087803b15801561024757600080fd5b505af115801561025b573d6000803e3d6000fd5b50505050826001600160a01b03166316833f3189600354600160009054906101000a90046001600160a01b0316600260009054906101000a90046001600160a01b0316338a8e8d670de0b6b3a76400006040518a63ffffffff1660e01b81526004016102cf999897969594939291906106f4565b600060405180830381600087803b1580156102e957600080fd5b505af11580156102fd573d6000803e3d6000fd5b5050600180546001600160a01b0316925063a9059cbb9150859061032a90670de0b6b3a764000090610768565b6040516001600160e01b031960e085901b1681526001600160a01b0390921660048301526024820152604401602060405180830381600087803b15801561037057600080fd5b505af1158015610384573d6000803e3d6000fd5b505050506040513d601f19601f820116820180604052508101906103a89190610787565b50600580549060006103b9836107a9565b90915550506040516001600160a01b038416815233907fa66df2ac9413442073c2e47b33e555f5891823df7841196bd1f197175a12f8ae9060200160405180910390a25050505050505050565b6000546001600160a01b031633146104305760405162461bcd60e51b815260040161012f9061065f565b6001600160a01b0381166104955760405162461bcd60e51b815260206004820152602660248201527f4f776e61626c653a206e6577206f776e657220697320746865207a65726f206160448201526564647265737360d01b606482015260840161012f565b61049e816104a1565b50565b600080546001600160a01b038381166001600160a01b0319831681178455604051919092169283917f8be0079c531659141344cd1fd0a4f28419497f9722a3daafe3b4186f6b6457e09190a35050565b611e84806107c583390190565b60006020828403121561051057600080fd5b5035919050565b634e487b7160e01b600052604160045260246000fd5b600082601f83011261053e57600080fd5b813567ffffffffffffffff8082111561055957610559610517565b604051601f8301601f19908116603f0116810190828211818310171561058157610581610517565b8160405283815286602085880101111561059a57600080fd5b836020870160208301376000602085830101528094505050505092915050565b600080600080608085870312156105d057600080fd5b843567ffffffffffffffff808211156105e857600080fd5b6105f48883890161052d565b955060208701359450604087013591508082111561061157600080fd5b5061061e8782880161052d565b949793965093946060013593505050565b60006020828403121561064157600080fd5b81356001600160a01b038116811461065857600080fd5b9392505050565b6020808252818101527f4f776e61626c653a2063616c6c6572206973206e6f7420746865206f776e6572604082015260600190565b6000815180845260005b818110156106ba5760208185018101518683018201520161069e565b818111156106cc576000602083870101525b50601f01601f19169290920160200192915050565b6020815260006106586020830184610694565b60006101208083526107088184018d610694565b602084019b909b5250506001600160a01b039788166040820152958716606087015293909516608085015260a084019190915260c083015260e08201929092526101000152919050565b634e487b7160e01b600052601160045260246000fd5b600081600019048311821515161561078257610782610752565b500290565b60006020828403121561079957600080fd5b8151801515811461065857600080fd5b60006000198214156107bd576107bd610752565b506001019056fe6080604052600160045534801561001557600080fd5b50600f80546001600160a01b03191633179055611e4d806100376000396000f3fe6080604052600436106100c25760003560e01c80636a8165481161007f578063959c1ea811610059578063959c1ea8146101c7578063bf15071d146101e7578063bf9ce952146101ef578063e12ed13c1461021a57600080fd5b80636a816548146101885780636b827cd41461019d57806374774750146101b257600080fd5b806309d99f67146100c757806316833f31146100e95780631820e56d14610109578063366e8e5214610133578063507370551461014857806359686c9f14610168575b600080fd5b3480156100d357600080fd5b506100e76100e23660046116d9565b61023e565b005b3480156100f557600080fd5b506100e76101043660046117dc565b61045d565b34801561011557600080fd5b5061011e61051c565b60405190151581526020015b60405180910390f35b34801561013f57600080fd5b506100e7610655565b34801561015457600080fd5b506100e761016336600461187a565b61071f565b34801561017457600080fd5b506100e76101833660046118bd565b61084c565b34801561019457600080fd5b506100e7610940565b3480156101a957600080fd5b506100e7610a4f565b3480156101be57600080fd5b5061011e610bdf565b3480156101d357600080fd5b506100e76101e236600461187a565b610c1a565b6100e7610c5b565b3480156101fb57600080fd5b50610204610db5565b60405161012a9a99989796959493929190611948565b34801561022657600080fd5b5061023060095481565b60405190815260200161012a565b60008281526005602052604090205482906001600160a01b031633146102bc5760405162461bcd60e51b815260206004820152602860248201527f536f75726365206d75737420626520746865206f7261636c65206f6620746865604482015267081c995c5d595cdd60c21b60648201526084015b60405180910390fd5b60008181526005602052604080822080546001600160a01b03191690555182917f7cc135e0cebb02c3480ae5d74d377283180a2601f8f644edf7987b009316c63a91a2600a829055604051639201de5560e01b81526004810183905273__$aadc688bcea560502e0213413fe0dcbaa2$__90639201de559060240160006040518083038186803b15801561034f57600080fd5b505af4158015610363573d6000803e3d6000fd5b505050506040513d6000823e601f3d908101601f1916820160405261038b91908101906119f7565b604051635f69a5dd60e11b815273__$aadc688bcea560502e0213413fe0dcbaa2$__9163bed34bba916103c19190600401611a65565b60206040518083038186803b1580156103d957600080fd5b505af41580156103ed573d6000803e3d6000fd5b505050506040513d601f19601f820116820180604052508101906104119190611aa3565b1561042457600b805460ff191660031790555b6040518281527f65fb20badd0fcfd3bf3ba0ca9bfe4ec522640041a07decd17f1be1fb0ead4f4a906020015b60405180910390a1505050565b600f546001600160a01b031633146104875760405162461bcd60e51b81526004016102b390611ac0565b600280546001600160a01b0319166001600160a01b038916179055600780546001600160a01b0319166001600160a01b03881617905560088890556006819055600c849055600e82905588516104e49060129060208c0190611605565b5050600b805460ff1916905550600f80546001600160a01b0319166001600160a01b03949094169390931790925550600d5550505050565b60006002600b5460ff166004811115610537576105376118da565b1480156106505750600a54604051639201de5560e01b8152600481019190915273__$aadc688bcea560502e0213413fe0dcbaa2$__90639201de559060240160006040518083038186803b15801561058e57600080fd5b505af41580156105a2573d6000803e3d6000fd5b505050506040513d6000823e601f3d908101601f191682016040526105ca91908101906119f7565b604051635f69a5dd60e11b815273__$aadc688bcea560502e0213413fe0dcbaa2$__9163bed34bba916106009190600401611ae4565b60206040518083038186803b15801561061857600080fd5b505af415801561062c573d6000803e3d6000fd5b505050506040513d601f19601f820116820180604052508101906106509190611aa3565b905090565b600f546001600160a01b0316331461067f5760405162461bcd60e51b81526004016102b390611ac0565b60408051808201909152600d81526c496e76616c696420537461676560981b602082015260039081600b5460ff1660048111156106be576106be6118da565b1481906106de5760405162461bcd60e51b81526004016102b39190611b22565b50600b8054600460ff1990911617905560405133904780156108fc02916000818181858888f1935050505015801561071a573d6000803e3d6000fd5b505050565b600f546001600160a01b031633146107495760405162461bcd60e51b81526004016102b390611ac0565b60408051808201909152600d81526c496e76616c696420537461676560981b602082015260019081600b5460ff166004811115610788576107886118da565b1481906107a85760405162461bcd60e51b81526004016102b39190611b22565b5060008351116107fa5760405162461bcd60e51b815260206004820152601960248201527f747261636b696e674964206d757374206e6f7420656d7074790000000000000060448201526064016102b3565b600b805460ff19166002179055825161081a906011906020860190611605565b506040517f1862cf7a0e12bac162f518f43c2f50df187e89045899a7c015c1d61d9880a11b9061045090601190611b6a565b6010546001600160a01b031633146108935760405162461bcd60e51b815260206004820152600a60248201526927b7363c90213abcb2b960b11b60448201526064016102b3565b61089b61051c565b6108df5760405162461bcd60e51b815260206004820152601560248201527444656c69766572656420696e2070726f677265737360581b60448201526064016102b3565b801561092f5760405133904780156108fc02916000818181858888f19350505050158015610911573d6000803e3d6000fd5b5050600b805460ff19169055601080546001600160a01b0319169055565b600b805460ff191660011790555b50565b6010546001600160a01b031633146109875760405162461bcd60e51b815260206004820152600a60248201526927b7363c90213abcb2b960b11b60448201526064016102b3565b61098f610bdf565b6109db5760405162461bcd60e51b815260206004820152601b60248201527f4e6f7420616c6c6f77656420746f2063616e63656c206f72646572000000000060448201526064016102b3565b601080546001600160a01b0319169055600b805460ff1916905560405133904780156108fc02916000818181858888f19350505050158015610a21573d6000803e3d6000fd5b5060405133907f393629f15e859a19530bab9675f9d39f0f57889f19f883bc5be3533c4a2c9ea890600090a2565b60408051808201909152600d81526c13995959081cda1a5c1b595b9d609a1b602082015260029081600b5460ff166004811115610a8e57610a8e6118da565b148190610aae5760405162461bcd60e51b81526004016102b39190611b22565b506000610ac5600854306309d99f6760e01b610f96565b9050610b8b6040518060400160405280600a8152602001691d1c9858dada5b99d25960b21b815250600a6007018054610afd90611b35565b80601f0160208091040260200160405190810160405280929190818152602001828054610b2990611b35565b8015610b765780601f10610b4b57610100808354040283529160200191610b76565b820191906000526020600020905b815481529060010190602001808311610b5957829003601f168201915b505050505083610fbb9092919063ffffffff16565b600754600654600091610bab916001600160a01b03909116908490610fd9565b60405190915081907fb5e6e01e79f91267dc17b4e6314d5d4d03593d2ceee0fbb452b750bd70ea5af990600090a250505050565b600e54600954600091610bf191611c28565b431015801561065057506001600b5460ff166004811115610c1457610c146118da565b14905090565b600f546001600160a01b03163314610c445760405162461bcd60e51b81526004016102b390611ac0565b8051610c57906013906020840190611605565b5050565b60408051808201909152601481527320b63932b0b23c903430bb32903090313abcb2b960611b602082015260009081600b5460ff166004811115610ca157610ca16118da565b148190610cc15760405162461bcd60e51b81526004016102b39190611b22565b50600f546001600160a01b0316331415610d1d5760405162461bcd60e51b815260206004820152601d60248201527f596f752063616e206e6f74206275792066726f6d20796f757273656c6600000060448201526064016102b3565b600d54341015610d615760405162461bcd60e51b815260206004820152600f60248201526e139bdd08195b9bdd59da08199d5b99608a1b60448201526064016102b3565b600b805460ff1916600117905560108054336001600160a01b03199091168117909155436009556040517fe4caeaef8e4f0c4880839ca47219351b38cf4116c082fd0baefc3008e4ba11a390600090a25050565b600a8054600b54600c54600d54600e54600f5460105460118054979860ff909716979596949593946001600160a01b03938416949390921692610df790611b35565b80601f0160208091040260200160405190810160405280929190818152602001828054610e2390611b35565b8015610e705780601f10610e4557610100808354040283529160200191610e70565b820191906000526020600020905b815481529060010190602001808311610e5357829003601f168201915b505050505090806008018054610e8590611b35565b80601f0160208091040260200160405190810160405280929190818152602001828054610eb190611b35565b8015610efe5780601f10610ed357610100808354040283529160200191610efe565b820191906000526020600020905b815481529060010190602001808311610ee157829003601f168201915b505050505090806009018054610f1390611b35565b80601f0160208091040260200160405190810160405280929190818152602001828054610f3f90611b35565b8015610f8c5780601f10610f6157610100808354040283529160200191610f8c565b820191906000526020600020905b815481529060010190602001808311610f6f57829003601f168201915b505050505090508a565b610f9e611689565b610fa6611689565b610fb281868686610ff8565b95945050505050565b6080830151610fca9083611035565b608083015161071a9082611035565b6000610ff084848460016320214ca360e11b61104c565b949350505050565b611000611689565b6110108560800151610100611258565b50509183526001600160a01b031660208301526001600160e01b031916604082015290565b61104282600383516112c3565b61071a8282611397565b6004546040516bffffffffffffffffffffffff193060601b166020820152603481019190915260009060540160408051808303601f19018152918152815160209283012060045460608901526000818152600590935281832080546001600160a01b0319166001600160a01b038b16179055905190925082917fb5e6e01e79f91267dc17b4e6314d5d4d03593d2ceee0fbb452b750bd70ea5af991a2600082600080886000015189602001518a604001518b606001518a8d6080015160000151604051602401611123989796959493929190611c40565b60408051601f198184030181529181526020820180516001600160e01b03166001600160e01b0319909416939093179092526002549151630200057560e51b81529092506001600160a01b0390911690634000aea09061118b908a9089908690600401611ca8565b602060405180830381600087803b1580156111a557600080fd5b505af11580156111b9573d6000803e3d6000fd5b505050506040513d601f19601f820116820180604052508101906111dd9190611aa3565b6112355760405162461bcd60e51b815260206004820152602360248201527f756e61626c6520746f207472616e73666572416e6443616c6c20746f206f7261604482015262636c6560e81b60648201526084016102b3565b6001600460008282546112489190611c28565b9091555091979650505050505050565b604080518082019091526060815260006020820152611278602083611ccf565b156112a057611288602083611ccf565b611293906020611cf1565b61129d9083611c28565b91505b506020808301829052604080518085526000815283019091019052815b92915050565b601781116112e4576112de8360e0600585901b1683176113c5565b50505050565b60ff811161130e57611301836018611fe0600586901b16176113c5565b506112de838260016113ea565b61ffff81116113395761132c836019611fe0600586901b16176113c5565b506112de838260026113ea565b63ffffffff81116113665761135983601a611fe0600586901b16176113c5565b506112de838260046113ea565b67ffffffffffffffff811161071a5761138a83601b611fe0600586901b16176113c5565b506112de838260086113ea565b6040805180820190915260608152600060208201526113be83846000015151848551611410565b9392505050565b6040805180820190915260608152600060208201526113be83846000015151846114fa565b604080518082019091526060815260006020820152610ff0848560000151518585611556565b604080518082019091526060815260006020820152825182111561143357600080fd5b60208501516114428386611c28565b11156114755761147585611465876020015187866114609190611c28565b6115d7565b611470906002611d08565b6115ee565b6000808651805187602083010193508088870111156114945787860182525b505050602084015b602084106114d457805182526114b3602083611c28565b91506114c0602082611c28565b90506114cd602085611cf1565b935061149c565b51815160001960208690036101000a019081169019919091161790525083949350505050565b6040805180820190915260608152600060208201528360200151831061152f5761152f84856020015160026114709190611d08565b83518051602085830101848153508085141561154c576001810182525b5093949350505050565b604080518082019091526060815260006020820152602085015161157a8584611c28565b111561158e5761158e856114658685611c28565b6000600161159e84610100611e0b565b6115a89190611cf1565b90508551838682010185831982511617815250805184870111156115cc5783860181525b509495945050505050565b6000818311156115e85750816112bd565b50919050565b81516115fa8383611258565b506112de8382611397565b82805461161190611b35565b90600052602060002090601f0160209004810192826116335760008555611679565b82601f1061164c57805160ff1916838001178555611679565b82800160010185558215611679579182015b8281111561167957825182559160200191906001019061165e565b506116859291506116c4565b5090565b6040805160a0810182526000808252602080830182905282840182905260608084018390528451808601909552845283015290608082015290565b5b8082111561168557600081556001016116c5565b600080604083850312156116ec57600080fd5b50508035926020909101359150565b634e487b7160e01b600052604160045260246000fd5b604051601f8201601f1916810167ffffffffffffffff8111828210171561173a5761173a6116fb565b604052919050565b600067ffffffffffffffff82111561175c5761175c6116fb565b50601f01601f191660200190565b600082601f83011261177b57600080fd5b813561178e61178982611742565b611711565b8181528460208386010111156117a357600080fd5b816020850160208301376000918101602001919091529392505050565b80356001600160a01b03811681146117d757600080fd5b919050565b60008060008060008060008060006101208a8c0312156117fb57600080fd5b893567ffffffffffffffff81111561181257600080fd5b61181e8c828d0161176a565b99505060208a0135975061183460408b016117c0565b965061184260608b016117c0565b955061185060808b016117c0565b989b979a50959894979660a0860135965060c08601359560e0810135955061010001359350915050565b60006020828403121561188c57600080fd5b813567ffffffffffffffff8111156118a357600080fd5b610ff08482850161176a565b801515811461093d57600080fd5b6000602082840312156118cf57600080fd5b81356113be816118af565b634e487b7160e01b600052602160045260246000fd5b60005b8381101561190b5781810151838201526020016118f3565b838111156112de5750506000910152565b600081518084526119348160208601602086016118f0565b601f01601f19169290920160200192915050565b60006101408c835260058c1061196e57634e487b7160e01b600052602160045260246000fd5b8b60208401528a604084015289606084015288608084015261199b60a08401896001600160a01b03169052565b6001600160a01b03871660c08401528060e08401526119bc8184018761191c565b90508281036101008401526119d1818661191c565b90508281036101208401526119e6818561191c565b9d9c50505050505050505050505050565b600060208284031215611a0957600080fd5b815167ffffffffffffffff811115611a2057600080fd5b8201601f81018413611a3157600080fd5b8051611a3f61178982611742565b818152856020838501011115611a5457600080fd5b610fb28260208301602086016118f0565b604081526000611a78604083018461191c565b8281036020840152600981526811195b1a5d995c995960ba1b60208201526040810191505092915050565b600060208284031215611ab557600080fd5b81516113be816118af565b6020808252600a908201526927b7363c9027bbb732b960b11b604082015260600190565b604081526000611af7604083018461191c565b8281036020840152600981526822bc31b2b83a34b7b760b91b60208201526040810191505092915050565b6020815260006113be602083018461191c565b600181811c90821680611b4957607f821691505b602082108114156115e857634e487b7160e01b600052602260045260246000fd5b600060208083526000845481600182811c915080831680611b8c57607f831692505b858310811415611baa57634e487b7160e01b85526022600452602485fd5b878601838152602001818015611bc75760018114611bd857611c03565b60ff19861682528782019650611c03565b60008b81526020902060005b86811015611bfd57815484820152908501908901611be4565b83019750505b50949998505050505050505050565b634e487b7160e01b600052601160045260246000fd5b60008219821115611c3b57611c3b611c12565b500190565b6001600160a01b0389811682526020820189905260408201889052861660608201526001600160e01b03198516608082015260a0810184905260c0810183905261010060e08201819052600090611c998382018561191c565b9b9a5050505050505050505050565b60018060a01b0384168152826020820152606060408201526000610fb2606083018461191c565b600082611cec57634e487b7160e01b600052601260045260246000fd5b500690565b600082821015611d0357611d03611c12565b500390565b6000816000190483118215151615611d2257611d22611c12565b500290565b600181815b80851115611d62578160001904821115611d4857611d48611c12565b80851615611d5557918102915b93841c9390800290611d2c565b509250929050565b600082611d79575060016112bd565b81611d86575060006112bd565b8160018114611d9c5760028114611da657611dc2565b60019150506112bd565b60ff841115611db757611db7611c12565b50506001821b6112bd565b5060208310610133831016604e8410600b8410161715611de5575081810a6112bd565b611def8383611d27565b8060001904821115611e0357611e03611c12565b029392505050565b60006113be8383611d6a56fea264697066735822122021249081bccf192514fe7782ac10eb3e35476aa4d8931c0c6642175da666e04064736f6c63430008090033a2646970667358221220c4489f69910fa24d38a48dbc2baace3984206e3acb52ccc3dce93b1ab645502864736f6c63430008090033",
  "language": "Solidity",
  "natspec": {
    "kind": "dev",
    "methods": {
      "owner()": {
        "details": "Returns the address of the current owner."
      },
      "renounceOwnership()": {
        "details": "Leaves the contract without owner. It will not be possible to call `onlyOwner` functions anymore. Can only be called by the current owner. NOTE: Renouncing ownership will leave the contract without an owner, thereby removing any functionality that is only available to the owner."
      },
      "transferOwnership(address)": {
        "details": "Transfers ownership of the contract to a new account (`newOwner`). Can only be called by the current owner."
      }
    },
    "version": 1
  },
  "opcodes": "PUSH1 0x80 PUSH1 0x40 MSTORE CALLVALUE DUP1 ISZERO PUSH2 0x10 JUMPI PUSH1 0x0 DUP1 REVERT JUMPDEST POP PUSH1 0x4 CALLDATASIZE LT PUSH2 0x7D JUMPI PUSH1 0x0 CALLDATALOAD PUSH1 0xE0 SHR DUP1 PUSH4 0x8DA5CB5B GT PUSH2 0x5B JUMPI DUP1 PUSH4 0x8DA5CB5B EQ PUSH2 0xBB JUMPI DUP1 PUSH4 0xA06FC346 EQ PUSH2 0xD6 JUMPI DUP1 PUSH4 0xE0F6EF87 EQ PUSH2 0xE9 JUMPI DUP1 PUSH4 0xF2FDE38B EQ PUSH2 0xF2 JUMPI PUSH1 0x0 DUP1 REVERT JUMPDEST DUP1 PUSH4 0x4B1D29B4 EQ PUSH2 0x82 JUMPI DUP1 PUSH4 0x55889D01 EQ PUSH2 0x9E JUMPI DUP1 PUSH4 0x715018A6 EQ PUSH2 0xB3 JUMPI JUMPDEST PUSH1 0x0 DUP1 REVERT JUMPDEST PUSH2 0x8B PUSH1 0x4 SLOAD DUP2 JUMP JUMPDEST PUSH1 0x40 MLOAD SWAP1 DUP2 MSTORE PUSH1 0x20 ADD JUMPDEST PUSH1 0x40 MLOAD DUP1 SWAP2 SUB SWAP1 RETURN JUMPDEST PUSH2 0xB1 PUSH2 0xAC CALLDATASIZE PUSH1 0x4 PUSH2 0x4FE JUMP JUMPDEST PUSH2 0x105 JUMP JUMPDEST STOP JUMPDEST PUSH2 0xB1 PUSH2 0x13D JUMP JUMPDEST PUSH1 0x0 SLOAD PUSH1 0x40 MLOAD PUSH1 0x1 PUSH1 0x1 PUSH1 0xA0 SHL SUB SWAP1 SWAP2 AND DUP2 MSTORE PUSH1 0x20 ADD PUSH2 0x95 JUMP JUMPDEST PUSH2 0xB1 PUSH2 0xE4 CALLDATASIZE PUSH1 0x4 PUSH2 0x5BA JUMP JUMPDEST PUSH2 0x173 JUMP JUMPDEST PUSH2 0x8B PUSH1 0x5 SLOAD DUP2 JUMP JUMPDEST PUSH2 0xB1 PUSH2 0x100 CALLDATASIZE PUSH1 0x4 PUSH2 0x62F JUMP JUMPDEST PUSH2 0x406 JUMP JUMPDEST PUSH1 0x0 SLOAD PUSH1 0x1 PUSH1 0x1 PUSH1 0xA0 SHL SUB AND CALLER EQ PUSH2 0x138 JUMPI PUSH1 0x40 MLOAD PUSH3 0x461BCD PUSH1 0xE5 SHL DUP2 MSTORE PUSH1 0x4 ADD PUSH2 0x12F SWAP1 PUSH2 0x65F JUMP JUMPDEST PUSH1 0x40 MLOAD DUP1 SWAP2 SUB SWAP1 REVERT JUMPDEST PUSH1 0x4 SSTORE JUMP JUMPDEST PUSH1 0x0 SLOAD PUSH1 0x1 PUSH1 0x1 PUSH1 0xA0 SHL SUB AND CALLER EQ PUSH2 0x167 JUMPI PUSH1 0x40 MLOAD PUSH3 0x461BCD PUSH1 0xE5 SHL DUP2 MSTORE PUSH1 0x4 ADD PUSH2 0x12F SWAP1 PUSH2 0x65F JUMP JUMPDEST PUSH2 0x171 PUSH1 0x0 PUSH2 0x4A1 JUMP JUMPDEST JUMP JUMPDEST PUSH1 0x4 SLOAD DUP2 GT ISZERO PUSH2 0x182 JUMPI POP PUSH1 0x4 SLOAD JUMPDEST PUSH1 0x5 SLOAD PUSH1 0x40 MLOAD PUSH1 0x0 SWAP1 DUP2 SWAP1 PUSH2 0x199 PUSH1 0x20 DUP3 ADD PUSH2 0x4F1 JUMP JUMPDEST PUSH1 0x1F NOT DUP3 DUP3 SUB DUP2 ADD DUP4 MSTORE PUSH1 0x1F SWAP1 SWAP2 ADD AND PUSH1 0x40 DUP2 DUP2 MSTORE PUSH1 0x20 DUP3 ADD DUP7 SWAP1 MSTORE PUSH12 0xFFFFFFFFFFFFFFFFFFFFFFFF NOT CALLER PUSH1 0x60 SHL AND SWAP1 DUP3 ADD MSTORE PUSH1 0x54 DUP2 ADD DUP9 SWAP1 MSTORE SWAP1 SWAP2 POP PUSH1 0x0 SWAP1 PUSH1 0x74 ADD PUSH1 0x40 MLOAD PUSH1 0x20 DUP2 DUP4 SUB SUB DUP2 MSTORE SWAP1 PUSH1 0x40 MSTORE DUP1 MLOAD SWAP1 PUSH1 0x20 ADD KECCAK256 SWAP1 POP DUP1 DUP3 MLOAD PUSH1 0x20 DUP5 ADD PUSH1 0x0 CREATE2 PUSH1 0x40 MLOAD PUSH4 0x12B383D5 PUSH1 0xE3 SHL DUP2 MSTORE SWAP1 SWAP4 POP PUSH1 0x1 PUSH1 0x1 PUSH1 0xA0 SHL SUB DUP5 AND SWAP1 PUSH4 0x959C1EA8 SWAP1 PUSH2 0x22D SWAP1 DUP10 SWAP1 PUSH1 0x4 ADD PUSH2 0x6E1 JUMP JUMPDEST PUSH1 0x0 PUSH1 0x40 MLOAD DUP1 DUP4 SUB DUP2 PUSH1 0x0 DUP8 DUP1 EXTCODESIZE ISZERO DUP1 ISZERO PUSH2 0x247 JUMPI PUSH1 0x0 DUP1 REVERT JUMPDEST POP GAS CALL ISZERO DUP1 ISZERO PUSH2 0x25B JUMPI RETURNDATASIZE PUSH1 0x0 DUP1 RETURNDATACOPY RETURNDATASIZE PUSH1 0x0 REVERT JUMPDEST POP POP POP POP DUP3 PUSH1 0x1 PUSH1 0x1 PUSH1 0xA0 SHL SUB AND PUSH4 0x16833F31 DUP10 PUSH1 0x3 SLOAD PUSH1 0x1 PUSH1 0x0 SWAP1 SLOAD SWAP1 PUSH2 0x100 EXP SWAP1 DIV PUSH1 0x1 PUSH1 0x1 PUSH1 0xA0 SHL SUB AND PUSH1 0x2 PUSH1 0x0 SWAP1 SLOAD SWAP1 PUSH2 0x100 EXP SWAP1 DIV PUSH1 0x1 PUSH1 0x1 PUSH1 0xA0 SHL SUB AND CALLER DUP11 DUP15 DUP14 PUSH8 0xDE0B6B3A7640000 PUSH1 0x40 MLOAD DUP11 PUSH4 0xFFFFFFFF AND PUSH1 0xE0 SHL DUP2 MSTORE PUSH1 0x4 ADD PUSH2 0x2CF SWAP10 SWAP9 SWAP8 SWAP7 SWAP6 SWAP5 SWAP4 SWAP3 SWAP2 SWAP1 PUSH2 0x6F4 JUMP JUMPDEST PUSH1 0x0 PUSH1 0x40 MLOAD DUP1 DUP4 SUB DUP2 PUSH1 0x0 DUP8 DUP1 EXTCODESIZE ISZERO DUP1 ISZERO PUSH2 0x2E9 JUMPI PUSH1 0x0 DUP1 REVERT JUMPDEST POP GAS CALL ISZERO DUP1 ISZERO PUSH2 0x2FD JUMPI RETURNDATASIZE PUSH1 0x0 DUP1 RETURNDATACOPY RETURNDATASIZE PUSH1 0x0 REVERT JUMPDEST POP POP PUSH1 0x1 DUP1 SLOAD PUSH1 0x1 PUSH1 0x1 PUSH1 0xA0 SHL SUB AND SWAP3 POP PUSH4 0xA9059CBB SWAP2 POP DUP6 SWAP1 PUSH2 0x32A SWAP1 PUSH8 0xDE0B6B3A7640000 SWAP1 PUSH2 0x768 JUMP JUMPDEST PUSH1 0x40 MLOAD PUSH1 0x1 PUSH1 0x1 PUSH1 0xE0 SHL SUB NOT PUSH1 0xE0 DUP6 SWAP1 SHL AND DUP2 MSTORE PUSH1 0x1 PUSH1 0x1 PUSH1 0xA0 SHL SUB SWAP1 SWAP3 AND PUSH1 0x4 DUP4 ADD MSTORE PUSH1 0x24 DUP3 ADD MSTORE PUSH1 0x44 ADD PUSH1 0x20 PUSH1 0x40 MLOAD DUP1 DUP4 SUB DUP2 PUSH1 0x0 DUP8 DUP1 EXTCODESIZE ISZERO DUP1 ISZERO PUSH2 0x370 JUMPI PUSH1 0x0 DUP1 REVERT JUMPDEST POP GAS CALL ISZERO DUP1 ISZERO PUSH2 0x384 JUMPI RETURNDATASIZE PUSH1 0x0 DUP1 RETURNDATACOPY RETURNDATASIZE PUSH1 0x0 REVERT JUMPDEST POP POP POP POP PUSH1 0x40 MLOAD RETURNDATASIZE PUSH1 0x1F NOT PUSH1 0x1F DUP3 ADD AND DUP3 ADD DUP1 PUSH1 0x40 MSTORE POP DUP2 ADD SWAP1 PUSH2 0x3A8 SWAP2 SWAP1 PUSH2 0x787 JUMP JUMPDEST POP PUSH1 0x5 DUP1 SLOAD SWAP1 PUSH1 0x0 PUSH2 0x3B9 DUP4 PUSH2 0x7A9 JUMP JUMPDEST SWAP1 SWAP2 SSTORE POP POP PUSH1 0x40 MLOAD PUSH1 0x1 PUSH1 0x1 PUSH1 0xA0 SHL SUB DUP5 AND DUP2 MSTORE CALLER SWAP1 PUSH32 0xA66DF2AC9413442073C2E47B33E555F5891823DF7841196BD1F197175A12F8AE SWAP1 PUSH1 0x20 ADD PUSH1 0x40 MLOAD DUP1 SWAP2 SUB SWAP1 LOG2 POP POP POP POP POP POP POP POP JUMP JUMPDEST PUSH1 0x0 SLOAD PUSH1 0x1 PUSH1 0x1 PUSH1 0xA0 SHL SUB AND CALLER EQ PUSH2 0x430 JUMPI PUSH1 0x40 MLOAD PUSH3 0x461BCD PUSH1 0xE5 SHL DUP2 MSTORE PUSH1 0x4 ADD PUSH2 0x12F SWAP1 PUSH2 0x65F JUMP JUMPDEST PUSH1 0x1 PUSH1 0x1 PUSH1 0xA0 SHL SUB DUP2 AND PUSH2 0x495 JUMPI PUSH1 0x40 MLOAD PUSH3 0x461BCD PUSH1 0xE5 SHL DUP2 MSTORE PUSH1 0x20 PUSH1 0x4 DUP3 ADD MSTORE PUSH1 0x26 PUSH1 0x24 DUP3 ADD MSTORE PUSH32 0x4F776E61626C653A206E6577206F776E657220697320746865207A65726F2061 PUSH1 0x44 DUP3 ADD MSTORE PUSH6 0x646472657373 PUSH1 0xD0 SHL PUSH1 0x64 DUP3 ADD MSTORE PUSH1 0x84 ADD PUSH2 0x12F JUMP JUMPDEST PUSH2 0x49E DUP2 PUSH2 0x4A1 JUMP JUMPDEST POP JUMP JUMPDEST PUSH1 0x0 DUP1 SLOAD PUSH1 0x1 PUSH1 0x1 PUSH1 0xA0 SHL SUB DUP4 DUP2 AND PUSH1 0x1 PUSH1 0x1 PUSH1 0xA0 SHL SUB NOT DUP4 AND DUP2 OR DUP5 SSTORE PUSH1 0x40 MLOAD SWAP2 SWAP1 SWAP3 AND SWAP3 DUP4 SWAP2 PUSH32 0x8BE0079C531659141344CD1FD0A4F28419497F9722A3DAAFE3B4186F6B6457E0 SWAP2 SWAP1 LOG3 POP POP JUMP JUMPDEST PUSH2 0x1E84 DUP1 PUSH2 0x7C5 DUP4 CODECOPY ADD SWAP1 JUMP JUMPDEST PUSH1 0x0 PUSH1 0x20 DUP3 DUP5 SUB SLT ISZERO PUSH2 0x510 JUMPI PUSH1 0x0 DUP1 REVERT JUMPDEST POP CALLDATALOAD SWAP2 SWAP1 POP JUMP JUMPDEST PUSH4 0x4E487B71 PUSH1 0xE0 SHL PUSH1 0x0 MSTORE PUSH1 0x41 PUSH1 0x4 MSTORE PUSH1 0x24 PUSH1 0x0 REVERT JUMPDEST PUSH1 0x0 DUP3 PUSH1 0x1F DUP4 ADD SLT PUSH2 0x53E JUMPI PUSH1 0x0 DUP1 REVERT JUMPDEST DUP2 CALLDATALOAD PUSH8 0xFFFFFFFFFFFFFFFF DUP1 DUP3 GT ISZERO PUSH2 0x559 JUMPI PUSH2 0x559 PUSH2 0x517 JUMP JUMPDEST PUSH1 0x40 MLOAD PUSH1 0x1F DUP4 ADD PUSH1 0x1F NOT SWAP1 DUP2 AND PUSH1 0x3F ADD AND DUP2 ADD SWAP1 DUP3 DUP3 GT DUP2 DUP4 LT OR ISZERO PUSH2 0x581 JUMPI PUSH2 0x581 PUSH2 0x517 JUMP JUMPDEST DUP2 PUSH1 0x40 MSTORE DUP4 DUP2 MSTORE DUP7 PUSH1 0x20 DUP6 DUP9 ADD ADD GT ISZERO PUSH2 0x59A JUMPI PUSH1 0x0 DUP1 REVERT JUMPDEST DUP4 PUSH1 0x20 DUP8 ADD PUSH1 0x20 DUP4 ADD CALLDATACOPY PUSH1 0x0 PUSH1 0x20 DUP6 DUP4 ADD ADD MSTORE DUP1 SWAP5 POP POP POP POP POP SWAP3 SWAP2 POP POP JUMP JUMPDEST PUSH1 0x0 DUP1 PUSH1 0x0 DUP1 PUSH1 0x80 DUP6 DUP8 SUB SLT ISZERO PUSH2 0x5D0 JUMPI PUSH1 0x0 DUP1 REVERT JUMPDEST DUP5 CALLDATALOAD PUSH8 0xFFFFFFFFFFFFFFFF DUP1 DUP3 GT ISZERO PUSH2 0x5E8 JUMPI PUSH1 0x0 DUP1 REVERT JUMPDEST PUSH2 0x5F4 DUP9 DUP4 DUP10 ADD PUSH2 0x52D JUMP JUMPDEST SWAP6 POP PUSH1 0x20 DUP8 ADD CALLDATALOAD SWAP5 POP PUSH1 0x40 DUP8 ADD CALLDATALOAD SWAP2 POP DUP1 DUP3 GT ISZERO PUSH2 0x611 JUMPI PUSH1 0x0 DUP1 REVERT JUMPDEST POP PUSH2 0x61E DUP8 DUP3 DUP9 ADD PUSH2 0x52D JUMP JUMPDEST SWAP5 SWAP8 SWAP4 SWAP7 POP SWAP4 SWAP5 PUSH1 0x60 ADD CALLDATALOAD SWAP4 POP POP POP JUMP JUMPDEST PUSH1 0x0 PUSH1 0x20 DUP3 DUP5 SUB SLT ISZERO PUSH2 0x641 JUMPI PUSH1 0x0 DUP1 REVERT JUMPDEST DUP2 CALLDATALOAD PUSH1 0x1 PUSH1 0x1 PUSH1 0xA0 SHL SUB DUP2 AND DUP2 EQ PUSH2 0x658 JUMPI PUSH1 0x0 DUP1 REVERT JUMPDEST SWAP4 SWAP3 POP POP POP JUMP JUMPDEST PUSH1 0x20 DUP1 DUP3 MSTORE DUP2 DUP2 ADD MSTORE PUSH32 0x4F776E61626C653A2063616C6C6572206973206E6F7420746865206F776E6572 PUSH1 0x40 DUP3 ADD MSTORE PUSH1 0x60 ADD SWAP1 JUMP JUMPDEST PUSH1 0x0 DUP2 MLOAD DUP1 DUP5 MSTORE PUSH1 0x0 JUMPDEST DUP2 DUP2 LT ISZERO PUSH2 0x6BA JUMPI PUSH1 0x20 DUP2 DUP6 ADD DUP2 ADD MLOAD DUP7 DUP4 ADD DUP3 ADD MSTORE ADD PUSH2 0x69E JUMP JUMPDEST DUP2 DUP2 GT ISZERO PUSH2 0x6CC JUMPI PUSH1 0x0 PUSH1 0x20 DUP4 DUP8 ADD ADD MSTORE JUMPDEST POP PUSH1 0x1F ADD PUSH1 0x1F NOT AND SWAP3 SWAP1 SWAP3 ADD PUSH1 0x20 ADD SWAP3 SWAP2 POP POP JUMP JUMPDEST PUSH1 0x20 DUP2 MSTORE PUSH1 0x0 PUSH2 0x658 PUSH1 0x20 DUP4 ADD DUP5 PUSH2 0x694 JUMP JUMPDEST PUSH1 0x0 PUSH2 0x120 DUP1 DUP4 MSTORE PUSH2 0x708 DUP2 DUP5 ADD DUP14 PUSH2 0x694 JUMP JUMPDEST PUSH1 0x20 DUP5 ADD SWAP12 SWAP1 SWAP12 MSTORE POP POP PUSH1 0x1 PUSH1 0x1 PUSH1 0xA0 SHL SUB SWAP8 DUP9 AND PUSH1 0x40 DUP3 ADD MSTORE SWAP6 DUP8 AND PUSH1 0x60 DUP8 ADD MSTORE SWAP4 SWAP1 SWAP6 AND PUSH1 0x80 DUP6 ADD MSTORE PUSH1 0xA0 DUP5 ADD SWAP2 SWAP1 SWAP2 MSTORE PUSH1 0xC0 DUP4 ADD MSTORE PUSH1 0xE0 DUP3 ADD SWAP3 SWAP1 SWAP3 MSTORE PUSH2 0x100 ADD MSTORE SWAP2 SWAP1 POP JUMP JUMPDEST PUSH4 0x4E487B71 PUSH1 0xE0 SHL PUSH1 0x0 MSTORE PUSH1 0x11 PUSH1 0x4 MSTORE PUSH1 0x24 PUSH1 0x0 REVERT JUMPDEST PUSH1 0x0 DUP2 PUSH1 0x0 NOT DIV DUP4 GT DUP3 ISZERO ISZERO AND ISZERO PUSH2 0x782 JUMPI PUSH2 0x782 PUSH2 0x752 JUMP JUMPDEST POP MUL SWAP1 JUMP JUMPDEST PUSH1 0x0 PUSH1 0x20 DUP3 DUP5 SUB SLT ISZERO PUSH2 0x799 JUMPI PUSH1 0x0 DUP1 REVERT JUMPDEST DUP2 MLOAD DUP1 ISZERO ISZERO DUP2 EQ PUSH2 0x658 JUMPI PUSH1 0x0 DUP1 REVERT JUMPDEST PUSH1 0x0 PUSH1 0x0 NOT DUP3 EQ ISZERO PUSH2 0x7BD JUMPI PUSH2 0x7BD PUSH2 0x752 JUMP JUMPDEST POP PUSH1 0x1 ADD SWAP1 JUMP INVALID PUSH1 0x80 PUSH1 0x40 MSTORE PUSH1 0x1 PUSH1 0x4 SSTORE CALLVALUE DUP1 ISZERO PUSH2 0x15 JUMPI PUSH1 0x0 DUP1 REVERT JUMPDEST POP PUSH1 0xF DUP1 SLOAD PUSH1 0x1 PUSH1 0x1 PUSH1 0xA0 SHL SUB NOT AND CALLER OR SWAP1 SSTORE PUSH2 0x1E4D DUP1 PUSH2 0x37 PUSH1 0x0 CODECOPY PUSH1 0x0 RETURN INVALID PUSH1 0x80 PUSH1 0x40 MSTORE PUSH1 0x4 CALLDATASIZE LT PUSH2 0xC2 JUMPI PUSH1 0x0 CALLDATALOAD PUSH1 0xE0 SHR DUP1 PUSH4 0x6A816548 GT PUSH2 0x7F JUMPI DUP1 PUSH4 0x959C1EA8 GT PUSH2 0x59 JUMPI DUP1 PUSH4 0x959C1EA8 EQ PUSH2 0x1C7 JUMPI DUP1 PUSH4 0xBF15071D EQ PUSH2 0x1E7 JUMPI DUP1 PUSH4 0xBF9CE952 EQ PUSH2 0x1EF JUMPI DUP1 PUSH4 0xE12ED13C EQ PUSH2 0x21A JUMPI PUSH1 0x0 DUP1 REVERT JUMPDEST DUP1 PUSH4 0x6A816548 EQ PUSH2 0x188 JUMPI DUP1 PUSH4 0x6B827CD4 EQ PUSH2 0x19D JUMPI DUP1 PUSH4 0x74774750 EQ PUSH2 0x1B2 JUMPI PUSH1 0x0 DUP1 REVERT JUMPDEST DUP1 PUSH4 0x9D99F67 EQ PUSH2 0xC7 JUMPI DUP1 PUSH4 0x16833F31 EQ PUSH2 0xE9 JUMPI DUP1 PUSH4 0x1820E56D EQ PUSH2 0x109 JUMPI DUP1 PUSH4 0x366E8E52 EQ PUSH2 0x133 JUMPI DUP1 PUSH4 0x50737055 EQ PUSH2 0x148 JUMPI DUP1 PUSH4 0x59686C9F EQ PUSH2 0x168 JUMPI JUMPDEST PUSH1 0x0 DUP1 REVERT JUMPDEST CALLVALUE DUP1 ISZERO PUSH2 0xD3 JUMPI PUSH1 0x0 DUP1 REVERT JUMPDEST POP PUSH2 0xE7 PUSH2 0xE2 CALLDATASIZE PUSH1 0x4 PUSH2 0x16D9 JUMP JUMPDEST PUSH2 0x23E JUMP JUMPDEST STOP JUMPDEST CALLVALUE DUP1 ISZERO PUSH2 0xF5 JUMPI PUSH1 0x0 DUP1 REVERT JUMPDEST POP PUSH2 0xE7 PUSH2 0x104 CALLDATASIZE PUSH1 0x4 PUSH2 0x17DC JUMP JUMPDEST PUSH2 0x45D JUMP JUMPDEST CALLVALUE DUP1 ISZERO PUSH2 0x115 JUMPI PUSH1 0x0 DUP1 REVERT JUMPDEST POP PUSH2 0x11E PUSH2 0x51C JUMP JUMPDEST PUSH1 0x40 MLOAD SWAP1 ISZERO ISZERO DUP2 MSTORE PUSH1 0x20 ADD JUMPDEST PUSH1 0x40 MLOAD DUP1 SWAP2 SUB SWAP1 RETURN JUMPDEST CALLVALUE DUP1 ISZERO PUSH2 0x13F JUMPI PUSH1 0x0 DUP1 REVERT JUMPDEST POP PUSH2 0xE7 PUSH2 0x655 JUMP JUMPDEST CALLVALUE DUP1 ISZERO PUSH2 0x154 JUMPI PUSH1 0x0 DUP1 REVERT JUMPDEST POP PUSH2 0xE7 PUSH2 0x163 CALLDATASIZE PUSH1 0x4 PUSH2 0x187A JUMP JUMPDEST PUSH2 0x71F JUMP JUMPDEST CALLVALUE DUP1 ISZERO PUSH2 0x174 JUMPI PUSH1 0x0 DUP1 REVERT JUMPDEST POP PUSH2 0xE7 PUSH2 0x183 CALLDATASIZE PUSH1 0x4 PUSH2 0x18BD JUMP JUMPDEST PUSH2 0x84C JUMP JUMPDEST CALLVALUE DUP1 ISZERO PUSH2 0x194 JUMPI PUSH1 0x0 DUP1 REVERT JUMPDEST POP PUSH2 0xE7 PUSH2 0x940 JUMP JUMPDEST CALLVALUE DUP1 ISZERO PUSH2 0x1A9 JUMPI PUSH1 0x0 DUP1 REVERT JUMPDEST POP PUSH2 0xE7 PUSH2 0xA4F JUMP JUMPDEST CALLVALUE DUP1 ISZERO PUSH2 0x1BE JUMPI PUSH1 0x0 DUP1 REVERT JUMPDEST POP PUSH2 0x11E PUSH2 0xBDF JUMP JUMPDEST CALLVALUE DUP1 ISZERO PUSH2 0x1D3 JUMPI PUSH1 0x0 DUP1 REVERT JUMPDEST POP PUSH2 0xE7 PUSH2 0x1E2 CALLDATASIZE PUSH1 0x4 PUSH2 0x187A JUMP JUMPDEST PUSH2 0xC1A JUMP JUMPDEST PUSH2 0xE7 PUSH2 0xC5B JUMP JUMPDEST CALLVALUE DUP1 ISZERO PUSH2 0x1FB JUMPI PUSH1 0x0 DUP1 REVERT JUMPDEST POP PUSH2 0x204 PUSH2 0xDB5 JUMP JUMPDEST PUSH1 0x40 MLOAD PUSH2 0x12A SWAP11 SWAP10 SWAP9 SWAP8 SWAP7 SWAP6 SWAP5 SWAP4 SWAP3 SWAP2 SWAP1 PUSH2 0x1948 JUMP JUMPDEST CALLVALUE DUP1 ISZERO PUSH2 0x226 JUMPI PUSH1 0x0 DUP1 REVERT JUMPDEST POP PUSH2 0x230 PUSH1 0x9 SLOAD DUP2 JUMP JUMPDEST PUSH1 0x40 MLOAD SWAP1 DUP2 MSTORE PUSH1 0x20 ADD PUSH2 0x12A JUMP JUMPDEST PUSH1 0x0 DUP3 DUP2 MSTORE PUSH1 0x5 PUSH1 0x20 MSTORE PUSH1 0x40 SWAP1 KECCAK256 SLOAD DUP3 SWAP1 PUSH1 0x1 PUSH1 0x1 PUSH1 0xA0 SHL SUB AND CALLER EQ PUSH2 0x2BC JUMPI PUSH1 0x40 MLOAD PUSH3 0x461BCD PUSH1 0xE5 SHL DUP2 MSTORE PUSH1 0x20 PUSH1 0x4 DUP3 ADD MSTORE PUSH1 0x28 PUSH1 0x24 DUP3 ADD MSTORE PUSH32 0x536F75726365206D75737420626520746865206F7261636C65206F6620746865 PUSH1 0x44 DUP3 ADD MSTORE PUSH8 0x81C995C5D595CDD PUSH1 0xC2 SHL PUSH1 0x64 DUP3 ADD MSTORE PUSH1 0x84 ADD JUMPDEST PUSH1 0x40 MLOAD DUP1 SWAP2 SUB SWAP1 REVERT JUMPDEST PUSH1 0x0 DUP2 DUP2 MSTORE PUSH1 0x5 PUSH1 0x20 MSTORE PUSH1 0x40 DUP1 DUP3 KECCAK256 DUP1 SLOAD PUSH1 0x1 PUSH1 0x1 PUSH1 0xA0 SHL SUB NOT AND SWAP1 SSTORE MLOAD DUP3 SWAP2 PUSH32 0x7CC135E0CEBB02C3480AE5D74D377283180A2601F8F644EDF7987B009316C63A SWAP2 LOG2 PUSH1 0xA DUP3 SWAP1 SSTORE PUSH1 0x40 MLOAD PUSH4 0x9201DE55 PUSH1 0xE0 SHL DUP2 MSTORE PUSH1 0x4 DUP2 ADD DUP4 SWAP1 MSTORE PUSH20 0x0 SWAP1 PUSH4 0x9201DE55 SWAP1 PUSH1 0x24 ADD PUSH1 0x0 PUSH1 0x40 MLOAD DUP1 DUP4 SUB DUP2 DUP7 DUP1 EXTCODESIZE ISZERO DUP1 ISZERO PUSH2 0x34F JUMPI PUSH1 0x0 DUP1 REVERT JUMPDEST POP GAS DELEGATECALL ISZERO DUP1 ISZERO PUSH2 0x363 JUMPI RETURNDATASIZE PUSH1 0x0 DUP1 RETURNDATACOPY RETURNDATASIZE PUSH1 0x0 REVERT JUMPDEST POP POP POP POP PUSH1 0x40 MLOAD RETURNDATASIZE PUSH1 0x0 DUP3 RETURNDATACOPY PUSH1 0x1F RETURNDATASIZE SWAP1 DUP2 ADD PUSH1 0x1F NOT AND DUP3 ADD PUSH1 0x40 MSTORE PUSH2 0x38B SWAP2 SWAP1 DUP2 ADD SWAP1 PUSH2 0x19F7 JUMP JUMPDEST PUSH1 0x40 MLOAD PUSH4 0x5F69A5DD PUSH1 0xE1 SHL DUP2 MSTORE PUSH20 0x0 SWAP2 PUSH4 0xBED34BBA SWAP2 PUSH2 0x3C1 SWAP2 SWAP1 PUSH1 0x4 ADD PUSH2 0x1A65 JUMP JUMPDEST PUSH1 0x20 PUSH1 0x40 MLOAD DUP1 DUP4 SUB DUP2 DUP7 DUP1 EXTCODESIZE ISZERO DUP1 ISZERO PUSH2 0x3D9 JUMPI PUSH1 0x0 DUP1 REVERT JUMPDEST POP GAS DELEGATECALL ISZERO DUP1 ISZERO PUSH2 0x3ED JUMPI RETURNDATASIZE PUSH1 0x0 DUP1 RETURNDATACOPY RETURNDATASIZE PUSH1 0x0 REVERT JUMPDEST POP POP POP POP PUSH1 0x40 MLOAD RETURNDATASIZE PUSH1 0x1F NOT PUSH1 0x1F DUP3 ADD AND DUP3 ADD DUP1 PUSH1 0x40 MSTORE POP DUP2 ADD SWAP1 PUSH2 0x411 SWAP2 SWAP1 PUSH2 0x1AA3 JUMP JUMPDEST ISZERO PUSH2 0x424 JUMPI PUSH1 0xB DUP1 SLOAD PUSH1 0xFF NOT AND PUSH1 0x3 OR SWAP1 SSTORE JUMPDEST PUSH1 0x40 MLOAD DUP3 DUP2 MSTORE PUSH32 0x65FB20BADD0FCFD3BF3BA0CA9BFE4EC522640041A07DECD17F1BE1FB0EAD4F4A SWAP1 PUSH1 0x20 ADD JUMPDEST PUSH1 0x40 MLOAD DUP1 SWAP2 SUB SWAP1 LOG1 POP POP POP JUMP JUMPDEST PUSH1 0xF SLOAD PUSH1 0x1 PUSH1 0x1 PUSH1 0xA0 SHL SUB AND CALLER EQ PUSH2 0x487 JUMPI PUSH1 0x40 MLOAD PUSH3 0x461BCD PUSH1 0xE5 SHL DUP2 MSTORE PUSH1 0x4 ADD PUSH2 0x2B3 SWAP1 PUSH2 0x1AC0 JUMP JUMPDEST PUSH1 0x2 DUP1 SLOAD PUSH1 0x1 PUSH1 0x1 PUSH1 0xA0 SHL SUB NOT AND PUSH1 0x1 PUSH1 0x1 PUSH1 0xA0 SHL SUB DUP10 AND OR SWAP1 SSTORE PUSH1 0x7 DUP1 SLOAD PUSH1 0x1 PUSH1 0x1 PUSH1 0xA0 SHL SUB NOT AND PUSH1 0x1 PUSH1 0x1 PUSH1 0xA0 SHL SUB DUP9 AND OR SWAP1 SSTORE PUSH1 0x8 DUP9 SWAP1 SSTORE PUSH1 0x6 DUP2 SWAP1 SSTORE PUSH1 0xC DUP5 SWAP1 SSTORE PUSH1 0xE DUP3 SWAP1 SSTORE DUP9 MLOAD PUSH2 0x4E4 SWAP1 PUSH1 0x12 SWAP1 PUSH1 0x20 DUP13 ADD SWAP1 PUSH2 0x1605 JUMP JUMPDEST POP POP PUSH1 0xB DUP1 SLOAD PUSH1 0xFF NOT AND SWAP1 SSTORE POP PUSH1 0xF DUP1 SLOAD PUSH1 0x1 PUSH1 0x1 PUSH1 0xA0 SHL SUB NOT AND PUSH1 0x1 PUSH1 0x1 PUSH1 0xA0 SHL SUB SWAP5 SWAP1 SWAP5 AND SWAP4 SWAP1 SWAP4 OR SWAP1 SWAP3 SSTORE POP PUSH1 0xD SSTORE POP POP POP POP JUMP JUMPDEST PUSH1 0x0 PUSH1 0x2 PUSH1 0xB SLOAD PUSH1 0xFF AND PUSH1 0x4 DUP2 GT ISZERO PUSH2 0x537 JUMPI PUSH2 0x537 PUSH2 0x18DA JUMP JUMPDEST EQ DUP1 ISZERO PUSH2 0x650 JUMPI POP PUSH1 0xA SLOAD PUSH1 0x40 MLOAD PUSH4 0x9201DE55 PUSH1 0xE0 SHL DUP2 MSTORE PUSH1 0x4 DUP2 ADD SWAP2 SWAP1 SWAP2 MSTORE PUSH20 0x0 SWAP1 PUSH4 0x9201DE55 SWAP1 PUSH1 0x24 ADD PUSH1 0x0 PUSH1 0x40 MLOAD DUP1 DUP4 SUB DUP2 DUP7 DUP1 EXTCODESIZE ISZERO DUP1 ISZERO PUSH2 0x58E JUMPI PUSH1 0x0 DUP1 REVERT JUMPDEST POP GAS DELEGATECALL ISZERO DUP1 ISZERO PUSH2 0x5A2 JUMPI RETURNDATASIZE PUSH1 0x0 DUP1 RETURNDATACOPY RETURNDATASIZE PUSH1 0x0 REVERT JUMPDEST POP POP POP POP PUSH1 0x40 MLOAD RETURNDATASIZE PUSH1 0x0 DUP3 RETURNDATACOPY PUSH1 0x1F RETURNDATASIZE SWAP1 DUP2 ADD PUSH1 0x1F NOT AND DUP3 ADD PUSH1 0x40 MSTORE PUSH2 0x5CA SWAP2 SWAP1 DUP2 ADD SWAP1 PUSH2 0x19F7 JUMP JUMPDEST PUSH1 0x40 MLOAD PUSH4 0x5F69A5DD PUSH1 0xE1 SHL DUP2 MSTORE PUSH20 0x0 SWAP2 PUSH4 0xBED34BBA SWAP2 PUSH2 0x600 SWAP2 SWAP1 PUSH1 0x4 ADD PUSH2 0x1AE4 JUMP JUMPDEST PUSH1 0x20 PUSH1 0x40 MLOAD DUP1 DUP4 SUB DUP2 DUP7 DUP1 EXTCODESIZE ISZERO DUP1 ISZERO PUSH2 0x618 JUMPI PUSH1 0x0 DUP1 REVERT JUMPDEST POP GAS DELEGATECALL ISZERO DUP1 ISZERO PUSH2 0x62C JUMPI RETURNDATASIZE PUSH1 0x0 DUP1 RETURNDATACOPY RETURNDATASIZE PUSH1 0x0 REVERT JUMPDEST POP POP POP POP PUSH1 0x40 MLOAD RETURNDATASIZE PUSH1 0x1F NOT PUSH1 0x1F DUP3 ADD AND DUP3 ADD DUP1 PUSH1 0x40 MSTORE POP DUP2 ADD SWAP1 PUSH2 0x650 SWAP2 SWAP1 PUSH2 0x1AA3 JUMP JUMPDEST SWAP1 POP SWAP1 JUMP JUMPDEST PUSH1 0xF SLOAD PUSH1 0x1 PUSH1 0x1 PUSH1 0xA0 SHL SUB AND CALLER EQ PUSH2 0x67F JUMPI PUSH1 0x40 MLOAD PUSH3 0x461BCD PUSH1 0xE5 SHL DUP2 MSTORE PUSH1 0x4 ADD PUSH2 0x2B3 SWAP1 PUSH2 0x1AC0 JUMP JUMPDEST PUSH1 0x40 DUP1 MLOAD DUP1 DUP3 ADD SWAP1 SWAP2 MSTORE PUSH1 0xD DUP2 MSTORE PUSH13 0x496E76616C6964205374616765 PUSH1 0x98 SHL PUSH1 0x20 DUP3 ADD MSTORE PUSH1 0x3 SWAP1 DUP2 PUSH1 0xB SLOAD PUSH1 0xFF AND PUSH1 0x4 DUP2 GT ISZERO PUSH2 0x6BE JUMPI PUSH2 0x6BE PUSH2 0x18DA JUMP JUMPDEST EQ DUP2 SWAP1 PUSH2 0x6DE JUMPI PUSH1 0x40 MLOAD PUSH3 0x461BCD PUSH1 0xE5 SHL DUP2 MSTORE PUSH1 0x4 ADD PUSH2 0x2B3 SWAP2 SWAP1 PUSH2 0x1B22 JUMP JUMPDEST POP PUSH1 0xB DUP1 SLOAD PUSH1 0x4 PUSH1 0xFF NOT SWAP1 SWAP2 AND OR SWAP1 SSTORE PUSH1 0x40 MLOAD CALLER SWAP1 SELFBALANCE DUP1 ISZERO PUSH2 0x8FC MUL SWAP2 PUSH1 0x0 DUP2 DUP2 DUP2 DUP6 DUP9 DUP9 CALL SWAP4 POP POP POP POP ISZERO DUP1 ISZERO PUSH2 0x71A JUMPI RETURNDATASIZE PUSH1 0x0 DUP1 RETURNDATACOPY RETURNDATASIZE PUSH1 0x0 REVERT JUMPDEST POP POP POP JUMP JUMPDEST PUSH1 0xF SLOAD PUSH1 0x1 PUSH1 0x1 PUSH1 0xA0 SHL SUB AND CALLER EQ PUSH2 0x749 JUMPI PUSH1 0x40 MLOAD PUSH3 0x461BCD PUSH1 0xE5 SHL DUP2 MSTORE PUSH1 0x4 ADD PUSH2 0x2B3 SWAP1 PUSH2 0x1AC0 JUMP JUMPDEST PUSH1 0x40 DUP1 MLOAD DUP1 DUP3 ADD SWAP1 SWAP2 MSTORE PUSH1 0xD DUP2 MSTORE PUSH13 0x496E76616C6964205374616765 PUSH1 0x98 SHL PUSH1 0x20 DUP3 ADD MSTORE PUSH1 0x1 SWAP1 DUP2 PUSH1 0xB SLOAD PUSH1 0xFF AND PUSH1 0x4 DUP2 GT ISZERO PUSH2 0x788 JUMPI PUSH2 0x788 PUSH2 0x18DA JUMP JUMPDEST EQ DUP2 SWAP1 PUSH2 0x7A8 JUMPI PUSH1 0x40 MLOAD PUSH3 0x461BCD PUSH1 0xE5 SHL DUP2 MSTORE PUSH1 0x4 ADD PUSH2 0x2B3 SWAP2 SWAP1 PUSH2 0x1B22 JUMP JUMPDEST POP PUSH1 0x0 DUP4 MLOAD GT PUSH2 0x7FA JUMPI PUSH1 0x40 MLOAD PUSH3 0x461BCD PUSH1 0xE5 SHL DUP2 MSTORE PUSH1 0x20 PUSH1 0x4 DUP3 ADD MSTORE PUSH1 0x19 PUSH1 0x24 DUP3 ADD MSTORE PUSH32 0x747261636B696E674964206D757374206E6F7420656D70747900000000000000 PUSH1 0x44 DUP3 ADD MSTORE PUSH1 0x64 ADD PUSH2 0x2B3 JUMP JUMPDEST PUSH1 0xB DUP1 SLOAD PUSH1 0xFF NOT AND PUSH1 0x2 OR SWAP1 SSTORE DUP3 MLOAD PUSH2 0x81A SWAP1 PUSH1 0x11 SWAP1 PUSH1 0x20 DUP7 ADD SWAP1 PUSH2 0x1605 JUMP JUMPDEST POP PUSH1 0x40 MLOAD PUSH32 0x1862CF7A0E12BAC162F518F43C2F50DF187E89045899A7C015C1D61D9880A11B SWAP1 PUSH2 0x450 SWAP1 PUSH1 0x11 SWAP1 PUSH2 0x1B6A JUMP JUMPDEST PUSH1 0x10 SLOAD PUSH1 0x1 PUSH1 0x1 PUSH1 0xA0 SHL SUB AND CALLER EQ PUSH2 0x893 JUMPI PUSH1 0x40 MLOAD PUSH3 0x461BCD PUSH1 0xE5 SHL DUP2 MSTORE PUSH1 0x20 PUSH1 0x4 DUP3 ADD MSTORE PUSH1 0xA PUSH1 0x24 DUP3 ADD MSTORE PUSH10 0x27B7363C90213ABCB2B9 PUSH1 0xB1 SHL PUSH1 0x44 DUP3 ADD MSTORE PUSH1 0x64 ADD PUSH2 0x2B3 JUMP JUMPDEST PUSH2 0x89B PUSH2 0x51C JUMP JUMPDEST PUSH2 0x8DF JUMPI PUSH1 0x40 MLOAD PUSH3 0x461BCD PUSH1 0xE5 SHL DUP2 MSTORE PUSH1 0x20 PUSH1 0x4 DUP3 ADD MSTORE PUSH1 0x15 PUSH1 0x24 DUP3 ADD MSTORE PUSH21 0x44656C69766572656420696E2070726F6772657373 PUSH1 0x58 SHL PUSH1 0x44 DUP3 ADD MSTORE PUSH1 0x64 ADD PUSH2 0x2B3 JUMP JUMPDEST DUP1 ISZERO PUSH2 0x92F JUMPI PUSH1 0x40 MLOAD CALLER SWAP1 SELFBALANCE DUP1 ISZERO PUSH2 0x8FC MUL SWAP2 PUSH1 0x0 DUP2 DUP2 DUP2 DUP6 DUP9 DUP9 CALL SWAP4 POP POP POP POP ISZERO DUP1 ISZERO PUSH2 0x911 JUMPI RETURNDATASIZE PUSH1 0x0 DUP1 RETURNDATACOPY RETURNDATASIZE PUSH1 0x0 REVERT JUMPDEST POP POP PUSH1 0xB DUP1 SLOAD PUSH1 0xFF NOT AND SWAP1 SSTORE PUSH1 0x10 DUP1 SLOAD PUSH1 0x1 PUSH1 0x1 PUSH1 0xA0 SHL SUB NOT AND SWAP1 SSTORE JUMP JUMPDEST PUSH1 0xB DUP1 SLOAD PUSH1 0xFF NOT AND PUSH1 0x1 OR SWAP1 SSTORE JUMPDEST POP JUMP JUMPDEST PUSH1 0x10 SLOAD PUSH1 0x1 PUSH1 0x1 PUSH1 0xA0 SHL SUB AND CALLER EQ PUSH2 0x987 JUMPI PUSH1 0x40 MLOAD PUSH3 0x461BCD PUSH1 0xE5 SHL DUP2 MSTORE PUSH1 0x20 PUSH1 0x4 DUP3 ADD MSTORE PUSH1 0xA PUSH1 0x24 DUP3 ADD MSTORE PUSH10 0x27B7363C90213ABCB2B9 PUSH1 0xB1 SHL PUSH1 0x44 DUP3 ADD MSTORE PUSH1 0x64 ADD PUSH2 0x2B3 JUMP JUMPDEST PUSH2 0x98F PUSH2 0xBDF JUMP JUMPDEST PUSH2 0x9DB JUMPI PUSH1 0x40 MLOAD PUSH3 0x461BCD PUSH1 0xE5 SHL DUP2 MSTORE PUSH1 0x20 PUSH1 0x4 DUP3 ADD MSTORE PUSH1 0x1B PUSH1 0x24 DUP3 ADD MSTORE PUSH32 0x4E6F7420616C6C6F77656420746F2063616E63656C206F726465720000000000 PUSH1 0x44 DUP3 ADD MSTORE PUSH1 0x64 ADD PUSH2 0x2B3 JUMP JUMPDEST PUSH1 0x10 DUP1 SLOAD PUSH1 0x1 PUSH1 0x1 PUSH1 0xA0 SHL SUB NOT AND SWAP1 SSTORE PUSH1 0xB DUP1 SLOAD PUSH1 0xFF NOT AND SWAP1 SSTORE PUSH1 0x40 MLOAD CALLER SWAP1 SELFBALANCE DUP1 ISZERO PUSH2 0x8FC MUL SWAP2 PUSH1 0x0 DUP2 DUP2 DUP2 DUP6 DUP9 DUP9 CALL SWAP4 POP POP POP POP ISZERO DUP1 ISZERO PUSH2 0xA21 JUMPI RETURNDATASIZE PUSH1 0x0 DUP1 RETURNDATACOPY RETURNDATASIZE PUSH1 0x0 REVERT JUMPDEST POP PUSH1 0x40 MLOAD CALLER SWAP1 PUSH32 0x393629F15E859A19530BAB9675F9D39F0F57889F19F883BC5BE3533C4A2C9EA8 SWAP1 PUSH1 0x0 SWAP1 LOG2 JUMP JUMPDEST PUSH1 0x40 DUP1 MLOAD DUP1 DUP3 ADD SWAP1 SWAP2 MSTORE PUSH1 0xD DUP2 MSTORE PUSH13 0x13995959081CDA1A5C1B595B9D PUSH1 0x9A SHL PUSH1 0x20 DUP3 ADD MSTORE PUSH1 0x2 SWAP1 DUP2 PUSH1 0xB SLOAD PUSH1 0xFF AND PUSH1 0x4 DUP2 GT ISZERO PUSH2 0xA8E JUMPI PUSH2 0xA8E PUSH2 0x18DA JUMP JUMPDEST EQ DUP2 SWAP1 PUSH2 0xAAE JUMPI PUSH1 0x40 MLOAD PUSH3 0x461BCD PUSH1 0xE5 SHL DUP2 MSTORE PUSH1 0x4 ADD PUSH2 0x2B3 SWAP2 SWAP1 PUSH2 0x1B22 JUMP JUMPDEST POP PUSH1 0x0 PUSH2 0xAC5 PUSH1 0x8 SLOAD ADDRESS PUSH4 0x9D99F67 PUSH1 0xE0 SHL PUSH2 0xF96 JUMP JUMPDEST SWAP1 POP PUSH2 0xB8B PUSH1 0x40 MLOAD DUP1 PUSH1 0x40 ADD PUSH1 0x40 MSTORE DUP1 PUSH1 0xA DUP2 MSTORE PUSH1 0x20 ADD PUSH10 0x1D1C9858DADA5B99D259 PUSH1 0xB2 SHL DUP2 MSTORE POP PUSH1 0xA PUSH1 0x7 ADD DUP1 SLOAD PUSH2 0xAFD SWAP1 PUSH2 0x1B35 JUMP JUMPDEST DUP1 PUSH1 0x1F ADD PUSH1 0x20 DUP1 SWAP2 DIV MUL PUSH1 0x20 ADD PUSH1 0x40 MLOAD SWAP1 DUP2 ADD PUSH1 0x40 MSTORE DUP1 SWAP3 SWAP2 SWAP1 DUP2 DUP2 MSTORE PUSH1 0x20 ADD DUP3 DUP1 SLOAD PUSH2 0xB29 SWAP1 PUSH2 0x1B35 JUMP JUMPDEST DUP1 ISZERO PUSH2 0xB76 JUMPI DUP1 PUSH1 0x1F LT PUSH2 0xB4B JUMPI PUSH2 0x100 DUP1 DUP4 SLOAD DIV MUL DUP4 MSTORE SWAP2 PUSH1 0x20 ADD SWAP2 PUSH2 0xB76 JUMP JUMPDEST DUP3 ADD SWAP2 SWAP1 PUSH1 0x0 MSTORE PUSH1 0x20 PUSH1 0x0 KECCAK256 SWAP1 JUMPDEST DUP2 SLOAD DUP2 MSTORE SWAP1 PUSH1 0x1 ADD SWAP1 PUSH1 0x20 ADD DUP1 DUP4 GT PUSH2 0xB59 JUMPI DUP3 SWAP1 SUB PUSH1 0x1F AND DUP3 ADD SWAP2 JUMPDEST POP POP POP POP POP DUP4 PUSH2 0xFBB SWAP1 SWAP3 SWAP2 SWAP1 PUSH4 0xFFFFFFFF AND JUMP JUMPDEST PUSH1 0x7 SLOAD PUSH1 0x6 SLOAD PUSH1 0x0 SWAP2 PUSH2 0xBAB SWAP2 PUSH1 0x1 PUSH1 0x1 PUSH1 0xA0 SHL SUB SWAP1 SWAP2 AND SWAP1 DUP5 SWAP1 PUSH2 0xFD9 JUMP JUMPDEST PUSH1 0x40 MLOAD SWAP1 SWAP2 POP DUP2 SWAP1 PUSH32 0xB5E6E01E79F91267DC17B4E6314D5D4D03593D2CEEE0FBB452B750BD70EA5AF9 SWAP1 PUSH1 0x0 SWAP1 LOG2 POP POP POP POP JUMP JUMPDEST PUSH1 0xE SLOAD PUSH1 0x9 SLOAD PUSH1 0x0 SWAP2 PUSH2 0xBF1 SWAP2 PUSH2 0x1C28 JUMP JUMPDEST NUMBER LT ISZERO DUP1 ISZERO PUSH2 0x650 JUMPI POP PUSH1 0x1 PUSH1 0xB SLOAD PUSH1 0xFF AND PUSH1 0x4 DUP2 GT ISZERO PUSH2 0xC14 JUMPI PUSH2 0xC14 PUSH2 0x18DA JUMP JUMPDEST EQ SWAP1 POP SWAP1 JUMP JUMPDEST PUSH1 0xF SLOAD PUSH1 0x1 PUSH1 0x1 PUSH1 0xA0 SHL SUB AND CALLER EQ PUSH2 0xC44 JUMPI PUSH1 0x40 MLOAD PUSH3 0x461BCD PUSH1 0xE5 SHL DUP2 MSTORE PUSH1 0x4 ADD PUSH2 0x2B3 SWAP1 PUSH2 0x1AC0 JUMP JUMPDEST DUP1 MLOAD PUSH2 0xC57 SWAP1 PUSH1 0x13 SWAP1 PUSH1 0x20 DUP5 ADD SWAP1 PUSH2 0x1605 JUMP JUMPDEST POP POP JUMP JUMPDEST PUSH1 0x40 DUP1 MLOAD DUP1 DUP3 ADD SWAP1 SWAP2 MSTORE PUSH1 0x14 DUP2 MSTORE PUSH20 0x20B63932B0B23C903430BB32903090313ABCB2B9 PUSH1 0x61 SHL PUSH1 0x20 DUP3 ADD MSTORE PUSH1 0x0 SWAP1 DUP2 PUSH1 0xB SLOAD PUSH1 0xFF AND PUSH1 0x4 DUP2 GT ISZERO PUSH2 0xCA1 JUMPI PUSH2 0xCA1 PUSH2 0x18DA JUMP JUMPDEST EQ DUP2 SWAP1 PUSH2 0xCC1 JUMPI PUSH1 0x40 MLOAD PUSH3 0x461BCD PUSH1 0xE5 SHL DUP2 MSTORE PUSH1 0x4 ADD PUSH2 0x2B3 SWAP2 SWAP1 PUSH2 0x1B22 JUMP JUMPDEST POP PUSH1 0xF SLOAD PUSH1 0x1 PUSH1 0x1 PUSH1 0xA0 SHL SUB AND CALLER EQ ISZERO PUSH2 0xD1D JUMPI PUSH1 0x40 MLOAD PUSH3 0x461BCD PUSH1 0xE5 SHL DUP2 MSTORE PUSH1 0x20 PUSH1 0x4 DUP3 ADD MSTORE PUSH1 0x1D PUSH1 0x24 DUP3 ADD MSTORE PUSH32 0x596F752063616E206E6F74206275792066726F6D20796F757273656C66000000 PUSH1 0x44 DUP3 ADD MSTORE PUSH1 0x64 ADD PUSH2 0x2B3 JUMP JUMPDEST PUSH1 0xD SLOAD CALLVALUE LT ISZERO PUSH2 0xD61 JUMPI PUSH1 0x40 MLOAD PUSH3 0x461BCD PUSH1 0xE5 SHL DUP2 MSTORE PUSH1 0x20 PUSH1 0x4 DUP3 ADD MSTORE PUSH1 0xF PUSH1 0x24 DUP3 ADD MSTORE PUSH15 0x139BDD08195B9BDD59DA08199D5B99 PUSH1 0x8A SHL PUSH1 0x44 DUP3 ADD MSTORE PUSH1 0x64 ADD PUSH2 0x2B3 JUMP JUMPDEST PUSH1 0xB DUP1 SLOAD PUSH1 0xFF NOT AND PUSH1 0x1 OR SWAP1 SSTORE PUSH1 0x10 DUP1 SLOAD CALLER PUSH1 0x1 PUSH1 0x1 PUSH1 0xA0 SHL SUB NOT SWAP1 SWAP2 AND DUP2 OR SWAP1 SWAP2 SSTORE NUMBER PUSH1 0x9 SSTORE PUSH1 0x40 MLOAD PUSH32 0xE4CAEAEF8E4F0C4880839CA47219351B38CF4116C082FD0BAEFC3008E4BA11A3 SWAP1 PUSH1 0x0 SWAP1 LOG2 POP POP JUMP JUMPDEST PUSH1 0xA DUP1 SLOAD PUSH1 0xB SLOAD PUSH1 0xC SLOAD PUSH1 0xD SLOAD PUSH1 0xE SLOAD PUSH1 0xF SLOAD PUSH1 0x10 SLOAD PUSH1 0x11 DUP1 SLOAD SWAP8 SWAP9 PUSH1 0xFF SWAP1 SWAP8 AND SWAP8 SWAP6 SWAP7 SWAP5 SWAP6 SWAP4 SWAP5 PUSH1 0x1 PUSH1 0x1 PUSH1 0xA0 SHL SUB SWAP4 DUP5 AND SWAP5 SWAP4 SWAP1 SWAP3 AND SWAP3 PUSH2 0xDF7 SWAP1 PUSH2 0x1B35 JUMP JUMPDEST DUP1 PUSH1 0x1F ADD PUSH1 0x20 DUP1 SWAP2 DIV MUL PUSH1 0x20 ADD PUSH1 0x40 MLOAD SWAP1 DUP2 ADD PUSH1 0x40 MSTORE DUP1 SWAP3 SWAP2 SWAP1 DUP2 DUP2 MSTORE PUSH1 0x20 ADD DUP3 DUP1 SLOAD PUSH2 0xE23 SWAP1 PUSH2 0x1B35 JUMP JUMPDEST DUP1 ISZERO PUSH2 0xE70 JUMPI DUP1 PUSH1 0x1F LT PUSH2 0xE45 JUMPI PUSH2 0x100 DUP1 DUP4 SLOAD DIV MUL DUP4 MSTORE SWAP2 PUSH1 0x20 ADD SWAP2 PUSH2 0xE70 JUMP JUMPDEST DUP3 ADD SWAP2 SWAP1 PUSH1 0x0 MSTORE PUSH1 0x20 PUSH1 0x0 KECCAK256 SWAP1 JUMPDEST DUP2 SLOAD DUP2 MSTORE SWAP1 PUSH1 0x1 ADD SWAP1 PUSH1 0x20 ADD DUP1 DUP4 GT PUSH2 0xE53 JUMPI DUP3 SWAP1 SUB PUSH1 0x1F AND DUP3 ADD SWAP2 JUMPDEST POP POP POP POP POP SWAP1 DUP1 PUSH1 0x8 ADD DUP1 SLOAD PUSH2 0xE85 SWAP1 PUSH2 0x1B35 JUMP JUMPDEST DUP1 PUSH1 0x1F ADD PUSH1 0x20 DUP1 SWAP2 DIV MUL PUSH1 0x20 ADD PUSH1 0x40 MLOAD SWAP1 DUP2 ADD PUSH1 0x40 MSTORE DUP1 SWAP3 SWAP2 SWAP1 DUP2 DUP2 MSTORE PUSH1 0x20 ADD DUP3 DUP1 SLOAD PUSH2 0xEB1 SWAP1 PUSH2 0x1B35 JUMP JUMPDEST DUP1 ISZERO PUSH2 0xEFE JUMPI DUP1 PUSH1 0x1F LT PUSH2 0xED3 JUMPI PUSH2 0x100 DUP1 DUP4 SLOAD DIV MUL DUP4 MSTORE SWAP2 PUSH1 0x20 ADD SWAP2 PUSH2 0xEFE JUMP JUMPDEST DUP3 ADD SWAP2 SWAP1 PUSH1 0x0 MSTORE PUSH1 0x20 PUSH1 0x0 KECCAK256 SWAP1 JUMPDEST DUP2 SLOAD DUP2 MSTORE SWAP1 PUSH1 0x1 ADD SWAP1 PUSH1 0x20 ADD DUP1 DUP4 GT PUSH2 0xEE1 JUMPI DUP3 SWAP1 SUB PUSH1 0x1F AND DUP3 ADD SWAP2 JUMPDEST POP POP POP POP POP SWAP1 DUP1 PUSH1 0x9 ADD DUP1 SLOAD PUSH2 0xF13 SWAP1 PUSH2 0x1B35 JUMP JUMPDEST DUP1 PUSH1 0x1F ADD PUSH1 0x20 DUP1 SWAP2 DIV MUL PUSH1 0x20 ADD PUSH1 0x40 MLOAD SWAP1 DUP2 ADD PUSH1 0x40 MSTORE DUP1 SWAP3 SWAP2 SWAP1 DUP2 DUP2 MSTORE PUSH1 0x20 ADD DUP3 DUP1 SLOAD PUSH2 0xF3F SWAP1 PUSH2 0x1B35 JUMP JUMPDEST DUP1 ISZERO PUSH2 0xF8C JUMPI DUP1 PUSH1 0x1F LT PUSH2 0xF61 JUMPI PUSH2 0x100 DUP1 DUP4 SLOAD DIV MUL DUP4 MSTORE SWAP2 PUSH1 0x20 ADD SWAP2 PUSH2 0xF8C JUMP JUMPDEST DUP3 ADD SWAP2 SWAP1 PUSH1 0x0 MSTORE PUSH1 0x20 PUSH1 0x0 KECCAK256 SWAP1 JUMPDEST DUP2 SLOAD DUP2 MSTORE SWAP1 PUSH1 0x1 ADD SWAP1 PUSH1 0x20 ADD DUP1 DUP4 GT PUSH2 0xF6F JUMPI DUP3 SWAP1 SUB PUSH1 0x1F AND DUP3 ADD SWAP2 JUMPDEST POP POP POP POP POP SWAP1 POP DUP11 JUMP JUMPDEST PUSH2 0xF9E PUSH2 0x1689 JUMP JUMPDEST PUSH2 0xFA6 PUSH2 0x1689 JUMP JUMPDEST PUSH2 0xFB2 DUP2 DUP7 DUP7 DUP7 PUSH2 0xFF8 JUMP JUMPDEST SWAP6 SWAP5 POP POP POP POP POP JUMP JUMPDEST PUSH1 0x80 DUP4 ADD MLOAD PUSH2 0xFCA SWAP1 DUP4 PUSH2 0x1035 JUMP JUMPDEST PUSH1 0x80 DUP4 ADD MLOAD PUSH2 0x71A SWAP1 DUP3 PUSH2 0x1035 JUMP JUMPDEST PUSH1 0x0 PUSH2 0xFF0 DUP5 DUP5 DUP5 PUSH1 0x1 PUSH4 0x20214CA3 PUSH1 0xE1 SHL PUSH2 0x104C JUMP JUMPDEST SWAP5 SWAP4 POP POP POP POP JUMP JUMPDEST PUSH2 0x1000 PUSH2 0x1689 JUMP JUMPDEST PUSH2 0x1010 DUP6 PUSH1 0x80 ADD MLOAD PUSH2 0x100 PUSH2 0x1258 JUMP JUMPDEST POP POP SWAP2 DUP4 MSTORE PUSH1 0x1 PUSH1 0x1 PUSH1 0xA0 SHL SUB AND PUSH1 0x20 DUP4 ADD MSTORE PUSH1 0x1 PUSH1 0x1 PUSH1 0xE0 SHL SUB NOT AND PUSH1 0x40 DUP3 ADD MSTORE SWAP1 JUMP JUMPDEST PUSH2 0x1042 DUP3 PUSH1 0x3 DUP4 MLOAD PUSH2 0x12C3 JUMP JUMPDEST PUSH2 0x71A DUP3 DUP3 PUSH2 0x1397 JUMP JUMPDEST PUSH1 0x4 SLOAD PUSH1 0x40 MLOAD PUSH12 0xFFFFFFFFFFFFFFFFFFFFFFFF NOT ADDRESS PUSH1 0x60 SHL AND PUSH1 0x20 DUP3 ADD MSTORE PUSH1 0x34 DUP2 ADD SWAP2 SWAP1 SWAP2 MSTORE PUSH1 0x0 SWAP1 PUSH1 0x54 ADD PUSH1 0x40 DUP1 MLOAD DUP1 DUP4 SUB PUSH1 0x1F NOT ADD DUP2 MSTORE SWAP2 DUP2 MSTORE DUP2 MLOAD PUSH1 0x20 SWAP3 DUP4 ADD KECCAK256 PUSH1 0x4 SLOAD PUSH1 0x60 DUP10 ADD MSTORE PUSH1 0x0 DUP2 DUP2 MSTORE PUSH1 0x5 SWAP1 SWAP4 MSTORE DUP2 DUP4 KECCAK256 DUP1 SLOAD PUSH1 0x1 PUSH1 0x1 PUSH1 0xA0 SHL SUB NOT AND PUSH1 0x1 PUSH1 0x1 PUSH1 0xA0 SHL SUB DUP12 AND OR SWAP1 SSTORE SWAP1 MLOAD SWAP1 SWAP3 POP DUP3 SWAP2 PUSH32 0xB5E6E01E79F91267DC17B4E6314D5D4D03593D2CEEE0FBB452B750BD70EA5AF9 SWAP2 LOG2 PUSH1 0x0 DUP3 PUSH1 0x0 DUP1 DUP9 PUSH1 0x0 ADD MLOAD DUP10 PUSH1 0x20 ADD MLOAD DUP11 PUSH1 0x40 ADD MLOAD DUP12 PUSH1 0x60 ADD MLOAD DUP11 DUP14 PUSH1 0x80 ADD MLOAD PUSH1 0x0 ADD MLOAD PUSH1 0x40 MLOAD PUSH1 0x24 ADD PUSH2 0x1123 SWAP9 SWAP8 SWAP7 SWAP6 SWAP5 SWAP4 SWAP3 SWAP2 SWAP1 PUSH2 0x1C40 JUMP JUMPDEST PUSH1 0x40 DUP1 MLOAD PUSH1 0x1F NOT DUP2 DUP5 SUB ADD DUP2 MSTORE SWAP2 DUP2 MSTORE PUSH1 0x20 DUP3 ADD DUP1 MLOAD PUSH1 0x1 PUSH1 0x1 PUSH1 0xE0 SHL SUB AND PUSH1 0x1 PUSH1 0x1 PUSH1 0xE0 SHL SUB NOT SWAP1 SWAP5 AND SWAP4 SWAP1 SWAP4 OR SWAP1 SWAP3 MSTORE PUSH1 0x2 SLOAD SWAP2 MLOAD PUSH4 0x2000575 PUSH1 0xE5 SHL DUP2 MSTORE SWAP1 SWAP3 POP PUSH1 0x1 PUSH1 0x1 PUSH1 0xA0 SHL SUB SWAP1 SWAP2 AND SWAP1 PUSH4 0x4000AEA0 SWAP1 PUSH2 0x118B SWAP1 DUP11 SWAP1 DUP10 SWAP1 DUP7 SWAP1 PUSH1 0x4 ADD PUSH2 0x1CA8 JUMP JUMPDEST PUSH1 0x20 PUSH1 0x40 MLOAD DUP1 DUP4 SUB DUP2 PUSH1 0x0 DUP8 DUP1 EXTCODESIZE ISZERO DUP1 ISZERO PUSH2 0x11A5 JUMPI PUSH1 0x0 DUP1 REVERT JUMPDEST POP GAS CALL ISZERO DUP1 ISZERO PUSH2 0x11B9 JUMPI RETURNDATASIZE PUSH1 0x0 DUP1 RETURNDATACOPY RETURNDATASIZE PUSH1 0x0 REVERT JUMPDEST POP POP POP POP PUSH1 0x40 MLOAD RETURNDATASIZE PUSH1 0x1F NOT PUSH1 0x1F DUP3 ADD AND DUP3 ADD DUP1 PUSH1 0x40 MSTORE POP DUP2 ADD SWAP1 PUSH2 0x11DD SWAP2 SWAP1 PUSH2 0x1AA3 JUMP JUMPDEST PUSH2 0x1235 JUMPI PUSH1 0x40 MLOAD PUSH3 0x461BCD PUSH1 0xE5 SHL DUP2 MSTORE PUSH1 0x20 PUSH1 0x4 DUP3 ADD MSTORE PUSH1 0x23 PUSH1 0x24 DUP3 ADD MSTORE PUSH32 0x756E61626C6520746F207472616E73666572416E6443616C6C20746F206F7261 PUSH1 0x44 DUP3 ADD MSTORE PUSH3 0x636C65 PUSH1 0xE8 SHL PUSH1 0x64 DUP3 ADD MSTORE PUSH1 0x84 ADD PUSH2 0x2B3 JUMP JUMPDEST PUSH1 0x1 PUSH1 0x4 PUSH1 0x0 DUP3 DUP3 SLOAD PUSH2 0x1248 SWAP2 SWAP1 PUSH2 0x1C28 JUMP JUMPDEST SWAP1 SWAP2 SSTORE POP SWAP2 SWAP8 SWAP7 POP POP POP POP POP POP POP JUMP JUMPDEST PUSH1 0x40 DUP1 MLOAD DUP1 DUP3 ADD SWAP1 SWAP2 MSTORE PUSH1 0x60 DUP2 MSTORE PUSH1 0x0 PUSH1 0x20 DUP3 ADD MSTORE PUSH2 0x1278 PUSH1 0x20 DUP4 PUSH2 0x1CCF JUMP JUMPDEST ISZERO PUSH2 0x12A0 JUMPI PUSH2 0x1288 PUSH1 0x20 DUP4 PUSH2 0x1CCF JUMP JUMPDEST PUSH2 0x1293 SWAP1 PUSH1 0x20 PUSH2 0x1CF1 JUMP JUMPDEST PUSH2 0x129D SWAP1 DUP4 PUSH2 0x1C28 JUMP JUMPDEST SWAP2 POP JUMPDEST POP PUSH1 0x20 DUP1 DUP4 ADD DUP3 SWAP1 MSTORE PUSH1 0x40 DUP1 MLOAD DUP1 DUP6 MSTORE PUSH1 0x0 DUP2 MSTORE DUP4 ADD SWAP1 SWAP2 ADD SWAP1 MSTORE DUP2 JUMPDEST SWAP3 SWAP2 POP POP JUMP JUMPDEST PUSH1 0x17 DUP2 GT PUSH2 0x12E4 JUMPI PUSH2 0x12DE DUP4 PUSH1 0xE0 PUSH1 0x5 DUP6 SWAP1 SHL AND DUP4 OR PUSH2 0x13C5 JUMP JUMPDEST POP POP POP POP JUMP JUMPDEST PUSH1 0xFF DUP2 GT PUSH2 0x130E JUMPI PUSH2 0x1301 DUP4 PUSH1 0x18 PUSH2 0x1FE0 PUSH1 0x5 DUP7 SWAP1 SHL AND OR PUSH2 0x13C5 JUMP JUMPDEST POP PUSH2 0x12DE DUP4 DUP3 PUSH1 0x1 PUSH2 0x13EA JUMP JUMPDEST PUSH2 0xFFFF DUP2 GT PUSH2 0x1339 JUMPI PUSH2 0x132C DUP4 PUSH1 0x19 PUSH2 0x1FE0 PUSH1 0x5 DUP7 SWAP1 SHL AND OR PUSH2 0x13C5 JUMP JUMPDEST POP PUSH2 0x12DE DUP4 DUP3 PUSH1 0x2 PUSH2 0x13EA JUMP JUMPDEST PUSH4 0xFFFFFFFF DUP2 GT PUSH2 0x1366 JUMPI PUSH2 0x1359 DUP4 PUSH1 0x1A PUSH2 0x1FE0 PUSH1 0x5 DUP7 SWAP1 SHL AND OR PUSH2 0x13C5 JUMP JUMPDEST POP PUSH2 0x12DE DUP4 DUP3 PUSH1 0x4 PUSH2 0x13EA JUMP JUMPDEST PUSH8 0xFFFFFFFFFFFFFFFF DUP2 GT PUSH2 0x71A JUMPI PUSH2 0x138A DUP4 PUSH1 0x1B PUSH2 0x1FE0 PUSH1 0x5 DUP7 SWAP1 SHL AND OR PUSH2 0x13C5 JUMP JUMPDEST POP PUSH2 0x12DE DUP4 DUP3 PUSH1 0x8 PUSH2 0x13EA JUMP JUMPDEST PUSH1 0x40 DUP1 MLOAD DUP1 DUP3 ADD SWAP1 SWAP2 MSTORE PUSH1 0x60 DUP2 MSTORE PUSH1 0x0 PUSH1 0x20 DUP3 ADD MSTORE PUSH2 0x13BE DUP4 DUP5 PUSH1 0x0 ADD MLOAD MLOAD DUP5 DUP6 MLOAD PUSH2 0x1410 JUMP JUMPDEST SWAP4 SWAP3 POP POP POP JUMP JUMPDEST PUSH1 0x40 DUP1 MLOAD DUP1 DUP3 ADD SWAP1 SWAP2 MSTORE PUSH1 0x60 DUP2 MSTORE PUSH1 0x0 PUSH1 0x20 DUP3 ADD MSTORE PUSH2 0x13BE DUP4 DUP5 PUSH1 0x0 ADD MLOAD MLOAD DUP5 PUSH2 0x14FA JUMP JUMPDEST PUSH1 0x40 DUP1 MLOAD DUP1 DUP3 ADD SWAP1 SWAP2 MSTORE PUSH1 0x60 DUP2 MSTORE PUSH1 0x0 PUSH1 0x20 DUP3 ADD MSTORE PUSH2 0xFF0 DUP5 DUP6 PUSH1 0x0 ADD MLOAD MLOAD DUP6 DUP6 PUSH2 0x1556 JUMP JUMPDEST PUSH1 0x40 DUP1 MLOAD DUP1 DUP3 ADD SWAP1 SWAP2 MSTORE PUSH1 0x60 DUP2 MSTORE PUSH1 0x0 PUSH1 0x20 DUP3 ADD MSTORE DUP3 MLOAD DUP3 GT ISZERO PUSH2 0x1433 JUMPI PUSH1 0x0 DUP1 REVERT JUMPDEST PUSH1 0x20 DUP6 ADD MLOAD PUSH2 0x1442 DUP4 DUP7 PUSH2 0x1C28 JUMP JUMPDEST GT ISZERO PUSH2 0x1475 JUMPI PUSH2 0x1475 DUP6 PUSH2 0x1465 DUP8 PUSH1 0x20 ADD MLOAD DUP8 DUP7 PUSH2 0x1460 SWAP2 SWAP1 PUSH2 0x1C28 JUMP JUMPDEST PUSH2 0x15D7 JUMP JUMPDEST PUSH2 0x1470 SWAP1 PUSH1 0x2 PUSH2 0x1D08 JUMP JUMPDEST PUSH2 0x15EE JUMP JUMPDEST PUSH1 0x0 DUP1 DUP7 MLOAD DUP1 MLOAD DUP8 PUSH1 0x20 DUP4 ADD ADD SWAP4 POP DUP1 DUP9 DUP8 ADD GT ISZERO PUSH2 0x1494 JUMPI DUP8 DUP7 ADD DUP3 MSTORE JUMPDEST POP POP POP PUSH1 0x20 DUP5 ADD JUMPDEST PUSH1 0x20 DUP5 LT PUSH2 0x14D4 JUMPI DUP1 MLOAD DUP3 MSTORE PUSH2 0x14B3 PUSH1 0x20 DUP4 PUSH2 0x1C28 JUMP JUMPDEST SWAP2 POP PUSH2 0x14C0 PUSH1 0x20 DUP3 PUSH2 0x1C28 JUMP JUMPDEST SWAP1 POP PUSH2 0x14CD PUSH1 0x20 DUP6 PUSH2 0x1CF1 JUMP JUMPDEST SWAP4 POP PUSH2 0x149C JUMP JUMPDEST MLOAD DUP2 MLOAD PUSH1 0x0 NOT PUSH1 0x20 DUP7 SWAP1 SUB PUSH2 0x100 EXP ADD SWAP1 DUP2 AND SWAP1 NOT SWAP2 SWAP1 SWAP2 AND OR SWAP1 MSTORE POP DUP4 SWAP5 SWAP4 POP POP POP POP JUMP JUMPDEST PUSH1 0x40 DUP1 MLOAD DUP1 DUP3 ADD SWAP1 SWAP2 MSTORE PUSH1 0x60 DUP2 MSTORE PUSH1 0x0 PUSH1 0x20 DUP3 ADD MSTORE DUP4 PUSH1 0x20 ADD MLOAD DUP4 LT PUSH2 0x152F JUMPI PUSH2 0x152F DUP5 DUP6 PUSH1 0x20 ADD MLOAD PUSH1 0x2 PUSH2 0x1470 SWAP2 SWAP1 PUSH2 0x1D08 JUMP JUMPDEST DUP4 MLOAD DUP1 MLOAD PUSH1 0x20 DUP6 DUP4 ADD ADD DUP5 DUP2 MSTORE8 POP DUP1 DUP6 EQ ISZERO PUSH2 0x154C JUMPI PUSH1 0x1 DUP2 ADD DUP3 MSTORE JUMPDEST POP SWAP4 SWAP5 SWAP4 POP POP POP POP JUMP JUMPDEST PUSH1 0x40 DUP1 MLOAD DUP1 DUP3 ADD SWAP1 SWAP2 MSTORE PUSH1 0x60 DUP2 MSTORE PUSH1 0x0 PUSH1 0x20 DUP3 ADD MSTORE PUSH1 0x20 DUP6 ADD MLOAD PUSH2 0x157A DUP6 DUP5 PUSH2 0x1C28 JUMP JUMPDEST GT ISZERO PUSH2 0x158E JUMPI PUSH2 0x158E DUP6 PUSH2 0x1465 DUP7 DUP6 PUSH2 0x1C28 JUMP JUMPDEST PUSH1 0x0 PUSH1 0x1 PUSH2 0x159E DUP5 PUSH2 0x100 PUSH2 0x1E0B JUMP JUMPDEST PUSH2 0x15A8 SWAP2 SWAP1 PUSH2 0x1CF1 JUMP JUMPDEST SWAP1 POP DUP6 MLOAD DUP4 DUP7 DUP3 ADD ADD DUP6 DUP4 NOT DUP3 MLOAD AND OR DUP2 MSTORE POP DUP1 MLOAD DUP5 DUP8 ADD GT ISZERO PUSH2 0x15CC JUMPI DUP4 DUP7 ADD DUP2 MSTORE JUMPDEST POP SWAP5 SWAP6 SWAP5 POP POP POP POP POP JUMP JUMPDEST PUSH1 0x0 DUP2 DUP4 GT ISZERO PUSH2 0x15E8 JUMPI POP DUP2 PUSH2 0x12BD JUMP JUMPDEST POP SWAP2 SWAP1 POP JUMP JUMPDEST DUP2 MLOAD PUSH2 0x15FA DUP4 DUP4 PUSH2 0x1258 JUMP JUMPDEST POP PUSH2 0x12DE DUP4 DUP3 PUSH2 0x1397 JUMP JUMPDEST DUP3 DUP1 SLOAD PUSH2 0x1611 SWAP1 PUSH2 0x1B35 JUMP JUMPDEST SWAP1 PUSH1 0x0 MSTORE PUSH1 0x20 PUSH1 0x0 KECCAK256 SWAP1 PUSH1 0x1F ADD PUSH1 0x20 SWAP1 DIV DUP2 ADD SWAP3 DUP3 PUSH2 0x1633 JUMPI PUSH1 0x0 DUP6 SSTORE PUSH2 0x1679 JUMP JUMPDEST DUP3 PUSH1 0x1F LT PUSH2 0x164C JUMPI DUP1 MLOAD PUSH1 0xFF NOT AND DUP4 DUP1 ADD OR DUP6 SSTORE PUSH2 0x1679 JUMP JUMPDEST DUP3 DUP1 ADD PUSH1 0x1 ADD DUP6 SSTORE DUP3 ISZERO PUSH2 0x1679 JUMPI SWAP2 DUP3 ADD JUMPDEST DUP3 DUP2 GT ISZERO PUSH2 0x1679 JUMPI DUP3 MLOAD DUP3 SSTORE SWAP2 PUSH1 0x20 ADD SWAP2 SWAP1 PUSH1 0x1 ADD SWAP1 PUSH2 0x165E JUMP JUMPDEST POP PUSH2 0x1685 SWAP3 SWAP2 POP PUSH2 0x16C4 JUMP JUMPDEST POP SWAP1 JUMP JUMPDEST PUSH1 0x40 DUP1 MLOAD PUSH1 0xA0 DUP2 ADD DUP3 MSTORE PUSH1 0x0 DUP1 DUP3 MSTORE PUSH1 0x20 DUP1 DUP4 ADD DUP3 SWAP1 MSTORE DUP3 DUP5 ADD DUP3 SWAP1 MSTORE PUSH1 0x60 DUP1 DUP5 ADD DUP4 SWAP1 MSTORE DUP5 MLOAD DUP1 DUP7 ADD SWAP1 SWAP6 MSTORE DUP5 MSTORE DUP4 ADD MSTORE SWAP1 PUSH1 0x80 DUP3 ADD MSTORE SWAP1 JUMP JUMPDEST JUMPDEST DUP1 DUP3 GT ISZERO PUSH2 0x1685 JUMPI PUSH1 0x0 DUP2 SSTORE PUSH1 0x1 ADD PUSH2 0x16C5 JUMP JUMPDEST PUSH1 0x0 DUP1 PUSH1 0x40 DUP4 DUP6 SUB SLT ISZERO PUSH2 0x16EC JUMPI PUSH1 0x0 DUP1 REVERT JUMPDEST POP POP DUP1 CALLDATALOAD SWAP3 PUSH1 0x20 SWAP1 SWAP2 ADD CALLDATALOAD SWAP2 POP JUMP JUMPDEST PUSH4 0x4E487B71 PUSH1 0xE0 SHL PUSH1 0x0 MSTORE PUSH1 0x41 PUSH1 0x4 MSTORE PUSH1 0x24 PUSH1 0x0 REVERT JUMPDEST PUSH1 0x40 MLOAD PUSH1 0x1F DUP3 ADD PUSH1 0x1F NOT AND DUP2 ADD PUSH8 0xFFFFFFFFFFFFFFFF DUP2 GT DUP3 DUP3 LT OR ISZERO PUSH2 0x173A JUMPI PUSH2 0x173A PUSH2 0x16FB JUMP JUMPDEST PUSH1 0x40 MSTORE SWAP2 SWAP1 POP JUMP JUMPDEST PUSH1 0x0 PUSH8 0xFFFFFFFFFFFFFFFF DUP3 GT ISZERO PUSH2 0x175C JUMPI PUSH2 0x175C PUSH2 0x16FB JUMP JUMPDEST POP PUSH1 0x1F ADD PUSH1 0x1F NOT AND PUSH1 0x20 ADD SWAP1 JUMP JUMPDEST PUSH1 0x0 DUP3 PUSH1 0x1F DUP4 ADD SLT PUSH2 0x177B JUMPI PUSH1 0x0 DUP1 REVERT JUMPDEST DUP2 CALLDATALOAD PUSH2 0x178E PUSH2 0x1789 DUP3 PUSH2 0x1742 JUMP JUMPDEST PUSH2 0x1711 JUMP JUMPDEST DUP2 DUP2 MSTORE DUP5 PUSH1 0x20 DUP4 DUP7 ADD ADD GT ISZERO PUSH2 0x17A3 JUMPI PUSH1 0x0 DUP1 REVERT JUMPDEST DUP2 PUSH1 0x20 DUP6 ADD PUSH1 0x20 DUP4 ADD CALLDATACOPY PUSH1 0x0 SWAP2 DUP2 ADD PUSH1 0x20 ADD SWAP2 SWAP1 SWAP2 MSTORE SWAP4 SWAP3 POP POP POP JUMP JUMPDEST DUP1 CALLDATALOAD PUSH1 0x1 PUSH1 0x1 PUSH1 0xA0 SHL SUB DUP2 AND DUP2 EQ PUSH2 0x17D7 JUMPI PUSH1 0x0 DUP1 REVERT JUMPDEST SWAP2 SWAP1 POP JUMP JUMPDEST PUSH1 0x0 DUP1 PUSH1 0x0 DUP1 PUSH1 0x0 DUP1 PUSH1 0x0 DUP1 PUSH1 0x0 PUSH2 0x120 DUP11 DUP13 SUB SLT ISZERO PUSH2 0x17FB JUMPI PUSH1 0x0 DUP1 REVERT JUMPDEST DUP10 CALLDATALOAD PUSH8 0xFFFFFFFFFFFFFFFF DUP2 GT ISZERO PUSH2 0x1812 JUMPI PUSH1 0x0 DUP1 REVERT JUMPDEST PUSH2 0x181E DUP13 DUP3 DUP14 ADD PUSH2 0x176A JUMP JUMPDEST SWAP10 POP POP PUSH1 0x20 DUP11 ADD CALLDATALOAD SWAP8 POP PUSH2 0x1834 PUSH1 0x40 DUP12 ADD PUSH2 0x17C0 JUMP JUMPDEST SWAP7 POP PUSH2 0x1842 PUSH1 0x60 DUP12 ADD PUSH2 0x17C0 JUMP JUMPDEST SWAP6 POP PUSH2 0x1850 PUSH1 0x80 DUP12 ADD PUSH2 0x17C0 JUMP JUMPDEST SWAP9 SWAP12 SWAP8 SWAP11 POP SWAP6 SWAP9 SWAP5 SWAP8 SWAP7 PUSH1 0xA0 DUP7 ADD CALLDATALOAD SWAP7 POP PUSH1 0xC0 DUP7 ADD CALLDATALOAD SWAP6 PUSH1 0xE0 DUP2 ADD CALLDATALOAD SWAP6 POP PUSH2 0x100 ADD CALLDATALOAD SWAP4 POP SWAP2 POP POP JUMP JUMPDEST PUSH1 0x0 PUSH1 0x20 DUP3 DUP5 SUB SLT ISZERO PUSH2 0x188C JUMPI PUSH1 0x0 DUP1 REVERT JUMPDEST DUP2 CALLDATALOAD PUSH8 0xFFFFFFFFFFFFFFFF DUP2 GT ISZERO PUSH2 0x18A3 JUMPI PUSH1 0x0 DUP1 REVERT JUMPDEST PUSH2 0xFF0 DUP5 DUP3 DUP6 ADD PUSH2 0x176A JUMP JUMPDEST DUP1 ISZERO ISZERO DUP2 EQ PUSH2 0x93D JUMPI PUSH1 0x0 DUP1 REVERT JUMPDEST PUSH1 0x0 PUSH1 0x20 DUP3 DUP5 SUB SLT ISZERO PUSH2 0x18CF JUMPI PUSH1 0x0 DUP1 REVERT JUMPDEST DUP2 CALLDATALOAD PUSH2 0x13BE DUP2 PUSH2 0x18AF JUMP JUMPDEST PUSH4 0x4E487B71 PUSH1 0xE0 SHL PUSH1 0x0 MSTORE PUSH1 0x21 PUSH1 0x4 MSTORE PUSH1 0x24 PUSH1 0x0 REVERT JUMPDEST PUSH1 0x0 JUMPDEST DUP4 DUP2 LT ISZERO PUSH2 0x190B JUMPI DUP2 DUP2 ADD MLOAD DUP4 DUP3 ADD MSTORE PUSH1 0x20 ADD PUSH2 0x18F3 JUMP JUMPDEST DUP4 DUP2 GT ISZERO PUSH2 0x12DE JUMPI POP POP PUSH1 0x0 SWAP2 ADD MSTORE JUMP JUMPDEST PUSH1 0x0 DUP2 MLOAD DUP1 DUP5 MSTORE PUSH2 0x1934 DUP2 PUSH1 0x20 DUP7 ADD PUSH1 0x20 DUP7 ADD PUSH2 0x18F0 JUMP JUMPDEST PUSH1 0x1F ADD PUSH1 0x1F NOT AND SWAP3 SWAP1 SWAP3 ADD PUSH1 0x20 ADD SWAP3 SWAP2 POP POP JUMP JUMPDEST PUSH1 0x0 PUSH2 0x140 DUP13 DUP4 MSTORE PUSH1 0x5 DUP13 LT PUSH2 0x196E JUMPI PUSH4 0x4E487B71 PUSH1 0xE0 SHL PUSH1 0x0 MSTORE PUSH1 0x21 PUSH1 0x4 MSTORE PUSH1 0x24 PUSH1 0x0 REVERT JUMPDEST DUP12 PUSH1 0x20 DUP5 ADD MSTORE DUP11 PUSH1 0x40 DUP5 ADD MSTORE DUP10 PUSH1 0x60 DUP5 ADD MSTORE DUP9 PUSH1 0x80 DUP5 ADD MSTORE PUSH2 0x199B PUSH1 0xA0 DUP5 ADD DUP10 PUSH1 0x1 PUSH1 0x1 PUSH1 0xA0 SHL SUB AND SWAP1 MSTORE JUMP JUMPDEST PUSH1 0x1 PUSH1 0x1 PUSH1 0xA0 SHL SUB DUP8 AND PUSH1 0xC0 DUP5 ADD MSTORE DUP1 PUSH1 0xE0 DUP5 ADD MSTORE PUSH2 0x19BC DUP2 DUP5 ADD DUP8 PUSH2 0x191C JUMP JUMPDEST SWAP1 POP DUP3 DUP2 SUB PUSH2 0x100 DUP5 ADD MSTORE PUSH2 0x19D1 DUP2 DUP7 PUSH2 0x191C JUMP JUMPDEST SWAP1 POP DUP3 DUP2 SUB PUSH2 0x120 DUP5 ADD MSTORE PUSH2 0x19E6 DUP2 DUP6 PUSH2 0x191C JUMP JUMPDEST SWAP14 SWAP13 POP POP POP POP POP POP POP POP POP POP POP POP POP JUMP JUMPDEST PUSH1 0x0 PUSH1 0x20 DUP3 DUP5 SUB SLT ISZERO PUSH2 0x1A09 JUMPI PUSH1 0x0 DUP1 REVERT JUMPDEST DUP2 MLOAD PUSH8 0xFFFFFFFFFFFFFFFF DUP2 GT ISZERO PUSH2 0x1A20 JUMPI PUSH1 0x0 DUP1 REVERT JUMPDEST DUP3 ADD PUSH1 0x1F DUP2 ADD DUP5 SGT PUSH2 0x1A31 JUMPI PUSH1 0x0 DUP1 REVERT JUMPDEST DUP1 MLOAD PUSH2 0x1A3F PUSH2 0x1789 DUP3 PUSH2 0x1742 JUMP JUMPDEST DUP2 DUP2 MSTORE DUP6 PUSH1 0x20 DUP4 DUP6 ADD ADD GT ISZERO PUSH2 0x1A54 JUMPI PUSH1 0x0 DUP1 REVERT JUMPDEST PUSH2 0xFB2 DUP3 PUSH1 0x20 DUP4 ADD PUSH1 0x20 DUP7 ADD PUSH2 0x18F0 JUMP JUMPDEST PUSH1 0x40 DUP2 MSTORE PUSH1 0x0 PUSH2 0x1A78 PUSH1 0x40 DUP4 ADD DUP5 PUSH2 0x191C JUMP JUMPDEST DUP3 DUP2 SUB PUSH1 0x20 DUP5 ADD MSTORE PUSH1 0x9 DUP2 MSTORE PUSH9 0x11195B1A5D995C9959 PUSH1 0xBA SHL PUSH1 0x20 DUP3 ADD MSTORE PUSH1 0x40 DUP2 ADD SWAP2 POP POP SWAP3 SWAP2 POP POP JUMP JUMPDEST PUSH1 0x0 PUSH1 0x20 DUP3 DUP5 SUB SLT ISZERO PUSH2 0x1AB5 JUMPI PUSH1 0x0 DUP1 REVERT JUMPDEST DUP2 MLOAD PUSH2 0x13BE DUP2 PUSH2 0x18AF JUMP JUMPDEST PUSH1 0x20 DUP1 DUP3 MSTORE PUSH1 0xA SWAP1 DUP3 ADD MSTORE PUSH10 0x27B7363C9027BBB732B9 PUSH1 0xB1 SHL PUSH1 0x40 DUP3 ADD MSTORE PUSH1 0x60 ADD SWAP1 JUMP JUMPDEST PUSH1 0x40 DUP2 MSTORE PUSH1 0x0 PUSH2 0x1AF7 PUSH1 0x40 DUP4 ADD DUP5 PUSH2 0x191C JUMP JUMPDEST DUP3 DUP2 SUB PUSH1 0x20 DUP5 ADD MSTORE PUSH1 0x9 DUP2 MSTORE PUSH9 0x22BC31B2B83A34B7B7 PUSH1 0xB9 SHL PUSH1 0x20 DUP3 ADD MSTORE PUSH1 0x40 DUP2 ADD SWAP2 POP POP SWAP3 SWAP2 POP POP JUMP JUMPDEST PUSH1 0x20 DUP2 MSTORE PUSH1 0x0 PUSH2 0x13BE PUSH1 0x20 DUP4 ADD DUP5 PUSH2 0x191C JUMP JUMPDEST PUSH1 0x1 DUP2 DUP2 SHR SWAP1 DUP3 AND DUP1 PUSH2 0x1B49 JUMPI PUSH1 0x7F DUP3 AND SWAP2 POP JUMPDEST PUSH1 0x20 DUP3 LT DUP2 EQ ISZERO PUSH2 0x15E8 JUMPI PUSH4 0x4E487B71 PUSH1 0xE0 SHL PUSH1 0x0 MSTORE PUSH1 0x22 PUSH1 0x4 MSTORE PUSH1 0x24 PUSH1 0x0 REVERT JUMPDEST PUSH1 0x0 PUSH1 0x20 DUP1 DUP4 MSTORE PUSH1 0x0 DUP5 SLOAD DUP2 PUSH1 0x1 DUP3 DUP2 SHR SWAP2 POP DUP1 DUP4 AND DUP1 PUSH2 0x1B8C JUMPI PUSH1 0x7F DUP4 AND SWAP3 POP JUMPDEST DUP6 DUP4 LT DUP2 EQ ISZERO PUSH2 0x1BAA JUMPI PUSH4 0x4E487B71 PUSH1 0xE0 SHL DUP6 MSTORE PUSH1 0x22 PUSH1 0x4 MSTORE PUSH1 0x24 DUP6 REVERT JUMPDEST DUP8 DUP7 ADD DUP4 DUP2 MSTORE PUSH1 0x20 ADD DUP2 DUP1 ISZERO PUSH2 0x1BC7 JUMPI PUSH1 0x1 DUP2 EQ PUSH2 0x1BD8 JUMPI PUSH2 0x1C03 JUMP JUMPDEST PUSH1 0xFF NOT DUP7 AND DUP3 MSTORE DUP8 DUP3 ADD SWAP7 POP PUSH2 0x1C03 JUMP JUMPDEST PUSH1 0x0 DUP12 DUP2 MSTORE PUSH1 0x20 SWAP1 KECCAK256 PUSH1 0x0 JUMPDEST DUP7 DUP2 LT ISZERO PUSH2 0x1BFD JUMPI DUP2 SLOAD DUP5 DUP3 ADD MSTORE SWAP1 DUP6 ADD SWAP1 DUP10 ADD PUSH2 0x1BE4 JUMP JUMPDEST DUP4 ADD SWAP8 POP POP JUMPDEST POP SWAP5 SWAP10 SWAP9 POP POP POP POP POP POP POP POP POP JUMP JUMPDEST PUSH4 0x4E487B71 PUSH1 0xE0 SHL PUSH1 0x0 MSTORE PUSH1 0x11 PUSH1 0x4 MSTORE PUSH1 0x24 PUSH1 0x0 REVERT JUMPDEST PUSH1 0x0 DUP3 NOT DUP3 GT ISZERO PUSH2 0x1C3B JUMPI PUSH2 0x1C3B PUSH2 0x1C12 JUMP JUMPDEST POP ADD SWAP1 JUMP JUMPDEST PUSH1 0x1 PUSH1 0x1 PUSH1 0xA0 SHL SUB DUP10 DUP2 AND DUP3 MSTORE PUSH1 0x20 DUP3 ADD DUP10 SWAP1 MSTORE PUSH1 0x40 DUP3 ADD DUP9 SWAP1 MSTORE DUP7 AND PUSH1 0x60 DUP3 ADD MSTORE PUSH1 0x1 PUSH1 0x1 PUSH1 0xE0 SHL SUB NOT DUP6 AND PUSH1 0x80 DUP3 ADD MSTORE PUSH1 0xA0 DUP2 ADD DUP5 SWAP1 MSTORE PUSH1 0xC0 DUP2 ADD DUP4 SWAP1 MSTORE PUSH2 0x100 PUSH1 0xE0 DUP3 ADD DUP2 SWAP1 MSTORE PUSH1 0x0 SWAP1 PUSH2 0x1C99 DUP4 DUP3 ADD DUP6 PUSH2 0x191C JUMP JUMPDEST SWAP12 SWAP11 POP POP POP POP POP POP POP POP POP POP POP JUMP JUMPDEST PUSH1 0x1 DUP1 PUSH1 0xA0 SHL SUB DUP5 AND DUP2 MSTORE DUP3 PUSH1 0x20 DUP3 ADD MSTORE PUSH1 0x60 PUSH1 0x40 DUP3 ADD MSTORE PUSH1 0x0 PUSH2 0xFB2 PUSH1 0x60 DUP4 ADD DUP5 PUSH2 0x191C JUMP JUMPDEST PUSH1 0x0 DUP3 PUSH2 0x1CEC JUMPI PUSH4 0x4E487B71 PUSH1 0xE0 SHL PUSH1 0x0 MSTORE PUSH1 0x12 PUSH1 0x4 MSTORE PUSH1 0x24 PUSH1 0x0 REVERT JUMPDEST POP MOD SWAP1 JUMP JUMPDEST PUSH1 0x0 DUP3 DUP3 LT ISZERO PUSH2 0x1D03 JUMPI PUSH2 0x1D03 PUSH2 0x1C12 JUMP JUMPDEST POP SUB SWAP1 JUMP JUMPDEST PUSH1 0x0 DUP2 PUSH1 0x0 NOT DIV DUP4 GT DUP3 ISZERO ISZERO AND ISZERO PUSH2 0x1D22 JUMPI PUSH2 0x1D22 PUSH2 0x1C12 JUMP JUMPDEST POP MUL SWAP1 JUMP JUMPDEST PUSH1 0x1 DUP2 DUP2 JUMPDEST DUP1 DUP6 GT ISZERO PUSH2 0x1D62 JUMPI DUP2 PUSH1 0x0 NOT DIV DUP3 GT ISZERO PUSH2 0x1D48 JUMPI PUSH2 0x1D48 PUSH2 0x1C12 JUMP JUMPDEST DUP1 DUP6 AND ISZERO PUSH2 0x1D55 JUMPI SWAP2 DUP2 MUL SWAP2 JUMPDEST SWAP4 DUP5 SHR SWAP4 SWAP1 DUP1 MUL SWAP1 PUSH2 0x1D2C JUMP JUMPDEST POP SWAP3 POP SWAP3 SWAP1 POP JUMP JUMPDEST PUSH1 0x0 DUP3 PUSH2 0x1D79 JUMPI POP PUSH1 0x1 PUSH2 0x12BD JUMP JUMPDEST DUP2 PUSH2 0x1D86 JUMPI POP PUSH1 0x0 PUSH2 0x12BD JUMP JUMPDEST DUP2 PUSH1 0x1 DUP2 EQ PUSH2 0x1D9C JUMPI PUSH1 0x2 DUP2 EQ PUSH2 0x1DA6 JUMPI PUSH2 0x1DC2 JUMP JUMPDEST PUSH1 0x1 SWAP2 POP POP PUSH2 0x12BD JUMP JUMPDEST PUSH1 0xFF DUP5 GT ISZERO PUSH2 0x1DB7 JUMPI PUSH2 0x1DB7 PUSH2 0x1C12 JUMP JUMPDEST POP POP PUSH1 0x1 DUP3 SHL PUSH2 0x12BD JUMP JUMPDEST POP PUSH1 0x20 DUP4 LT PUSH2 0x133 DUP4 LT AND PUSH1 0x4E DUP5 LT PUSH1 0xB DUP5 LT AND OR ISZERO PUSH2 0x1DE5 JUMPI POP DUP2 DUP2 EXP PUSH2 0x12BD JUMP JUMPDEST PUSH2 0x1DEF DUP4 DUP4 PUSH2 0x1D27 JUMP JUMPDEST DUP1 PUSH1 0x0 NOT DIV DUP3 GT ISZERO PUSH2 0x1E03 JUMPI PUSH2 0x1E03 PUSH2 0x1C12 JUMP JUMPDEST MUL SWAP4 SWAP3 POP POP POP JUMP JUMPDEST PUSH1 0x0 PUSH2 0x13BE DUP4 DUP4 PUSH2 0x1D6A JUMP INVALID LOG2 PUSH5 0x6970667358 0x22 SLT KECCAK256 0x21 0x24 SWAP1 DUP2 0xBC 0xCF NOT 0x25 EQ INVALID PUSH24 0x82AC10EB3E35476AA4D8931C0C6642175DA666E04064736F PUSH13 0x63430008090033A26469706673 PC 0x22 SLT KECCAK256 0xC4 BASEFEE SWAP16 PUSH10 0x910FA24D38A48DBC2BAA 0xCE CODECOPY DUP5 KECCAK256 PUSH15 0x3ACB52CCC3DCE93B1AB64550286473 PUSH16 0x6C634300080900330000000000000000 ",
  "sha1": "75eb7da87d7c35fd4121aecb5df89d502cdfb1e6",
  "source": "// SPDX-License-Identifier: MIT\npragma solidity ^0.8.7;\n\nimport \"./Escrow.sol\";\nimport \"@openzeppelin/contracts/access/Ownable.sol\";\nimport \"@openzeppelin/contracts/token/ERC20/ERC20.sol\";\nimport \"./strings.sol\";\n\ncontract EscrowFactory is Ownable {\n    using strings for string;\n\n    address linkToken;\n    address oracle;\n    bytes32 jobId;\n    uint256 public maxLockPeriod;\n    uint256 public productCount;\n    uint256 internal constant oracleFee = 1 * 10**18;\n\n    constructor(\n        bytes32 _jobId,\n        address _linkToken,\n        address _oracle,\n        uint256 _maxLockPeriod\n    ) {\n        require(_maxLockPeriod >= 0, \"lock period must be greater than 0\");\n        linkToken = _linkToken;\n        oracle = _oracle;\n        jobId = _jobId;\n        productCount = 0;\n        maxLockPeriod = _maxLockPeriod;\n    }\n\n    event ProductCreated(address indexed seller, address product);\n\n    function createProduct(\n        string memory _name,\n        uint256 _price,\n        string memory _productURI,\n        uint256 _lockPeriod\n    ) external {\n        if (_lockPeriod > maxLockPeriod) {\n            _lockPeriod = maxLockPeriod;\n        }\n\n        uint256 newId = productCount;\n\n        // address product = address(new Escrow{salt: salt}());\n        address addr;\n        bytes memory bytecode = type(Escrow).creationCode;\n        bytes32 salt = keccak256(abi.encodePacked(newId, msg.sender, _price));\n        assembly {\n            addr := create2(0, add(bytecode, 32), mload(bytecode), salt)\n        }\n\n        Escrow(addr).setProductURI(_productURI);\n\n        Escrow(addr).init(\n            _name,\n            jobId,\n            linkToken,\n            oracle,\n            msg.sender,\n            newId,\n            _price,\n            _lockPeriod,\n            oracleFee\n        );\n\n        ERC20(linkToken).transfer(addr, 1 * oracleFee);\n\n        productCount++;\n\n        emit ProductCreated(msg.sender, addr);\n    }\n\n    function setMaxLockPeriod(uint256 _maxLockPeriod) external onlyOwner {\n        require(_maxLockPeriod >= 0, \"lock period must be greater than 0\");\n        maxLockPeriod = _maxLockPeriod;\n    }\n}\n",
  "sourcePath": "contracts/EscrowFactory.sol",
  "type": "contract"
}