{
  "abi": [
    {
      "inputs": [],
      "stateMutability": "nonpayable",
      "type": "constructor"
    },
    {
      "anonymous": false,
      "inputs": [
        {
          "indexed": true,
          "internalType": "bytes32",
          "name": "id",
          "type": "bytes32"
        }
      ],
      "name": "ChainlinkCancelled",
      "type": "event"
    },
    {
      "anonymous": false,
      "inputs": [
        {
          "indexed": true,
          "internalType": "bytes32",
          "name": "id",
          "type": "bytes32"
        }
      ],
      "name": "ChainlinkFulfilled",
      "type": "event"
    },
    {
      "anonymous": false,
      "inputs": [
        {
          "indexed": true,
          "internalType": "bytes32",
          "name": "id",
          "type": "bytes32"
        }
      ],
      "name": "ChainlinkRequested",
      "type": "event"
    },
    {
      "anonymous": false,
      "inputs": [
        {
          "indexed": true,
          "internalType": "address",
          "name": "_buyer",
          "type": "address"
        }
      ],
      "name": "OrderCancel",
      "type": "event"
    },
    {
      "anonymous": false,
      "inputs": [
        {
          "indexed": false,
          "internalType": "string",
          "name": "trackingNo",
          "type": "string"
        }
      ],
      "name": "OrderCompleted",
      "type": "event"
    },
    {
      "anonymous": false,
      "inputs": [
        {
          "indexed": true,
          "internalType": "address",
          "name": "_buyer",
          "type": "address"
        }
      ],
      "name": "OrderInitiate",
      "type": "event"
    },
    {
      "anonymous": false,
      "inputs": [
        {
          "indexed": true,
          "internalType": "address",
          "name": "previousOwner",
          "type": "address"
        },
        {
          "indexed": true,
          "internalType": "address",
          "name": "newOwner",
          "type": "address"
        }
      ],
      "name": "OwnershipTransferred",
      "type": "event"
    },
    {
      "anonymous": false,
      "inputs": [
        {
          "indexed": false,
          "internalType": "string",
          "name": "trackingNo",
          "type": "string"
        }
      ],
      "name": "ShipmentInprogress",
      "type": "event"
    },
    {
      "anonymous": false,
      "inputs": [
        {
          "indexed": false,
          "internalType": "bytes32",
          "name": "status",
          "type": "bytes32"
        }
      ],
      "name": "ShipmentUpdated",
      "type": "event"
    },
    {
      "inputs": [],
      "name": "cancelOrder",
      "outputs": [],
      "stateMutability": "nonpayable",
      "type": "function"
    },
    {
      "inputs": [],
      "name": "currentBlock",
      "outputs": [
        {
          "internalType": "uint256",
          "name": "",
          "type": "uint256"
        }
      ],
      "stateMutability": "view",
      "type": "function"
    },
    {
      "inputs": [
        {
          "internalType": "bytes32",
          "name": "_requestId",
          "type": "bytes32"
        },
        {
          "internalType": "bytes32",
          "name": "_deliveryStatus",
          "type": "bytes32"
        }
      ],
      "name": "fulfillShippingDetail",
      "outputs": [],
      "stateMutability": "nonpayable",
      "type": "function"
    },
    {
      "inputs": [
        {
          "internalType": "address",
          "name": "_link",
          "type": "address"
        },
        {
          "internalType": "address",
          "name": "_oracle",
          "type": "address"
        },
        {
          "internalType": "string",
          "name": "_jobId",
          "type": "string"
        },
        {
          "internalType": "uint256",
          "name": "_id",
          "type": "uint256"
        },
        {
          "internalType": "string",
          "name": "_name",
          "type": "string"
        },
        {
          "internalType": "address",
          "name": "_seller",
          "type": "address"
        },
        {
          "internalType": "uint256",
          "name": "_price",
          "type": "uint256"
        },
        {
          "internalType": "uint256",
          "name": "_lockPeriod",
          "type": "uint256"
        },
        {
          "internalType": "uint256",
          "name": "_oracleFee",
          "type": "uint256"
        }
      ],
      "name": "init",
      "outputs": [],
      "stateMutability": "nonpayable",
      "type": "function"
    },
    {
      "inputs": [],
      "name": "order",
      "outputs": [],
      "stateMutability": "payable",
      "type": "function"
    },
    {
      "inputs": [],
      "name": "owner",
      "outputs": [
        {
          "internalType": "address",
          "name": "",
          "type": "address"
        }
      ],
      "stateMutability": "view",
      "type": "function"
    },
    {
      "inputs": [],
      "name": "product",
      "outputs": [
        {
          "internalType": "uint256",
          "name": "id",
          "type": "uint256"
        },
        {
          "internalType": "string",
          "name": "name",
          "type": "string"
        },
        {
          "internalType": "uint256",
          "name": "price",
          "type": "uint256"
        },
        {
          "internalType": "address",
          "name": "owner",
          "type": "address"
        },
        {
          "internalType": "address",
          "name": "buyer",
          "type": "address"
        },
        {
          "internalType": "bool",
          "name": "purchased",
          "type": "bool"
        },
        {
          "internalType": "string",
          "name": "productURI",
          "type": "string"
        },
        {
          "internalType": "string",
          "name": "trackingId",
          "type": "string"
        },
        {
          "internalType": "string",
          "name": "deliveryStatus",
          "type": "string"
        },
        {
          "internalType": "enum Escrow.Stage",
          "name": "stage",
          "type": "uint8"
        },
        {
          "internalType": "uint256",
          "name": "lockPeriod",
          "type": "uint256"
        }
      ],
      "stateMutability": "view",
      "type": "function"
    },
    {
      "inputs": [],
      "name": "reclaimFund",
      "outputs": [],
      "stateMutability": "nonpayable",
      "type": "function"
    },
    {
      "inputs": [],
      "name": "renounceOwnership",
      "outputs": [],
      "stateMutability": "nonpayable",
      "type": "function"
    },
    {
      "inputs": [],
      "name": "requestShippingDetail",
      "outputs": [],
      "stateMutability": "nonpayable",
      "type": "function"
    },
    {
      "inputs": [
        {
          "internalType": "string",
          "name": "_productURI",
          "type": "string"
        }
      ],
      "name": "setProductURI",
      "outputs": [],
      "stateMutability": "nonpayable",
      "type": "function"
    },
    {
      "inputs": [
        {
          "internalType": "address",
          "name": "newOwner",
          "type": "address"
        }
      ],
      "name": "transferOwnership",
      "outputs": [],
      "stateMutability": "nonpayable",
      "type": "function"
    },
    {
      "inputs": [
        {
          "internalType": "string",
          "name": "_trackingId",
          "type": "string"
        }
      ],
      "name": "updateShipment",
      "outputs": [],
      "stateMutability": "nonpayable",
      "type": "function"
    }
  ],
  "bytecode": "6080604052600160045534801561001557600080fd5b5061001f33610036565b600a80546001600160a01b03191633179055610088565b600680546001600160a01b038381166001600160a01b0319831681179093556040519116919082907f8be0079c531659141344cd1fd0a4f28419497f9722a3daafe3b4186f6b6457e090600090a35050565b611f19806100976000396000f3fe6080604052600436106100c25760003560e01c8063715018a61161007f578063bf15071d11610059578063bf15071d146101ca578063bf9ce952146101d2578063e12ed13c146101fe578063f2fde38b1461022257600080fd5b8063715018a6146101685780638da5cb5b1461017d578063959c1ea8146101aa57600080fd5b806309d99f67146100c7578063168aec36146100e9578063366e8e5214610109578063507370551461011e5780636a8165481461013e5780636b827cd414610153575b600080fd5b3480156100d357600080fd5b506100e76100e236600461179b565b610242565b005b3480156100f557600080fd5b506100e761010436600461189e565b6104fc565b34801561011557600080fd5b506100e7610662565b34801561012a57600080fd5b506100e761013936600461195b565b61072c565b34801561014a57600080fd5b506100e7610808565b34801561015f57600080fd5b506100e761098b565b34801561017457600080fd5b506100e7610b1b565b34801561018957600080fd5b506006546040516001600160a01b0390911681526020015b60405180910390f35b3480156101b657600080fd5b506100e76101c536600461195b565b610b51565b6100e7610b92565b3480156101de57600080fd5b506101e7610cec565b6040516101a19b9a999897969594939291906119fe565b34801561020a57600080fd5b50610214600b5481565b6040519081526020016101a1565b34801561022e57600080fd5b506100e761023d366004611ab7565b610f6b565b60008281526005602052604090205482906001600160a01b031633146102c05760405162461bcd60e51b815260206004820152602860248201527f536f75726365206d75737420626520746865206f7261636c65206f6620746865604482015267081c995c5d595cdd60c21b60648201526084015b60405180910390fd5b60008181526005602052604080822080546001600160a01b03191690555182917f7cc135e0cebb02c3480ae5d74d377283180a2601f8f644edf7987b009316c63a91a2604051639201de5560e01b81526004810183905273__strings_______________________________90639201de559060240160006040518083038186803b15801561034e57600080fd5b505af4158015610362573d6000803e3d6000fd5b505050506040513d6000823e601f3d908101601f1916820160405261038a9190810190611ad2565b805161039e916013916020909101906116c7565b50601380546103ac90611b40565b80601f01602080910402602001604051908101604052809291908181526020018280546103d890611b40565b80156104255780601f106103fa57610100808354040283529160200191610425565b820191906000526020600020905b81548152906001019060200180831161040857829003601f168201915b5050604051635f69a5dd60e11b815273__strings_______________________________9463bed34bba945061046093509150600401611b75565b60206040518083038186803b15801561047857600080fd5b505af415801561048c573d6000803e3d6000fd5b505050506040513d601f19601f820116820180604052508101906104b09190611bb3565b156104c3576014805460ff191660031790555b6040518281527f65fb20badd0fcfd3bf3ba0ca9bfe4ec522640041a07decd17f1be1fb0ead4f4a906020015b60405180910390a1505050565b600a546001600160a01b031633146105425760405162461bcd60e51b81526020600482015260096024820152682327a92124a22222a760b91b60448201526064016102b7565b600280546001600160a01b0319166001600160a01b038b1617905561056684610f6b565b600880546001600160a01b0319166001600160a01b038a161790556040516319f6a32560e31b815273__strings_______________________________9063cfb51928906105b8908a90600401611bd5565b60206040518083038186803b1580156105d057600080fd5b505af41580156105e4573d6000803e3d6000fd5b505050506040513d601f19601f820116820180604052508101906106089190611be8565b6009556007819055600c869055845161062890600d9060208801906116c7565b50506015556014805460ff19169055600f80546001600160a01b0319166001600160a01b039390931692909217909155600e555050505050565b6006546001600160a01b0316331461068c5760405162461bcd60e51b81526004016102b790611c01565b60408051808201909152600d81526c496e76616c696420537461676560981b60208201526003908160145460ff1660048111156106cb576106cb6119e8565b1481906106eb5760405162461bcd60e51b81526004016102b79190611bd5565b5060148054600460ff1990911617905560405133904780156108fc02916000818181858888f19350505050158015610727573d6000803e3d6000fd5b505050565b6006546001600160a01b031633146107565760405162461bcd60e51b81526004016102b790611c01565b60408051808201909152600d81526c496e76616c696420537461676560981b60208201526001908160145460ff166004811115610795576107956119e8565b1481906107b55760405162461bcd60e51b81526004016102b79190611bd5565b506014805460ff1916600217905582516107d69060129060208601906116c7565b506040517f1862cf7a0e12bac162f518f43c2f50df187e89045899a7c015c1d61d9880a11b906104ef90601290611c36565b6010546001600160a01b0316331461084f5760405162461bcd60e51b815260206004820152600a60248201526927b7363c90213abcb2b960b11b60448201526064016102b7565b6040805180820190915260148152737368697070696e6720696e2070726f677265737360601b60208201526001908160145460ff166004811115610895576108956119e8565b1481906108b55760405162461bcd60e51b81526004016102b79190611bd5565b50601554600b546108c69190611cf4565b4310156109155760405162461bcd60e51b815260206004820152601b60248201527f4e6f7420616c6c6f77656420746f2063616e63656c206f72646572000000000060448201526064016102b7565b601080546001600160a01b03191690556014805460ff1916905560405133904780156108fc02916000818181858888f1935050505015801561095b573d6000803e3d6000fd5b5060405133907f393629f15e859a19530bab9675f9d39f0f57889f19f883bc5be3533c4a2c9ea890600090a25050565b60408051808201909152600d81526c13995959081cda1a5c1b595b9d609a1b60208201526002908160145460ff1660048111156109ca576109ca6119e8565b1481906109ea5760405162461bcd60e51b81526004016102b79190611bd5565b506000610a01600954306309d99f6760e01b611006565b9050610ac76040518060400160405280600a8152602001691d1c9858dada5b99d25960b21b815250600c6006018054610a3990611b40565b80601f0160208091040260200160405190810160405280929190818152602001828054610a6590611b40565b8015610ab25780601f10610a8757610100808354040283529160200191610ab2565b820191906000526020600020905b815481529060010190602001808311610a9557829003601f168201915b50505050508361102b9092919063ffffffff16565b600854600754600091610ae7916001600160a01b03909116908490611049565b60405190915081907fb5e6e01e79f91267dc17b4e6314d5d4d03593d2ceee0fbb452b750bd70ea5af990600090a250505050565b6006546001600160a01b03163314610b455760405162461bcd60e51b81526004016102b790611c01565b610b4f6000611068565b565b6006546001600160a01b03163314610b7b5760405162461bcd60e51b81526004016102b790611c01565b8051610b8e9060119060208401906116c7565b5050565b60408051808201909152601481527320b63932b0b23c903430bb32903090313abcb2b960611b60208201526000908160145460ff166004811115610bd857610bd86119e8565b148190610bf85760405162461bcd60e51b81526004016102b79190611bd5565b506006546001600160a01b0316331415610c545760405162461bcd60e51b815260206004820152601d60248201527f596f752063616e206e6f74206275792066726f6d20796f757273656c6600000060448201526064016102b7565b600e54341015610c985760405162461bcd60e51b815260206004820152600f60248201526e139bdd08195b9bdd59da08199d5b99608a1b60448201526064016102b7565b6014805460ff1916600117905560108054336001600160a01b0319909116811790915543600b556040517fe4caeaef8e4f0c4880839ca47219351b38cf4116c082fd0baefc3008e4ba11a390600090a25050565b600c8054600d8054919291610d0090611b40565b80601f0160208091040260200160405190810160405280929190818152602001828054610d2c90611b40565b8015610d795780601f10610d4e57610100808354040283529160200191610d79565b820191906000526020600020905b815481529060010190602001808311610d5c57829003601f168201915b50505050600283015460038401546004850154600586018054959693956001600160a01b03938416955092821693600160a01b90920460ff1692610dbc90611b40565b80601f0160208091040260200160405190810160405280929190818152602001828054610de890611b40565b8015610e355780601f10610e0a57610100808354040283529160200191610e35565b820191906000526020600020905b815481529060010190602001808311610e1857829003601f168201915b505050505090806006018054610e4a90611b40565b80601f0160208091040260200160405190810160405280929190818152602001828054610e7690611b40565b8015610ec35780601f10610e9857610100808354040283529160200191610ec3565b820191906000526020600020905b815481529060010190602001808311610ea657829003601f168201915b505050505090806007018054610ed890611b40565b80601f0160208091040260200160405190810160405280929190818152602001828054610f0490611b40565b8015610f515780601f10610f2657610100808354040283529160200191610f51565b820191906000526020600020905b815481529060010190602001808311610f3457829003601f168201915b505050506008830154600990930154919260ff169190508b565b6006546001600160a01b03163314610f955760405162461bcd60e51b81526004016102b790611c01565b6001600160a01b038116610ffa5760405162461bcd60e51b815260206004820152602660248201527f4f776e61626c653a206e6577206f776e657220697320746865207a65726f206160448201526564647265737360d01b60648201526084016102b7565b61100381611068565b50565b61100e61174b565b61101661174b565b611022818686866110ba565b95945050505050565b608083015161103a90836110f7565b608083015161072790826110f7565b600061106084848460016320214ca360e11b61110e565b949350505050565b600680546001600160a01b038381166001600160a01b0319831681179093556040519116919082907f8be0079c531659141344cd1fd0a4f28419497f9722a3daafe3b4186f6b6457e090600090a35050565b6110c261174b565b6110d2856080015161010061131a565b50509183526001600160a01b031660208301526001600160e01b031916604082015290565b6111048260038351611385565b6107278282611459565b6004546040516bffffffffffffffffffffffff193060601b166020820152603481019190915260009060540160408051808303601f19018152918152815160209283012060045460608901526000818152600590935281832080546001600160a01b0319166001600160a01b038b16179055905190925082917fb5e6e01e79f91267dc17b4e6314d5d4d03593d2ceee0fbb452b750bd70ea5af991a2600082600080886000015189602001518a604001518b606001518a8d60800151600001516040516024016111e5989796959493929190611d0c565b60408051601f198184030181529181526020820180516001600160e01b03166001600160e01b0319909416939093179092526002549151630200057560e51b81529092506001600160a01b0390911690634000aea09061124d908a9089908690600401611d74565b602060405180830381600087803b15801561126757600080fd5b505af115801561127b573d6000803e3d6000fd5b505050506040513d601f19601f8201168201806040525081019061129f9190611bb3565b6112f75760405162461bcd60e51b815260206004820152602360248201527f756e61626c6520746f207472616e73666572416e6443616c6c20746f206f7261604482015262636c6560e81b60648201526084016102b7565b60016004600082825461130a9190611cf4565b9091555091979650505050505050565b60408051808201909152606081526000602082015261133a602083611d9b565b156113625761134a602083611d9b565b611355906020611dbd565b61135f9083611cf4565b91505b506020808301829052604080518085526000815283019091019052815b92915050565b601781116113a6576113a08360e0600585901b168317611487565b50505050565b60ff81116113d0576113c3836018611fe0600586901b1617611487565b506113a0838260016114ac565b61ffff81116113fb576113ee836019611fe0600586901b1617611487565b506113a0838260026114ac565b63ffffffff81116114285761141b83601a611fe0600586901b1617611487565b506113a0838260046114ac565b67ffffffffffffffff81116107275761144c83601b611fe0600586901b1617611487565b506113a0838260086114ac565b604080518082019091526060815260006020820152611480838460000151518485516114d2565b9392505050565b60408051808201909152606081526000602082015261148083846000015151846115bc565b604080518082019091526060815260006020820152611060848560000151518585611618565b60408051808201909152606081526000602082015282518211156114f557600080fd5b60208501516115048386611cf4565b11156115375761153785611527876020015187866115229190611cf4565b611699565b611532906002611dd4565b6116b0565b6000808651805187602083010193508088870111156115565787860182525b505050602084015b602084106115965780518252611575602083611cf4565b9150611582602082611cf4565b905061158f602085611dbd565b935061155e565b51815160001960208690036101000a019081169019919091161790525083949350505050565b604080518082019091526060815260006020820152836020015183106115f1576115f184856020015160026115329190611dd4565b83518051602085830101848153508085141561160e576001810182525b5093949350505050565b604080518082019091526060815260006020820152602085015161163c8584611cf4565b111561165057611650856115278685611cf4565b6000600161166084610100611ed7565b61166a9190611dbd565b905085518386820101858319825116178152508051848701111561168e5783860181525b509495945050505050565b6000818311156116aa57508161137f565b50919050565b81516116bc838361131a565b506113a08382611459565b8280546116d390611b40565b90600052602060002090601f0160209004810192826116f5576000855561173b565b82601f1061170e57805160ff191683800117855561173b565b8280016001018555821561173b579182015b8281111561173b578251825591602001919060010190611720565b50611747929150611786565b5090565b6040805160a0810182526000808252602080830182905282840182905260608084018390528451808601909552845283015290608082015290565b5b808211156117475760008155600101611787565b600080604083850312156117ae57600080fd5b50508035926020909101359150565b80356001600160a01b03811681146117d457600080fd5b919050565b634e487b7160e01b600052604160045260246000fd5b604051601f8201601f1916810167ffffffffffffffff81118282101715611818576118186117d9565b604052919050565b600067ffffffffffffffff82111561183a5761183a6117d9565b50601f01601f191660200190565b600082601f83011261185957600080fd5b813561186c61186782611820565b6117ef565b81815284602083860101111561188157600080fd5b816020850160208301376000918101602001919091529392505050565b60008060008060008060008060006101208a8c0312156118bd57600080fd5b6118c68a6117bd565b98506118d460208b016117bd565b975060408a013567ffffffffffffffff808211156118f157600080fd5b6118fd8d838e01611848565b985060608c0135975060808c013591508082111561191a57600080fd5b506119278c828d01611848565b95505061193660a08b016117bd565b935060c08a0135925060e08a013591506101008a013590509295985092959850929598565b60006020828403121561196d57600080fd5b813567ffffffffffffffff81111561198457600080fd5b61106084828501611848565b60005b838110156119ab578181015183820152602001611993565b838111156113a05750506000910152565b600081518084526119d4816020860160208601611990565b601f01601f19169290920160200192915050565b634e487b7160e01b600052602160045260246000fd5b60006101608d8352806020840152611a188184018e6119bc565b604084018d90526001600160a01b038c811660608601528b16608085015289151560a085015283810360c08501529050611a5281896119bc565b905082810360e0840152611a6681886119bc565b9050828103610100840152611a7b81876119bc565b91505060058410611a9c57634e487b7160e01b600052602160045260246000fd5b61012082019390935261014001529998505050505050505050565b600060208284031215611ac957600080fd5b611480826117bd565b600060208284031215611ae457600080fd5b815167ffffffffffffffff811115611afb57600080fd5b8201601f81018413611b0c57600080fd5b8051611b1a61186782611820565b818152856020838501011115611b2f57600080fd5b611022826020830160208601611990565b600181811c90821680611b5457607f821691505b602082108114156116aa57634e487b7160e01b600052602260045260246000fd5b604081526000611b8860408301846119bc565b8281036020840152600981526811195b1a5d995c995960ba1b60208201526040810191505092915050565b600060208284031215611bc557600080fd5b8151801515811461148057600080fd5b60208152600061148060208301846119bc565b600060208284031215611bfa57600080fd5b5051919050565b6020808252818101527f4f776e61626c653a2063616c6c6572206973206e6f7420746865206f776e6572604082015260600190565b600060208083526000845481600182811c915080831680611c5857607f831692505b858310811415611c7657634e487b7160e01b85526022600452602485fd5b878601838152602001818015611c935760018114611ca457611ccf565b60ff19861682528782019650611ccf565b60008b81526020902060005b86811015611cc957815484820152908501908901611cb0565b83019750505b50949998505050505050505050565b634e487b7160e01b600052601160045260246000fd5b60008219821115611d0757611d07611cde565b500190565b6001600160a01b0389811682526020820189905260408201889052861660608201526001600160e01b03198516608082015260a0810184905260c0810183905261010060e08201819052600090611d65838201856119bc565b9b9a5050505050505050505050565b60018060a01b038416815282602082015260606040820152600061102260608301846119bc565b600082611db857634e487b7160e01b600052601260045260246000fd5b500690565b600082821015611dcf57611dcf611cde565b500390565b6000816000190483118215151615611dee57611dee611cde565b500290565b600181815b80851115611e2e578160001904821115611e1457611e14611cde565b80851615611e2157918102915b93841c9390800290611df8565b509250929050565b600082611e455750600161137f565b81611e525750600061137f565b8160018114611e685760028114611e7257611e8e565b600191505061137f565b60ff841115611e8357611e83611cde565b50506001821b61137f565b5060208310610133831016604e8410600b8410161715611eb1575081810a61137f565b611ebb8383611df3565b8060001904821115611ecf57611ecf611cde565b029392505050565b60006114808383611e3656fea2646970667358221220a2d7cdc64cfc6c0b4530eb992630fe2615bda9b38870f05812b70fb3f620bba364736f6c63430008090033",
  "bytecodeSha1": "83c72c13fd9c012a1b63ef104278c17649c540cc",
  "compiler": {
    "evm_version": "istanbul",
    "optimizer": {
      "enabled": true,
      "runs": 200
    },
    "version": "0.8.9+commit.e5eed63a"
  },
  "contractName": "Escrow",
  "deployedBytecode": "6080604052600436106100c25760003560e01c8063715018a61161007f578063bf15071d11610059578063bf15071d146101ca578063bf9ce952146101d2578063e12ed13c146101fe578063f2fde38b1461022257600080fd5b8063715018a6146101685780638da5cb5b1461017d578063959c1ea8146101aa57600080fd5b806309d99f67146100c7578063168aec36146100e9578063366e8e5214610109578063507370551461011e5780636a8165481461013e5780636b827cd414610153575b600080fd5b3480156100d357600080fd5b506100e76100e236600461179b565b610242565b005b3480156100f557600080fd5b506100e761010436600461189e565b6104fc565b34801561011557600080fd5b506100e7610662565b34801561012a57600080fd5b506100e761013936600461195b565b61072c565b34801561014a57600080fd5b506100e7610808565b34801561015f57600080fd5b506100e761098b565b34801561017457600080fd5b506100e7610b1b565b34801561018957600080fd5b506006546040516001600160a01b0390911681526020015b60405180910390f35b3480156101b657600080fd5b506100e76101c536600461195b565b610b51565b6100e7610b92565b3480156101de57600080fd5b506101e7610cec565b6040516101a19b9a999897969594939291906119fe565b34801561020a57600080fd5b50610214600b5481565b6040519081526020016101a1565b34801561022e57600080fd5b506100e761023d366004611ab7565b610f6b565b60008281526005602052604090205482906001600160a01b031633146102c05760405162461bcd60e51b815260206004820152602860248201527f536f75726365206d75737420626520746865206f7261636c65206f6620746865604482015267081c995c5d595cdd60c21b60648201526084015b60405180910390fd5b60008181526005602052604080822080546001600160a01b03191690555182917f7cc135e0cebb02c3480ae5d74d377283180a2601f8f644edf7987b009316c63a91a2604051639201de5560e01b81526004810183905273__$aadc688bcea560502e0213413fe0dcbaa2$__90639201de559060240160006040518083038186803b15801561034e57600080fd5b505af4158015610362573d6000803e3d6000fd5b505050506040513d6000823e601f3d908101601f1916820160405261038a9190810190611ad2565b805161039e916013916020909101906116c7565b50601380546103ac90611b40565b80601f01602080910402602001604051908101604052809291908181526020018280546103d890611b40565b80156104255780601f106103fa57610100808354040283529160200191610425565b820191906000526020600020905b81548152906001019060200180831161040857829003601f168201915b5050604051635f69a5dd60e11b815273__$aadc688bcea560502e0213413fe0dcbaa2$__9463bed34bba945061046093509150600401611b75565b60206040518083038186803b15801561047857600080fd5b505af415801561048c573d6000803e3d6000fd5b505050506040513d601f19601f820116820180604052508101906104b09190611bb3565b156104c3576014805460ff191660031790555b6040518281527f65fb20badd0fcfd3bf3ba0ca9bfe4ec522640041a07decd17f1be1fb0ead4f4a906020015b60405180910390a1505050565b600a546001600160a01b031633146105425760405162461bcd60e51b81526020600482015260096024820152682327a92124a22222a760b91b60448201526064016102b7565b600280546001600160a01b0319166001600160a01b038b1617905561056684610f6b565b600880546001600160a01b0319166001600160a01b038a161790556040516319f6a32560e31b815273__$aadc688bcea560502e0213413fe0dcbaa2$__9063cfb51928906105b8908a90600401611bd5565b60206040518083038186803b1580156105d057600080fd5b505af41580156105e4573d6000803e3d6000fd5b505050506040513d601f19601f820116820180604052508101906106089190611be8565b6009556007819055600c869055845161062890600d9060208801906116c7565b50506015556014805460ff19169055600f80546001600160a01b0319166001600160a01b039390931692909217909155600e555050505050565b6006546001600160a01b0316331461068c5760405162461bcd60e51b81526004016102b790611c01565b60408051808201909152600d81526c496e76616c696420537461676560981b60208201526003908160145460ff1660048111156106cb576106cb6119e8565b1481906106eb5760405162461bcd60e51b81526004016102b79190611bd5565b5060148054600460ff1990911617905560405133904780156108fc02916000818181858888f19350505050158015610727573d6000803e3d6000fd5b505050565b6006546001600160a01b031633146107565760405162461bcd60e51b81526004016102b790611c01565b60408051808201909152600d81526c496e76616c696420537461676560981b60208201526001908160145460ff166004811115610795576107956119e8565b1481906107b55760405162461bcd60e51b81526004016102b79190611bd5565b506014805460ff1916600217905582516107d69060129060208601906116c7565b506040517f1862cf7a0e12bac162f518f43c2f50df187e89045899a7c015c1d61d9880a11b906104ef90601290611c36565b6010546001600160a01b0316331461084f5760405162461bcd60e51b815260206004820152600a60248201526927b7363c90213abcb2b960b11b60448201526064016102b7565b6040805180820190915260148152737368697070696e6720696e2070726f677265737360601b60208201526001908160145460ff166004811115610895576108956119e8565b1481906108b55760405162461bcd60e51b81526004016102b79190611bd5565b50601554600b546108c69190611cf4565b4310156109155760405162461bcd60e51b815260206004820152601b60248201527f4e6f7420616c6c6f77656420746f2063616e63656c206f72646572000000000060448201526064016102b7565b601080546001600160a01b03191690556014805460ff1916905560405133904780156108fc02916000818181858888f1935050505015801561095b573d6000803e3d6000fd5b5060405133907f393629f15e859a19530bab9675f9d39f0f57889f19f883bc5be3533c4a2c9ea890600090a25050565b60408051808201909152600d81526c13995959081cda1a5c1b595b9d609a1b60208201526002908160145460ff1660048111156109ca576109ca6119e8565b1481906109ea5760405162461bcd60e51b81526004016102b79190611bd5565b506000610a01600954306309d99f6760e01b611006565b9050610ac76040518060400160405280600a8152602001691d1c9858dada5b99d25960b21b815250600c6006018054610a3990611b40565b80601f0160208091040260200160405190810160405280929190818152602001828054610a6590611b40565b8015610ab25780601f10610a8757610100808354040283529160200191610ab2565b820191906000526020600020905b815481529060010190602001808311610a9557829003601f168201915b50505050508361102b9092919063ffffffff16565b600854600754600091610ae7916001600160a01b03909116908490611049565b60405190915081907fb5e6e01e79f91267dc17b4e6314d5d4d03593d2ceee0fbb452b750bd70ea5af990600090a250505050565b6006546001600160a01b03163314610b455760405162461bcd60e51b81526004016102b790611c01565b610b4f6000611068565b565b6006546001600160a01b03163314610b7b5760405162461bcd60e51b81526004016102b790611c01565b8051610b8e9060119060208401906116c7565b5050565b60408051808201909152601481527320b63932b0b23c903430bb32903090313abcb2b960611b60208201526000908160145460ff166004811115610bd857610bd86119e8565b148190610bf85760405162461bcd60e51b81526004016102b79190611bd5565b506006546001600160a01b0316331415610c545760405162461bcd60e51b815260206004820152601d60248201527f596f752063616e206e6f74206275792066726f6d20796f757273656c6600000060448201526064016102b7565b600e54341015610c985760405162461bcd60e51b815260206004820152600f60248201526e139bdd08195b9bdd59da08199d5b99608a1b60448201526064016102b7565b6014805460ff1916600117905560108054336001600160a01b0319909116811790915543600b556040517fe4caeaef8e4f0c4880839ca47219351b38cf4116c082fd0baefc3008e4ba11a390600090a25050565b600c8054600d8054919291610d0090611b40565b80601f0160208091040260200160405190810160405280929190818152602001828054610d2c90611b40565b8015610d795780601f10610d4e57610100808354040283529160200191610d79565b820191906000526020600020905b815481529060010190602001808311610d5c57829003601f168201915b50505050600283015460038401546004850154600586018054959693956001600160a01b03938416955092821693600160a01b90920460ff1692610dbc90611b40565b80601f0160208091040260200160405190810160405280929190818152602001828054610de890611b40565b8015610e355780601f10610e0a57610100808354040283529160200191610e35565b820191906000526020600020905b815481529060010190602001808311610e1857829003601f168201915b505050505090806006018054610e4a90611b40565b80601f0160208091040260200160405190810160405280929190818152602001828054610e7690611b40565b8015610ec35780601f10610e9857610100808354040283529160200191610ec3565b820191906000526020600020905b815481529060010190602001808311610ea657829003601f168201915b505050505090806007018054610ed890611b40565b80601f0160208091040260200160405190810160405280929190818152602001828054610f0490611b40565b8015610f515780601f10610f2657610100808354040283529160200191610f51565b820191906000526020600020905b815481529060010190602001808311610f3457829003601f168201915b505050506008830154600990930154919260ff169190508b565b6006546001600160a01b03163314610f955760405162461bcd60e51b81526004016102b790611c01565b6001600160a01b038116610ffa5760405162461bcd60e51b815260206004820152602660248201527f4f776e61626c653a206e6577206f776e657220697320746865207a65726f206160448201526564647265737360d01b60648201526084016102b7565b61100381611068565b50565b61100e61174b565b61101661174b565b611022818686866110ba565b95945050505050565b608083015161103a90836110f7565b608083015161072790826110f7565b600061106084848460016320214ca360e11b61110e565b949350505050565b600680546001600160a01b038381166001600160a01b0319831681179093556040519116919082907f8be0079c531659141344cd1fd0a4f28419497f9722a3daafe3b4186f6b6457e090600090a35050565b6110c261174b565b6110d2856080015161010061131a565b50509183526001600160a01b031660208301526001600160e01b031916604082015290565b6111048260038351611385565b6107278282611459565b6004546040516bffffffffffffffffffffffff193060601b166020820152603481019190915260009060540160408051808303601f19018152918152815160209283012060045460608901526000818152600590935281832080546001600160a01b0319166001600160a01b038b16179055905190925082917fb5e6e01e79f91267dc17b4e6314d5d4d03593d2ceee0fbb452b750bd70ea5af991a2600082600080886000015189602001518a604001518b606001518a8d60800151600001516040516024016111e5989796959493929190611d0c565b60408051601f198184030181529181526020820180516001600160e01b03166001600160e01b0319909416939093179092526002549151630200057560e51b81529092506001600160a01b0390911690634000aea09061124d908a9089908690600401611d74565b602060405180830381600087803b15801561126757600080fd5b505af115801561127b573d6000803e3d6000fd5b505050506040513d601f19601f8201168201806040525081019061129f9190611bb3565b6112f75760405162461bcd60e51b815260206004820152602360248201527f756e61626c6520746f207472616e73666572416e6443616c6c20746f206f7261604482015262636c6560e81b60648201526084016102b7565b60016004600082825461130a9190611cf4565b9091555091979650505050505050565b60408051808201909152606081526000602082015261133a602083611d9b565b156113625761134a602083611d9b565b611355906020611dbd565b61135f9083611cf4565b91505b506020808301829052604080518085526000815283019091019052815b92915050565b601781116113a6576113a08360e0600585901b168317611487565b50505050565b60ff81116113d0576113c3836018611fe0600586901b1617611487565b506113a0838260016114ac565b61ffff81116113fb576113ee836019611fe0600586901b1617611487565b506113a0838260026114ac565b63ffffffff81116114285761141b83601a611fe0600586901b1617611487565b506113a0838260046114ac565b67ffffffffffffffff81116107275761144c83601b611fe0600586901b1617611487565b506113a0838260086114ac565b604080518082019091526060815260006020820152611480838460000151518485516114d2565b9392505050565b60408051808201909152606081526000602082015261148083846000015151846115bc565b604080518082019091526060815260006020820152611060848560000151518585611618565b60408051808201909152606081526000602082015282518211156114f557600080fd5b60208501516115048386611cf4565b11156115375761153785611527876020015187866115229190611cf4565b611699565b611532906002611dd4565b6116b0565b6000808651805187602083010193508088870111156115565787860182525b505050602084015b602084106115965780518252611575602083611cf4565b9150611582602082611cf4565b905061158f602085611dbd565b935061155e565b51815160001960208690036101000a019081169019919091161790525083949350505050565b604080518082019091526060815260006020820152836020015183106115f1576115f184856020015160026115329190611dd4565b83518051602085830101848153508085141561160e576001810182525b5093949350505050565b604080518082019091526060815260006020820152602085015161163c8584611cf4565b111561165057611650856115278685611cf4565b6000600161166084610100611ed7565b61166a9190611dbd565b905085518386820101858319825116178152508051848701111561168e5783860181525b509495945050505050565b6000818311156116aa57508161137f565b50919050565b81516116bc838361131a565b506113a08382611459565b8280546116d390611b40565b90600052602060002090601f0160209004810192826116f5576000855561173b565b82601f1061170e57805160ff191683800117855561173b565b8280016001018555821561173b579182015b8281111561173b578251825591602001919060010190611720565b50611747929150611786565b5090565b6040805160a0810182526000808252602080830182905282840182905260608084018390528451808601909552845283015290608082015290565b5b808211156117475760008155600101611787565b600080604083850312156117ae57600080fd5b50508035926020909101359150565b80356001600160a01b03811681146117d457600080fd5b919050565b634e487b7160e01b600052604160045260246000fd5b604051601f8201601f1916810167ffffffffffffffff81118282101715611818576118186117d9565b604052919050565b600067ffffffffffffffff82111561183a5761183a6117d9565b50601f01601f191660200190565b600082601f83011261185957600080fd5b813561186c61186782611820565b6117ef565b81815284602083860101111561188157600080fd5b816020850160208301376000918101602001919091529392505050565b60008060008060008060008060006101208a8c0312156118bd57600080fd5b6118c68a6117bd565b98506118d460208b016117bd565b975060408a013567ffffffffffffffff808211156118f157600080fd5b6118fd8d838e01611848565b985060608c0135975060808c013591508082111561191a57600080fd5b506119278c828d01611848565b95505061193660a08b016117bd565b935060c08a0135925060e08a013591506101008a013590509295985092959850929598565b60006020828403121561196d57600080fd5b813567ffffffffffffffff81111561198457600080fd5b61106084828501611848565b60005b838110156119ab578181015183820152602001611993565b838111156113a05750506000910152565b600081518084526119d4816020860160208601611990565b601f01601f19169290920160200192915050565b634e487b7160e01b600052602160045260246000fd5b60006101608d8352806020840152611a188184018e6119bc565b604084018d90526001600160a01b038c811660608601528b16608085015289151560a085015283810360c08501529050611a5281896119bc565b905082810360e0840152611a6681886119bc565b9050828103610100840152611a7b81876119bc565b91505060058410611a9c57634e487b7160e01b600052602160045260246000fd5b61012082019390935261014001529998505050505050505050565b600060208284031215611ac957600080fd5b611480826117bd565b600060208284031215611ae457600080fd5b815167ffffffffffffffff811115611afb57600080fd5b8201601f81018413611b0c57600080fd5b8051611b1a61186782611820565b818152856020838501011115611b2f57600080fd5b611022826020830160208601611990565b600181811c90821680611b5457607f821691505b602082108114156116aa57634e487b7160e01b600052602260045260246000fd5b604081526000611b8860408301846119bc565b8281036020840152600981526811195b1a5d995c995960ba1b60208201526040810191505092915050565b600060208284031215611bc557600080fd5b8151801515811461148057600080fd5b60208152600061148060208301846119bc565b600060208284031215611bfa57600080fd5b5051919050565b6020808252818101527f4f776e61626c653a2063616c6c6572206973206e6f7420746865206f776e6572604082015260600190565b600060208083526000845481600182811c915080831680611c5857607f831692505b858310811415611c7657634e487b7160e01b85526022600452602485fd5b878601838152602001818015611c935760018114611ca457611ccf565b60ff19861682528782019650611ccf565b60008b81526020902060005b86811015611cc957815484820152908501908901611cb0565b83019750505b50949998505050505050505050565b634e487b7160e01b600052601160045260246000fd5b60008219821115611d0757611d07611cde565b500190565b6001600160a01b0389811682526020820189905260408201889052861660608201526001600160e01b03198516608082015260a0810184905260c0810183905261010060e08201819052600090611d65838201856119bc565b9b9a5050505050505050505050565b60018060a01b038416815282602082015260606040820152600061102260608301846119bc565b600082611db857634e487b7160e01b600052601260045260246000fd5b500690565b600082821015611dcf57611dcf611cde565b500390565b6000816000190483118215151615611dee57611dee611cde565b500290565b600181815b80851115611e2e578160001904821115611e1457611e14611cde565b80851615611e2157918102915b93841c9390800290611df8565b509250929050565b600082611e455750600161137f565b81611e525750600061137f565b8160018114611e685760028114611e7257611e8e565b600191505061137f565b60ff841115611e8357611e83611cde565b50506001821b61137f565b5060208310610133831016604e8410600b8410161715611eb1575081810a61137f565b611ebb8383611df3565b8060001904821115611ecf57611ecf611cde565b029392505050565b60006114808383611e3656fea2646970667358221220a2d7cdc64cfc6c0b4530eb992630fe2615bda9b38870f05812b70fb3f620bba364736f6c63430008090033",
  "language": "Solidity",
  "natspec": {
    "kind": "dev",
    "methods": {
      "owner()": {
        "details": "Returns the address of the current owner."
      },
      "renounceOwnership()": {
        "details": "Leaves the contract without owner. It will not be possible to call `onlyOwner` functions anymore. Can only be called by the current owner. NOTE: Renouncing ownership will leave the contract without an owner, thereby removing any functionality that is only available to the owner."
      },
      "transferOwnership(address)": {
        "details": "Transfers ownership of the contract to a new account (`newOwner`). Can only be called by the current owner."
      }
    },
    "version": 1
  },
  "opcodes": "PUSH1 0x80 PUSH1 0x40 MSTORE PUSH1 0x4 CALLDATASIZE LT PUSH2 0xC2 JUMPI PUSH1 0x0 CALLDATALOAD PUSH1 0xE0 SHR DUP1 PUSH4 0x715018A6 GT PUSH2 0x7F JUMPI DUP1 PUSH4 0xBF15071D GT PUSH2 0x59 JUMPI DUP1 PUSH4 0xBF15071D EQ PUSH2 0x1CA JUMPI DUP1 PUSH4 0xBF9CE952 EQ PUSH2 0x1D2 JUMPI DUP1 PUSH4 0xE12ED13C EQ PUSH2 0x1FE JUMPI DUP1 PUSH4 0xF2FDE38B EQ PUSH2 0x222 JUMPI PUSH1 0x0 DUP1 REVERT JUMPDEST DUP1 PUSH4 0x715018A6 EQ PUSH2 0x168 JUMPI DUP1 PUSH4 0x8DA5CB5B EQ PUSH2 0x17D JUMPI DUP1 PUSH4 0x959C1EA8 EQ PUSH2 0x1AA JUMPI PUSH1 0x0 DUP1 REVERT JUMPDEST DUP1 PUSH4 0x9D99F67 EQ PUSH2 0xC7 JUMPI DUP1 PUSH4 0x168AEC36 EQ PUSH2 0xE9 JUMPI DUP1 PUSH4 0x366E8E52 EQ PUSH2 0x109 JUMPI DUP1 PUSH4 0x50737055 EQ PUSH2 0x11E JUMPI DUP1 PUSH4 0x6A816548 EQ PUSH2 0x13E JUMPI DUP1 PUSH4 0x6B827CD4 EQ PUSH2 0x153 JUMPI JUMPDEST PUSH1 0x0 DUP1 REVERT JUMPDEST CALLVALUE DUP1 ISZERO PUSH2 0xD3 JUMPI PUSH1 0x0 DUP1 REVERT JUMPDEST POP PUSH2 0xE7 PUSH2 0xE2 CALLDATASIZE PUSH1 0x4 PUSH2 0x179B JUMP JUMPDEST PUSH2 0x242 JUMP JUMPDEST STOP JUMPDEST CALLVALUE DUP1 ISZERO PUSH2 0xF5 JUMPI PUSH1 0x0 DUP1 REVERT JUMPDEST POP PUSH2 0xE7 PUSH2 0x104 CALLDATASIZE PUSH1 0x4 PUSH2 0x189E JUMP JUMPDEST PUSH2 0x4FC JUMP JUMPDEST CALLVALUE DUP1 ISZERO PUSH2 0x115 JUMPI PUSH1 0x0 DUP1 REVERT JUMPDEST POP PUSH2 0xE7 PUSH2 0x662 JUMP JUMPDEST CALLVALUE DUP1 ISZERO PUSH2 0x12A JUMPI PUSH1 0x0 DUP1 REVERT JUMPDEST POP PUSH2 0xE7 PUSH2 0x139 CALLDATASIZE PUSH1 0x4 PUSH2 0x195B JUMP JUMPDEST PUSH2 0x72C JUMP JUMPDEST CALLVALUE DUP1 ISZERO PUSH2 0x14A JUMPI PUSH1 0x0 DUP1 REVERT JUMPDEST POP PUSH2 0xE7 PUSH2 0x808 JUMP JUMPDEST CALLVALUE DUP1 ISZERO PUSH2 0x15F JUMPI PUSH1 0x0 DUP1 REVERT JUMPDEST POP PUSH2 0xE7 PUSH2 0x98B JUMP JUMPDEST CALLVALUE DUP1 ISZERO PUSH2 0x174 JUMPI PUSH1 0x0 DUP1 REVERT JUMPDEST POP PUSH2 0xE7 PUSH2 0xB1B JUMP JUMPDEST CALLVALUE DUP1 ISZERO PUSH2 0x189 JUMPI PUSH1 0x0 DUP1 REVERT JUMPDEST POP PUSH1 0x6 SLOAD PUSH1 0x40 MLOAD PUSH1 0x1 PUSH1 0x1 PUSH1 0xA0 SHL SUB SWAP1 SWAP2 AND DUP2 MSTORE PUSH1 0x20 ADD JUMPDEST PUSH1 0x40 MLOAD DUP1 SWAP2 SUB SWAP1 RETURN JUMPDEST CALLVALUE DUP1 ISZERO PUSH2 0x1B6 JUMPI PUSH1 0x0 DUP1 REVERT JUMPDEST POP PUSH2 0xE7 PUSH2 0x1C5 CALLDATASIZE PUSH1 0x4 PUSH2 0x195B JUMP JUMPDEST PUSH2 0xB51 JUMP JUMPDEST PUSH2 0xE7 PUSH2 0xB92 JUMP JUMPDEST CALLVALUE DUP1 ISZERO PUSH2 0x1DE JUMPI PUSH1 0x0 DUP1 REVERT JUMPDEST POP PUSH2 0x1E7 PUSH2 0xCEC JUMP JUMPDEST PUSH1 0x40 MLOAD PUSH2 0x1A1 SWAP12 SWAP11 SWAP10 SWAP9 SWAP8 SWAP7 SWAP6 SWAP5 SWAP4 SWAP3 SWAP2 SWAP1 PUSH2 0x19FE JUMP JUMPDEST CALLVALUE DUP1 ISZERO PUSH2 0x20A JUMPI PUSH1 0x0 DUP1 REVERT JUMPDEST POP PUSH2 0x214 PUSH1 0xB SLOAD DUP2 JUMP JUMPDEST PUSH1 0x40 MLOAD SWAP1 DUP2 MSTORE PUSH1 0x20 ADD PUSH2 0x1A1 JUMP JUMPDEST CALLVALUE DUP1 ISZERO PUSH2 0x22E JUMPI PUSH1 0x0 DUP1 REVERT JUMPDEST POP PUSH2 0xE7 PUSH2 0x23D CALLDATASIZE PUSH1 0x4 PUSH2 0x1AB7 JUMP JUMPDEST PUSH2 0xF6B JUMP JUMPDEST PUSH1 0x0 DUP3 DUP2 MSTORE PUSH1 0x5 PUSH1 0x20 MSTORE PUSH1 0x40 SWAP1 KECCAK256 SLOAD DUP3 SWAP1 PUSH1 0x1 PUSH1 0x1 PUSH1 0xA0 SHL SUB AND CALLER EQ PUSH2 0x2C0 JUMPI PUSH1 0x40 MLOAD PUSH3 0x461BCD PUSH1 0xE5 SHL DUP2 MSTORE PUSH1 0x20 PUSH1 0x4 DUP3 ADD MSTORE PUSH1 0x28 PUSH1 0x24 DUP3 ADD MSTORE PUSH32 0x536F75726365206D75737420626520746865206F7261636C65206F6620746865 PUSH1 0x44 DUP3 ADD MSTORE PUSH8 0x81C995C5D595CDD PUSH1 0xC2 SHL PUSH1 0x64 DUP3 ADD MSTORE PUSH1 0x84 ADD JUMPDEST PUSH1 0x40 MLOAD DUP1 SWAP2 SUB SWAP1 REVERT JUMPDEST PUSH1 0x0 DUP2 DUP2 MSTORE PUSH1 0x5 PUSH1 0x20 MSTORE PUSH1 0x40 DUP1 DUP3 KECCAK256 DUP1 SLOAD PUSH1 0x1 PUSH1 0x1 PUSH1 0xA0 SHL SUB NOT AND SWAP1 SSTORE MLOAD DUP3 SWAP2 PUSH32 0x7CC135E0CEBB02C3480AE5D74D377283180A2601F8F644EDF7987B009316C63A SWAP2 LOG2 PUSH1 0x40 MLOAD PUSH4 0x9201DE55 PUSH1 0xE0 SHL DUP2 MSTORE PUSH1 0x4 DUP2 ADD DUP4 SWAP1 MSTORE PUSH20 0x0 SWAP1 PUSH4 0x9201DE55 SWAP1 PUSH1 0x24 ADD PUSH1 0x0 PUSH1 0x40 MLOAD DUP1 DUP4 SUB DUP2 DUP7 DUP1 EXTCODESIZE ISZERO DUP1 ISZERO PUSH2 0x34E JUMPI PUSH1 0x0 DUP1 REVERT JUMPDEST POP GAS DELEGATECALL ISZERO DUP1 ISZERO PUSH2 0x362 JUMPI RETURNDATASIZE PUSH1 0x0 DUP1 RETURNDATACOPY RETURNDATASIZE PUSH1 0x0 REVERT JUMPDEST POP POP POP POP PUSH1 0x40 MLOAD RETURNDATASIZE PUSH1 0x0 DUP3 RETURNDATACOPY PUSH1 0x1F RETURNDATASIZE SWAP1 DUP2 ADD PUSH1 0x1F NOT AND DUP3 ADD PUSH1 0x40 MSTORE PUSH2 0x38A SWAP2 SWAP1 DUP2 ADD SWAP1 PUSH2 0x1AD2 JUMP JUMPDEST DUP1 MLOAD PUSH2 0x39E SWAP2 PUSH1 0x13 SWAP2 PUSH1 0x20 SWAP1 SWAP2 ADD SWAP1 PUSH2 0x16C7 JUMP JUMPDEST POP PUSH1 0x13 DUP1 SLOAD PUSH2 0x3AC SWAP1 PUSH2 0x1B40 JUMP JUMPDEST DUP1 PUSH1 0x1F ADD PUSH1 0x20 DUP1 SWAP2 DIV MUL PUSH1 0x20 ADD PUSH1 0x40 MLOAD SWAP1 DUP2 ADD PUSH1 0x40 MSTORE DUP1 SWAP3 SWAP2 SWAP1 DUP2 DUP2 MSTORE PUSH1 0x20 ADD DUP3 DUP1 SLOAD PUSH2 0x3D8 SWAP1 PUSH2 0x1B40 JUMP JUMPDEST DUP1 ISZERO PUSH2 0x425 JUMPI DUP1 PUSH1 0x1F LT PUSH2 0x3FA JUMPI PUSH2 0x100 DUP1 DUP4 SLOAD DIV MUL DUP4 MSTORE SWAP2 PUSH1 0x20 ADD SWAP2 PUSH2 0x425 JUMP JUMPDEST DUP3 ADD SWAP2 SWAP1 PUSH1 0x0 MSTORE PUSH1 0x20 PUSH1 0x0 KECCAK256 SWAP1 JUMPDEST DUP2 SLOAD DUP2 MSTORE SWAP1 PUSH1 0x1 ADD SWAP1 PUSH1 0x20 ADD DUP1 DUP4 GT PUSH2 0x408 JUMPI DUP3 SWAP1 SUB PUSH1 0x1F AND DUP3 ADD SWAP2 JUMPDEST POP POP PUSH1 0x40 MLOAD PUSH4 0x5F69A5DD PUSH1 0xE1 SHL DUP2 MSTORE PUSH20 0x0 SWAP5 PUSH4 0xBED34BBA SWAP5 POP PUSH2 0x460 SWAP4 POP SWAP2 POP PUSH1 0x4 ADD PUSH2 0x1B75 JUMP JUMPDEST PUSH1 0x20 PUSH1 0x40 MLOAD DUP1 DUP4 SUB DUP2 DUP7 DUP1 EXTCODESIZE ISZERO DUP1 ISZERO PUSH2 0x478 JUMPI PUSH1 0x0 DUP1 REVERT JUMPDEST POP GAS DELEGATECALL ISZERO DUP1 ISZERO PUSH2 0x48C JUMPI RETURNDATASIZE PUSH1 0x0 DUP1 RETURNDATACOPY RETURNDATASIZE PUSH1 0x0 REVERT JUMPDEST POP POP POP POP PUSH1 0x40 MLOAD RETURNDATASIZE PUSH1 0x1F NOT PUSH1 0x1F DUP3 ADD AND DUP3 ADD DUP1 PUSH1 0x40 MSTORE POP DUP2 ADD SWAP1 PUSH2 0x4B0 SWAP2 SWAP1 PUSH2 0x1BB3 JUMP JUMPDEST ISZERO PUSH2 0x4C3 JUMPI PUSH1 0x14 DUP1 SLOAD PUSH1 0xFF NOT AND PUSH1 0x3 OR SWAP1 SSTORE JUMPDEST PUSH1 0x40 MLOAD DUP3 DUP2 MSTORE PUSH32 0x65FB20BADD0FCFD3BF3BA0CA9BFE4EC522640041A07DECD17F1BE1FB0EAD4F4A SWAP1 PUSH1 0x20 ADD JUMPDEST PUSH1 0x40 MLOAD DUP1 SWAP2 SUB SWAP1 LOG1 POP POP POP JUMP JUMPDEST PUSH1 0xA SLOAD PUSH1 0x1 PUSH1 0x1 PUSH1 0xA0 SHL SUB AND CALLER EQ PUSH2 0x542 JUMPI PUSH1 0x40 MLOAD PUSH3 0x461BCD PUSH1 0xE5 SHL DUP2 MSTORE PUSH1 0x20 PUSH1 0x4 DUP3 ADD MSTORE PUSH1 0x9 PUSH1 0x24 DUP3 ADD MSTORE PUSH9 0x2327A92124A22222A7 PUSH1 0xB9 SHL PUSH1 0x44 DUP3 ADD MSTORE PUSH1 0x64 ADD PUSH2 0x2B7 JUMP JUMPDEST PUSH1 0x2 DUP1 SLOAD PUSH1 0x1 PUSH1 0x1 PUSH1 0xA0 SHL SUB NOT AND PUSH1 0x1 PUSH1 0x1 PUSH1 0xA0 SHL SUB DUP12 AND OR SWAP1 SSTORE PUSH2 0x566 DUP5 PUSH2 0xF6B JUMP JUMPDEST PUSH1 0x8 DUP1 SLOAD PUSH1 0x1 PUSH1 0x1 PUSH1 0xA0 SHL SUB NOT AND PUSH1 0x1 PUSH1 0x1 PUSH1 0xA0 SHL SUB DUP11 AND OR SWAP1 SSTORE PUSH1 0x40 MLOAD PUSH4 0x19F6A325 PUSH1 0xE3 SHL DUP2 MSTORE PUSH20 0x0 SWAP1 PUSH4 0xCFB51928 SWAP1 PUSH2 0x5B8 SWAP1 DUP11 SWAP1 PUSH1 0x4 ADD PUSH2 0x1BD5 JUMP JUMPDEST PUSH1 0x20 PUSH1 0x40 MLOAD DUP1 DUP4 SUB DUP2 DUP7 DUP1 EXTCODESIZE ISZERO DUP1 ISZERO PUSH2 0x5D0 JUMPI PUSH1 0x0 DUP1 REVERT JUMPDEST POP GAS DELEGATECALL ISZERO DUP1 ISZERO PUSH2 0x5E4 JUMPI RETURNDATASIZE PUSH1 0x0 DUP1 RETURNDATACOPY RETURNDATASIZE PUSH1 0x0 REVERT JUMPDEST POP POP POP POP PUSH1 0x40 MLOAD RETURNDATASIZE PUSH1 0x1F NOT PUSH1 0x1F DUP3 ADD AND DUP3 ADD DUP1 PUSH1 0x40 MSTORE POP DUP2 ADD SWAP1 PUSH2 0x608 SWAP2 SWAP1 PUSH2 0x1BE8 JUMP JUMPDEST PUSH1 0x9 SSTORE PUSH1 0x7 DUP2 SWAP1 SSTORE PUSH1 0xC DUP7 SWAP1 SSTORE DUP5 MLOAD PUSH2 0x628 SWAP1 PUSH1 0xD SWAP1 PUSH1 0x20 DUP9 ADD SWAP1 PUSH2 0x16C7 JUMP JUMPDEST POP POP PUSH1 0x15 SSTORE PUSH1 0x14 DUP1 SLOAD PUSH1 0xFF NOT AND SWAP1 SSTORE PUSH1 0xF DUP1 SLOAD PUSH1 0x1 PUSH1 0x1 PUSH1 0xA0 SHL SUB NOT AND PUSH1 0x1 PUSH1 0x1 PUSH1 0xA0 SHL SUB SWAP4 SWAP1 SWAP4 AND SWAP3 SWAP1 SWAP3 OR SWAP1 SWAP2 SSTORE PUSH1 0xE SSTORE POP POP POP POP POP JUMP JUMPDEST PUSH1 0x6 SLOAD PUSH1 0x1 PUSH1 0x1 PUSH1 0xA0 SHL SUB AND CALLER EQ PUSH2 0x68C JUMPI PUSH1 0x40 MLOAD PUSH3 0x461BCD PUSH1 0xE5 SHL DUP2 MSTORE PUSH1 0x4 ADD PUSH2 0x2B7 SWAP1 PUSH2 0x1C01 JUMP JUMPDEST PUSH1 0x40 DUP1 MLOAD DUP1 DUP3 ADD SWAP1 SWAP2 MSTORE PUSH1 0xD DUP2 MSTORE PUSH13 0x496E76616C6964205374616765 PUSH1 0x98 SHL PUSH1 0x20 DUP3 ADD MSTORE PUSH1 0x3 SWAP1 DUP2 PUSH1 0x14 SLOAD PUSH1 0xFF AND PUSH1 0x4 DUP2 GT ISZERO PUSH2 0x6CB JUMPI PUSH2 0x6CB PUSH2 0x19E8 JUMP JUMPDEST EQ DUP2 SWAP1 PUSH2 0x6EB JUMPI PUSH1 0x40 MLOAD PUSH3 0x461BCD PUSH1 0xE5 SHL DUP2 MSTORE PUSH1 0x4 ADD PUSH2 0x2B7 SWAP2 SWAP1 PUSH2 0x1BD5 JUMP JUMPDEST POP PUSH1 0x14 DUP1 SLOAD PUSH1 0x4 PUSH1 0xFF NOT SWAP1 SWAP2 AND OR SWAP1 SSTORE PUSH1 0x40 MLOAD CALLER SWAP1 SELFBALANCE DUP1 ISZERO PUSH2 0x8FC MUL SWAP2 PUSH1 0x0 DUP2 DUP2 DUP2 DUP6 DUP9 DUP9 CALL SWAP4 POP POP POP POP ISZERO DUP1 ISZERO PUSH2 0x727 JUMPI RETURNDATASIZE PUSH1 0x0 DUP1 RETURNDATACOPY RETURNDATASIZE PUSH1 0x0 REVERT JUMPDEST POP POP POP JUMP JUMPDEST PUSH1 0x6 SLOAD PUSH1 0x1 PUSH1 0x1 PUSH1 0xA0 SHL SUB AND CALLER EQ PUSH2 0x756 JUMPI PUSH1 0x40 MLOAD PUSH3 0x461BCD PUSH1 0xE5 SHL DUP2 MSTORE PUSH1 0x4 ADD PUSH2 0x2B7 SWAP1 PUSH2 0x1C01 JUMP JUMPDEST PUSH1 0x40 DUP1 MLOAD DUP1 DUP3 ADD SWAP1 SWAP2 MSTORE PUSH1 0xD DUP2 MSTORE PUSH13 0x496E76616C6964205374616765 PUSH1 0x98 SHL PUSH1 0x20 DUP3 ADD MSTORE PUSH1 0x1 SWAP1 DUP2 PUSH1 0x14 SLOAD PUSH1 0xFF AND PUSH1 0x4 DUP2 GT ISZERO PUSH2 0x795 JUMPI PUSH2 0x795 PUSH2 0x19E8 JUMP JUMPDEST EQ DUP2 SWAP1 PUSH2 0x7B5 JUMPI PUSH1 0x40 MLOAD PUSH3 0x461BCD PUSH1 0xE5 SHL DUP2 MSTORE PUSH1 0x4 ADD PUSH2 0x2B7 SWAP2 SWAP1 PUSH2 0x1BD5 JUMP JUMPDEST POP PUSH1 0x14 DUP1 SLOAD PUSH1 0xFF NOT AND PUSH1 0x2 OR SWAP1 SSTORE DUP3 MLOAD PUSH2 0x7D6 SWAP1 PUSH1 0x12 SWAP1 PUSH1 0x20 DUP7 ADD SWAP1 PUSH2 0x16C7 JUMP JUMPDEST POP PUSH1 0x40 MLOAD PUSH32 0x1862CF7A0E12BAC162F518F43C2F50DF187E89045899A7C015C1D61D9880A11B SWAP1 PUSH2 0x4EF SWAP1 PUSH1 0x12 SWAP1 PUSH2 0x1C36 JUMP JUMPDEST PUSH1 0x10 SLOAD PUSH1 0x1 PUSH1 0x1 PUSH1 0xA0 SHL SUB AND CALLER EQ PUSH2 0x84F JUMPI PUSH1 0x40 MLOAD PUSH3 0x461BCD PUSH1 0xE5 SHL DUP2 MSTORE PUSH1 0x20 PUSH1 0x4 DUP3 ADD MSTORE PUSH1 0xA PUSH1 0x24 DUP3 ADD MSTORE PUSH10 0x27B7363C90213ABCB2B9 PUSH1 0xB1 SHL PUSH1 0x44 DUP3 ADD MSTORE PUSH1 0x64 ADD PUSH2 0x2B7 JUMP JUMPDEST PUSH1 0x40 DUP1 MLOAD DUP1 DUP3 ADD SWAP1 SWAP2 MSTORE PUSH1 0x14 DUP2 MSTORE PUSH20 0x7368697070696E6720696E2070726F6772657373 PUSH1 0x60 SHL PUSH1 0x20 DUP3 ADD MSTORE PUSH1 0x1 SWAP1 DUP2 PUSH1 0x14 SLOAD PUSH1 0xFF AND PUSH1 0x4 DUP2 GT ISZERO PUSH2 0x895 JUMPI PUSH2 0x895 PUSH2 0x19E8 JUMP JUMPDEST EQ DUP2 SWAP1 PUSH2 0x8B5 JUMPI PUSH1 0x40 MLOAD PUSH3 0x461BCD PUSH1 0xE5 SHL DUP2 MSTORE PUSH1 0x4 ADD PUSH2 0x2B7 SWAP2 SWAP1 PUSH2 0x1BD5 JUMP JUMPDEST POP PUSH1 0x15 SLOAD PUSH1 0xB SLOAD PUSH2 0x8C6 SWAP2 SWAP1 PUSH2 0x1CF4 JUMP JUMPDEST NUMBER LT ISZERO PUSH2 0x915 JUMPI PUSH1 0x40 MLOAD PUSH3 0x461BCD PUSH1 0xE5 SHL DUP2 MSTORE PUSH1 0x20 PUSH1 0x4 DUP3 ADD MSTORE PUSH1 0x1B PUSH1 0x24 DUP3 ADD MSTORE PUSH32 0x4E6F7420616C6C6F77656420746F2063616E63656C206F726465720000000000 PUSH1 0x44 DUP3 ADD MSTORE PUSH1 0x64 ADD PUSH2 0x2B7 JUMP JUMPDEST PUSH1 0x10 DUP1 SLOAD PUSH1 0x1 PUSH1 0x1 PUSH1 0xA0 SHL SUB NOT AND SWAP1 SSTORE PUSH1 0x14 DUP1 SLOAD PUSH1 0xFF NOT AND SWAP1 SSTORE PUSH1 0x40 MLOAD CALLER SWAP1 SELFBALANCE DUP1 ISZERO PUSH2 0x8FC MUL SWAP2 PUSH1 0x0 DUP2 DUP2 DUP2 DUP6 DUP9 DUP9 CALL SWAP4 POP POP POP POP ISZERO DUP1 ISZERO PUSH2 0x95B JUMPI RETURNDATASIZE PUSH1 0x0 DUP1 RETURNDATACOPY RETURNDATASIZE PUSH1 0x0 REVERT JUMPDEST POP PUSH1 0x40 MLOAD CALLER SWAP1 PUSH32 0x393629F15E859A19530BAB9675F9D39F0F57889F19F883BC5BE3533C4A2C9EA8 SWAP1 PUSH1 0x0 SWAP1 LOG2 POP POP JUMP JUMPDEST PUSH1 0x40 DUP1 MLOAD DUP1 DUP3 ADD SWAP1 SWAP2 MSTORE PUSH1 0xD DUP2 MSTORE PUSH13 0x13995959081CDA1A5C1B595B9D PUSH1 0x9A SHL PUSH1 0x20 DUP3 ADD MSTORE PUSH1 0x2 SWAP1 DUP2 PUSH1 0x14 SLOAD PUSH1 0xFF AND PUSH1 0x4 DUP2 GT ISZERO PUSH2 0x9CA JUMPI PUSH2 0x9CA PUSH2 0x19E8 JUMP JUMPDEST EQ DUP2 SWAP1 PUSH2 0x9EA JUMPI PUSH1 0x40 MLOAD PUSH3 0x461BCD PUSH1 0xE5 SHL DUP2 MSTORE PUSH1 0x4 ADD PUSH2 0x2B7 SWAP2 SWAP1 PUSH2 0x1BD5 JUMP JUMPDEST POP PUSH1 0x0 PUSH2 0xA01 PUSH1 0x9 SLOAD ADDRESS PUSH4 0x9D99F67 PUSH1 0xE0 SHL PUSH2 0x1006 JUMP JUMPDEST SWAP1 POP PUSH2 0xAC7 PUSH1 0x40 MLOAD DUP1 PUSH1 0x40 ADD PUSH1 0x40 MSTORE DUP1 PUSH1 0xA DUP2 MSTORE PUSH1 0x20 ADD PUSH10 0x1D1C9858DADA5B99D259 PUSH1 0xB2 SHL DUP2 MSTORE POP PUSH1 0xC PUSH1 0x6 ADD DUP1 SLOAD PUSH2 0xA39 SWAP1 PUSH2 0x1B40 JUMP JUMPDEST DUP1 PUSH1 0x1F ADD PUSH1 0x20 DUP1 SWAP2 DIV MUL PUSH1 0x20 ADD PUSH1 0x40 MLOAD SWAP1 DUP2 ADD PUSH1 0x40 MSTORE DUP1 SWAP3 SWAP2 SWAP1 DUP2 DUP2 MSTORE PUSH1 0x20 ADD DUP3 DUP1 SLOAD PUSH2 0xA65 SWAP1 PUSH2 0x1B40 JUMP JUMPDEST DUP1 ISZERO PUSH2 0xAB2 JUMPI DUP1 PUSH1 0x1F LT PUSH2 0xA87 JUMPI PUSH2 0x100 DUP1 DUP4 SLOAD DIV MUL DUP4 MSTORE SWAP2 PUSH1 0x20 ADD SWAP2 PUSH2 0xAB2 JUMP JUMPDEST DUP3 ADD SWAP2 SWAP1 PUSH1 0x0 MSTORE PUSH1 0x20 PUSH1 0x0 KECCAK256 SWAP1 JUMPDEST DUP2 SLOAD DUP2 MSTORE SWAP1 PUSH1 0x1 ADD SWAP1 PUSH1 0x20 ADD DUP1 DUP4 GT PUSH2 0xA95 JUMPI DUP3 SWAP1 SUB PUSH1 0x1F AND DUP3 ADD SWAP2 JUMPDEST POP POP POP POP POP DUP4 PUSH2 0x102B SWAP1 SWAP3 SWAP2 SWAP1 PUSH4 0xFFFFFFFF AND JUMP JUMPDEST PUSH1 0x8 SLOAD PUSH1 0x7 SLOAD PUSH1 0x0 SWAP2 PUSH2 0xAE7 SWAP2 PUSH1 0x1 PUSH1 0x1 PUSH1 0xA0 SHL SUB SWAP1 SWAP2 AND SWAP1 DUP5 SWAP1 PUSH2 0x1049 JUMP JUMPDEST PUSH1 0x40 MLOAD SWAP1 SWAP2 POP DUP2 SWAP1 PUSH32 0xB5E6E01E79F91267DC17B4E6314D5D4D03593D2CEEE0FBB452B750BD70EA5AF9 SWAP1 PUSH1 0x0 SWAP1 LOG2 POP POP POP POP JUMP JUMPDEST PUSH1 0x6 SLOAD PUSH1 0x1 PUSH1 0x1 PUSH1 0xA0 SHL SUB AND CALLER EQ PUSH2 0xB45 JUMPI PUSH1 0x40 MLOAD PUSH3 0x461BCD PUSH1 0xE5 SHL DUP2 MSTORE PUSH1 0x4 ADD PUSH2 0x2B7 SWAP1 PUSH2 0x1C01 JUMP JUMPDEST PUSH2 0xB4F PUSH1 0x0 PUSH2 0x1068 JUMP JUMPDEST JUMP JUMPDEST PUSH1 0x6 SLOAD PUSH1 0x1 PUSH1 0x1 PUSH1 0xA0 SHL SUB AND CALLER EQ PUSH2 0xB7B JUMPI PUSH1 0x40 MLOAD PUSH3 0x461BCD PUSH1 0xE5 SHL DUP2 MSTORE PUSH1 0x4 ADD PUSH2 0x2B7 SWAP1 PUSH2 0x1C01 JUMP JUMPDEST DUP1 MLOAD PUSH2 0xB8E SWAP1 PUSH1 0x11 SWAP1 PUSH1 0x20 DUP5 ADD SWAP1 PUSH2 0x16C7 JUMP JUMPDEST POP POP JUMP JUMPDEST PUSH1 0x40 DUP1 MLOAD DUP1 DUP3 ADD SWAP1 SWAP2 MSTORE PUSH1 0x14 DUP2 MSTORE PUSH20 0x20B63932B0B23C903430BB32903090313ABCB2B9 PUSH1 0x61 SHL PUSH1 0x20 DUP3 ADD MSTORE PUSH1 0x0 SWAP1 DUP2 PUSH1 0x14 SLOAD PUSH1 0xFF AND PUSH1 0x4 DUP2 GT ISZERO PUSH2 0xBD8 JUMPI PUSH2 0xBD8 PUSH2 0x19E8 JUMP JUMPDEST EQ DUP2 SWAP1 PUSH2 0xBF8 JUMPI PUSH1 0x40 MLOAD PUSH3 0x461BCD PUSH1 0xE5 SHL DUP2 MSTORE PUSH1 0x4 ADD PUSH2 0x2B7 SWAP2 SWAP1 PUSH2 0x1BD5 JUMP JUMPDEST POP PUSH1 0x6 SLOAD PUSH1 0x1 PUSH1 0x1 PUSH1 0xA0 SHL SUB AND CALLER EQ ISZERO PUSH2 0xC54 JUMPI PUSH1 0x40 MLOAD PUSH3 0x461BCD PUSH1 0xE5 SHL DUP2 MSTORE PUSH1 0x20 PUSH1 0x4 DUP3 ADD MSTORE PUSH1 0x1D PUSH1 0x24 DUP3 ADD MSTORE PUSH32 0x596F752063616E206E6F74206275792066726F6D20796F757273656C66000000 PUSH1 0x44 DUP3 ADD MSTORE PUSH1 0x64 ADD PUSH2 0x2B7 JUMP JUMPDEST PUSH1 0xE SLOAD CALLVALUE LT ISZERO PUSH2 0xC98 JUMPI PUSH1 0x40 MLOAD PUSH3 0x461BCD PUSH1 0xE5 SHL DUP2 MSTORE PUSH1 0x20 PUSH1 0x4 DUP3 ADD MSTORE PUSH1 0xF PUSH1 0x24 DUP3 ADD MSTORE PUSH15 0x139BDD08195B9BDD59DA08199D5B99 PUSH1 0x8A SHL PUSH1 0x44 DUP3 ADD MSTORE PUSH1 0x64 ADD PUSH2 0x2B7 JUMP JUMPDEST PUSH1 0x14 DUP1 SLOAD PUSH1 0xFF NOT AND PUSH1 0x1 OR SWAP1 SSTORE PUSH1 0x10 DUP1 SLOAD CALLER PUSH1 0x1 PUSH1 0x1 PUSH1 0xA0 SHL SUB NOT SWAP1 SWAP2 AND DUP2 OR SWAP1 SWAP2 SSTORE NUMBER PUSH1 0xB SSTORE PUSH1 0x40 MLOAD PUSH32 0xE4CAEAEF8E4F0C4880839CA47219351B38CF4116C082FD0BAEFC3008E4BA11A3 SWAP1 PUSH1 0x0 SWAP1 LOG2 POP POP JUMP JUMPDEST PUSH1 0xC DUP1 SLOAD PUSH1 0xD DUP1 SLOAD SWAP2 SWAP3 SWAP2 PUSH2 0xD00 SWAP1 PUSH2 0x1B40 JUMP JUMPDEST DUP1 PUSH1 0x1F ADD PUSH1 0x20 DUP1 SWAP2 DIV MUL PUSH1 0x20 ADD PUSH1 0x40 MLOAD SWAP1 DUP2 ADD PUSH1 0x40 MSTORE DUP1 SWAP3 SWAP2 SWAP1 DUP2 DUP2 MSTORE PUSH1 0x20 ADD DUP3 DUP1 SLOAD PUSH2 0xD2C SWAP1 PUSH2 0x1B40 JUMP JUMPDEST DUP1 ISZERO PUSH2 0xD79 JUMPI DUP1 PUSH1 0x1F LT PUSH2 0xD4E JUMPI PUSH2 0x100 DUP1 DUP4 SLOAD DIV MUL DUP4 MSTORE SWAP2 PUSH1 0x20 ADD SWAP2 PUSH2 0xD79 JUMP JUMPDEST DUP3 ADD SWAP2 SWAP1 PUSH1 0x0 MSTORE PUSH1 0x20 PUSH1 0x0 KECCAK256 SWAP1 JUMPDEST DUP2 SLOAD DUP2 MSTORE SWAP1 PUSH1 0x1 ADD SWAP1 PUSH1 0x20 ADD DUP1 DUP4 GT PUSH2 0xD5C JUMPI DUP3 SWAP1 SUB PUSH1 0x1F AND DUP3 ADD SWAP2 JUMPDEST POP POP POP POP PUSH1 0x2 DUP4 ADD SLOAD PUSH1 0x3 DUP5 ADD SLOAD PUSH1 0x4 DUP6 ADD SLOAD PUSH1 0x5 DUP7 ADD DUP1 SLOAD SWAP6 SWAP7 SWAP4 SWAP6 PUSH1 0x1 PUSH1 0x1 PUSH1 0xA0 SHL SUB SWAP4 DUP5 AND SWAP6 POP SWAP3 DUP3 AND SWAP4 PUSH1 0x1 PUSH1 0xA0 SHL SWAP1 SWAP3 DIV PUSH1 0xFF AND SWAP3 PUSH2 0xDBC SWAP1 PUSH2 0x1B40 JUMP JUMPDEST DUP1 PUSH1 0x1F ADD PUSH1 0x20 DUP1 SWAP2 DIV MUL PUSH1 0x20 ADD PUSH1 0x40 MLOAD SWAP1 DUP2 ADD PUSH1 0x40 MSTORE DUP1 SWAP3 SWAP2 SWAP1 DUP2 DUP2 MSTORE PUSH1 0x20 ADD DUP3 DUP1 SLOAD PUSH2 0xDE8 SWAP1 PUSH2 0x1B40 JUMP JUMPDEST DUP1 ISZERO PUSH2 0xE35 JUMPI DUP1 PUSH1 0x1F LT PUSH2 0xE0A JUMPI PUSH2 0x100 DUP1 DUP4 SLOAD DIV MUL DUP4 MSTORE SWAP2 PUSH1 0x20 ADD SWAP2 PUSH2 0xE35 JUMP JUMPDEST DUP3 ADD SWAP2 SWAP1 PUSH1 0x0 MSTORE PUSH1 0x20 PUSH1 0x0 KECCAK256 SWAP1 JUMPDEST DUP2 SLOAD DUP2 MSTORE SWAP1 PUSH1 0x1 ADD SWAP1 PUSH1 0x20 ADD DUP1 DUP4 GT PUSH2 0xE18 JUMPI DUP3 SWAP1 SUB PUSH1 0x1F AND DUP3 ADD SWAP2 JUMPDEST POP POP POP POP POP SWAP1 DUP1 PUSH1 0x6 ADD DUP1 SLOAD PUSH2 0xE4A SWAP1 PUSH2 0x1B40 JUMP JUMPDEST DUP1 PUSH1 0x1F ADD PUSH1 0x20 DUP1 SWAP2 DIV MUL PUSH1 0x20 ADD PUSH1 0x40 MLOAD SWAP1 DUP2 ADD PUSH1 0x40 MSTORE DUP1 SWAP3 SWAP2 SWAP1 DUP2 DUP2 MSTORE PUSH1 0x20 ADD DUP3 DUP1 SLOAD PUSH2 0xE76 SWAP1 PUSH2 0x1B40 JUMP JUMPDEST DUP1 ISZERO PUSH2 0xEC3 JUMPI DUP1 PUSH1 0x1F LT PUSH2 0xE98 JUMPI PUSH2 0x100 DUP1 DUP4 SLOAD DIV MUL DUP4 MSTORE SWAP2 PUSH1 0x20 ADD SWAP2 PUSH2 0xEC3 JUMP JUMPDEST DUP3 ADD SWAP2 SWAP1 PUSH1 0x0 MSTORE PUSH1 0x20 PUSH1 0x0 KECCAK256 SWAP1 JUMPDEST DUP2 SLOAD DUP2 MSTORE SWAP1 PUSH1 0x1 ADD SWAP1 PUSH1 0x20 ADD DUP1 DUP4 GT PUSH2 0xEA6 JUMPI DUP3 SWAP1 SUB PUSH1 0x1F AND DUP3 ADD SWAP2 JUMPDEST POP POP POP POP POP SWAP1 DUP1 PUSH1 0x7 ADD DUP1 SLOAD PUSH2 0xED8 SWAP1 PUSH2 0x1B40 JUMP JUMPDEST DUP1 PUSH1 0x1F ADD PUSH1 0x20 DUP1 SWAP2 DIV MUL PUSH1 0x20 ADD PUSH1 0x40 MLOAD SWAP1 DUP2 ADD PUSH1 0x40 MSTORE DUP1 SWAP3 SWAP2 SWAP1 DUP2 DUP2 MSTORE PUSH1 0x20 ADD DUP3 DUP1 SLOAD PUSH2 0xF04 SWAP1 PUSH2 0x1B40 JUMP JUMPDEST DUP1 ISZERO PUSH2 0xF51 JUMPI DUP1 PUSH1 0x1F LT PUSH2 0xF26 JUMPI PUSH2 0x100 DUP1 DUP4 SLOAD DIV MUL DUP4 MSTORE SWAP2 PUSH1 0x20 ADD SWAP2 PUSH2 0xF51 JUMP JUMPDEST DUP3 ADD SWAP2 SWAP1 PUSH1 0x0 MSTORE PUSH1 0x20 PUSH1 0x0 KECCAK256 SWAP1 JUMPDEST DUP2 SLOAD DUP2 MSTORE SWAP1 PUSH1 0x1 ADD SWAP1 PUSH1 0x20 ADD DUP1 DUP4 GT PUSH2 0xF34 JUMPI DUP3 SWAP1 SUB PUSH1 0x1F AND DUP3 ADD SWAP2 JUMPDEST POP POP POP POP PUSH1 0x8 DUP4 ADD SLOAD PUSH1 0x9 SWAP1 SWAP4 ADD SLOAD SWAP2 SWAP3 PUSH1 0xFF AND SWAP2 SWAP1 POP DUP12 JUMP JUMPDEST PUSH1 0x6 SLOAD PUSH1 0x1 PUSH1 0x1 PUSH1 0xA0 SHL SUB AND CALLER EQ PUSH2 0xF95 JUMPI PUSH1 0x40 MLOAD PUSH3 0x461BCD PUSH1 0xE5 SHL DUP2 MSTORE PUSH1 0x4 ADD PUSH2 0x2B7 SWAP1 PUSH2 0x1C01 JUMP JUMPDEST PUSH1 0x1 PUSH1 0x1 PUSH1 0xA0 SHL SUB DUP2 AND PUSH2 0xFFA JUMPI PUSH1 0x40 MLOAD PUSH3 0x461BCD PUSH1 0xE5 SHL DUP2 MSTORE PUSH1 0x20 PUSH1 0x4 DUP3 ADD MSTORE PUSH1 0x26 PUSH1 0x24 DUP3 ADD MSTORE PUSH32 0x4F776E61626C653A206E6577206F776E657220697320746865207A65726F2061 PUSH1 0x44 DUP3 ADD MSTORE PUSH6 0x646472657373 PUSH1 0xD0 SHL PUSH1 0x64 DUP3 ADD MSTORE PUSH1 0x84 ADD PUSH2 0x2B7 JUMP JUMPDEST PUSH2 0x1003 DUP2 PUSH2 0x1068 JUMP JUMPDEST POP JUMP JUMPDEST PUSH2 0x100E PUSH2 0x174B JUMP JUMPDEST PUSH2 0x1016 PUSH2 0x174B JUMP JUMPDEST PUSH2 0x1022 DUP2 DUP7 DUP7 DUP7 PUSH2 0x10BA JUMP JUMPDEST SWAP6 SWAP5 POP POP POP POP POP JUMP JUMPDEST PUSH1 0x80 DUP4 ADD MLOAD PUSH2 0x103A SWAP1 DUP4 PUSH2 0x10F7 JUMP JUMPDEST PUSH1 0x80 DUP4 ADD MLOAD PUSH2 0x727 SWAP1 DUP3 PUSH2 0x10F7 JUMP JUMPDEST PUSH1 0x0 PUSH2 0x1060 DUP5 DUP5 DUP5 PUSH1 0x1 PUSH4 0x20214CA3 PUSH1 0xE1 SHL PUSH2 0x110E JUMP JUMPDEST SWAP5 SWAP4 POP POP POP POP JUMP JUMPDEST PUSH1 0x6 DUP1 SLOAD PUSH1 0x1 PUSH1 0x1 PUSH1 0xA0 SHL SUB DUP4 DUP2 AND PUSH1 0x1 PUSH1 0x1 PUSH1 0xA0 SHL SUB NOT DUP4 AND DUP2 OR SWAP1 SWAP4 SSTORE PUSH1 0x40 MLOAD SWAP2 AND SWAP2 SWAP1 DUP3 SWAP1 PUSH32 0x8BE0079C531659141344CD1FD0A4F28419497F9722A3DAAFE3B4186F6B6457E0 SWAP1 PUSH1 0x0 SWAP1 LOG3 POP POP JUMP JUMPDEST PUSH2 0x10C2 PUSH2 0x174B JUMP JUMPDEST PUSH2 0x10D2 DUP6 PUSH1 0x80 ADD MLOAD PUSH2 0x100 PUSH2 0x131A JUMP JUMPDEST POP POP SWAP2 DUP4 MSTORE PUSH1 0x1 PUSH1 0x1 PUSH1 0xA0 SHL SUB AND PUSH1 0x20 DUP4 ADD MSTORE PUSH1 0x1 PUSH1 0x1 PUSH1 0xE0 SHL SUB NOT AND PUSH1 0x40 DUP3 ADD MSTORE SWAP1 JUMP JUMPDEST PUSH2 0x1104 DUP3 PUSH1 0x3 DUP4 MLOAD PUSH2 0x1385 JUMP JUMPDEST PUSH2 0x727 DUP3 DUP3 PUSH2 0x1459 JUMP JUMPDEST PUSH1 0x4 SLOAD PUSH1 0x40 MLOAD PUSH12 0xFFFFFFFFFFFFFFFFFFFFFFFF NOT ADDRESS PUSH1 0x60 SHL AND PUSH1 0x20 DUP3 ADD MSTORE PUSH1 0x34 DUP2 ADD SWAP2 SWAP1 SWAP2 MSTORE PUSH1 0x0 SWAP1 PUSH1 0x54 ADD PUSH1 0x40 DUP1 MLOAD DUP1 DUP4 SUB PUSH1 0x1F NOT ADD DUP2 MSTORE SWAP2 DUP2 MSTORE DUP2 MLOAD PUSH1 0x20 SWAP3 DUP4 ADD KECCAK256 PUSH1 0x4 SLOAD PUSH1 0x60 DUP10 ADD MSTORE PUSH1 0x0 DUP2 DUP2 MSTORE PUSH1 0x5 SWAP1 SWAP4 MSTORE DUP2 DUP4 KECCAK256 DUP1 SLOAD PUSH1 0x1 PUSH1 0x1 PUSH1 0xA0 SHL SUB NOT AND PUSH1 0x1 PUSH1 0x1 PUSH1 0xA0 SHL SUB DUP12 AND OR SWAP1 SSTORE SWAP1 MLOAD SWAP1 SWAP3 POP DUP3 SWAP2 PUSH32 0xB5E6E01E79F91267DC17B4E6314D5D4D03593D2CEEE0FBB452B750BD70EA5AF9 SWAP2 LOG2 PUSH1 0x0 DUP3 PUSH1 0x0 DUP1 DUP9 PUSH1 0x0 ADD MLOAD DUP10 PUSH1 0x20 ADD MLOAD DUP11 PUSH1 0x40 ADD MLOAD DUP12 PUSH1 0x60 ADD MLOAD DUP11 DUP14 PUSH1 0x80 ADD MLOAD PUSH1 0x0 ADD MLOAD PUSH1 0x40 MLOAD PUSH1 0x24 ADD PUSH2 0x11E5 SWAP9 SWAP8 SWAP7 SWAP6 SWAP5 SWAP4 SWAP3 SWAP2 SWAP1 PUSH2 0x1D0C JUMP JUMPDEST PUSH1 0x40 DUP1 MLOAD PUSH1 0x1F NOT DUP2 DUP5 SUB ADD DUP2 MSTORE SWAP2 DUP2 MSTORE PUSH1 0x20 DUP3 ADD DUP1 MLOAD PUSH1 0x1 PUSH1 0x1 PUSH1 0xE0 SHL SUB AND PUSH1 0x1 PUSH1 0x1 PUSH1 0xE0 SHL SUB NOT SWAP1 SWAP5 AND SWAP4 SWAP1 SWAP4 OR SWAP1 SWAP3 MSTORE PUSH1 0x2 SLOAD SWAP2 MLOAD PUSH4 0x2000575 PUSH1 0xE5 SHL DUP2 MSTORE SWAP1 SWAP3 POP PUSH1 0x1 PUSH1 0x1 PUSH1 0xA0 SHL SUB SWAP1 SWAP2 AND SWAP1 PUSH4 0x4000AEA0 SWAP1 PUSH2 0x124D SWAP1 DUP11 SWAP1 DUP10 SWAP1 DUP7 SWAP1 PUSH1 0x4 ADD PUSH2 0x1D74 JUMP JUMPDEST PUSH1 0x20 PUSH1 0x40 MLOAD DUP1 DUP4 SUB DUP2 PUSH1 0x0 DUP8 DUP1 EXTCODESIZE ISZERO DUP1 ISZERO PUSH2 0x1267 JUMPI PUSH1 0x0 DUP1 REVERT JUMPDEST POP GAS CALL ISZERO DUP1 ISZERO PUSH2 0x127B JUMPI RETURNDATASIZE PUSH1 0x0 DUP1 RETURNDATACOPY RETURNDATASIZE PUSH1 0x0 REVERT JUMPDEST POP POP POP POP PUSH1 0x40 MLOAD RETURNDATASIZE PUSH1 0x1F NOT PUSH1 0x1F DUP3 ADD AND DUP3 ADD DUP1 PUSH1 0x40 MSTORE POP DUP2 ADD SWAP1 PUSH2 0x129F SWAP2 SWAP1 PUSH2 0x1BB3 JUMP JUMPDEST PUSH2 0x12F7 JUMPI PUSH1 0x40 MLOAD PUSH3 0x461BCD PUSH1 0xE5 SHL DUP2 MSTORE PUSH1 0x20 PUSH1 0x4 DUP3 ADD MSTORE PUSH1 0x23 PUSH1 0x24 DUP3 ADD MSTORE PUSH32 0x756E61626C6520746F207472616E73666572416E6443616C6C20746F206F7261 PUSH1 0x44 DUP3 ADD MSTORE PUSH3 0x636C65 PUSH1 0xE8 SHL PUSH1 0x64 DUP3 ADD MSTORE PUSH1 0x84 ADD PUSH2 0x2B7 JUMP JUMPDEST PUSH1 0x1 PUSH1 0x4 PUSH1 0x0 DUP3 DUP3 SLOAD PUSH2 0x130A SWAP2 SWAP1 PUSH2 0x1CF4 JUMP JUMPDEST SWAP1 SWAP2 SSTORE POP SWAP2 SWAP8 SWAP7 POP POP POP POP POP POP POP JUMP JUMPDEST PUSH1 0x40 DUP1 MLOAD DUP1 DUP3 ADD SWAP1 SWAP2 MSTORE PUSH1 0x60 DUP2 MSTORE PUSH1 0x0 PUSH1 0x20 DUP3 ADD MSTORE PUSH2 0x133A PUSH1 0x20 DUP4 PUSH2 0x1D9B JUMP JUMPDEST ISZERO PUSH2 0x1362 JUMPI PUSH2 0x134A PUSH1 0x20 DUP4 PUSH2 0x1D9B JUMP JUMPDEST PUSH2 0x1355 SWAP1 PUSH1 0x20 PUSH2 0x1DBD JUMP JUMPDEST PUSH2 0x135F SWAP1 DUP4 PUSH2 0x1CF4 JUMP JUMPDEST SWAP2 POP JUMPDEST POP PUSH1 0x20 DUP1 DUP4 ADD DUP3 SWAP1 MSTORE PUSH1 0x40 DUP1 MLOAD DUP1 DUP6 MSTORE PUSH1 0x0 DUP2 MSTORE DUP4 ADD SWAP1 SWAP2 ADD SWAP1 MSTORE DUP2 JUMPDEST SWAP3 SWAP2 POP POP JUMP JUMPDEST PUSH1 0x17 DUP2 GT PUSH2 0x13A6 JUMPI PUSH2 0x13A0 DUP4 PUSH1 0xE0 PUSH1 0x5 DUP6 SWAP1 SHL AND DUP4 OR PUSH2 0x1487 JUMP JUMPDEST POP POP POP POP JUMP JUMPDEST PUSH1 0xFF DUP2 GT PUSH2 0x13D0 JUMPI PUSH2 0x13C3 DUP4 PUSH1 0x18 PUSH2 0x1FE0 PUSH1 0x5 DUP7 SWAP1 SHL AND OR PUSH2 0x1487 JUMP JUMPDEST POP PUSH2 0x13A0 DUP4 DUP3 PUSH1 0x1 PUSH2 0x14AC JUMP JUMPDEST PUSH2 0xFFFF DUP2 GT PUSH2 0x13FB JUMPI PUSH2 0x13EE DUP4 PUSH1 0x19 PUSH2 0x1FE0 PUSH1 0x5 DUP7 SWAP1 SHL AND OR PUSH2 0x1487 JUMP JUMPDEST POP PUSH2 0x13A0 DUP4 DUP3 PUSH1 0x2 PUSH2 0x14AC JUMP JUMPDEST PUSH4 0xFFFFFFFF DUP2 GT PUSH2 0x1428 JUMPI PUSH2 0x141B DUP4 PUSH1 0x1A PUSH2 0x1FE0 PUSH1 0x5 DUP7 SWAP1 SHL AND OR PUSH2 0x1487 JUMP JUMPDEST POP PUSH2 0x13A0 DUP4 DUP3 PUSH1 0x4 PUSH2 0x14AC JUMP JUMPDEST PUSH8 0xFFFFFFFFFFFFFFFF DUP2 GT PUSH2 0x727 JUMPI PUSH2 0x144C DUP4 PUSH1 0x1B PUSH2 0x1FE0 PUSH1 0x5 DUP7 SWAP1 SHL AND OR PUSH2 0x1487 JUMP JUMPDEST POP PUSH2 0x13A0 DUP4 DUP3 PUSH1 0x8 PUSH2 0x14AC JUMP JUMPDEST PUSH1 0x40 DUP1 MLOAD DUP1 DUP3 ADD SWAP1 SWAP2 MSTORE PUSH1 0x60 DUP2 MSTORE PUSH1 0x0 PUSH1 0x20 DUP3 ADD MSTORE PUSH2 0x1480 DUP4 DUP5 PUSH1 0x0 ADD MLOAD MLOAD DUP5 DUP6 MLOAD PUSH2 0x14D2 JUMP JUMPDEST SWAP4 SWAP3 POP POP POP JUMP JUMPDEST PUSH1 0x40 DUP1 MLOAD DUP1 DUP3 ADD SWAP1 SWAP2 MSTORE PUSH1 0x60 DUP2 MSTORE PUSH1 0x0 PUSH1 0x20 DUP3 ADD MSTORE PUSH2 0x1480 DUP4 DUP5 PUSH1 0x0 ADD MLOAD MLOAD DUP5 PUSH2 0x15BC JUMP JUMPDEST PUSH1 0x40 DUP1 MLOAD DUP1 DUP3 ADD SWAP1 SWAP2 MSTORE PUSH1 0x60 DUP2 MSTORE PUSH1 0x0 PUSH1 0x20 DUP3 ADD MSTORE PUSH2 0x1060 DUP5 DUP6 PUSH1 0x0 ADD MLOAD MLOAD DUP6 DUP6 PUSH2 0x1618 JUMP JUMPDEST PUSH1 0x40 DUP1 MLOAD DUP1 DUP3 ADD SWAP1 SWAP2 MSTORE PUSH1 0x60 DUP2 MSTORE PUSH1 0x0 PUSH1 0x20 DUP3 ADD MSTORE DUP3 MLOAD DUP3 GT ISZERO PUSH2 0x14F5 JUMPI PUSH1 0x0 DUP1 REVERT JUMPDEST PUSH1 0x20 DUP6 ADD MLOAD PUSH2 0x1504 DUP4 DUP7 PUSH2 0x1CF4 JUMP JUMPDEST GT ISZERO PUSH2 0x1537 JUMPI PUSH2 0x1537 DUP6 PUSH2 0x1527 DUP8 PUSH1 0x20 ADD MLOAD DUP8 DUP7 PUSH2 0x1522 SWAP2 SWAP1 PUSH2 0x1CF4 JUMP JUMPDEST PUSH2 0x1699 JUMP JUMPDEST PUSH2 0x1532 SWAP1 PUSH1 0x2 PUSH2 0x1DD4 JUMP JUMPDEST PUSH2 0x16B0 JUMP JUMPDEST PUSH1 0x0 DUP1 DUP7 MLOAD DUP1 MLOAD DUP8 PUSH1 0x20 DUP4 ADD ADD SWAP4 POP DUP1 DUP9 DUP8 ADD GT ISZERO PUSH2 0x1556 JUMPI DUP8 DUP7 ADD DUP3 MSTORE JUMPDEST POP POP POP PUSH1 0x20 DUP5 ADD JUMPDEST PUSH1 0x20 DUP5 LT PUSH2 0x1596 JUMPI DUP1 MLOAD DUP3 MSTORE PUSH2 0x1575 PUSH1 0x20 DUP4 PUSH2 0x1CF4 JUMP JUMPDEST SWAP2 POP PUSH2 0x1582 PUSH1 0x20 DUP3 PUSH2 0x1CF4 JUMP JUMPDEST SWAP1 POP PUSH2 0x158F PUSH1 0x20 DUP6 PUSH2 0x1DBD JUMP JUMPDEST SWAP4 POP PUSH2 0x155E JUMP JUMPDEST MLOAD DUP2 MLOAD PUSH1 0x0 NOT PUSH1 0x20 DUP7 SWAP1 SUB PUSH2 0x100 EXP ADD SWAP1 DUP2 AND SWAP1 NOT SWAP2 SWAP1 SWAP2 AND OR SWAP1 MSTORE POP DUP4 SWAP5 SWAP4 POP POP POP POP JUMP JUMPDEST PUSH1 0x40 DUP1 MLOAD DUP1 DUP3 ADD SWAP1 SWAP2 MSTORE PUSH1 0x60 DUP2 MSTORE PUSH1 0x0 PUSH1 0x20 DUP3 ADD MSTORE DUP4 PUSH1 0x20 ADD MLOAD DUP4 LT PUSH2 0x15F1 JUMPI PUSH2 0x15F1 DUP5 DUP6 PUSH1 0x20 ADD MLOAD PUSH1 0x2 PUSH2 0x1532 SWAP2 SWAP1 PUSH2 0x1DD4 JUMP JUMPDEST DUP4 MLOAD DUP1 MLOAD PUSH1 0x20 DUP6 DUP4 ADD ADD DUP5 DUP2 MSTORE8 POP DUP1 DUP6 EQ ISZERO PUSH2 0x160E JUMPI PUSH1 0x1 DUP2 ADD DUP3 MSTORE JUMPDEST POP SWAP4 SWAP5 SWAP4 POP POP POP POP JUMP JUMPDEST PUSH1 0x40 DUP1 MLOAD DUP1 DUP3 ADD SWAP1 SWAP2 MSTORE PUSH1 0x60 DUP2 MSTORE PUSH1 0x0 PUSH1 0x20 DUP3 ADD MSTORE PUSH1 0x20 DUP6 ADD MLOAD PUSH2 0x163C DUP6 DUP5 PUSH2 0x1CF4 JUMP JUMPDEST GT ISZERO PUSH2 0x1650 JUMPI PUSH2 0x1650 DUP6 PUSH2 0x1527 DUP7 DUP6 PUSH2 0x1CF4 JUMP JUMPDEST PUSH1 0x0 PUSH1 0x1 PUSH2 0x1660 DUP5 PUSH2 0x100 PUSH2 0x1ED7 JUMP JUMPDEST PUSH2 0x166A SWAP2 SWAP1 PUSH2 0x1DBD JUMP JUMPDEST SWAP1 POP DUP6 MLOAD DUP4 DUP7 DUP3 ADD ADD DUP6 DUP4 NOT DUP3 MLOAD AND OR DUP2 MSTORE POP DUP1 MLOAD DUP5 DUP8 ADD GT ISZERO PUSH2 0x168E JUMPI DUP4 DUP7 ADD DUP2 MSTORE JUMPDEST POP SWAP5 SWAP6 SWAP5 POP POP POP POP POP JUMP JUMPDEST PUSH1 0x0 DUP2 DUP4 GT ISZERO PUSH2 0x16AA JUMPI POP DUP2 PUSH2 0x137F JUMP JUMPDEST POP SWAP2 SWAP1 POP JUMP JUMPDEST DUP2 MLOAD PUSH2 0x16BC DUP4 DUP4 PUSH2 0x131A JUMP JUMPDEST POP PUSH2 0x13A0 DUP4 DUP3 PUSH2 0x1459 JUMP JUMPDEST DUP3 DUP1 SLOAD PUSH2 0x16D3 SWAP1 PUSH2 0x1B40 JUMP JUMPDEST SWAP1 PUSH1 0x0 MSTORE PUSH1 0x20 PUSH1 0x0 KECCAK256 SWAP1 PUSH1 0x1F ADD PUSH1 0x20 SWAP1 DIV DUP2 ADD SWAP3 DUP3 PUSH2 0x16F5 JUMPI PUSH1 0x0 DUP6 SSTORE PUSH2 0x173B JUMP JUMPDEST DUP3 PUSH1 0x1F LT PUSH2 0x170E JUMPI DUP1 MLOAD PUSH1 0xFF NOT AND DUP4 DUP1 ADD OR DUP6 SSTORE PUSH2 0x173B JUMP JUMPDEST DUP3 DUP1 ADD PUSH1 0x1 ADD DUP6 SSTORE DUP3 ISZERO PUSH2 0x173B JUMPI SWAP2 DUP3 ADD JUMPDEST DUP3 DUP2 GT ISZERO PUSH2 0x173B JUMPI DUP3 MLOAD DUP3 SSTORE SWAP2 PUSH1 0x20 ADD SWAP2 SWAP1 PUSH1 0x1 ADD SWAP1 PUSH2 0x1720 JUMP JUMPDEST POP PUSH2 0x1747 SWAP3 SWAP2 POP PUSH2 0x1786 JUMP JUMPDEST POP SWAP1 JUMP JUMPDEST PUSH1 0x40 DUP1 MLOAD PUSH1 0xA0 DUP2 ADD DUP3 MSTORE PUSH1 0x0 DUP1 DUP3 MSTORE PUSH1 0x20 DUP1 DUP4 ADD DUP3 SWAP1 MSTORE DUP3 DUP5 ADD DUP3 SWAP1 MSTORE PUSH1 0x60 DUP1 DUP5 ADD DUP4 SWAP1 MSTORE DUP5 MLOAD DUP1 DUP7 ADD SWAP1 SWAP6 MSTORE DUP5 MSTORE DUP4 ADD MSTORE SWAP1 PUSH1 0x80 DUP3 ADD MSTORE SWAP1 JUMP JUMPDEST JUMPDEST DUP1 DUP3 GT ISZERO PUSH2 0x1747 JUMPI PUSH1 0x0 DUP2 SSTORE PUSH1 0x1 ADD PUSH2 0x1787 JUMP JUMPDEST PUSH1 0x0 DUP1 PUSH1 0x40 DUP4 DUP6 SUB SLT ISZERO PUSH2 0x17AE JUMPI PUSH1 0x0 DUP1 REVERT JUMPDEST POP POP DUP1 CALLDATALOAD SWAP3 PUSH1 0x20 SWAP1 SWAP2 ADD CALLDATALOAD SWAP2 POP JUMP JUMPDEST DUP1 CALLDATALOAD PUSH1 0x1 PUSH1 0x1 PUSH1 0xA0 SHL SUB DUP2 AND DUP2 EQ PUSH2 0x17D4 JUMPI PUSH1 0x0 DUP1 REVERT JUMPDEST SWAP2 SWAP1 POP JUMP JUMPDEST PUSH4 0x4E487B71 PUSH1 0xE0 SHL PUSH1 0x0 MSTORE PUSH1 0x41 PUSH1 0x4 MSTORE PUSH1 0x24 PUSH1 0x0 REVERT JUMPDEST PUSH1 0x40 MLOAD PUSH1 0x1F DUP3 ADD PUSH1 0x1F NOT AND DUP2 ADD PUSH8 0xFFFFFFFFFFFFFFFF DUP2 GT DUP3 DUP3 LT OR ISZERO PUSH2 0x1818 JUMPI PUSH2 0x1818 PUSH2 0x17D9 JUMP JUMPDEST PUSH1 0x40 MSTORE SWAP2 SWAP1 POP JUMP JUMPDEST PUSH1 0x0 PUSH8 0xFFFFFFFFFFFFFFFF DUP3 GT ISZERO PUSH2 0x183A JUMPI PUSH2 0x183A PUSH2 0x17D9 JUMP JUMPDEST POP PUSH1 0x1F ADD PUSH1 0x1F NOT AND PUSH1 0x20 ADD SWAP1 JUMP JUMPDEST PUSH1 0x0 DUP3 PUSH1 0x1F DUP4 ADD SLT PUSH2 0x1859 JUMPI PUSH1 0x0 DUP1 REVERT JUMPDEST DUP2 CALLDATALOAD PUSH2 0x186C PUSH2 0x1867 DUP3 PUSH2 0x1820 JUMP JUMPDEST PUSH2 0x17EF JUMP JUMPDEST DUP2 DUP2 MSTORE DUP5 PUSH1 0x20 DUP4 DUP7 ADD ADD GT ISZERO PUSH2 0x1881 JUMPI PUSH1 0x0 DUP1 REVERT JUMPDEST DUP2 PUSH1 0x20 DUP6 ADD PUSH1 0x20 DUP4 ADD CALLDATACOPY PUSH1 0x0 SWAP2 DUP2 ADD PUSH1 0x20 ADD SWAP2 SWAP1 SWAP2 MSTORE SWAP4 SWAP3 POP POP POP JUMP JUMPDEST PUSH1 0x0 DUP1 PUSH1 0x0 DUP1 PUSH1 0x0 DUP1 PUSH1 0x0 DUP1 PUSH1 0x0 PUSH2 0x120 DUP11 DUP13 SUB SLT ISZERO PUSH2 0x18BD JUMPI PUSH1 0x0 DUP1 REVERT JUMPDEST PUSH2 0x18C6 DUP11 PUSH2 0x17BD JUMP JUMPDEST SWAP9 POP PUSH2 0x18D4 PUSH1 0x20 DUP12 ADD PUSH2 0x17BD JUMP JUMPDEST SWAP8 POP PUSH1 0x40 DUP11 ADD CALLDATALOAD PUSH8 0xFFFFFFFFFFFFFFFF DUP1 DUP3 GT ISZERO PUSH2 0x18F1 JUMPI PUSH1 0x0 DUP1 REVERT JUMPDEST PUSH2 0x18FD DUP14 DUP4 DUP15 ADD PUSH2 0x1848 JUMP JUMPDEST SWAP9 POP PUSH1 0x60 DUP13 ADD CALLDATALOAD SWAP8 POP PUSH1 0x80 DUP13 ADD CALLDATALOAD SWAP2 POP DUP1 DUP3 GT ISZERO PUSH2 0x191A JUMPI PUSH1 0x0 DUP1 REVERT JUMPDEST POP PUSH2 0x1927 DUP13 DUP3 DUP14 ADD PUSH2 0x1848 JUMP JUMPDEST SWAP6 POP POP PUSH2 0x1936 PUSH1 0xA0 DUP12 ADD PUSH2 0x17BD JUMP JUMPDEST SWAP4 POP PUSH1 0xC0 DUP11 ADD CALLDATALOAD SWAP3 POP PUSH1 0xE0 DUP11 ADD CALLDATALOAD SWAP2 POP PUSH2 0x100 DUP11 ADD CALLDATALOAD SWAP1 POP SWAP3 SWAP6 SWAP9 POP SWAP3 SWAP6 SWAP9 POP SWAP3 SWAP6 SWAP9 JUMP JUMPDEST PUSH1 0x0 PUSH1 0x20 DUP3 DUP5 SUB SLT ISZERO PUSH2 0x196D JUMPI PUSH1 0x0 DUP1 REVERT JUMPDEST DUP2 CALLDATALOAD PUSH8 0xFFFFFFFFFFFFFFFF DUP2 GT ISZERO PUSH2 0x1984 JUMPI PUSH1 0x0 DUP1 REVERT JUMPDEST PUSH2 0x1060 DUP5 DUP3 DUP6 ADD PUSH2 0x1848 JUMP JUMPDEST PUSH1 0x0 JUMPDEST DUP4 DUP2 LT ISZERO PUSH2 0x19AB JUMPI DUP2 DUP2 ADD MLOAD DUP4 DUP3 ADD MSTORE PUSH1 0x20 ADD PUSH2 0x1993 JUMP JUMPDEST DUP4 DUP2 GT ISZERO PUSH2 0x13A0 JUMPI POP POP PUSH1 0x0 SWAP2 ADD MSTORE JUMP JUMPDEST PUSH1 0x0 DUP2 MLOAD DUP1 DUP5 MSTORE PUSH2 0x19D4 DUP2 PUSH1 0x20 DUP7 ADD PUSH1 0x20 DUP7 ADD PUSH2 0x1990 JUMP JUMPDEST PUSH1 0x1F ADD PUSH1 0x1F NOT AND SWAP3 SWAP1 SWAP3 ADD PUSH1 0x20 ADD SWAP3 SWAP2 POP POP JUMP JUMPDEST PUSH4 0x4E487B71 PUSH1 0xE0 SHL PUSH1 0x0 MSTORE PUSH1 0x21 PUSH1 0x4 MSTORE PUSH1 0x24 PUSH1 0x0 REVERT JUMPDEST PUSH1 0x0 PUSH2 0x160 DUP14 DUP4 MSTORE DUP1 PUSH1 0x20 DUP5 ADD MSTORE PUSH2 0x1A18 DUP2 DUP5 ADD DUP15 PUSH2 0x19BC JUMP JUMPDEST PUSH1 0x40 DUP5 ADD DUP14 SWAP1 MSTORE PUSH1 0x1 PUSH1 0x1 PUSH1 0xA0 SHL SUB DUP13 DUP2 AND PUSH1 0x60 DUP7 ADD MSTORE DUP12 AND PUSH1 0x80 DUP6 ADD MSTORE DUP10 ISZERO ISZERO PUSH1 0xA0 DUP6 ADD MSTORE DUP4 DUP2 SUB PUSH1 0xC0 DUP6 ADD MSTORE SWAP1 POP PUSH2 0x1A52 DUP2 DUP10 PUSH2 0x19BC JUMP JUMPDEST SWAP1 POP DUP3 DUP2 SUB PUSH1 0xE0 DUP5 ADD MSTORE PUSH2 0x1A66 DUP2 DUP9 PUSH2 0x19BC JUMP JUMPDEST SWAP1 POP DUP3 DUP2 SUB PUSH2 0x100 DUP5 ADD MSTORE PUSH2 0x1A7B DUP2 DUP8 PUSH2 0x19BC JUMP JUMPDEST SWAP2 POP POP PUSH1 0x5 DUP5 LT PUSH2 0x1A9C JUMPI PUSH4 0x4E487B71 PUSH1 0xE0 SHL PUSH1 0x0 MSTORE PUSH1 0x21 PUSH1 0x4 MSTORE PUSH1 0x24 PUSH1 0x0 REVERT JUMPDEST PUSH2 0x120 DUP3 ADD SWAP4 SWAP1 SWAP4 MSTORE PUSH2 0x140 ADD MSTORE SWAP10 SWAP9 POP POP POP POP POP POP POP POP POP JUMP JUMPDEST PUSH1 0x0 PUSH1 0x20 DUP3 DUP5 SUB SLT ISZERO PUSH2 0x1AC9 JUMPI PUSH1 0x0 DUP1 REVERT JUMPDEST PUSH2 0x1480 DUP3 PUSH2 0x17BD JUMP JUMPDEST PUSH1 0x0 PUSH1 0x20 DUP3 DUP5 SUB SLT ISZERO PUSH2 0x1AE4 JUMPI PUSH1 0x0 DUP1 REVERT JUMPDEST DUP2 MLOAD PUSH8 0xFFFFFFFFFFFFFFFF DUP2 GT ISZERO PUSH2 0x1AFB JUMPI PUSH1 0x0 DUP1 REVERT JUMPDEST DUP3 ADD PUSH1 0x1F DUP2 ADD DUP5 SGT PUSH2 0x1B0C JUMPI PUSH1 0x0 DUP1 REVERT JUMPDEST DUP1 MLOAD PUSH2 0x1B1A PUSH2 0x1867 DUP3 PUSH2 0x1820 JUMP JUMPDEST DUP2 DUP2 MSTORE DUP6 PUSH1 0x20 DUP4 DUP6 ADD ADD GT ISZERO PUSH2 0x1B2F JUMPI PUSH1 0x0 DUP1 REVERT JUMPDEST PUSH2 0x1022 DUP3 PUSH1 0x20 DUP4 ADD PUSH1 0x20 DUP7 ADD PUSH2 0x1990 JUMP JUMPDEST PUSH1 0x1 DUP2 DUP2 SHR SWAP1 DUP3 AND DUP1 PUSH2 0x1B54 JUMPI PUSH1 0x7F DUP3 AND SWAP2 POP JUMPDEST PUSH1 0x20 DUP3 LT DUP2 EQ ISZERO PUSH2 0x16AA JUMPI PUSH4 0x4E487B71 PUSH1 0xE0 SHL PUSH1 0x0 MSTORE PUSH1 0x22 PUSH1 0x4 MSTORE PUSH1 0x24 PUSH1 0x0 REVERT JUMPDEST PUSH1 0x40 DUP2 MSTORE PUSH1 0x0 PUSH2 0x1B88 PUSH1 0x40 DUP4 ADD DUP5 PUSH2 0x19BC JUMP JUMPDEST DUP3 DUP2 SUB PUSH1 0x20 DUP5 ADD MSTORE PUSH1 0x9 DUP2 MSTORE PUSH9 0x11195B1A5D995C9959 PUSH1 0xBA SHL PUSH1 0x20 DUP3 ADD MSTORE PUSH1 0x40 DUP2 ADD SWAP2 POP POP SWAP3 SWAP2 POP POP JUMP JUMPDEST PUSH1 0x0 PUSH1 0x20 DUP3 DUP5 SUB SLT ISZERO PUSH2 0x1BC5 JUMPI PUSH1 0x0 DUP1 REVERT JUMPDEST DUP2 MLOAD DUP1 ISZERO ISZERO DUP2 EQ PUSH2 0x1480 JUMPI PUSH1 0x0 DUP1 REVERT JUMPDEST PUSH1 0x20 DUP2 MSTORE PUSH1 0x0 PUSH2 0x1480 PUSH1 0x20 DUP4 ADD DUP5 PUSH2 0x19BC JUMP JUMPDEST PUSH1 0x0 PUSH1 0x20 DUP3 DUP5 SUB SLT ISZERO PUSH2 0x1BFA JUMPI PUSH1 0x0 DUP1 REVERT JUMPDEST POP MLOAD SWAP2 SWAP1 POP JUMP JUMPDEST PUSH1 0x20 DUP1 DUP3 MSTORE DUP2 DUP2 ADD MSTORE PUSH32 0x4F776E61626C653A2063616C6C6572206973206E6F7420746865206F776E6572 PUSH1 0x40 DUP3 ADD MSTORE PUSH1 0x60 ADD SWAP1 JUMP JUMPDEST PUSH1 0x0 PUSH1 0x20 DUP1 DUP4 MSTORE PUSH1 0x0 DUP5 SLOAD DUP2 PUSH1 0x1 DUP3 DUP2 SHR SWAP2 POP DUP1 DUP4 AND DUP1 PUSH2 0x1C58 JUMPI PUSH1 0x7F DUP4 AND SWAP3 POP JUMPDEST DUP6 DUP4 LT DUP2 EQ ISZERO PUSH2 0x1C76 JUMPI PUSH4 0x4E487B71 PUSH1 0xE0 SHL DUP6 MSTORE PUSH1 0x22 PUSH1 0x4 MSTORE PUSH1 0x24 DUP6 REVERT JUMPDEST DUP8 DUP7 ADD DUP4 DUP2 MSTORE PUSH1 0x20 ADD DUP2 DUP1 ISZERO PUSH2 0x1C93 JUMPI PUSH1 0x1 DUP2 EQ PUSH2 0x1CA4 JUMPI PUSH2 0x1CCF JUMP JUMPDEST PUSH1 0xFF NOT DUP7 AND DUP3 MSTORE DUP8 DUP3 ADD SWAP7 POP PUSH2 0x1CCF JUMP JUMPDEST PUSH1 0x0 DUP12 DUP2 MSTORE PUSH1 0x20 SWAP1 KECCAK256 PUSH1 0x0 JUMPDEST DUP7 DUP2 LT ISZERO PUSH2 0x1CC9 JUMPI DUP2 SLOAD DUP5 DUP3 ADD MSTORE SWAP1 DUP6 ADD SWAP1 DUP10 ADD PUSH2 0x1CB0 JUMP JUMPDEST DUP4 ADD SWAP8 POP POP JUMPDEST POP SWAP5 SWAP10 SWAP9 POP POP POP POP POP POP POP POP POP JUMP JUMPDEST PUSH4 0x4E487B71 PUSH1 0xE0 SHL PUSH1 0x0 MSTORE PUSH1 0x11 PUSH1 0x4 MSTORE PUSH1 0x24 PUSH1 0x0 REVERT JUMPDEST PUSH1 0x0 DUP3 NOT DUP3 GT ISZERO PUSH2 0x1D07 JUMPI PUSH2 0x1D07 PUSH2 0x1CDE JUMP JUMPDEST POP ADD SWAP1 JUMP JUMPDEST PUSH1 0x1 PUSH1 0x1 PUSH1 0xA0 SHL SUB DUP10 DUP2 AND DUP3 MSTORE PUSH1 0x20 DUP3 ADD DUP10 SWAP1 MSTORE PUSH1 0x40 DUP3 ADD DUP9 SWAP1 MSTORE DUP7 AND PUSH1 0x60 DUP3 ADD MSTORE PUSH1 0x1 PUSH1 0x1 PUSH1 0xE0 SHL SUB NOT DUP6 AND PUSH1 0x80 DUP3 ADD MSTORE PUSH1 0xA0 DUP2 ADD DUP5 SWAP1 MSTORE PUSH1 0xC0 DUP2 ADD DUP4 SWAP1 MSTORE PUSH2 0x100 PUSH1 0xE0 DUP3 ADD DUP2 SWAP1 MSTORE PUSH1 0x0 SWAP1 PUSH2 0x1D65 DUP4 DUP3 ADD DUP6 PUSH2 0x19BC JUMP JUMPDEST SWAP12 SWAP11 POP POP POP POP POP POP POP POP POP POP POP JUMP JUMPDEST PUSH1 0x1 DUP1 PUSH1 0xA0 SHL SUB DUP5 AND DUP2 MSTORE DUP3 PUSH1 0x20 DUP3 ADD MSTORE PUSH1 0x60 PUSH1 0x40 DUP3 ADD MSTORE PUSH1 0x0 PUSH2 0x1022 PUSH1 0x60 DUP4 ADD DUP5 PUSH2 0x19BC JUMP JUMPDEST PUSH1 0x0 DUP3 PUSH2 0x1DB8 JUMPI PUSH4 0x4E487B71 PUSH1 0xE0 SHL PUSH1 0x0 MSTORE PUSH1 0x12 PUSH1 0x4 MSTORE PUSH1 0x24 PUSH1 0x0 REVERT JUMPDEST POP MOD SWAP1 JUMP JUMPDEST PUSH1 0x0 DUP3 DUP3 LT ISZERO PUSH2 0x1DCF JUMPI PUSH2 0x1DCF PUSH2 0x1CDE JUMP JUMPDEST POP SUB SWAP1 JUMP JUMPDEST PUSH1 0x0 DUP2 PUSH1 0x0 NOT DIV DUP4 GT DUP3 ISZERO ISZERO AND ISZERO PUSH2 0x1DEE JUMPI PUSH2 0x1DEE PUSH2 0x1CDE JUMP JUMPDEST POP MUL SWAP1 JUMP JUMPDEST PUSH1 0x1 DUP2 DUP2 JUMPDEST DUP1 DUP6 GT ISZERO PUSH2 0x1E2E JUMPI DUP2 PUSH1 0x0 NOT DIV DUP3 GT ISZERO PUSH2 0x1E14 JUMPI PUSH2 0x1E14 PUSH2 0x1CDE JUMP JUMPDEST DUP1 DUP6 AND ISZERO PUSH2 0x1E21 JUMPI SWAP2 DUP2 MUL SWAP2 JUMPDEST SWAP4 DUP5 SHR SWAP4 SWAP1 DUP1 MUL SWAP1 PUSH2 0x1DF8 JUMP JUMPDEST POP SWAP3 POP SWAP3 SWAP1 POP JUMP JUMPDEST PUSH1 0x0 DUP3 PUSH2 0x1E45 JUMPI POP PUSH1 0x1 PUSH2 0x137F JUMP JUMPDEST DUP2 PUSH2 0x1E52 JUMPI POP PUSH1 0x0 PUSH2 0x137F JUMP JUMPDEST DUP2 PUSH1 0x1 DUP2 EQ PUSH2 0x1E68 JUMPI PUSH1 0x2 DUP2 EQ PUSH2 0x1E72 JUMPI PUSH2 0x1E8E JUMP JUMPDEST PUSH1 0x1 SWAP2 POP POP PUSH2 0x137F JUMP JUMPDEST PUSH1 0xFF DUP5 GT ISZERO PUSH2 0x1E83 JUMPI PUSH2 0x1E83 PUSH2 0x1CDE JUMP JUMPDEST POP POP PUSH1 0x1 DUP3 SHL PUSH2 0x137F JUMP JUMPDEST POP PUSH1 0x20 DUP4 LT PUSH2 0x133 DUP4 LT AND PUSH1 0x4E DUP5 LT PUSH1 0xB DUP5 LT AND OR ISZERO PUSH2 0x1EB1 JUMPI POP DUP2 DUP2 EXP PUSH2 0x137F JUMP JUMPDEST PUSH2 0x1EBB DUP4 DUP4 PUSH2 0x1DF3 JUMP JUMPDEST DUP1 PUSH1 0x0 NOT DIV DUP3 GT ISZERO PUSH2 0x1ECF JUMPI PUSH2 0x1ECF PUSH2 0x1CDE JUMP JUMPDEST MUL SWAP4 SWAP3 POP POP POP JUMP JUMPDEST PUSH1 0x0 PUSH2 0x1480 DUP4 DUP4 PUSH2 0x1E36 JUMP INVALID LOG2 PUSH5 0x6970667358 0x22 SLT KECCAK256 LOG2 0xD7 0xCD 0xC6 0x4C 0xFC PUSH13 0xB4530EB992630FE2615BDA9B3 DUP9 PUSH17 0xF05812B70FB3F620BBA364736F6C634300 ADDMOD MULMOD STOP CALLER ",
  "sha1": "dd0c98cad1521078803ef31c338333d715e19d79",
  "source": "// SPDX-License-Identifier: MIT\npragma solidity ^0.8.7;\n\nimport \"@chainlink/contracts/src/v0.8/ChainlinkClient.sol\";\nimport \"@openzeppelin/contracts/access/Ownable.sol\";\nimport \"./strings.sol\";\n\ncontract Escrow is ChainlinkClient, Ownable {\n    using Chainlink for Chainlink.Request;\n    using strings for string;\n    using strings for bytes32;\n\n    uint256 private oracleFee;\n    address private oracle;\n    bytes32 private jobId;\n\n    address factory;\n    uint256 public currentBlock;\n\n    struct Product {\n        uint256 id;\n        string name;\n        uint256 price;\n        address owner;\n        address buyer;\n        bool purchased;\n        string productURI;\n        string trackingId;\n        string deliveryStatus;\n        Stage stage;\n        uint256 lockPeriod;\n    }\n\n    Product public product;\n\n    enum Stage {\n        Initiate,\n        WaitForShipping,\n        Shipping,\n        Delivered,\n        End\n    }\n\n    event OrderInitiate(address indexed _buyer);\n    event OrderCancel(address indexed _buyer);\n\n    event ShipmentInprogress(string trackingNo);\n    event ShipmentUpdated(bytes32 status);\n    event OrderCompleted(string trackingNo);\n\n    modifier validStage(Stage _stage, string memory message) {\n        require(product.stage == _stage, message);\n        _;\n    }\n\n    modifier onlyBuyer() {\n        require(msg.sender == product.buyer, \"Only Buyer\");\n        _;\n    }\n\n    constructor() {\n        factory = msg.sender;\n    }\n\n    function init(\n        address _link,\n        address _oracle,\n        string memory _jobId,\n        uint256 _id,\n        string memory _name,\n        address _seller,\n        // address _currency,\n        uint256 _price,\n        uint256 _lockPeriod,\n        uint256 _oracleFee\n    ) external {\n        require(msg.sender == factory, \"FORBIDDEN\");\n        // setPublicChainlinkToken();\n        setChainlinkToken(_link);\n        transferOwnership(_seller);\n        oracle = _oracle;\n        jobId = _jobId.stringToBytes32();\n        oracleFee = _oracleFee;\n\n        product.id = _id;\n        product.name = _name;\n        product.lockPeriod = _lockPeriod;\n        product.stage = Stage.Initiate;\n        product.owner = _seller;\n        // currency = IERC20(_currency);\n        product.price = _price;\n    }\n\n    function setProductURI(string memory _productURI) public onlyOwner {\n        product.productURI = _productURI;\n    }\n\n    function order()\n        external\n        payable\n        validStage(Stage.Initiate, \"Already have a buyer\")\n    {\n        require(msg.sender != owner(), \"You can not buy from yourself\");\n        require(msg.value >= product.price, \"Not enough fund\");\n        product.stage = Stage.WaitForShipping;\n        product.buyer = msg.sender;\n        currentBlock = block.number;\n        // currency.transferFrom(msg.sender, address(this), price);\n        emit OrderInitiate(product.buyer);\n    }\n\n    function cancelOrder()\n        external\n        onlyBuyer\n        validStage(Stage.WaitForShipping, \"shipping in progress\")\n    {\n        require(\n            block.number >= currentBlock + product.lockPeriod,\n            \"Not allowed to cancel order\"\n        );\n        product.buyer = address(0);\n        product.stage = Stage.Initiate;\n        // currency.transfer(msg.sender, price);\n        payable(msg.sender).transfer(address(this).balance);\n        emit OrderCancel(msg.sender);\n    }\n\n    function updateShipment(string memory _trackingId)\n        external\n        onlyOwner\n        validStage(Stage.WaitForShipping, \"Invalid Stage\")\n    {\n        product.stage = Stage.Shipping;\n        product.trackingId = _trackingId;\n        emit ShipmentInprogress(product.trackingId);\n    }\n\n    function requestShippingDetail()\n        external\n        validStage(Stage.Shipping, \"Need shipment\")\n    {\n        Chainlink.Request memory req = buildChainlinkRequest(\n            jobId,\n            address(this),\n            this.fulfillShippingDetail.selector\n        );\n\n        req.add(\"trackingId\", product.trackingId);\n        bytes32 requestId = sendChainlinkRequestTo(oracle, req, oracleFee);\n        emit ChainlinkRequested(requestId);\n    }\n\n    function fulfillShippingDetail(bytes32 _requestId, bytes32 _deliveryStatus)\n        public\n        recordChainlinkFulfillment(_requestId)\n    {\n        product.deliveryStatus = _deliveryStatus.bytes32ToString();\n        if (product.deliveryStatus.compareStrings(\"Delivered\")) {\n            product.stage = Stage.Delivered;\n        }\n\n        emit ShipmentUpdated(_deliveryStatus);\n    }\n\n    function reclaimFund()\n        external\n        onlyOwner\n        validStage(Stage.Delivered, \"Invalid Stage\")\n    {\n        // currency.transfer(msg.sender, address(this).balance);\n        product.stage = Stage.End;\n        payable(msg.sender).transfer(address(this).balance);\n    }\n}\n",
  "sourcePath": "contracts/Escrow.sol",
  "type": "contract"
}