{
  "abi": [
    {
      "inputs": [],
      "stateMutability": "nonpayable",
      "type": "constructor"
    },
    {
      "anonymous": false,
      "inputs": [
        {
          "indexed": true,
          "internalType": "bytes32",
          "name": "id",
          "type": "bytes32"
        }
      ],
      "name": "ChainlinkCancelled",
      "type": "event"
    },
    {
      "anonymous": false,
      "inputs": [
        {
          "indexed": true,
          "internalType": "bytes32",
          "name": "id",
          "type": "bytes32"
        }
      ],
      "name": "ChainlinkFulfilled",
      "type": "event"
    },
    {
      "anonymous": false,
      "inputs": [
        {
          "indexed": true,
          "internalType": "bytes32",
          "name": "id",
          "type": "bytes32"
        }
      ],
      "name": "ChainlinkRequested",
      "type": "event"
    },
    {
      "anonymous": false,
      "inputs": [
        {
          "indexed": true,
          "internalType": "address",
          "name": "_buyer",
          "type": "address"
        }
      ],
      "name": "OrderCancel",
      "type": "event"
    },
    {
      "anonymous": false,
      "inputs": [
        {
          "indexed": false,
          "internalType": "string",
          "name": "trackingNo",
          "type": "string"
        }
      ],
      "name": "OrderCompleted",
      "type": "event"
    },
    {
      "anonymous": false,
      "inputs": [
        {
          "indexed": true,
          "internalType": "address",
          "name": "_buyer",
          "type": "address"
        }
      ],
      "name": "OrderInitiate",
      "type": "event"
    },
    {
      "anonymous": false,
      "inputs": [
        {
          "indexed": true,
          "internalType": "address",
          "name": "previousOwner",
          "type": "address"
        },
        {
          "indexed": true,
          "internalType": "address",
          "name": "newOwner",
          "type": "address"
        }
      ],
      "name": "OwnershipTransferred",
      "type": "event"
    },
    {
      "anonymous": false,
      "inputs": [
        {
          "indexed": false,
          "internalType": "string",
          "name": "trackingNo",
          "type": "string"
        }
      ],
      "name": "ShipmentInprogress",
      "type": "event"
    },
    {
      "anonymous": false,
      "inputs": [
        {
          "indexed": false,
          "internalType": "bytes32",
          "name": "status",
          "type": "bytes32"
        }
      ],
      "name": "ShipmentUpdated",
      "type": "event"
    },
    {
      "inputs": [],
      "name": "cancelOrder",
      "outputs": [],
      "stateMutability": "nonpayable",
      "type": "function"
    },
    {
      "inputs": [],
      "name": "currentBlock",
      "outputs": [
        {
          "internalType": "uint256",
          "name": "",
          "type": "uint256"
        }
      ],
      "stateMutability": "view",
      "type": "function"
    },
    {
      "inputs": [
        {
          "internalType": "bytes32",
          "name": "_requestId",
          "type": "bytes32"
        },
        {
          "internalType": "bytes32",
          "name": "_deliveryStatus",
          "type": "bytes32"
        }
      ],
      "name": "fulfillShippingDetail",
      "outputs": [],
      "stateMutability": "nonpayable",
      "type": "function"
    },
    {
      "inputs": [
        {
          "internalType": "address",
          "name": "_link",
          "type": "address"
        },
        {
          "internalType": "address",
          "name": "_oracle",
          "type": "address"
        },
        {
          "internalType": "string",
          "name": "_jobId",
          "type": "string"
        },
        {
          "internalType": "uint256",
          "name": "_id",
          "type": "uint256"
        },
        {
          "internalType": "string",
          "name": "_name",
          "type": "string"
        },
        {
          "internalType": "address",
          "name": "_seller",
          "type": "address"
        },
        {
          "internalType": "uint256",
          "name": "_price",
          "type": "uint256"
        },
        {
          "internalType": "uint256",
          "name": "_lockPeriod",
          "type": "uint256"
        },
        {
          "internalType": "uint256",
          "name": "_oracleFee",
          "type": "uint256"
        }
      ],
      "name": "init",
      "outputs": [],
      "stateMutability": "nonpayable",
      "type": "function"
    },
    {
      "inputs": [],
      "name": "isAbleTocancelOrder",
      "outputs": [
        {
          "internalType": "bool",
          "name": "",
          "type": "bool"
        }
      ],
      "stateMutability": "view",
      "type": "function"
    },
    {
      "inputs": [],
      "name": "order",
      "outputs": [],
      "stateMutability": "payable",
      "type": "function"
    },
    {
      "inputs": [],
      "name": "owner",
      "outputs": [
        {
          "internalType": "address",
          "name": "",
          "type": "address"
        }
      ],
      "stateMutability": "view",
      "type": "function"
    },
    {
      "inputs": [],
      "name": "product",
      "outputs": [
        {
          "internalType": "uint256",
          "name": "id",
          "type": "uint256"
        },
        {
          "internalType": "string",
          "name": "name",
          "type": "string"
        },
        {
          "internalType": "uint256",
          "name": "price",
          "type": "uint256"
        },
        {
          "internalType": "address",
          "name": "owner",
          "type": "address"
        },
        {
          "internalType": "address",
          "name": "buyer",
          "type": "address"
        },
        {
          "internalType": "bool",
          "name": "purchased",
          "type": "bool"
        },
        {
          "internalType": "string",
          "name": "productURI",
          "type": "string"
        },
        {
          "internalType": "string",
          "name": "trackingId",
          "type": "string"
        },
        {
          "internalType": "string",
          "name": "deliveryStatus",
          "type": "string"
        },
        {
          "internalType": "enum Escrow.Stage",
          "name": "stage",
          "type": "uint8"
        },
        {
          "internalType": "uint256",
          "name": "lockPeriod",
          "type": "uint256"
        }
      ],
      "stateMutability": "view",
      "type": "function"
    },
    {
      "inputs": [],
      "name": "reclaimFund",
      "outputs": [],
      "stateMutability": "nonpayable",
      "type": "function"
    },
    {
      "inputs": [],
      "name": "renounceOwnership",
      "outputs": [],
      "stateMutability": "nonpayable",
      "type": "function"
    },
    {
      "inputs": [],
      "name": "requestShippingDetail",
      "outputs": [],
      "stateMutability": "nonpayable",
      "type": "function"
    },
    {
      "inputs": [
        {
          "internalType": "string",
          "name": "_productURI",
          "type": "string"
        }
      ],
      "name": "setProductURI",
      "outputs": [],
      "stateMutability": "nonpayable",
      "type": "function"
    },
    {
      "inputs": [
        {
          "internalType": "address",
          "name": "newOwner",
          "type": "address"
        }
      ],
      "name": "transferOwnership",
      "outputs": [],
      "stateMutability": "nonpayable",
      "type": "function"
    },
    {
      "inputs": [
        {
          "internalType": "string",
          "name": "_trackingId",
          "type": "string"
        }
      ],
      "name": "updateShipment",
      "outputs": [],
      "stateMutability": "nonpayable",
      "type": "function"
    }
  ],
  "bytecode": "6080604052600160045534801561001557600080fd5b5061001f33610036565b600a80546001600160a01b03191633179055610088565b600680546001600160a01b038381166001600160a01b0319831681179093556040519116919082907f8be0079c531659141344cd1fd0a4f28419497f9722a3daafe3b4186f6b6457e090600090a35050565b611f21806100976000396000f3fe6080604052600436106100dd5760003560e01c8063715018a61161007f578063bf15071d11610059578063bf15071d1461020a578063bf9ce95214610212578063e12ed13c1461023e578063f2fde38b1461026257600080fd5b8063715018a6146101ad5780638da5cb5b146101c2578063959c1ea8146101ea57600080fd5b8063366e8e52116100bb578063366e8e521461014e57806350737055146101635780636a816548146101835780636b827cd41461019857600080fd5b806309d99f67146100e2578063168aec361461010457806316de96ab14610124575b600080fd5b3480156100ee57600080fd5b506101026100fd3660046117a3565b610282565b005b34801561011057600080fd5b5061010261011f3660046118a6565b61053c565b34801561013057600080fd5b506101396106a2565b60405190151581526020015b60405180910390f35b34801561015a57600080fd5b506101026106de565b34801561016f57600080fd5b5061010261017e366004611963565b6107a8565b34801561018f57600080fd5b50610102610884565b3480156101a457600080fd5b50610102610993565b3480156101b957600080fd5b50610102610b23565b3480156101ce57600080fd5b506006546040516001600160a01b039091168152602001610145565b3480156101f657600080fd5b50610102610205366004611963565b610b59565b610102610b9a565b34801561021e57600080fd5b50610227610cf4565b6040516101459b9a99989796959493929190611a06565b34801561024a57600080fd5b50610254600b5481565b604051908152602001610145565b34801561026e57600080fd5b5061010261027d366004611abf565b610f73565b60008281526005602052604090205482906001600160a01b031633146103005760405162461bcd60e51b815260206004820152602860248201527f536f75726365206d75737420626520746865206f7261636c65206f6620746865604482015267081c995c5d595cdd60c21b60648201526084015b60405180910390fd5b60008181526005602052604080822080546001600160a01b03191690555182917f7cc135e0cebb02c3480ae5d74d377283180a2601f8f644edf7987b009316c63a91a2604051639201de5560e01b81526004810183905273__strings_______________________________90639201de559060240160006040518083038186803b15801561038e57600080fd5b505af41580156103a2573d6000803e3d6000fd5b505050506040513d6000823e601f3d908101601f191682016040526103ca9190810190611ada565b80516103de916013916020909101906116cf565b50601380546103ec90611b48565b80601f016020809104026020016040519081016040528092919081815260200182805461041890611b48565b80156104655780601f1061043a57610100808354040283529160200191610465565b820191906000526020600020905b81548152906001019060200180831161044857829003601f168201915b5050604051635f69a5dd60e11b815273__strings_______________________________9463bed34bba94506104a093509150600401611b7d565b60206040518083038186803b1580156104b857600080fd5b505af41580156104cc573d6000803e3d6000fd5b505050506040513d601f19601f820116820180604052508101906104f09190611bbb565b15610503576014805460ff191660031790555b6040518281527f65fb20badd0fcfd3bf3ba0ca9bfe4ec522640041a07decd17f1be1fb0ead4f4a906020015b60405180910390a1505050565b600a546001600160a01b031633146105825760405162461bcd60e51b81526020600482015260096024820152682327a92124a22222a760b91b60448201526064016102f7565b600280546001600160a01b0319166001600160a01b038b161790556105a684610f73565b600880546001600160a01b0319166001600160a01b038a161790556040516319f6a32560e31b815273__strings_______________________________9063cfb51928906105f8908a90600401611bdd565b60206040518083038186803b15801561061057600080fd5b505af4158015610624573d6000803e3d6000fd5b505050506040513d601f19601f820116820180604052508101906106489190611bf0565b6009556007819055600c869055845161066890600d9060208801906116cf565b50506015556014805460ff19169055600f80546001600160a01b0319166001600160a01b039390931692909217909155600e555050505050565b601554600b546000916106b491611c1f565b43101580156106d95750600160145460ff1660048111156106d7576106d76119f0565b145b905090565b6006546001600160a01b031633146107085760405162461bcd60e51b81526004016102f790611c37565b60408051808201909152600d81526c496e76616c696420537461676560981b60208201526003908160145460ff166004811115610747576107476119f0565b1481906107675760405162461bcd60e51b81526004016102f79190611bdd565b5060148054600460ff1990911617905560405133904780156108fc02916000818181858888f193505050501580156107a3573d6000803e3d6000fd5b505050565b6006546001600160a01b031633146107d25760405162461bcd60e51b81526004016102f790611c37565b60408051808201909152600d81526c496e76616c696420537461676560981b60208201526001908160145460ff166004811115610811576108116119f0565b1481906108315760405162461bcd60e51b81526004016102f79190611bdd565b506014805460ff1916600217905582516108529060129060208601906116cf565b506040517f1862cf7a0e12bac162f518f43c2f50df187e89045899a7c015c1d61d9880a11b9061052f90601290611c6c565b6010546001600160a01b031633146108cb5760405162461bcd60e51b815260206004820152600a60248201526927b7363c90213abcb2b960b11b60448201526064016102f7565b6108d36106a2565b61091f5760405162461bcd60e51b815260206004820152601b60248201527f4e6f7420616c6c6f77656420746f2063616e63656c206f72646572000000000060448201526064016102f7565b601080546001600160a01b03191690556014805460ff1916905560405133904780156108fc02916000818181858888f19350505050158015610965573d6000803e3d6000fd5b5060405133907f393629f15e859a19530bab9675f9d39f0f57889f19f883bc5be3533c4a2c9ea890600090a2565b60408051808201909152600d81526c13995959081cda1a5c1b595b9d609a1b60208201526002908160145460ff1660048111156109d2576109d26119f0565b1481906109f25760405162461bcd60e51b81526004016102f79190611bdd565b506000610a09600954306309d99f6760e01b61100e565b9050610acf6040518060400160405280600a8152602001691d1c9858dada5b99d25960b21b815250600c6006018054610a4190611b48565b80601f0160208091040260200160405190810160405280929190818152602001828054610a6d90611b48565b8015610aba5780601f10610a8f57610100808354040283529160200191610aba565b820191906000526020600020905b815481529060010190602001808311610a9d57829003601f168201915b5050505050836110339092919063ffffffff16565b600854600754600091610aef916001600160a01b03909116908490611051565b60405190915081907fb5e6e01e79f91267dc17b4e6314d5d4d03593d2ceee0fbb452b750bd70ea5af990600090a250505050565b6006546001600160a01b03163314610b4d5760405162461bcd60e51b81526004016102f790611c37565b610b576000611070565b565b6006546001600160a01b03163314610b835760405162461bcd60e51b81526004016102f790611c37565b8051610b969060119060208401906116cf565b5050565b60408051808201909152601481527320b63932b0b23c903430bb32903090313abcb2b960611b60208201526000908160145460ff166004811115610be057610be06119f0565b148190610c005760405162461bcd60e51b81526004016102f79190611bdd565b506006546001600160a01b0316331415610c5c5760405162461bcd60e51b815260206004820152601d60248201527f596f752063616e206e6f74206275792066726f6d20796f757273656c6600000060448201526064016102f7565b600e54341015610ca05760405162461bcd60e51b815260206004820152600f60248201526e139bdd08195b9bdd59da08199d5b99608a1b60448201526064016102f7565b6014805460ff1916600117905560108054336001600160a01b0319909116811790915543600b556040517fe4caeaef8e4f0c4880839ca47219351b38cf4116c082fd0baefc3008e4ba11a390600090a25050565b600c8054600d8054919291610d0890611b48565b80601f0160208091040260200160405190810160405280929190818152602001828054610d3490611b48565b8015610d815780601f10610d5657610100808354040283529160200191610d81565b820191906000526020600020905b815481529060010190602001808311610d6457829003601f168201915b50505050600283015460038401546004850154600586018054959693956001600160a01b03938416955092821693600160a01b90920460ff1692610dc490611b48565b80601f0160208091040260200160405190810160405280929190818152602001828054610df090611b48565b8015610e3d5780601f10610e1257610100808354040283529160200191610e3d565b820191906000526020600020905b815481529060010190602001808311610e2057829003601f168201915b505050505090806006018054610e5290611b48565b80601f0160208091040260200160405190810160405280929190818152602001828054610e7e90611b48565b8015610ecb5780601f10610ea057610100808354040283529160200191610ecb565b820191906000526020600020905b815481529060010190602001808311610eae57829003601f168201915b505050505090806007018054610ee090611b48565b80601f0160208091040260200160405190810160405280929190818152602001828054610f0c90611b48565b8015610f595780601f10610f2e57610100808354040283529160200191610f59565b820191906000526020600020905b815481529060010190602001808311610f3c57829003601f168201915b505050506008830154600990930154919260ff169190508b565b6006546001600160a01b03163314610f9d5760405162461bcd60e51b81526004016102f790611c37565b6001600160a01b0381166110025760405162461bcd60e51b815260206004820152602660248201527f4f776e61626c653a206e6577206f776e657220697320746865207a65726f206160448201526564647265737360d01b60648201526084016102f7565b61100b81611070565b50565b611016611753565b61101e611753565b61102a818686866110c2565b95945050505050565b608083015161104290836110ff565b60808301516107a390826110ff565b600061106884848460016320214ca360e11b611116565b949350505050565b600680546001600160a01b038381166001600160a01b0319831681179093556040519116919082907f8be0079c531659141344cd1fd0a4f28419497f9722a3daafe3b4186f6b6457e090600090a35050565b6110ca611753565b6110da8560800151610100611322565b50509183526001600160a01b031660208301526001600160e01b031916604082015290565b61110c826003835161138d565b6107a38282611461565b6004546040516bffffffffffffffffffffffff193060601b166020820152603481019190915260009060540160408051808303601f19018152918152815160209283012060045460608901526000818152600590935281832080546001600160a01b0319166001600160a01b038b16179055905190925082917fb5e6e01e79f91267dc17b4e6314d5d4d03593d2ceee0fbb452b750bd70ea5af991a2600082600080886000015189602001518a604001518b606001518a8d60800151600001516040516024016111ed989796959493929190611d14565b60408051601f198184030181529181526020820180516001600160e01b03166001600160e01b0319909416939093179092526002549151630200057560e51b81529092506001600160a01b0390911690634000aea090611255908a9089908690600401611d7c565b602060405180830381600087803b15801561126f57600080fd5b505af1158015611283573d6000803e3d6000fd5b505050506040513d601f19601f820116820180604052508101906112a79190611bbb565b6112ff5760405162461bcd60e51b815260206004820152602360248201527f756e61626c6520746f207472616e73666572416e6443616c6c20746f206f7261604482015262636c6560e81b60648201526084016102f7565b6001600460008282546113129190611c1f565b9091555091979650505050505050565b604080518082019091526060815260006020820152611342602083611da3565b1561136a57611352602083611da3565b61135d906020611dc5565b6113679083611c1f565b91505b506020808301829052604080518085526000815283019091019052815b92915050565b601781116113ae576113a88360e0600585901b16831761148f565b50505050565b60ff81116113d8576113cb836018611fe0600586901b161761148f565b506113a8838260016114b4565b61ffff8111611403576113f6836019611fe0600586901b161761148f565b506113a8838260026114b4565b63ffffffff81116114305761142383601a611fe0600586901b161761148f565b506113a8838260046114b4565b67ffffffffffffffff81116107a35761145483601b611fe0600586901b161761148f565b506113a8838260086114b4565b604080518082019091526060815260006020820152611488838460000151518485516114da565b9392505050565b60408051808201909152606081526000602082015261148883846000015151846115c4565b604080518082019091526060815260006020820152611068848560000151518585611620565b60408051808201909152606081526000602082015282518211156114fd57600080fd5b602085015161150c8386611c1f565b111561153f5761153f8561152f8760200151878661152a9190611c1f565b6116a1565b61153a906002611ddc565b6116b8565b60008086518051876020830101935080888701111561155e5787860182525b505050602084015b6020841061159e578051825261157d602083611c1f565b915061158a602082611c1f565b9050611597602085611dc5565b9350611566565b51815160001960208690036101000a019081169019919091161790525083949350505050565b604080518082019091526060815260006020820152836020015183106115f9576115f9848560200151600261153a9190611ddc565b835180516020858301018481535080851415611616576001810182525b5093949350505050565b60408051808201909152606081526000602082015260208501516116448584611c1f565b1115611658576116588561152f8685611c1f565b6000600161166884610100611edf565b6116729190611dc5565b90508551838682010185831982511617815250805184870111156116965783860181525b509495945050505050565b6000818311156116b2575081611387565b50919050565b81516116c48383611322565b506113a88382611461565b8280546116db90611b48565b90600052602060002090601f0160209004810192826116fd5760008555611743565b82601f1061171657805160ff1916838001178555611743565b82800160010185558215611743579182015b82811115611743578251825591602001919060010190611728565b5061174f92915061178e565b5090565b6040805160a0810182526000808252602080830182905282840182905260608084018390528451808601909552845283015290608082015290565b5b8082111561174f576000815560010161178f565b600080604083850312156117b657600080fd5b50508035926020909101359150565b80356001600160a01b03811681146117dc57600080fd5b919050565b634e487b7160e01b600052604160045260246000fd5b604051601f8201601f1916810167ffffffffffffffff81118282101715611820576118206117e1565b604052919050565b600067ffffffffffffffff821115611842576118426117e1565b50601f01601f191660200190565b600082601f83011261186157600080fd5b813561187461186f82611828565b6117f7565b81815284602083860101111561188957600080fd5b816020850160208301376000918101602001919091529392505050565b60008060008060008060008060006101208a8c0312156118c557600080fd5b6118ce8a6117c5565b98506118dc60208b016117c5565b975060408a013567ffffffffffffffff808211156118f957600080fd5b6119058d838e01611850565b985060608c0135975060808c013591508082111561192257600080fd5b5061192f8c828d01611850565b95505061193e60a08b016117c5565b935060c08a0135925060e08a013591506101008a013590509295985092959850929598565b60006020828403121561197557600080fd5b813567ffffffffffffffff81111561198c57600080fd5b61106884828501611850565b60005b838110156119b357818101518382015260200161199b565b838111156113a85750506000910152565b600081518084526119dc816020860160208601611998565b601f01601f19169290920160200192915050565b634e487b7160e01b600052602160045260246000fd5b60006101608d8352806020840152611a208184018e6119c4565b604084018d90526001600160a01b038c811660608601528b16608085015289151560a085015283810360c08501529050611a5a81896119c4565b905082810360e0840152611a6e81886119c4565b9050828103610100840152611a8381876119c4565b91505060058410611aa457634e487b7160e01b600052602160045260246000fd5b61012082019390935261014001529998505050505050505050565b600060208284031215611ad157600080fd5b611488826117c5565b600060208284031215611aec57600080fd5b815167ffffffffffffffff811115611b0357600080fd5b8201601f81018413611b1457600080fd5b8051611b2261186f82611828565b818152856020838501011115611b3757600080fd5b61102a826020830160208601611998565b600181811c90821680611b5c57607f821691505b602082108114156116b257634e487b7160e01b600052602260045260246000fd5b604081526000611b9060408301846119c4565b8281036020840152600981526811195b1a5d995c995960ba1b60208201526040810191505092915050565b600060208284031215611bcd57600080fd5b8151801515811461148857600080fd5b60208152600061148860208301846119c4565b600060208284031215611c0257600080fd5b5051919050565b634e487b7160e01b600052601160045260246000fd5b60008219821115611c3257611c32611c09565b500190565b6020808252818101527f4f776e61626c653a2063616c6c6572206973206e6f7420746865206f776e6572604082015260600190565b600060208083526000845481600182811c915080831680611c8e57607f831692505b858310811415611cac57634e487b7160e01b85526022600452602485fd5b878601838152602001818015611cc95760018114611cda57611d05565b60ff19861682528782019650611d05565b60008b81526020902060005b86811015611cff57815484820152908501908901611ce6565b83019750505b50949998505050505050505050565b6001600160a01b0389811682526020820189905260408201889052861660608201526001600160e01b03198516608082015260a0810184905260c0810183905261010060e08201819052600090611d6d838201856119c4565b9b9a5050505050505050505050565b60018060a01b038416815282602082015260606040820152600061102a60608301846119c4565b600082611dc057634e487b7160e01b600052601260045260246000fd5b500690565b600082821015611dd757611dd7611c09565b500390565b6000816000190483118215151615611df657611df6611c09565b500290565b600181815b80851115611e36578160001904821115611e1c57611e1c611c09565b80851615611e2957918102915b93841c9390800290611e00565b509250929050565b600082611e4d57506001611387565b81611e5a57506000611387565b8160018114611e705760028114611e7a57611e96565b6001915050611387565b60ff841115611e8b57611e8b611c09565b50506001821b611387565b5060208310610133831016604e8410600b8410161715611eb9575081810a611387565b611ec38383611dfb565b8060001904821115611ed757611ed7611c09565b029392505050565b60006114888383611e3e56fea2646970667358221220b46e0f3787f98e23baaf70ec480b6daef792372ebd07027b8e34c44b6c64267164736f6c63430008090033",
  "bytecodeSha1": "9c49088594d2f5daf79046e5ba3b81f68895f42d",
  "compiler": {
    "evm_version": "istanbul",
    "optimizer": {
      "enabled": true,
      "runs": 200
    },
    "version": "0.8.9+commit.e5eed63a"
  },
  "contractName": "Escrow",
  "deployedBytecode": "6080604052600436106100dd5760003560e01c8063715018a61161007f578063bf15071d11610059578063bf15071d1461020a578063bf9ce95214610212578063e12ed13c1461023e578063f2fde38b1461026257600080fd5b8063715018a6146101ad5780638da5cb5b146101c2578063959c1ea8146101ea57600080fd5b8063366e8e52116100bb578063366e8e521461014e57806350737055146101635780636a816548146101835780636b827cd41461019857600080fd5b806309d99f67146100e2578063168aec361461010457806316de96ab14610124575b600080fd5b3480156100ee57600080fd5b506101026100fd3660046117a3565b610282565b005b34801561011057600080fd5b5061010261011f3660046118a6565b61053c565b34801561013057600080fd5b506101396106a2565b60405190151581526020015b60405180910390f35b34801561015a57600080fd5b506101026106de565b34801561016f57600080fd5b5061010261017e366004611963565b6107a8565b34801561018f57600080fd5b50610102610884565b3480156101a457600080fd5b50610102610993565b3480156101b957600080fd5b50610102610b23565b3480156101ce57600080fd5b506006546040516001600160a01b039091168152602001610145565b3480156101f657600080fd5b50610102610205366004611963565b610b59565b610102610b9a565b34801561021e57600080fd5b50610227610cf4565b6040516101459b9a99989796959493929190611a06565b34801561024a57600080fd5b50610254600b5481565b604051908152602001610145565b34801561026e57600080fd5b5061010261027d366004611abf565b610f73565b60008281526005602052604090205482906001600160a01b031633146103005760405162461bcd60e51b815260206004820152602860248201527f536f75726365206d75737420626520746865206f7261636c65206f6620746865604482015267081c995c5d595cdd60c21b60648201526084015b60405180910390fd5b60008181526005602052604080822080546001600160a01b03191690555182917f7cc135e0cebb02c3480ae5d74d377283180a2601f8f644edf7987b009316c63a91a2604051639201de5560e01b81526004810183905273__$aadc688bcea560502e0213413fe0dcbaa2$__90639201de559060240160006040518083038186803b15801561038e57600080fd5b505af41580156103a2573d6000803e3d6000fd5b505050506040513d6000823e601f3d908101601f191682016040526103ca9190810190611ada565b80516103de916013916020909101906116cf565b50601380546103ec90611b48565b80601f016020809104026020016040519081016040528092919081815260200182805461041890611b48565b80156104655780601f1061043a57610100808354040283529160200191610465565b820191906000526020600020905b81548152906001019060200180831161044857829003601f168201915b5050604051635f69a5dd60e11b815273__$aadc688bcea560502e0213413fe0dcbaa2$__9463bed34bba94506104a093509150600401611b7d565b60206040518083038186803b1580156104b857600080fd5b505af41580156104cc573d6000803e3d6000fd5b505050506040513d601f19601f820116820180604052508101906104f09190611bbb565b15610503576014805460ff191660031790555b6040518281527f65fb20badd0fcfd3bf3ba0ca9bfe4ec522640041a07decd17f1be1fb0ead4f4a906020015b60405180910390a1505050565b600a546001600160a01b031633146105825760405162461bcd60e51b81526020600482015260096024820152682327a92124a22222a760b91b60448201526064016102f7565b600280546001600160a01b0319166001600160a01b038b161790556105a684610f73565b600880546001600160a01b0319166001600160a01b038a161790556040516319f6a32560e31b815273__$aadc688bcea560502e0213413fe0dcbaa2$__9063cfb51928906105f8908a90600401611bdd565b60206040518083038186803b15801561061057600080fd5b505af4158015610624573d6000803e3d6000fd5b505050506040513d601f19601f820116820180604052508101906106489190611bf0565b6009556007819055600c869055845161066890600d9060208801906116cf565b50506015556014805460ff19169055600f80546001600160a01b0319166001600160a01b039390931692909217909155600e555050505050565b601554600b546000916106b491611c1f565b43101580156106d95750600160145460ff1660048111156106d7576106d76119f0565b145b905090565b6006546001600160a01b031633146107085760405162461bcd60e51b81526004016102f790611c37565b60408051808201909152600d81526c496e76616c696420537461676560981b60208201526003908160145460ff166004811115610747576107476119f0565b1481906107675760405162461bcd60e51b81526004016102f79190611bdd565b5060148054600460ff1990911617905560405133904780156108fc02916000818181858888f193505050501580156107a3573d6000803e3d6000fd5b505050565b6006546001600160a01b031633146107d25760405162461bcd60e51b81526004016102f790611c37565b60408051808201909152600d81526c496e76616c696420537461676560981b60208201526001908160145460ff166004811115610811576108116119f0565b1481906108315760405162461bcd60e51b81526004016102f79190611bdd565b506014805460ff1916600217905582516108529060129060208601906116cf565b506040517f1862cf7a0e12bac162f518f43c2f50df187e89045899a7c015c1d61d9880a11b9061052f90601290611c6c565b6010546001600160a01b031633146108cb5760405162461bcd60e51b815260206004820152600a60248201526927b7363c90213abcb2b960b11b60448201526064016102f7565b6108d36106a2565b61091f5760405162461bcd60e51b815260206004820152601b60248201527f4e6f7420616c6c6f77656420746f2063616e63656c206f72646572000000000060448201526064016102f7565b601080546001600160a01b03191690556014805460ff1916905560405133904780156108fc02916000818181858888f19350505050158015610965573d6000803e3d6000fd5b5060405133907f393629f15e859a19530bab9675f9d39f0f57889f19f883bc5be3533c4a2c9ea890600090a2565b60408051808201909152600d81526c13995959081cda1a5c1b595b9d609a1b60208201526002908160145460ff1660048111156109d2576109d26119f0565b1481906109f25760405162461bcd60e51b81526004016102f79190611bdd565b506000610a09600954306309d99f6760e01b61100e565b9050610acf6040518060400160405280600a8152602001691d1c9858dada5b99d25960b21b815250600c6006018054610a4190611b48565b80601f0160208091040260200160405190810160405280929190818152602001828054610a6d90611b48565b8015610aba5780601f10610a8f57610100808354040283529160200191610aba565b820191906000526020600020905b815481529060010190602001808311610a9d57829003601f168201915b5050505050836110339092919063ffffffff16565b600854600754600091610aef916001600160a01b03909116908490611051565b60405190915081907fb5e6e01e79f91267dc17b4e6314d5d4d03593d2ceee0fbb452b750bd70ea5af990600090a250505050565b6006546001600160a01b03163314610b4d5760405162461bcd60e51b81526004016102f790611c37565b610b576000611070565b565b6006546001600160a01b03163314610b835760405162461bcd60e51b81526004016102f790611c37565b8051610b969060119060208401906116cf565b5050565b60408051808201909152601481527320b63932b0b23c903430bb32903090313abcb2b960611b60208201526000908160145460ff166004811115610be057610be06119f0565b148190610c005760405162461bcd60e51b81526004016102f79190611bdd565b506006546001600160a01b0316331415610c5c5760405162461bcd60e51b815260206004820152601d60248201527f596f752063616e206e6f74206275792066726f6d20796f757273656c6600000060448201526064016102f7565b600e54341015610ca05760405162461bcd60e51b815260206004820152600f60248201526e139bdd08195b9bdd59da08199d5b99608a1b60448201526064016102f7565b6014805460ff1916600117905560108054336001600160a01b0319909116811790915543600b556040517fe4caeaef8e4f0c4880839ca47219351b38cf4116c082fd0baefc3008e4ba11a390600090a25050565b600c8054600d8054919291610d0890611b48565b80601f0160208091040260200160405190810160405280929190818152602001828054610d3490611b48565b8015610d815780601f10610d5657610100808354040283529160200191610d81565b820191906000526020600020905b815481529060010190602001808311610d6457829003601f168201915b50505050600283015460038401546004850154600586018054959693956001600160a01b03938416955092821693600160a01b90920460ff1692610dc490611b48565b80601f0160208091040260200160405190810160405280929190818152602001828054610df090611b48565b8015610e3d5780601f10610e1257610100808354040283529160200191610e3d565b820191906000526020600020905b815481529060010190602001808311610e2057829003601f168201915b505050505090806006018054610e5290611b48565b80601f0160208091040260200160405190810160405280929190818152602001828054610e7e90611b48565b8015610ecb5780601f10610ea057610100808354040283529160200191610ecb565b820191906000526020600020905b815481529060010190602001808311610eae57829003601f168201915b505050505090806007018054610ee090611b48565b80601f0160208091040260200160405190810160405280929190818152602001828054610f0c90611b48565b8015610f595780601f10610f2e57610100808354040283529160200191610f59565b820191906000526020600020905b815481529060010190602001808311610f3c57829003601f168201915b505050506008830154600990930154919260ff169190508b565b6006546001600160a01b03163314610f9d5760405162461bcd60e51b81526004016102f790611c37565b6001600160a01b0381166110025760405162461bcd60e51b815260206004820152602660248201527f4f776e61626c653a206e6577206f776e657220697320746865207a65726f206160448201526564647265737360d01b60648201526084016102f7565b61100b81611070565b50565b611016611753565b61101e611753565b61102a818686866110c2565b95945050505050565b608083015161104290836110ff565b60808301516107a390826110ff565b600061106884848460016320214ca360e11b611116565b949350505050565b600680546001600160a01b038381166001600160a01b0319831681179093556040519116919082907f8be0079c531659141344cd1fd0a4f28419497f9722a3daafe3b4186f6b6457e090600090a35050565b6110ca611753565b6110da8560800151610100611322565b50509183526001600160a01b031660208301526001600160e01b031916604082015290565b61110c826003835161138d565b6107a38282611461565b6004546040516bffffffffffffffffffffffff193060601b166020820152603481019190915260009060540160408051808303601f19018152918152815160209283012060045460608901526000818152600590935281832080546001600160a01b0319166001600160a01b038b16179055905190925082917fb5e6e01e79f91267dc17b4e6314d5d4d03593d2ceee0fbb452b750bd70ea5af991a2600082600080886000015189602001518a604001518b606001518a8d60800151600001516040516024016111ed989796959493929190611d14565b60408051601f198184030181529181526020820180516001600160e01b03166001600160e01b0319909416939093179092526002549151630200057560e51b81529092506001600160a01b0390911690634000aea090611255908a9089908690600401611d7c565b602060405180830381600087803b15801561126f57600080fd5b505af1158015611283573d6000803e3d6000fd5b505050506040513d601f19601f820116820180604052508101906112a79190611bbb565b6112ff5760405162461bcd60e51b815260206004820152602360248201527f756e61626c6520746f207472616e73666572416e6443616c6c20746f206f7261604482015262636c6560e81b60648201526084016102f7565b6001600460008282546113129190611c1f565b9091555091979650505050505050565b604080518082019091526060815260006020820152611342602083611da3565b1561136a57611352602083611da3565b61135d906020611dc5565b6113679083611c1f565b91505b506020808301829052604080518085526000815283019091019052815b92915050565b601781116113ae576113a88360e0600585901b16831761148f565b50505050565b60ff81116113d8576113cb836018611fe0600586901b161761148f565b506113a8838260016114b4565b61ffff8111611403576113f6836019611fe0600586901b161761148f565b506113a8838260026114b4565b63ffffffff81116114305761142383601a611fe0600586901b161761148f565b506113a8838260046114b4565b67ffffffffffffffff81116107a35761145483601b611fe0600586901b161761148f565b506113a8838260086114b4565b604080518082019091526060815260006020820152611488838460000151518485516114da565b9392505050565b60408051808201909152606081526000602082015261148883846000015151846115c4565b604080518082019091526060815260006020820152611068848560000151518585611620565b60408051808201909152606081526000602082015282518211156114fd57600080fd5b602085015161150c8386611c1f565b111561153f5761153f8561152f8760200151878661152a9190611c1f565b6116a1565b61153a906002611ddc565b6116b8565b60008086518051876020830101935080888701111561155e5787860182525b505050602084015b6020841061159e578051825261157d602083611c1f565b915061158a602082611c1f565b9050611597602085611dc5565b9350611566565b51815160001960208690036101000a019081169019919091161790525083949350505050565b604080518082019091526060815260006020820152836020015183106115f9576115f9848560200151600261153a9190611ddc565b835180516020858301018481535080851415611616576001810182525b5093949350505050565b60408051808201909152606081526000602082015260208501516116448584611c1f565b1115611658576116588561152f8685611c1f565b6000600161166884610100611edf565b6116729190611dc5565b90508551838682010185831982511617815250805184870111156116965783860181525b509495945050505050565b6000818311156116b2575081611387565b50919050565b81516116c48383611322565b506113a88382611461565b8280546116db90611b48565b90600052602060002090601f0160209004810192826116fd5760008555611743565b82601f1061171657805160ff1916838001178555611743565b82800160010185558215611743579182015b82811115611743578251825591602001919060010190611728565b5061174f92915061178e565b5090565b6040805160a0810182526000808252602080830182905282840182905260608084018390528451808601909552845283015290608082015290565b5b8082111561174f576000815560010161178f565b600080604083850312156117b657600080fd5b50508035926020909101359150565b80356001600160a01b03811681146117dc57600080fd5b919050565b634e487b7160e01b600052604160045260246000fd5b604051601f8201601f1916810167ffffffffffffffff81118282101715611820576118206117e1565b604052919050565b600067ffffffffffffffff821115611842576118426117e1565b50601f01601f191660200190565b600082601f83011261186157600080fd5b813561187461186f82611828565b6117f7565b81815284602083860101111561188957600080fd5b816020850160208301376000918101602001919091529392505050565b60008060008060008060008060006101208a8c0312156118c557600080fd5b6118ce8a6117c5565b98506118dc60208b016117c5565b975060408a013567ffffffffffffffff808211156118f957600080fd5b6119058d838e01611850565b985060608c0135975060808c013591508082111561192257600080fd5b5061192f8c828d01611850565b95505061193e60a08b016117c5565b935060c08a0135925060e08a013591506101008a013590509295985092959850929598565b60006020828403121561197557600080fd5b813567ffffffffffffffff81111561198c57600080fd5b61106884828501611850565b60005b838110156119b357818101518382015260200161199b565b838111156113a85750506000910152565b600081518084526119dc816020860160208601611998565b601f01601f19169290920160200192915050565b634e487b7160e01b600052602160045260246000fd5b60006101608d8352806020840152611a208184018e6119c4565b604084018d90526001600160a01b038c811660608601528b16608085015289151560a085015283810360c08501529050611a5a81896119c4565b905082810360e0840152611a6e81886119c4565b9050828103610100840152611a8381876119c4565b91505060058410611aa457634e487b7160e01b600052602160045260246000fd5b61012082019390935261014001529998505050505050505050565b600060208284031215611ad157600080fd5b611488826117c5565b600060208284031215611aec57600080fd5b815167ffffffffffffffff811115611b0357600080fd5b8201601f81018413611b1457600080fd5b8051611b2261186f82611828565b818152856020838501011115611b3757600080fd5b61102a826020830160208601611998565b600181811c90821680611b5c57607f821691505b602082108114156116b257634e487b7160e01b600052602260045260246000fd5b604081526000611b9060408301846119c4565b8281036020840152600981526811195b1a5d995c995960ba1b60208201526040810191505092915050565b600060208284031215611bcd57600080fd5b8151801515811461148857600080fd5b60208152600061148860208301846119c4565b600060208284031215611c0257600080fd5b5051919050565b634e487b7160e01b600052601160045260246000fd5b60008219821115611c3257611c32611c09565b500190565b6020808252818101527f4f776e61626c653a2063616c6c6572206973206e6f7420746865206f776e6572604082015260600190565b600060208083526000845481600182811c915080831680611c8e57607f831692505b858310811415611cac57634e487b7160e01b85526022600452602485fd5b878601838152602001818015611cc95760018114611cda57611d05565b60ff19861682528782019650611d05565b60008b81526020902060005b86811015611cff57815484820152908501908901611ce6565b83019750505b50949998505050505050505050565b6001600160a01b0389811682526020820189905260408201889052861660608201526001600160e01b03198516608082015260a0810184905260c0810183905261010060e08201819052600090611d6d838201856119c4565b9b9a5050505050505050505050565b60018060a01b038416815282602082015260606040820152600061102a60608301846119c4565b600082611dc057634e487b7160e01b600052601260045260246000fd5b500690565b600082821015611dd757611dd7611c09565b500390565b6000816000190483118215151615611df657611df6611c09565b500290565b600181815b80851115611e36578160001904821115611e1c57611e1c611c09565b80851615611e2957918102915b93841c9390800290611e00565b509250929050565b600082611e4d57506001611387565b81611e5a57506000611387565b8160018114611e705760028114611e7a57611e96565b6001915050611387565b60ff841115611e8b57611e8b611c09565b50506001821b611387565b5060208310610133831016604e8410600b8410161715611eb9575081810a611387565b611ec38383611dfb565b8060001904821115611ed757611ed7611c09565b029392505050565b60006114888383611e3e56fea2646970667358221220b46e0f3787f98e23baaf70ec480b6daef792372ebd07027b8e34c44b6c64267164736f6c63430008090033",
  "language": "Solidity",
  "natspec": {
    "kind": "dev",
    "methods": {
      "owner()": {
        "details": "Returns the address of the current owner."
      },
      "renounceOwnership()": {
        "details": "Leaves the contract without owner. It will not be possible to call `onlyOwner` functions anymore. Can only be called by the current owner. NOTE: Renouncing ownership will leave the contract without an owner, thereby removing any functionality that is only available to the owner."
      },
      "transferOwnership(address)": {
        "details": "Transfers ownership of the contract to a new account (`newOwner`). Can only be called by the current owner."
      }
    },
    "version": 1
  },
  "opcodes": "PUSH1 0x80 PUSH1 0x40 MSTORE PUSH1 0x4 CALLDATASIZE LT PUSH2 0xDD JUMPI PUSH1 0x0 CALLDATALOAD PUSH1 0xE0 SHR DUP1 PUSH4 0x715018A6 GT PUSH2 0x7F JUMPI DUP1 PUSH4 0xBF15071D GT PUSH2 0x59 JUMPI DUP1 PUSH4 0xBF15071D EQ PUSH2 0x20A JUMPI DUP1 PUSH4 0xBF9CE952 EQ PUSH2 0x212 JUMPI DUP1 PUSH4 0xE12ED13C EQ PUSH2 0x23E JUMPI DUP1 PUSH4 0xF2FDE38B EQ PUSH2 0x262 JUMPI PUSH1 0x0 DUP1 REVERT JUMPDEST DUP1 PUSH4 0x715018A6 EQ PUSH2 0x1AD JUMPI DUP1 PUSH4 0x8DA5CB5B EQ PUSH2 0x1C2 JUMPI DUP1 PUSH4 0x959C1EA8 EQ PUSH2 0x1EA JUMPI PUSH1 0x0 DUP1 REVERT JUMPDEST DUP1 PUSH4 0x366E8E52 GT PUSH2 0xBB JUMPI DUP1 PUSH4 0x366E8E52 EQ PUSH2 0x14E JUMPI DUP1 PUSH4 0x50737055 EQ PUSH2 0x163 JUMPI DUP1 PUSH4 0x6A816548 EQ PUSH2 0x183 JUMPI DUP1 PUSH4 0x6B827CD4 EQ PUSH2 0x198 JUMPI PUSH1 0x0 DUP1 REVERT JUMPDEST DUP1 PUSH4 0x9D99F67 EQ PUSH2 0xE2 JUMPI DUP1 PUSH4 0x168AEC36 EQ PUSH2 0x104 JUMPI DUP1 PUSH4 0x16DE96AB EQ PUSH2 0x124 JUMPI JUMPDEST PUSH1 0x0 DUP1 REVERT JUMPDEST CALLVALUE DUP1 ISZERO PUSH2 0xEE JUMPI PUSH1 0x0 DUP1 REVERT JUMPDEST POP PUSH2 0x102 PUSH2 0xFD CALLDATASIZE PUSH1 0x4 PUSH2 0x17A3 JUMP JUMPDEST PUSH2 0x282 JUMP JUMPDEST STOP JUMPDEST CALLVALUE DUP1 ISZERO PUSH2 0x110 JUMPI PUSH1 0x0 DUP1 REVERT JUMPDEST POP PUSH2 0x102 PUSH2 0x11F CALLDATASIZE PUSH1 0x4 PUSH2 0x18A6 JUMP JUMPDEST PUSH2 0x53C JUMP JUMPDEST CALLVALUE DUP1 ISZERO PUSH2 0x130 JUMPI PUSH1 0x0 DUP1 REVERT JUMPDEST POP PUSH2 0x139 PUSH2 0x6A2 JUMP JUMPDEST PUSH1 0x40 MLOAD SWAP1 ISZERO ISZERO DUP2 MSTORE PUSH1 0x20 ADD JUMPDEST PUSH1 0x40 MLOAD DUP1 SWAP2 SUB SWAP1 RETURN JUMPDEST CALLVALUE DUP1 ISZERO PUSH2 0x15A JUMPI PUSH1 0x0 DUP1 REVERT JUMPDEST POP PUSH2 0x102 PUSH2 0x6DE JUMP JUMPDEST CALLVALUE DUP1 ISZERO PUSH2 0x16F JUMPI PUSH1 0x0 DUP1 REVERT JUMPDEST POP PUSH2 0x102 PUSH2 0x17E CALLDATASIZE PUSH1 0x4 PUSH2 0x1963 JUMP JUMPDEST PUSH2 0x7A8 JUMP JUMPDEST CALLVALUE DUP1 ISZERO PUSH2 0x18F JUMPI PUSH1 0x0 DUP1 REVERT JUMPDEST POP PUSH2 0x102 PUSH2 0x884 JUMP JUMPDEST CALLVALUE DUP1 ISZERO PUSH2 0x1A4 JUMPI PUSH1 0x0 DUP1 REVERT JUMPDEST POP PUSH2 0x102 PUSH2 0x993 JUMP JUMPDEST CALLVALUE DUP1 ISZERO PUSH2 0x1B9 JUMPI PUSH1 0x0 DUP1 REVERT JUMPDEST POP PUSH2 0x102 PUSH2 0xB23 JUMP JUMPDEST CALLVALUE DUP1 ISZERO PUSH2 0x1CE JUMPI PUSH1 0x0 DUP1 REVERT JUMPDEST POP PUSH1 0x6 SLOAD PUSH1 0x40 MLOAD PUSH1 0x1 PUSH1 0x1 PUSH1 0xA0 SHL SUB SWAP1 SWAP2 AND DUP2 MSTORE PUSH1 0x20 ADD PUSH2 0x145 JUMP JUMPDEST CALLVALUE DUP1 ISZERO PUSH2 0x1F6 JUMPI PUSH1 0x0 DUP1 REVERT JUMPDEST POP PUSH2 0x102 PUSH2 0x205 CALLDATASIZE PUSH1 0x4 PUSH2 0x1963 JUMP JUMPDEST PUSH2 0xB59 JUMP JUMPDEST PUSH2 0x102 PUSH2 0xB9A JUMP JUMPDEST CALLVALUE DUP1 ISZERO PUSH2 0x21E JUMPI PUSH1 0x0 DUP1 REVERT JUMPDEST POP PUSH2 0x227 PUSH2 0xCF4 JUMP JUMPDEST PUSH1 0x40 MLOAD PUSH2 0x145 SWAP12 SWAP11 SWAP10 SWAP9 SWAP8 SWAP7 SWAP6 SWAP5 SWAP4 SWAP3 SWAP2 SWAP1 PUSH2 0x1A06 JUMP JUMPDEST CALLVALUE DUP1 ISZERO PUSH2 0x24A JUMPI PUSH1 0x0 DUP1 REVERT JUMPDEST POP PUSH2 0x254 PUSH1 0xB SLOAD DUP2 JUMP JUMPDEST PUSH1 0x40 MLOAD SWAP1 DUP2 MSTORE PUSH1 0x20 ADD PUSH2 0x145 JUMP JUMPDEST CALLVALUE DUP1 ISZERO PUSH2 0x26E JUMPI PUSH1 0x0 DUP1 REVERT JUMPDEST POP PUSH2 0x102 PUSH2 0x27D CALLDATASIZE PUSH1 0x4 PUSH2 0x1ABF JUMP JUMPDEST PUSH2 0xF73 JUMP JUMPDEST PUSH1 0x0 DUP3 DUP2 MSTORE PUSH1 0x5 PUSH1 0x20 MSTORE PUSH1 0x40 SWAP1 KECCAK256 SLOAD DUP3 SWAP1 PUSH1 0x1 PUSH1 0x1 PUSH1 0xA0 SHL SUB AND CALLER EQ PUSH2 0x300 JUMPI PUSH1 0x40 MLOAD PUSH3 0x461BCD PUSH1 0xE5 SHL DUP2 MSTORE PUSH1 0x20 PUSH1 0x4 DUP3 ADD MSTORE PUSH1 0x28 PUSH1 0x24 DUP3 ADD MSTORE PUSH32 0x536F75726365206D75737420626520746865206F7261636C65206F6620746865 PUSH1 0x44 DUP3 ADD MSTORE PUSH8 0x81C995C5D595CDD PUSH1 0xC2 SHL PUSH1 0x64 DUP3 ADD MSTORE PUSH1 0x84 ADD JUMPDEST PUSH1 0x40 MLOAD DUP1 SWAP2 SUB SWAP1 REVERT JUMPDEST PUSH1 0x0 DUP2 DUP2 MSTORE PUSH1 0x5 PUSH1 0x20 MSTORE PUSH1 0x40 DUP1 DUP3 KECCAK256 DUP1 SLOAD PUSH1 0x1 PUSH1 0x1 PUSH1 0xA0 SHL SUB NOT AND SWAP1 SSTORE MLOAD DUP3 SWAP2 PUSH32 0x7CC135E0CEBB02C3480AE5D74D377283180A2601F8F644EDF7987B009316C63A SWAP2 LOG2 PUSH1 0x40 MLOAD PUSH4 0x9201DE55 PUSH1 0xE0 SHL DUP2 MSTORE PUSH1 0x4 DUP2 ADD DUP4 SWAP1 MSTORE PUSH20 0x0 SWAP1 PUSH4 0x9201DE55 SWAP1 PUSH1 0x24 ADD PUSH1 0x0 PUSH1 0x40 MLOAD DUP1 DUP4 SUB DUP2 DUP7 DUP1 EXTCODESIZE ISZERO DUP1 ISZERO PUSH2 0x38E JUMPI PUSH1 0x0 DUP1 REVERT JUMPDEST POP GAS DELEGATECALL ISZERO DUP1 ISZERO PUSH2 0x3A2 JUMPI RETURNDATASIZE PUSH1 0x0 DUP1 RETURNDATACOPY RETURNDATASIZE PUSH1 0x0 REVERT JUMPDEST POP POP POP POP PUSH1 0x40 MLOAD RETURNDATASIZE PUSH1 0x0 DUP3 RETURNDATACOPY PUSH1 0x1F RETURNDATASIZE SWAP1 DUP2 ADD PUSH1 0x1F NOT AND DUP3 ADD PUSH1 0x40 MSTORE PUSH2 0x3CA SWAP2 SWAP1 DUP2 ADD SWAP1 PUSH2 0x1ADA JUMP JUMPDEST DUP1 MLOAD PUSH2 0x3DE SWAP2 PUSH1 0x13 SWAP2 PUSH1 0x20 SWAP1 SWAP2 ADD SWAP1 PUSH2 0x16CF JUMP JUMPDEST POP PUSH1 0x13 DUP1 SLOAD PUSH2 0x3EC SWAP1 PUSH2 0x1B48 JUMP JUMPDEST DUP1 PUSH1 0x1F ADD PUSH1 0x20 DUP1 SWAP2 DIV MUL PUSH1 0x20 ADD PUSH1 0x40 MLOAD SWAP1 DUP2 ADD PUSH1 0x40 MSTORE DUP1 SWAP3 SWAP2 SWAP1 DUP2 DUP2 MSTORE PUSH1 0x20 ADD DUP3 DUP1 SLOAD PUSH2 0x418 SWAP1 PUSH2 0x1B48 JUMP JUMPDEST DUP1 ISZERO PUSH2 0x465 JUMPI DUP1 PUSH1 0x1F LT PUSH2 0x43A JUMPI PUSH2 0x100 DUP1 DUP4 SLOAD DIV MUL DUP4 MSTORE SWAP2 PUSH1 0x20 ADD SWAP2 PUSH2 0x465 JUMP JUMPDEST DUP3 ADD SWAP2 SWAP1 PUSH1 0x0 MSTORE PUSH1 0x20 PUSH1 0x0 KECCAK256 SWAP1 JUMPDEST DUP2 SLOAD DUP2 MSTORE SWAP1 PUSH1 0x1 ADD SWAP1 PUSH1 0x20 ADD DUP1 DUP4 GT PUSH2 0x448 JUMPI DUP3 SWAP1 SUB PUSH1 0x1F AND DUP3 ADD SWAP2 JUMPDEST POP POP PUSH1 0x40 MLOAD PUSH4 0x5F69A5DD PUSH1 0xE1 SHL DUP2 MSTORE PUSH20 0x0 SWAP5 PUSH4 0xBED34BBA SWAP5 POP PUSH2 0x4A0 SWAP4 POP SWAP2 POP PUSH1 0x4 ADD PUSH2 0x1B7D JUMP JUMPDEST PUSH1 0x20 PUSH1 0x40 MLOAD DUP1 DUP4 SUB DUP2 DUP7 DUP1 EXTCODESIZE ISZERO DUP1 ISZERO PUSH2 0x4B8 JUMPI PUSH1 0x0 DUP1 REVERT JUMPDEST POP GAS DELEGATECALL ISZERO DUP1 ISZERO PUSH2 0x4CC JUMPI RETURNDATASIZE PUSH1 0x0 DUP1 RETURNDATACOPY RETURNDATASIZE PUSH1 0x0 REVERT JUMPDEST POP POP POP POP PUSH1 0x40 MLOAD RETURNDATASIZE PUSH1 0x1F NOT PUSH1 0x1F DUP3 ADD AND DUP3 ADD DUP1 PUSH1 0x40 MSTORE POP DUP2 ADD SWAP1 PUSH2 0x4F0 SWAP2 SWAP1 PUSH2 0x1BBB JUMP JUMPDEST ISZERO PUSH2 0x503 JUMPI PUSH1 0x14 DUP1 SLOAD PUSH1 0xFF NOT AND PUSH1 0x3 OR SWAP1 SSTORE JUMPDEST PUSH1 0x40 MLOAD DUP3 DUP2 MSTORE PUSH32 0x65FB20BADD0FCFD3BF3BA0CA9BFE4EC522640041A07DECD17F1BE1FB0EAD4F4A SWAP1 PUSH1 0x20 ADD JUMPDEST PUSH1 0x40 MLOAD DUP1 SWAP2 SUB SWAP1 LOG1 POP POP POP JUMP JUMPDEST PUSH1 0xA SLOAD PUSH1 0x1 PUSH1 0x1 PUSH1 0xA0 SHL SUB AND CALLER EQ PUSH2 0x582 JUMPI PUSH1 0x40 MLOAD PUSH3 0x461BCD PUSH1 0xE5 SHL DUP2 MSTORE PUSH1 0x20 PUSH1 0x4 DUP3 ADD MSTORE PUSH1 0x9 PUSH1 0x24 DUP3 ADD MSTORE PUSH9 0x2327A92124A22222A7 PUSH1 0xB9 SHL PUSH1 0x44 DUP3 ADD MSTORE PUSH1 0x64 ADD PUSH2 0x2F7 JUMP JUMPDEST PUSH1 0x2 DUP1 SLOAD PUSH1 0x1 PUSH1 0x1 PUSH1 0xA0 SHL SUB NOT AND PUSH1 0x1 PUSH1 0x1 PUSH1 0xA0 SHL SUB DUP12 AND OR SWAP1 SSTORE PUSH2 0x5A6 DUP5 PUSH2 0xF73 JUMP JUMPDEST PUSH1 0x8 DUP1 SLOAD PUSH1 0x1 PUSH1 0x1 PUSH1 0xA0 SHL SUB NOT AND PUSH1 0x1 PUSH1 0x1 PUSH1 0xA0 SHL SUB DUP11 AND OR SWAP1 SSTORE PUSH1 0x40 MLOAD PUSH4 0x19F6A325 PUSH1 0xE3 SHL DUP2 MSTORE PUSH20 0x0 SWAP1 PUSH4 0xCFB51928 SWAP1 PUSH2 0x5F8 SWAP1 DUP11 SWAP1 PUSH1 0x4 ADD PUSH2 0x1BDD JUMP JUMPDEST PUSH1 0x20 PUSH1 0x40 MLOAD DUP1 DUP4 SUB DUP2 DUP7 DUP1 EXTCODESIZE ISZERO DUP1 ISZERO PUSH2 0x610 JUMPI PUSH1 0x0 DUP1 REVERT JUMPDEST POP GAS DELEGATECALL ISZERO DUP1 ISZERO PUSH2 0x624 JUMPI RETURNDATASIZE PUSH1 0x0 DUP1 RETURNDATACOPY RETURNDATASIZE PUSH1 0x0 REVERT JUMPDEST POP POP POP POP PUSH1 0x40 MLOAD RETURNDATASIZE PUSH1 0x1F NOT PUSH1 0x1F DUP3 ADD AND DUP3 ADD DUP1 PUSH1 0x40 MSTORE POP DUP2 ADD SWAP1 PUSH2 0x648 SWAP2 SWAP1 PUSH2 0x1BF0 JUMP JUMPDEST PUSH1 0x9 SSTORE PUSH1 0x7 DUP2 SWAP1 SSTORE PUSH1 0xC DUP7 SWAP1 SSTORE DUP5 MLOAD PUSH2 0x668 SWAP1 PUSH1 0xD SWAP1 PUSH1 0x20 DUP9 ADD SWAP1 PUSH2 0x16CF JUMP JUMPDEST POP POP PUSH1 0x15 SSTORE PUSH1 0x14 DUP1 SLOAD PUSH1 0xFF NOT AND SWAP1 SSTORE PUSH1 0xF DUP1 SLOAD PUSH1 0x1 PUSH1 0x1 PUSH1 0xA0 SHL SUB NOT AND PUSH1 0x1 PUSH1 0x1 PUSH1 0xA0 SHL SUB SWAP4 SWAP1 SWAP4 AND SWAP3 SWAP1 SWAP3 OR SWAP1 SWAP2 SSTORE PUSH1 0xE SSTORE POP POP POP POP POP JUMP JUMPDEST PUSH1 0x15 SLOAD PUSH1 0xB SLOAD PUSH1 0x0 SWAP2 PUSH2 0x6B4 SWAP2 PUSH2 0x1C1F JUMP JUMPDEST NUMBER LT ISZERO DUP1 ISZERO PUSH2 0x6D9 JUMPI POP PUSH1 0x1 PUSH1 0x14 SLOAD PUSH1 0xFF AND PUSH1 0x4 DUP2 GT ISZERO PUSH2 0x6D7 JUMPI PUSH2 0x6D7 PUSH2 0x19F0 JUMP JUMPDEST EQ JUMPDEST SWAP1 POP SWAP1 JUMP JUMPDEST PUSH1 0x6 SLOAD PUSH1 0x1 PUSH1 0x1 PUSH1 0xA0 SHL SUB AND CALLER EQ PUSH2 0x708 JUMPI PUSH1 0x40 MLOAD PUSH3 0x461BCD PUSH1 0xE5 SHL DUP2 MSTORE PUSH1 0x4 ADD PUSH2 0x2F7 SWAP1 PUSH2 0x1C37 JUMP JUMPDEST PUSH1 0x40 DUP1 MLOAD DUP1 DUP3 ADD SWAP1 SWAP2 MSTORE PUSH1 0xD DUP2 MSTORE PUSH13 0x496E76616C6964205374616765 PUSH1 0x98 SHL PUSH1 0x20 DUP3 ADD MSTORE PUSH1 0x3 SWAP1 DUP2 PUSH1 0x14 SLOAD PUSH1 0xFF AND PUSH1 0x4 DUP2 GT ISZERO PUSH2 0x747 JUMPI PUSH2 0x747 PUSH2 0x19F0 JUMP JUMPDEST EQ DUP2 SWAP1 PUSH2 0x767 JUMPI PUSH1 0x40 MLOAD PUSH3 0x461BCD PUSH1 0xE5 SHL DUP2 MSTORE PUSH1 0x4 ADD PUSH2 0x2F7 SWAP2 SWAP1 PUSH2 0x1BDD JUMP JUMPDEST POP PUSH1 0x14 DUP1 SLOAD PUSH1 0x4 PUSH1 0xFF NOT SWAP1 SWAP2 AND OR SWAP1 SSTORE PUSH1 0x40 MLOAD CALLER SWAP1 SELFBALANCE DUP1 ISZERO PUSH2 0x8FC MUL SWAP2 PUSH1 0x0 DUP2 DUP2 DUP2 DUP6 DUP9 DUP9 CALL SWAP4 POP POP POP POP ISZERO DUP1 ISZERO PUSH2 0x7A3 JUMPI RETURNDATASIZE PUSH1 0x0 DUP1 RETURNDATACOPY RETURNDATASIZE PUSH1 0x0 REVERT JUMPDEST POP POP POP JUMP JUMPDEST PUSH1 0x6 SLOAD PUSH1 0x1 PUSH1 0x1 PUSH1 0xA0 SHL SUB AND CALLER EQ PUSH2 0x7D2 JUMPI PUSH1 0x40 MLOAD PUSH3 0x461BCD PUSH1 0xE5 SHL DUP2 MSTORE PUSH1 0x4 ADD PUSH2 0x2F7 SWAP1 PUSH2 0x1C37 JUMP JUMPDEST PUSH1 0x40 DUP1 MLOAD DUP1 DUP3 ADD SWAP1 SWAP2 MSTORE PUSH1 0xD DUP2 MSTORE PUSH13 0x496E76616C6964205374616765 PUSH1 0x98 SHL PUSH1 0x20 DUP3 ADD MSTORE PUSH1 0x1 SWAP1 DUP2 PUSH1 0x14 SLOAD PUSH1 0xFF AND PUSH1 0x4 DUP2 GT ISZERO PUSH2 0x811 JUMPI PUSH2 0x811 PUSH2 0x19F0 JUMP JUMPDEST EQ DUP2 SWAP1 PUSH2 0x831 JUMPI PUSH1 0x40 MLOAD PUSH3 0x461BCD PUSH1 0xE5 SHL DUP2 MSTORE PUSH1 0x4 ADD PUSH2 0x2F7 SWAP2 SWAP1 PUSH2 0x1BDD JUMP JUMPDEST POP PUSH1 0x14 DUP1 SLOAD PUSH1 0xFF NOT AND PUSH1 0x2 OR SWAP1 SSTORE DUP3 MLOAD PUSH2 0x852 SWAP1 PUSH1 0x12 SWAP1 PUSH1 0x20 DUP7 ADD SWAP1 PUSH2 0x16CF JUMP JUMPDEST POP PUSH1 0x40 MLOAD PUSH32 0x1862CF7A0E12BAC162F518F43C2F50DF187E89045899A7C015C1D61D9880A11B SWAP1 PUSH2 0x52F SWAP1 PUSH1 0x12 SWAP1 PUSH2 0x1C6C JUMP JUMPDEST PUSH1 0x10 SLOAD PUSH1 0x1 PUSH1 0x1 PUSH1 0xA0 SHL SUB AND CALLER EQ PUSH2 0x8CB JUMPI PUSH1 0x40 MLOAD PUSH3 0x461BCD PUSH1 0xE5 SHL DUP2 MSTORE PUSH1 0x20 PUSH1 0x4 DUP3 ADD MSTORE PUSH1 0xA PUSH1 0x24 DUP3 ADD MSTORE PUSH10 0x27B7363C90213ABCB2B9 PUSH1 0xB1 SHL PUSH1 0x44 DUP3 ADD MSTORE PUSH1 0x64 ADD PUSH2 0x2F7 JUMP JUMPDEST PUSH2 0x8D3 PUSH2 0x6A2 JUMP JUMPDEST PUSH2 0x91F JUMPI PUSH1 0x40 MLOAD PUSH3 0x461BCD PUSH1 0xE5 SHL DUP2 MSTORE PUSH1 0x20 PUSH1 0x4 DUP3 ADD MSTORE PUSH1 0x1B PUSH1 0x24 DUP3 ADD MSTORE PUSH32 0x4E6F7420616C6C6F77656420746F2063616E63656C206F726465720000000000 PUSH1 0x44 DUP3 ADD MSTORE PUSH1 0x64 ADD PUSH2 0x2F7 JUMP JUMPDEST PUSH1 0x10 DUP1 SLOAD PUSH1 0x1 PUSH1 0x1 PUSH1 0xA0 SHL SUB NOT AND SWAP1 SSTORE PUSH1 0x14 DUP1 SLOAD PUSH1 0xFF NOT AND SWAP1 SSTORE PUSH1 0x40 MLOAD CALLER SWAP1 SELFBALANCE DUP1 ISZERO PUSH2 0x8FC MUL SWAP2 PUSH1 0x0 DUP2 DUP2 DUP2 DUP6 DUP9 DUP9 CALL SWAP4 POP POP POP POP ISZERO DUP1 ISZERO PUSH2 0x965 JUMPI RETURNDATASIZE PUSH1 0x0 DUP1 RETURNDATACOPY RETURNDATASIZE PUSH1 0x0 REVERT JUMPDEST POP PUSH1 0x40 MLOAD CALLER SWAP1 PUSH32 0x393629F15E859A19530BAB9675F9D39F0F57889F19F883BC5BE3533C4A2C9EA8 SWAP1 PUSH1 0x0 SWAP1 LOG2 JUMP JUMPDEST PUSH1 0x40 DUP1 MLOAD DUP1 DUP3 ADD SWAP1 SWAP2 MSTORE PUSH1 0xD DUP2 MSTORE PUSH13 0x13995959081CDA1A5C1B595B9D PUSH1 0x9A SHL PUSH1 0x20 DUP3 ADD MSTORE PUSH1 0x2 SWAP1 DUP2 PUSH1 0x14 SLOAD PUSH1 0xFF AND PUSH1 0x4 DUP2 GT ISZERO PUSH2 0x9D2 JUMPI PUSH2 0x9D2 PUSH2 0x19F0 JUMP JUMPDEST EQ DUP2 SWAP1 PUSH2 0x9F2 JUMPI PUSH1 0x40 MLOAD PUSH3 0x461BCD PUSH1 0xE5 SHL DUP2 MSTORE PUSH1 0x4 ADD PUSH2 0x2F7 SWAP2 SWAP1 PUSH2 0x1BDD JUMP JUMPDEST POP PUSH1 0x0 PUSH2 0xA09 PUSH1 0x9 SLOAD ADDRESS PUSH4 0x9D99F67 PUSH1 0xE0 SHL PUSH2 0x100E JUMP JUMPDEST SWAP1 POP PUSH2 0xACF PUSH1 0x40 MLOAD DUP1 PUSH1 0x40 ADD PUSH1 0x40 MSTORE DUP1 PUSH1 0xA DUP2 MSTORE PUSH1 0x20 ADD PUSH10 0x1D1C9858DADA5B99D259 PUSH1 0xB2 SHL DUP2 MSTORE POP PUSH1 0xC PUSH1 0x6 ADD DUP1 SLOAD PUSH2 0xA41 SWAP1 PUSH2 0x1B48 JUMP JUMPDEST DUP1 PUSH1 0x1F ADD PUSH1 0x20 DUP1 SWAP2 DIV MUL PUSH1 0x20 ADD PUSH1 0x40 MLOAD SWAP1 DUP2 ADD PUSH1 0x40 MSTORE DUP1 SWAP3 SWAP2 SWAP1 DUP2 DUP2 MSTORE PUSH1 0x20 ADD DUP3 DUP1 SLOAD PUSH2 0xA6D SWAP1 PUSH2 0x1B48 JUMP JUMPDEST DUP1 ISZERO PUSH2 0xABA JUMPI DUP1 PUSH1 0x1F LT PUSH2 0xA8F JUMPI PUSH2 0x100 DUP1 DUP4 SLOAD DIV MUL DUP4 MSTORE SWAP2 PUSH1 0x20 ADD SWAP2 PUSH2 0xABA JUMP JUMPDEST DUP3 ADD SWAP2 SWAP1 PUSH1 0x0 MSTORE PUSH1 0x20 PUSH1 0x0 KECCAK256 SWAP1 JUMPDEST DUP2 SLOAD DUP2 MSTORE SWAP1 PUSH1 0x1 ADD SWAP1 PUSH1 0x20 ADD DUP1 DUP4 GT PUSH2 0xA9D JUMPI DUP3 SWAP1 SUB PUSH1 0x1F AND DUP3 ADD SWAP2 JUMPDEST POP POP POP POP POP DUP4 PUSH2 0x1033 SWAP1 SWAP3 SWAP2 SWAP1 PUSH4 0xFFFFFFFF AND JUMP JUMPDEST PUSH1 0x8 SLOAD PUSH1 0x7 SLOAD PUSH1 0x0 SWAP2 PUSH2 0xAEF SWAP2 PUSH1 0x1 PUSH1 0x1 PUSH1 0xA0 SHL SUB SWAP1 SWAP2 AND SWAP1 DUP5 SWAP1 PUSH2 0x1051 JUMP JUMPDEST PUSH1 0x40 MLOAD SWAP1 SWAP2 POP DUP2 SWAP1 PUSH32 0xB5E6E01E79F91267DC17B4E6314D5D4D03593D2CEEE0FBB452B750BD70EA5AF9 SWAP1 PUSH1 0x0 SWAP1 LOG2 POP POP POP POP JUMP JUMPDEST PUSH1 0x6 SLOAD PUSH1 0x1 PUSH1 0x1 PUSH1 0xA0 SHL SUB AND CALLER EQ PUSH2 0xB4D JUMPI PUSH1 0x40 MLOAD PUSH3 0x461BCD PUSH1 0xE5 SHL DUP2 MSTORE PUSH1 0x4 ADD PUSH2 0x2F7 SWAP1 PUSH2 0x1C37 JUMP JUMPDEST PUSH2 0xB57 PUSH1 0x0 PUSH2 0x1070 JUMP JUMPDEST JUMP JUMPDEST PUSH1 0x6 SLOAD PUSH1 0x1 PUSH1 0x1 PUSH1 0xA0 SHL SUB AND CALLER EQ PUSH2 0xB83 JUMPI PUSH1 0x40 MLOAD PUSH3 0x461BCD PUSH1 0xE5 SHL DUP2 MSTORE PUSH1 0x4 ADD PUSH2 0x2F7 SWAP1 PUSH2 0x1C37 JUMP JUMPDEST DUP1 MLOAD PUSH2 0xB96 SWAP1 PUSH1 0x11 SWAP1 PUSH1 0x20 DUP5 ADD SWAP1 PUSH2 0x16CF JUMP JUMPDEST POP POP JUMP JUMPDEST PUSH1 0x40 DUP1 MLOAD DUP1 DUP3 ADD SWAP1 SWAP2 MSTORE PUSH1 0x14 DUP2 MSTORE PUSH20 0x20B63932B0B23C903430BB32903090313ABCB2B9 PUSH1 0x61 SHL PUSH1 0x20 DUP3 ADD MSTORE PUSH1 0x0 SWAP1 DUP2 PUSH1 0x14 SLOAD PUSH1 0xFF AND PUSH1 0x4 DUP2 GT ISZERO PUSH2 0xBE0 JUMPI PUSH2 0xBE0 PUSH2 0x19F0 JUMP JUMPDEST EQ DUP2 SWAP1 PUSH2 0xC00 JUMPI PUSH1 0x40 MLOAD PUSH3 0x461BCD PUSH1 0xE5 SHL DUP2 MSTORE PUSH1 0x4 ADD PUSH2 0x2F7 SWAP2 SWAP1 PUSH2 0x1BDD JUMP JUMPDEST POP PUSH1 0x6 SLOAD PUSH1 0x1 PUSH1 0x1 PUSH1 0xA0 SHL SUB AND CALLER EQ ISZERO PUSH2 0xC5C JUMPI PUSH1 0x40 MLOAD PUSH3 0x461BCD PUSH1 0xE5 SHL DUP2 MSTORE PUSH1 0x20 PUSH1 0x4 DUP3 ADD MSTORE PUSH1 0x1D PUSH1 0x24 DUP3 ADD MSTORE PUSH32 0x596F752063616E206E6F74206275792066726F6D20796F757273656C66000000 PUSH1 0x44 DUP3 ADD MSTORE PUSH1 0x64 ADD PUSH2 0x2F7 JUMP JUMPDEST PUSH1 0xE SLOAD CALLVALUE LT ISZERO PUSH2 0xCA0 JUMPI PUSH1 0x40 MLOAD PUSH3 0x461BCD PUSH1 0xE5 SHL DUP2 MSTORE PUSH1 0x20 PUSH1 0x4 DUP3 ADD MSTORE PUSH1 0xF PUSH1 0x24 DUP3 ADD MSTORE PUSH15 0x139BDD08195B9BDD59DA08199D5B99 PUSH1 0x8A SHL PUSH1 0x44 DUP3 ADD MSTORE PUSH1 0x64 ADD PUSH2 0x2F7 JUMP JUMPDEST PUSH1 0x14 DUP1 SLOAD PUSH1 0xFF NOT AND PUSH1 0x1 OR SWAP1 SSTORE PUSH1 0x10 DUP1 SLOAD CALLER PUSH1 0x1 PUSH1 0x1 PUSH1 0xA0 SHL SUB NOT SWAP1 SWAP2 AND DUP2 OR SWAP1 SWAP2 SSTORE NUMBER PUSH1 0xB SSTORE PUSH1 0x40 MLOAD PUSH32 0xE4CAEAEF8E4F0C4880839CA47219351B38CF4116C082FD0BAEFC3008E4BA11A3 SWAP1 PUSH1 0x0 SWAP1 LOG2 POP POP JUMP JUMPDEST PUSH1 0xC DUP1 SLOAD PUSH1 0xD DUP1 SLOAD SWAP2 SWAP3 SWAP2 PUSH2 0xD08 SWAP1 PUSH2 0x1B48 JUMP JUMPDEST DUP1 PUSH1 0x1F ADD PUSH1 0x20 DUP1 SWAP2 DIV MUL PUSH1 0x20 ADD PUSH1 0x40 MLOAD SWAP1 DUP2 ADD PUSH1 0x40 MSTORE DUP1 SWAP3 SWAP2 SWAP1 DUP2 DUP2 MSTORE PUSH1 0x20 ADD DUP3 DUP1 SLOAD PUSH2 0xD34 SWAP1 PUSH2 0x1B48 JUMP JUMPDEST DUP1 ISZERO PUSH2 0xD81 JUMPI DUP1 PUSH1 0x1F LT PUSH2 0xD56 JUMPI PUSH2 0x100 DUP1 DUP4 SLOAD DIV MUL DUP4 MSTORE SWAP2 PUSH1 0x20 ADD SWAP2 PUSH2 0xD81 JUMP JUMPDEST DUP3 ADD SWAP2 SWAP1 PUSH1 0x0 MSTORE PUSH1 0x20 PUSH1 0x0 KECCAK256 SWAP1 JUMPDEST DUP2 SLOAD DUP2 MSTORE SWAP1 PUSH1 0x1 ADD SWAP1 PUSH1 0x20 ADD DUP1 DUP4 GT PUSH2 0xD64 JUMPI DUP3 SWAP1 SUB PUSH1 0x1F AND DUP3 ADD SWAP2 JUMPDEST POP POP POP POP PUSH1 0x2 DUP4 ADD SLOAD PUSH1 0x3 DUP5 ADD SLOAD PUSH1 0x4 DUP6 ADD SLOAD PUSH1 0x5 DUP7 ADD DUP1 SLOAD SWAP6 SWAP7 SWAP4 SWAP6 PUSH1 0x1 PUSH1 0x1 PUSH1 0xA0 SHL SUB SWAP4 DUP5 AND SWAP6 POP SWAP3 DUP3 AND SWAP4 PUSH1 0x1 PUSH1 0xA0 SHL SWAP1 SWAP3 DIV PUSH1 0xFF AND SWAP3 PUSH2 0xDC4 SWAP1 PUSH2 0x1B48 JUMP JUMPDEST DUP1 PUSH1 0x1F ADD PUSH1 0x20 DUP1 SWAP2 DIV MUL PUSH1 0x20 ADD PUSH1 0x40 MLOAD SWAP1 DUP2 ADD PUSH1 0x40 MSTORE DUP1 SWAP3 SWAP2 SWAP1 DUP2 DUP2 MSTORE PUSH1 0x20 ADD DUP3 DUP1 SLOAD PUSH2 0xDF0 SWAP1 PUSH2 0x1B48 JUMP JUMPDEST DUP1 ISZERO PUSH2 0xE3D JUMPI DUP1 PUSH1 0x1F LT PUSH2 0xE12 JUMPI PUSH2 0x100 DUP1 DUP4 SLOAD DIV MUL DUP4 MSTORE SWAP2 PUSH1 0x20 ADD SWAP2 PUSH2 0xE3D JUMP JUMPDEST DUP3 ADD SWAP2 SWAP1 PUSH1 0x0 MSTORE PUSH1 0x20 PUSH1 0x0 KECCAK256 SWAP1 JUMPDEST DUP2 SLOAD DUP2 MSTORE SWAP1 PUSH1 0x1 ADD SWAP1 PUSH1 0x20 ADD DUP1 DUP4 GT PUSH2 0xE20 JUMPI DUP3 SWAP1 SUB PUSH1 0x1F AND DUP3 ADD SWAP2 JUMPDEST POP POP POP POP POP SWAP1 DUP1 PUSH1 0x6 ADD DUP1 SLOAD PUSH2 0xE52 SWAP1 PUSH2 0x1B48 JUMP JUMPDEST DUP1 PUSH1 0x1F ADD PUSH1 0x20 DUP1 SWAP2 DIV MUL PUSH1 0x20 ADD PUSH1 0x40 MLOAD SWAP1 DUP2 ADD PUSH1 0x40 MSTORE DUP1 SWAP3 SWAP2 SWAP1 DUP2 DUP2 MSTORE PUSH1 0x20 ADD DUP3 DUP1 SLOAD PUSH2 0xE7E SWAP1 PUSH2 0x1B48 JUMP JUMPDEST DUP1 ISZERO PUSH2 0xECB JUMPI DUP1 PUSH1 0x1F LT PUSH2 0xEA0 JUMPI PUSH2 0x100 DUP1 DUP4 SLOAD DIV MUL DUP4 MSTORE SWAP2 PUSH1 0x20 ADD SWAP2 PUSH2 0xECB JUMP JUMPDEST DUP3 ADD SWAP2 SWAP1 PUSH1 0x0 MSTORE PUSH1 0x20 PUSH1 0x0 KECCAK256 SWAP1 JUMPDEST DUP2 SLOAD DUP2 MSTORE SWAP1 PUSH1 0x1 ADD SWAP1 PUSH1 0x20 ADD DUP1 DUP4 GT PUSH2 0xEAE JUMPI DUP3 SWAP1 SUB PUSH1 0x1F AND DUP3 ADD SWAP2 JUMPDEST POP POP POP POP POP SWAP1 DUP1 PUSH1 0x7 ADD DUP1 SLOAD PUSH2 0xEE0 SWAP1 PUSH2 0x1B48 JUMP JUMPDEST DUP1 PUSH1 0x1F ADD PUSH1 0x20 DUP1 SWAP2 DIV MUL PUSH1 0x20 ADD PUSH1 0x40 MLOAD SWAP1 DUP2 ADD PUSH1 0x40 MSTORE DUP1 SWAP3 SWAP2 SWAP1 DUP2 DUP2 MSTORE PUSH1 0x20 ADD DUP3 DUP1 SLOAD PUSH2 0xF0C SWAP1 PUSH2 0x1B48 JUMP JUMPDEST DUP1 ISZERO PUSH2 0xF59 JUMPI DUP1 PUSH1 0x1F LT PUSH2 0xF2E JUMPI PUSH2 0x100 DUP1 DUP4 SLOAD DIV MUL DUP4 MSTORE SWAP2 PUSH1 0x20 ADD SWAP2 PUSH2 0xF59 JUMP JUMPDEST DUP3 ADD SWAP2 SWAP1 PUSH1 0x0 MSTORE PUSH1 0x20 PUSH1 0x0 KECCAK256 SWAP1 JUMPDEST DUP2 SLOAD DUP2 MSTORE SWAP1 PUSH1 0x1 ADD SWAP1 PUSH1 0x20 ADD DUP1 DUP4 GT PUSH2 0xF3C JUMPI DUP3 SWAP1 SUB PUSH1 0x1F AND DUP3 ADD SWAP2 JUMPDEST POP POP POP POP PUSH1 0x8 DUP4 ADD SLOAD PUSH1 0x9 SWAP1 SWAP4 ADD SLOAD SWAP2 SWAP3 PUSH1 0xFF AND SWAP2 SWAP1 POP DUP12 JUMP JUMPDEST PUSH1 0x6 SLOAD PUSH1 0x1 PUSH1 0x1 PUSH1 0xA0 SHL SUB AND CALLER EQ PUSH2 0xF9D JUMPI PUSH1 0x40 MLOAD PUSH3 0x461BCD PUSH1 0xE5 SHL DUP2 MSTORE PUSH1 0x4 ADD PUSH2 0x2F7 SWAP1 PUSH2 0x1C37 JUMP JUMPDEST PUSH1 0x1 PUSH1 0x1 PUSH1 0xA0 SHL SUB DUP2 AND PUSH2 0x1002 JUMPI PUSH1 0x40 MLOAD PUSH3 0x461BCD PUSH1 0xE5 SHL DUP2 MSTORE PUSH1 0x20 PUSH1 0x4 DUP3 ADD MSTORE PUSH1 0x26 PUSH1 0x24 DUP3 ADD MSTORE PUSH32 0x4F776E61626C653A206E6577206F776E657220697320746865207A65726F2061 PUSH1 0x44 DUP3 ADD MSTORE PUSH6 0x646472657373 PUSH1 0xD0 SHL PUSH1 0x64 DUP3 ADD MSTORE PUSH1 0x84 ADD PUSH2 0x2F7 JUMP JUMPDEST PUSH2 0x100B DUP2 PUSH2 0x1070 JUMP JUMPDEST POP JUMP JUMPDEST PUSH2 0x1016 PUSH2 0x1753 JUMP JUMPDEST PUSH2 0x101E PUSH2 0x1753 JUMP JUMPDEST PUSH2 0x102A DUP2 DUP7 DUP7 DUP7 PUSH2 0x10C2 JUMP JUMPDEST SWAP6 SWAP5 POP POP POP POP POP JUMP JUMPDEST PUSH1 0x80 DUP4 ADD MLOAD PUSH2 0x1042 SWAP1 DUP4 PUSH2 0x10FF JUMP JUMPDEST PUSH1 0x80 DUP4 ADD MLOAD PUSH2 0x7A3 SWAP1 DUP3 PUSH2 0x10FF JUMP JUMPDEST PUSH1 0x0 PUSH2 0x1068 DUP5 DUP5 DUP5 PUSH1 0x1 PUSH4 0x20214CA3 PUSH1 0xE1 SHL PUSH2 0x1116 JUMP JUMPDEST SWAP5 SWAP4 POP POP POP POP JUMP JUMPDEST PUSH1 0x6 DUP1 SLOAD PUSH1 0x1 PUSH1 0x1 PUSH1 0xA0 SHL SUB DUP4 DUP2 AND PUSH1 0x1 PUSH1 0x1 PUSH1 0xA0 SHL SUB NOT DUP4 AND DUP2 OR SWAP1 SWAP4 SSTORE PUSH1 0x40 MLOAD SWAP2 AND SWAP2 SWAP1 DUP3 SWAP1 PUSH32 0x8BE0079C531659141344CD1FD0A4F28419497F9722A3DAAFE3B4186F6B6457E0 SWAP1 PUSH1 0x0 SWAP1 LOG3 POP POP JUMP JUMPDEST PUSH2 0x10CA PUSH2 0x1753 JUMP JUMPDEST PUSH2 0x10DA DUP6 PUSH1 0x80 ADD MLOAD PUSH2 0x100 PUSH2 0x1322 JUMP JUMPDEST POP POP SWAP2 DUP4 MSTORE PUSH1 0x1 PUSH1 0x1 PUSH1 0xA0 SHL SUB AND PUSH1 0x20 DUP4 ADD MSTORE PUSH1 0x1 PUSH1 0x1 PUSH1 0xE0 SHL SUB NOT AND PUSH1 0x40 DUP3 ADD MSTORE SWAP1 JUMP JUMPDEST PUSH2 0x110C DUP3 PUSH1 0x3 DUP4 MLOAD PUSH2 0x138D JUMP JUMPDEST PUSH2 0x7A3 DUP3 DUP3 PUSH2 0x1461 JUMP JUMPDEST PUSH1 0x4 SLOAD PUSH1 0x40 MLOAD PUSH12 0xFFFFFFFFFFFFFFFFFFFFFFFF NOT ADDRESS PUSH1 0x60 SHL AND PUSH1 0x20 DUP3 ADD MSTORE PUSH1 0x34 DUP2 ADD SWAP2 SWAP1 SWAP2 MSTORE PUSH1 0x0 SWAP1 PUSH1 0x54 ADD PUSH1 0x40 DUP1 MLOAD DUP1 DUP4 SUB PUSH1 0x1F NOT ADD DUP2 MSTORE SWAP2 DUP2 MSTORE DUP2 MLOAD PUSH1 0x20 SWAP3 DUP4 ADD KECCAK256 PUSH1 0x4 SLOAD PUSH1 0x60 DUP10 ADD MSTORE PUSH1 0x0 DUP2 DUP2 MSTORE PUSH1 0x5 SWAP1 SWAP4 MSTORE DUP2 DUP4 KECCAK256 DUP1 SLOAD PUSH1 0x1 PUSH1 0x1 PUSH1 0xA0 SHL SUB NOT AND PUSH1 0x1 PUSH1 0x1 PUSH1 0xA0 SHL SUB DUP12 AND OR SWAP1 SSTORE SWAP1 MLOAD SWAP1 SWAP3 POP DUP3 SWAP2 PUSH32 0xB5E6E01E79F91267DC17B4E6314D5D4D03593D2CEEE0FBB452B750BD70EA5AF9 SWAP2 LOG2 PUSH1 0x0 DUP3 PUSH1 0x0 DUP1 DUP9 PUSH1 0x0 ADD MLOAD DUP10 PUSH1 0x20 ADD MLOAD DUP11 PUSH1 0x40 ADD MLOAD DUP12 PUSH1 0x60 ADD MLOAD DUP11 DUP14 PUSH1 0x80 ADD MLOAD PUSH1 0x0 ADD MLOAD PUSH1 0x40 MLOAD PUSH1 0x24 ADD PUSH2 0x11ED SWAP9 SWAP8 SWAP7 SWAP6 SWAP5 SWAP4 SWAP3 SWAP2 SWAP1 PUSH2 0x1D14 JUMP JUMPDEST PUSH1 0x40 DUP1 MLOAD PUSH1 0x1F NOT DUP2 DUP5 SUB ADD DUP2 MSTORE SWAP2 DUP2 MSTORE PUSH1 0x20 DUP3 ADD DUP1 MLOAD PUSH1 0x1 PUSH1 0x1 PUSH1 0xE0 SHL SUB AND PUSH1 0x1 PUSH1 0x1 PUSH1 0xE0 SHL SUB NOT SWAP1 SWAP5 AND SWAP4 SWAP1 SWAP4 OR SWAP1 SWAP3 MSTORE PUSH1 0x2 SLOAD SWAP2 MLOAD PUSH4 0x2000575 PUSH1 0xE5 SHL DUP2 MSTORE SWAP1 SWAP3 POP PUSH1 0x1 PUSH1 0x1 PUSH1 0xA0 SHL SUB SWAP1 SWAP2 AND SWAP1 PUSH4 0x4000AEA0 SWAP1 PUSH2 0x1255 SWAP1 DUP11 SWAP1 DUP10 SWAP1 DUP7 SWAP1 PUSH1 0x4 ADD PUSH2 0x1D7C JUMP JUMPDEST PUSH1 0x20 PUSH1 0x40 MLOAD DUP1 DUP4 SUB DUP2 PUSH1 0x0 DUP8 DUP1 EXTCODESIZE ISZERO DUP1 ISZERO PUSH2 0x126F JUMPI PUSH1 0x0 DUP1 REVERT JUMPDEST POP GAS CALL ISZERO DUP1 ISZERO PUSH2 0x1283 JUMPI RETURNDATASIZE PUSH1 0x0 DUP1 RETURNDATACOPY RETURNDATASIZE PUSH1 0x0 REVERT JUMPDEST POP POP POP POP PUSH1 0x40 MLOAD RETURNDATASIZE PUSH1 0x1F NOT PUSH1 0x1F DUP3 ADD AND DUP3 ADD DUP1 PUSH1 0x40 MSTORE POP DUP2 ADD SWAP1 PUSH2 0x12A7 SWAP2 SWAP1 PUSH2 0x1BBB JUMP JUMPDEST PUSH2 0x12FF JUMPI PUSH1 0x40 MLOAD PUSH3 0x461BCD PUSH1 0xE5 SHL DUP2 MSTORE PUSH1 0x20 PUSH1 0x4 DUP3 ADD MSTORE PUSH1 0x23 PUSH1 0x24 DUP3 ADD MSTORE PUSH32 0x756E61626C6520746F207472616E73666572416E6443616C6C20746F206F7261 PUSH1 0x44 DUP3 ADD MSTORE PUSH3 0x636C65 PUSH1 0xE8 SHL PUSH1 0x64 DUP3 ADD MSTORE PUSH1 0x84 ADD PUSH2 0x2F7 JUMP JUMPDEST PUSH1 0x1 PUSH1 0x4 PUSH1 0x0 DUP3 DUP3 SLOAD PUSH2 0x1312 SWAP2 SWAP1 PUSH2 0x1C1F JUMP JUMPDEST SWAP1 SWAP2 SSTORE POP SWAP2 SWAP8 SWAP7 POP POP POP POP POP POP POP JUMP JUMPDEST PUSH1 0x40 DUP1 MLOAD DUP1 DUP3 ADD SWAP1 SWAP2 MSTORE PUSH1 0x60 DUP2 MSTORE PUSH1 0x0 PUSH1 0x20 DUP3 ADD MSTORE PUSH2 0x1342 PUSH1 0x20 DUP4 PUSH2 0x1DA3 JUMP JUMPDEST ISZERO PUSH2 0x136A JUMPI PUSH2 0x1352 PUSH1 0x20 DUP4 PUSH2 0x1DA3 JUMP JUMPDEST PUSH2 0x135D SWAP1 PUSH1 0x20 PUSH2 0x1DC5 JUMP JUMPDEST PUSH2 0x1367 SWAP1 DUP4 PUSH2 0x1C1F JUMP JUMPDEST SWAP2 POP JUMPDEST POP PUSH1 0x20 DUP1 DUP4 ADD DUP3 SWAP1 MSTORE PUSH1 0x40 DUP1 MLOAD DUP1 DUP6 MSTORE PUSH1 0x0 DUP2 MSTORE DUP4 ADD SWAP1 SWAP2 ADD SWAP1 MSTORE DUP2 JUMPDEST SWAP3 SWAP2 POP POP JUMP JUMPDEST PUSH1 0x17 DUP2 GT PUSH2 0x13AE JUMPI PUSH2 0x13A8 DUP4 PUSH1 0xE0 PUSH1 0x5 DUP6 SWAP1 SHL AND DUP4 OR PUSH2 0x148F JUMP JUMPDEST POP POP POP POP JUMP JUMPDEST PUSH1 0xFF DUP2 GT PUSH2 0x13D8 JUMPI PUSH2 0x13CB DUP4 PUSH1 0x18 PUSH2 0x1FE0 PUSH1 0x5 DUP7 SWAP1 SHL AND OR PUSH2 0x148F JUMP JUMPDEST POP PUSH2 0x13A8 DUP4 DUP3 PUSH1 0x1 PUSH2 0x14B4 JUMP JUMPDEST PUSH2 0xFFFF DUP2 GT PUSH2 0x1403 JUMPI PUSH2 0x13F6 DUP4 PUSH1 0x19 PUSH2 0x1FE0 PUSH1 0x5 DUP7 SWAP1 SHL AND OR PUSH2 0x148F JUMP JUMPDEST POP PUSH2 0x13A8 DUP4 DUP3 PUSH1 0x2 PUSH2 0x14B4 JUMP JUMPDEST PUSH4 0xFFFFFFFF DUP2 GT PUSH2 0x1430 JUMPI PUSH2 0x1423 DUP4 PUSH1 0x1A PUSH2 0x1FE0 PUSH1 0x5 DUP7 SWAP1 SHL AND OR PUSH2 0x148F JUMP JUMPDEST POP PUSH2 0x13A8 DUP4 DUP3 PUSH1 0x4 PUSH2 0x14B4 JUMP JUMPDEST PUSH8 0xFFFFFFFFFFFFFFFF DUP2 GT PUSH2 0x7A3 JUMPI PUSH2 0x1454 DUP4 PUSH1 0x1B PUSH2 0x1FE0 PUSH1 0x5 DUP7 SWAP1 SHL AND OR PUSH2 0x148F JUMP JUMPDEST POP PUSH2 0x13A8 DUP4 DUP3 PUSH1 0x8 PUSH2 0x14B4 JUMP JUMPDEST PUSH1 0x40 DUP1 MLOAD DUP1 DUP3 ADD SWAP1 SWAP2 MSTORE PUSH1 0x60 DUP2 MSTORE PUSH1 0x0 PUSH1 0x20 DUP3 ADD MSTORE PUSH2 0x1488 DUP4 DUP5 PUSH1 0x0 ADD MLOAD MLOAD DUP5 DUP6 MLOAD PUSH2 0x14DA JUMP JUMPDEST SWAP4 SWAP3 POP POP POP JUMP JUMPDEST PUSH1 0x40 DUP1 MLOAD DUP1 DUP3 ADD SWAP1 SWAP2 MSTORE PUSH1 0x60 DUP2 MSTORE PUSH1 0x0 PUSH1 0x20 DUP3 ADD MSTORE PUSH2 0x1488 DUP4 DUP5 PUSH1 0x0 ADD MLOAD MLOAD DUP5 PUSH2 0x15C4 JUMP JUMPDEST PUSH1 0x40 DUP1 MLOAD DUP1 DUP3 ADD SWAP1 SWAP2 MSTORE PUSH1 0x60 DUP2 MSTORE PUSH1 0x0 PUSH1 0x20 DUP3 ADD MSTORE PUSH2 0x1068 DUP5 DUP6 PUSH1 0x0 ADD MLOAD MLOAD DUP6 DUP6 PUSH2 0x1620 JUMP JUMPDEST PUSH1 0x40 DUP1 MLOAD DUP1 DUP3 ADD SWAP1 SWAP2 MSTORE PUSH1 0x60 DUP2 MSTORE PUSH1 0x0 PUSH1 0x20 DUP3 ADD MSTORE DUP3 MLOAD DUP3 GT ISZERO PUSH2 0x14FD JUMPI PUSH1 0x0 DUP1 REVERT JUMPDEST PUSH1 0x20 DUP6 ADD MLOAD PUSH2 0x150C DUP4 DUP7 PUSH2 0x1C1F JUMP JUMPDEST GT ISZERO PUSH2 0x153F JUMPI PUSH2 0x153F DUP6 PUSH2 0x152F DUP8 PUSH1 0x20 ADD MLOAD DUP8 DUP7 PUSH2 0x152A SWAP2 SWAP1 PUSH2 0x1C1F JUMP JUMPDEST PUSH2 0x16A1 JUMP JUMPDEST PUSH2 0x153A SWAP1 PUSH1 0x2 PUSH2 0x1DDC JUMP JUMPDEST PUSH2 0x16B8 JUMP JUMPDEST PUSH1 0x0 DUP1 DUP7 MLOAD DUP1 MLOAD DUP8 PUSH1 0x20 DUP4 ADD ADD SWAP4 POP DUP1 DUP9 DUP8 ADD GT ISZERO PUSH2 0x155E JUMPI DUP8 DUP7 ADD DUP3 MSTORE JUMPDEST POP POP POP PUSH1 0x20 DUP5 ADD JUMPDEST PUSH1 0x20 DUP5 LT PUSH2 0x159E JUMPI DUP1 MLOAD DUP3 MSTORE PUSH2 0x157D PUSH1 0x20 DUP4 PUSH2 0x1C1F JUMP JUMPDEST SWAP2 POP PUSH2 0x158A PUSH1 0x20 DUP3 PUSH2 0x1C1F JUMP JUMPDEST SWAP1 POP PUSH2 0x1597 PUSH1 0x20 DUP6 PUSH2 0x1DC5 JUMP JUMPDEST SWAP4 POP PUSH2 0x1566 JUMP JUMPDEST MLOAD DUP2 MLOAD PUSH1 0x0 NOT PUSH1 0x20 DUP7 SWAP1 SUB PUSH2 0x100 EXP ADD SWAP1 DUP2 AND SWAP1 NOT SWAP2 SWAP1 SWAP2 AND OR SWAP1 MSTORE POP DUP4 SWAP5 SWAP4 POP POP POP POP JUMP JUMPDEST PUSH1 0x40 DUP1 MLOAD DUP1 DUP3 ADD SWAP1 SWAP2 MSTORE PUSH1 0x60 DUP2 MSTORE PUSH1 0x0 PUSH1 0x20 DUP3 ADD MSTORE DUP4 PUSH1 0x20 ADD MLOAD DUP4 LT PUSH2 0x15F9 JUMPI PUSH2 0x15F9 DUP5 DUP6 PUSH1 0x20 ADD MLOAD PUSH1 0x2 PUSH2 0x153A SWAP2 SWAP1 PUSH2 0x1DDC JUMP JUMPDEST DUP4 MLOAD DUP1 MLOAD PUSH1 0x20 DUP6 DUP4 ADD ADD DUP5 DUP2 MSTORE8 POP DUP1 DUP6 EQ ISZERO PUSH2 0x1616 JUMPI PUSH1 0x1 DUP2 ADD DUP3 MSTORE JUMPDEST POP SWAP4 SWAP5 SWAP4 POP POP POP POP JUMP JUMPDEST PUSH1 0x40 DUP1 MLOAD DUP1 DUP3 ADD SWAP1 SWAP2 MSTORE PUSH1 0x60 DUP2 MSTORE PUSH1 0x0 PUSH1 0x20 DUP3 ADD MSTORE PUSH1 0x20 DUP6 ADD MLOAD PUSH2 0x1644 DUP6 DUP5 PUSH2 0x1C1F JUMP JUMPDEST GT ISZERO PUSH2 0x1658 JUMPI PUSH2 0x1658 DUP6 PUSH2 0x152F DUP7 DUP6 PUSH2 0x1C1F JUMP JUMPDEST PUSH1 0x0 PUSH1 0x1 PUSH2 0x1668 DUP5 PUSH2 0x100 PUSH2 0x1EDF JUMP JUMPDEST PUSH2 0x1672 SWAP2 SWAP1 PUSH2 0x1DC5 JUMP JUMPDEST SWAP1 POP DUP6 MLOAD DUP4 DUP7 DUP3 ADD ADD DUP6 DUP4 NOT DUP3 MLOAD AND OR DUP2 MSTORE POP DUP1 MLOAD DUP5 DUP8 ADD GT ISZERO PUSH2 0x1696 JUMPI DUP4 DUP7 ADD DUP2 MSTORE JUMPDEST POP SWAP5 SWAP6 SWAP5 POP POP POP POP POP JUMP JUMPDEST PUSH1 0x0 DUP2 DUP4 GT ISZERO PUSH2 0x16B2 JUMPI POP DUP2 PUSH2 0x1387 JUMP JUMPDEST POP SWAP2 SWAP1 POP JUMP JUMPDEST DUP2 MLOAD PUSH2 0x16C4 DUP4 DUP4 PUSH2 0x1322 JUMP JUMPDEST POP PUSH2 0x13A8 DUP4 DUP3 PUSH2 0x1461 JUMP JUMPDEST DUP3 DUP1 SLOAD PUSH2 0x16DB SWAP1 PUSH2 0x1B48 JUMP JUMPDEST SWAP1 PUSH1 0x0 MSTORE PUSH1 0x20 PUSH1 0x0 KECCAK256 SWAP1 PUSH1 0x1F ADD PUSH1 0x20 SWAP1 DIV DUP2 ADD SWAP3 DUP3 PUSH2 0x16FD JUMPI PUSH1 0x0 DUP6 SSTORE PUSH2 0x1743 JUMP JUMPDEST DUP3 PUSH1 0x1F LT PUSH2 0x1716 JUMPI DUP1 MLOAD PUSH1 0xFF NOT AND DUP4 DUP1 ADD OR DUP6 SSTORE PUSH2 0x1743 JUMP JUMPDEST DUP3 DUP1 ADD PUSH1 0x1 ADD DUP6 SSTORE DUP3 ISZERO PUSH2 0x1743 JUMPI SWAP2 DUP3 ADD JUMPDEST DUP3 DUP2 GT ISZERO PUSH2 0x1743 JUMPI DUP3 MLOAD DUP3 SSTORE SWAP2 PUSH1 0x20 ADD SWAP2 SWAP1 PUSH1 0x1 ADD SWAP1 PUSH2 0x1728 JUMP JUMPDEST POP PUSH2 0x174F SWAP3 SWAP2 POP PUSH2 0x178E JUMP JUMPDEST POP SWAP1 JUMP JUMPDEST PUSH1 0x40 DUP1 MLOAD PUSH1 0xA0 DUP2 ADD DUP3 MSTORE PUSH1 0x0 DUP1 DUP3 MSTORE PUSH1 0x20 DUP1 DUP4 ADD DUP3 SWAP1 MSTORE DUP3 DUP5 ADD DUP3 SWAP1 MSTORE PUSH1 0x60 DUP1 DUP5 ADD DUP4 SWAP1 MSTORE DUP5 MLOAD DUP1 DUP7 ADD SWAP1 SWAP6 MSTORE DUP5 MSTORE DUP4 ADD MSTORE SWAP1 PUSH1 0x80 DUP3 ADD MSTORE SWAP1 JUMP JUMPDEST JUMPDEST DUP1 DUP3 GT ISZERO PUSH2 0x174F JUMPI PUSH1 0x0 DUP2 SSTORE PUSH1 0x1 ADD PUSH2 0x178F JUMP JUMPDEST PUSH1 0x0 DUP1 PUSH1 0x40 DUP4 DUP6 SUB SLT ISZERO PUSH2 0x17B6 JUMPI PUSH1 0x0 DUP1 REVERT JUMPDEST POP POP DUP1 CALLDATALOAD SWAP3 PUSH1 0x20 SWAP1 SWAP2 ADD CALLDATALOAD SWAP2 POP JUMP JUMPDEST DUP1 CALLDATALOAD PUSH1 0x1 PUSH1 0x1 PUSH1 0xA0 SHL SUB DUP2 AND DUP2 EQ PUSH2 0x17DC JUMPI PUSH1 0x0 DUP1 REVERT JUMPDEST SWAP2 SWAP1 POP JUMP JUMPDEST PUSH4 0x4E487B71 PUSH1 0xE0 SHL PUSH1 0x0 MSTORE PUSH1 0x41 PUSH1 0x4 MSTORE PUSH1 0x24 PUSH1 0x0 REVERT JUMPDEST PUSH1 0x40 MLOAD PUSH1 0x1F DUP3 ADD PUSH1 0x1F NOT AND DUP2 ADD PUSH8 0xFFFFFFFFFFFFFFFF DUP2 GT DUP3 DUP3 LT OR ISZERO PUSH2 0x1820 JUMPI PUSH2 0x1820 PUSH2 0x17E1 JUMP JUMPDEST PUSH1 0x40 MSTORE SWAP2 SWAP1 POP JUMP JUMPDEST PUSH1 0x0 PUSH8 0xFFFFFFFFFFFFFFFF DUP3 GT ISZERO PUSH2 0x1842 JUMPI PUSH2 0x1842 PUSH2 0x17E1 JUMP JUMPDEST POP PUSH1 0x1F ADD PUSH1 0x1F NOT AND PUSH1 0x20 ADD SWAP1 JUMP JUMPDEST PUSH1 0x0 DUP3 PUSH1 0x1F DUP4 ADD SLT PUSH2 0x1861 JUMPI PUSH1 0x0 DUP1 REVERT JUMPDEST DUP2 CALLDATALOAD PUSH2 0x1874 PUSH2 0x186F DUP3 PUSH2 0x1828 JUMP JUMPDEST PUSH2 0x17F7 JUMP JUMPDEST DUP2 DUP2 MSTORE DUP5 PUSH1 0x20 DUP4 DUP7 ADD ADD GT ISZERO PUSH2 0x1889 JUMPI PUSH1 0x0 DUP1 REVERT JUMPDEST DUP2 PUSH1 0x20 DUP6 ADD PUSH1 0x20 DUP4 ADD CALLDATACOPY PUSH1 0x0 SWAP2 DUP2 ADD PUSH1 0x20 ADD SWAP2 SWAP1 SWAP2 MSTORE SWAP4 SWAP3 POP POP POP JUMP JUMPDEST PUSH1 0x0 DUP1 PUSH1 0x0 DUP1 PUSH1 0x0 DUP1 PUSH1 0x0 DUP1 PUSH1 0x0 PUSH2 0x120 DUP11 DUP13 SUB SLT ISZERO PUSH2 0x18C5 JUMPI PUSH1 0x0 DUP1 REVERT JUMPDEST PUSH2 0x18CE DUP11 PUSH2 0x17C5 JUMP JUMPDEST SWAP9 POP PUSH2 0x18DC PUSH1 0x20 DUP12 ADD PUSH2 0x17C5 JUMP JUMPDEST SWAP8 POP PUSH1 0x40 DUP11 ADD CALLDATALOAD PUSH8 0xFFFFFFFFFFFFFFFF DUP1 DUP3 GT ISZERO PUSH2 0x18F9 JUMPI PUSH1 0x0 DUP1 REVERT JUMPDEST PUSH2 0x1905 DUP14 DUP4 DUP15 ADD PUSH2 0x1850 JUMP JUMPDEST SWAP9 POP PUSH1 0x60 DUP13 ADD CALLDATALOAD SWAP8 POP PUSH1 0x80 DUP13 ADD CALLDATALOAD SWAP2 POP DUP1 DUP3 GT ISZERO PUSH2 0x1922 JUMPI PUSH1 0x0 DUP1 REVERT JUMPDEST POP PUSH2 0x192F DUP13 DUP3 DUP14 ADD PUSH2 0x1850 JUMP JUMPDEST SWAP6 POP POP PUSH2 0x193E PUSH1 0xA0 DUP12 ADD PUSH2 0x17C5 JUMP JUMPDEST SWAP4 POP PUSH1 0xC0 DUP11 ADD CALLDATALOAD SWAP3 POP PUSH1 0xE0 DUP11 ADD CALLDATALOAD SWAP2 POP PUSH2 0x100 DUP11 ADD CALLDATALOAD SWAP1 POP SWAP3 SWAP6 SWAP9 POP SWAP3 SWAP6 SWAP9 POP SWAP3 SWAP6 SWAP9 JUMP JUMPDEST PUSH1 0x0 PUSH1 0x20 DUP3 DUP5 SUB SLT ISZERO PUSH2 0x1975 JUMPI PUSH1 0x0 DUP1 REVERT JUMPDEST DUP2 CALLDATALOAD PUSH8 0xFFFFFFFFFFFFFFFF DUP2 GT ISZERO PUSH2 0x198C JUMPI PUSH1 0x0 DUP1 REVERT JUMPDEST PUSH2 0x1068 DUP5 DUP3 DUP6 ADD PUSH2 0x1850 JUMP JUMPDEST PUSH1 0x0 JUMPDEST DUP4 DUP2 LT ISZERO PUSH2 0x19B3 JUMPI DUP2 DUP2 ADD MLOAD DUP4 DUP3 ADD MSTORE PUSH1 0x20 ADD PUSH2 0x199B JUMP JUMPDEST DUP4 DUP2 GT ISZERO PUSH2 0x13A8 JUMPI POP POP PUSH1 0x0 SWAP2 ADD MSTORE JUMP JUMPDEST PUSH1 0x0 DUP2 MLOAD DUP1 DUP5 MSTORE PUSH2 0x19DC DUP2 PUSH1 0x20 DUP7 ADD PUSH1 0x20 DUP7 ADD PUSH2 0x1998 JUMP JUMPDEST PUSH1 0x1F ADD PUSH1 0x1F NOT AND SWAP3 SWAP1 SWAP3 ADD PUSH1 0x20 ADD SWAP3 SWAP2 POP POP JUMP JUMPDEST PUSH4 0x4E487B71 PUSH1 0xE0 SHL PUSH1 0x0 MSTORE PUSH1 0x21 PUSH1 0x4 MSTORE PUSH1 0x24 PUSH1 0x0 REVERT JUMPDEST PUSH1 0x0 PUSH2 0x160 DUP14 DUP4 MSTORE DUP1 PUSH1 0x20 DUP5 ADD MSTORE PUSH2 0x1A20 DUP2 DUP5 ADD DUP15 PUSH2 0x19C4 JUMP JUMPDEST PUSH1 0x40 DUP5 ADD DUP14 SWAP1 MSTORE PUSH1 0x1 PUSH1 0x1 PUSH1 0xA0 SHL SUB DUP13 DUP2 AND PUSH1 0x60 DUP7 ADD MSTORE DUP12 AND PUSH1 0x80 DUP6 ADD MSTORE DUP10 ISZERO ISZERO PUSH1 0xA0 DUP6 ADD MSTORE DUP4 DUP2 SUB PUSH1 0xC0 DUP6 ADD MSTORE SWAP1 POP PUSH2 0x1A5A DUP2 DUP10 PUSH2 0x19C4 JUMP JUMPDEST SWAP1 POP DUP3 DUP2 SUB PUSH1 0xE0 DUP5 ADD MSTORE PUSH2 0x1A6E DUP2 DUP9 PUSH2 0x19C4 JUMP JUMPDEST SWAP1 POP DUP3 DUP2 SUB PUSH2 0x100 DUP5 ADD MSTORE PUSH2 0x1A83 DUP2 DUP8 PUSH2 0x19C4 JUMP JUMPDEST SWAP2 POP POP PUSH1 0x5 DUP5 LT PUSH2 0x1AA4 JUMPI PUSH4 0x4E487B71 PUSH1 0xE0 SHL PUSH1 0x0 MSTORE PUSH1 0x21 PUSH1 0x4 MSTORE PUSH1 0x24 PUSH1 0x0 REVERT JUMPDEST PUSH2 0x120 DUP3 ADD SWAP4 SWAP1 SWAP4 MSTORE PUSH2 0x140 ADD MSTORE SWAP10 SWAP9 POP POP POP POP POP POP POP POP POP JUMP JUMPDEST PUSH1 0x0 PUSH1 0x20 DUP3 DUP5 SUB SLT ISZERO PUSH2 0x1AD1 JUMPI PUSH1 0x0 DUP1 REVERT JUMPDEST PUSH2 0x1488 DUP3 PUSH2 0x17C5 JUMP JUMPDEST PUSH1 0x0 PUSH1 0x20 DUP3 DUP5 SUB SLT ISZERO PUSH2 0x1AEC JUMPI PUSH1 0x0 DUP1 REVERT JUMPDEST DUP2 MLOAD PUSH8 0xFFFFFFFFFFFFFFFF DUP2 GT ISZERO PUSH2 0x1B03 JUMPI PUSH1 0x0 DUP1 REVERT JUMPDEST DUP3 ADD PUSH1 0x1F DUP2 ADD DUP5 SGT PUSH2 0x1B14 JUMPI PUSH1 0x0 DUP1 REVERT JUMPDEST DUP1 MLOAD PUSH2 0x1B22 PUSH2 0x186F DUP3 PUSH2 0x1828 JUMP JUMPDEST DUP2 DUP2 MSTORE DUP6 PUSH1 0x20 DUP4 DUP6 ADD ADD GT ISZERO PUSH2 0x1B37 JUMPI PUSH1 0x0 DUP1 REVERT JUMPDEST PUSH2 0x102A DUP3 PUSH1 0x20 DUP4 ADD PUSH1 0x20 DUP7 ADD PUSH2 0x1998 JUMP JUMPDEST PUSH1 0x1 DUP2 DUP2 SHR SWAP1 DUP3 AND DUP1 PUSH2 0x1B5C JUMPI PUSH1 0x7F DUP3 AND SWAP2 POP JUMPDEST PUSH1 0x20 DUP3 LT DUP2 EQ ISZERO PUSH2 0x16B2 JUMPI PUSH4 0x4E487B71 PUSH1 0xE0 SHL PUSH1 0x0 MSTORE PUSH1 0x22 PUSH1 0x4 MSTORE PUSH1 0x24 PUSH1 0x0 REVERT JUMPDEST PUSH1 0x40 DUP2 MSTORE PUSH1 0x0 PUSH2 0x1B90 PUSH1 0x40 DUP4 ADD DUP5 PUSH2 0x19C4 JUMP JUMPDEST DUP3 DUP2 SUB PUSH1 0x20 DUP5 ADD MSTORE PUSH1 0x9 DUP2 MSTORE PUSH9 0x11195B1A5D995C9959 PUSH1 0xBA SHL PUSH1 0x20 DUP3 ADD MSTORE PUSH1 0x40 DUP2 ADD SWAP2 POP POP SWAP3 SWAP2 POP POP JUMP JUMPDEST PUSH1 0x0 PUSH1 0x20 DUP3 DUP5 SUB SLT ISZERO PUSH2 0x1BCD JUMPI PUSH1 0x0 DUP1 REVERT JUMPDEST DUP2 MLOAD DUP1 ISZERO ISZERO DUP2 EQ PUSH2 0x1488 JUMPI PUSH1 0x0 DUP1 REVERT JUMPDEST PUSH1 0x20 DUP2 MSTORE PUSH1 0x0 PUSH2 0x1488 PUSH1 0x20 DUP4 ADD DUP5 PUSH2 0x19C4 JUMP JUMPDEST PUSH1 0x0 PUSH1 0x20 DUP3 DUP5 SUB SLT ISZERO PUSH2 0x1C02 JUMPI PUSH1 0x0 DUP1 REVERT JUMPDEST POP MLOAD SWAP2 SWAP1 POP JUMP JUMPDEST PUSH4 0x4E487B71 PUSH1 0xE0 SHL PUSH1 0x0 MSTORE PUSH1 0x11 PUSH1 0x4 MSTORE PUSH1 0x24 PUSH1 0x0 REVERT JUMPDEST PUSH1 0x0 DUP3 NOT DUP3 GT ISZERO PUSH2 0x1C32 JUMPI PUSH2 0x1C32 PUSH2 0x1C09 JUMP JUMPDEST POP ADD SWAP1 JUMP JUMPDEST PUSH1 0x20 DUP1 DUP3 MSTORE DUP2 DUP2 ADD MSTORE PUSH32 0x4F776E61626C653A2063616C6C6572206973206E6F7420746865206F776E6572 PUSH1 0x40 DUP3 ADD MSTORE PUSH1 0x60 ADD SWAP1 JUMP JUMPDEST PUSH1 0x0 PUSH1 0x20 DUP1 DUP4 MSTORE PUSH1 0x0 DUP5 SLOAD DUP2 PUSH1 0x1 DUP3 DUP2 SHR SWAP2 POP DUP1 DUP4 AND DUP1 PUSH2 0x1C8E JUMPI PUSH1 0x7F DUP4 AND SWAP3 POP JUMPDEST DUP6 DUP4 LT DUP2 EQ ISZERO PUSH2 0x1CAC JUMPI PUSH4 0x4E487B71 PUSH1 0xE0 SHL DUP6 MSTORE PUSH1 0x22 PUSH1 0x4 MSTORE PUSH1 0x24 DUP6 REVERT JUMPDEST DUP8 DUP7 ADD DUP4 DUP2 MSTORE PUSH1 0x20 ADD DUP2 DUP1 ISZERO PUSH2 0x1CC9 JUMPI PUSH1 0x1 DUP2 EQ PUSH2 0x1CDA JUMPI PUSH2 0x1D05 JUMP JUMPDEST PUSH1 0xFF NOT DUP7 AND DUP3 MSTORE DUP8 DUP3 ADD SWAP7 POP PUSH2 0x1D05 JUMP JUMPDEST PUSH1 0x0 DUP12 DUP2 MSTORE PUSH1 0x20 SWAP1 KECCAK256 PUSH1 0x0 JUMPDEST DUP7 DUP2 LT ISZERO PUSH2 0x1CFF JUMPI DUP2 SLOAD DUP5 DUP3 ADD MSTORE SWAP1 DUP6 ADD SWAP1 DUP10 ADD PUSH2 0x1CE6 JUMP JUMPDEST DUP4 ADD SWAP8 POP POP JUMPDEST POP SWAP5 SWAP10 SWAP9 POP POP POP POP POP POP POP POP POP JUMP JUMPDEST PUSH1 0x1 PUSH1 0x1 PUSH1 0xA0 SHL SUB DUP10 DUP2 AND DUP3 MSTORE PUSH1 0x20 DUP3 ADD DUP10 SWAP1 MSTORE PUSH1 0x40 DUP3 ADD DUP9 SWAP1 MSTORE DUP7 AND PUSH1 0x60 DUP3 ADD MSTORE PUSH1 0x1 PUSH1 0x1 PUSH1 0xE0 SHL SUB NOT DUP6 AND PUSH1 0x80 DUP3 ADD MSTORE PUSH1 0xA0 DUP2 ADD DUP5 SWAP1 MSTORE PUSH1 0xC0 DUP2 ADD DUP4 SWAP1 MSTORE PUSH2 0x100 PUSH1 0xE0 DUP3 ADD DUP2 SWAP1 MSTORE PUSH1 0x0 SWAP1 PUSH2 0x1D6D DUP4 DUP3 ADD DUP6 PUSH2 0x19C4 JUMP JUMPDEST SWAP12 SWAP11 POP POP POP POP POP POP POP POP POP POP POP JUMP JUMPDEST PUSH1 0x1 DUP1 PUSH1 0xA0 SHL SUB DUP5 AND DUP2 MSTORE DUP3 PUSH1 0x20 DUP3 ADD MSTORE PUSH1 0x60 PUSH1 0x40 DUP3 ADD MSTORE PUSH1 0x0 PUSH2 0x102A PUSH1 0x60 DUP4 ADD DUP5 PUSH2 0x19C4 JUMP JUMPDEST PUSH1 0x0 DUP3 PUSH2 0x1DC0 JUMPI PUSH4 0x4E487B71 PUSH1 0xE0 SHL PUSH1 0x0 MSTORE PUSH1 0x12 PUSH1 0x4 MSTORE PUSH1 0x24 PUSH1 0x0 REVERT JUMPDEST POP MOD SWAP1 JUMP JUMPDEST PUSH1 0x0 DUP3 DUP3 LT ISZERO PUSH2 0x1DD7 JUMPI PUSH2 0x1DD7 PUSH2 0x1C09 JUMP JUMPDEST POP SUB SWAP1 JUMP JUMPDEST PUSH1 0x0 DUP2 PUSH1 0x0 NOT DIV DUP4 GT DUP3 ISZERO ISZERO AND ISZERO PUSH2 0x1DF6 JUMPI PUSH2 0x1DF6 PUSH2 0x1C09 JUMP JUMPDEST POP MUL SWAP1 JUMP JUMPDEST PUSH1 0x1 DUP2 DUP2 JUMPDEST DUP1 DUP6 GT ISZERO PUSH2 0x1E36 JUMPI DUP2 PUSH1 0x0 NOT DIV DUP3 GT ISZERO PUSH2 0x1E1C JUMPI PUSH2 0x1E1C PUSH2 0x1C09 JUMP JUMPDEST DUP1 DUP6 AND ISZERO PUSH2 0x1E29 JUMPI SWAP2 DUP2 MUL SWAP2 JUMPDEST SWAP4 DUP5 SHR SWAP4 SWAP1 DUP1 MUL SWAP1 PUSH2 0x1E00 JUMP JUMPDEST POP SWAP3 POP SWAP3 SWAP1 POP JUMP JUMPDEST PUSH1 0x0 DUP3 PUSH2 0x1E4D JUMPI POP PUSH1 0x1 PUSH2 0x1387 JUMP JUMPDEST DUP2 PUSH2 0x1E5A JUMPI POP PUSH1 0x0 PUSH2 0x1387 JUMP JUMPDEST DUP2 PUSH1 0x1 DUP2 EQ PUSH2 0x1E70 JUMPI PUSH1 0x2 DUP2 EQ PUSH2 0x1E7A JUMPI PUSH2 0x1E96 JUMP JUMPDEST PUSH1 0x1 SWAP2 POP POP PUSH2 0x1387 JUMP JUMPDEST PUSH1 0xFF DUP5 GT ISZERO PUSH2 0x1E8B JUMPI PUSH2 0x1E8B PUSH2 0x1C09 JUMP JUMPDEST POP POP PUSH1 0x1 DUP3 SHL PUSH2 0x1387 JUMP JUMPDEST POP PUSH1 0x20 DUP4 LT PUSH2 0x133 DUP4 LT AND PUSH1 0x4E DUP5 LT PUSH1 0xB DUP5 LT AND OR ISZERO PUSH2 0x1EB9 JUMPI POP DUP2 DUP2 EXP PUSH2 0x1387 JUMP JUMPDEST PUSH2 0x1EC3 DUP4 DUP4 PUSH2 0x1DFB JUMP JUMPDEST DUP1 PUSH1 0x0 NOT DIV DUP3 GT ISZERO PUSH2 0x1ED7 JUMPI PUSH2 0x1ED7 PUSH2 0x1C09 JUMP JUMPDEST MUL SWAP4 SWAP3 POP POP POP JUMP JUMPDEST PUSH1 0x0 PUSH2 0x1488 DUP4 DUP4 PUSH2 0x1E3E JUMP INVALID LOG2 PUSH5 0x6970667358 0x22 SLT KECCAK256 0xB4 PUSH15 0xF3787F98E23BAAF70EC480B6DAEF7 SWAP3 CALLDATACOPY 0x2E 0xBD SMOD MUL PUSH28 0x8E34C44B6C64267164736F6C63430008090033000000000000000000 ",
  "sha1": "766f35b4a79930796a4459d170e78bb3b945f6b3",
  "source": "// SPDX-License-Identifier: MIT\npragma solidity ^0.8.7;\n\nimport \"@chainlink/contracts/src/v0.8/ChainlinkClient.sol\";\nimport \"@openzeppelin/contracts/access/Ownable.sol\";\nimport \"./strings.sol\";\n\ncontract Escrow is ChainlinkClient, Ownable {\n    using Chainlink for Chainlink.Request;\n    using strings for string;\n    using strings for bytes32;\n\n    uint256 private oracleFee;\n    address private oracle;\n    bytes32 private jobId;\n\n    address factory;\n    uint256 public currentBlock;\n\n    struct Product {\n        uint256 id;\n        string name;\n        uint256 price;\n        address owner;\n        address buyer;\n        bool purchased;\n        string productURI;\n        string trackingId;\n        string deliveryStatus;\n        Stage stage;\n        uint256 lockPeriod;\n    }\n\n    Product public product;\n\n    enum Stage {\n        Initiate,\n        WaitForShipping,\n        Shipping,\n        Delivered,\n        End\n    }\n\n    event OrderInitiate(address indexed _buyer);\n    event OrderCancel(address indexed _buyer);\n\n    event ShipmentInprogress(string trackingNo);\n    event ShipmentUpdated(bytes32 status);\n    event OrderCompleted(string trackingNo);\n\n    modifier validStage(Stage _stage, string memory message) {\n        require(product.stage == _stage, message);\n        _;\n    }\n\n    modifier onlyBuyer() {\n        require(msg.sender == product.buyer, \"Only Buyer\");\n        _;\n    }\n\n    constructor() {\n        factory = msg.sender;\n    }\n\n    function init(\n        address _link,\n        address _oracle,\n        string memory _jobId,\n        uint256 _id,\n        string memory _name,\n        address _seller,\n        // address _currency,\n        uint256 _price,\n        uint256 _lockPeriod,\n        uint256 _oracleFee\n    ) external {\n        require(msg.sender == factory, \"FORBIDDEN\");\n        // setPublicChainlinkToken();\n        setChainlinkToken(_link);\n        transferOwnership(_seller);\n        oracle = _oracle;\n        jobId = _jobId.stringToBytes32();\n        oracleFee = _oracleFee;\n\n        product.id = _id;\n        product.name = _name;\n        product.lockPeriod = _lockPeriod;\n        product.stage = Stage.Initiate;\n        product.owner = _seller;\n        // currency = IERC20(_currency);\n        product.price = _price;\n    }\n\n    function isAbleTocancelOrder() public view returns (bool) {\n        return\n            block.number >= currentBlock + product.lockPeriod &&\n            product.stage == Stage.WaitForShipping;\n    }\n\n    function setProductURI(string memory _productURI) public onlyOwner {\n        product.productURI = _productURI;\n    }\n\n    function order()\n        external\n        payable\n        validStage(Stage.Initiate, \"Already have a buyer\")\n    {\n        require(msg.sender != owner(), \"You can not buy from yourself\");\n        require(msg.value >= product.price, \"Not enough fund\");\n        product.stage = Stage.WaitForShipping;\n        product.buyer = msg.sender;\n        currentBlock = block.number;\n        // currency.transferFrom(msg.sender, address(this), price);\n        emit OrderInitiate(product.buyer);\n    }\n\n    function cancelOrder() external onlyBuyer {\n        require(isAbleTocancelOrder(), \"Not allowed to cancel order\");\n\n        product.buyer = address(0);\n        product.stage = Stage.Initiate;\n        // currency.transfer(msg.sender, price);\n        payable(msg.sender).transfer(address(this).balance);\n        emit OrderCancel(msg.sender);\n    }\n\n    function updateShipment(string memory _trackingId)\n        external\n        onlyOwner\n        validStage(Stage.WaitForShipping, \"Invalid Stage\")\n    {\n        product.stage = Stage.Shipping;\n        product.trackingId = _trackingId;\n        emit ShipmentInprogress(product.trackingId);\n    }\n\n    function requestShippingDetail()\n        external\n        validStage(Stage.Shipping, \"Need shipment\")\n    {\n        Chainlink.Request memory req = buildChainlinkRequest(\n            jobId,\n            address(this),\n            this.fulfillShippingDetail.selector\n        );\n\n        req.add(\"trackingId\", product.trackingId);\n        bytes32 requestId = sendChainlinkRequestTo(oracle, req, oracleFee);\n        emit ChainlinkRequested(requestId);\n    }\n\n    function fulfillShippingDetail(bytes32 _requestId, bytes32 _deliveryStatus)\n        public\n        recordChainlinkFulfillment(_requestId)\n    {\n        product.deliveryStatus = _deliveryStatus.bytes32ToString();\n        if (product.deliveryStatus.compareStrings(\"Delivered\")) {\n            product.stage = Stage.Delivered;\n        }\n\n        emit ShipmentUpdated(_deliveryStatus);\n    }\n\n    function reclaimFund()\n        external\n        onlyOwner\n        validStage(Stage.Delivered, \"Invalid Stage\")\n    {\n        // currency.transfer(msg.sender, address(this).balance);\n        product.stage = Stage.End;\n        payable(msg.sender).transfer(address(this).balance);\n    }\n}\n",
  "sourcePath": "contracts/Escrow.sol",
  "type": "contract"
}