{
  "abi": [
    {
      "inputs": [],
      "stateMutability": "nonpayable",
      "type": "constructor"
    },
    {
      "anonymous": false,
      "inputs": [
        {
          "indexed": true,
          "internalType": "bytes32",
          "name": "id",
          "type": "bytes32"
        }
      ],
      "name": "ChainlinkCancelled",
      "type": "event"
    },
    {
      "anonymous": false,
      "inputs": [
        {
          "indexed": true,
          "internalType": "bytes32",
          "name": "id",
          "type": "bytes32"
        }
      ],
      "name": "ChainlinkFulfilled",
      "type": "event"
    },
    {
      "anonymous": false,
      "inputs": [
        {
          "indexed": true,
          "internalType": "bytes32",
          "name": "id",
          "type": "bytes32"
        }
      ],
      "name": "ChainlinkRequested",
      "type": "event"
    },
    {
      "anonymous": false,
      "inputs": [
        {
          "indexed": true,
          "internalType": "address",
          "name": "_buyer",
          "type": "address"
        }
      ],
      "name": "OrderCancel",
      "type": "event"
    },
    {
      "anonymous": false,
      "inputs": [
        {
          "indexed": false,
          "internalType": "string",
          "name": "trackingNo",
          "type": "string"
        }
      ],
      "name": "OrderCompleted",
      "type": "event"
    },
    {
      "anonymous": false,
      "inputs": [
        {
          "indexed": true,
          "internalType": "address",
          "name": "_buyer",
          "type": "address"
        }
      ],
      "name": "OrderInitiate",
      "type": "event"
    },
    {
      "anonymous": false,
      "inputs": [
        {
          "indexed": true,
          "internalType": "address",
          "name": "previousOwner",
          "type": "address"
        },
        {
          "indexed": true,
          "internalType": "address",
          "name": "newOwner",
          "type": "address"
        }
      ],
      "name": "OwnershipTransferred",
      "type": "event"
    },
    {
      "anonymous": false,
      "inputs": [
        {
          "indexed": false,
          "internalType": "string",
          "name": "trackingNo",
          "type": "string"
        }
      ],
      "name": "ShipmentInprogress",
      "type": "event"
    },
    {
      "anonymous": false,
      "inputs": [
        {
          "indexed": false,
          "internalType": "bytes32",
          "name": "status",
          "type": "bytes32"
        }
      ],
      "name": "ShipmentUpdated",
      "type": "event"
    },
    {
      "inputs": [],
      "name": "cancelOrder",
      "outputs": [],
      "stateMutability": "nonpayable",
      "type": "function"
    },
    {
      "inputs": [],
      "name": "currentBlock",
      "outputs": [
        {
          "internalType": "uint256",
          "name": "",
          "type": "uint256"
        }
      ],
      "stateMutability": "view",
      "type": "function"
    },
    {
      "inputs": [
        {
          "internalType": "bytes32",
          "name": "_requestId",
          "type": "bytes32"
        },
        {
          "internalType": "bytes32",
          "name": "_deliveryStatus",
          "type": "bytes32"
        }
      ],
      "name": "fulfillShippingDetail",
      "outputs": [],
      "stateMutability": "nonpayable",
      "type": "function"
    },
    {
      "inputs": [
        {
          "internalType": "address",
          "name": "_link",
          "type": "address"
        },
        {
          "internalType": "address",
          "name": "_oracle",
          "type": "address"
        },
        {
          "internalType": "string",
          "name": "_jobId",
          "type": "string"
        },
        {
          "internalType": "uint256",
          "name": "_id",
          "type": "uint256"
        },
        {
          "internalType": "string",
          "name": "_name",
          "type": "string"
        },
        {
          "internalType": "address",
          "name": "_seller",
          "type": "address"
        },
        {
          "internalType": "uint256",
          "name": "_price",
          "type": "uint256"
        },
        {
          "internalType": "uint256",
          "name": "_lockPeriod",
          "type": "uint256"
        },
        {
          "internalType": "uint256",
          "name": "_oracleFee",
          "type": "uint256"
        }
      ],
      "name": "init",
      "outputs": [],
      "stateMutability": "nonpayable",
      "type": "function"
    },
    {
      "inputs": [],
      "name": "lockPeriod",
      "outputs": [
        {
          "internalType": "uint256",
          "name": "",
          "type": "uint256"
        }
      ],
      "stateMutability": "view",
      "type": "function"
    },
    {
      "inputs": [],
      "name": "order",
      "outputs": [],
      "stateMutability": "payable",
      "type": "function"
    },
    {
      "inputs": [],
      "name": "owner",
      "outputs": [
        {
          "internalType": "address",
          "name": "",
          "type": "address"
        }
      ],
      "stateMutability": "view",
      "type": "function"
    },
    {
      "inputs": [],
      "name": "product",
      "outputs": [
        {
          "internalType": "uint256",
          "name": "id",
          "type": "uint256"
        },
        {
          "internalType": "string",
          "name": "name",
          "type": "string"
        },
        {
          "internalType": "uint256",
          "name": "price",
          "type": "uint256"
        },
        {
          "internalType": "address",
          "name": "owner",
          "type": "address"
        },
        {
          "internalType": "address",
          "name": "buyer",
          "type": "address"
        },
        {
          "internalType": "bool",
          "name": "purchased",
          "type": "bool"
        },
        {
          "internalType": "string",
          "name": "productURI",
          "type": "string"
        },
        {
          "internalType": "string",
          "name": "trackingId",
          "type": "string"
        },
        {
          "internalType": "string",
          "name": "deliveryStatus",
          "type": "string"
        },
        {
          "internalType": "enum Escrow.Stage",
          "name": "stage",
          "type": "uint8"
        }
      ],
      "stateMutability": "view",
      "type": "function"
    },
    {
      "inputs": [],
      "name": "reclaimFund",
      "outputs": [],
      "stateMutability": "nonpayable",
      "type": "function"
    },
    {
      "inputs": [],
      "name": "renounceOwnership",
      "outputs": [],
      "stateMutability": "nonpayable",
      "type": "function"
    },
    {
      "inputs": [],
      "name": "requestShippingDetail",
      "outputs": [],
      "stateMutability": "nonpayable",
      "type": "function"
    },
    {
      "inputs": [
        {
          "internalType": "string",
          "name": "_productURI",
          "type": "string"
        }
      ],
      "name": "setProductURI",
      "outputs": [],
      "stateMutability": "nonpayable",
      "type": "function"
    },
    {
      "inputs": [
        {
          "internalType": "address",
          "name": "newOwner",
          "type": "address"
        }
      ],
      "name": "transferOwnership",
      "outputs": [],
      "stateMutability": "nonpayable",
      "type": "function"
    },
    {
      "inputs": [
        {
          "internalType": "string",
          "name": "_trackingId",
          "type": "string"
        }
      ],
      "name": "updateShipment",
      "outputs": [],
      "stateMutability": "nonpayable",
      "type": "function"
    }
  ],
  "bytecode": "6080604052600160045534801561001557600080fd5b5061001f33610036565b600a80546001600160a01b03191633179055610088565b600680546001600160a01b038381166001600160a01b0319831681179093556040519116919082907f8be0079c531659141344cd1fd0a4f28419497f9722a3daafe3b4186f6b6457e090600090a35050565b611f40806100976000396000f3fe6080604052600436106100dd5760003560e01c8063715018a61161007f578063bf15071d11610059578063bf15071d14610209578063bf9ce95214610211578063e12ed13c1461023c578063f2fde38b1461025257600080fd5b8063715018a6146101ac5780638da5cb5b146101c1578063959c1ea8146101e957600080fd5b80633fd8b02f116100bb5780633fd8b02f1461013957806350737055146101625780636a816548146101825780636b827cd41461019757600080fd5b806309d99f67146100e2578063168aec3614610104578063366e8e5214610124575b600080fd5b3480156100ee57600080fd5b506101026100fd3660046117c7565b610272565b005b34801561011057600080fd5b5061010261011f3660046118ca565b61052c565b34801561013057600080fd5b50610102610695565b34801561014557600080fd5b5061014f600b5481565b6040519081526020015b60405180910390f35b34801561016e57600080fd5b5061010261017d366004611987565b61075f565b34801561018e57600080fd5b5061010261083b565b3480156101a357600080fd5b506101026109be565b3480156101b857600080fd5b50610102610b4e565b3480156101cd57600080fd5b506006546040516001600160a01b039091168152602001610159565b3480156101f557600080fd5b50610102610204366004611987565b610b84565b610102610bc5565b34801561021d57600080fd5b50610226610d1f565b6040516101599a99989796959493929190611a2a565b34801561024857600080fd5b5061014f600c5481565b34801561025e57600080fd5b5061010261026d366004611ade565b610f97565b60008281526005602052604090205482906001600160a01b031633146102f05760405162461bcd60e51b815260206004820152602860248201527f536f75726365206d75737420626520746865206f7261636c65206f6620746865604482015267081c995c5d595cdd60c21b60648201526084015b60405180910390fd5b60008181526005602052604080822080546001600160a01b03191690555182917f7cc135e0cebb02c3480ae5d74d377283180a2601f8f644edf7987b009316c63a91a2604051639201de5560e01b81526004810183905273__strings_______________________________90639201de559060240160006040518083038186803b15801561037e57600080fd5b505af4158015610392573d6000803e3d6000fd5b505050506040513d6000823e601f3d908101601f191682016040526103ba9190810190611af9565b80516103ce916014916020909101906116f3565b50601480546103dc90611b67565b80601f016020809104026020016040519081016040528092919081815260200182805461040890611b67565b80156104555780601f1061042a57610100808354040283529160200191610455565b820191906000526020600020905b81548152906001019060200180831161043857829003601f168201915b5050604051635f69a5dd60e11b815273__strings_______________________________9463bed34bba945061049093509150600401611b9c565b60206040518083038186803b1580156104a857600080fd5b505af41580156104bc573d6000803e3d6000fd5b505050506040513d601f19601f820116820180604052508101906104e09190611bda565b156104f3576015805460ff191660031790555b6040518281527f65fb20badd0fcfd3bf3ba0ca9bfe4ec522640041a07decd17f1be1fb0ead4f4a906020015b60405180910390a1505050565b600a546001600160a01b031633146105725760405162461bcd60e51b81526020600482015260096024820152682327a92124a22222a760b91b60448201526064016102e7565b600280546001600160a01b0319166001600160a01b038b1617905561059684610f97565b600880546001600160a01b0319166001600160a01b038a161790556040516319f6a32560e31b815273__strings_______________________________9063cfb51928906105e8908a90600401611bfc565b60206040518083038186803b15801561060057600080fd5b505af4158015610614573d6000803e3d6000fd5b505050506040513d601f19601f820116820180604052508101906106389190611c0f565b600955600b8290556007819055600d869055845161065d90600e9060208801906116f3565b50506015805460ff1916905550601080546001600160a01b0319166001600160a01b039390931692909217909155600f555050505050565b6006546001600160a01b031633146106bf5760405162461bcd60e51b81526004016102e790611c28565b60408051808201909152600d81526c496e76616c696420537461676560981b60208201526003908160155460ff1660048111156106fe576106fe611a14565b14819061071e5760405162461bcd60e51b81526004016102e79190611bfc565b5060158054600460ff1990911617905560405133904780156108fc02916000818181858888f1935050505015801561075a573d6000803e3d6000fd5b505050565b6006546001600160a01b031633146107895760405162461bcd60e51b81526004016102e790611c28565b60408051808201909152600d81526c496e76616c696420537461676560981b60208201526001908160155460ff1660048111156107c8576107c8611a14565b1481906107e85760405162461bcd60e51b81526004016102e79190611bfc565b506015805460ff1916600217905582516108099060139060208601906116f3565b506040517f1862cf7a0e12bac162f518f43c2f50df187e89045899a7c015c1d61d9880a11b9061051f90601390611c5d565b6011546001600160a01b031633146108825760405162461bcd60e51b815260206004820152600a60248201526927b7363c90213abcb2b960b11b60448201526064016102e7565b6040805180820190915260148152737368697070696e6720696e2070726f677265737360601b60208201526001908160155460ff1660048111156108c8576108c8611a14565b1481906108e85760405162461bcd60e51b81526004016102e79190611bfc565b50600b54600c546108f99190611d1b565b4310156109485760405162461bcd60e51b815260206004820152601b60248201527f4e6f7420616c6c6f77656420746f2063616e63656c206f72646572000000000060448201526064016102e7565b601180546001600160a01b03191690556015805460ff1916905560405133904780156108fc02916000818181858888f1935050505015801561098e573d6000803e3d6000fd5b5060405133907f393629f15e859a19530bab9675f9d39f0f57889f19f883bc5be3533c4a2c9ea890600090a25050565b60408051808201909152600d81526c13995959081cda1a5c1b595b9d609a1b60208201526002908160155460ff1660048111156109fd576109fd611a14565b148190610a1d5760405162461bcd60e51b81526004016102e79190611bfc565b506000610a34600954306309d99f6760e01b611032565b9050610afa6040518060400160405280600a8152602001691d1c9858dada5b99d25960b21b815250600d6006018054610a6c90611b67565b80601f0160208091040260200160405190810160405280929190818152602001828054610a9890611b67565b8015610ae55780601f10610aba57610100808354040283529160200191610ae5565b820191906000526020600020905b815481529060010190602001808311610ac857829003601f168201915b5050505050836110579092919063ffffffff16565b600854600754600091610b1a916001600160a01b03909116908490611075565b60405190915081907fb5e6e01e79f91267dc17b4e6314d5d4d03593d2ceee0fbb452b750bd70ea5af990600090a250505050565b6006546001600160a01b03163314610b785760405162461bcd60e51b81526004016102e790611c28565b610b826000611094565b565b6006546001600160a01b03163314610bae5760405162461bcd60e51b81526004016102e790611c28565b8051610bc19060129060208401906116f3565b5050565b60408051808201909152601481527320b63932b0b23c903430bb32903090313abcb2b960611b60208201526000908160155460ff166004811115610c0b57610c0b611a14565b148190610c2b5760405162461bcd60e51b81526004016102e79190611bfc565b506006546001600160a01b0316331415610c875760405162461bcd60e51b815260206004820152601d60248201527f596f752063616e206e6f74206275792066726f6d20796f757273656c6600000060448201526064016102e7565b600f54341015610ccb5760405162461bcd60e51b815260206004820152600f60248201526e139bdd08195b9bdd59da08199d5b99608a1b60448201526064016102e7565b6015805460ff1916600117905560118054336001600160a01b0319909116811790915543600c556040517fe4caeaef8e4f0c4880839ca47219351b38cf4116c082fd0baefc3008e4ba11a390600090a25050565b600d8054600e8054919291610d3390611b67565b80601f0160208091040260200160405190810160405280929190818152602001828054610d5f90611b67565b8015610dac5780601f10610d8157610100808354040283529160200191610dac565b820191906000526020600020905b815481529060010190602001808311610d8f57829003601f168201915b50505050600283015460038401546004850154600586018054959693956001600160a01b03938416955092821693600160a01b90920460ff1692610def90611b67565b80601f0160208091040260200160405190810160405280929190818152602001828054610e1b90611b67565b8015610e685780601f10610e3d57610100808354040283529160200191610e68565b820191906000526020600020905b815481529060010190602001808311610e4b57829003601f168201915b505050505090806006018054610e7d90611b67565b80601f0160208091040260200160405190810160405280929190818152602001828054610ea990611b67565b8015610ef65780601f10610ecb57610100808354040283529160200191610ef6565b820191906000526020600020905b815481529060010190602001808311610ed957829003601f168201915b505050505090806007018054610f0b90611b67565b80601f0160208091040260200160405190810160405280929190818152602001828054610f3790611b67565b8015610f845780601f10610f5957610100808354040283529160200191610f84565b820191906000526020600020905b815481529060010190602001808311610f6757829003601f168201915b5050506008909301549192505060ff168a565b6006546001600160a01b03163314610fc15760405162461bcd60e51b81526004016102e790611c28565b6001600160a01b0381166110265760405162461bcd60e51b815260206004820152602660248201527f4f776e61626c653a206e6577206f776e657220697320746865207a65726f206160448201526564647265737360d01b60648201526084016102e7565b61102f81611094565b50565b61103a611777565b611042611777565b61104e818686866110e6565b95945050505050565b60808301516110669083611123565b608083015161075a9082611123565b600061108c84848460016320214ca360e11b61113a565b949350505050565b600680546001600160a01b038381166001600160a01b0319831681179093556040519116919082907f8be0079c531659141344cd1fd0a4f28419497f9722a3daafe3b4186f6b6457e090600090a35050565b6110ee611777565b6110fe8560800151610100611346565b50509183526001600160a01b031660208301526001600160e01b031916604082015290565b61113082600383516113b1565b61075a8282611485565b6004546040516bffffffffffffffffffffffff193060601b166020820152603481019190915260009060540160408051808303601f19018152918152815160209283012060045460608901526000818152600590935281832080546001600160a01b0319166001600160a01b038b16179055905190925082917fb5e6e01e79f91267dc17b4e6314d5d4d03593d2ceee0fbb452b750bd70ea5af991a2600082600080886000015189602001518a604001518b606001518a8d6080015160000151604051602401611211989796959493929190611d33565b60408051601f198184030181529181526020820180516001600160e01b03166001600160e01b0319909416939093179092526002549151630200057560e51b81529092506001600160a01b0390911690634000aea090611279908a9089908690600401611d9b565b602060405180830381600087803b15801561129357600080fd5b505af11580156112a7573d6000803e3d6000fd5b505050506040513d601f19601f820116820180604052508101906112cb9190611bda565b6113235760405162461bcd60e51b815260206004820152602360248201527f756e61626c6520746f207472616e73666572416e6443616c6c20746f206f7261604482015262636c6560e81b60648201526084016102e7565b6001600460008282546113369190611d1b565b9091555091979650505050505050565b604080518082019091526060815260006020820152611366602083611dc2565b1561138e57611376602083611dc2565b611381906020611de4565b61138b9083611d1b565b91505b506020808301829052604080518085526000815283019091019052815b92915050565b601781116113d2576113cc8360e0600585901b1683176114b3565b50505050565b60ff81116113fc576113ef836018611fe0600586901b16176114b3565b506113cc838260016114d8565b61ffff81116114275761141a836019611fe0600586901b16176114b3565b506113cc838260026114d8565b63ffffffff81116114545761144783601a611fe0600586901b16176114b3565b506113cc838260046114d8565b67ffffffffffffffff811161075a5761147883601b611fe0600586901b16176114b3565b506113cc838260086114d8565b6040805180820190915260608152600060208201526114ac838460000151518485516114fe565b9392505050565b6040805180820190915260608152600060208201526114ac83846000015151846115e8565b60408051808201909152606081526000602082015261108c848560000151518585611644565b604080518082019091526060815260006020820152825182111561152157600080fd5b60208501516115308386611d1b565b111561156357611563856115538760200151878661154e9190611d1b565b6116c5565b61155e906002611dfb565b6116dc565b6000808651805187602083010193508088870111156115825787860182525b505050602084015b602084106115c257805182526115a1602083611d1b565b91506115ae602082611d1b565b90506115bb602085611de4565b935061158a565b51815160001960208690036101000a019081169019919091161790525083949350505050565b6040805180820190915260608152600060208201528360200151831061161d5761161d848560200151600261155e9190611dfb565b83518051602085830101848153508085141561163a576001810182525b5093949350505050565b60408051808201909152606081526000602082015260208501516116688584611d1b565b111561167c5761167c856115538685611d1b565b6000600161168c84610100611efe565b6116969190611de4565b90508551838682010185831982511617815250805184870111156116ba5783860181525b509495945050505050565b6000818311156116d65750816113ab565b50919050565b81516116e88383611346565b506113cc8382611485565b8280546116ff90611b67565b90600052602060002090601f0160209004810192826117215760008555611767565b82601f1061173a57805160ff1916838001178555611767565b82800160010185558215611767579182015b8281111561176757825182559160200191906001019061174c565b506117739291506117b2565b5090565b6040805160a0810182526000808252602080830182905282840182905260608084018390528451808601909552845283015290608082015290565b5b8082111561177357600081556001016117b3565b600080604083850312156117da57600080fd5b50508035926020909101359150565b80356001600160a01b038116811461180057600080fd5b919050565b634e487b7160e01b600052604160045260246000fd5b604051601f8201601f1916810167ffffffffffffffff8111828210171561184457611844611805565b604052919050565b600067ffffffffffffffff82111561186657611866611805565b50601f01601f191660200190565b600082601f83011261188557600080fd5b81356118986118938261184c565b61181b565b8181528460208386010111156118ad57600080fd5b816020850160208301376000918101602001919091529392505050565b60008060008060008060008060006101208a8c0312156118e957600080fd5b6118f28a6117e9565b985061190060208b016117e9565b975060408a013567ffffffffffffffff8082111561191d57600080fd5b6119298d838e01611874565b985060608c0135975060808c013591508082111561194657600080fd5b506119538c828d01611874565b95505061196260a08b016117e9565b935060c08a0135925060e08a013591506101008a013590509295985092959850929598565b60006020828403121561199957600080fd5b813567ffffffffffffffff8111156119b057600080fd5b61108c84828501611874565b60005b838110156119d75781810151838201526020016119bf565b838111156113cc5750506000910152565b60008151808452611a008160208601602086016119bc565b601f01601f19169290920160200192915050565b634e487b7160e01b600052602160045260246000fd5b60006101408c8352806020840152611a448184018d6119e8565b604084018c90526001600160a01b038b811660608601528a16608085015288151560a085015283810360c08501529050611a7e81886119e8565b905082810360e0840152611a9281876119e8565b9050828103610100840152611aa781866119e8565b91505060058310611ac857634e487b7160e01b600052602160045260246000fd5b826101208301529b9a5050505050505050505050565b600060208284031215611af057600080fd5b6114ac826117e9565b600060208284031215611b0b57600080fd5b815167ffffffffffffffff811115611b2257600080fd5b8201601f81018413611b3357600080fd5b8051611b416118938261184c565b818152856020838501011115611b5657600080fd5b61104e8260208301602086016119bc565b600181811c90821680611b7b57607f821691505b602082108114156116d657634e487b7160e01b600052602260045260246000fd5b604081526000611baf60408301846119e8565b8281036020840152600981526811195b1a5d995c995960ba1b60208201526040810191505092915050565b600060208284031215611bec57600080fd5b815180151581146114ac57600080fd5b6020815260006114ac60208301846119e8565b600060208284031215611c2157600080fd5b5051919050565b6020808252818101527f4f776e61626c653a2063616c6c6572206973206e6f7420746865206f776e6572604082015260600190565b600060208083526000845481600182811c915080831680611c7f57607f831692505b858310811415611c9d57634e487b7160e01b85526022600452602485fd5b878601838152602001818015611cba5760018114611ccb57611cf6565b60ff19861682528782019650611cf6565b60008b81526020902060005b86811015611cf057815484820152908501908901611cd7565b83019750505b50949998505050505050505050565b634e487b7160e01b600052601160045260246000fd5b60008219821115611d2e57611d2e611d05565b500190565b6001600160a01b0389811682526020820189905260408201889052861660608201526001600160e01b03198516608082015260a0810184905260c0810183905261010060e08201819052600090611d8c838201856119e8565b9b9a5050505050505050505050565b60018060a01b038416815282602082015260606040820152600061104e60608301846119e8565b600082611ddf57634e487b7160e01b600052601260045260246000fd5b500690565b600082821015611df657611df6611d05565b500390565b6000816000190483118215151615611e1557611e15611d05565b500290565b600181815b80851115611e55578160001904821115611e3b57611e3b611d05565b80851615611e4857918102915b93841c9390800290611e1f565b509250929050565b600082611e6c575060016113ab565b81611e79575060006113ab565b8160018114611e8f5760028114611e9957611eb5565b60019150506113ab565b60ff841115611eaa57611eaa611d05565b50506001821b6113ab565b5060208310610133831016604e8410600b8410161715611ed8575081810a6113ab565b611ee28383611e1a565b8060001904821115611ef657611ef6611d05565b029392505050565b60006114ac8383611e5d56fea2646970667358221220edd5ba01981ada99d045b12b1f7a48d5a190bb4dbed31a6a56bc6e5f0d508c5364736f6c63430008090033",
  "bytecodeSha1": "63d2087fc7496805e1c60a9fef6ade0c50aefc80",
  "compiler": {
    "evm_version": "istanbul",
    "optimizer": {
      "enabled": true,
      "runs": 200
    },
    "version": "0.8.9+commit.e5eed63a"
  },
  "contractName": "Escrow",
  "deployedBytecode": "6080604052600436106100dd5760003560e01c8063715018a61161007f578063bf15071d11610059578063bf15071d14610209578063bf9ce95214610211578063e12ed13c1461023c578063f2fde38b1461025257600080fd5b8063715018a6146101ac5780638da5cb5b146101c1578063959c1ea8146101e957600080fd5b80633fd8b02f116100bb5780633fd8b02f1461013957806350737055146101625780636a816548146101825780636b827cd41461019757600080fd5b806309d99f67146100e2578063168aec3614610104578063366e8e5214610124575b600080fd5b3480156100ee57600080fd5b506101026100fd3660046117c7565b610272565b005b34801561011057600080fd5b5061010261011f3660046118ca565b61052c565b34801561013057600080fd5b50610102610695565b34801561014557600080fd5b5061014f600b5481565b6040519081526020015b60405180910390f35b34801561016e57600080fd5b5061010261017d366004611987565b61075f565b34801561018e57600080fd5b5061010261083b565b3480156101a357600080fd5b506101026109be565b3480156101b857600080fd5b50610102610b4e565b3480156101cd57600080fd5b506006546040516001600160a01b039091168152602001610159565b3480156101f557600080fd5b50610102610204366004611987565b610b84565b610102610bc5565b34801561021d57600080fd5b50610226610d1f565b6040516101599a99989796959493929190611a2a565b34801561024857600080fd5b5061014f600c5481565b34801561025e57600080fd5b5061010261026d366004611ade565b610f97565b60008281526005602052604090205482906001600160a01b031633146102f05760405162461bcd60e51b815260206004820152602860248201527f536f75726365206d75737420626520746865206f7261636c65206f6620746865604482015267081c995c5d595cdd60c21b60648201526084015b60405180910390fd5b60008181526005602052604080822080546001600160a01b03191690555182917f7cc135e0cebb02c3480ae5d74d377283180a2601f8f644edf7987b009316c63a91a2604051639201de5560e01b81526004810183905273__$aadc688bcea560502e0213413fe0dcbaa2$__90639201de559060240160006040518083038186803b15801561037e57600080fd5b505af4158015610392573d6000803e3d6000fd5b505050506040513d6000823e601f3d908101601f191682016040526103ba9190810190611af9565b80516103ce916014916020909101906116f3565b50601480546103dc90611b67565b80601f016020809104026020016040519081016040528092919081815260200182805461040890611b67565b80156104555780601f1061042a57610100808354040283529160200191610455565b820191906000526020600020905b81548152906001019060200180831161043857829003601f168201915b5050604051635f69a5dd60e11b815273__$aadc688bcea560502e0213413fe0dcbaa2$__9463bed34bba945061049093509150600401611b9c565b60206040518083038186803b1580156104a857600080fd5b505af41580156104bc573d6000803e3d6000fd5b505050506040513d601f19601f820116820180604052508101906104e09190611bda565b156104f3576015805460ff191660031790555b6040518281527f65fb20badd0fcfd3bf3ba0ca9bfe4ec522640041a07decd17f1be1fb0ead4f4a906020015b60405180910390a1505050565b600a546001600160a01b031633146105725760405162461bcd60e51b81526020600482015260096024820152682327a92124a22222a760b91b60448201526064016102e7565b600280546001600160a01b0319166001600160a01b038b1617905561059684610f97565b600880546001600160a01b0319166001600160a01b038a161790556040516319f6a32560e31b815273__$aadc688bcea560502e0213413fe0dcbaa2$__9063cfb51928906105e8908a90600401611bfc565b60206040518083038186803b15801561060057600080fd5b505af4158015610614573d6000803e3d6000fd5b505050506040513d601f19601f820116820180604052508101906106389190611c0f565b600955600b8290556007819055600d869055845161065d90600e9060208801906116f3565b50506015805460ff1916905550601080546001600160a01b0319166001600160a01b039390931692909217909155600f555050505050565b6006546001600160a01b031633146106bf5760405162461bcd60e51b81526004016102e790611c28565b60408051808201909152600d81526c496e76616c696420537461676560981b60208201526003908160155460ff1660048111156106fe576106fe611a14565b14819061071e5760405162461bcd60e51b81526004016102e79190611bfc565b5060158054600460ff1990911617905560405133904780156108fc02916000818181858888f1935050505015801561075a573d6000803e3d6000fd5b505050565b6006546001600160a01b031633146107895760405162461bcd60e51b81526004016102e790611c28565b60408051808201909152600d81526c496e76616c696420537461676560981b60208201526001908160155460ff1660048111156107c8576107c8611a14565b1481906107e85760405162461bcd60e51b81526004016102e79190611bfc565b506015805460ff1916600217905582516108099060139060208601906116f3565b506040517f1862cf7a0e12bac162f518f43c2f50df187e89045899a7c015c1d61d9880a11b9061051f90601390611c5d565b6011546001600160a01b031633146108825760405162461bcd60e51b815260206004820152600a60248201526927b7363c90213abcb2b960b11b60448201526064016102e7565b6040805180820190915260148152737368697070696e6720696e2070726f677265737360601b60208201526001908160155460ff1660048111156108c8576108c8611a14565b1481906108e85760405162461bcd60e51b81526004016102e79190611bfc565b50600b54600c546108f99190611d1b565b4310156109485760405162461bcd60e51b815260206004820152601b60248201527f4e6f7420616c6c6f77656420746f2063616e63656c206f72646572000000000060448201526064016102e7565b601180546001600160a01b03191690556015805460ff1916905560405133904780156108fc02916000818181858888f1935050505015801561098e573d6000803e3d6000fd5b5060405133907f393629f15e859a19530bab9675f9d39f0f57889f19f883bc5be3533c4a2c9ea890600090a25050565b60408051808201909152600d81526c13995959081cda1a5c1b595b9d609a1b60208201526002908160155460ff1660048111156109fd576109fd611a14565b148190610a1d5760405162461bcd60e51b81526004016102e79190611bfc565b506000610a34600954306309d99f6760e01b611032565b9050610afa6040518060400160405280600a8152602001691d1c9858dada5b99d25960b21b815250600d6006018054610a6c90611b67565b80601f0160208091040260200160405190810160405280929190818152602001828054610a9890611b67565b8015610ae55780601f10610aba57610100808354040283529160200191610ae5565b820191906000526020600020905b815481529060010190602001808311610ac857829003601f168201915b5050505050836110579092919063ffffffff16565b600854600754600091610b1a916001600160a01b03909116908490611075565b60405190915081907fb5e6e01e79f91267dc17b4e6314d5d4d03593d2ceee0fbb452b750bd70ea5af990600090a250505050565b6006546001600160a01b03163314610b785760405162461bcd60e51b81526004016102e790611c28565b610b826000611094565b565b6006546001600160a01b03163314610bae5760405162461bcd60e51b81526004016102e790611c28565b8051610bc19060129060208401906116f3565b5050565b60408051808201909152601481527320b63932b0b23c903430bb32903090313abcb2b960611b60208201526000908160155460ff166004811115610c0b57610c0b611a14565b148190610c2b5760405162461bcd60e51b81526004016102e79190611bfc565b506006546001600160a01b0316331415610c875760405162461bcd60e51b815260206004820152601d60248201527f596f752063616e206e6f74206275792066726f6d20796f757273656c6600000060448201526064016102e7565b600f54341015610ccb5760405162461bcd60e51b815260206004820152600f60248201526e139bdd08195b9bdd59da08199d5b99608a1b60448201526064016102e7565b6015805460ff1916600117905560118054336001600160a01b0319909116811790915543600c556040517fe4caeaef8e4f0c4880839ca47219351b38cf4116c082fd0baefc3008e4ba11a390600090a25050565b600d8054600e8054919291610d3390611b67565b80601f0160208091040260200160405190810160405280929190818152602001828054610d5f90611b67565b8015610dac5780601f10610d8157610100808354040283529160200191610dac565b820191906000526020600020905b815481529060010190602001808311610d8f57829003601f168201915b50505050600283015460038401546004850154600586018054959693956001600160a01b03938416955092821693600160a01b90920460ff1692610def90611b67565b80601f0160208091040260200160405190810160405280929190818152602001828054610e1b90611b67565b8015610e685780601f10610e3d57610100808354040283529160200191610e68565b820191906000526020600020905b815481529060010190602001808311610e4b57829003601f168201915b505050505090806006018054610e7d90611b67565b80601f0160208091040260200160405190810160405280929190818152602001828054610ea990611b67565b8015610ef65780601f10610ecb57610100808354040283529160200191610ef6565b820191906000526020600020905b815481529060010190602001808311610ed957829003601f168201915b505050505090806007018054610f0b90611b67565b80601f0160208091040260200160405190810160405280929190818152602001828054610f3790611b67565b8015610f845780601f10610f5957610100808354040283529160200191610f84565b820191906000526020600020905b815481529060010190602001808311610f6757829003601f168201915b5050506008909301549192505060ff168a565b6006546001600160a01b03163314610fc15760405162461bcd60e51b81526004016102e790611c28565b6001600160a01b0381166110265760405162461bcd60e51b815260206004820152602660248201527f4f776e61626c653a206e6577206f776e657220697320746865207a65726f206160448201526564647265737360d01b60648201526084016102e7565b61102f81611094565b50565b61103a611777565b611042611777565b61104e818686866110e6565b95945050505050565b60808301516110669083611123565b608083015161075a9082611123565b600061108c84848460016320214ca360e11b61113a565b949350505050565b600680546001600160a01b038381166001600160a01b0319831681179093556040519116919082907f8be0079c531659141344cd1fd0a4f28419497f9722a3daafe3b4186f6b6457e090600090a35050565b6110ee611777565b6110fe8560800151610100611346565b50509183526001600160a01b031660208301526001600160e01b031916604082015290565b61113082600383516113b1565b61075a8282611485565b6004546040516bffffffffffffffffffffffff193060601b166020820152603481019190915260009060540160408051808303601f19018152918152815160209283012060045460608901526000818152600590935281832080546001600160a01b0319166001600160a01b038b16179055905190925082917fb5e6e01e79f91267dc17b4e6314d5d4d03593d2ceee0fbb452b750bd70ea5af991a2600082600080886000015189602001518a604001518b606001518a8d6080015160000151604051602401611211989796959493929190611d33565b60408051601f198184030181529181526020820180516001600160e01b03166001600160e01b0319909416939093179092526002549151630200057560e51b81529092506001600160a01b0390911690634000aea090611279908a9089908690600401611d9b565b602060405180830381600087803b15801561129357600080fd5b505af11580156112a7573d6000803e3d6000fd5b505050506040513d601f19601f820116820180604052508101906112cb9190611bda565b6113235760405162461bcd60e51b815260206004820152602360248201527f756e61626c6520746f207472616e73666572416e6443616c6c20746f206f7261604482015262636c6560e81b60648201526084016102e7565b6001600460008282546113369190611d1b565b9091555091979650505050505050565b604080518082019091526060815260006020820152611366602083611dc2565b1561138e57611376602083611dc2565b611381906020611de4565b61138b9083611d1b565b91505b506020808301829052604080518085526000815283019091019052815b92915050565b601781116113d2576113cc8360e0600585901b1683176114b3565b50505050565b60ff81116113fc576113ef836018611fe0600586901b16176114b3565b506113cc838260016114d8565b61ffff81116114275761141a836019611fe0600586901b16176114b3565b506113cc838260026114d8565b63ffffffff81116114545761144783601a611fe0600586901b16176114b3565b506113cc838260046114d8565b67ffffffffffffffff811161075a5761147883601b611fe0600586901b16176114b3565b506113cc838260086114d8565b6040805180820190915260608152600060208201526114ac838460000151518485516114fe565b9392505050565b6040805180820190915260608152600060208201526114ac83846000015151846115e8565b60408051808201909152606081526000602082015261108c848560000151518585611644565b604080518082019091526060815260006020820152825182111561152157600080fd5b60208501516115308386611d1b565b111561156357611563856115538760200151878661154e9190611d1b565b6116c5565b61155e906002611dfb565b6116dc565b6000808651805187602083010193508088870111156115825787860182525b505050602084015b602084106115c257805182526115a1602083611d1b565b91506115ae602082611d1b565b90506115bb602085611de4565b935061158a565b51815160001960208690036101000a019081169019919091161790525083949350505050565b6040805180820190915260608152600060208201528360200151831061161d5761161d848560200151600261155e9190611dfb565b83518051602085830101848153508085141561163a576001810182525b5093949350505050565b60408051808201909152606081526000602082015260208501516116688584611d1b565b111561167c5761167c856115538685611d1b565b6000600161168c84610100611efe565b6116969190611de4565b90508551838682010185831982511617815250805184870111156116ba5783860181525b509495945050505050565b6000818311156116d65750816113ab565b50919050565b81516116e88383611346565b506113cc8382611485565b8280546116ff90611b67565b90600052602060002090601f0160209004810192826117215760008555611767565b82601f1061173a57805160ff1916838001178555611767565b82800160010185558215611767579182015b8281111561176757825182559160200191906001019061174c565b506117739291506117b2565b5090565b6040805160a0810182526000808252602080830182905282840182905260608084018390528451808601909552845283015290608082015290565b5b8082111561177357600081556001016117b3565b600080604083850312156117da57600080fd5b50508035926020909101359150565b80356001600160a01b038116811461180057600080fd5b919050565b634e487b7160e01b600052604160045260246000fd5b604051601f8201601f1916810167ffffffffffffffff8111828210171561184457611844611805565b604052919050565b600067ffffffffffffffff82111561186657611866611805565b50601f01601f191660200190565b600082601f83011261188557600080fd5b81356118986118938261184c565b61181b565b8181528460208386010111156118ad57600080fd5b816020850160208301376000918101602001919091529392505050565b60008060008060008060008060006101208a8c0312156118e957600080fd5b6118f28a6117e9565b985061190060208b016117e9565b975060408a013567ffffffffffffffff8082111561191d57600080fd5b6119298d838e01611874565b985060608c0135975060808c013591508082111561194657600080fd5b506119538c828d01611874565b95505061196260a08b016117e9565b935060c08a0135925060e08a013591506101008a013590509295985092959850929598565b60006020828403121561199957600080fd5b813567ffffffffffffffff8111156119b057600080fd5b61108c84828501611874565b60005b838110156119d75781810151838201526020016119bf565b838111156113cc5750506000910152565b60008151808452611a008160208601602086016119bc565b601f01601f19169290920160200192915050565b634e487b7160e01b600052602160045260246000fd5b60006101408c8352806020840152611a448184018d6119e8565b604084018c90526001600160a01b038b811660608601528a16608085015288151560a085015283810360c08501529050611a7e81886119e8565b905082810360e0840152611a9281876119e8565b9050828103610100840152611aa781866119e8565b91505060058310611ac857634e487b7160e01b600052602160045260246000fd5b826101208301529b9a5050505050505050505050565b600060208284031215611af057600080fd5b6114ac826117e9565b600060208284031215611b0b57600080fd5b815167ffffffffffffffff811115611b2257600080fd5b8201601f81018413611b3357600080fd5b8051611b416118938261184c565b818152856020838501011115611b5657600080fd5b61104e8260208301602086016119bc565b600181811c90821680611b7b57607f821691505b602082108114156116d657634e487b7160e01b600052602260045260246000fd5b604081526000611baf60408301846119e8565b8281036020840152600981526811195b1a5d995c995960ba1b60208201526040810191505092915050565b600060208284031215611bec57600080fd5b815180151581146114ac57600080fd5b6020815260006114ac60208301846119e8565b600060208284031215611c2157600080fd5b5051919050565b6020808252818101527f4f776e61626c653a2063616c6c6572206973206e6f7420746865206f776e6572604082015260600190565b600060208083526000845481600182811c915080831680611c7f57607f831692505b858310811415611c9d57634e487b7160e01b85526022600452602485fd5b878601838152602001818015611cba5760018114611ccb57611cf6565b60ff19861682528782019650611cf6565b60008b81526020902060005b86811015611cf057815484820152908501908901611cd7565b83019750505b50949998505050505050505050565b634e487b7160e01b600052601160045260246000fd5b60008219821115611d2e57611d2e611d05565b500190565b6001600160a01b0389811682526020820189905260408201889052861660608201526001600160e01b03198516608082015260a0810184905260c0810183905261010060e08201819052600090611d8c838201856119e8565b9b9a5050505050505050505050565b60018060a01b038416815282602082015260606040820152600061104e60608301846119e8565b600082611ddf57634e487b7160e01b600052601260045260246000fd5b500690565b600082821015611df657611df6611d05565b500390565b6000816000190483118215151615611e1557611e15611d05565b500290565b600181815b80851115611e55578160001904821115611e3b57611e3b611d05565b80851615611e4857918102915b93841c9390800290611e1f565b509250929050565b600082611e6c575060016113ab565b81611e79575060006113ab565b8160018114611e8f5760028114611e9957611eb5565b60019150506113ab565b60ff841115611eaa57611eaa611d05565b50506001821b6113ab565b5060208310610133831016604e8410600b8410161715611ed8575081810a6113ab565b611ee28383611e1a565b8060001904821115611ef657611ef6611d05565b029392505050565b60006114ac8383611e5d56fea2646970667358221220edd5ba01981ada99d045b12b1f7a48d5a190bb4dbed31a6a56bc6e5f0d508c5364736f6c63430008090033",
  "language": "Solidity",
  "natspec": {
    "kind": "dev",
    "methods": {
      "owner()": {
        "details": "Returns the address of the current owner."
      },
      "renounceOwnership()": {
        "details": "Leaves the contract without owner. It will not be possible to call `onlyOwner` functions anymore. Can only be called by the current owner. NOTE: Renouncing ownership will leave the contract without an owner, thereby removing any functionality that is only available to the owner."
      },
      "transferOwnership(address)": {
        "details": "Transfers ownership of the contract to a new account (`newOwner`). Can only be called by the current owner."
      }
    },
    "version": 1
  },
  "opcodes": "PUSH1 0x80 PUSH1 0x40 MSTORE PUSH1 0x4 CALLDATASIZE LT PUSH2 0xDD JUMPI PUSH1 0x0 CALLDATALOAD PUSH1 0xE0 SHR DUP1 PUSH4 0x715018A6 GT PUSH2 0x7F JUMPI DUP1 PUSH4 0xBF15071D GT PUSH2 0x59 JUMPI DUP1 PUSH4 0xBF15071D EQ PUSH2 0x209 JUMPI DUP1 PUSH4 0xBF9CE952 EQ PUSH2 0x211 JUMPI DUP1 PUSH4 0xE12ED13C EQ PUSH2 0x23C JUMPI DUP1 PUSH4 0xF2FDE38B EQ PUSH2 0x252 JUMPI PUSH1 0x0 DUP1 REVERT JUMPDEST DUP1 PUSH4 0x715018A6 EQ PUSH2 0x1AC JUMPI DUP1 PUSH4 0x8DA5CB5B EQ PUSH2 0x1C1 JUMPI DUP1 PUSH4 0x959C1EA8 EQ PUSH2 0x1E9 JUMPI PUSH1 0x0 DUP1 REVERT JUMPDEST DUP1 PUSH4 0x3FD8B02F GT PUSH2 0xBB JUMPI DUP1 PUSH4 0x3FD8B02F EQ PUSH2 0x139 JUMPI DUP1 PUSH4 0x50737055 EQ PUSH2 0x162 JUMPI DUP1 PUSH4 0x6A816548 EQ PUSH2 0x182 JUMPI DUP1 PUSH4 0x6B827CD4 EQ PUSH2 0x197 JUMPI PUSH1 0x0 DUP1 REVERT JUMPDEST DUP1 PUSH4 0x9D99F67 EQ PUSH2 0xE2 JUMPI DUP1 PUSH4 0x168AEC36 EQ PUSH2 0x104 JUMPI DUP1 PUSH4 0x366E8E52 EQ PUSH2 0x124 JUMPI JUMPDEST PUSH1 0x0 DUP1 REVERT JUMPDEST CALLVALUE DUP1 ISZERO PUSH2 0xEE JUMPI PUSH1 0x0 DUP1 REVERT JUMPDEST POP PUSH2 0x102 PUSH2 0xFD CALLDATASIZE PUSH1 0x4 PUSH2 0x17C7 JUMP JUMPDEST PUSH2 0x272 JUMP JUMPDEST STOP JUMPDEST CALLVALUE DUP1 ISZERO PUSH2 0x110 JUMPI PUSH1 0x0 DUP1 REVERT JUMPDEST POP PUSH2 0x102 PUSH2 0x11F CALLDATASIZE PUSH1 0x4 PUSH2 0x18CA JUMP JUMPDEST PUSH2 0x52C JUMP JUMPDEST CALLVALUE DUP1 ISZERO PUSH2 0x130 JUMPI PUSH1 0x0 DUP1 REVERT JUMPDEST POP PUSH2 0x102 PUSH2 0x695 JUMP JUMPDEST CALLVALUE DUP1 ISZERO PUSH2 0x145 JUMPI PUSH1 0x0 DUP1 REVERT JUMPDEST POP PUSH2 0x14F PUSH1 0xB SLOAD DUP2 JUMP JUMPDEST PUSH1 0x40 MLOAD SWAP1 DUP2 MSTORE PUSH1 0x20 ADD JUMPDEST PUSH1 0x40 MLOAD DUP1 SWAP2 SUB SWAP1 RETURN JUMPDEST CALLVALUE DUP1 ISZERO PUSH2 0x16E JUMPI PUSH1 0x0 DUP1 REVERT JUMPDEST POP PUSH2 0x102 PUSH2 0x17D CALLDATASIZE PUSH1 0x4 PUSH2 0x1987 JUMP JUMPDEST PUSH2 0x75F JUMP JUMPDEST CALLVALUE DUP1 ISZERO PUSH2 0x18E JUMPI PUSH1 0x0 DUP1 REVERT JUMPDEST POP PUSH2 0x102 PUSH2 0x83B JUMP JUMPDEST CALLVALUE DUP1 ISZERO PUSH2 0x1A3 JUMPI PUSH1 0x0 DUP1 REVERT JUMPDEST POP PUSH2 0x102 PUSH2 0x9BE JUMP JUMPDEST CALLVALUE DUP1 ISZERO PUSH2 0x1B8 JUMPI PUSH1 0x0 DUP1 REVERT JUMPDEST POP PUSH2 0x102 PUSH2 0xB4E JUMP JUMPDEST CALLVALUE DUP1 ISZERO PUSH2 0x1CD JUMPI PUSH1 0x0 DUP1 REVERT JUMPDEST POP PUSH1 0x6 SLOAD PUSH1 0x40 MLOAD PUSH1 0x1 PUSH1 0x1 PUSH1 0xA0 SHL SUB SWAP1 SWAP2 AND DUP2 MSTORE PUSH1 0x20 ADD PUSH2 0x159 JUMP JUMPDEST CALLVALUE DUP1 ISZERO PUSH2 0x1F5 JUMPI PUSH1 0x0 DUP1 REVERT JUMPDEST POP PUSH2 0x102 PUSH2 0x204 CALLDATASIZE PUSH1 0x4 PUSH2 0x1987 JUMP JUMPDEST PUSH2 0xB84 JUMP JUMPDEST PUSH2 0x102 PUSH2 0xBC5 JUMP JUMPDEST CALLVALUE DUP1 ISZERO PUSH2 0x21D JUMPI PUSH1 0x0 DUP1 REVERT JUMPDEST POP PUSH2 0x226 PUSH2 0xD1F JUMP JUMPDEST PUSH1 0x40 MLOAD PUSH2 0x159 SWAP11 SWAP10 SWAP9 SWAP8 SWAP7 SWAP6 SWAP5 SWAP4 SWAP3 SWAP2 SWAP1 PUSH2 0x1A2A JUMP JUMPDEST CALLVALUE DUP1 ISZERO PUSH2 0x248 JUMPI PUSH1 0x0 DUP1 REVERT JUMPDEST POP PUSH2 0x14F PUSH1 0xC SLOAD DUP2 JUMP JUMPDEST CALLVALUE DUP1 ISZERO PUSH2 0x25E JUMPI PUSH1 0x0 DUP1 REVERT JUMPDEST POP PUSH2 0x102 PUSH2 0x26D CALLDATASIZE PUSH1 0x4 PUSH2 0x1ADE JUMP JUMPDEST PUSH2 0xF97 JUMP JUMPDEST PUSH1 0x0 DUP3 DUP2 MSTORE PUSH1 0x5 PUSH1 0x20 MSTORE PUSH1 0x40 SWAP1 KECCAK256 SLOAD DUP3 SWAP1 PUSH1 0x1 PUSH1 0x1 PUSH1 0xA0 SHL SUB AND CALLER EQ PUSH2 0x2F0 JUMPI PUSH1 0x40 MLOAD PUSH3 0x461BCD PUSH1 0xE5 SHL DUP2 MSTORE PUSH1 0x20 PUSH1 0x4 DUP3 ADD MSTORE PUSH1 0x28 PUSH1 0x24 DUP3 ADD MSTORE PUSH32 0x536F75726365206D75737420626520746865206F7261636C65206F6620746865 PUSH1 0x44 DUP3 ADD MSTORE PUSH8 0x81C995C5D595CDD PUSH1 0xC2 SHL PUSH1 0x64 DUP3 ADD MSTORE PUSH1 0x84 ADD JUMPDEST PUSH1 0x40 MLOAD DUP1 SWAP2 SUB SWAP1 REVERT JUMPDEST PUSH1 0x0 DUP2 DUP2 MSTORE PUSH1 0x5 PUSH1 0x20 MSTORE PUSH1 0x40 DUP1 DUP3 KECCAK256 DUP1 SLOAD PUSH1 0x1 PUSH1 0x1 PUSH1 0xA0 SHL SUB NOT AND SWAP1 SSTORE MLOAD DUP3 SWAP2 PUSH32 0x7CC135E0CEBB02C3480AE5D74D377283180A2601F8F644EDF7987B009316C63A SWAP2 LOG2 PUSH1 0x40 MLOAD PUSH4 0x9201DE55 PUSH1 0xE0 SHL DUP2 MSTORE PUSH1 0x4 DUP2 ADD DUP4 SWAP1 MSTORE PUSH20 0x0 SWAP1 PUSH4 0x9201DE55 SWAP1 PUSH1 0x24 ADD PUSH1 0x0 PUSH1 0x40 MLOAD DUP1 DUP4 SUB DUP2 DUP7 DUP1 EXTCODESIZE ISZERO DUP1 ISZERO PUSH2 0x37E JUMPI PUSH1 0x0 DUP1 REVERT JUMPDEST POP GAS DELEGATECALL ISZERO DUP1 ISZERO PUSH2 0x392 JUMPI RETURNDATASIZE PUSH1 0x0 DUP1 RETURNDATACOPY RETURNDATASIZE PUSH1 0x0 REVERT JUMPDEST POP POP POP POP PUSH1 0x40 MLOAD RETURNDATASIZE PUSH1 0x0 DUP3 RETURNDATACOPY PUSH1 0x1F RETURNDATASIZE SWAP1 DUP2 ADD PUSH1 0x1F NOT AND DUP3 ADD PUSH1 0x40 MSTORE PUSH2 0x3BA SWAP2 SWAP1 DUP2 ADD SWAP1 PUSH2 0x1AF9 JUMP JUMPDEST DUP1 MLOAD PUSH2 0x3CE SWAP2 PUSH1 0x14 SWAP2 PUSH1 0x20 SWAP1 SWAP2 ADD SWAP1 PUSH2 0x16F3 JUMP JUMPDEST POP PUSH1 0x14 DUP1 SLOAD PUSH2 0x3DC SWAP1 PUSH2 0x1B67 JUMP JUMPDEST DUP1 PUSH1 0x1F ADD PUSH1 0x20 DUP1 SWAP2 DIV MUL PUSH1 0x20 ADD PUSH1 0x40 MLOAD SWAP1 DUP2 ADD PUSH1 0x40 MSTORE DUP1 SWAP3 SWAP2 SWAP1 DUP2 DUP2 MSTORE PUSH1 0x20 ADD DUP3 DUP1 SLOAD PUSH2 0x408 SWAP1 PUSH2 0x1B67 JUMP JUMPDEST DUP1 ISZERO PUSH2 0x455 JUMPI DUP1 PUSH1 0x1F LT PUSH2 0x42A JUMPI PUSH2 0x100 DUP1 DUP4 SLOAD DIV MUL DUP4 MSTORE SWAP2 PUSH1 0x20 ADD SWAP2 PUSH2 0x455 JUMP JUMPDEST DUP3 ADD SWAP2 SWAP1 PUSH1 0x0 MSTORE PUSH1 0x20 PUSH1 0x0 KECCAK256 SWAP1 JUMPDEST DUP2 SLOAD DUP2 MSTORE SWAP1 PUSH1 0x1 ADD SWAP1 PUSH1 0x20 ADD DUP1 DUP4 GT PUSH2 0x438 JUMPI DUP3 SWAP1 SUB PUSH1 0x1F AND DUP3 ADD SWAP2 JUMPDEST POP POP PUSH1 0x40 MLOAD PUSH4 0x5F69A5DD PUSH1 0xE1 SHL DUP2 MSTORE PUSH20 0x0 SWAP5 PUSH4 0xBED34BBA SWAP5 POP PUSH2 0x490 SWAP4 POP SWAP2 POP PUSH1 0x4 ADD PUSH2 0x1B9C JUMP JUMPDEST PUSH1 0x20 PUSH1 0x40 MLOAD DUP1 DUP4 SUB DUP2 DUP7 DUP1 EXTCODESIZE ISZERO DUP1 ISZERO PUSH2 0x4A8 JUMPI PUSH1 0x0 DUP1 REVERT JUMPDEST POP GAS DELEGATECALL ISZERO DUP1 ISZERO PUSH2 0x4BC JUMPI RETURNDATASIZE PUSH1 0x0 DUP1 RETURNDATACOPY RETURNDATASIZE PUSH1 0x0 REVERT JUMPDEST POP POP POP POP PUSH1 0x40 MLOAD RETURNDATASIZE PUSH1 0x1F NOT PUSH1 0x1F DUP3 ADD AND DUP3 ADD DUP1 PUSH1 0x40 MSTORE POP DUP2 ADD SWAP1 PUSH2 0x4E0 SWAP2 SWAP1 PUSH2 0x1BDA JUMP JUMPDEST ISZERO PUSH2 0x4F3 JUMPI PUSH1 0x15 DUP1 SLOAD PUSH1 0xFF NOT AND PUSH1 0x3 OR SWAP1 SSTORE JUMPDEST PUSH1 0x40 MLOAD DUP3 DUP2 MSTORE PUSH32 0x65FB20BADD0FCFD3BF3BA0CA9BFE4EC522640041A07DECD17F1BE1FB0EAD4F4A SWAP1 PUSH1 0x20 ADD JUMPDEST PUSH1 0x40 MLOAD DUP1 SWAP2 SUB SWAP1 LOG1 POP POP POP JUMP JUMPDEST PUSH1 0xA SLOAD PUSH1 0x1 PUSH1 0x1 PUSH1 0xA0 SHL SUB AND CALLER EQ PUSH2 0x572 JUMPI PUSH1 0x40 MLOAD PUSH3 0x461BCD PUSH1 0xE5 SHL DUP2 MSTORE PUSH1 0x20 PUSH1 0x4 DUP3 ADD MSTORE PUSH1 0x9 PUSH1 0x24 DUP3 ADD MSTORE PUSH9 0x2327A92124A22222A7 PUSH1 0xB9 SHL PUSH1 0x44 DUP3 ADD MSTORE PUSH1 0x64 ADD PUSH2 0x2E7 JUMP JUMPDEST PUSH1 0x2 DUP1 SLOAD PUSH1 0x1 PUSH1 0x1 PUSH1 0xA0 SHL SUB NOT AND PUSH1 0x1 PUSH1 0x1 PUSH1 0xA0 SHL SUB DUP12 AND OR SWAP1 SSTORE PUSH2 0x596 DUP5 PUSH2 0xF97 JUMP JUMPDEST PUSH1 0x8 DUP1 SLOAD PUSH1 0x1 PUSH1 0x1 PUSH1 0xA0 SHL SUB NOT AND PUSH1 0x1 PUSH1 0x1 PUSH1 0xA0 SHL SUB DUP11 AND OR SWAP1 SSTORE PUSH1 0x40 MLOAD PUSH4 0x19F6A325 PUSH1 0xE3 SHL DUP2 MSTORE PUSH20 0x0 SWAP1 PUSH4 0xCFB51928 SWAP1 PUSH2 0x5E8 SWAP1 DUP11 SWAP1 PUSH1 0x4 ADD PUSH2 0x1BFC JUMP JUMPDEST PUSH1 0x20 PUSH1 0x40 MLOAD DUP1 DUP4 SUB DUP2 DUP7 DUP1 EXTCODESIZE ISZERO DUP1 ISZERO PUSH2 0x600 JUMPI PUSH1 0x0 DUP1 REVERT JUMPDEST POP GAS DELEGATECALL ISZERO DUP1 ISZERO PUSH2 0x614 JUMPI RETURNDATASIZE PUSH1 0x0 DUP1 RETURNDATACOPY RETURNDATASIZE PUSH1 0x0 REVERT JUMPDEST POP POP POP POP PUSH1 0x40 MLOAD RETURNDATASIZE PUSH1 0x1F NOT PUSH1 0x1F DUP3 ADD AND DUP3 ADD DUP1 PUSH1 0x40 MSTORE POP DUP2 ADD SWAP1 PUSH2 0x638 SWAP2 SWAP1 PUSH2 0x1C0F JUMP JUMPDEST PUSH1 0x9 SSTORE PUSH1 0xB DUP3 SWAP1 SSTORE PUSH1 0x7 DUP2 SWAP1 SSTORE PUSH1 0xD DUP7 SWAP1 SSTORE DUP5 MLOAD PUSH2 0x65D SWAP1 PUSH1 0xE SWAP1 PUSH1 0x20 DUP9 ADD SWAP1 PUSH2 0x16F3 JUMP JUMPDEST POP POP PUSH1 0x15 DUP1 SLOAD PUSH1 0xFF NOT AND SWAP1 SSTORE POP PUSH1 0x10 DUP1 SLOAD PUSH1 0x1 PUSH1 0x1 PUSH1 0xA0 SHL SUB NOT AND PUSH1 0x1 PUSH1 0x1 PUSH1 0xA0 SHL SUB SWAP4 SWAP1 SWAP4 AND SWAP3 SWAP1 SWAP3 OR SWAP1 SWAP2 SSTORE PUSH1 0xF SSTORE POP POP POP POP POP JUMP JUMPDEST PUSH1 0x6 SLOAD PUSH1 0x1 PUSH1 0x1 PUSH1 0xA0 SHL SUB AND CALLER EQ PUSH2 0x6BF JUMPI PUSH1 0x40 MLOAD PUSH3 0x461BCD PUSH1 0xE5 SHL DUP2 MSTORE PUSH1 0x4 ADD PUSH2 0x2E7 SWAP1 PUSH2 0x1C28 JUMP JUMPDEST PUSH1 0x40 DUP1 MLOAD DUP1 DUP3 ADD SWAP1 SWAP2 MSTORE PUSH1 0xD DUP2 MSTORE PUSH13 0x496E76616C6964205374616765 PUSH1 0x98 SHL PUSH1 0x20 DUP3 ADD MSTORE PUSH1 0x3 SWAP1 DUP2 PUSH1 0x15 SLOAD PUSH1 0xFF AND PUSH1 0x4 DUP2 GT ISZERO PUSH2 0x6FE JUMPI PUSH2 0x6FE PUSH2 0x1A14 JUMP JUMPDEST EQ DUP2 SWAP1 PUSH2 0x71E JUMPI PUSH1 0x40 MLOAD PUSH3 0x461BCD PUSH1 0xE5 SHL DUP2 MSTORE PUSH1 0x4 ADD PUSH2 0x2E7 SWAP2 SWAP1 PUSH2 0x1BFC JUMP JUMPDEST POP PUSH1 0x15 DUP1 SLOAD PUSH1 0x4 PUSH1 0xFF NOT SWAP1 SWAP2 AND OR SWAP1 SSTORE PUSH1 0x40 MLOAD CALLER SWAP1 SELFBALANCE DUP1 ISZERO PUSH2 0x8FC MUL SWAP2 PUSH1 0x0 DUP2 DUP2 DUP2 DUP6 DUP9 DUP9 CALL SWAP4 POP POP POP POP ISZERO DUP1 ISZERO PUSH2 0x75A JUMPI RETURNDATASIZE PUSH1 0x0 DUP1 RETURNDATACOPY RETURNDATASIZE PUSH1 0x0 REVERT JUMPDEST POP POP POP JUMP JUMPDEST PUSH1 0x6 SLOAD PUSH1 0x1 PUSH1 0x1 PUSH1 0xA0 SHL SUB AND CALLER EQ PUSH2 0x789 JUMPI PUSH1 0x40 MLOAD PUSH3 0x461BCD PUSH1 0xE5 SHL DUP2 MSTORE PUSH1 0x4 ADD PUSH2 0x2E7 SWAP1 PUSH2 0x1C28 JUMP JUMPDEST PUSH1 0x40 DUP1 MLOAD DUP1 DUP3 ADD SWAP1 SWAP2 MSTORE PUSH1 0xD DUP2 MSTORE PUSH13 0x496E76616C6964205374616765 PUSH1 0x98 SHL PUSH1 0x20 DUP3 ADD MSTORE PUSH1 0x1 SWAP1 DUP2 PUSH1 0x15 SLOAD PUSH1 0xFF AND PUSH1 0x4 DUP2 GT ISZERO PUSH2 0x7C8 JUMPI PUSH2 0x7C8 PUSH2 0x1A14 JUMP JUMPDEST EQ DUP2 SWAP1 PUSH2 0x7E8 JUMPI PUSH1 0x40 MLOAD PUSH3 0x461BCD PUSH1 0xE5 SHL DUP2 MSTORE PUSH1 0x4 ADD PUSH2 0x2E7 SWAP2 SWAP1 PUSH2 0x1BFC JUMP JUMPDEST POP PUSH1 0x15 DUP1 SLOAD PUSH1 0xFF NOT AND PUSH1 0x2 OR SWAP1 SSTORE DUP3 MLOAD PUSH2 0x809 SWAP1 PUSH1 0x13 SWAP1 PUSH1 0x20 DUP7 ADD SWAP1 PUSH2 0x16F3 JUMP JUMPDEST POP PUSH1 0x40 MLOAD PUSH32 0x1862CF7A0E12BAC162F518F43C2F50DF187E89045899A7C015C1D61D9880A11B SWAP1 PUSH2 0x51F SWAP1 PUSH1 0x13 SWAP1 PUSH2 0x1C5D JUMP JUMPDEST PUSH1 0x11 SLOAD PUSH1 0x1 PUSH1 0x1 PUSH1 0xA0 SHL SUB AND CALLER EQ PUSH2 0x882 JUMPI PUSH1 0x40 MLOAD PUSH3 0x461BCD PUSH1 0xE5 SHL DUP2 MSTORE PUSH1 0x20 PUSH1 0x4 DUP3 ADD MSTORE PUSH1 0xA PUSH1 0x24 DUP3 ADD MSTORE PUSH10 0x27B7363C90213ABCB2B9 PUSH1 0xB1 SHL PUSH1 0x44 DUP3 ADD MSTORE PUSH1 0x64 ADD PUSH2 0x2E7 JUMP JUMPDEST PUSH1 0x40 DUP1 MLOAD DUP1 DUP3 ADD SWAP1 SWAP2 MSTORE PUSH1 0x14 DUP2 MSTORE PUSH20 0x7368697070696E6720696E2070726F6772657373 PUSH1 0x60 SHL PUSH1 0x20 DUP3 ADD MSTORE PUSH1 0x1 SWAP1 DUP2 PUSH1 0x15 SLOAD PUSH1 0xFF AND PUSH1 0x4 DUP2 GT ISZERO PUSH2 0x8C8 JUMPI PUSH2 0x8C8 PUSH2 0x1A14 JUMP JUMPDEST EQ DUP2 SWAP1 PUSH2 0x8E8 JUMPI PUSH1 0x40 MLOAD PUSH3 0x461BCD PUSH1 0xE5 SHL DUP2 MSTORE PUSH1 0x4 ADD PUSH2 0x2E7 SWAP2 SWAP1 PUSH2 0x1BFC JUMP JUMPDEST POP PUSH1 0xB SLOAD PUSH1 0xC SLOAD PUSH2 0x8F9 SWAP2 SWAP1 PUSH2 0x1D1B JUMP JUMPDEST NUMBER LT ISZERO PUSH2 0x948 JUMPI PUSH1 0x40 MLOAD PUSH3 0x461BCD PUSH1 0xE5 SHL DUP2 MSTORE PUSH1 0x20 PUSH1 0x4 DUP3 ADD MSTORE PUSH1 0x1B PUSH1 0x24 DUP3 ADD MSTORE PUSH32 0x4E6F7420616C6C6F77656420746F2063616E63656C206F726465720000000000 PUSH1 0x44 DUP3 ADD MSTORE PUSH1 0x64 ADD PUSH2 0x2E7 JUMP JUMPDEST PUSH1 0x11 DUP1 SLOAD PUSH1 0x1 PUSH1 0x1 PUSH1 0xA0 SHL SUB NOT AND SWAP1 SSTORE PUSH1 0x15 DUP1 SLOAD PUSH1 0xFF NOT AND SWAP1 SSTORE PUSH1 0x40 MLOAD CALLER SWAP1 SELFBALANCE DUP1 ISZERO PUSH2 0x8FC MUL SWAP2 PUSH1 0x0 DUP2 DUP2 DUP2 DUP6 DUP9 DUP9 CALL SWAP4 POP POP POP POP ISZERO DUP1 ISZERO PUSH2 0x98E JUMPI RETURNDATASIZE PUSH1 0x0 DUP1 RETURNDATACOPY RETURNDATASIZE PUSH1 0x0 REVERT JUMPDEST POP PUSH1 0x40 MLOAD CALLER SWAP1 PUSH32 0x393629F15E859A19530BAB9675F9D39F0F57889F19F883BC5BE3533C4A2C9EA8 SWAP1 PUSH1 0x0 SWAP1 LOG2 POP POP JUMP JUMPDEST PUSH1 0x40 DUP1 MLOAD DUP1 DUP3 ADD SWAP1 SWAP2 MSTORE PUSH1 0xD DUP2 MSTORE PUSH13 0x13995959081CDA1A5C1B595B9D PUSH1 0x9A SHL PUSH1 0x20 DUP3 ADD MSTORE PUSH1 0x2 SWAP1 DUP2 PUSH1 0x15 SLOAD PUSH1 0xFF AND PUSH1 0x4 DUP2 GT ISZERO PUSH2 0x9FD JUMPI PUSH2 0x9FD PUSH2 0x1A14 JUMP JUMPDEST EQ DUP2 SWAP1 PUSH2 0xA1D JUMPI PUSH1 0x40 MLOAD PUSH3 0x461BCD PUSH1 0xE5 SHL DUP2 MSTORE PUSH1 0x4 ADD PUSH2 0x2E7 SWAP2 SWAP1 PUSH2 0x1BFC JUMP JUMPDEST POP PUSH1 0x0 PUSH2 0xA34 PUSH1 0x9 SLOAD ADDRESS PUSH4 0x9D99F67 PUSH1 0xE0 SHL PUSH2 0x1032 JUMP JUMPDEST SWAP1 POP PUSH2 0xAFA PUSH1 0x40 MLOAD DUP1 PUSH1 0x40 ADD PUSH1 0x40 MSTORE DUP1 PUSH1 0xA DUP2 MSTORE PUSH1 0x20 ADD PUSH10 0x1D1C9858DADA5B99D259 PUSH1 0xB2 SHL DUP2 MSTORE POP PUSH1 0xD PUSH1 0x6 ADD DUP1 SLOAD PUSH2 0xA6C SWAP1 PUSH2 0x1B67 JUMP JUMPDEST DUP1 PUSH1 0x1F ADD PUSH1 0x20 DUP1 SWAP2 DIV MUL PUSH1 0x20 ADD PUSH1 0x40 MLOAD SWAP1 DUP2 ADD PUSH1 0x40 MSTORE DUP1 SWAP3 SWAP2 SWAP1 DUP2 DUP2 MSTORE PUSH1 0x20 ADD DUP3 DUP1 SLOAD PUSH2 0xA98 SWAP1 PUSH2 0x1B67 JUMP JUMPDEST DUP1 ISZERO PUSH2 0xAE5 JUMPI DUP1 PUSH1 0x1F LT PUSH2 0xABA JUMPI PUSH2 0x100 DUP1 DUP4 SLOAD DIV MUL DUP4 MSTORE SWAP2 PUSH1 0x20 ADD SWAP2 PUSH2 0xAE5 JUMP JUMPDEST DUP3 ADD SWAP2 SWAP1 PUSH1 0x0 MSTORE PUSH1 0x20 PUSH1 0x0 KECCAK256 SWAP1 JUMPDEST DUP2 SLOAD DUP2 MSTORE SWAP1 PUSH1 0x1 ADD SWAP1 PUSH1 0x20 ADD DUP1 DUP4 GT PUSH2 0xAC8 JUMPI DUP3 SWAP1 SUB PUSH1 0x1F AND DUP3 ADD SWAP2 JUMPDEST POP POP POP POP POP DUP4 PUSH2 0x1057 SWAP1 SWAP3 SWAP2 SWAP1 PUSH4 0xFFFFFFFF AND JUMP JUMPDEST PUSH1 0x8 SLOAD PUSH1 0x7 SLOAD PUSH1 0x0 SWAP2 PUSH2 0xB1A SWAP2 PUSH1 0x1 PUSH1 0x1 PUSH1 0xA0 SHL SUB SWAP1 SWAP2 AND SWAP1 DUP5 SWAP1 PUSH2 0x1075 JUMP JUMPDEST PUSH1 0x40 MLOAD SWAP1 SWAP2 POP DUP2 SWAP1 PUSH32 0xB5E6E01E79F91267DC17B4E6314D5D4D03593D2CEEE0FBB452B750BD70EA5AF9 SWAP1 PUSH1 0x0 SWAP1 LOG2 POP POP POP POP JUMP JUMPDEST PUSH1 0x6 SLOAD PUSH1 0x1 PUSH1 0x1 PUSH1 0xA0 SHL SUB AND CALLER EQ PUSH2 0xB78 JUMPI PUSH1 0x40 MLOAD PUSH3 0x461BCD PUSH1 0xE5 SHL DUP2 MSTORE PUSH1 0x4 ADD PUSH2 0x2E7 SWAP1 PUSH2 0x1C28 JUMP JUMPDEST PUSH2 0xB82 PUSH1 0x0 PUSH2 0x1094 JUMP JUMPDEST JUMP JUMPDEST PUSH1 0x6 SLOAD PUSH1 0x1 PUSH1 0x1 PUSH1 0xA0 SHL SUB AND CALLER EQ PUSH2 0xBAE JUMPI PUSH1 0x40 MLOAD PUSH3 0x461BCD PUSH1 0xE5 SHL DUP2 MSTORE PUSH1 0x4 ADD PUSH2 0x2E7 SWAP1 PUSH2 0x1C28 JUMP JUMPDEST DUP1 MLOAD PUSH2 0xBC1 SWAP1 PUSH1 0x12 SWAP1 PUSH1 0x20 DUP5 ADD SWAP1 PUSH2 0x16F3 JUMP JUMPDEST POP POP JUMP JUMPDEST PUSH1 0x40 DUP1 MLOAD DUP1 DUP3 ADD SWAP1 SWAP2 MSTORE PUSH1 0x14 DUP2 MSTORE PUSH20 0x20B63932B0B23C903430BB32903090313ABCB2B9 PUSH1 0x61 SHL PUSH1 0x20 DUP3 ADD MSTORE PUSH1 0x0 SWAP1 DUP2 PUSH1 0x15 SLOAD PUSH1 0xFF AND PUSH1 0x4 DUP2 GT ISZERO PUSH2 0xC0B JUMPI PUSH2 0xC0B PUSH2 0x1A14 JUMP JUMPDEST EQ DUP2 SWAP1 PUSH2 0xC2B JUMPI PUSH1 0x40 MLOAD PUSH3 0x461BCD PUSH1 0xE5 SHL DUP2 MSTORE PUSH1 0x4 ADD PUSH2 0x2E7 SWAP2 SWAP1 PUSH2 0x1BFC JUMP JUMPDEST POP PUSH1 0x6 SLOAD PUSH1 0x1 PUSH1 0x1 PUSH1 0xA0 SHL SUB AND CALLER EQ ISZERO PUSH2 0xC87 JUMPI PUSH1 0x40 MLOAD PUSH3 0x461BCD PUSH1 0xE5 SHL DUP2 MSTORE PUSH1 0x20 PUSH1 0x4 DUP3 ADD MSTORE PUSH1 0x1D PUSH1 0x24 DUP3 ADD MSTORE PUSH32 0x596F752063616E206E6F74206275792066726F6D20796F757273656C66000000 PUSH1 0x44 DUP3 ADD MSTORE PUSH1 0x64 ADD PUSH2 0x2E7 JUMP JUMPDEST PUSH1 0xF SLOAD CALLVALUE LT ISZERO PUSH2 0xCCB JUMPI PUSH1 0x40 MLOAD PUSH3 0x461BCD PUSH1 0xE5 SHL DUP2 MSTORE PUSH1 0x20 PUSH1 0x4 DUP3 ADD MSTORE PUSH1 0xF PUSH1 0x24 DUP3 ADD MSTORE PUSH15 0x139BDD08195B9BDD59DA08199D5B99 PUSH1 0x8A SHL PUSH1 0x44 DUP3 ADD MSTORE PUSH1 0x64 ADD PUSH2 0x2E7 JUMP JUMPDEST PUSH1 0x15 DUP1 SLOAD PUSH1 0xFF NOT AND PUSH1 0x1 OR SWAP1 SSTORE PUSH1 0x11 DUP1 SLOAD CALLER PUSH1 0x1 PUSH1 0x1 PUSH1 0xA0 SHL SUB NOT SWAP1 SWAP2 AND DUP2 OR SWAP1 SWAP2 SSTORE NUMBER PUSH1 0xC SSTORE PUSH1 0x40 MLOAD PUSH32 0xE4CAEAEF8E4F0C4880839CA47219351B38CF4116C082FD0BAEFC3008E4BA11A3 SWAP1 PUSH1 0x0 SWAP1 LOG2 POP POP JUMP JUMPDEST PUSH1 0xD DUP1 SLOAD PUSH1 0xE DUP1 SLOAD SWAP2 SWAP3 SWAP2 PUSH2 0xD33 SWAP1 PUSH2 0x1B67 JUMP JUMPDEST DUP1 PUSH1 0x1F ADD PUSH1 0x20 DUP1 SWAP2 DIV MUL PUSH1 0x20 ADD PUSH1 0x40 MLOAD SWAP1 DUP2 ADD PUSH1 0x40 MSTORE DUP1 SWAP3 SWAP2 SWAP1 DUP2 DUP2 MSTORE PUSH1 0x20 ADD DUP3 DUP1 SLOAD PUSH2 0xD5F SWAP1 PUSH2 0x1B67 JUMP JUMPDEST DUP1 ISZERO PUSH2 0xDAC JUMPI DUP1 PUSH1 0x1F LT PUSH2 0xD81 JUMPI PUSH2 0x100 DUP1 DUP4 SLOAD DIV MUL DUP4 MSTORE SWAP2 PUSH1 0x20 ADD SWAP2 PUSH2 0xDAC JUMP JUMPDEST DUP3 ADD SWAP2 SWAP1 PUSH1 0x0 MSTORE PUSH1 0x20 PUSH1 0x0 KECCAK256 SWAP1 JUMPDEST DUP2 SLOAD DUP2 MSTORE SWAP1 PUSH1 0x1 ADD SWAP1 PUSH1 0x20 ADD DUP1 DUP4 GT PUSH2 0xD8F JUMPI DUP3 SWAP1 SUB PUSH1 0x1F AND DUP3 ADD SWAP2 JUMPDEST POP POP POP POP PUSH1 0x2 DUP4 ADD SLOAD PUSH1 0x3 DUP5 ADD SLOAD PUSH1 0x4 DUP6 ADD SLOAD PUSH1 0x5 DUP7 ADD DUP1 SLOAD SWAP6 SWAP7 SWAP4 SWAP6 PUSH1 0x1 PUSH1 0x1 PUSH1 0xA0 SHL SUB SWAP4 DUP5 AND SWAP6 POP SWAP3 DUP3 AND SWAP4 PUSH1 0x1 PUSH1 0xA0 SHL SWAP1 SWAP3 DIV PUSH1 0xFF AND SWAP3 PUSH2 0xDEF SWAP1 PUSH2 0x1B67 JUMP JUMPDEST DUP1 PUSH1 0x1F ADD PUSH1 0x20 DUP1 SWAP2 DIV MUL PUSH1 0x20 ADD PUSH1 0x40 MLOAD SWAP1 DUP2 ADD PUSH1 0x40 MSTORE DUP1 SWAP3 SWAP2 SWAP1 DUP2 DUP2 MSTORE PUSH1 0x20 ADD DUP3 DUP1 SLOAD PUSH2 0xE1B SWAP1 PUSH2 0x1B67 JUMP JUMPDEST DUP1 ISZERO PUSH2 0xE68 JUMPI DUP1 PUSH1 0x1F LT PUSH2 0xE3D JUMPI PUSH2 0x100 DUP1 DUP4 SLOAD DIV MUL DUP4 MSTORE SWAP2 PUSH1 0x20 ADD SWAP2 PUSH2 0xE68 JUMP JUMPDEST DUP3 ADD SWAP2 SWAP1 PUSH1 0x0 MSTORE PUSH1 0x20 PUSH1 0x0 KECCAK256 SWAP1 JUMPDEST DUP2 SLOAD DUP2 MSTORE SWAP1 PUSH1 0x1 ADD SWAP1 PUSH1 0x20 ADD DUP1 DUP4 GT PUSH2 0xE4B JUMPI DUP3 SWAP1 SUB PUSH1 0x1F AND DUP3 ADD SWAP2 JUMPDEST POP POP POP POP POP SWAP1 DUP1 PUSH1 0x6 ADD DUP1 SLOAD PUSH2 0xE7D SWAP1 PUSH2 0x1B67 JUMP JUMPDEST DUP1 PUSH1 0x1F ADD PUSH1 0x20 DUP1 SWAP2 DIV MUL PUSH1 0x20 ADD PUSH1 0x40 MLOAD SWAP1 DUP2 ADD PUSH1 0x40 MSTORE DUP1 SWAP3 SWAP2 SWAP1 DUP2 DUP2 MSTORE PUSH1 0x20 ADD DUP3 DUP1 SLOAD PUSH2 0xEA9 SWAP1 PUSH2 0x1B67 JUMP JUMPDEST DUP1 ISZERO PUSH2 0xEF6 JUMPI DUP1 PUSH1 0x1F LT PUSH2 0xECB JUMPI PUSH2 0x100 DUP1 DUP4 SLOAD DIV MUL DUP4 MSTORE SWAP2 PUSH1 0x20 ADD SWAP2 PUSH2 0xEF6 JUMP JUMPDEST DUP3 ADD SWAP2 SWAP1 PUSH1 0x0 MSTORE PUSH1 0x20 PUSH1 0x0 KECCAK256 SWAP1 JUMPDEST DUP2 SLOAD DUP2 MSTORE SWAP1 PUSH1 0x1 ADD SWAP1 PUSH1 0x20 ADD DUP1 DUP4 GT PUSH2 0xED9 JUMPI DUP3 SWAP1 SUB PUSH1 0x1F AND DUP3 ADD SWAP2 JUMPDEST POP POP POP POP POP SWAP1 DUP1 PUSH1 0x7 ADD DUP1 SLOAD PUSH2 0xF0B SWAP1 PUSH2 0x1B67 JUMP JUMPDEST DUP1 PUSH1 0x1F ADD PUSH1 0x20 DUP1 SWAP2 DIV MUL PUSH1 0x20 ADD PUSH1 0x40 MLOAD SWAP1 DUP2 ADD PUSH1 0x40 MSTORE DUP1 SWAP3 SWAP2 SWAP1 DUP2 DUP2 MSTORE PUSH1 0x20 ADD DUP3 DUP1 SLOAD PUSH2 0xF37 SWAP1 PUSH2 0x1B67 JUMP JUMPDEST DUP1 ISZERO PUSH2 0xF84 JUMPI DUP1 PUSH1 0x1F LT PUSH2 0xF59 JUMPI PUSH2 0x100 DUP1 DUP4 SLOAD DIV MUL DUP4 MSTORE SWAP2 PUSH1 0x20 ADD SWAP2 PUSH2 0xF84 JUMP JUMPDEST DUP3 ADD SWAP2 SWAP1 PUSH1 0x0 MSTORE PUSH1 0x20 PUSH1 0x0 KECCAK256 SWAP1 JUMPDEST DUP2 SLOAD DUP2 MSTORE SWAP1 PUSH1 0x1 ADD SWAP1 PUSH1 0x20 ADD DUP1 DUP4 GT PUSH2 0xF67 JUMPI DUP3 SWAP1 SUB PUSH1 0x1F AND DUP3 ADD SWAP2 JUMPDEST POP POP POP PUSH1 0x8 SWAP1 SWAP4 ADD SLOAD SWAP2 SWAP3 POP POP PUSH1 0xFF AND DUP11 JUMP JUMPDEST PUSH1 0x6 SLOAD PUSH1 0x1 PUSH1 0x1 PUSH1 0xA0 SHL SUB AND CALLER EQ PUSH2 0xFC1 JUMPI PUSH1 0x40 MLOAD PUSH3 0x461BCD PUSH1 0xE5 SHL DUP2 MSTORE PUSH1 0x4 ADD PUSH2 0x2E7 SWAP1 PUSH2 0x1C28 JUMP JUMPDEST PUSH1 0x1 PUSH1 0x1 PUSH1 0xA0 SHL SUB DUP2 AND PUSH2 0x1026 JUMPI PUSH1 0x40 MLOAD PUSH3 0x461BCD PUSH1 0xE5 SHL DUP2 MSTORE PUSH1 0x20 PUSH1 0x4 DUP3 ADD MSTORE PUSH1 0x26 PUSH1 0x24 DUP3 ADD MSTORE PUSH32 0x4F776E61626C653A206E6577206F776E657220697320746865207A65726F2061 PUSH1 0x44 DUP3 ADD MSTORE PUSH6 0x646472657373 PUSH1 0xD0 SHL PUSH1 0x64 DUP3 ADD MSTORE PUSH1 0x84 ADD PUSH2 0x2E7 JUMP JUMPDEST PUSH2 0x102F DUP2 PUSH2 0x1094 JUMP JUMPDEST POP JUMP JUMPDEST PUSH2 0x103A PUSH2 0x1777 JUMP JUMPDEST PUSH2 0x1042 PUSH2 0x1777 JUMP JUMPDEST PUSH2 0x104E DUP2 DUP7 DUP7 DUP7 PUSH2 0x10E6 JUMP JUMPDEST SWAP6 SWAP5 POP POP POP POP POP JUMP JUMPDEST PUSH1 0x80 DUP4 ADD MLOAD PUSH2 0x1066 SWAP1 DUP4 PUSH2 0x1123 JUMP JUMPDEST PUSH1 0x80 DUP4 ADD MLOAD PUSH2 0x75A SWAP1 DUP3 PUSH2 0x1123 JUMP JUMPDEST PUSH1 0x0 PUSH2 0x108C DUP5 DUP5 DUP5 PUSH1 0x1 PUSH4 0x20214CA3 PUSH1 0xE1 SHL PUSH2 0x113A JUMP JUMPDEST SWAP5 SWAP4 POP POP POP POP JUMP JUMPDEST PUSH1 0x6 DUP1 SLOAD PUSH1 0x1 PUSH1 0x1 PUSH1 0xA0 SHL SUB DUP4 DUP2 AND PUSH1 0x1 PUSH1 0x1 PUSH1 0xA0 SHL SUB NOT DUP4 AND DUP2 OR SWAP1 SWAP4 SSTORE PUSH1 0x40 MLOAD SWAP2 AND SWAP2 SWAP1 DUP3 SWAP1 PUSH32 0x8BE0079C531659141344CD1FD0A4F28419497F9722A3DAAFE3B4186F6B6457E0 SWAP1 PUSH1 0x0 SWAP1 LOG3 POP POP JUMP JUMPDEST PUSH2 0x10EE PUSH2 0x1777 JUMP JUMPDEST PUSH2 0x10FE DUP6 PUSH1 0x80 ADD MLOAD PUSH2 0x100 PUSH2 0x1346 JUMP JUMPDEST POP POP SWAP2 DUP4 MSTORE PUSH1 0x1 PUSH1 0x1 PUSH1 0xA0 SHL SUB AND PUSH1 0x20 DUP4 ADD MSTORE PUSH1 0x1 PUSH1 0x1 PUSH1 0xE0 SHL SUB NOT AND PUSH1 0x40 DUP3 ADD MSTORE SWAP1 JUMP JUMPDEST PUSH2 0x1130 DUP3 PUSH1 0x3 DUP4 MLOAD PUSH2 0x13B1 JUMP JUMPDEST PUSH2 0x75A DUP3 DUP3 PUSH2 0x1485 JUMP JUMPDEST PUSH1 0x4 SLOAD PUSH1 0x40 MLOAD PUSH12 0xFFFFFFFFFFFFFFFFFFFFFFFF NOT ADDRESS PUSH1 0x60 SHL AND PUSH1 0x20 DUP3 ADD MSTORE PUSH1 0x34 DUP2 ADD SWAP2 SWAP1 SWAP2 MSTORE PUSH1 0x0 SWAP1 PUSH1 0x54 ADD PUSH1 0x40 DUP1 MLOAD DUP1 DUP4 SUB PUSH1 0x1F NOT ADD DUP2 MSTORE SWAP2 DUP2 MSTORE DUP2 MLOAD PUSH1 0x20 SWAP3 DUP4 ADD KECCAK256 PUSH1 0x4 SLOAD PUSH1 0x60 DUP10 ADD MSTORE PUSH1 0x0 DUP2 DUP2 MSTORE PUSH1 0x5 SWAP1 SWAP4 MSTORE DUP2 DUP4 KECCAK256 DUP1 SLOAD PUSH1 0x1 PUSH1 0x1 PUSH1 0xA0 SHL SUB NOT AND PUSH1 0x1 PUSH1 0x1 PUSH1 0xA0 SHL SUB DUP12 AND OR SWAP1 SSTORE SWAP1 MLOAD SWAP1 SWAP3 POP DUP3 SWAP2 PUSH32 0xB5E6E01E79F91267DC17B4E6314D5D4D03593D2CEEE0FBB452B750BD70EA5AF9 SWAP2 LOG2 PUSH1 0x0 DUP3 PUSH1 0x0 DUP1 DUP9 PUSH1 0x0 ADD MLOAD DUP10 PUSH1 0x20 ADD MLOAD DUP11 PUSH1 0x40 ADD MLOAD DUP12 PUSH1 0x60 ADD MLOAD DUP11 DUP14 PUSH1 0x80 ADD MLOAD PUSH1 0x0 ADD MLOAD PUSH1 0x40 MLOAD PUSH1 0x24 ADD PUSH2 0x1211 SWAP9 SWAP8 SWAP7 SWAP6 SWAP5 SWAP4 SWAP3 SWAP2 SWAP1 PUSH2 0x1D33 JUMP JUMPDEST PUSH1 0x40 DUP1 MLOAD PUSH1 0x1F NOT DUP2 DUP5 SUB ADD DUP2 MSTORE SWAP2 DUP2 MSTORE PUSH1 0x20 DUP3 ADD DUP1 MLOAD PUSH1 0x1 PUSH1 0x1 PUSH1 0xE0 SHL SUB AND PUSH1 0x1 PUSH1 0x1 PUSH1 0xE0 SHL SUB NOT SWAP1 SWAP5 AND SWAP4 SWAP1 SWAP4 OR SWAP1 SWAP3 MSTORE PUSH1 0x2 SLOAD SWAP2 MLOAD PUSH4 0x2000575 PUSH1 0xE5 SHL DUP2 MSTORE SWAP1 SWAP3 POP PUSH1 0x1 PUSH1 0x1 PUSH1 0xA0 SHL SUB SWAP1 SWAP2 AND SWAP1 PUSH4 0x4000AEA0 SWAP1 PUSH2 0x1279 SWAP1 DUP11 SWAP1 DUP10 SWAP1 DUP7 SWAP1 PUSH1 0x4 ADD PUSH2 0x1D9B JUMP JUMPDEST PUSH1 0x20 PUSH1 0x40 MLOAD DUP1 DUP4 SUB DUP2 PUSH1 0x0 DUP8 DUP1 EXTCODESIZE ISZERO DUP1 ISZERO PUSH2 0x1293 JUMPI PUSH1 0x0 DUP1 REVERT JUMPDEST POP GAS CALL ISZERO DUP1 ISZERO PUSH2 0x12A7 JUMPI RETURNDATASIZE PUSH1 0x0 DUP1 RETURNDATACOPY RETURNDATASIZE PUSH1 0x0 REVERT JUMPDEST POP POP POP POP PUSH1 0x40 MLOAD RETURNDATASIZE PUSH1 0x1F NOT PUSH1 0x1F DUP3 ADD AND DUP3 ADD DUP1 PUSH1 0x40 MSTORE POP DUP2 ADD SWAP1 PUSH2 0x12CB SWAP2 SWAP1 PUSH2 0x1BDA JUMP JUMPDEST PUSH2 0x1323 JUMPI PUSH1 0x40 MLOAD PUSH3 0x461BCD PUSH1 0xE5 SHL DUP2 MSTORE PUSH1 0x20 PUSH1 0x4 DUP3 ADD MSTORE PUSH1 0x23 PUSH1 0x24 DUP3 ADD MSTORE PUSH32 0x756E61626C6520746F207472616E73666572416E6443616C6C20746F206F7261 PUSH1 0x44 DUP3 ADD MSTORE PUSH3 0x636C65 PUSH1 0xE8 SHL PUSH1 0x64 DUP3 ADD MSTORE PUSH1 0x84 ADD PUSH2 0x2E7 JUMP JUMPDEST PUSH1 0x1 PUSH1 0x4 PUSH1 0x0 DUP3 DUP3 SLOAD PUSH2 0x1336 SWAP2 SWAP1 PUSH2 0x1D1B JUMP JUMPDEST SWAP1 SWAP2 SSTORE POP SWAP2 SWAP8 SWAP7 POP POP POP POP POP POP POP JUMP JUMPDEST PUSH1 0x40 DUP1 MLOAD DUP1 DUP3 ADD SWAP1 SWAP2 MSTORE PUSH1 0x60 DUP2 MSTORE PUSH1 0x0 PUSH1 0x20 DUP3 ADD MSTORE PUSH2 0x1366 PUSH1 0x20 DUP4 PUSH2 0x1DC2 JUMP JUMPDEST ISZERO PUSH2 0x138E JUMPI PUSH2 0x1376 PUSH1 0x20 DUP4 PUSH2 0x1DC2 JUMP JUMPDEST PUSH2 0x1381 SWAP1 PUSH1 0x20 PUSH2 0x1DE4 JUMP JUMPDEST PUSH2 0x138B SWAP1 DUP4 PUSH2 0x1D1B JUMP JUMPDEST SWAP2 POP JUMPDEST POP PUSH1 0x20 DUP1 DUP4 ADD DUP3 SWAP1 MSTORE PUSH1 0x40 DUP1 MLOAD DUP1 DUP6 MSTORE PUSH1 0x0 DUP2 MSTORE DUP4 ADD SWAP1 SWAP2 ADD SWAP1 MSTORE DUP2 JUMPDEST SWAP3 SWAP2 POP POP JUMP JUMPDEST PUSH1 0x17 DUP2 GT PUSH2 0x13D2 JUMPI PUSH2 0x13CC DUP4 PUSH1 0xE0 PUSH1 0x5 DUP6 SWAP1 SHL AND DUP4 OR PUSH2 0x14B3 JUMP JUMPDEST POP POP POP POP JUMP JUMPDEST PUSH1 0xFF DUP2 GT PUSH2 0x13FC JUMPI PUSH2 0x13EF DUP4 PUSH1 0x18 PUSH2 0x1FE0 PUSH1 0x5 DUP7 SWAP1 SHL AND OR PUSH2 0x14B3 JUMP JUMPDEST POP PUSH2 0x13CC DUP4 DUP3 PUSH1 0x1 PUSH2 0x14D8 JUMP JUMPDEST PUSH2 0xFFFF DUP2 GT PUSH2 0x1427 JUMPI PUSH2 0x141A DUP4 PUSH1 0x19 PUSH2 0x1FE0 PUSH1 0x5 DUP7 SWAP1 SHL AND OR PUSH2 0x14B3 JUMP JUMPDEST POP PUSH2 0x13CC DUP4 DUP3 PUSH1 0x2 PUSH2 0x14D8 JUMP JUMPDEST PUSH4 0xFFFFFFFF DUP2 GT PUSH2 0x1454 JUMPI PUSH2 0x1447 DUP4 PUSH1 0x1A PUSH2 0x1FE0 PUSH1 0x5 DUP7 SWAP1 SHL AND OR PUSH2 0x14B3 JUMP JUMPDEST POP PUSH2 0x13CC DUP4 DUP3 PUSH1 0x4 PUSH2 0x14D8 JUMP JUMPDEST PUSH8 0xFFFFFFFFFFFFFFFF DUP2 GT PUSH2 0x75A JUMPI PUSH2 0x1478 DUP4 PUSH1 0x1B PUSH2 0x1FE0 PUSH1 0x5 DUP7 SWAP1 SHL AND OR PUSH2 0x14B3 JUMP JUMPDEST POP PUSH2 0x13CC DUP4 DUP3 PUSH1 0x8 PUSH2 0x14D8 JUMP JUMPDEST PUSH1 0x40 DUP1 MLOAD DUP1 DUP3 ADD SWAP1 SWAP2 MSTORE PUSH1 0x60 DUP2 MSTORE PUSH1 0x0 PUSH1 0x20 DUP3 ADD MSTORE PUSH2 0x14AC DUP4 DUP5 PUSH1 0x0 ADD MLOAD MLOAD DUP5 DUP6 MLOAD PUSH2 0x14FE JUMP JUMPDEST SWAP4 SWAP3 POP POP POP JUMP JUMPDEST PUSH1 0x40 DUP1 MLOAD DUP1 DUP3 ADD SWAP1 SWAP2 MSTORE PUSH1 0x60 DUP2 MSTORE PUSH1 0x0 PUSH1 0x20 DUP3 ADD MSTORE PUSH2 0x14AC DUP4 DUP5 PUSH1 0x0 ADD MLOAD MLOAD DUP5 PUSH2 0x15E8 JUMP JUMPDEST PUSH1 0x40 DUP1 MLOAD DUP1 DUP3 ADD SWAP1 SWAP2 MSTORE PUSH1 0x60 DUP2 MSTORE PUSH1 0x0 PUSH1 0x20 DUP3 ADD MSTORE PUSH2 0x108C DUP5 DUP6 PUSH1 0x0 ADD MLOAD MLOAD DUP6 DUP6 PUSH2 0x1644 JUMP JUMPDEST PUSH1 0x40 DUP1 MLOAD DUP1 DUP3 ADD SWAP1 SWAP2 MSTORE PUSH1 0x60 DUP2 MSTORE PUSH1 0x0 PUSH1 0x20 DUP3 ADD MSTORE DUP3 MLOAD DUP3 GT ISZERO PUSH2 0x1521 JUMPI PUSH1 0x0 DUP1 REVERT JUMPDEST PUSH1 0x20 DUP6 ADD MLOAD PUSH2 0x1530 DUP4 DUP7 PUSH2 0x1D1B JUMP JUMPDEST GT ISZERO PUSH2 0x1563 JUMPI PUSH2 0x1563 DUP6 PUSH2 0x1553 DUP8 PUSH1 0x20 ADD MLOAD DUP8 DUP7 PUSH2 0x154E SWAP2 SWAP1 PUSH2 0x1D1B JUMP JUMPDEST PUSH2 0x16C5 JUMP JUMPDEST PUSH2 0x155E SWAP1 PUSH1 0x2 PUSH2 0x1DFB JUMP JUMPDEST PUSH2 0x16DC JUMP JUMPDEST PUSH1 0x0 DUP1 DUP7 MLOAD DUP1 MLOAD DUP8 PUSH1 0x20 DUP4 ADD ADD SWAP4 POP DUP1 DUP9 DUP8 ADD GT ISZERO PUSH2 0x1582 JUMPI DUP8 DUP7 ADD DUP3 MSTORE JUMPDEST POP POP POP PUSH1 0x20 DUP5 ADD JUMPDEST PUSH1 0x20 DUP5 LT PUSH2 0x15C2 JUMPI DUP1 MLOAD DUP3 MSTORE PUSH2 0x15A1 PUSH1 0x20 DUP4 PUSH2 0x1D1B JUMP JUMPDEST SWAP2 POP PUSH2 0x15AE PUSH1 0x20 DUP3 PUSH2 0x1D1B JUMP JUMPDEST SWAP1 POP PUSH2 0x15BB PUSH1 0x20 DUP6 PUSH2 0x1DE4 JUMP JUMPDEST SWAP4 POP PUSH2 0x158A JUMP JUMPDEST MLOAD DUP2 MLOAD PUSH1 0x0 NOT PUSH1 0x20 DUP7 SWAP1 SUB PUSH2 0x100 EXP ADD SWAP1 DUP2 AND SWAP1 NOT SWAP2 SWAP1 SWAP2 AND OR SWAP1 MSTORE POP DUP4 SWAP5 SWAP4 POP POP POP POP JUMP JUMPDEST PUSH1 0x40 DUP1 MLOAD DUP1 DUP3 ADD SWAP1 SWAP2 MSTORE PUSH1 0x60 DUP2 MSTORE PUSH1 0x0 PUSH1 0x20 DUP3 ADD MSTORE DUP4 PUSH1 0x20 ADD MLOAD DUP4 LT PUSH2 0x161D JUMPI PUSH2 0x161D DUP5 DUP6 PUSH1 0x20 ADD MLOAD PUSH1 0x2 PUSH2 0x155E SWAP2 SWAP1 PUSH2 0x1DFB JUMP JUMPDEST DUP4 MLOAD DUP1 MLOAD PUSH1 0x20 DUP6 DUP4 ADD ADD DUP5 DUP2 MSTORE8 POP DUP1 DUP6 EQ ISZERO PUSH2 0x163A JUMPI PUSH1 0x1 DUP2 ADD DUP3 MSTORE JUMPDEST POP SWAP4 SWAP5 SWAP4 POP POP POP POP JUMP JUMPDEST PUSH1 0x40 DUP1 MLOAD DUP1 DUP3 ADD SWAP1 SWAP2 MSTORE PUSH1 0x60 DUP2 MSTORE PUSH1 0x0 PUSH1 0x20 DUP3 ADD MSTORE PUSH1 0x20 DUP6 ADD MLOAD PUSH2 0x1668 DUP6 DUP5 PUSH2 0x1D1B JUMP JUMPDEST GT ISZERO PUSH2 0x167C JUMPI PUSH2 0x167C DUP6 PUSH2 0x1553 DUP7 DUP6 PUSH2 0x1D1B JUMP JUMPDEST PUSH1 0x0 PUSH1 0x1 PUSH2 0x168C DUP5 PUSH2 0x100 PUSH2 0x1EFE JUMP JUMPDEST PUSH2 0x1696 SWAP2 SWAP1 PUSH2 0x1DE4 JUMP JUMPDEST SWAP1 POP DUP6 MLOAD DUP4 DUP7 DUP3 ADD ADD DUP6 DUP4 NOT DUP3 MLOAD AND OR DUP2 MSTORE POP DUP1 MLOAD DUP5 DUP8 ADD GT ISZERO PUSH2 0x16BA JUMPI DUP4 DUP7 ADD DUP2 MSTORE JUMPDEST POP SWAP5 SWAP6 SWAP5 POP POP POP POP POP JUMP JUMPDEST PUSH1 0x0 DUP2 DUP4 GT ISZERO PUSH2 0x16D6 JUMPI POP DUP2 PUSH2 0x13AB JUMP JUMPDEST POP SWAP2 SWAP1 POP JUMP JUMPDEST DUP2 MLOAD PUSH2 0x16E8 DUP4 DUP4 PUSH2 0x1346 JUMP JUMPDEST POP PUSH2 0x13CC DUP4 DUP3 PUSH2 0x1485 JUMP JUMPDEST DUP3 DUP1 SLOAD PUSH2 0x16FF SWAP1 PUSH2 0x1B67 JUMP JUMPDEST SWAP1 PUSH1 0x0 MSTORE PUSH1 0x20 PUSH1 0x0 KECCAK256 SWAP1 PUSH1 0x1F ADD PUSH1 0x20 SWAP1 DIV DUP2 ADD SWAP3 DUP3 PUSH2 0x1721 JUMPI PUSH1 0x0 DUP6 SSTORE PUSH2 0x1767 JUMP JUMPDEST DUP3 PUSH1 0x1F LT PUSH2 0x173A JUMPI DUP1 MLOAD PUSH1 0xFF NOT AND DUP4 DUP1 ADD OR DUP6 SSTORE PUSH2 0x1767 JUMP JUMPDEST DUP3 DUP1 ADD PUSH1 0x1 ADD DUP6 SSTORE DUP3 ISZERO PUSH2 0x1767 JUMPI SWAP2 DUP3 ADD JUMPDEST DUP3 DUP2 GT ISZERO PUSH2 0x1767 JUMPI DUP3 MLOAD DUP3 SSTORE SWAP2 PUSH1 0x20 ADD SWAP2 SWAP1 PUSH1 0x1 ADD SWAP1 PUSH2 0x174C JUMP JUMPDEST POP PUSH2 0x1773 SWAP3 SWAP2 POP PUSH2 0x17B2 JUMP JUMPDEST POP SWAP1 JUMP JUMPDEST PUSH1 0x40 DUP1 MLOAD PUSH1 0xA0 DUP2 ADD DUP3 MSTORE PUSH1 0x0 DUP1 DUP3 MSTORE PUSH1 0x20 DUP1 DUP4 ADD DUP3 SWAP1 MSTORE DUP3 DUP5 ADD DUP3 SWAP1 MSTORE PUSH1 0x60 DUP1 DUP5 ADD DUP4 SWAP1 MSTORE DUP5 MLOAD DUP1 DUP7 ADD SWAP1 SWAP6 MSTORE DUP5 MSTORE DUP4 ADD MSTORE SWAP1 PUSH1 0x80 DUP3 ADD MSTORE SWAP1 JUMP JUMPDEST JUMPDEST DUP1 DUP3 GT ISZERO PUSH2 0x1773 JUMPI PUSH1 0x0 DUP2 SSTORE PUSH1 0x1 ADD PUSH2 0x17B3 JUMP JUMPDEST PUSH1 0x0 DUP1 PUSH1 0x40 DUP4 DUP6 SUB SLT ISZERO PUSH2 0x17DA JUMPI PUSH1 0x0 DUP1 REVERT JUMPDEST POP POP DUP1 CALLDATALOAD SWAP3 PUSH1 0x20 SWAP1 SWAP2 ADD CALLDATALOAD SWAP2 POP JUMP JUMPDEST DUP1 CALLDATALOAD PUSH1 0x1 PUSH1 0x1 PUSH1 0xA0 SHL SUB DUP2 AND DUP2 EQ PUSH2 0x1800 JUMPI PUSH1 0x0 DUP1 REVERT JUMPDEST SWAP2 SWAP1 POP JUMP JUMPDEST PUSH4 0x4E487B71 PUSH1 0xE0 SHL PUSH1 0x0 MSTORE PUSH1 0x41 PUSH1 0x4 MSTORE PUSH1 0x24 PUSH1 0x0 REVERT JUMPDEST PUSH1 0x40 MLOAD PUSH1 0x1F DUP3 ADD PUSH1 0x1F NOT AND DUP2 ADD PUSH8 0xFFFFFFFFFFFFFFFF DUP2 GT DUP3 DUP3 LT OR ISZERO PUSH2 0x1844 JUMPI PUSH2 0x1844 PUSH2 0x1805 JUMP JUMPDEST PUSH1 0x40 MSTORE SWAP2 SWAP1 POP JUMP JUMPDEST PUSH1 0x0 PUSH8 0xFFFFFFFFFFFFFFFF DUP3 GT ISZERO PUSH2 0x1866 JUMPI PUSH2 0x1866 PUSH2 0x1805 JUMP JUMPDEST POP PUSH1 0x1F ADD PUSH1 0x1F NOT AND PUSH1 0x20 ADD SWAP1 JUMP JUMPDEST PUSH1 0x0 DUP3 PUSH1 0x1F DUP4 ADD SLT PUSH2 0x1885 JUMPI PUSH1 0x0 DUP1 REVERT JUMPDEST DUP2 CALLDATALOAD PUSH2 0x1898 PUSH2 0x1893 DUP3 PUSH2 0x184C JUMP JUMPDEST PUSH2 0x181B JUMP JUMPDEST DUP2 DUP2 MSTORE DUP5 PUSH1 0x20 DUP4 DUP7 ADD ADD GT ISZERO PUSH2 0x18AD JUMPI PUSH1 0x0 DUP1 REVERT JUMPDEST DUP2 PUSH1 0x20 DUP6 ADD PUSH1 0x20 DUP4 ADD CALLDATACOPY PUSH1 0x0 SWAP2 DUP2 ADD PUSH1 0x20 ADD SWAP2 SWAP1 SWAP2 MSTORE SWAP4 SWAP3 POP POP POP JUMP JUMPDEST PUSH1 0x0 DUP1 PUSH1 0x0 DUP1 PUSH1 0x0 DUP1 PUSH1 0x0 DUP1 PUSH1 0x0 PUSH2 0x120 DUP11 DUP13 SUB SLT ISZERO PUSH2 0x18E9 JUMPI PUSH1 0x0 DUP1 REVERT JUMPDEST PUSH2 0x18F2 DUP11 PUSH2 0x17E9 JUMP JUMPDEST SWAP9 POP PUSH2 0x1900 PUSH1 0x20 DUP12 ADD PUSH2 0x17E9 JUMP JUMPDEST SWAP8 POP PUSH1 0x40 DUP11 ADD CALLDATALOAD PUSH8 0xFFFFFFFFFFFFFFFF DUP1 DUP3 GT ISZERO PUSH2 0x191D JUMPI PUSH1 0x0 DUP1 REVERT JUMPDEST PUSH2 0x1929 DUP14 DUP4 DUP15 ADD PUSH2 0x1874 JUMP JUMPDEST SWAP9 POP PUSH1 0x60 DUP13 ADD CALLDATALOAD SWAP8 POP PUSH1 0x80 DUP13 ADD CALLDATALOAD SWAP2 POP DUP1 DUP3 GT ISZERO PUSH2 0x1946 JUMPI PUSH1 0x0 DUP1 REVERT JUMPDEST POP PUSH2 0x1953 DUP13 DUP3 DUP14 ADD PUSH2 0x1874 JUMP JUMPDEST SWAP6 POP POP PUSH2 0x1962 PUSH1 0xA0 DUP12 ADD PUSH2 0x17E9 JUMP JUMPDEST SWAP4 POP PUSH1 0xC0 DUP11 ADD CALLDATALOAD SWAP3 POP PUSH1 0xE0 DUP11 ADD CALLDATALOAD SWAP2 POP PUSH2 0x100 DUP11 ADD CALLDATALOAD SWAP1 POP SWAP3 SWAP6 SWAP9 POP SWAP3 SWAP6 SWAP9 POP SWAP3 SWAP6 SWAP9 JUMP JUMPDEST PUSH1 0x0 PUSH1 0x20 DUP3 DUP5 SUB SLT ISZERO PUSH2 0x1999 JUMPI PUSH1 0x0 DUP1 REVERT JUMPDEST DUP2 CALLDATALOAD PUSH8 0xFFFFFFFFFFFFFFFF DUP2 GT ISZERO PUSH2 0x19B0 JUMPI PUSH1 0x0 DUP1 REVERT JUMPDEST PUSH2 0x108C DUP5 DUP3 DUP6 ADD PUSH2 0x1874 JUMP JUMPDEST PUSH1 0x0 JUMPDEST DUP4 DUP2 LT ISZERO PUSH2 0x19D7 JUMPI DUP2 DUP2 ADD MLOAD DUP4 DUP3 ADD MSTORE PUSH1 0x20 ADD PUSH2 0x19BF JUMP JUMPDEST DUP4 DUP2 GT ISZERO PUSH2 0x13CC JUMPI POP POP PUSH1 0x0 SWAP2 ADD MSTORE JUMP JUMPDEST PUSH1 0x0 DUP2 MLOAD DUP1 DUP5 MSTORE PUSH2 0x1A00 DUP2 PUSH1 0x20 DUP7 ADD PUSH1 0x20 DUP7 ADD PUSH2 0x19BC JUMP JUMPDEST PUSH1 0x1F ADD PUSH1 0x1F NOT AND SWAP3 SWAP1 SWAP3 ADD PUSH1 0x20 ADD SWAP3 SWAP2 POP POP JUMP JUMPDEST PUSH4 0x4E487B71 PUSH1 0xE0 SHL PUSH1 0x0 MSTORE PUSH1 0x21 PUSH1 0x4 MSTORE PUSH1 0x24 PUSH1 0x0 REVERT JUMPDEST PUSH1 0x0 PUSH2 0x140 DUP13 DUP4 MSTORE DUP1 PUSH1 0x20 DUP5 ADD MSTORE PUSH2 0x1A44 DUP2 DUP5 ADD DUP14 PUSH2 0x19E8 JUMP JUMPDEST PUSH1 0x40 DUP5 ADD DUP13 SWAP1 MSTORE PUSH1 0x1 PUSH1 0x1 PUSH1 0xA0 SHL SUB DUP12 DUP2 AND PUSH1 0x60 DUP7 ADD MSTORE DUP11 AND PUSH1 0x80 DUP6 ADD MSTORE DUP9 ISZERO ISZERO PUSH1 0xA0 DUP6 ADD MSTORE DUP4 DUP2 SUB PUSH1 0xC0 DUP6 ADD MSTORE SWAP1 POP PUSH2 0x1A7E DUP2 DUP9 PUSH2 0x19E8 JUMP JUMPDEST SWAP1 POP DUP3 DUP2 SUB PUSH1 0xE0 DUP5 ADD MSTORE PUSH2 0x1A92 DUP2 DUP8 PUSH2 0x19E8 JUMP JUMPDEST SWAP1 POP DUP3 DUP2 SUB PUSH2 0x100 DUP5 ADD MSTORE PUSH2 0x1AA7 DUP2 DUP7 PUSH2 0x19E8 JUMP JUMPDEST SWAP2 POP POP PUSH1 0x5 DUP4 LT PUSH2 0x1AC8 JUMPI PUSH4 0x4E487B71 PUSH1 0xE0 SHL PUSH1 0x0 MSTORE PUSH1 0x21 PUSH1 0x4 MSTORE PUSH1 0x24 PUSH1 0x0 REVERT JUMPDEST DUP3 PUSH2 0x120 DUP4 ADD MSTORE SWAP12 SWAP11 POP POP POP POP POP POP POP POP POP POP POP JUMP JUMPDEST PUSH1 0x0 PUSH1 0x20 DUP3 DUP5 SUB SLT ISZERO PUSH2 0x1AF0 JUMPI PUSH1 0x0 DUP1 REVERT JUMPDEST PUSH2 0x14AC DUP3 PUSH2 0x17E9 JUMP JUMPDEST PUSH1 0x0 PUSH1 0x20 DUP3 DUP5 SUB SLT ISZERO PUSH2 0x1B0B JUMPI PUSH1 0x0 DUP1 REVERT JUMPDEST DUP2 MLOAD PUSH8 0xFFFFFFFFFFFFFFFF DUP2 GT ISZERO PUSH2 0x1B22 JUMPI PUSH1 0x0 DUP1 REVERT JUMPDEST DUP3 ADD PUSH1 0x1F DUP2 ADD DUP5 SGT PUSH2 0x1B33 JUMPI PUSH1 0x0 DUP1 REVERT JUMPDEST DUP1 MLOAD PUSH2 0x1B41 PUSH2 0x1893 DUP3 PUSH2 0x184C JUMP JUMPDEST DUP2 DUP2 MSTORE DUP6 PUSH1 0x20 DUP4 DUP6 ADD ADD GT ISZERO PUSH2 0x1B56 JUMPI PUSH1 0x0 DUP1 REVERT JUMPDEST PUSH2 0x104E DUP3 PUSH1 0x20 DUP4 ADD PUSH1 0x20 DUP7 ADD PUSH2 0x19BC JUMP JUMPDEST PUSH1 0x1 DUP2 DUP2 SHR SWAP1 DUP3 AND DUP1 PUSH2 0x1B7B JUMPI PUSH1 0x7F DUP3 AND SWAP2 POP JUMPDEST PUSH1 0x20 DUP3 LT DUP2 EQ ISZERO PUSH2 0x16D6 JUMPI PUSH4 0x4E487B71 PUSH1 0xE0 SHL PUSH1 0x0 MSTORE PUSH1 0x22 PUSH1 0x4 MSTORE PUSH1 0x24 PUSH1 0x0 REVERT JUMPDEST PUSH1 0x40 DUP2 MSTORE PUSH1 0x0 PUSH2 0x1BAF PUSH1 0x40 DUP4 ADD DUP5 PUSH2 0x19E8 JUMP JUMPDEST DUP3 DUP2 SUB PUSH1 0x20 DUP5 ADD MSTORE PUSH1 0x9 DUP2 MSTORE PUSH9 0x11195B1A5D995C9959 PUSH1 0xBA SHL PUSH1 0x20 DUP3 ADD MSTORE PUSH1 0x40 DUP2 ADD SWAP2 POP POP SWAP3 SWAP2 POP POP JUMP JUMPDEST PUSH1 0x0 PUSH1 0x20 DUP3 DUP5 SUB SLT ISZERO PUSH2 0x1BEC JUMPI PUSH1 0x0 DUP1 REVERT JUMPDEST DUP2 MLOAD DUP1 ISZERO ISZERO DUP2 EQ PUSH2 0x14AC JUMPI PUSH1 0x0 DUP1 REVERT JUMPDEST PUSH1 0x20 DUP2 MSTORE PUSH1 0x0 PUSH2 0x14AC PUSH1 0x20 DUP4 ADD DUP5 PUSH2 0x19E8 JUMP JUMPDEST PUSH1 0x0 PUSH1 0x20 DUP3 DUP5 SUB SLT ISZERO PUSH2 0x1C21 JUMPI PUSH1 0x0 DUP1 REVERT JUMPDEST POP MLOAD SWAP2 SWAP1 POP JUMP JUMPDEST PUSH1 0x20 DUP1 DUP3 MSTORE DUP2 DUP2 ADD MSTORE PUSH32 0x4F776E61626C653A2063616C6C6572206973206E6F7420746865206F776E6572 PUSH1 0x40 DUP3 ADD MSTORE PUSH1 0x60 ADD SWAP1 JUMP JUMPDEST PUSH1 0x0 PUSH1 0x20 DUP1 DUP4 MSTORE PUSH1 0x0 DUP5 SLOAD DUP2 PUSH1 0x1 DUP3 DUP2 SHR SWAP2 POP DUP1 DUP4 AND DUP1 PUSH2 0x1C7F JUMPI PUSH1 0x7F DUP4 AND SWAP3 POP JUMPDEST DUP6 DUP4 LT DUP2 EQ ISZERO PUSH2 0x1C9D JUMPI PUSH4 0x4E487B71 PUSH1 0xE0 SHL DUP6 MSTORE PUSH1 0x22 PUSH1 0x4 MSTORE PUSH1 0x24 DUP6 REVERT JUMPDEST DUP8 DUP7 ADD DUP4 DUP2 MSTORE PUSH1 0x20 ADD DUP2 DUP1 ISZERO PUSH2 0x1CBA JUMPI PUSH1 0x1 DUP2 EQ PUSH2 0x1CCB JUMPI PUSH2 0x1CF6 JUMP JUMPDEST PUSH1 0xFF NOT DUP7 AND DUP3 MSTORE DUP8 DUP3 ADD SWAP7 POP PUSH2 0x1CF6 JUMP JUMPDEST PUSH1 0x0 DUP12 DUP2 MSTORE PUSH1 0x20 SWAP1 KECCAK256 PUSH1 0x0 JUMPDEST DUP7 DUP2 LT ISZERO PUSH2 0x1CF0 JUMPI DUP2 SLOAD DUP5 DUP3 ADD MSTORE SWAP1 DUP6 ADD SWAP1 DUP10 ADD PUSH2 0x1CD7 JUMP JUMPDEST DUP4 ADD SWAP8 POP POP JUMPDEST POP SWAP5 SWAP10 SWAP9 POP POP POP POP POP POP POP POP POP JUMP JUMPDEST PUSH4 0x4E487B71 PUSH1 0xE0 SHL PUSH1 0x0 MSTORE PUSH1 0x11 PUSH1 0x4 MSTORE PUSH1 0x24 PUSH1 0x0 REVERT JUMPDEST PUSH1 0x0 DUP3 NOT DUP3 GT ISZERO PUSH2 0x1D2E JUMPI PUSH2 0x1D2E PUSH2 0x1D05 JUMP JUMPDEST POP ADD SWAP1 JUMP JUMPDEST PUSH1 0x1 PUSH1 0x1 PUSH1 0xA0 SHL SUB DUP10 DUP2 AND DUP3 MSTORE PUSH1 0x20 DUP3 ADD DUP10 SWAP1 MSTORE PUSH1 0x40 DUP3 ADD DUP9 SWAP1 MSTORE DUP7 AND PUSH1 0x60 DUP3 ADD MSTORE PUSH1 0x1 PUSH1 0x1 PUSH1 0xE0 SHL SUB NOT DUP6 AND PUSH1 0x80 DUP3 ADD MSTORE PUSH1 0xA0 DUP2 ADD DUP5 SWAP1 MSTORE PUSH1 0xC0 DUP2 ADD DUP4 SWAP1 MSTORE PUSH2 0x100 PUSH1 0xE0 DUP3 ADD DUP2 SWAP1 MSTORE PUSH1 0x0 SWAP1 PUSH2 0x1D8C DUP4 DUP3 ADD DUP6 PUSH2 0x19E8 JUMP JUMPDEST SWAP12 SWAP11 POP POP POP POP POP POP POP POP POP POP POP JUMP JUMPDEST PUSH1 0x1 DUP1 PUSH1 0xA0 SHL SUB DUP5 AND DUP2 MSTORE DUP3 PUSH1 0x20 DUP3 ADD MSTORE PUSH1 0x60 PUSH1 0x40 DUP3 ADD MSTORE PUSH1 0x0 PUSH2 0x104E PUSH1 0x60 DUP4 ADD DUP5 PUSH2 0x19E8 JUMP JUMPDEST PUSH1 0x0 DUP3 PUSH2 0x1DDF JUMPI PUSH4 0x4E487B71 PUSH1 0xE0 SHL PUSH1 0x0 MSTORE PUSH1 0x12 PUSH1 0x4 MSTORE PUSH1 0x24 PUSH1 0x0 REVERT JUMPDEST POP MOD SWAP1 JUMP JUMPDEST PUSH1 0x0 DUP3 DUP3 LT ISZERO PUSH2 0x1DF6 JUMPI PUSH2 0x1DF6 PUSH2 0x1D05 JUMP JUMPDEST POP SUB SWAP1 JUMP JUMPDEST PUSH1 0x0 DUP2 PUSH1 0x0 NOT DIV DUP4 GT DUP3 ISZERO ISZERO AND ISZERO PUSH2 0x1E15 JUMPI PUSH2 0x1E15 PUSH2 0x1D05 JUMP JUMPDEST POP MUL SWAP1 JUMP JUMPDEST PUSH1 0x1 DUP2 DUP2 JUMPDEST DUP1 DUP6 GT ISZERO PUSH2 0x1E55 JUMPI DUP2 PUSH1 0x0 NOT DIV DUP3 GT ISZERO PUSH2 0x1E3B JUMPI PUSH2 0x1E3B PUSH2 0x1D05 JUMP JUMPDEST DUP1 DUP6 AND ISZERO PUSH2 0x1E48 JUMPI SWAP2 DUP2 MUL SWAP2 JUMPDEST SWAP4 DUP5 SHR SWAP4 SWAP1 DUP1 MUL SWAP1 PUSH2 0x1E1F JUMP JUMPDEST POP SWAP3 POP SWAP3 SWAP1 POP JUMP JUMPDEST PUSH1 0x0 DUP3 PUSH2 0x1E6C JUMPI POP PUSH1 0x1 PUSH2 0x13AB JUMP JUMPDEST DUP2 PUSH2 0x1E79 JUMPI POP PUSH1 0x0 PUSH2 0x13AB JUMP JUMPDEST DUP2 PUSH1 0x1 DUP2 EQ PUSH2 0x1E8F JUMPI PUSH1 0x2 DUP2 EQ PUSH2 0x1E99 JUMPI PUSH2 0x1EB5 JUMP JUMPDEST PUSH1 0x1 SWAP2 POP POP PUSH2 0x13AB JUMP JUMPDEST PUSH1 0xFF DUP5 GT ISZERO PUSH2 0x1EAA JUMPI PUSH2 0x1EAA PUSH2 0x1D05 JUMP JUMPDEST POP POP PUSH1 0x1 DUP3 SHL PUSH2 0x13AB JUMP JUMPDEST POP PUSH1 0x20 DUP4 LT PUSH2 0x133 DUP4 LT AND PUSH1 0x4E DUP5 LT PUSH1 0xB DUP5 LT AND OR ISZERO PUSH2 0x1ED8 JUMPI POP DUP2 DUP2 EXP PUSH2 0x13AB JUMP JUMPDEST PUSH2 0x1EE2 DUP4 DUP4 PUSH2 0x1E1A JUMP JUMPDEST DUP1 PUSH1 0x0 NOT DIV DUP3 GT ISZERO PUSH2 0x1EF6 JUMPI PUSH2 0x1EF6 PUSH2 0x1D05 JUMP JUMPDEST MUL SWAP4 SWAP3 POP POP POP JUMP JUMPDEST PUSH1 0x0 PUSH2 0x14AC DUP4 DUP4 PUSH2 0x1E5D JUMP INVALID LOG2 PUSH5 0x6970667358 0x22 SLT KECCAK256 0xED 0xD5 0xBA ADD SWAP9 BYTE 0xDA SWAP10 0xD0 GASLIMIT 0xB1 0x2B 0x1F PUSH27 0x48D5A190BB4DBED31A6A56BC6E5F0D508C5364736F6C6343000809 STOP CALLER ",
  "sha1": "4e1a6a5fc54aef9589ef9c90e1fde5f1282e0f3e",
  "source": "// SPDX-License-Identifier: MIT\npragma solidity ^0.8.7;\n\nimport \"@chainlink/contracts/src/v0.8/ChainlinkClient.sol\";\nimport \"@openzeppelin/contracts/access/Ownable.sol\";\nimport \"./strings.sol\";\n\ncontract Escrow is ChainlinkClient, Ownable {\n    using Chainlink for Chainlink.Request;\n    using strings for string;\n    using strings for bytes32;\n\n    uint256 private oracleFee;\n    address private oracle;\n    bytes32 private jobId;\n\n    address factory;\n    uint256 public lockPeriod;\n    uint256 public currentBlock;\n\n    struct Product {\n        uint256 id;\n        string name;\n        uint256 price;\n        address owner;\n        address buyer;\n        bool purchased;\n        string productURI;\n        string trackingId;\n        string deliveryStatus;\n        Stage stage;\n    }\n\n    Product public product;\n\n    enum Stage {\n        Initiate,\n        WaitForShipping,\n        Shipping,\n        Delivered,\n        End\n    }\n\n    event OrderInitiate(address indexed _buyer);\n    event OrderCancel(address indexed _buyer);\n\n    event ShipmentInprogress(string trackingNo);\n    event ShipmentUpdated(bytes32 status);\n    event OrderCompleted(string trackingNo);\n\n    modifier validStage(Stage _stage, string memory message) {\n        require(product.stage == _stage, message);\n        _;\n    }\n\n    modifier onlyBuyer() {\n        require(msg.sender == product.buyer, \"Only Buyer\");\n        _;\n    }\n\n    constructor() {\n        factory = msg.sender;\n    }\n\n    function init(\n        address _link,\n        address _oracle,\n        string memory _jobId,\n        uint256 _id,\n        string memory _name,\n        address _seller,\n        // address _currency,\n        uint256 _price,\n        uint256 _lockPeriod,\n        uint256 _oracleFee\n    ) external {\n        require(msg.sender == factory, \"FORBIDDEN\");\n        // setPublicChainlinkToken();\n        setChainlinkToken(_link);\n        transferOwnership(_seller);\n        oracle = _oracle;\n        jobId = _jobId.stringToBytes32();\n        lockPeriod = _lockPeriod;\n        oracleFee = _oracleFee;\n\n        product.id = _id;\n        product.name = _name;\n        product.stage = Stage.Initiate;\n        product.owner = _seller;\n        // currency = IERC20(_currency);\n        product.price = _price;\n    }\n\n    function setProductURI(string memory _productURI) public onlyOwner {\n        product.productURI = _productURI;\n    }\n\n    function order()\n        external\n        payable\n        validStage(Stage.Initiate, \"Already have a buyer\")\n    {\n        require(msg.sender != owner(), \"You can not buy from yourself\");\n        require(msg.value >= product.price, \"Not enough fund\");\n        product.stage = Stage.WaitForShipping;\n        product.buyer = msg.sender;\n        currentBlock = block.number;\n        // currency.transferFrom(msg.sender, address(this), price);\n        emit OrderInitiate(product.buyer);\n    }\n\n    function cancelOrder()\n        external\n        onlyBuyer\n        validStage(Stage.WaitForShipping, \"shipping in progress\")\n    {\n        require(\n            block.number >= currentBlock + lockPeriod,\n            \"Not allowed to cancel order\"\n        );\n        product.buyer = address(0);\n        product.stage = Stage.Initiate;\n        // currency.transfer(msg.sender, price);\n        payable(msg.sender).transfer(address(this).balance);\n        emit OrderCancel(msg.sender);\n    }\n\n    function updateShipment(string memory _trackingId)\n        external\n        onlyOwner\n        validStage(Stage.WaitForShipping, \"Invalid Stage\")\n    {\n        product.stage = Stage.Shipping;\n        product.trackingId = _trackingId;\n        emit ShipmentInprogress(product.trackingId);\n    }\n\n    function requestShippingDetail()\n        external\n        validStage(Stage.Shipping, \"Need shipment\")\n    {\n        Chainlink.Request memory req = buildChainlinkRequest(\n            jobId,\n            address(this),\n            this.fulfillShippingDetail.selector\n        );\n\n        req.add(\"trackingId\", product.trackingId);\n        bytes32 requestId = sendChainlinkRequestTo(oracle, req, oracleFee);\n        emit ChainlinkRequested(requestId);\n    }\n\n    function fulfillShippingDetail(bytes32 _requestId, bytes32 _deliveryStatus)\n        public\n        recordChainlinkFulfillment(_requestId)\n    {\n        product.deliveryStatus = _deliveryStatus.bytes32ToString();\n        if (product.deliveryStatus.compareStrings(\"Delivered\")) {\n            product.stage = Stage.Delivered;\n        }\n\n        emit ShipmentUpdated(_deliveryStatus);\n    }\n\n    function reclaimFund()\n        external\n        onlyOwner\n        validStage(Stage.Delivered, \"Invalid Stage\")\n    {\n        // currency.transfer(msg.sender, address(this).balance);\n        product.stage = Stage.End;\n        payable(msg.sender).transfer(address(this).balance);\n    }\n}\n",
  "sourcePath": "contracts/Escrow.sol",
  "type": "contract"
}